:020000040800F2
:1000000050400020650100086D0100086F010008E4
:10001000710100087301000875010008000000006C
:100020000000000000000000000000007701000850
:1000300079010008000000007B0100082D41000844
:100040007F0100087F0100087F0100087F01000890
:100050007F0100087F0100087F0100087F01000880
:100060007F0100087F0100087F0100087F01000870
:100070007F0100087F0100087F0100087F01000860
:100080007F0100087F0100087F0100087F01000850
:100090007F0100087F0100087F0100087F01000840
:1000A0007F010008954200087F0100087F010008D9
:1000B000B94200087F0100087F0100087F010008A5
:1000C0007F0100087F0100087F0100087F01000810
:1000D0007F0100087F0100087F0100087F01000800
:1000E0009B0600087F0100087F0100087F010008CF
:1000F0007F0100087F0100087F0100080000000068
:100100007F01000800000000754300087F0100081F
:100110007F0100087F0100087F0100087F010008BF
:100120007F0100087F0100087F0100087F010008AF
:100130007F01000800000000000000007F010008AF
:100140007F0100087F0100087F0100087F0100088F
:10015000DFF80CD000F048FA00480047F14F0008E3
:10016000504000200648804706480047FEE7FEE76B
:10017000FEE7FEE7FEE7FEE7FEE7FEE7FEE7FEE757
:100180008D4100085101000840EA01039B0703D09C
:1001900009E008C9121F08C0042AFAD203E011F8C6
:1001A000013B00F8013B521EF9D27047D2B201E088
:1001B00000F8012B491EFBD270470022F6E710B56C
:1001C00013460A4604461946FFF7F0FF204610BDC5
:1001D00030B504460020034600E05B1C934203D286
:1001E000E05CCD5C401BF8D030BD000070B50F4D19
:1001F00000B92868002412E00A4602E09E4203D0BB
:10020000521C1378002BF9D1DAB2224305D02BB15E
:1002100024B1002100F8011B04E00446401C0678CC
:10022000002EE9D12860204670BD000000000020AB
:100230002DE9FE4F804681EA0300C00F0C46009076
:1002400021F0004123F00045B8EB0200A94105D29E
:100250004046214690461C460B46024623F000408D
:10026000104347D0270DC7F30A00C3F30A51029089
:10027000401A019040286BDAC3F3130040F4801B4E
:100280000098924620B10023D2EB030A63EB0B0BDC
:1002900001985946C0F14002504600F016F9064652
:1002A0000D4650465946019A00F02EF910EB080011
:1002B0006141002487EA115284EAE7731A4340D06F
:1002C000009A62B3019A012A4FEA075215DC001B1B
:1002D00061EB02014FF0004202EA0752CDE9004211
:1002E000001C41F5801132462B4600F02EF903B078
:1002F000BDE8F08F40462146F9E7001B61EB0201A3
:10030000001C41F5801300185B412018A2F500176E
:1003100047EB030140EAD570B6196D4111E06D0855
:100320004FEA360645EAC0754FEA0752001B61EBFB
:100330000201001C41F5801149084FEA3000001904
:10034000514132462B4603B0BDE8F04F00F0EEB805
:100350000098012240000023D0EB020263EBE0731F
:10036000009821464FEAE074B8EB000061EB04010D
:10037000E9E783F000435BE781F0004158E72DE9AE
:10038000F04D81EA030404F0004B21F000451446CF
:100390004FF0000A23F0004150EA050220D054EA51
:1003A00001021DD0C5F30A570246C5F31303C1F37A
:1003B0001300C1F30A5640F4801543F48013A7EBF1
:1003C0000608101BD64608F2FD3873EB050002D371
:1003D00008F1010801E092185B41B8F1000F03DA5F
:1003E00000200146BDE8F08D00204FF48011064644
:1003F00084460EE0171B73EB050705D3121B63EB56
:10040000050306434CEA010C49084FEA30009218F4
:100410005B4150EA0107EDD152EA030012D082EAB3
:10042000040083EA0501084305D0101BAB4106D246
:100430000122002306E000224FF0004302E06FF0AB
:10044000010253101AEB06004CEB085110EB0A00A6
:1004500041EB0B01BDE8F04D00F068B80EB5C10FDF
:1004600080EAE0700844CA07002140F233438DE877
:100470000E000A460B4600F068F803B000BD0EB54A
:1004800040F2334102910021CDE900110A460B46AA
:1004900000F05BF803B000BDC1F30A5210B5C1F320
:1004A000130140F2FF3341F480119A4201DA002037
:1004B00010BD40F233439A42A2F2334203DC52426F
:1004C00000F012F810BD904010BD202A04DB203A45
:1004D00000FA02F1002070479140C2F1200320FA97
:1004E00003F3194390407047202A04DB203A21FA95
:1004F00002F00021704721FA02F3D040C2F120023D
:100500009140084319467047202A06DBCB17203A52
:1005100041FA02F043EAE07306E041FA02F3D04008
:10052000C2F12002914008431946704710B5141ECD
:1005300073F1000408DA401C41F1000192185B419C
:100540001A4301D120F0010010BD2DE9F04D924673
:100550009B4611B1B1FA81F202E0B0FA80F220328A
:100560009046FFF7B2FF04460F4640EA0A0041EA10
:100570000B0153465A46084313D0114653EA010073
:1005800019D0C8F140025046FFF7AEFF05460E46AF
:10059000504659464246FFF798FF084305D00120D0
:1005A00004E020463946BDE8F08D0020054346EAC8
:1005B000E0762C4337430A986305E40AA0EB080071
:1005C0000022FD0A44EA47540A3002D500200146C1
:1005D000E9E7010510196941DDE90845001969419C
:1005E000BDE8F04DA2E70000064C074D06E0E068CC
:1005F00040F0010394E8070098471034AC42F6D36A
:10060000FFF7AAFD486500086865000810B50024DA
:10061000C4F20204A4F55C40012104F070F800BFAC
:1006200020460021022204F03AFB0028F8D02046A0
:1006300000210222BDE8104004F02ABBB0B50146FB
:10064000B0F8A0000022C1E9000246F2004491F88F
:10065000A400C4F200040A818872204604F0C2F9A2
:1006600043F6EE31C2F2000143F6D83508704FF47C
:100670000071C2F20005022898BF01EBC001296099
:1006800089B2204604F0E8F829680128F8D089B238
:100690002046BDE8B04004F0D4B880B54FF4004027
:1006A00004F0BEFBB8B1FFF7B1FF40F20800C2F2A0
:1006B0000000008840F2ED0100BAC2F20001000C17
:1006C000A1F80700022000F012FF4FF40040BDE83F
:1006D000804004F09FBB80BD10B588B000208DF82D
:1006E0001E0040F20800C2F2000003904FF40060C8
:1006F000049042F24C40C4F2010001904FF480702B
:10070000ADF81C004FF40070029001200024059009
:100710004FF44050C4F20204069001AA2046002182
:1007200004F0C6FA2046002104F0A0FA2046002179
:1007300004F078FA002003F078FF42F20044C4F29B
:10074000010420464FF48071012203F0E6FF2046A9
:100750000221002203F0E1FF2046002103F021FFE7
:100760002046002103F0BFFF20460121012203F0B3
:10077000FBFE204601214FF4602203F045FF204696
:100780000121012203F024FF204600210022002342
:1007900003F057FF204603F012FF204603F0D4FE7B
:1007A000204603F007FF45F20000CFF6FF70215806
:1007B000002241F0010121500020002104F09EF9A7
:1007C000002004F0D9F908B010BD10B588B00020A1
:1007D0008DF81E0040F20800C2F2000003904FF4B2
:1007E0000060049042F24C40C4F2010001904FF4CA
:1007F0008070ADF81C004FF40070029001200024BE
:1008000005904FF44050C4F20204069001AA20461D
:10081000002104F04DFA2046002104F027FA20467A
:10082000002104F0FFF94FF4C02003F0FEFE42F275
:100830000044C4F2010420464FF48071012203F009
:100840006CFF20460221002203F067FF20460021B2
:1008500003F0A7FE2046002103F045FF20460121BA
:10086000012203F081FE204601214FF4602203F0B3
:10087000CBFE20460121012203F0AAFE20460021E2
:100880000022002303F0DDFE204603F098FE204600
:1008900003F05AFE204603F08DFE45F20000CFF62D
:1008A000FF702158002241F0010121500020002159
:1008B00004F024F9002004F05FF908B010BD70B511
:1008C00040F60004C4F2010404F500663046042139
:1008D00004224FF4005304F0F9FA304604210422B4
:1008E0004FF4004304F0F2FA04F580652846042131
:1008F0000422022304F0EAFA2846042104224FF4D9
:10090000805304F0E3FA284604210422202304F053
:10091000DDFA3046042104224FF4804304F0D6FA75
:10092000204604210422802304F0D0FA2846042122
:100930000422012304F0CAFA2846042104220423D5
:1009400004F0C4FA2846042104224FF4004304F0C2
:10095000BDFA2046042104224FF4806304F0B6FA65
:100960002846042104224FF4807304F0AFFA204695
:10097000042104224FF4007304F0A8FA2046042155
:1009800004224FF4807304F0A1FA284604210422C3
:100990004FF4804304F09AFA2846042104224FF4CD
:1009A000005304F093FA204604210422012304F0AA
:1009B0008DFA204604210422022304F087FA2046FF
:1009C00004210422042304F081FA20460421042295
:1009D000082304F07BFA204604210422202304F09B
:1009E00075FA204604210422402304F06FFA2046C1
:1009F00004210422102304F069FA28460421042269
:100A00004FF4806304F062FA2846042104224FF474
:100A1000006304F05BFA2046042104224FF4805363
:100A200004F054FA2046042104224FF40063BDE888
:100A3000704004F04BBA70B540F60004C4F20104F3
:100A400004F500663046102104224FF4005304F0F0
:100A50003DFA3046102104224FF4004304F036FAE8
:100A600004F58065284610210422022304F02EFAA2
:100A70002846102104224FF4805304F027FA284618
:100A800010210422202304F021FA304610210422F0
:100A90004FF4804304F01AFA2046102104228023E8
:100AA00004F014FA284610210422012304F00EFA5F
:100AB000284610210422042304F008FA28461021B5
:100AC00004224FF4004304F001FA204610210422CE
:100AD0004FF4806304F0FAF92846102104224FF401
:100AE000807304F0F3F92046102104224FF40073C0
:100AF00004F0ECF92046102104224FF4807304F036
:100B0000E5F92846102104224FF4804304F0DEF971
:100B10002846102104224FF4005304F0D7F9204650
:100B200010210422012304F0D1F9204610210422CF
:100B3000022304F0CBF9204610210422042304F000
:100B4000C5F9204610210422082304F0BFF92046ED
:100B500010210422202304F0B9F920461021042298
:100B6000402304F0B3F9204610210422102304F09E
:100B7000ADF92846102104224FF4806304F0A6F951
:100B80002846102104224FF4006304F09FF9204608
:100B9000102104224FF4805304F098F920461021CC
:100BA00004224FF4006304F091F928461021042236
:100BB000082304F08BF9284610210422102304F0A6
:100BC00085F92046102104224FF40043BDE870400F
:100BD00004F07CB9B0B588B0044646F2004540F256
:100BE0001970C4F2000504F0D3FD284603F0BDFDE2
:100BF0004FF40130CDF815000020CDF8190021790F
:100C00008DF81D008DF8141005A9284603F068FE24
:100C10002068FA2818BFB0F57A7F17D14FF47A719F
:100C20004143284603F020FE0020CDF80A00CDE91C
:100C3000000060790121ADF80E10ADF8080068469B
:100C40008DF8101003F0A4FD08B0B0BDB0F5FA7F28
:100C5000E4D04EF64801C0F20101E2E710B54FF4CE
:100C6000C06004F095FD40F2026004F091FD40F692
:100C70000004C4F201042046482103224FF400631B
:100C800004F024F92046182103224FF48053BDE8D4
:100C9000104004F01BB980B541F20000C4F201001D
:100CA0001C2104224FF4004304F010F902200F210C
:100CB00004F0CAF84FF400400021002204F059F873
:100CC0004FF4004004F09EF8282001210022BDE8E6
:100CD000804004F05EBC70B540F60005C4F201052A
:100CE00005F580642046042104224FF4804304F07B
:100CF000EDF82046042104224FF4005304F0E6F8F6
:100D0000284604210422042304F0E0F828460421A4
:100D10000422082304F0DAF82846042104224023A0
:100D200004F0D4F8284604210422012304F0CEF86C
:100D3000284604210422202304F0C8F82846042170
:100D40000422022304F0C2F82846042104224FF4AE
:100D5000004304F0BBF82046042104224FF48063D2
:100D600004F0B4F82046042104224FF4006304F098
:100D7000ADF82846042104224FF4805304F0A6F86D
:100D80002846042104224FF4006304F09FF828460B
:100D900004210422102304F099F82046042104229F
:100DA000082304F093F82846102104224FF400731E
:100DB00004F08CF82846102104224FF4807304F0CC
:100DC00085F8204610210422022304F07FF82046F3
:100DD000102104224FF4805304F078F805F50066E2
:100DE0003046102104224FF4804304F06FF830465F
:100DF000102104224FF4005304F068F8204610211B
:100E00000422202304F062F83046102104224FF41B
:100E1000004304F05BF82046102104224FF4807355
:100E200004F054F8284610210422802304F04EF8E0
:100E3000204610210422012304F048F82046102106
:100E40000422042304F042F82046102104224FF427
:100E5000004304F03BF82846102104224FF480633D
:100E600004F034F8204610210422102304F02EF858
:100E700040F20020C0F230000121BDE8704004F0D3
:100E800081B870B540F60004C4F201042046042184
:100E900004224FF4007304F019F8204604210422C0
:100EA0004FF4807304F012F804F58065284604219D
:100EB0000422022304F00AF82846042104224FF4F5
:100EC000805304F003F804F5006630460421042240
:100ED0004FF4804303F0FAFF3046042104224FF41C
:100EE000005303F0F3FF284604210422202303F0DB
:100EF000EDFF3046042104224FF4004303F0E6FFE7
:100F00002846042104224FF4807303F0DFFF2046BB
:100F100004210422802303F0D9FF2846042104225F
:100F2000012303F0D3FF284604210422042303F005
:100F3000CDFF2846042104224FF4004303F0C6FFEE
:100F40002046042104224FF4806303F0BFFF2846AB
:100F500004210422102303F0B9FF284610210422A3
:100F60004FF4804303F0B2FF2846102104224FF4CF
:100F7000005303F0ABFF204610210422042303F0AA
:100F8000A5FF204610210422082303F09FFF2046DE
:100F900010210422402303F099FF2046102104224F
:100FA000012303F093FF204610210422202303F0A5
:100FB0008DFF204610210422022303F087FF2046E4
:100FC000102104224FF4004303F080FF2846102133
:100FD00004224FF4806303F079FF28461021042295
:100FE0004FF4006303F072FF2046102104224FF4F7
:100FF000805303F06BFF2046102104224FF400635E
:1010000003F064FF204610210422102303F05EFF4A
:10101000284610210422082303F058FF40F2002044
:10102000C0F230000121BDE8704003F0ABBF70B5E5
:1010300040F2026004F0ACFB40F2036004F0A8FB55
:1010400040F2046004F0A4FB40F2096004F0A0FB4D
:1010500040F20A6004F09CFB012004F0D9FA4FF43E
:10106000A06004F095FB40F21D7004F091FB4FF47A
:10107000C06004F08DFB40F60004C4F2010404F5E6
:1010800080652846102104224FF4007303F01EFFF0
:101090002046282104224FF4005303F017FF204676
:1010A000282104224FF4804303F010FF204628211A
:1010B00004224FF4004303F009FF284628210422AC
:1010C000082303F003FF284628210422102303F0FD
:1010D000FDFE40F20020C0F23000012103F052FF7B
:1010E00004F500663046042104224FF4005303F057
:1010F000EDFE3046042104224FF4004303F0E6FEE7
:10110000284604210422022303F0E0FE284604219D
:1011100004224FF4805303F0D9FE28460421042210
:10112000202303F0D3FE3046102104224FF48043E5
:1011300003F0CCFE204610210422802303F0C6FEDB
:10114000284610210422012303F0C0FE2846102166
:101150000422042303F0BAFE2846102104224FF48F
:10116000004303F0B3FE2046102104224FF48063B5
:1011700003F0ACFE2846102104224FF4807303F0E4
:10118000A5FE2046182104224FF4007303F09EFEB2
:101190002046182104224FF4807303F097FE28465E
:1011A000182104224FF4804303F090FE28461821B2
:1011B00004224FF4005303F089FE2046002104224C
:1011C000012303F083FE204600210422022303F0C2
:1011D0007DFE204600210422042303F077FE2046F2
:1011E00000210422082303F071FE2046002104227E
:1011F000202303F06BFE204600210422402303F04D
:1012000065FE2046002104221023BDE8704003F053
:101210005DBE000070B544F60004C4F2000404F59D
:10122000DC36054630460121022203F031FD30460E
:10123000012103F0E5FC304601212A4603F07AFD46
:101240002046802104F079FE3046012103F0EAFCBB
:101250002046062104F088FE08B900BFF8E72046C2
:10126000062104F075FE20460021BDE8704004F020
:1012700064BE2DE9F04F87B005464FF4A06004F03E
:1012800087FA40F2127004F083FA40F2065004F03C
:101290007FFA44F600046869C4F20004002704F5EC
:1012A000DC36E8468DF81A70CDE9020704F104092E
:1012B0004FF4807A4FF4805B304602214246CDF8ED
:1012C0000090ADF818A001970497CDF814B003F082
:1012D000EFFC3046022103F0C9FC3046022103F046
:1012E000A1FC296901208DF81A00CDE902173046CA
:1012F00001214246CDF80090ADF818A00197CDE944
:10130000047B03F0D5FC3046012103F09DFC304600
:10131000012103F087FC204604F0CCFD296820461B
:1013200004F08BFD6968204604F032FEE96820462F
:1013300004F05DFEA968204604F04BFE2046002123
:1013400004F0B0FD2046002104F01CFE20460021E0
:1013500004F012FE204604F029FE2046322104F05B
:101360002CFE2046402104F0E2FD2046802104F0BE
:10137000E4FD2046082104F034FE2046042104F058
:101380000FFE204604F0DFFD07B0BDE8F08F00003F
:10139000B0B544F600050446C4F20005284642F202
:1013A000102104F0E1FD0028F8D12046BDE8B0404E
:1013B000FFF730BF10B54FF4C06004F0E9F940F218
:1013C000036004F0E5F940F60044C4F2010420464D
:1013D000182103224FF4806303F078FD2046042196
:1013E00003224FF40063BDE8104003F06FBD2DE908
:1013F000F04F8FB0054640F2015004F0C9F940F2B9
:101400000F7004F0C5F943F60049A868C4F200095A
:10141000002709F5E4360DF120088DF83A70CDE982
:101420000A0709F10C044FF4807A4FF4405B304610
:10143000002142460894ADF838A009970C97CDF8E2
:1014400034B003F035FC3046002103F00FFC304689
:10145000002103F0E7FB696801208DF83A00CDE92F
:101460000A173046012142460894ADF838A0099782
:10147000CDE90C7B03F01CFC484604F0D0F901AE2A
:10148000304604F019FA28680C352ECDCDE9011745
:10149000CDE9030748463146CDE90553079204F0EC
:1014A000E7F9484604F003FA484604F0FBF94846D9
:1014B00004F0B0F90FB0BDE8F08FB0B540F20045D0
:1014C000C4F2020504462846002103F099FB284691
:1014D0000021224603F02EFCA5F5E430012104F0A2
:1014E00090F928460021BDE8B04003F09BBBB0B5A1
:1014F00040F20045C4F2020504462846012103F0EB
:101500007FFB28460121224603F014FCA5F5E430B8
:10151000002104F076F928460121BDE8B04003F02F
:1015200081BB0000B0B540F20044C4F2020405469D
:101530002046012103F064FB204601212A4603F0E6
:10154000F9FBA4F5E4352846002104F05AF92046B9
:10155000012103F067FB00BF20460121022203F0B6
:101560009EFB0028F8D020460121022203F090FBC8
:1015700028460021BDE8B04004F038B90220FFF74A
:101580009CBF0000B0B543F600450446C4F2000518
:101590002846022104F067F90028F9D02046BDE86A
:1015A000B040FFF7BFBF10B54FF4C06004F0F0F8D3
:1015B00040F2036004F0ECF840F2026004F0E8F856
:1015C00040F60044C4F201042046182103221023EF
:1015D00003F07CFC204604210322202303F076FC48
:1015E000204604210322082303F070FCA4F5806048
:1015F000042103224FF4004303F068FC40F2002072
:10160000C0F230000121BDE8104003F0BBBCF0B5D2
:101610008BB00646450840F20B6004F0B9F842F67C
:101620000044C4F20104204604F0E0FA0027FF2041
:101630000996ADF81C70ADF82870CDF81E708DF8C5
:101640002A0007A9204604F07AFB0120C0F204001A
:1016500004AE0697CDE9040720460021324604F087
:1016600065F920460121324604F060F92046002148
:10167000002204F099FA20460021002204F03CF9EF
:1016800020460121002204F08FFA20460121002289
:1016900004F032F9204600212A4604F063FA20467D
:1016A0000021602204F042FA20460021002204F0CA
:1016B0005FFA204601212A4604F054FA204601210F
:1016C000702204F033FA20460121002204F050FA7F
:1016D0001520CDE900704FF4804002906946204605
:1016E000ADF80C7004F0F5F819200221002203F087
:1016F00050FF2046012104F083FB204604F01AFB32
:101700000BB0F0BD10B584B004464FF4E06004F0B7
:101710003FF84FF0804004F069FA00200294ADF8E1
:101720000000ADF80C00CDF802008DF80E006946FF
:101730004FF0804004F003FB1C200121002203F045
:1017400028FF4FF08040012104F05AFB4FF0804009
:10175000012104F069FB4FF0804004F0B5F84FF030
:10176000804004F0E7FA04B010BDB0B584B005467F
:1017700040F2037004F00CF840F60044C4F2000498
:10178000204604F033FA00200295ADF80000ADF8D1
:101790000C00CDF80200FF208DF80E0069462046AF
:1017A00004F0CDFA2046012104F02AFB4EF2841009
:1017B000CEF200004FF480210160BFF34F8F20462E
:1017C000BFF36F8F04F0B6FA04B0B0BDB0B500251A
:1017D000C4F2020504462846042103F011FA284603
:1017E0000421224603F0A6FAA5F54840402104F062
:1017F0009EFB28460421BDE8B04003F013BA000068
:1018000070B543F60004C4F2010404F548460546E9
:1018100030460321022203F03BFA3046032103F055
:10182000EFF9304603212A4603F084FA204680214E
:1018300004F083FB3046032103F0F4F9204606212F
:1018400004F092FB08B900BFF8E72046062104F037
:101850007FFB20460021BDE8704004F06EBB2DE9FF
:10186000F04F87B005464FF4A06003F091FF40F2BF
:101870000E6003F08DFF40F2065003F089FF6869A7
:1018800043F600040027C4F201048DF81A70CDE974
:10189000020704F104094FF4807A322004F5484627
:1018A000E846CDF80090ADF818A0019704904FF4E9
:1018B000005B304604214246CDF814B003F0F8F93D
:1018C0003046042103F0D2F93046042103F0AAF98E
:1018D000296901208DF81A00CDE90217304603214D
:1018E0004246CDF80090ADF818A00197CDE9047BF1
:1018F00003F0DEF93046032103F0A6F93046032158
:1019000003F090F9204604F0D5FA2968204604F047
:1019100094FA6968204604F03BFBE968204604F02D
:1019200066FBA968204604F054FB2046002104F021
:10193000B9FA2046002104F025FB2046002104F0DE
:101940001BFB204604F032FB2046FF2104F035FB50
:101950002046402104F0EBFA2046802104F0EDFA05
:101960002046082104F03DFB2046042104F018FB2A
:10197000204604F0E8FA07B0BDE8F08FB0B543F6B2
:1019800000050446C4F20105284642F2102104F085
:10199000EBFA0028F8D12046BDE8B040FFF730BF91
:1019A00010B54FF4C06003F0F3FE40F2036003F0A3
:1019B000EFFE0420C4F20100016840F6004441F04B
:1019C0000401C4F2010401602046182103224023CF
:1019D00003F07CFA2046042103228023BDE8104056
:1019E00003F074BA000000002DE9F04F81B040F21E
:1019F0000818C2F2000842F2437018F800100029DB
:101A000002F0E9814EF200120021CEF2000208F845
:101A100000104FF08050C2F88000BFF34F8F43F6A4
:101A2000F03BBFF36F8FC2F2000BD8E90840D8E952
:101A30000A12D8E900E9D8E902A3D8E90476CBE98B
:101A40000840B8F83000D8E9065CCBE90A1246F243
:101A50002B01CBE900E9CBE902A3CBE90476ABF893
:101A60003000C0F600015846CBF81850CBF81CC027
:101A7000FEF7BCFB43F6404AC2F2000A0FF65C5187
:101A800003220546CAF80000FEF7A2FB002800F07A
:101A9000A2809BF80060102E00F09D800FF6405150
:101AA00028460322FEF794FBAD2E18BF002840F015
:101AB000E58046F22B01C0F600010020FEF796FB00
:101AC000CAF800000546006844F25256C4F2414686
:101AD000B04200F03D819BF80170FD2F00F038818D
:101AE0000FF6005128460722FEF772FB5A2F18BF47
:101AF000002840F0A682002800F09C86FFF753FDE6
:101B00009BF802009BF8031043F6444841EA00208A
:101B100043F6E235C2F20008C2F200050021A8F83F
:101B200000002980B0B340F2080640F2ED07C2F28F
:101B30000006C2F200074FF4045400BFFEF766FD32
:101B40003088718800BA000CA7F8070008BAB1887D
:101B5000000CA7F8090008BAF188000CA7F80B00E0
:101B600008BA3189000CA7F80D0008BA7189000C79
:101B7000A7F80F00080A78740E20B974A7F813406C
:101B8000FFF700FD2888B8F80010013082B28A42C1
:101B90002880D3D340F60004C4F2010404F5806524
:101BA000284604210422202303F090F92846282106
:101BB0000422102303F08AF928462821042208234E
:101BC00003F084F92046282104224FF4004303F057
:101BD0007DF902F0F2B846F22B01C0F600010020B8
:101BE000FEF704FBCAF800000546008844F64F677C
:101BF000B84200F081809BF80160052E7CD046F24F
:101C00004401C0F6000128460322FEF7E1FA0A2E3D
:101C100018BF002840F0028140F60000C4F2010025
:101C200000F5105420460021002203F0BDFF20469D
:101C30000021002203F060FE20460121002203F073
:101C4000B3FF20460121002203F056FEDAF800001F
:101C500046F24401C0F600010322FEF7B9FA00285B
:101C600042F0A58046F2AC2108F13200C0F6000136
:101C70000A22FEF789FA0A2002F09DB846F24001D6
:101C8000C0F6000128460322FEF7A2FADC2E18BF98
:101C9000002840F00981FEF798FDFFF76FFC43F63E
:101CA0004741C2F200010125DAF800000D7046F24A
:101CB0004001C0F600010322FEF78AFA002800F076
:101CC000388240F2BC00BBF80110C2F2000005707F
:101CD00008BA020C43F6EC30C2F200000280002089
:101CE000002102F00BFF002002F046FFFFF75BFC33
:101CF000AC2088F832004DE240F60000C4F201004A
:101D000000F5105420460021012203F04DFF20462B
:101D10000021042203F0F0FD20460121012203F0FE
:101D200043FF20460121042203F0E6FDDAF800001B
:101D30000088B84242F03B8046F2B82108F13200F8
:101D4000C0F600010B22FEF71FFA0B2002F033B899
:101D500040F2080743F624450024C2F20007C2F20D
:101D6000000500BFFEF752FC002000BF37F810103E
:101D700055F82020114445F8201001300628F5D1EF
:101D800001340A2CEED3DAF800000068B04200F00B
:101D9000178295E88E004CF6CD40CCF6CC40A1FBE6
:101DA0000061A2FB0062A3FB0036A7FB00372B6992
:101DB0004FF01109A3FB00346B69A3FB0003C808B3
:101DC000C90A88F8321088F833002020D108D20AD6
:101DD00088F8340088F8352088F83610F108F20ABF
:101DE00088F8370088F8382088F83910F908FA0A96
:101DF00088F83A0088F83B2088F83C10E108E20AAD
:101E000088F83D0088F83E2088F83F1088F84000A8
:101E1000D80800BA000CA8F8410098E3286845F2F9
:101E20004621C5F24511401A18BF0120FC2E18BFEB
:101E3000002840F01E81002800F0AA849BF80200D0
:101E40009BF8031041EA0020FEF708FB9FEDD80B3A
:101E500002460B4651EC100BFEF791FA9FEDD60BA4
:101E600053EC102BFEF7E4F9FEF716FBFFF7CFFB60
:101E700040F60000C4F2010000F510542046002195
:101E8000012203F091FE20460021042203F034FDDC
:101E900020460121012203F087FE20460121042271
:101EA00003F02AFD01F083BF286845F24701C4F61C
:101EB0004971401A18BF01206F2E18BF002840F04A
:101EC000F58046F22B01C0F600010020FEF78EF9E6
:101ED000CAF80000016844F25252C4F24142054679
:101EE000881A18BF0120914200F03D839BF80190B1
:101EF000B9F17D0F00F0378346F25101C0F60001C1
:101F000028460722FEF764F9B9F17F0F18BF0028B1
:101F100040F06D86FEF7D3FCDAF8000046F251017E
:101F2000C0F600010722FEF753F940F60004C4F2A0
:101F30000104002801F09081002004F50065C8F834
:101F4000320028464FF4005103F017F80138B0FA78
:101F500080F098F83210400940EA410088F83200D9
:101F600028464FF4804103F008F80138B0FA80F0B9
:101F700098F83210400940EA410088F832002846BB
:101F80004FF4004102F0F9FF0138B0FA80F098F800
:101F90003210400940EA410088F832002046012111
:101FA00002F0EBFF0138B0FA80F098F832104009E7
:101FB00040EA410088F832002046022102F0DDFFAD
:101FC0000138B0FA80F098F83210400940EA410038
:101FD00088F832002046042102F0CFFF0138B0FA21
:101FE00080F098F83210400940EA410088F8320049
:101FF0002046082102F0C1FF0138B0FA80F098F8BD
:102000003210400940EA410088F832002046102191
:1020100002F0B3FF0138B0FA80F098F832104009AE
:1020200040EA410088F832002046202102F0A5FF56
:10203000012841F0248198F832004000013001F07D
:1020400021B946F24801C0F6000128460822FEF7F1
:10205000BFF8372F18BF002840F0DC82002800F0BE
:10206000F8869BF80250AC20012488F8320000F07A
:1020700019BF288845F24441401A18BF0120D12ECB
:1020800018BF002840F00C83002800F0608642F65C
:102090002C40C4F20100816921F0FF0181619BF8AD
:1020A000021082691143816101F081BE286844F207
:1020B0005511C5F25241401A18BF0120CA2E18BF4F
:1020C000002840F0278346F22B01C0F600010020D3
:1020D000FEF78CF8CAF80000008844F65455A84270
:1020E00004D09BF80000CA2841F0678640F2C00087
:1020F0000FF2F862C2F20000DFF8F016D2E9013701
:10210000D26800F1140C8CE88A0002621020FFF7FC
:102110003FF9DAF800000088A84241F0488608F14B
:1021200032000FF2DC611522FEF72EF8152001F0C7
:1021300042BE46F22B01C0F6000100200024FEF74B
:1021400055F8CAF800000178A1F13002092A0FD829
:102150000022002404EB84035B00013253FA81F374
:1021600091B2415CA3F13004A1F130070A2FF1D301
:10217000A2B20020002102F0C1FC002002F0FCFC11
:1021800046F2780108F13200C0F600010D220D255B
:10219000FDF7FAFF2846FFF7F1FB40F20810C2F204
:1021A00000003221FEF709F801F015BE00BF00BFA4
:1021B00000000000004CFD40000000000000F0BFE7
:1021C00028684CF6CD46CCF6CC46A0FB060E42F273
:1021D0003A00A8F8360044F24920C5F2553044F6DA
:1021E000D35BC8F83200CEF3CF00C1F2620BA0FB84
:1021F0000B2348F21F5A9A09C5F2EB1AA0FB0A34C6
:10220000A2FB063C6309A0FB0604A3FB0607E0084B
:10221000A0FB06414FEADC0404EB8404A2EB440279
:10222000C90842F03002FF0801EB810188F838202C
:102230004FEADE0207EB8707A0EB410100EB8000CD
:10224000A3EB4703A2EB400043F0300341F0300121
:1022500040F0300088F8393088F83A1088F83B00B0
:1022600040F60D20A8F83C000C204FF00C09FFF7B9
:1022700085FB6868A0FB060E42F23A00A8F836001B
:1022800044F25610C4F64340C8F83200CEF3CF00F3
:10229000A0FB0B239A09A0FB0A37A2FB063C7B0993
:1022A000A0FB0607A3FB0604F808A0FB06714FEA93
:1022B000DC0707EB8707A2EB4702C90842F03002B0
:1022C000E70801EB810188F838204FEADE0207EBCE
:1022D0008707A0EB410100EB8000A3EB4703A2EBD3
:1022E000400043F0300341F0300140F0300088F806
:1022F000393088F83A1088F83B0040F60D20A8F8ED
:102300003C000C20FFF73AFBA868A0FB060E44F641
:102310004940C2F23A00C8F83200CEF3CF00A0FB29
:102320000B239A09A0FB0A37A2FB063C7B09A0FB02
:102330000607A3FB0604F808A0FB06714FEADC07BA
:1023400007EB8707A2EB4702C90842F03002E70813
:1023500001EB810188F836204FEADE0207EB8707A0
:10236000A0EB410100EB8000A3EB4703A2EB400090
:1023700043F0300341F0300140F0300088F837304E
:1023800088F8381088F8390040F60D20A8F83A008F
:102390000A20FFF7F3FAE868A0FB060E42F23A00C3
:1023A000A8F8360044F25450C5F24D00C8F8320087
:1023B000CEF3CF00A0FB0B239A09A0FB0A37A2FBA8
:1023C000063C7B09A0FB0607A3FB0604F808A0FB5C
:1023D00006714FEADC0707EB8707A2EB4702C90843
:1023E00042F03002E70801EB810188F838204FEA1B
:1023F000DE0207EB8707A0EB410100EB8000A3EBB7
:102400004703A2EB400043F0300341F0300140F0BD
:10241000300088F8393088F83A1088F83B0040F6E8
:102420000D20A8F83C000C20FFF7A8FA2869A0FBB3
:10243000060E42F23A00A8F8360044F25610C4F6EE
:102440004350C8F83200CEF3CF00A0FB0B239A090B
:10245000A0FB0A37A2FB063C7B09A0FB0607A3FBF7
:102460000604F808A0FB06714FEADC0707EB8707B4
:10247000A2EB4702C90842F03002E70801EB8101F4
:1024800088F838204FEADE0207EB8707A0EB41010E
:1024900000EB8000A3EB4703A2EB400043F03003C6
:1024A00041F0300140F0300088F8393088F83A10B7
:1024B00088F83B0040F60D20A8F83C000C20FFF700
:1024C0005DFA6869A0FB060142F23A00A8F83600FE
:1024D00044F25620C5F25530C8F83200C1F3CF009F
:1024E000A0FB0B239A09A0FB0A37A2FB06357B0948
:1024F000A0FB0607A3FB0604F808A0FB0676EF087E
:1025000007EB8707A2EB470242F0300288F8382039
:10251000E20802EB8202A3EB420242F0300288F8AA
:102520003920F20802EB8202C908A0EB420200EB5C
:102530008000A1EB400042F0300240F0300088F80B
:102540003A2088F83B0040F60D20A8F83C004846A9
:10255000FFF714FA43F62440C2F200001821FDF7F9
:102560002CFE01F02ABC002800F0228440F6000571
:10257000C4F20105002005F5006488F83200204609
:102580004FF4005102F0F9FC0138B0FA80F098F8ED
:102590003210400940EA410088F8320020464FF4EA
:1025A000004102F0EAFC0138B0FA80F098F83210ED
:1025B000400940EA410005F5806488F83200204671
:1025C000022102F0DAFC0138B0FA80F098F83210FB
:1025D000400940EA410088F8320020464FF480511B
:1025E00002F0CBFC0138B0FA80F098F832104009C4
:1025F00040EA410088F832002046202102F0BDFC6C
:102600000138B0FA80F098F83210400940EA4100F1
:1026100001F0CEBB286845F25346C5F24F06801B39
:1026200018BF0120302F18BF002841F0C68340F6A4
:102630000004C4F2010404F50060042104224FF4F4
:10264000004302F043FC04F580652846042104227F
:10265000202302F03BFC284628210422102302F00C
:1026600035FC284628210422082302F02FFC2046AE
:10267000282104224FF4004302F028FCDAF800007D
:102680000068B04241F0938346F2684108F132009D
:10269000C0F600011122FDF777FD112001F08BBB80
:1026A000288844F24431401A18BF0120DC2E18BF9C
:1026B000002841F08283002800F0CC8442F62C40B0
:1026C000C4F2010090ED000A9FED532AB8EE400AD3
:1026D0009BF8021001EE101AB8EE411A81EE021AB0
:1026E00021EE000ABCEEC00A80ED020A90ED000A5D
:1026F000B8EE400A9BF8021001EE101AB8EE411A2B
:1027000081EE021A21EE000ABCEEC00A80ED030A37
:1027100001F04DBB41A128460322FDF759FDC52E0E
:1027200018BF002841F0498346F22B01C0F6000192
:102730000020FDF75BFDCAF80000008844F6545500
:10274000A84204D09BF80000C52841F0368340F22F
:102750001400C2F200005521A0F8A010032180F857
:10276000A41045F24D01A0F80B1053214173FDF761
:1027700065FFDAF800000088A84241F0188308F1EC
:10278000320027A11322FDF7FFFC132001F013BB39
:1027900046F22B01C0F600010020FDF727FDCAF824
:1027A00000000178A1F13002092A00F2188300220A
:1027B000002300BF03EB83035B00013253FA81F374
:1027C00091B2415C303BA1F130070A2FF2D398B2AD
:1027D000FDF755FE41EC100B03E300BF50574D00D1
:1027E0004144430053414D504C45530048454C4CE7
:1027F0004F204D505133323031300D0A000000006F
:1028000055415254322054455354204D5347207360
:10281000656E640D0A0000000000C84243414E008E
:1028200043414E2054455354204D53472073656E09
:10283000640D0A0046F22B01C0F6000100200024BE
:10284000FDF7D4FCCAF800000178A1F13002092A92
:1028500000F246830022002303EB83035B00013276
:1028600053FA81F391B2415C303BA1F130070A2F5A
:10287000F2D343F64440C2F2000043F6DE32038056
:10288000C2F2000200201904108001F096824CF67A
:10289000CD4944F6D35A48F21F5BCCF6CC49C1F27D
:1028A000620AC5F2EB1BFDF7B1FE40F20808C2F266
:1028B0000008B8F80000A0FB0A129109A0FB0B2346
:1028C000A1FB09255A09A0FB0937A2FB0934FB0823
:1028D000A3FB0976EF0807EB8707A1EB470140F25E
:1028E000081544F24927C2F20005C5F2553745F8EC
:1028F000327F41F03001A971E10801EB8101A2EBC7
:10290000410142F23A0241F03001AA80E971F10836
:1029100001EB8101A3EB410141F03001297203EB8E
:102920008301A0EB410040F03000687240F60D20BA
:1029300068810C20FFF722F8B8F80200A0FB0A1209
:102940009109A0FB0B23A1FB092C5A09A0FB093616
:10295000A2FB0934F308A3FB09674FEADC0606EB88
:102960008606A1EB460141F03001A971E10801EBB7
:102970008101A2EB410142F23A02AA8044F25612CE
:10298000C4F6434241F030012A60E971F90801EBD5
:102990008101A3EB410141F03001297203EB830176
:1029A000A0EB410040F03000687240F60D206881D5
:1029B0000C20FEF7E3FFB8F80400A0FB0A1291090F
:1029C000A0FB0B23A1FB092C5A09A0FB0936A2FB93
:1029D0000934F308A3FB09674FEADC0606EB860619
:1029E000A1EB460141F030012971E10801EB8101C1
:1029F000A2EB410144F64942C2F23A0241F03001F1
:102A00002A606971F90801EB8101A3EB410141F0F2
:102A10003001A97103EB8301A0EB410040F03000CD
:102A2000E87140F60D2028810A20FEF7A7FFB8F8CC
:102A30000600A0FB0A129109A0FB0B23A1FB092CA5
:102A40005A09A0FB0936A2FB0934F308A3FB096766
:102A50004FEADC0606EB8606A1EB460141F03001A9
:102A6000A971E10801EB8101A2EB410142F23A02B6
:102A7000AA8044F25452C5F24D0241F030012A605E
:102A8000E971F90801EB8101A3EB410141F030014B
:102A9000297203EB8301A0EB410040F03000687223
:102AA00040F60D2068810C20FEF768FFB8F808009A
:102AB00040F60D28A0FB0A129109A0FB0B23A1FBF5
:102AC000092C5A09A0FB0936A2FB0934F308A3FB21
:102AD00009674FEADC0606EB8606A1EB460141F0EA
:102AE0003001A971E10801EB8101A2EB410142F241
:102AF0003A02AA8044F25612C4F6435241F0300121
:102B00002A60E971F90801EB8101A3EB410141F071
:102B10003001297203EB8301A0EB410040F030004B
:102B2000687240F60D2068810C20FEF727FF40F206
:102B30000800C2F200004089A0FB0A129109A0FB24
:102B40000B23A1FB092C5A09A0FB0936A2FB09346F
:102B5000F308A3FB09674FEADC0606EB8606A1EB48
:102B6000460141F03001A971E10801EB8101A2EBBE
:102B7000410142F23A02AA8044F25622C5F255328D
:102B800041F030012A60E971F90801EB8101A3EB02
:102B9000410141F03001297203EB8301A0EB4100B8
:102BA00040F0300068720C20A5F80A80FEF7E6FEBF
:102BB00046F268012846C0F600010C22FDF7E4FA4F
:102BC0000C20FEF7DBFE43F6DE30C2F200000346C7
:102BD00043F64440C2F200000146188809880130DB
:102BE00082B28A421880FFF45EAE01F0E6B828682F
:102BF00044F64816C4F64706801B18BF0120B9F1F9
:102C0000FF0F18BF002840F0778140F60009C4F29A
:102C1000010909F5006420464FF4005102F012F951
:102C200020464FF4004102F00DF909F58065284671
:102C3000022102F007F928464FF4805102F002F910
:102C40002846202102F0FEF820464FF4804102F091
:102C5000F9F84846802102F0F5F82846012102F0F3
:102C6000F1F82846042102F0EDF828464FF400411F
:102C700002F0E8F848464FF4806102F0E3F8284695
:102C80004FF4807102F0DEF848464FF4007102F014
:102C9000D9F848464FF4807102F0D4F828464FF432
:102CA000804102F0CFF828464FF4005102F0CAF8F4
:102CB0004846012102F0C6F84846022102F0C2F857
:102CC0004846042102F0BEF84846082102F0BAF84E
:102CD0004846202102F0B6F84846402102F0B2F8FA
:102CE0004846102102F0AEF828464FF4806102F009
:102CF000A9F828464FF4006102F0A4F848464FF4C2
:102D0000805102F09FF848464FF4006102F09AF8B3
:102D10002846082102F096F82846102102F092F881
:102D200048464FF4004102F08DF8DAF800000068E0
:102D3000B04241F03C8046F29C2108F13200C0F6DE
:102D400000010F22FDF720FA0F2001F034B846F2FF
:102D50002B0142F62C44C0F600010020C4F201040D
:102D60000025FDF743FACAF80000A16921F0FF0130
:102D7000A1610178A1F13002092A0FD800220023B5
:102D800003EB83035B00013253FA81F391B2415CA0
:102D9000303BA1F130070A2FF2D3DDB2A06946F231
:102DA000A8012843A06108F13200C0F60001B5E196
:102DB00040F60006C4F2010606F5006420464FF412
:102DC000005102F0DAF8012840F0AE8146F23011ED
:102DD00008F13200C0F600010D220D25ACE19FED97
:102DE000F00B9FEDF11B53EC102B51EC110BFDF789
:102DF000C6FA9FEDEF0B53EC102BFDF719FAFDF718
:102E00004BFBFEF704FC40F60000C4F2010000F5A5
:102E1000105420460021012202F0C6FE2046002167
:102E2000042202F069FD20460121012202F0BCFECD
:102E300020460121042202F05FFD46F2980108F1CC
:102E40003200C0F600010E22FDF79EF90E2000F0C0
:102E5000B2BF46F22B01C0F6000100200025FDF7AD
:102E6000C5F9CAF800000178A1F13002092A0FD88B
:102E70000022002505EB85035B00013253FA81F344
:102E800091B2415CA3F13005A1F130070A2FF1D3D3
:102E900046F27C4108F13200C0F6000112221224F1
:102EA000FDF772F92046FEF769FDFEF77CFBFDF7A2
:102EB000F2FE4FF0FF3050FA85F0052807D8DFE822
:102EC00010F0060013031C0325032E03370340F6FE
:102ED0000000C4F2010000F5E050002100222FE3C1
:102EE00043F64440C2F20000048043F6DE30C2F2F2
:102EF0000000048000F061BF46F26401C0F60001EA
:102F000028460322FDF764F9B9F1000F18BF002825
:102F100040F01B8340F60009C4F2010909F5006482
:102F200020464FF4005101F08BFF20464FF4004142
:102F300001F086FF09F580652846022101F080FF37
:102F400028464FF4805101F07BFF2846202101F0F4
:102F500077FF20464FF4804101F072FF4846802100
:102F600001F06EFF2846012101F06AFF2846042186
:102F700001F066FF28464FF4004101F061FF48462A
:102F80004FF4806101F05CFF28464FF4807101F03E
:102F900057FF48464FF4007101F052FF48464FF486
:102FA000807101F04DFF28464FF4804101F048FF49
:102FB00028464FF4005101F043FF4846012101F03B
:102FC0003FFF4846022101F03BFF4846042101F043
:102FD00037FF4846082101F033FF4846202101F021
:102FE0002FFF4846402101F02BFF4846102101F0F9
:102FF00027FF28464FF4806101F022FF28464FF456
:10300000006101F01DFF48464FF4805101F018FFA8
:1030100048464FF4006101F013FF2846082101F0F3
:103020000FFF2846102101F00BFF48464FF40041E6
:1030300001F006FFDAF8000046F26401C0F6000174
:103040000322FDF7C5F8002840F0B18608F13200F0
:1030500059A1F8E646F22B0142F62C44C0F60001D5
:103060000020C4F20104FDF7C1F8CAF8000094ED95
:10307000000A4646B8EE402A01789FED530AA1F1B6
:103080003002092AB0EE403A13D80022002303EBA5
:1030900083035B00013253FA81F391B2415C303B10
:1030A000A1F130070A2FF2D399B201EE101AB8EE4F
:1030B000413A9FED461A83EE013A23EE022ABCEE16
:1030C000C22A84ED022A94ED002AB8EE422A017841
:1030D000A1F13002092A13D80022002303EB830355
:1030E0005B00013253FA81F391B2415C303BA1F1B4
:1030F00030070A2FF2D398B200EE100AB8EE400A59
:1031000080EE010A46F2880106F13200C0F60001A5
:1031100020EE020ABCEEC00A84ED030A0C22FDF781
:1031200033F80C2000F047BE46F2183108F13200A7
:10313000C0F600010C220C25FDF726F82846FEF704
:103140001DFC20464FF4004101F017FF012808D173
:1031500046F2201108F13200C0F600010E220E24C2
:1031600007E046F2083108F13200C0F600010D22F6
:103170000D24FDF709F82046FEF700FC06F58064F3
:103180002046022101F0F9FE012821D146F27011FA
:1031900008F13200C0F600010D220D2520E000BF2D
:1031A000000000000000000000000000004CFD4096
:1031B000000000000000F0BF414C4C204750494F38
:1031C000204C4F570D0A0000000000000000C842CC
:1031D00046F2583108F13200C0F600010C220C25ED
:1031E000FCF7D2FF2846FEF7C9FB20464FF480517A
:1031F00001F0C3FE012808D146F2082108F132008F
:10320000C0F600010B220B2507E046F2E83108F179
:103210003200C0F600010A220A25FCF7B5FF284655
:10322000FEF7ACFB2046202101F0A7FE012807D1C4
:1032300046F2F81108F13200C0F600010F2203E651
:1032400046F2D83108F13200C0F600010E22FCF738
:103250009BFF0D2000F0AFBD04F5006528464FF43C
:10326000005101F08AFE012840F08E8146F23011B3
:1032700008F13200C0F600010D220D268CE198F80D
:103280003300400088F833002046402101F075FEED
:10329000012804D198F832004000013002E098F88B
:1032A0003300400088F833002046802101F065FE9D
:1032B000012804D198F832004000013002E098F86B
:1032C0003300400004F5806588F83300284601216A
:1032D00001F053FE012804D198F83200400001307B
:1032E00002E098F83300400088F8330028460221B5
:1032F00001F043FE012804D198F83200400001306B
:1033000002E098F83300400088F833002846042192
:1033100001F033FE012804D198F83200400001305A
:1033200002E098F83300400088F8330028464FF454
:10333000806101F022FE012804D198F8320040009B
:10334000013002E098F83300400088F83300284646
:103350004FF4006101F011FE012804D198F8320009
:103360004000013002E098F83300400088F8330054
:1033700028464FF4805101F000FE012804D198F84E
:1033800032004000013002E098F83400400088F834
:10339000340028464FF4005101F0EFFD012804D11C
:1033A00098F832004000013002E098F83400400004
:1033B00088F8340028464FF4804101F0DEFD0128F2
:1033C00004D198F832004000013002E098F834004F
:1033D000400088F8340028464FF4004101F0CDFD4C
:1033E000012804D198F832004000013002E098F83A
:1033F0003400400088F8340020464FF4807101F01A
:10340000BCFD012804D198F832004000013002E0F0
:1034100098F83400400088F8340020464FF40071DA
:1034200001F0ABFD012804D198F8320040000130D2
:1034300002E098F83400400088F8340020464FF449
:10344000806101F09AFD012804D198F83200400013
:10345000013002E098F83400400088F8340020463B
:103460004FF4006101F089FD012804D198F8320081
:103470004000013002E098F83400400088F8340041
:1034800020464FF4805101F078FD012804D198F8CE
:1034900032004000013002E098F83500400088F822
:1034A00035002846202101F068FD012804D198F854
:1034B00032004000013002E098F83500400088F802
:1034C000350028464FF4807101F057FD012804D1E2
:1034D00098F832004000013002E098F835004000D2
:1034E000042488F8350060E340F60000C4F20100CF
:1034F00000F5E0500021012222E040F60000C4F275
:10350000010000F5E0500021022219E040F6000021
:10351000C4F2010000F5E0500021032210E040F663
:103520000000C4F2010000F5E0500021052207E090
:1035300040F60000C4F2010000F5E0500021062230
:10354000002301F07EF800F038BC0FF6E021284699
:103550000622FCF73DFEB9F1CC0F18BF002840F061
:103560003083002800F073839BF8020040F60005CA
:10357000C007C4F2010505F500604FF4804140F03A
:10358000958301F05DFC93E346F2183108F13200B7
:10359000C0F600010C220C26FCF7F6FD3046FEF7C3
:1035A000EDF928464FF4804101F0E7FC012808D1ED
:1035B00046F2BC1108F13200C0F600010D220D26C2
:1035C00007E046F2A03108F13200C0F600010C22FB
:1035D0000C26FCF7D9FD3046FEF7D0F928464FF40B
:1035E000004101F0CAFC012808D146F2201108F17F
:1035F0003200C0F600010E220E2507E046F2083127
:1036000008F13200C0F600010D220D25FCF7BCFDCB
:103610002846FEF7B3F92046012101F0AEFC01284F
:1036200008D146F2242108F13200C0F600010C2234
:103630000C2507E046F2004108F13200C0F6000117
:103640000B220B25FCF7A0FD2846FEF797F9204634
:10365000022101F092FC012808D146F2801108F104
:103660003200C0F600010C220C2507E046F268315A
:1036700008F13200C0F600010B220B25FCF784FD97
:103680002846FEF77BF92046042101F076FC01284C
:1036900008D146F2A01108F13200C0F600010A225A
:1036A0000A2507E046F2843108F13200C0F6000135
:1036B00009220925FCF768FD2846FEF75FF9204638
:1036C000082101F05AFC012808D146F2142108F122
:1036D0003200C0F600010C220C2507E046F2F4315E
:1036E00008F13200C0F600010B220B25FCF74CFD5F
:1036F0002846FEF743F92046102101F03EFC012840
:1037000008D146F2601108F13200C0F600010E2225
:103710000E2507E046F2483108F13200C0F60001FC
:103720000D220D25FCF730FD2846FEF727F920462F
:10373000202101F022FC012808D146F2D81108F11D
:103740003200C0F600010C220C2507E046F2BC3125
:1037500008F13200C0F600010B220B25FCF714FD26
:103760002846FEF70BF92046402101F006FC01280F
:1037700008D146F2342108F13200C0F600010C22D3
:103780000C2507E046F20C4108F13200C0F60001BA
:103790000B220B25FCF7F8FC2846FEF7EFF8204635
:1037A000802101F0EAFB012808D146F28C2108F1C2
:1037B0003200C0F600010D220D2507E046F2584107
:1037C00008F13200C0F600010C220C25FCF7DCFCED
:1037D0002846FEF7D3F804F580652846012101F05C
:1037E000CCFB012808D146F2001108F13200C0F6E6
:1037F00000010A220A2607E046F2EC2108F1320015
:10380000C0F6000109220926FCF7BEFC3046FEF78F
:10381000B5F82846022101F0B0FB012808D146F294
:10382000701108F13200C0F600010D220D2607E0EC
:1038300046F2583108F13200C0F600010C220C2685
:10384000FCF7A2FC3046FEF799F82846042101F067
:1038500094FB012808D146F20C1108F13200C0F6A1
:1038600000011022102607E046F2F82108F132008C
:10387000C0F600010F220F26FCF786FC3046FEF74B
:103880007DF828464FF4806101F077FB012808D1CC
:1038900046F2782108F13200C0F60001102210260D
:1038A00007E046F2484108F13200C0F600010F225D
:1038B0000F26FCF769FC3046FEF760F828464FF407
:1038C000006101F05AFB012808D146F2542108F1A9
:1038D0003200C0F600011022102607E046F228410F
:1038E00008F13200C0F600010F220F26FCF74CFC55
:1038F0003046FEF743F828464FF4805101F03DFB77
:1039000001280AD146F2082108F13200C0F6000170
:103910000C220C26FCF738FC09E046F2E83108F1ED
:103920003200C0F600010C22FCF72EFC0B263046BC
:10393000FEF724F828464FF4005101F01EFB012841
:1039400008D146F2501108F13200C0F600010E22F3
:103950000E2607E046F2383108F13200C0F60001C9
:103960000D220D26FCF710FC3046FEF707F828461E
:103970004FF4804101F001FB012808D146F2AC115F
:1039800008F13200C0F600010E220E2607E046F2D2
:10399000903108F13200C0F600010D220D26FCF72F
:1039A000F3FB3046FDF7EAFF28464FF4004101F0F3
:1039B000E4FA012808D146F2F00108F13200C0F61D
:1039C00000010C220C2607E046F2E02108F132004B
:1039D000C0F600010B220B26FCF7D6FB3046FDF7A4
:1039E000CDFF20464FF4807101F0C7FA012808D1BD
:1039F00046F2401108F13200C0F600010E220E26F8
:103A000007E046F2283108F13200C0F600010D222D
:103A10000D26FCF7B9FB3046FDF7B0FF20464FF40A
:103A2000007101F0AAFA012808D146F2901108F1BC
:103A30003200C0F600010E220E2607E046F2743175
:103A400008F13200C0F600010D220D26FCF79CFBA8
:103A50003046FDF793FF28464FF4005101F08DFAF0
:103A6000012808D146F2501108F13200C0F60001D9
:103A70000E220E2607E046F2383108F13200C0F679
:103A800000010D220D26FCF77FFB3046FDF776FF87
:103A900020464FF4806101F070FA012808D146F207
:103AA000E81108F13200C0F600010E220E2607E0F0
:103AB00046F2C83108F13200C0F600010D220D2691
:103AC000FCF762FB3046FDF759FF20464FF40061DA
:103AD00001F053FA012808D146F2442108F13200DE
:103AE000C0F600010E220E2607E046F2184108F14A
:103AF0003200C0F600010D220D26FCF745FB3046D2
:103B0000FDF73CFF20464FF4805101F036FA0128C2
:103B100008D146F2682108F13200C0F600010E22F9
:103B20000E2407E046F2384108F13200C0F60001E9
:103B30000D220D24FCF728FB2046FDF71FFF284629
:103B4000202101F01AFA012808D146F2F81108F1F3
:103B50003200C0F600010F220F2407E046F2D831F0
:103B600008F13200C0F600010E220E24FCF70CFB17
:103B70002046FDF703FF28464FF4807101F0FDF960
:103B8000012808D146F2CC1108F13200C0F600013C
:103B90000B220B2407E046F2B03108F13200C0F6E8
:103BA00000010A220A24FCF7EFFA2046FDF7E6FEA0
:103BB000FDF73DFAFDF7F4FEFDF7FCFBFDF74EF8CF
:103BC000FBE00FF2704128460722FCF701FBB9F138
:103BD000AA0F18BF002810D143F63E450028C2F2B4
:103BE000000500F0FB80BBF80200BBF8041000BA2F
:103BF000000C288008BA040C2FE146F26001C0F6E0
:103C0000000128460322FCF7E3FAB9F1A00F18BF20
:103C1000002840F0AA80FCF70EFF002000F09DFF76
:103C2000DAF8000046F26001C0F600010322FCF75A
:103C3000CFFA002840F0BB8046F2C42108F13200E0
:103C4000C0F600011822FCF79FFA1820B3E046F2F4
:103C50002B0140F60004C0F600010020C4F201046C
:103C60000026FCF7C3FACAF80000017843F6E435F1
:103C7000A1F13002092AC2F2000500F20E810022F1
:103C80000023013201EB4303D1B2415C303BA1F18F
:103C900030070A2FF5D3D8072B6000F0FF8004F51A
:103CA00000604FF4804101F0CDF8FDE001F0CAF86A
:103CB0009BF80200800704D42846802101F0C0F858
:103CC00003E02846802101F0BDF89BF80200400780
:103CD00005D405F58060012101F0B2F804E005F596
:103CE0008060012101F0AEF89BF80200000705D4C6
:103CF00005F58060042101F0A3F804E005F580607B
:103D0000042101F09FF89BF80200C00606D405F5D7
:103D100080604FF4004101F093F805E005F5806004
:103D20004FF4004101F08EF89BF80200800605D4A4
:103D300028464FF4806101F083F804E028464FF4F0
:103D4000806101F07FF89BF80200400606D405F57B
:103D500080604FF4807101F073F828E005F5806011
:103D60004FF4807101F06EF821E046F25901C0F67F
:103D7000000128460622FCF72BFAB9F1A40F18BF60
:103D8000002840F0F280FDF752F943F6EA31C2F222
:103D900000010022DAF800000A7046F25901C0F66C
:103DA00000010622FCF714FA002800F02C81AC2058
:103DB00088F832000120FDF7E1FD40F20810C2F260
:103DC00000003221FCF7F9F94EF200114FF080505B
:103DD000CEF20001086001B0BDE8F08F46F22B0181
:103DE000C0F6000100200024FCF700FACAF8000029
:103DF0000178A1F13002092A0FD80022002404EB37
:103E000084035B00013253FA81F391B2415CA3F168
:103E10003004A1F130070A2FF1D346F22B01C0F68E
:103E2000000100202C800024FCF7E0F9CAF8000013
:103E30000178A1F13002092A0FD80022002404EBF6
:103E400084035B00013253FA81F391B2415CA3F128
:103E50003004A1F130070A2FF1D3298843F63C4002
:103E600041F28832C2F2000091420480A5D843F6A4
:103E7000E930C2F20000012101704EF200114FF052
:103E80008050CEF20001C1F88000BFF34F8F4FF495
:103E90008020BFF36F8F48608FE72E6004F50060CD
:103EA0004FF4804100F0CCFF2878800704D42046EE
:103EB000802100F0C5FF03E02046802100F0C2FF12
:103EC0002878400705D404F58060012100F0B8FF90
:103ED00004E004F58060012100F0B4FF28780007B9
:103EE00005D404F58060042100F0AAFF04E004F585
:103EF0008060042100F0A6FF2878C00606D404F5EF
:103F000080604FF4004100F09BFF05E004F5806005
:103F10004FF4004100F096FF2878C00605D42046F3
:103F20004FF4806100F08CFF04E020464FF4806184
:103F300000F088FF2878C00606D404F580604FF4AE
:103F4000807100F07DFF05E004F580604FF4807122
:103F500000F078FF46F2D80108F13200C0F6000107
:103F60001422FCF711F9142025E746F23001C0F6BF
:103F7000000128460722FCF72BF9B9F1850F18BF7D
:103F8000002818D1FCF7A7FE002000F0E6FD43F65C
:103F9000EA31C2F200010122DAF800000A7046F2AA
:103FA0003001C0F600010722FCF712F930BB08F11E
:103FB000320029A135E046F23801C0F6000128465A
:103FC0000722FCF705F9B9F1580F18BF00287FF454
:103FD000F4AEFCF756FF002000F0BFFD43F6EA31D7
:103FE000C2F200010222DAF800000A7046F238013B
:103FF000C0F600010722FCF7EBF878B1AC2088F896
:1040000032000220D7E646F2B80108F13200C0F6CD
:1040100000011F22FCF7B8F81F20CCE608F132009F
:1040200006A11B22FCF7B0F81B20C4E643555354ED
:104030004F4D00005041545445524E004750494F97
:1040400020736574206173206D6964646C652074ED
:1040500065737420320D0A004750494F2073657410
:10406000206173206D6964646C65207465737420CD
:10407000310D0A00F0B595B0FCF7D9FFFDF790FCC3
:10408000FDF798F9FCF7EAFD40F20816C2F20006C7
:104090004FF4E135002406F132000F95CDE91044CC
:1040A0001294CDE913060FA8FDF7D9FB20270120B4
:1040B00086F83270FDF762FCCDE9095440F2C00584
:1040C000C2F2000505F11400CDE90B44CDE90D0560
:1040D00009A8FDF7CEF801202F75FDF759F940F238
:1040E000ED00C2F20000C11D05300294CDE9054487
:1040F000CDE907440391049002A8FDF778F94FF445
:10410000FA7000906846ADF80440FCF763FDFCF7D8
:10411000E3FA42F6DF60FDF77AFA0E20FDF725FBA1
:1041200040F6B730FDF7EEFA15B0F0BD10B543F626
:104130004844C2F20004206842F647010130CBF245
:10414000A37141434EF633424FEA3111C0F20A02E5
:104150009142206016D843F6D431C2F200010A78A9
:1041600040F60040B2FA82F35B09C4F201000B7022
:104170004FF4007122B100F063FE0020206001E0E6
:1041800000F060FEBDE81040FDF72EBC4EF68851F1
:10419000CEF200010A6841F2000042F47002C4F25B
:1041A00002000A6001684FF6FF7241F001010160F0
:1041B00000214160C1620168CEF6F6221140016023
:1041C0004FF47F018160016821F480210160016862
:1041D00041F48031016040F2FF7100BF03684A1E64
:1041E0008A4203D213F400311146F7D001688903E3
:1041F00001D400BFFEE742F20001C4F202010A68E6
:1042000022F007020A600A6842F003020A6041686D
:104210004FF6FF7241604168CDF6C372416041685C
:1042200041F48061416041681140416041684FF252
:10423000000241F0005141F454114160C16ACBF6D3
:10424000FE721140C162C16A41F4843141F019012A
:10425000C162016841F08061016000BF016809012D
:10426000FCD5016841F08071016000BF01688901DF
:10427000FCD5416821F003014160416841F0020131
:10428000416000BF41680907FCD54FF00060002184
:1042900001F0B2B910B542F60044C4F20104204660
:1042A000012101F0B6FD28B120460121BDE81040F2
:1042B00001F0AABD10BD0000B0B54FF08040012153
:1042C00001F0A7FDC0B34FF080400121012401F0AF
:1042D0009BFD43F64645C2F20005287868B340F2DC
:1042E0000815C2F200052878F0B143F60004C4F2C4
:1042F0000104204642F20B2101F036FE012813D1C1
:10430000204642F20B2101F023FE42F243700121CC
:1043100029544EF28010CEF200004FF0805101601F
:10432000BFF34F8FBFF36F8F40F2BC00C2F20000AB
:104330000078297808430ED0B0BD40F20810C2F2D0
:104340000000323006A11322FBF71EFF1420FDF7F8
:1043500015FB2C70B0BD3220BDE8B040FDF736BA79
:104360005354415254204F4B2056312E32302E316F
:10437000300D0A002DE9F04F81B040F60044C4F240
:1043800000042046012101F044FD002800F0D980FE
:104390002046012101F038FD43F6E930C2F2000069
:1043A0000178002900F0CD8043F64C41C2F20001B3
:1043B0000A884FF4FA56571C43F63C42C2F20002F8
:1043C000128843F63E49B6FBF2F543F6E036BBB23F
:1043D000C2F20006C2F200093288AB42B9F80030DE
:1043E0000F8052D99A4250D2002004F582350880BD
:1043F00028464FF4005100F0C0FD318842F64C07CA
:104400000138C2F20007B0FA80F07A5C400940EA55
:104410004200785428464FF4004100F0AEFD318848
:104420000138B0FA80F07A5C400940EA420004F5B5
:10443000803478542046022100F09FFD31880138F5
:10444000B0FA80F07A5C400940EA42007854204695
:104450004FF4805100F091FD31880138B0FA80F0BE
:104460007A5C400940EA420078542046202100F05E
:1044700084FD31880138B0FA80F07A5C400940EA66
:1044800042007854481C30805BE09A4259D30021A6
:10449000017043F6E8304EF20012C2F20000CEF294
:1044A000000201704FF480203180C2F88400BFF315
:1044B0004F8FBFF36F8F3180B9F80000D0B343F650
:1044C000EB3440F2081542F64C0A4FF0000BC2F2F2
:1044D0000004C2F20005C2F2000A00218FB21FFAE6
:1044E00080F847454FF0000084F800B016D2FA4338
:1044F0004244E819312A28BF312232300AEB070141
:104500000132FBF741FE0120312800F1010103D8FF
:10451000384440450846F7D3481E2070C0B2FDF726
:104520002DFA308800F13201B9F800008AB28242D7
:104530003180D3D34EF200114FF08050CEF2000103
:10454000086001B0BDE8F08F816841F0080181602A
:1045500081680907FCD4816841F00401816000BFD3
:1045600081684907FCD4704780B5012908D0022929
:1045700018BF80BD4FF4401E6FF4401C382304E088
:104580004FF4700E6FF4700C2C23195801EA0C01D3
:1045900019500EEB02511A5801EA0E01114319503D
:1045A00080BD8268002942F4006308BF22F40063E2
:1045B00083607047816841F48071816070478168D1
:1045C000C90718BF7047816841F0010181607047D9
:1045D000002A01F001020AD01AB1826842F4801266
:1045E000826089070FD5816841F400410AE01AB161
:1045F000826822F480128260890758BF7047816800
:1046000021F4004181607047012905D0022918BFBB
:1046100070476FF4E04101E06FF460218368194056
:104620008160816811438160704742F20441C4F2A5
:1046300001010A6822F470220A600A6810430860C7
:10464000704780B505290ED8D0F834C001EB810E33
:104650001F2101FA0EF12CEA010C02FA0EF141EAD7
:104660000C01416324E00B2910D801EB8101D0F843
:1046700030C0A1F11E0E1F2101FA0EF12CEA010C2F
:1046800002FA0EF141EA0C01016311E010290FD288
:1046900001EB8101D0F82CC0A1F13C0E1F2101FAE1
:1046A0000EF12CEA010C02FA0EF141EA0C01C16292
:1046B000092A04D800F1100C02EB420107E0112A8C
:1046C00088BF80BD02EB420100F10C0C1E39DCF802
:1046D00000200720884022EA000003FA01F1084385
:1046E000CCF8000080BDD0F8802022F44052C0F801
:1046F0008020D0F880201143C0F880107047CA078E
:1047000003D0826842F480028260890758BF7047F4
:10471000816841F4001181607047002A01F48072C1
:1047200010D01AB1426842F4807242604A0503D543
:10473000426842F480624260890715D5816841F081
:10474000020110E01AB1426822F4807242604A0508
:1047500003D5426822F480624260890758BF7047DF
:10476000816821F002018160704710B546F2004176
:10477000C4F2000140F21A44884208BF40F21944D2
:10478000204601F024F82046BDE8104001F00FB8A3
:10479000B0B546F20061C4F2000144890A684FF0E6
:1047A000010C42F001020A60CB690CFA04F5AB433C
:1047B000CB61C3896FEA050C012B10D023BBCB68FA
:1047C00003EA0C03CB60B0F806E0438843EA0E43EB
:1047D0004FEAC40E01EBC404236403460DE0CB682A
:1047E0002B43CB60B0F800E0438843EA0E434FEA26
:1047F000C40E01EBC4042364831D84881B8843EA30
:10480000044301EB0E04636483894C68002B44EA83
:10481000050208BF04EA0C024A6002894B69002ABB
:1048200043EA050408BF03EA0C044C61007C01283C
:1048300002D1C8692843C861086820F001000860F7
:10484000B0BD01F01F0289094FF0010C0B580CFAA2
:1048500002F21A430A5070478A09105801F01F01EA
:10486000C84000F00100704770B544F24022C0F229
:104870000F02914284BF002070BD044600680125EC
:1048800020F0020020602068CFF6FF7540F00100A4
:1048900020602846626820B112F0010200F1010098
:1048A000F8D06068C00701D1002008E0E06900F09E
:1048B0004046084600F06EF93043E061012021686F
:1048C00021F00301216000BF616825B111F00301EF
:1048D00005F10105F8D16168890718BF002070BD96
:1048E000F0B5026840F2010C22F002020260026898
:1048F000CFF6FF7C42F0010263460260426823B1BA
:1049000012F0010203F10103F8D04268D20704BF9C
:104910000020F0BD0A7891F801E08B789207CC78FE
:1049200003F00F0503F070036EF31C624F8942EA37
:10493000831204F0070604F0180442EA0542013F1E
:1049400042EA84226FF39F2742EA06523A44C26148
:104950000A790368012A23F0800708BF43F0800723
:1049600007604A790368012A23F0400708BF43F033
:10497000400707608A790368012A23F0200708BFEF
:1049800043F020070760CA790368012A43F0100743
:1049900008BF23F0100707600A7A0368012A23F092
:1049A000080708BF43F008070760497A0268012931
:1049B00022F0040308BF42F004030360016821F001
:1049C0000101016042686146BCF1000F04D012F0A1
:1049D000010201F1010CF5D1002918BF012108469F
:1049E000F0BD0000B0B581B086468068400109D4B2
:1049F000DEF80800000107D4DEF80800C00005D486
:104A0000032074E0002002E0012000E002200EEB11
:104A10000013D3F8804104F00104C3F880410C7AFC
:104A20001CB14A6844EAC20401E00C6864054A7A91
:104A300091F84BC0D3F8805122432A43BCF1000FB8
:104A4000C3F8802105D0DEF82020D20717D100BF9F
:104A5000FEE7D3F8842122F00F02C3F884218A7A7A
:104A6000D3F884512A43C3F88421D1F80B20C3F82A
:104A70008821D1F80F104FF4C672995031E091F8A7
:104A80000AE0BEF1090F72460CD346F2240400225C
:104A9000C0F60004A55CAE4503D00132072AF9D167
:104AA000FEE7093291F84C4091F84D5042EACC12A1
:104AB00042EA441242EA0512C3F8842100220B3173
:104AC000B2EB9E0F009114D04FEA9E01009A01397B
:104AD00012680D06C3F88821009A02F104020092C0
:104AE000F4D1D3F8801141F00101C3F8801101B075
:104AF000B0BD00994FF4C4720968BEE750B10229F5
:104B000013D0012917D0A9B947F20840C4F2000018
:104B1000C2607047022914D0012918D051B947F258
:104B20000840C4F200000260704747F20840C4F237
:104B300000004261704747F20840C4F20000026181
:104B4000704747F20840C4F200008260704747F2A5
:104B50000840C4F200004260704747F20041C4F2CE
:104B600000010A686FF48033002808BF6FF001036A
:104B700002EA03000860704747F20441C4F20001F2
:104B80000A680223002808BF012342EA03000860E4
:104B90007047000010B50446022000F073FDB0FB22
:104BA000F4FE4AF6AB20CAF6AA20AEFB00021009BA
:104BB000B0EB9E0F12D24FEA9E0C831C01301622DE
:104BC000002400BFD11C5943714508D0013C14F1A9
:104BD0001601A2F10102F5D16045EED3FEE746F2DF
:104BE0009041C0F6000101EBC401D1E92C216FF323
:104BF0009F2002F00F0261F3165040EA024010BD00
:104C000040F20042C4F20202904202D1052900D3D0
:104C1000FEE701EB810100EB8100816821F00101D9
:104C20008160704740F20042C4F20202904202D119
:104C3000052900D3FEE701EB810100EB81008168CB
:104C400041F001018160704740F20042C4F202026B
:104C5000904202D1052900D3FEE701EB810100EB70
:104C60008100816821F020018160704740F200429C
:104C7000C4F20202904202D1052900D3FEE701EB03
:104C8000810100EB8100816841F020018160704763
:104C90008900436802FA01F11943416070470068D6
:104CA000890002FA01F1084018BF01207047000096
:104CB00040F20043C4F20203984202D1052900D316
:104CC000FEE780B5136801EB810100EB8100036111
:104CD00091684161118AC1608168536821F47C5CEC
:104CE000D168D2F814E043EA0C03194341EA0E01FB
:104CF000816092F818C08368BCF1010F23F0400175
:104D000008BF43F04001816092F819C08368BCF18C
:104D1000010F23F0800108BF43F080018160917E84
:104D20008268002942F0100308BF22F0100383605C
:104D300080BD000040F20043C4F20203984202D159
:104D4000052900D3FEE701EB810192B200EB81005F
:104D5000C260704740F20042C4F20202904202D1A7
:104D6000052900D3FEE701EB810100EB8100C0685B
:104D7000704740F2004CC4F2010CDCF8003001290D
:104D800023EA0003CCF80030DCF8043023EA000307
:104D9000CCF80430DCF8083023EA0003CCF8083003
:104DA000DCF80C3023EA0003CCF80C3006D051B903
:104DB000DCF800100143CCF8001004E0DCF804102B
:104DC0000143CCF80410022A0DD0012A6FEA000139
:104DD0000DD0B2B9DCF808201043CCF80800DCF89C
:104DE0000C0008400BE0DCF80810014302E0DCF89E
:104DF00008201140CCF80810DCF80C100843CCF85F
:104E00000C00704740F20041C4F201010A681043EF
:104E10000860704740F21441C4F201010860704715
:104E200040F20041C4F201014A690968024000EA07
:104E3000010018BF0122002818BF01201040704750
:104E400041617047016170470C2240F2080C02EA90
:104E500081030F22C4F2010C032902FA03F20BD8DA
:104E6000DCF8001098409143CCF80010DCF80010FA
:104E70000843CCF80000704707290BD8DCF8041071
:104E800098409143CCF80410DCF804100843CCF8A7
:104E9000040070470B296FEA02010BD8DCF80820E8
:104EA00098401140CCF80810DCF808100843CCF802
:104EB00008007047DCF80C2098401140CCF80C102A
:104EC000DCF80C100843CCF80C0070472DE9F047D3
:104ED000CF0601F00F0C09D5042A05D1C26B4CF0A6
:104EE000030C1A43C26301E04CEA020C00F1100EFD
:104EF00000F1140800244FF0010A4FF00F090027B9
:104F00000AFA07F21A4010D0056809FA04F6B54308
:104F10000CFA04F6282946EA050603D0482903D1ED
:104F2000754600E045462A6006600137082F04F107
:104F30000404E5D1082400254FF0010A4FF00F09C1
:104F40000AFA04F21A4010D0466809FA05F7BE437F
:104F50000CFA05F7282947EA060703D0482903D1A8
:104F6000764600E04646326047600134102C05F179
:104F7000040508BFBDE8F087E2E78068084018BF75
:104F800001207047B0B50422C4F20102134602F1B9
:104F9000180E002848BF73461B6800F44014C0F385
:104FA0000345B4F5401F1FFA80FC06D1146823F0B6
:104FB000E06324F0E06414600DE0C40206D46FF0F6
:104FC0000F0404EA50440CFA04F401E00324AC405A
:104FD000A34343F0E06331B16FF00F0101EA5041A8
:104FE0000CFA01F10B43002848BF72461360B0BDB4
:104FF0004EF62355CEF20005FFF73CF840F20400D0
:10500000C2F20000006841F25971CDF2B711A0FB65
:1050100001014FF0FF3000EB51304FF0000ABAEBC6
:10502000106F0AD14EF21001CEF200014860F0205C
:1050300028700720C1F808A0086040F60004C4F2F8
:105040000104202040F2ED0B43F6EA3843F6DC3948
:10505000287004F57C45C2F2000BC2F2000804F58A
:105060008067C2F2000900BF284600210222FFF734
:1050700016FE012814D128460021FFF76BFE1428E4
:105080000ED001208BF80200284600210222FFF7F3
:10509000FFFD43F60040C4F20000012100F0A6FB32
:1050A0009BF80200002871D09BF805009BF80610C1
:1050B000C7288BF802A008BFC7292BD0662808BFD5
:1050C000662959D043F6EC36C2F20006338841EA2D
:1050D00000229A420ED047F20440C4F2000032800F
:1050E00042600146006840F0010008609BF805003E
:1050F0009BF80610B9F8002040F208165300C2F2DF
:10510000000601333236F15406F81200501CA9F89B
:10511000000039E040F2BC00C2F2000080F800A0BC
:105120003846042104222023FFF7D0FE38462821E8
:1051300004221023FFF7CAFE384628210422082340
:10514000FFF7C4FE2046282104224FF40043FFF756
:10515000BDFE40F20810C2F20000DC2180F83210DF
:105160000120FCF70BFC4EF21000CEF200004FF0D5
:105170008051C0F8F01009E0B9F80000400080B29A
:10518000FCF7FCFBA9F800A0FCF7F8F998F8000080
:1051900002280FD001287FF467AF38464FF48041D2
:1051A000FFF7EBFE012812D120464FF40071FFF704
:1051B00049FE11E020464FF40071FFF7DEFE0128A2
:1051C00017D138464FF48041FFF73CFE16E02046E9
:1051D0004FF40071FFF734FE38464FF40051FFF7EB
:1051E000CCFE012817D120464FF48071FFF72AFE2C
:1051F00016E038464FF48041FFF722FE20464FF478
:105200008071FFF7BAFE012815D138464FF40051DE
:10521000FFF718FE14E020464FF48071FFF710FEF0
:1052200020460421FFF7A9FE012814D138460221A7
:10523000FFF708FE13E038464FF40051FFF700FE79
:1052400038460221FFF799FE012814D12046042197
:10525000FFF7F8FD13E038460221FFF7F1FD204685
:105260000821FFF78AFE012815D138464FF48051F6
:10527000FFF7E8FD14E020460421FFF7E1FD384682
:105280004FF48051FFF779FE012816D120460821FE
:10529000FFF7D8FD15E038464FF48051FFF7D0FDF9
:1052A00020464021FFF769FE012818D104F500606F
:1052B0004FF48041FFF7C6FD17E020460821FFF7B5
:1052C000BFFD04F5006630464FF48041FFF755FE00
:1052D000012817D120464021FFF7B4FD16E004F560
:1052E00000604FF48041FFF7ABFD20460121FFF73E
:1052F00044FE012816D104F500604FF40051FFF779
:10530000A1FD15E020464021FFF79AFD30464FF4FD
:105310000051FFF732FE012815D120460121FFF789
:1053200091FD14E004F500604FF40051FFF788FD93
:1053300020462021FFF721FE012813D138462021E5
:10534000FFF780FD12E020460121FFF779FD384686
:105350002021FFF712FE012815D120462021FFF75A
:1053600071FD14E038462021FFF76AFD2046022136
:10537000FFF703FE012816D104F500604FF4004149
:10538000FFF760FD15E020462021FFF759FD30466C
:105390004FF40041FFF7F1FD012817D1204602210B
:1053A000FFF750FD16E004F500604FF40041FFF7F1
:1053B00047FD20464FF40041FFF7DFFD012816D1DD
:1053C00038464FF48071FFF73DFD15E0204602217D
:1053D000FFF736FD38464FF48071FFF7CEFD012808
:1053E00016D120464FF40041FFF72CFD15E038465A
:1053F0004FF48071FFF724FD38464FF48061FFF7CA
:10540000BCFD012815D120468021FFF71BFD14E0CB
:1054100020464FF40041FFF713FD20468021FFF79F
:10542000ACFD012815D138464FF48061FFF70AFD25
:1054300014E020468021FFF703FD38464FF4006159
:10544000FFF79BFD012815D138460121FFF7FAFC33
:1054500014E038464FF48061FFF7F2FC3846012132
:10546000FFF78BFD012815D138464FF40061FFF797
:10547000E9FC14E038460121FFF7E2FC20464FF436
:105480008051FFF77AFD012815D138460421FFF736
:10549000D9FC14E038464FF40061FFF7D1FC3846E0
:1054A0000421FFF76AFD012816D120464FF48051F0
:1054B000FFF7C8FC15E038460421FFF7C1FC204681
:1054C0004FF40061FFF759FD012817D138464FF41A
:1054D0000041FFF7B7FC16E020464FF48051FFF77C
:1054E000AFFC38464FF40041FFF747FD012816D1C5
:1054F00020464FF40061FFF7A5FC15E038464FF455
:105500000041FFF79DFC20461021FFF736FD0128E2
:1055100016D120464FF48061FFF794FC15E0204639
:105520004FF40061FFF78CFC20464FF48061FFF7D9
:1055300024FD012814D120461021FFF783FC13E03D
:1055400020464FF48061FFF77BFC38460821FFF7C7
:1055500014FD012813D138461021FFF773FC83E5B1
:1055600020461021FFF76CFC38461021FFF705FD9F
:10557000012809D138460821FFF764FC74E5384654
:105580001021FFF75DFC6FE538460821FFF758FC56
:105590006AE54EF60C5CCEF2000CDCF8003003F449
:1055A000E063A3F54073B3F5A06F03D21B0AC3F108
:1055B000040C08E040F20053C0F2FA53CCF800307B
:1055C00002234FF0020C99400F2323FA0CF31A40E8
:1055D00011434EF20012CEF20002090140EA02032A
:1055E00083F8001300F01F01012303FA01F11C23CB
:1055F00003EAD000815070474FF68072C1F6FF7207
:10560000114008434EF60851CEF200010860704781
:1056100010B541F2040CC4F2020CDCF8001043F6A1
:10562000FF72CEF6FF720A40DCF828100B2821F03A
:10563000005E21D8012383401C070CD113F4706F46
:105640000CD04CF20003CFF6FC7303EA8030024327
:1056500041F0005E10E042EA80320DE0012181401D
:1056600011F0A00F08D04CF20001CEF6FE7101EA55
:105670008030104340F08052CCF80020CCF828E075
:1056800010BD000010B541F2040EC4F2020EDEF8A7
:10569000001001F00C01082941F20021C0F27A014A
:1056A00046D1DEF80030DB0304D440F6001CC0F223
:1056B0003D0C25E0DEF82830DEF828C05B0046F619
:1056C0000043C0F2DC2358BF0B465FEACC3110D553
:1056D000DEF82810C1F3031CDEF828100CF1010CD1
:1056E000C1F30321B3FBFCF30231112908BF1421DC
:1056F0004B43DEF8281001F00F010131B3FBF1FC40
:10570000DEF800301022C3F38343DEF8001002EA13
:105710005161194401220F2938BF022253180F2B5F
:1057200011BF03FB0CF10CEB4C01490001EB5C01D8
:10573000DEF800200328C2F30313DEF80020C2F3D2
:10574000022CDEF800400DD80DA2D25C46F21C0EF1
:1057500021FA02F3C0F6000EDFE800F00F0206099E
:1057600019460AE0002108E01EF80C0003E0C4F32B
:10577000C2201EF8000023FA00F1084610BD00BF49
:1057800000000000000000000102030406070809F1
:1057900041F2000300F01F018009C4F202034FF040
:1057A000010CC2580CFA01F11143C150704741F28B
:1057B000000300F01F018009C4F202034FF0010C46
:1057C000C2580CFA01F122EA0101C150704741F2BE
:1057D000000300F01F018009C4F202034FF0010C26
:1057E000C2580CFA01F11143C150704742686FF082
:1057F0000103002908BF6FF0020302EA03014160C0
:10580000704742680123002908BF022342EA0301CE
:1058100041607047016841F040010160704710B578
:1058200043F20001C4F2010188420FD043F6004167
:10583000C4F2000188420CD043F60001C4F200011A
:10584000884218BF10BD40F20E4404E04FF4437488
:1058500001E040F20F442046FFF7B9FF2046BDE8C3
:105860001040FFF7A4BF8068084018BF01207047B0
:1058700070B50268D1E902E402F4415CD1E900327A
:10588000D1E9045643EA0C031A4342EA0E022243CA
:1058900089692A43324311430160C16921F40061DF
:1058A000C16170BD416841F00401416070474168C9
:1058B00041F00801416070470021C0E90511C0E9CD
:1058C0000011C0E902117047016841F080010160D8
:1058D0007047B1F800C04B888A8843EA0C0343EA5A
:1058E000020CCB880A8943EA0C031A434B89898945
:1058F0001A43114341647047022907D001290BD094
:1059000099B950F8201F21F004010AE050F8201F37
:10591000120221F4806104E050F8201F120121F0EE
:10592000400101600168114301607047032988BF8D
:105930007047DFE801F0024187CC016A21F00101E4
:1059400001621188036A19430162016A21F00201B0
:1059500001629188036A194343F20043C4F20103D0
:105960009842016205D042F60041C4F2010188422A
:105970001FD1016A21F0040101625188036A1943B1
:105980000162016A21F008010162D188036A1943AA
:105990000162416821F480714160118943681943B3
:1059A0004160416821F400714160518942681143AE
:1059B00041606FF0030143E0016A21F010010162D0
:1059C0001188036A43EA01110162016A21F0200192
:1059D00001629188036A43EA011143F20043C4F271
:1059E00001039842016205D042F60041C4F2010170
:1059F000884223D1016A21F0400101625188036A83
:105A000043EA01110162016A21F080010162D1883B
:105A1000036A43EA01110162416821F48061416037
:105A20001189436843EA81014160416821F40061C2
:105A300041605189426842EA810141606FF44071DE
:105A400018226EE0016A21F4807101621188036AF4
:105A500043EA01210162016A21F400710162918827
:105A6000036A43EA012143F20043C4F2010398426E
:105A7000016205D042F60041C4F20101884223D1FF
:105A8000016A21F4806101625188036A43EA0121BD
:105A90000162016A21F400610162D188036A43EA6C
:105AA00001210162416821F48051416011894368FC
:105AB00043EA01114160416821F40051416051897C
:105AC000426842EA011141606FF0030128E0016A77
:105AD00021F4805101621188036A43EA01310162B5
