:020000040800F2
:1000000050400020650100086D0100086F010008E4
:10001000710100087301000875010008000000006C
:100020000000000000000000000000007701000850
:1000300079010008000000007B0100088D4A0008DB
:100040007F0100087F0100087F0100087F01000890
:100050007F0100087F0100087F0100087F01000880
:100060007F0100087F0100087F0100087F01000870
:100070007F0100087F0100087F0100087F01000860
:100080007F0100087F0100087F0100087F01000850
:100090007F0100087F0100087F0100087F01000840
:1000A0007F010008814B00087F0100087F010008E4
:1000B000A94B00087F0100087F0100087F010008AC
:1000C0007F0100087F0100087F0100087F01000810
:1000D0007F0100087F0100087F0100087F01000800
:1000E0007F0100087F0100087F0100087F010008F0
:1000F0007F0100087F0100087F0100080000000068
:100100007F010008000000003D4E00087F0100084C
:100110007F0100087F0100087F0100087F010008BF
:100120007F0100087F0100087F0100087F010008AF
:100130007F01000800000000000000007F010008AF
:100140007F0100087F0100087F0100087F0100088F
:10015000DFF80CD000F028FA0048004739670008A3
:10016000504000200648804706480047FEE7FEE76B
:10017000FEE7FEE7FEE7FEE7FEE7FEE7FEE7FEE757
:100180000D4B00085101000840EA01039B0703D012
:1001900009E008C9121F08C0042AFAD203E011F8C6
:1001A000013B00F8013B521EF9D2704730B50446BE
:1001B0000020034600E05B1C934203D2E05CCD5C70
:1001C000401BF8D030BD000070B50F4D00B9286855
:1001D000002412E00A4602E09E4203D0521C13782B
:1001E000002BF9D1DAB2224305D02BB124B1002182
:1001F00000F8011B04E00446401C0678002EE9D1FB
:100200002860204670BD0000000000202DE9FE4F50
:10021000804681EA0300C00F0C46009021F00041A7
:1002200023F00045B8EB0200A94105D24046214623
:1002300090461C460B46024623F00040104347D030
:10024000270DC7F30A00C3F30A510290401A019028
:1002500040286BDAC3F3130040F4801B00989246E9
:1002600020B10023D2EB030A63EB0B0B0198594634
:10027000C0F14002504600F009F906460D465046CE
:100280005946019A00F021F910EB08006141002461
:1002900087EA115284EAE7731A4340D0009A62B3A6
:1002A000019A012A4FEA075215DC001B61EB02019B
:1002B0004FF0004202EA0752CDE90042001C41F52E
:1002C000801132462B4600F021F903B0BDE8F08FD3
:1002D00040462146F9E7001B61EB0201001C41F595
:1002E000801300185B412018A2F5001747EB0301AB
:1002F00040EAD570B6196D4111E06D084FEA360637
:1003000045EAC0754FEA0752001B61EB0201001C71
:1003100041F5801149084FEA300000195141324639
:100320002B4603B0BDE8F04F00F0E1B80098012281
:1003300040000023D0EB020263EBE07300982146FB
:100340004FEAE074B8EB000061EB0401E9E783F0E9
:1003500000435BE781F0004158E72DE9F04D81EA69
:10036000030404F0004B21F0004514464FF0000A4E
:1003700023F0004150EA050220D054EA01021DD0CA
:10038000C5F30A570246C5F31303C1F31300C1F3C3
:100390000A5640F4801543F48013A7EB0608101B9F
:1003A000D64608F2FD3873EB050002D308F10108C8
:1003B00001E092185B41B8F1000F03DA002001461A
:1003C000BDE8F08D00204FF48011064684460EE013
:1003D000171B73EB050705D3121B63EB05030643DD
:1003E0004CEA010C49084FEA300092185B4150EA90
:1003F0000107EDD152EA030012D082EA040083EA39
:100400000501084305D0101BAB4106D20122002391
:1004100006E000224FF0004302E06FF001025310AB
:100420001AEB06004CEB085110EB0A0041EB0B01F4
:10043000BDE8F04D00F05BB80EB5C10F80EAE0708A
:100440000844CA07002140F233438DE80E000A46F3
:100450000B4600F05BF803B000BDC1F30A5210B5C3
:10046000C1F3130140F2FF3341F480119A4201DAE3
:10047000002010BD40F233439A42A2F2334203DC23
:10048000524200F012F810BD904010BD202A04DB4B
:10049000203A00FA02F1002070479140C2F1200397
:1004A00020FA03F3194390407047202A04DB203AD6
:1004B00021FA02F00021704721FA02F3D040C2F184
:1004C00020029140084319467047202A06DBCB17CB
:1004D000203A41FA02F043EAE07306E041FA02F3FF
:1004E000D040C2F12002914008431946704710B530
:1004F000141E73F1000408DA401C41F10001921847
:100500005B411A4301D120F0010010BD2DE9F04DEF
:1005100092469B4611B1B1FA81F202E0B0FA80F244
:1005200020329046FFF7B2FF04460F4640EA0A0029
:1005300041EA0B0153465A46084313D0114653EA89
:10054000010019D0C8F140025046FFF7AEFF054642
:100550000E46504659464246FFF798FF084305D0DD
:10056000012004E020463946BDE8F08D0020054317
:1005700046EAE0762C4337430A986305E40AA0EB89
:1005800008000022FD0A44EA47540A3002D5002040
:100590000146E9E7010510196941DDE9084500193F
:1005A0006941BDE8F04DA2E7064C074D06E0E06862
:1005B00040F0010394E8070098471034AC42F6D3AA
:1005C000FFF7CAFD3C7D00085C7D000880B542F263
:1005D0000040C4F20100012105F000F8FFE700200F
:1005E000C4F202000021022205F01AFE002801D107
:1005F000FFE7F4E70020C4F202000021022205F028
:10060000FDFD80BD80B582B001900198B0F8A010CA
:1006100001600198002141600198017201984172C6
:10062000019890F8A4108172019946F20040C4F23A
:10063000000005F081FA43F6EA31C2F200010870C9
:10064000087801460028009108D0FFE700980128AB
:100650000CD0FFE70098022810D017E043F6D43002
:10066000C2F200004FF40071016017E043F6D4308D
:10067000C2F200004FF4027101600FE043F6D43083
:10068000C2F200004FF40471016007E043F6D43079
:10069000C2F200004FF400710160FFE7FFE743F68C
:1006A000D430C2F20000018846F20040C4F20000DB
:1006B00005F0F2F8012801D1FFE7F0E743F6D43066
:1006C000C2F20000018846F20040C4F2000005F0CA
:1006D000CDF802B080BD000070B582B013468C46E4
:1006E00001908DF80310ADF80020BDF8000044F62D
:1006F000D351C1F26201A0FB0101890946F2676290
:10070000C6F2666251FB02FE4FEA9E0404EBDE7EF7
:100710000EEB8E0EA1EB4E013031DDF804E09DF8BA
:1007200003400EF80410BDF8001048F21F5EC5F239
:10073000EB1EA1FB0E1E4FEA5E1E5EFB02F4A50837
:1007400005EBD47404EB8404AEEB440E0EF1300ED2
:10075000019C9DF803502C4484F801E0BDF800E0B2
:100760004CF6CD44CCF6CC44AEFB04E5ED0855FB8D
:1007700002F2960806EBD27202EB8202A5EB42026D
:100780003032019D9DF803603544AA70BDF8002009
:10079000A2FB0445ED0805EB8505A2EB450242F0FE
:1007A0003002019D9DF803603544EA7002B070BDCF
:1007B00080B590B000208DF83E0040F20801C2F2F2
:1007C00000010B9101218DF83D104FF400620C9255
:1007D00042F24C42C4F2010209928DF83C004FF4FF
:1007E00000720A9203220D924FF440530E9300239D
:1007F000C4F202030DF1240C08901846DDF820E045
:100800000791714606926246059305F025FD05980D
:10081000089905F0D5FC0598089905F095FC4FF46A
:10082000C02004F0FDFD42F20040C4F201004FF48C
:10083000807104900391079A04F0F0FE022004995D
:10084000029008460299089A04F0E8FE0498089974
:1008500004F04AFD0498089904F0ACFE0498079946
:10086000069A04F009FD42F60000C4F2010001906E
:100870000399079A04F0D2FE01980299089A04F0AD
:10088000CDFE0198089904F02FFD0198089904F015
:1008900091FE01980799069A04F0EEFC4FF460204F
:1008A0000499009008460799009A04F08FFD049877
:1008B0000799079A04F048FD01980799009A04F0F7
:1008C00085FD01980799079A04F03EFD0498089960
:1008D000089A089B04F0B4FD04980799029A089BB3
:1008E00004F0AEFD052204980299089B04F0A8FDCF
:1008F00001980899079A089B04F0A2FD01980799AE
:10090000069A089B04F09CFD062201980299089B18
:1009100004F096FD049804F007FD049804F08EFCA2
:10092000019804F001FD019804F088FC049804F09B
:10093000F1FC47F20040C4F20000016841F00101FF
:10094000016008980899089A05F0F6FA089805F0E9
:100950004DFB10B080BD000080B58EB041F20000AC
:10096000C4F2010004214FF400520D900C910C9B35
:100970000B921A460B9B05F07FFD4FF400400D993A
:100980000A9008460C990C9A0A9B05F075FD40F6F2
:100990000040C4F20100022109900C9A089111460E
:1009A000089B05F069FD4FF48050099907900846AF
:1009B0000C990C9A079B05F05FFD20200999069081
:1009C00008460C990C9A069B05F056FD4FF48040A2
:1009D0000D99059008460C990C9A059B05F04CFD65
:1009E00040F60000C4F20100802304900C990C9A98
:1009F00005F042FD01200999039008460C990C9AD4
:100A0000039B05F039FD09980C990C9A0C9B05F095
:100A100033FD09980C990C9A0A9B05F02DFD4FF4B3
:100A200080600499029008460C990C9A029B05F08C
:100A300023FD4FF480700999019008460C990C9A97
:100A4000019B05F019FD4FF4007304980C990C9A62
:100A500005F012FD04980C990C9A019B05F00CFD11
:100A600009980C990C9A059B05F006FD09980C99BC
:100A70000C9A0B9B05F000FD04980C990C9A039BB3
:100A800005F0FAFC04980C990C9A089B05F0F4FC0C
:100A900004980C990C9A0C9B05F0EEFC0823049822
:100AA0000C990C9A05F0E8FC04980C990C9A069B9A
:100AB00005F0E2FC402304980C990C9A05F0DCFC4C
:100AC000102304980C990C9A05F0D6FC09980C99FF
:100AD0000C9A029B05F0D0FC4FF40060099900903D
:100AE00008460C990C9A009B05F0C6FC04980C99DA
:100AF0000C9A079B05F0C0FC04980C990C9A009B7B
:100B000005F0BAFC0EB080BD80B58CB00B9040F201
:100B1000197005F0E9FF46F20040C4F200000190B0
:100B200004F0D4FD00208DF821008DF823008DF80D
:100B300022008DF824008DF81D0004218DF81E1070
:100B400002218DF81F108DF820008DF825000B98DC
:100B500000798DF81C0007A9019804F0FDFE0B999F
:100B60000968FA2900910AD0FFE70098B0F5FA7FEA
:100B700005D0FFE70098B0F57A7F0CD1FFE70B981E
:100B800000684FF47A71414346F20040C4F200001D
:100B900004F0A2FE0AE046F20040C4F200004EF665
:100BA0004801C0F2010104F097FEFFE70020ADF814
:100BB0001200ADF814000121ADF81610ADF80800D0
:100BC000ADF80A00ADF80C00ADF80E000B984079B6
:100BD000ADF810008DF8181002A804F097FD0CB0C5
:100BE00080BD000080B582B04FF4C06005F07CFF8E
:100BF00040F2026005F078FF40F60000C4F2010008
:100C0000482103224FF400630190009205F034FC68
:100C100018214FF480530198009A05F02DFC02B082
:100C200080BD000080B592B040F2026005F05CFF2C
:100C300040F2036005F058FF40F2046005F054FFF5
:100C400040F2096005F050FF40F20A6005F04CFFE9
:100C50004FF4A06005F048FF40F21D7005F044FF1E
:100C60004FF4C06005F040FF40F60040C4F20100C0
:100C7000102104224FF40073119010910F920E93E3
:100C800005F0FAFB40F60000C4F2010028214FF401
:100C900000520D900C910F9B0B921A460B9B05F086
:100CA000EBFB4FF480400D990A9008460C990F9A7F
:100CB0000A9B05F0E1FB4FF400400D9909900846AE
:100CC0000C990F9A099B05F0D7FB08201199089001
:100CD00008460C990F9A089B05F0CEFB11980C99C9
:100CE0000F9A109B05F0C8FB41F20000C4F201000E
:100CF00007900F990F9A0B9B05F0BEFB07980F9971
:100D00000F9A099B05F0B8FB02201199069008463E
:100D10000F990F9A069B05F0AFFB4FF48053119883
:100D20000F990F9A05F0A8FB20201199059008460D
:100D30000F990F9A059B05F09FFB079810990F9A42
:100D40000A9B05F099FB80230D9810990F9A05F0E6
:100D500093FB012011990490084610990F9A049B67
:100D600005F08AFB119810990F9A0F9B05F084FBF0
:100D7000119810990F9A099B05F07EFB4FF4806340
:100D80000D9810990F9A05F077FB4FF48070119928
:100D90000390084610990F9A039B05F06DFB1820ED
:100DA0000D990290084602990F9A0E9B05F064FB7C
:100DB0000D9802990F9A039B05F05EFB119802991A
:100DC0000F9A0A9B05F058FB119802990F9A0B9BFA
:100DD00005F052FB00200D990190084601990F9AE9
:100DE000049B05F049FB0D9801990F9A069B05F0AD
:100DF00043FB0D9801990F9A0F9B05F03DFB0D9851
:100E000001990F9A089B05F037FB0D9801990F9AED
:100E1000059B05F031FB40230D9801990F9A05F0D1
:100E20002BFB03220D980199109B05F025FB12B0B6
:100E300080BD000080B586B001468DF81700002007
:100E4000C4F202000122022304900391114602928F
:100E50001A4605F0D3F90498029905F057F99DF860
:100E600017200498029905F0BDFA44F60000C4F278
:100E70000000802106F0AEFD0498029905F064F9A7
:100E8000FFE744F60000C4F20000062106F0D8FD9A
:100E9000002802D1FFE700BFF3E744F60000C4F2E8
:100EA00000000621019006F0B5FD0021019806F032
:100EB00091FD06B080BD000010B590B00F904FF4CA
:100EC000A06005F011FE40F2127005F00DFE40F238
:100ED000065005F009FE00208DF83A000F99496987
:100EE0000A9101218DF839100B9044F60402C4F2E6
:100EF000000208928DF8380009900C904FF440538E
:100F00000D9340F2000CC4F2020C4FF0020E08AC3C
:100F10000790604606917146059222460493CDF8EB
:100F20000CC0CDF808E0019405F096F903980299F9
:100F300005F046F90398029905F006F906988DF830
:100F40003A000F9909690A918DF8390007990B91B8
:100F5000059A08928DF8381009910C91049B0D9315
:100F600003980699019A05F077F90398069905F018
:100F700009F90398069905F0E7F844F60000C4F271
:100F80000000009006F0B4FC0F980168009806F08D
:100F900031FC0F984168009806F09EFD0F98C168DB
:100FA000009806F005FE0F988168009806F0DAFDBB
:100FB0000098079906F084FC0098079906F076FDE2
:100FC0000098079906F05CFD009806F0ABFD322111
:100FD000009806F0B3FD4021009806F0E5FC802162
:100FE000009806F0F7FC0821009806F0CBFD0421DC
:100FF000009806F081FD009806F002FD10B010BDCB
:1010000080B582B001468DF80700FFE744F6000086
:10101000C4F2000042F2102106F012FD002801D0B7
:10102000FFE7F3E79DF80700FFF704FF02B080BD7C
:1010300080B582B04FF4C06005F056FD40F2036009
:1010400005F052FD40F60040C4F2010018210322D1
:101050004FF480630190009205F00EFA04214FF4E2
:1010600000630198009A05F007FA02B080BD000005
:1010700010B598B0179040F2015005F035FD40F2E0
:101080000F7005F031FD00208DF85A00179989681E
:10109000129101218DF85910139043F60C42C4F2BD
:1010A000000210928DF85800119014904FF44053A4
:1010B000159340F2004CC4F2020C0DF1400E089062
:1010C0006046089C07912146069272460593CDF82A
:1010D00010C0CDF80CE005F0BFF80498089905F0B1
:1010E0006FF80498089905F02FF807988DF85A00C2
:1010F0001799496812918DF8590008991391069A29
:1011000010928DF8581011911491059B1593049825
:101110000799039A05F0A0F843F60040C4F20000D6
:10112000029005F063FD09A8019005F0FDFD1798F8
:10113000C068099008980A90179909680B910C905B
:10114000179989690D91179949690E91179909693C
:101150000F910298019905F099FD029805F0DAFDCA
:10116000029805F0CDFD029805F036FD18B010BDCF
:1011700080B584B001468DF80F0040F20040C4F203
:1011800002000022029001911146009204F0BEFF7D
:101190009DF80F200298009905F024F943F60040CD
:1011A000C4F20000012105F0FFFC0298009904F050
:1011B000CBFF04B080BD000080B584B001468DF83F
:1011C0000F0040F20040C4F202000122029001919F
:1011D0001146009204F09AFF9DF80F2002980099A2
:1011E00005F000F943F60040C4F20000002105F0CC
:1011F000DBFC0298009904F0A7FFFFE740F20040F3
:10120000C4F202000121022205F00AF8002801D1EF
:10121000FFE7F3E740F20040C4F20200012102229E
:1012200004F0ECFF43F60040C4F20000002105F09A
:10123000A3FC04B080BD000080B50220FFF798FF3A
:1012400080BD000080B582B001468DF80700FFE741
:1012500043F60040C4F20000022105F001FD002821
:1012600001D1FFE7F4E79DF80700FFF7A5FF02B003
:1012700080BD000080B584B04FF4C06005F034FC40
:1012800040F2036005F030FC40F2026005F02CFCF7
:1012900040F60040C4F201001821032210230390FD
:1012A000029205F0E9F804202023039901900846F2
:1012B0000199029A05F0E0F8082303980199029A2F
:1012C00005F0DAF840F60000C4F201004FF40043E4
:1012D0000199029A05F0D0F840F20020C0F23000E7
:1012E000012105F0A9F904B080BD000080B592B0DD
:1012F000119011981090119840080F9040F20B60D7
:1013000005F0F2FB42F60040C4F20100039006F043
:101310008FF810980D900020ADF82C00ADF8380033
:10132000ADF82E00ADF83000FF218DF83A100BA972
:10133000039A0290104606F07BF90120ADF82000D8
:101340000421ADF822100299ADF82410ADF8261052
:10135000ADF82810ADF82A1008AA039B0190184692
:10136000009205F003FE03980199009A05F0FEFD36
:1013700003980299029A06F017F803980299029AC4
:1013800005F0B4FD03980199029A06F00DF8039850
:101390000199029A05F0AAFD0F9A0398029905F0A7
:1013A00097FF60220398029905F04AFF039802997B
:1013B000029A05F0B1FF0F9A0398019905F088FF92
:1013C00070220398019905F03BFF03980199029A56
:1013D00005F0A2FF1520ADF814000298ADF8160034
:1013E000ADF81000ADF812004FF48041ADF81810C0
:1013F000ADF81A00ADF81C0004A9039805F060FDD3
:1014000019200221029A05F0B9F90398019906F012
:10141000A5F9039806F002F912B080BD80B58AB034
:101420000990099808904FF4E06005F05DFB4FF0DB
:101430008040039005F0FCFF089806900020ADF86E
:101440001000ADF81C00ADF81200ADF814008DF8D6
:101450001E0004A9039A0290104606F0E9F81C2029
:1014600001210191029A05F089F90398019906F08A
:1014700075F90398019906F0A5F9039805F016FD92
:10148000039806F0CBF80AB080BD000080B590B09C
:101490000F900F980E900F9840080D9040F2037037
:1014A00005F022FB40F60040C4F20000019005F078
:1014B000BFFF0E980B900020ADF82400ADF830006F
:1014C000ADF82600ADF82800FF208DF8320009A9FC
:1014D000019806F0ADF80121019806F03FF932209D
:1014E00003F052FE019806F099F810B080BD00009C
:1014F00080B586B001468DF817000020C4F20200C6
:101500000422049003911146029204F0FFFD9DF81D
:1015100017200498029904F065FF43F60000C4F216
:101520000100402106F040FA0498029904F00CFEF4
:10153000FFE70020C4F202000421022204F070FE42
:101540000021002801910DD1FFE743F60000C4F20D
:10155000010042F20B2106F073FAB0FA80F0400964
:101560000190FFE70198C007002802D0FFE700BF05
:10157000DFE743F60000C4F2010042F20B210090C5
:1015800006F048FA0021009806F00EFA06B080BD79
:1015900080B586B00146ADF816000020C4F2020006
:1015A0000322022304900391114602921A4604F08A
:1015B00025FE0498029904F0A9FDBDF816200498B0
:1015C000029904F00FFF43F60000C4F201008021ED
:1015D00006F000FA0498029904F0B6FDFFE743F61E
:1015E0000000C4F20100062106F02AFA002802D108
:1015F000FFE700BFF3E743F60000C4F20100062155
:10160000019006F007FA0021019806F0E3F906B010
:1016100080BD000010B592B011904FF4A06005F0AD
:1016200063FA40F20E6005F05FFA40F2065005F0F2
:101630005BFA00208DF84200119949690C91012153
:101640008DF841100D9043F60402C4F201020A9293
:101650008DF840000B900E904FF440530F9340F2E2
:10166000000CC4F2020C4FF0040E0AAC0990604664
:1016700008917146079222460693CDF814C0CDF822
:1016800010E0039404F0E8FD0598049904F098FD37
:101690000598049904F058FD08988DF842001199B6
:1016A00009690C918DF8410009990D91079A0A92E8
:1016B0008DF840100B910E91069B0F934FF0030C89
:1016C00005986146039ACDF808C004F0C5FD059859
:1016D000029904F057FD0598029904F035FD43F690
:1016E0000000C4F20100019006F002F911980168AF
:1016F000019806F07FF811984168019806F0ECF91E
:101700001198C168019806F053FA11988168019800
:1017100006F028FA0198099906F0D2F8019809997B
:1017200006F0C4F90198099906F0AAF91421019864
:1017300006F004FA019806F0F5F94021019806F048
:1017400033F98021019806F045F90821019806F047
:1017500019FA0198049906F0CFF9019806F050F9AA
:1017600012B010BD80B5FFE743F60000C4F20100DF
:1017700042F2102106F064F9002801D0FFE7F3E7F8
:101780003220FFF7B5FE80BD80B582B00146ADF8CE
:101790000600FFE743F60000C4F2010042F2102108
:1017A00006F04EF9002801D0FFE7F3E7BDF8060088
:1017B000FFF7EEFE02B080BD80B582B04FF4C0608E
:1017C00005F092F940F2036005F08EF90420C4F2AE
:1017D0000100016841F00401016040F60040C4F2DC
:1017E00001001821032240230190009204F044FEDE
:1017F000042180230198009A04F03EFE02B080BDCF
:101800002DE9F04FC9B000208DF823018DF8220199
:10181000ADF8200140F20510C2F2000042F243711F
:10182000405C002803F03B80FFE740F20510C2F265
:10183000000042F24371002242541C2147900846A6
:1018400003F0A2FC43F6EB30C2F2000032224690D5
:101850004799FEF799FC47F64541C0F60001469AC4
:1018600045901046FEF7B0FC43F63C41C2F2000141
:101870000860086847F66541C0F600010322FEF7DC
:1018800095FC002809D0FFE743F6EB30C2F20000D8
:101890000078102840F0AD82FFE747F64541C0F6DA
:1018A00000010020FEF790FC43F63C41C2F200012B
:1018B00008600868008844F64F61884208D0FFE756
:1018C00043F6EB30C2F20000407805284ED1FFE726
:1018D00042F60040C4F201000021012244904391ED
:1018E000429205F061FD04204499419008464399D5
:1018F000419A05F0FBFA44984299429A05F054FD4A
:1019000044984299419A05F0F1FA43F63C40C2F2FC
:1019100000000068008844F64F6188421AD1FFE752
:1019200040F20510C2F2000045F25241C0F60D210E
:10193000C0F8391045F25341C5F24121C0F83610C4
:1019400045F25071C2F24D01C0F832100B20FFF782
:101950001BFF0AE040F20510C2F20000AC2180F843
:1019600032100120FFF710FFFFE740E243F63C4052
:10197000C2F20000006847F65241C0F6000103229F
:10198000FEF714FC002808D0FFE743F6EB30C2F264
:10199000000040780A284ED1FFE742F60040C4F22A
:1019A0000100002140903F913F9A05F0FDFC4098D6
:1019B0003F993F9A05F09AFA012040993E900846D7
:1019C0003E993F9A05F0F0FC40983E993F9A05F009
:1019D0008DFA43F63C40C2F20000006847F65241DF
:1019E000C0F600010322FEF7E1FB002817D1FFE754
:1019F00040F20510C2F2000040F60D21418745F289
:101A00005341C5F24F01C0F8361045F25071C2F291
:101A10004D01C0F832100A20FFF7B6FE0AE040F28E
:101A20000510C2F20000AC2180F832100120FFF74F
:101A3000ABFEFFE7DAE143F63C40C2F2000000688B
:101A4000006845F24621C5F24511884209D0FFE7FA
:101A500043F6EB30C2F200004078FC2840F087806B
:101A6000FFE743F63C40C2F200000068006845F220
:101A70004621C5F2451188424AD1FFE747F6454164
:101A8000C0F600010020FEF79FFB43F63C41C2F286
:101A900000010860086802F09DFFFEF7CDFC41ECF4
:101AA000100B9FEDEB1B51EC110B53EC102BFEF7C1
:101AB00054FC41EC100B51EC100B9FEDE70B53EC79
:101AC000102BFEF7A3FB41EC100B51EC100BFEF7B3
:101AD000C4FCFFF70BFC40F20510C2F2000040F618
:101AE0000D21C18745F24141C4F24541C0F83A1089
:101AF00045F22051C4F25041C0F8361045F246215B
:101B0000C5F24511C0F832100E20FFF73DFE2DE062
:101B100043F6EB30C2F200008078FEF78DFC41EC1A
:101B2000100B9FEDCB1B51EC110B53EC102BFEF760
:101B300014FC41EC100B51EC100B9FEDC70B53EC58
:101B4000102BFEF763FB41EC100B51EC100BFEF772
:101B500084FCFFF7CBFB40F20510C2F20000AC2181
:101B600080F832100120FFF70FFEFFE73DE143F65A
:101B70003C40C2F200000068008845F244418842BF
:101B800008D0FFE743F6EB30C2F200004078D128DE
:101B90005FD1FFE743F63C40C2F2000000680088D6
:101BA00045F24441884238D1FFE747F64541C0F647
:101BB00000010020FEF708FB43F63C41C2F20001A1
:101BC000086042F64440C4F20100026822F0FF02BD
:101BD000026009683D90084602F0FCFEC0B23D99E3
:101BE0000A681043086040F20510C2F2000044F297
:101BF0004542C0F60D22C0F83A2044F25042C5F2E8
:101C00004142C0F8362045F24442C5F22052C0F8A5
:101C100032200C20FFF7B8FD1AE042F64440C4F22F
:101C20000100016821F0FF01016043F6EB31C2F2CF
:101C30000001897802681143016040F20510C2F288
:101C40000000AC2180F832100120FFF79DFDFFE776
:101C5000CAE043F63C40C2F200000068008844F24B
:101C60004431884209D0FFE743F6EB30C2F200006E
:101C70004078DC2840F0B780FFE743F63C40C2F2F2
:101C800000000068008844F2443188426BD1FFE7CD
:101C900047F64541C0F600010020FEF795FA43F6ED
:101CA0003C41C2F20001086042F62C40C4F201003F
:101CB00090ED000AB8EE400A0A683C9010463B914D
:101CC0008DED3A0A02F086FE00EE100AB8EEC00A68
:101CD0009FED631A80EE010A9DED3A2A22EE000A7A
:101CE000BCEEC00A42F63440C4F2010080ED000AA6
:101CF0003C9890ED000AB8EE400A3B9908688DEDDB
:101D0000391A8DED380A02F065FE00EE100AB8EEC1
:101D1000C00A9DED391A80EE010A9DED382A22EEA7
:101D2000000ABCEEC00A42F63840C4F2010080ED61
:101D3000000A40F20510C2F2000044F24541C0F62C
:101D40000D21C0F83A1044F25041C5F24141C0F8AB
:101D5000361044F24431C5F22051C0F832100C2044
:101D6000FFF712FD3EE042F62C40C4F2010090ED78
:101D7000000AB8EE400A43F6EB31C2F200018A785D
:101D800001EE102AB8EEC11A9FED352A81EE021A33
:101D900020EE010ABCEEC00A42F63442C4F201024F
:101DA00082ED000A90ED000AB8EE400A887801EE54
:101DB000100AB8EEC11A81EE021A20EE010ABCEE3A
:101DC000C00A42F63840C4F2010080ED000A40F239
:101DD0000510C2F20000AC2180F832100120FFF79C
:101DE000D3FCFFE7FFE7FFE7FFE7FFE7FFE702F0CE
:101DF0003ABD43F63C40C2F20000006847F64E414F
:101E0000C0F600010322FEF7D1F9002809D0FFE750
:101E100043F6EB30C2F200000078AD2840F0578363
:101E2000FFE747F64541C0F600010020FEF7CCF978
:101E300043F63C41C2F2000108600868006844F2C1
:101E40005251C4F24141884215D00BE000BF00BF9F
:101E500000000000004CFD40000000000000F0BF4A
:101E60000000C84243F6EB30C2F200004078FD2883
:101E700040F0A181FFE700208DF82301FFE79DF8E6
:101E8000230109282ADCFFE7FEF7A0FB00208DF8DC
:101E90002201FFE79DF82201052818DCFFE79DF8E5
:101EA000220140F20801C2F2000131F8101043F69D
:101EB0002042C2F2000252F82030194442F82010A9
:101EC000FFE79DF8220101308DF82201E2E7FFE7EC
:101ED0009DF8230101308DF82301D0E743F63C4003
:101EE000C2F200000068006844F25251C4F241415D
:101EF000884240F0C380FFE740F20510C2F20000C4
:101F000044F24921C5F2553140F8321F42F23A01FC
:101F1000818043F62042C2F2000213684CF6CD4C99
:101F2000CCF6CC4CA3FB0C3ECEF3CF0E0624379060
:101F30003691214635927246CDF8D0C03393329413
:101F4000FEF7CAFB0D20379988720A22CA720C2349
:101F50003190184630922F93FFF716FC3698379938
:101F6000888044F25612C4F643420A60359A536898
:101F7000DDF8D0C0A3FB0C3ECEF3CF020846329969
:101F80002E93FEF7A9FB319837998872309ACA725E
:101F90002F98FFF7F9FB44F64940C2F23A0037990F
:101FA000086035988268349BA2FB032CCCF3CF0CDD
:101FB000042137982D926246FEF78EFB31983799AF
:101FC0000872309A4A721046FFF7DEFB369837994E
:101FD000888044F25452C5F24D020A60359AD368A3
:101FE000DDF8D0C0A3FB0C3ECEF3CF0208463299F9
:101FF0002C93FEF771FB319837998872309ACA7228
:102000002F98FFF7C1FB36983799888044F2561213
:10201000C4F643520A60359A1369DDF8D0C0A3FBB9
:102020000C3ECEF3CF02084632992B93FEF754FBB9
:10203000319837998872309ACA722F98FFF7A4FBAB
:1020400036983799888044F25622C5F255320A6094
:10205000359A5369DDF8D0C0A3FB0C3ECEF3CF0216
:10206000084632992A93FEF737FB319837998872E0
:10207000309ACA722F98FFF787FB82E043F6204020
:10208000C2F2000001684CF6CD42CCF6CC42A1FB76
:102090000213DB0A40F2051CC2F2000C8CF832304D
:1020A0000368A3FB023E4FEADE0E8CF833E04FF0EC
:1020B000200E8CF834E04468A4FB0245ED0A8CF84D
:1020C00035504568A5FB0256F6088CF836608CF84A
:1020D00037E08668A6FB0267FF0A8CF838708768CD
:1020E000A7FB02784FEAD8088CF839808CF83AE0E0
:1020F000D0F80C80A8FB02894FEAD9298CF83B90D4
:10210000D0F80C90A9FB029A4FEADA0A8CF83CA0AE
:102110008CF83DE0D0F810A0AAFB02AB4FEADB2B15
:102120008CF83EB0D0F810B02990ABFB02B0C008DC
:102130008CF83F008CF840E02998D0F814E0AEFB12
:1021400002E0C00A8CF8410029984069A0FB020215
:10215000D2088CF84220112228901046279126930D
:102160002594249523962297CDF88480CDF88090ED
:10217000CDF87CA0CDF878B0CDF874E0FFF704FB83
:10218000FFE700208DF82201FFE79DF822010528D6
:1021900010DCFFE79DF8220143F62041C2F2000166
:1021A000002241F82020FFE79DF8220101308DF840
:1021B0002201EAE789E143F63C40C2F200000068F0
:1021C00047F67541C0F600010722FDF7EFFF002832
:1021D00009D0FFE743F6EB30C2F2000040785A28FE
:1021E00040F07281FFE743F63C40C2F20000006815
:1021F00047F67541C0F600010722FDF7D7FF00281A
:1022000040F0D980FFE747F64541C0F600010020C5
:102210001C90FDF7D9FF43F63C41C2F20001086073
:10222000086802F0D7FB43F64041C2F20001088083
:1022300043F6DA30C2F200001C990180FFE743F652
:10224000DA30C2F20000008843F64041C2F20001D9
:102250000988884280F2AE80FFE7FEF7B7F940F2C6
:102260000510C2F2000044F24921C5F2553140F890
:10227000321F42F23A01818040F20802C2F20002AB
:1022800013884FF0060C1B901A91614619921A465A
:10229000CDF860C0FEF720FA0D201B9988720A2243
:1022A000CA720C231790184616921593FFF76CFA12
:1022B0001A981B99888044F25612C4F643420A6069
:1022C000199A528808461899FEF706FA17981B992A
:1022D0008872169ACA721598FFF756FA44F6494062
:1022E000C2F23A001B9908601998828804211B9851
:1022F000FEF7F2F917981B990872169A4A7210465F
:10230000FFF742FA1A981B99888044F25452C5F29A
:102310004D020A60199AD28808461899FEF7DCF92E
:1023200017981B998872169ACA721598FFF72CFA9B
:102330001A981B99888044F25612C4F643520A60D8
:10234000199A128908461899FEF7C6F917981B9929
:102350008872169ACA721598FFF716FA1A981B997E
:10236000888044F25622C5F255320A60199A528981
:1023700008461899FEF7B0F917981B998872169AB3
:10238000CA721598FFF700FA42F62D50C0F60D20DC
:102390001B9988604FF02D30486008601598FFF752
:1023A000F3F9FFE743F6DA30C2F2000001880131A9
:1023B000018044E787E0FEF75DFF43F6EB30C2F2B1
:1023C00000008178C07840EA012043F64041C2F223
:1023D0000001088043F6DE30C2F2000000210180D7
:1023E000FFE743F6DE30C2F20000008843F64041CA
:1023F000C2F200010988884232DAFFE7FEF7E6F808
:1024000040F20800C2F20000417840F2EA02C2F253
:102410000002D17101881172C178517241889172A4
:102420004179D17281881173C1795173C1889173D7
:10243000417AD17301891174C17A517440899074C1
:102440000020D074212010750E20FEF7FBFEFFE760
:1024500043F6DE30C2F20000018801310180C0E79E
:1024600043F6DE30C2F20000008843F64041C2F27B
:1024700000010988884225DBFFE740F60040C4F2EE
:1024800001000421202314901391139A03F0F4FF08
:10249000282010231499129008461299139A03F0D9
:1024A000EBFF082314981299139A03F0E5FF40F606
:1024B0000000C4F201004FF400431299139A03F094
:1024C000DBFFFFE7FFE7FFE7FFE702F0CBB943F6EB
:1024D0003C40C2F20000006847F64A41C0F60001E5
:1024E0000322FDF763FE002808D0FFE743F6EB3038
:1024F000C2F200000078DC2875D1FFE743F63C40CB
:10250000C2F20000006847F64A41C0F6000103220B
:10251000FDF74CFE002836D1FFE747F64541C0F6EF
:10252000000100201190FDF74FFE43F63C41C2F23E
:1025300000010860086802F04DFA119910900846F1
:10254000109A03F0F9FC119803F050FD40F20510C9
:10255000C2F200000A2180F83E1044F25451C0F645
:102560004451C0F83A1045F25501C4F24411C0F884
:10257000361044F24411C2F24301C0F832100D206B
:10258000FFF702F92DE040F2BC00C2F20000012189
:10259000017043F6EB30C2F200004278837843EAE0
:1025A000022243F6E833C2F200031A8042788078B0
:1025B00040EA022200200F900F9B0E91194603F073
:1025C000BBFC0F9803F012FDFEF754FE40F205101D
:1025D000C2F20000AC2180F832100E98FFF7D4F858
:1025E000FFE702F03EB943F63C40C2F2000000684B
:1025F000006845F24701C4F64971884209D0FFE7F7
:1026000043F6EB30C2F2000000786F2842F04180C0
:10261000FFE747F64541C0F600010020FDF7D4FD75
:1026200043F63C41C2F2000108600868006844F2C9
:102630005251C4F24141884209D0FFE743F6EB30E2
:10264000C2F2000040787D2840F00682FFE743F6A2
:102650003C40C2F200000068006844F25251C4F2EB
:102660004141884240F04D81FFE741F20000C4F251
:1026700001004FF4005103F0C9FF01281DD1FFE70D
:1026800040F20510C2F200000A2180F83E1044F228
:102690004971C0F64851C0F83A1043F64521C4F6D6
:1026A0002001C0F8361045F25341C5F24141C0F84F
:1026B00032100D20FFF768F819E040F20510C2F261
:1026C000000045F24F71C0F60D21C0F83A1043F6F4
:1026D0004521C4F62041C0F8361045F25341C5F2F9
:1026E0004141C0F832100C20FFF74EF8FFE741F2ED
:1026F0000000C4F201004FF4004103F087FF0128FD
:102700001DD1FFE740F20510C2F2000040F60D2196
:10271000C18744F64811C4F64701C0F83A1044F2A4
:102720004C51C2F23A01C0F8361044F64561C4F289
:102730004121C0F832100E20FFF726F81CE040F2CD
:102740000510C2F200000A2180F83E1044F64C71D8
:10275000C0F65751C0F83A1044F24C51C2F23A0157
:10276000C0F8361044F64561C4F24121C0F8321079
:102770000D20FFF709F8FFE740F60040C4F2010022
:10278000022103F043FF01281DD1FFE740F20510AD
:10279000C2F200000A2180F83E1044F24971C0F6EE
:1027A0004851C0F83A1043F64B21C4F62001C0F856
:1027B000361044F25741C4F65F71C0F832100D2054
:1027C000FEF7E2FF19E040F20510C2F2000045F208
:1027D0004F71C0F60D21C0F83A1043F64B21C4F6F4
:1027E0002041C0F8361044F25741C4F65F71C0F87A
:1027F00032100C20FEF7C8FFFFE740F60040C4F29D
:1028000001004FF4805103F001FF01281AD1FFE7C6
:1028100040F20510C2F2000044F64701C0F60D2157
:10282000C0F8391044F62001C4F24971C0F83610DE
:1028300044F24F31C3F65021C0F832100B20FEF79E
:10284000A3FF16E040F20510C2F2000040F60D2191
:10285000418744F62041C5F24F71C0F8361044F26A
:102860004F31C3F65021C0F832100A20FEF78CFF1A
:10287000FFE740F60040C4F20100202103F0C6FE4D
:10288000012820D1FFE740F20510C2F2000044F613
:102890004701C0F60D21C0F83D1044F62001C4F2F6
:1028A0004971C0F83A1044F65F11C3F64E21C0F8E2
:1028B000361045F65311C4F24E31C0F832100E20D6
:1028C000FEF762FF1CE040F20510C2F2000040F685
:1028D0000D21C18744F62041C5F24F71C0F83A106E
:1028E00044F65F11C3F64E21C0F8361045F6531179
:1028F000C4F24E31C0F832100D20FEF745FFFFE75D
:10290000A8E040F20510C2F20000002180F8321069
:1029100041F20000C4F201004FF4005103F076FED2
:1029200001280BD1FFE740F20510C2F2000090F839
:1029300032104900013180F8321009E040F20510F0
:10294000C2F2000090F83210490080F83210FFE720
:1029500041F20000C4F201004FF4004103F056FEC2
:1029600001280BD1FFE740F20510C2F2000090F8F9
:1029700032104900013180F8321009E040F20510B0
:10298000C2F2000090F83210490080F83210FFE7E0
:1029900040F60040C4F20100022103F037FE012896
:1029A0000BD1FFE740F20510C2F2000090F83210A0
:1029B0004900013180F8321009E040F20510C2F2FE
:1029C000000090F83210490080F83210FFE740F61E
:1029D0000040C4F201004FF4805103F017FE0128BB
:1029E0000BD1FFE740F20510C2F2000090F8321060
:1029F0004900013180F8321009E040F20510C2F2BE
:102A0000000090F83210490080F83210FFE740F6DD
:102A10000040C4F20100202103F0F8FD01280BD191
:102A2000FFE740F20510C2F2000090F832104900B2
:102A3000013180F8321009E040F20510C2F20000C6
:102A400090F83210490080F83210FFE70120FEF7BD
:102A50009BFEFFE701F01CBE43F63C40C2F20000C3
:102A6000006847F65641C0F600010722FDF79EFBBD
:102A7000002809D0FFE743F6EB30C2F200004078AF
:102A80007F2841F0BE82FFE7FDF766FF43F63C403A
:102A9000C2F20000006847F65641C0F60001072266
:102AA000FDF784FB002840F03E87FFE741F200007D
:102AB000C4F201004FF4005103F0A8FD01281DD11C
:102AC000FFE740F20510C2F200000A2180F83E1034
:102AD00044F24971C0F64851C0F83A1043F6452116
:102AE000C4F62001C0F8361045F25341C5F2414109
:102AF000C0F832100D20FEF747FE19E040F2051035
:102B0000C2F2000045F24F71C0F60D21C0F83A1034
:102B100043F64521C4F62041C0F8361045F2534132
:102B2000C5F24141C0F832100C20FEF72DFEFFE740
:102B300041F20000C4F201004FF4804103F066FD51
:102B400001281DD1FFE740F20510C2F200000A2162
:102B500080F83E1044F24971C0F64851C0F83A106E
:102B600043F64D21C4F62001C0F8361044F6414129
:102B7000C5F24121C0F832100D20FEF705FE19E024
:102B800040F20510C2F2000045F24F71C0F60D216F
:102B9000C0F83A1043F64D21C4F62041C0F8361073
:102BA00044F64141C5F24121C0F832100C20FEF735
:102BB000EBFDFFE741F20000C4F201004FF40041D9
:102BC00003F024FD01281DD1FFE740F20510C2F2F9
:102BD000000040F60D21C18744F64811C4F64701B4
:102BE000C0F83A1044F24C51C2F23A01C0F8361023
:102BF00044F64561C4F24121C0F832100E20FEF7C0
:102C0000C3FD1CE040F20510C2F200000A2180F86A
:102C10003E1044F64C71C0F65751C0F83A1044F2D9
:102C20004C51C2F23A01C0F8361044F64561C4F284
:102C30004121C0F832100D20FEF7A6FDFFE740F657
:102C40000000C4F20100012103F0E0FC01281AD1C8
:102C5000FFE740F20510C2F2000044F64701C0F65B
:102C60000D21C0F83A1042F23A01C4F64811C0F8FA
:102C7000361044F24921C5F25531C0F832100C200B
:102C8000FEF782FD19E040F20510C2F2000045F2A5
:102C90004F71C0F60D21C0F8391042F23A01C4F666
:102CA0004C71C0F8361044F24921C5F25531C0F8D4
:102CB00032100B20FEF768FDFFE740F60000C4F27B
:102CC0000100022103F0A2FC01281AD1FFE740F223
:102CD0000510C2F2000044F64701C0F60D21C0F80D
:102CE0003A1042F23A01C4F64811C0F8361044F2E4
:102CF0005611C4F64341C0F832100C20FEF744FDD3
:102D000019E040F20510C2F2000045F24F71C0F622
:102D10000D21C0F8391042F23A01C4F64C71C0F8E6
:102D2000361044F25611C4F64341C0F832100B205D
:102D3000FEF72AFDFFE740F60000C4F2010004217F
:102D400003F064FC012817D1FFE740F20510C2F23E
:102D5000000040F60D21418744F64811C4F64701B2
:102D6000C0F8361044F64941C2F23A01C0F83210B8
:102D70000A20FEF709FD16E040F20510C2F200003D
:102D80000A2180F83A1044F64C71C0F65751C0F849
:102D9000361044F64941C2F23A01C0F83210092017
:102DA000FEF7F2FCFFE740F60000C4F20100082144
:102DB00003F02CFC01281AD1FFE740F20510C2F203
:102DC000000044F64701C0F60D21C0F83A1042F267
:102DD0003A01C4F64811C0F8361044F25451C5F215
:102DE0004D01C0F832100C20FEF7CEFC19E040F285
:102DF0000510C2F2000045F24F71C0F60D21C0F877
:102E0000391042F23A01C4F64C71C0F8361044F25F
:102E10005451C5F24D01C0F832100B20FEF7B4FC3E
:102E2000FFE740F60000C4F20100102103F0EEFBC2
:102E300001281DD1FFE740F20510C2F2000040F664
:102E40000D21C18744F64811C4F64701C0F83A1075
:102E500044F65401C2F23A01C0F8361044F24F3140
:102E6000C5F65071C0F832100E20FEF78DFC1CE044
:102E700040F20510C2F200000A2180F83E1044F62C
:102E80004C71C0F65751C0F83A1044F65401C2F2E2
:102E90003A01C0F8361044F24F31C5F65071C0F80F
:102EA00032100D20FEF770FCFFE740F60000C4F280
:102EB0000100202103F0AAFB01281AD1FFE740F20C
:102EC0000510C2F2000044F64701C0F60D21C0F81B
:102ED0003A1042F23A01C4F64811C0F8361044F2F2
:102EE0005611C4F64361C0F832100C20FEF74CFCBA
:102EF00019E040F20510C2F2000045F24F71C0F631
:102F00000D21C0F8391042F23A01C4F64C71C0F8F4
:102F1000361044F25611C4F64361C0F832100B204B
:102F2000FEF732FCFFE740F60000C4F2010040214A
:102F300003F06CFB01281AD1FFE740F20510C2F242
:102F4000000044F64701C0F60D21C0F83A1042F2E5
:102F50003A01C4F64811C0F8361044F25621C5F2C1
:102F60005531C0F832100C20FEF70EFC19E040F28B
:102F70000510C2F2000045F24F71C0F60D21C0F8F5
:102F8000391042F23A01C4F64C71C0F8361044F2DE
:102F90005621C5F25531C0F832100B20FEF7F4FB74
:102FA000FFE740F60000C4F20100802103F02EFB91
:102FB00001281DD1FFE740F20510C2F200000A21EE
:102FC00080F83E1044F24971C0F64851C0F83A10FA
:102FD00043F65921C4F62001C0F8361044F252518C
:102FE000C4F24C11C0F832100D20FEF7CDFB19E0F1
:102FF00040F20510C2F2000045F24F71C0F60D21FB
:10300000C0F83A1043F65921C4F62041C0F83610F2
:1030100044F25251C4F24C11C0F832100C20FEF7A9
:10302000B3FBFFE740F60040C4F20100012103F0CA
:10303000EDFA012817D1FFE740F20510C2F20000B7
:1030400040F60D21418744F64811C4F64701C0F807
:10305000361044F25741C2F23A01C0F832100A2049
:10306000FEF792FB16E040F20510C2F200000A21C2
:1030700080F83A1044F64C71C0F65751C0F836103B
:1030800044F25741C2F23A01C0F832100920FEF76B
:103090007BFBFFE740F60040C4F20100022103F091
:1030A000B5FA01281DD1FFE740F20510C2F2000079
:1030B0000A2180F83E1044F24971C0F64851C0F828
:1030C0003A1043F64B21C4F62001C0F8361044F202
:1030D0005741C4F65F71C0F832100D20FEF754FB63
:1030E00019E040F20510C2F2000045F24F71C0F63F
:1030F0000D21C0F83A1043F64B21C4F62041C0F828
:10310000361044F25741C4F65F71C0F832100C20FB
:10311000FEF73AFBFFE740F60040C4F2010004214D
:1031200003F074FA012820D1FFE740F20510C2F243
:10313000000044F64701C0F60D21C0F83E1042F2EF
:103140003A01C4F64811C0F83A1045F65471C4F279
:103150004451C0F8361045F25531C5F24121C0F84E
:1031600032101020FEF710FB1FE040F20510C2F2F3
:10317000000045F24F71C0F60D21C0F83D1042F23B
:103180003A01C4F64C71C0F83A1045F65471C4F2D5
:103190004451C0F8361045F25531C5F24121C0F80E
:1031A00032100F20FEF7F0FAFFE740F60040C4F2BD
:1031B00001004FF4806103F029FA012820D1FFE7D4
:1031C00040F20510C2F2000044F64701C0F60D219E
:1031D000C0F83E1042F23A01C4F64811C0F83A1065
:1031E00045F65471C5F65401C0F8361045F2553114
:1031F000C5F24121C0F832101020FEF7C5FA1FE0D9
:1032000040F20510C2F2000045F24F71C0F60D21E8
:10321000C0F83D1042F23A01C4F64C71C0F83A10C1
:1032200045F65471C5F65401C0F8361045F25531D3
:10323000C5F24121C0F832100F20FEF7A5FAFFE7D2
:1032400040F60040C4F201004FF4006103F0DEF9E3
:10325000012820D1FFE740F20510C2F2000044F639
:103260004701C0F60D21C0F83E1042F23A01C4F603
:103270004811C0F83A1045F65471C5F65201C0F82D
:10328000361045F25531C5F24121C0F832101020F8
:10329000FEF77AFA1FE040F20510C2F2000045F294
:1032A0004F71C0F60D21C0F83D1042F23A01C4F64C
:1032B0004C71C0F83A1045F65471C5F65201C0F889
:1032C000361045F25531C5F24121C0F832100F20B9
:1032D000FEF75AFAFFE740F60040C4F201004FF44F
:1032E000805103F093F901281AD1FFE740F205104D
:1032F000C2F2000040F64851C0F20A01C0F83A108C
:1033000044F62001C4F24971C0F8361044F24F313E
:10331000C3F65021C0F832100C20FEF735FA17E042
:1033200040F20510C2F2000040F60D21C0F83A103C
:1033300044F62041C5F24F71C0F8361044F24F31C7
:10334000C3F65021C0F832100B20FEF71DFAFFE73C
:1033500040F60040C4F201004FF4005103F056F96A
:1033600001281DD1FFE740F20510C2F2000040F62F
:103370000D21C18744F64811C4F64701C0F83A1040
:1033800044F65301C2F23A01C0F8361045F25071CA
:10339000C5F64D71C0F832100E20FEF7F5F91CE0AD
:1033A00040F20510C2F200000A2180F83E1044F6F7
:1033B0004C71C0F65751C0F83A1044F65301C2F2AE
:1033C0003A01C0F8361045F25071C5F64D71C0F89B
:1033D00032100D20FEF7D8F9FFE740F60040C4F2A6
:1033E00001004FF4804103F011F901281DD1FFE7DE
:1033F00040F20510C2F2000040F60D21C18744F6EC
:103400004811C4F64701C0F83A1044F65341C2F2DD
:103410003A01C0F8361045F25071C5F64D71C0F84A
:1034200032100E20FEF7B0F91CE040F20510C2F297
:1034300000000A2180F83E1044F64C71C0F6575146
:10344000C0F83A1044F65341C2F23A01C0F83610BF
:1034500045F25071C5F64D71C0F832100D20FEF7DF
:1034600093F9FFE740F60040C4F201004FF4004139
:1034700003F0CCF801281AD1FFE740F20510C2F2A0
:10348000000044F64701C0F60D21C0F83A1042F2A0
:103490003A01C4F64811C0F8361044F24C51C3F258
:1034A0004411C0F832100C20FEF76EF919E040F21A
:1034B0000510C2F2000045F24F71C0F60D21C0F8B0
:1034C000391042F23A01C4F64C71C0F8361044F299
:1034D0004C51C3F24411C0F832100B20FEF754F9DE
:1034E000FFE740F60000C4F201004FF4807103F0E2
:1034F0008DF801281DD1FFE740F20510C2F200004F
:1035000040F60D21C18744F64811C4F64701C0F8C2
:103510003A1044F64601C2F23A01C0F8361045F2BC
:103520005071C5F64D71C0F832100E20FEF72CF91F
:103530001CE040F20510C2F200000A2180F83E10A3
:1035400044F64C71C0F65751C0F83A1044F64601A3
:10355000C2F23A01C0F8361045F25071C5F64D710D
:10356000C0F832100D20FEF70FF9FFE740F600001B
:10357000C4F201004FF4007103F048F801281DD196
:10358000FFE740F20510C2F2000040F60D21C187AE
:1035900044F64811C4F64701C0F83A1044F64641D3
:1035A000C2F23A01C0F8361045F25071C5F64D71BD
:1035B000C0F832100E20FEF7E7F81CE040F20510CC
:1035C000C2F200000A2180F83E1044F64C71C0F6A9
:1035D0005751C0F83A1044F64641C2F23A01C0F8D9
:1035E000361045F25071C5F64D71C0F832100D20FD
:1035F000FEF7CAF8FFE740F60040C4F201004FF4BE
:10360000005103F003F801281DD1FFE740F2051037
:10361000C2F2000040F60D21C18744F64811C4F6FD
:103620004701C0F83A1044F65301C2F23A01C0F81B
:10363000361045F25071C5F64D71C0F832100E20AB
:10364000FEF7A2F81CE040F20510C2F200000A21C9
:1036500080F83E1044F64C71C0F65751C0F83A104D
:1036600044F65301C2F23A01C0F8361045F25071E7
:10367000C5F64D71C0F832100D20FEF785F8FFE752
:1036800040F60000C4F201004FF4806102F0BEFF7A
:1036900001281DD1FFE740F20510C2F2000040F6FC
:1036A0000D21C18744F64811C4F64701C0F83A100D
:1036B00044F64561C2F23A01C0F8361045F2507145
:1036C000C5F64D71C0F832100E20FEF75DF81CE013
:1036D00040F20510C2F200000A2180F83E1044F6C4
:1036E0004C71C0F65751C0F83A1044F64561C2F229
:1036F0003A01C0F8361045F25071C5F64D71C0F868
:1037000032100D20FEF740F8FFE740F60000C4F24B
:1037100001004FF4006102F079FF01281DD1FFE79D
:1037200040F20510C2F2000040F60D21C18744F6B8
:103730004811C4F64701C0F83A1045F65201C2F2EA
:103740003A01C0F8361044F24311C5F64E71C0F884
:1037500032100E20FEF718F81CE040F20510C2F2FD
:1037600000000A2180F83E1044F64C71C0F6575113
:10377000C0F83A1045F65201C2F23A01C0F83610CC
:1037800044F24311C5F64E71C0F832100D20FDF71A
:10379000FBFFFFE740F60000C4F201004FF4805148
:1037A00002F034FF01281DD1FFE740F20510C2F2FC
:1037B000000040F60D21C18744F64811C4F64701C8
:1037C000C0F83A1045F65401C2F23A01C0F836107A
:1037D00044F24311C5F64E71C0F832100E20FDF7C9
:1037E000D3FF1CE040F20510C2F200000A2180F86D
:1037F0003E1044F64C71C0F65751C0F83A1045F6E9
:103800005401C2F23A01C0F8361044F24311C5F631
:103810004E71C0F832100D20FDF7B6FFFFE740F6FD
:103820000040C4F20100202102F0F0FE012820D166
:10383000FFE740F20510C2F2000044F64701C0F66F
:103840000D21C0F83D1044F62001C4F24971C0F8C2
:103850003A1044F65F11C3F64E21C0F8361045F613
:103860005311C4F24E31C0F832100F20FDF78CFF17
:103870001CE040F20510C2F2000040F60D21C187A5
:1038800044F62041C5F24F71C0F83A1044F65F117A
:10389000C3F64E21C0F8361045F65311C4F24E312E
:1038A000C0F832100E20FDF76FFFFFE740F6004032
:1038B000C4F201004FF4807102F0A8FE01281AD171
:1038C000FFE740F20510C2F2000044F64701C0F6DF
:1038D0000D21C0F8391044F62001C4F24971C0F836
:1038E000361044F24611C3F64E21C0F832100B20B8
:1038F000FDF74AFF16E040F20510C2F2000040F664
:103900000D21418744F62041C5F24F71C0F83610B1
:1039100044F24611C3F64E21C0F832100A20FDF7DA
:1039200033FFFFE764E340F20510C2F2000000211C
:1039300080F8321080F8331080F8341080F8351099
:1039400041F20000C4F201004FF4005102F05EFEAB
:1039500001280BD1FFE740F20510C2F2000090F8F9
:1039600032104900013180F8321009E040F20510B0
:10397000C2F2000090F83210490080F83210FFE7E0
:1039800041F20000C4F201004FF4804102F03EFE1B
:1039900001280BD1FFE740F20510C2F2000090F8B9
:1039A00032104900013180F8321009E040F2051070
:1039B000C2F2000090F83210490080F83210FFE7A0
:1039C00041F20000C4F201004FF4004102F01EFE7B
:1039D00001280BD1FFE740F20510C2F2000090F879
:1039E00032104900013180F8321009E040F2051030
:1039F000C2F2000090F83210490080F83210FFE760
:103A000040F60000C4F20100012102F0FFFD012890
:103A10000BD1FFE740F20510C2F2000090F832101F
:103A20004900013180F8321009E040F20510C2F27D
:103A3000000090F83210490080F83210FFE740F69D
:103A40000000C4F20100022102F0E0FD01280BD1C8
:103A5000FFE740F20510C2F2000090F83210490072
:103A6000013180F8321009E040F20510C2F2000086
:103A700090F83210490080F83210FFE740F600005D
:103A8000C4F20100042102F0C1FD01280BD1FFE7BF
:103A900040F20510C2F2000090F8321049000131E6
:103AA00080F8321009E040F20510C2F2000090F8F0
:103AB0003210490080F83210FFE740F60000C4F2EF
:103AC0000100082102F0A2FD01280BD1FFE740F21E
:103AD0000510C2F2000090F832104900013180F860
:103AE000321009E040F20510C2F2000090F83210E6
:103AF000490080F83210FFE740F60000C4F20100F0
:103B0000102102F083FD01280BD1FFE740F20510E0
:103B1000C2F2000090F832104900013180F83210F2
:103B200009E040F20510C2F2000090F8321049009E
:103B300080F83210FFE740F60000C4F201002021B7
:103B400002F064FD01280BD1FFE740F20510C2F23C
:103B5000000090F832104900013180F8331009E07C
:103B600040F20510C2F2000090F83310490080F8CE
:103B70003310FFE740F60000C4F20100402102F0DC
:103B800045FD01280BD1FFE740F20510C2F200000D
:103B900090F832104900013180F8331009E040F20A
:103BA0000510C2F2000090F83310490080F833107D
:103BB000FFE740F60000C4F20100802102F026FD7C
:103BC00001280BD1FFE740F20510C2F2000090F887
:103BD00032104900013180F8331009E040F205103D
:103BE000C2F2000090F83310490080F83310FFE76C
:103BF00040F60040C4F20100012102F007FD012857
:103C00000BD1FFE740F20510C2F2000090F832102D
:103C10004900013180F8331009E040F20510C2F28A
:103C2000000090F83310490080F83310FFE740F6A9
:103C30000040C4F20100022102F0E8FC01280BD18F
:103C4000FFE740F20510C2F2000090F83210490080
:103C5000013180F8331009E040F20510C2F2000093
:103C600090F83310490080F83310FFE740F6004029
:103C7000C4F20100042102F0C9FC01280BD1FFE7C6
:103C800040F20510C2F2000090F8321049000131F4
:103C900080F8331009E040F20510C2F2000090F8FD
:103CA0003310490080F83310FFE740F60040C4F2BB
:103CB00001004FF4806102F0A9FC01280BD1FFE75D
:103CC00040F20510C2F2000090F8321049000131B4
:103CD00080F8331009E040F20510C2F2000090F8BD
:103CE0003310490080F83310FFE740F60040C4F27B
:103CF00001004FF4006102F089FC01280BD1FFE7BD
:103D000040F20510C2F2000090F832104900013173
:103D100080F8331009E040F20510C2F2000090F87C
:103D20003310490080F83310FFE740F60040C4F23A
:103D300001004FF4805102F069FC01280BD1FFE72C
:103D400040F20510C2F2000090F832104900013133
:103D500080F8341009E040F20510C2F2000090F83B
:103D60003410490080F83410FFE740F60040C4F2F8
:103D700001004FF4005102F049FC01280BD1FFE78C
:103D800040F20510C2F2000090F8321049000131F3
:103D900080F8341009E040F20510C2F2000090F8FB
:103DA0003410490080F83410FFE740F60040C4F2B8
:103DB00001004FF4804102F029FC01280BD1FFE7FC
:103DC00040F20510C2F2000090F8321049000131B3
:103DD00080F8341009E040F20510C2F2000090F8BB
:103DE0003410490080F83410FFE740F60040C4F278
:103DF00001004FF4004102F009FC01280BD1FFE75C
:103E000040F20510C2F2000090F832104900013172
:103E100080F8341009E040F20510C2F2000090F87A
:103E20003410490080F83410FFE740F60000C4F277
:103E300001004FF4807102F0E9FB01280BD1FFE78C
:103E400040F20510C2F2000090F832104900013132
:103E500080F8341009E040F20510C2F2000090F83A
:103E60003410490080F83410FFE740F60000C4F237
:103E700001004FF4007102F0C9FB01280BD1FFE7EC
:103E800040F20510C2F2000090F8321049000131F2
:103E900080F8341009E040F20510C2F2000090F8FA
:103EA0003410490080F83410FFE740F60000C4F2F7
:103EB00001004FF4806102F0A9FB01280BD1FFE75C
:103EC00040F20510C2F2000090F8321049000131B2
:103ED00080F8341009E040F20510C2F2000090F8BA
:103EE0003410490080F83410FFE740F60000C4F2B7
:103EF00001004FF4006102F089FB01280BD1FFE7BC
:103F000040F20510C2F2000090F832104900013171
:103F100080F8341009E040F20510C2F2000090F879
:103F20003410490080F83410FFE740F60000C4F276
:103F300001004FF4805102F069FB01280BD1FFE72B
:103F400040F20510C2F2000090F832104900013131
:103F500080F8351009E040F20510C2F2000090F838
:103F60003510490080F83510FFE740F60040C4F2F4
:103F70000100202102F04AFB01280BD1FFE740F2AB
:103F80000510C2F2000090F832104900013180F8AB
:103F9000351009E040F20510C2F2000090F835102B
:103FA000490080F83510FFE740F60040C4F20100F8
:103FB0004FF4807102F02AFB01280BD1FFE740F299
:103FC0000510C2F2000090F832104900013180F86B
:103FD000351009E040F20510C2F2000090F83510EB
:103FE000490080F83510FFE70420FDF7CDFBFFE71F
:103FF000FCF718FEFDF7E0FBFDF71AF8FCF7F2FD01
:1040000045E343F63C40C2F200000068006844F615
:104010004811C4F64701884208D0FFE743F6EB3069
:10402000C2F200004078FF2864D1FFE741F20000AF
:10403000C4F201004FF4804102F016FA40F600008D
:10404000C4F2010080210D9002F00EFA40F600400B
:10405000C4F2010001210C9002F006FA04210C9830
:1040600002F002FA4FF400410C9802F0FDF94FF40F
:1040700080610D9802F0F8F94FF480710C9802F00D
:10408000F3F943F63C40C2F200000068006844F6D1
:104090004811C4F64701884220D1FFE740F20510DD
:1040A000C2F2000044F64701C0F60D21C0F83D10F1
:1040B00044F62001C4F24971C0F83A1045F24701B4
:1040C000C4F64971C0F8361044F64141C2F24C01C1
:1040D000C0F832100F20FDF757FB0AE040F2051040
:1040E000C2F20000AC2180F832100120FDF74CFB39
:1040F000FFE7CBE243F63C40C2F20000006847F61F
:104100007D41C0F600010322FCF750F8002808D0DA
:10411000FFE743F6EB30C2F200004078002863D19D
:10412000FFE741F20000C4F201004FF4804102F0C9
:1041300093F940F60000C4F2010080210B9002F0D8
:104140008BF940F60040C4F2010001210A9002F010
:1041500083F904210A9802F07FF94FF400410A988C
:1041600002F07AF94FF480610B9802F075F94FF480
:1041700080710A9802F070F943F63C40C2F20000E8
:10418000006847F67D41C0F600010322FCF70EF8F7
:1041900000281DD1FFE740F20510C2F2000040F6F2
:1041A0000D21C18744F62041C5F24F71C0F83A1085
:1041B00045F24701C4F64971C0F8361044F6414152
:1041C000C2F24C01C0F832100E20FDF7DDFA0AE011
:1041D00040F20510C2F20000AC2180F8321001203C
:1041E000FDF7D2FAFFE750E243F63C40C2F200008E
:1041F000006847F65E41C0F600010622FBF7D6FFD5
:10420000002809D0FFE743F6EB30C2F20000407807
:10421000CC2840F0BA81FFE743F63C40C2F20000F0
:10422000006847F65E41C0F600010622FBF7BEFFBC
:10423000002840F0E180FFE747F64541C0F6000165
:104240000020FBF7C1FF43F63C41C2F200010860C9
:10425000086800F095FB43F6E031C2F20001086007
:104260000878C007002809D0FFE741F20000C4F237
:1042700001004FF4804102F0F7F808E041F200003D
:10428000C4F201004FF4804102F0E6F8FFE743F684
:10429000E030C2F2000000684008C007002808D0E3
:1042A000FFE740F60000C4F20100802102F0DCF8D4
:1042B00007E040F60000C4F20100802102F0CCF8D3
:1042C000FFE743F6E030C2F2000000688008C00754
:1042D000002808D0FFE740F60040C4F201000121A9
:1042E00002F0C2F807E040F60040C4F201000121EC
:1042F00002F0B2F8FFE743F6E030C2F200000068D7
:10430000C008C007002808D0FFE740F60040C4F20C
:104310000100042102F0A8F807E040F60040C4F2D2
:104320000100042102F098F8FFE743F6E030C2F202
:10433000000000680009C007002809D0FFE740F628
:104340000040C4F201004FF4004102F08DF808E093
:1043500040F60040C4F201004FF4004102F07CF846
:10436000FFE743F6E030C2F2000000680009C00732
:10437000002809D0FFE740F60000C4F201004FF426
:10438000806102F071F808E040F60000C4F201001C
:104390004FF4806102F060F8FFE743F6E030C2F2CC
:1043A000000000680009C007002809D0FFE740F6B8
:1043B0000040C4F201004FF4807102F055F808E0AB
:1043C00040F60040C4F201004FF4807102F044F85E
:1043D000FFE740F20510C2F20000323047F6064116
:1043E000C0F6000114220992FBF7CEFE099908904D
:1043F0000846FDF7C9F9C7E043F6EB30C2F200000A
:104400008078C007002809D0FFE741F20000C4F21D
:1044100001004FF4804102F027F808E041F200006B
:10442000C4F201004FF4804102F016F8FFE743F6B2
:10443000EB30C2F2000080784008C007002808D0A6
:10444000FFE740F60000C4F20100802102F00CF802
:1044500007E040F60000C4F20100802101F0FCFFFB
:10446000FFE743F6EB30C2F2000080788008C00717
:10447000002808D0FFE740F60040C4F20100012107
:1044800001F0F2FF07E040F60040C4F20100012114
:1044900001F0E2FFFFE743F6EB30C2F20000807864
:1044A000C008C007002808D0FFE740F60040C4F26B
:1044B0000100042101F0D8FF07E040F60040C4F2FB
:1044C0000100042101F0C8FFFFE743F6EB30C2F220
:1044D000000080780009C007002809D0FFE740F6F7
:1044E0000040C4F201004FF4004101F0BDFF08E0BC
:1044F00040F60040C4F201004FF4004101F0ACFF6F
:10450000FFE743F6EB30C2F2000080784009C007B5
:10451000002809D0FFE740F60000C4F201004FF484
:10452000806101F0A1FF08E040F60000C4F2010044
:104530004FF4806101F090FFFFE743F6EB30C2F2E9
:10454000000080788009C007002809D0FFE740F606
:104550000040C4F201004FF4807101F085FF08E0D3
:1045600040F60040C4F201004FF4807101F074FF86
:10457000FFE740F20510C2F20000AC2180F83210D3
:104580000120FDF701F9FFE77EE043F63C40C2F26F
:104590000000006847F66D41C0F600010722FBF7F6
:1045A00005FE002808D0FFE743F6EB30C2F200001A
:1045B0004078AA2867D1FFE743F63C40C2F20000EA
:1045C000006847F66D41C0F600010722FBF7EEFDDB
:1045D000002829D1FFE747F64540C0F6000000213A
:1045E00007900846079A06911146FBF7EDFD43F642
:1045F0003C41C2F2000108600868059100F0EAF948
:1046000043F63A41C2F20001088006980799FBF789
:10461000DBFD05990860086800F0DCF943F63841D5
:10462000C2F20001088016E043F6EB30C2F200004F
:104630008178C27842EA012143F63A42C2F200028E
:1046400011800179407940EA012043F63841C2F2F5
:1046500000010880FFE743F63A40C2F200000088FC
:1046600041F2883188420DDCFFE743F6E530C2F2C3
:104670000000012101701C2000F086FD322000F0B6
:10468000A1FDFFE7FFE7FFE7FFE7FFE7FFE7FFE742
:10469000E6E043F63C40C2F200000068006844F2E5
:1046A0005511C5F25241884208D0FFE743F6EB307E
:1046B000C2F200000078CA2861D1FFE747F6454101
:1046C000C0F600010020FBF77FFD43F63C41C2F23B
:1046D000000108600868008844F65451884208D0F8
:1046E000FFE743F6EB30C2F200000078CA2845D15C
:1046F000FFE740F2BD00C2F2000043F23101C0F614
:104700000D21016243F25131C3F23201C16142F223
:104710004F01C5F24D01816144F24851C4F64C414C
:1047200041611020FCF76CFC43F63C40C2F20000F3
:104730000068008844F65451884213D1FFE740F2E4
:104740000510C2F20000323047F61B41C0F60001EE
:1047500015220492FBF718FD049903900846FDF713
:1047600013F80AE040F20510C2F20000AC2180F814
:1047700032100120FDF708F8FFE7FFE76FE043F68E
:104780003C40C2F20000006847F66941C0F60001F3
:104790000322FBF70BFD002808D0FFE743F6EB30C0
:1047A000C2F200000078C52858D1FFE747F645411E
:1047B000C0F600010020FBF707FD43F63C41C2F2C2
:1047C000000108600868008844F65451884208D007
:1047D000FFE743F6EB30C2F200000078C5283CD179
:1047E000FFE740F21400C2F200005521A0F8A0102B
:1047F000032180F8A4104D21C1725021017353216F
:104800004173FBF7FFFE43F63C40C2F20000006834
:10481000008844F65451884213D1FFE740F2051056
:10482000C2F20000323047F63141C0F600011322D7
:104830000292FBF7A9FC029901900846FCF7A4FF3D
:104840000AE040F20510C2F20000AC2180F83210FC
:104850000120FCF799FFFFE7FFE7FFE7FFE7FFE72E
:10486000FFE7FFE7FFE700208DF82301FFE79DF852
:10487000230131280FDCFFE79DF8230140F20511E9
:10488000C2F2000100220A54FFE79DF82301013023
:104890008DF82301EBE71C2000F094FCFFE749B002
:1048A000BDE8F08F80B59CB0FCF7BCF9FCF784FF45
:1048B000FCF7BEFBFCF796F94FF4E13016900021AF
:1048C00017911891199140F20512C2F2000202F1FB
:1048D00032031A931B9216AB069018460591049268
:1048E000FCF798FE2020049981F832000122039001
:1048F00010460292FCF748FF069810900599119116
:104900001291139140F2BD02C2F2000202F11403AF
:104910001493159210A80192FCF7CEFA039801990E
:1049200008750298FCF76CFB05980C900D900F90A1
:1049300009900E9040F2EA01C2F20001CA1D0A92EB
:1049400005310B9109A8FCF793FB4FF4FA7007901F
:1049500005988DF821008DF8200007A8FCF7D4F801
:10496000FBF726FF42F6DF60FCF7C0FC0E20FCF7E9
:104970008DFD40F6B730FCF751FD1CB080BD000046
:1049800083B00290002001908DF80300FFE70298A9
:104990009DF80310405C00212F280A46C8BF012261
:1049A0003A28B8BF01210A4211D0FFE70198400020
:1049B000019002989DF80310405C0199084430383A
:1049C00001909DF8030001308DF80300DFE70198A6
:1049D00003B0704782B001900020ADF80200ADF83E
:1049E0000000FFE70198BDF80010405C00212F286F
:1049F0000A46C8BF01223A28B8BF01210A4217D08F
:104A0000FFE7BDF8020000EB80004000ADF80200B7
:104A10000198BDF80010405CBDF802100844303821
:104A2000ADF80200BDF800000130ADF80000D9E794
:104A3000BDF8020002B0704780B582B000900098C7
:104A40000138B0F1807F03D3FFE70120019019E026
:104A5000009801384EF21401CEF2000108604FF0C8
:104A6000FF300F2100F0C8FB4EF21800CEF200001C
:104A7000002101604EF21000CEF200000722026019
:104A80000191FFE7019802B080BD000080B543F6B8
:104A90004440C2F2000001680131016000684CF638
:104AA0006311C9F22F6148434FEAF00043F6062133
:104AB000C0F26D01884226D8FFE743F6D130C2F23A
:104AC00000000178B1FA81F14909017000780028ED
:104AD00009D0FFE740F60040C4F201004FF4007136
:104AE00001F0C2FC0EE040F60040C4F201004FF4B9
:104AF000007101F0B1FC43F64440C2F20000002115
:104B00000160FFE7FFE7FCF77BFE80BD80B582B068
:104B10004EF68850CEF20000016841F47001016049
:104B200041F20000C4F20200016841F0010101609D
:104B300041F20401C4F2020100220A6041F22C0198
:104B4000C4F202010A6001684FF6FF73CEF6F62345
:104B50001940016041F20801C4F202014FF47F03E1
:104B60000B60016821F480210160019202F09AF942
:104B70004FF00060019901F08FFE02B080BD00008F
:104B800080B542F60040C4F20100012102F0FCFDB4
:104B9000002808D0FFE742F60040C4F201000121DE
:104BA00002F0E6FDFFE780BD80B588B04FF08040A1
:104BB000012102F0E9FD002800F03D81FFE74FF000
:104BC0008040012102F0D4FD43F64240C2F20000D1
:104BD0000078002819D1FFE740F20510C2F200006A
:104BE000323047F6F331C0F6000112220792FBF78C
:104BF000CBFA079906900846FCF7C6FD43F64240FB
:104C0000C2F200000121017014E043F64240C2F2FA
:104C10000000007800280CD0FFE740F2BC00C2F290
:104C200000000078002803D1FFE7FCF79BFDFFE7B9
:104C3000FFE7FFE740F20510C2F20000007800280D
:104C40000CD0FFE740F20510C2F2000042F24371BF
:104C5000012242541C2000F097FAFFE740F2004086
:104C6000C4F202000021022201F0DAFA012826D162
:104C7000FFE740F20040C4F20200002101F0D0FB47
:104C800014281CD0FFE740F2EA00C2F20000012124
:104C9000817040F20040C4F202000022022305911C
:104CA00011461A4601F0AAFA43F60040C4F2000089
:104CB000059901F061FF1C2000F066FA0BE040F25C
:104CC000BC00C2F200000078002803D0FFE7FCF728
:104CD000B3FAFFE7FFE740F2EA00C2F20000807893
:104CE000002800F0A780FFE740F2EA00C2F20000CF
:104CF000002181704079C7283DD1FFE740F2EA00EA
:104D0000C2F200008079C72835D1FFE740F2BC002D
:104D1000C2F200000021017040F60040C4F2010020
:104D20000421202304900391039A01F0A5FB28207D
:104D300010230499029008460299039A01F09CFB03
:104D4000082304980299039A01F096FB40F60000AC
:104D5000C4F201004FF400430299039A01F08CFB66
:104D600040F20510C2F20000DC2180F83210012070
:104D7000FCF70AFD36E040F2EA00C2F2000040799A
:104D8000662815D1FFE740F2EA00C2F20000807900
:104D900066280DD1FFE743F6D830C2F20000018843
:104DA00001900846FCF7F0FC00200199088018E00B
:104DB00040F2EA00C2F20000817943F6D832C2F232
:104DC0000002138840F2051CC2F2000C0CEB4303F6
:104DD0005970407911880CF811001088013010804A
:104DE000FFE7FFE743F6E630C2F200000021017062
:104DF000FFE743F6E630C2F200000078012815DC38
:104E0000FFE743F6E630C2F20000007840F2EA0124
:104E1000C2F20001084400214171FFE743F6E63089
:104E2000C2F20000017801310170E2E71C2000F0BD
:104E3000C9F9FFE7FFE708B080BD000080B584B086
:104E400040F60040C4F20000012102F09DFC002861
:104E500000F09881FFE740F60040C4F20000012115
:104E600002F086FC43F6E530C2F20000007800282C
:104E700000F08781FFE743F64840C2F20000018856
:104E800001310180008843F63841C2F200010988EF
:104E90004FF4FA52B2FBF1F1884240F3D980FFE7B8
:104EA00043F6DC30C2F20000008843F63A41C2F219
:104EB00000010988884280F2CB80FFE743F6484032
:104EC000C2F200000021018041F20000C4F20100A2
:104ED0004FF4005101F09AFB01280ED1FFE743F691
:104EE000DC30C2F20000008842F64901C2F2000143
:104EF0000A5C520001320A540CE043F6DC30C2F284
:104F00000000008842F64901C2F200010A5C52002A
:104F10000A54FFE741F20000C4F201004FF40041DF
:104F200001F074FB01280ED1FFE743F6DC30C2F23A
:104F30000000008842F64901C2F200010A5C5200FA
:104F400001320A540CE043F6DC30C2F20000008863
:104F500042F64901C2F200010A5C52000A54FFE71E
:104F600040F60040C4F20100022101F04FFB01288D
:104F70000ED1FFE743F6DC30C2F20000008842F6B3
:104F80004901C2F200010A5C520001320A540CE0ED
:104F900043F6DC30C2F20000008842F64901C2F25A
:104FA00000010A5C52000A54FFE740F60040C4F2D8
:104FB00001004FF4805101F029FB01280ED1FFE7D9
:104FC00043F6DC30C2F20000008842F64901C2F22A
:104FD00000010A5C520001320A540CE043F6DC3056
:104FE000C2F20000008842F64901C2F200010A5CE8
:104FF00052000A54FFE740F60040C4F201002021AD
:1050000001F004FB01280ED1FFE743F6DC30C2F2C9
:105010000000008842F64901C2F200010A5C520019
:1050200001320A540CE043F6DC30C2F20000008882
:1050300042F64901C2F200010A5C52000A54FFE73D
:1050400043F6DC30C2F2000001880131018097E0B4
:1050500043F6DC30C2F20000008843F63A41C2F267
:10506000000109888842C0F28A80FFE743F6DC30FD
:10507000C2F200000021018043F6E432C2F20002D5
:105080000123137043F6E533C2F200031970117067
:10509000322203901046029100F076F802980399AC
:1050A0000880FFE743F6DC30C2F20000008843F6D8
:1050B0003A41C2F20001098888425CDAFFE743F610
:1050C000E630C2F2000000210170FFE743F6DC3059
:1050D000C2F20000008843F6E631C2F2000109780E
:1050E000084443F63A41C2F200010988002288428E
:1050F00001920BDAFFE743F6E630C2F200000078D7
:1051000000213228B8BF01210191FFE70198C007B3
:10511000002820D0FFE743F6DC30C2F20000008810
:1051200043F6E631C2F200010978084442F649012B
:10513000C2F20001095C40F20512C2F20002104402
:1051400080F83210FFE743F6E630C2F20000017843
:1051500001310170BAE743F6E630C2F20000007890
:10516000FCF712FBFFE743F6DC30C2F200000188D7
:105170003231018096E71C2000F024F8FFE7FFE7BA
:10518000FFE7FFE704B080BD81B001468DF8030062
:105190009DF90300002813D4FFE79DF9030000F0F8
:1051A0001F01012202FA01F140094EF28012CEF2F3
:1051B000000242F82010BFF34F8FBFF36F8FFFE75D
:1051C00001B0704781B001468DF803009DF90300DE
:1051D00000280FD4FFE79DF9030000F01F01012212
:1051E00002FA01F140094EF20012CEF2000242F83A
:1051F0002010FFE701B0704782B002468DF807002B
:1052000000919DF9070000280AD4FFE700980001EB
:105210009DF907104EF20042CEF2000288540BE0D6
:10522000009800019DF8071001F00F014EF614528E
:10523000CEF200028854FFE702B0704781B00090C0
:105240000098816841F008018160FFE7009880685C
:105250000007002801D5FFE7F8E70098816841F0D2
:1052600004018160FFE7009880684007002801D5AD
:10527000FFE7F8E701B0704784B00B4603908DF864
:105280000B1001929DF80B0001460128009104D0FB
:10529000FFE70098022812D023E00398C16A21F4A6
:1052A0007001C16201980021CFF6F07101EB00504E
:1052B0003FFA80F00399CA6A1043C86212E003986B
:1052C000816B21F44011816301980021CFF6F071C8
:1052D00001EB005000F4401003998A6B104388637F
:1052E00000E0FFE704B0704782B0019000910098A1
:1052F000002806D0FFE70198816841F400618160D1
:1053000005E00198816821F400618160FFE702B047
:105310007047000081B000900098816841F480716E
:10532000816001B07047000081B0009000988068F3
:10533000C007002806D1FFE70098816841F001010D
:105340008160FFE701B0704782B013468C46019040
:105350008DF803108DF802209DF80200002819D066
:10536000FFE79DF80300C007002806D0FFE701987B
:10537000816841F480118160FFE79DF80300800798
:10538000002806D5FFE70198816841F4004181605B
:10539000FFE718E09DF80300C007002806D0FFE7EC
:1053A0000198816821F480118160FFE79DF8030076
:1053B0008007002806D5FFE70198816821F40041A5
:1053C0008160FFE7FFE702B07047000084B00B4642
:1053D00003908DF80B1001929DF80B0001460128F7
:1053E000009104D0FFE7009802280BD015E0039845
:1053F000816821F460218160019803998A681043D3
:1054000088600BE00398816821F4E0418160019895
:1054100003998A681043886000E0FFE704B0704792
:1054200081B0009042F20440C4F20100016821F40E
:1054300070210160009902681143016001B070475A
:1054400080B585B094468E4604908DF80F108DF887
:105450000E2002939DF80F0005281CDCFFE704983E
:10546000406B01909DF80F0000EB80001F2101FAB6
:1054700000F0019921EA000001909DF80E009DF8CE
:105480000F1001EB810188400199084301900198B8
:105490000499486348E09DF80F000B281EDCFFE7E5
:1054A0000498006B01909DF80F0000EB80001E38FF
:1054B0001F2101FA00F0019921EA000001909DF8F6
:1054C0000E009DF80F1001EB81011E3988400199F3
:1054D0000843019001980499086324E09DF80F00A7
:1054E0000F281EDCFFE70498C06A01909DF80F00AA
:1054F00000EB80003C381F2101FA00F0019921EAFD
:10550000000001909DF80E009DF80F1001EB810145
:105510003C39884001990843019001980499C86278
:1055200000E0FFE7FFE7FFE79DF80E0009281BDC1E
:10553000FFE70498006900909DF80E0000EB400022
:10554000072101FA00F0009921EA0000009002987A
:105550009DF80E1001EB410188400099084300902E
:1055600000980499086123E09DF80E0011281DDCC5
:10557000FFE70498C06800909DF80E0000EB400023
:105580001E38072101FA00F0009921EA000000907E
:1055900002989DF80E1001EB41011E3988400099D8
:1055A0000843009000980499C86000E0FFE7FFE717
:1055B00005B080BD82B0019000910198D0F88010B4
:1055C00021F44051C0F8801000980199D1F8802052
:1055D0001043C1F8800002B07047000082B00A4654
:1055E00001908DF803109DF80300C007002806D035
:1055F000FFE70198816841F480018160FFE79DF831
:1056000003008007002806D5FFE70198816841F470
:1056100000118160FFE702B07047000083B01346BD
:10562000029001918DF803209DF80300002825D0F9
:10563000FFE79DF80500C007002806D0FFE70298A5
:10564000416841F480714160FFE79DF80500400723
:10565000002806D5FFE70298416841F48061416067
:10566000FFE79DF804008007002806D5FFE70298B1
:10567000816841F002018160FFE724E09DF80500A8
:10568000C007002806D0FFE70298416821F4807126
:105690004160FFE79DF805004007002806D5FFE7B9
:1056A0000298416821F480614160FFE79DF80400A1
:1056B0008007002806D5FFE70298816821F00201E3
:1056C0008160FFE7FFE703B07047000080B584B05A
:1056D0000390039846F20041C4F20001884209D1C8
:1056E000FFE740F21940029001F02EFA029801F013
:1056F00013FA08E040F21A40019001F025FA0198EF
:1057000001F00AFAFFE704B080BD000082B001900A
:105710000020009001984089012101FA00F00090DA
:1057200046F20060C4F20000016841F0010101602E
:10573000009846F21C61C4F200010A6822EA0000E7
:1057400008600198C089002822D1FFE7009846F23E
:105750000C61C4F200010A6822EA000008600198A6
:10576000C188428842EA0141408946F24062C4F25F
:10577000000242F8301001988188028842EA014113
:10578000408946F24462C4F2000242F83010FFE75A
:105790000198C089012821D1FFE7009846F20C61E9
:1057A000C4F200010A681043086001980188428829
:1057B00042EA0141408946F24062C4F2000242F8E6
:1057C000301001988188C28842EA0141408946F23E
:1057D0004462C4F2000242F83010FFE70198808969
:1057E00000280AD1FFE7009846F20461C4F20001E4
:1057F0000A6822EA0000086008E0009846F20461A6
:10580000C4F200010A6810430860FFE701980089AC
:1058100000280AD1FFE7009846F21461C4F20001A3
:105820000A6822EA0000086008E0009846F2146165
:10583000C4F200010A6810430860FFE70198007C89
:10584000012809D1FFE7009846F21C61C4F200016B
:105850000A6810430860FFE746F20060C4F20000E7
:10586000016821F00101016002B0704782B00A4670
:105870000190ADF80210BDF8020000F01F010123F5
:1058800003FA01F1019B800953F800C041EA0C01C1
:10589000195002B07047000083B00A460190ADF87D
:1058A00002100198BDF8021089094058BDF8021095
:1058B00001F01F01C840C007002804D0FFE7012005
:1058C0008DF80B0003E000208DF80B00FFE79DF83A
:1058D0000B0003B07047000080B586B005900491BE
:1058E00001208DF80F00049844F24021C0F20F010E
:1058F000884229D8FFE70598012100F069FA0128BC
:1059000012D1FFE70598C0690290029800F040406C
:105910000290029804990190084600F081FB0199D9
:1059200008430599C86103E000208DF80F00FFE7E8
:105930000598022100F04CFA012804D0FFE700206E
:105940008DF80F00FFE703E000208DF80F00FFE760
:105950009DF80F0006B080BD80B586B0059004911B
:105960004FF6FF70039000208DF80B00059801683A
:1059700021F0020101600598016841F00101016018
:10598000FFE7059840680021C0070028019106D173
:10599000FFE70398002818BF01200190FFE7019856
:1059A000C007002804D0FFE7039801380390E8E718
:1059B00005984068C007002804D1FFE700208DF853
:1059C0000B00B4E0049801784278837890F803C023
:1059D0004FF0F85E0EEA026242EA81711A0442EA6E
:1059E000831241F60043C0F20F031A4011444FEAFC
:1059F0000C5242EA8C2246F20003C0F270031A40B5
:105A00001144408901386FF39F2008440599C8610B
:105A100004980079012806D1FFE70598016841F054
:105A20008001016005E00598016821F080010160B6
:105A3000FFE704984079012806D1FFE7059801683F
:105A400041F04001016005E00598016821F0400146
:105A50000160FFE704988079012806D1FFE70598E7
:105A6000016841F02001016005E00598016821F01E
:105A700020010160FFE70498C079012806D1FFE703
:105A80000598016821F01001016005E005980168A2
:105A900041F010010160FFE70498007A012806D167
:105AA000FFE70598016841F00801016005E00598ED
:105AB000016821F008010160FFE70498407A01289D
:105AC00006D1FFE70598016841F00401016005E097
:105AD0000598016821F004010160FFE7059801685D
