:020000040800F2
:1000000050400020650100086D0100086F010008E4
:10001000710100087301000875010008000000006C
:100020000000000000000000000000007701000850
:1000300079010008000000007B0100088D4A0008DB
:100040007F0100087F0100087F0100087F01000890
:100050007F0100087F0100087F0100087F01000880
:100060007F0100087F0100087F0100087F01000870
:100070007F0100087F0100087F0100087F01000860
:100080007F0100087F0100087F0100087F01000850
:100090007F0100087F0100087F0100087F01000840
:1000A0007F010008814B00087F0100087F010008E4
:1000B000A94B00087F0100087F0100087F010008AC
:1000C0007F0100087F0100087F0100087F01000810
:1000D0007F0100087F0100087F0100087F01000800
:1000E0007F0100087F0100087F0100087F010008F0
:1000F0007F0100087F0100087F0100080000000068
:100100007F01000800000000414E00087F01000848
:100110007F0100087F0100087F0100087F010008BF
:100120007F0100087F0100087F0100087F010008AF
:100130007F01000800000000000000007F010008AF
:100140007F0100087F0100087F0100087F0100088F
:10015000DFF80CD000F028FA004800473D6700089F
:10016000504000200648804706480047FEE7FEE76B
:10017000FEE7FEE7FEE7FEE7FEE7FEE7FEE7FEE757
:100180000D4B00085101000840EA01039B0703D012
:1001900009E008C9121F08C0042AFAD203E011F8C6
:1001A000013B00F8013B521EF9D2704730B50446BE
:1001B0000020034600E05B1C934203D2E05CCD5C70
:1001C000401BF8D030BD000070B50F4D00B9286855
:1001D000002412E00A4602E09E4203D0521C13782B
:1001E000002BF9D1DAB2224305D02BB124B1002182
:1001F00000F8011B04E00446401C0678002EE9D1FB
:100200002860204670BD0000000000202DE9FE4F50
:10021000804681EA0300C00F0C46009021F00041A7
:1002200023F00045B8EB0200A94105D24046214623
:1002300090461C460B46024623F00040104347D030
:10024000270DC7F30A00C3F30A510290401A019028
:1002500040286BDAC3F3130040F4801B00989246E9
:1002600020B10023D2EB030A63EB0B0B0198594634
:10027000C0F14002504600F009F906460D465046CE
:100280005946019A00F021F910EB08006141002461
:1002900087EA115284EAE7731A4340D0009A62B3A6
:1002A000019A012A4FEA075215DC001B61EB02019B
:1002B0004FF0004202EA0752CDE90042001C41F52E
:1002C000801132462B4600F021F903B0BDE8F08FD3
:1002D00040462146F9E7001B61EB0201001C41F595
:1002E000801300185B412018A2F5001747EB0301AB
:1002F00040EAD570B6196D4111E06D084FEA360637
:1003000045EAC0754FEA0752001B61EB0201001C71
:1003100041F5801149084FEA300000195141324639
:100320002B4603B0BDE8F04F00F0E1B80098012281
:1003300040000023D0EB020263EBE07300982146FB
:100340004FEAE074B8EB000061EB0401E9E783F0E9
:1003500000435BE781F0004158E72DE9F04D81EA69
:10036000030404F0004B21F0004514464FF0000A4E
:1003700023F0004150EA050220D054EA01021DD0CA
:10038000C5F30A570246C5F31303C1F31300C1F3C3
:100390000A5640F4801543F48013A7EB0608101B9F
:1003A000D64608F2FD3873EB050002D308F10108C8
:1003B00001E092185B41B8F1000F03DA002001461A
:1003C000BDE8F08D00204FF48011064684460EE013
:1003D000171B73EB050705D3121B63EB05030643DD
:1003E0004CEA010C49084FEA300092185B4150EA90
:1003F0000107EDD152EA030012D082EA040083EA39
:100400000501084305D0101BAB4106D20122002391
:1004100006E000224FF0004302E06FF001025310AB
:100420001AEB06004CEB085110EB0A0041EB0B01F4
:10043000BDE8F04D00F05BB80EB5C10F80EAE0708A
:100440000844CA07002140F233438DE80E000A46F3
:100450000B4600F05BF803B000BDC1F30A5210B5C3
:10046000C1F3130140F2FF3341F480119A4201DAE3
:10047000002010BD40F233439A42A2F2334203DC23
:10048000524200F012F810BD904010BD202A04DB4B
:10049000203A00FA02F1002070479140C2F1200397
:1004A00020FA03F3194390407047202A04DB203AD6
:1004B00021FA02F00021704721FA02F3D040C2F184
:1004C00020029140084319467047202A06DBCB17CB
:1004D000203A41FA02F043EAE07306E041FA02F3FF
:1004E000D040C2F12002914008431946704710B530
:1004F000141E73F1000408DA401C41F10001921847
:100500005B411A4301D120F0010010BD2DE9F04DEF
:1005100092469B4611B1B1FA81F202E0B0FA80F244
:1005200020329046FFF7B2FF04460F4640EA0A0029
:1005300041EA0B0153465A46084313D0114653EA89
:10054000010019D0C8F140025046FFF7AEFF054642
:100550000E46504659464246FFF798FF084305D0DD
:10056000012004E020463946BDE8F08D0020054317
:1005700046EAE0762C4337430A986305E40AA0EB89
:1005800008000022FD0A44EA47540A3002D5002040
:100590000146E9E7010510196941DDE9084500193F
:1005A0006941BDE8F04DA2E7064C074D06E0E06862
:1005B00040F0010394E8070098471034AC42F6D3AA
:1005C000FFF7CAFD407D0008607D000880B542F25B
:1005D0000040C4F20100012105F002F8FFE700200D
:1005E000C4F202000021022205F01CFE002801D105
:1005F000FFE7F4E70020C4F202000021022205F028
:10060000FFFD80BD80B582B001900198B0F8A010C8
:1006100001600198002141600198017201984172C6
:10062000019890F8A4108172019946F20040C4F23A
:10063000000005F083FA43F6EA31C2F200010870C7
:10064000087801460028009108D0FFE700980128AB
:100650000CD0FFE70098022810D017E043F6D43002
:10066000C2F200004FF40071016017E043F6D4308D
:10067000C2F200004FF4027101600FE043F6D43083
:10068000C2F200004FF40471016007E043F6D43079
:10069000C2F200004FF400710160FFE7FFE743F68C
:1006A000D430C2F20000018846F20040C4F20000DB
:1006B00005F0F4F8012801D1FFE7F0E743F6D43064
:1006C000C2F20000018846F20040C4F2000005F0CA
:1006D000CFF802B080BD000070B582B013468C46E2
:1006E00001908DF80310ADF80020BDF8000044F62D
:1006F000D351C1F26201A0FB0101890946F2676290
:10070000C6F2666251FB02FE4FEA9E0404EBDE7EF7
:100710000EEB8E0EA1EB4E013031DDF804E09DF8BA
:1007200003400EF80410BDF8001048F21F5EC5F239
:10073000EB1EA1FB0E1E4FEA5E1E5EFB02F4A50837
:1007400005EBD47404EB8404AEEB440E0EF1300ED2
:10075000019C9DF803502C4484F801E0BDF800E0B2
:100760004CF6CD44CCF6CC44AEFB04E5ED0855FB8D
:1007700002F2960806EBD27202EB8202A5EB42026D
:100780003032019D9DF803603544AA70BDF8002009
:10079000A2FB0445ED0805EB8505A2EB450242F0FE
:1007A0003002019D9DF803603544EA7002B070BDCF
:1007B00080B590B000208DF83E0040F20801C2F2F2
:1007C00000010B9101218DF83D104FF400620C9255
:1007D00042F24C42C4F2010209928DF83C004FF4FF
:1007E00000720A9203220D924FF440530E9300239D
:1007F000C4F202030DF1240C08901846DDF820E045
:100800000791714606926246059305F027FD05980B
:10081000089905F0D7FC0598089905F097FC4FF466
:10082000C02004F0FFFD42F20040C4F201004FF48A
:10083000807104900391079A04F0F2FE022004995B
:10084000029008460299089A04F0EAFE0498089972
:1008500004F04CFD0498089904F0AEFE0498079942
:10086000069A04F00BFD42F60000C4F2010001906C
:100870000399079A04F0D4FE01980299089A04F0AB
:10088000CFFE0198089904F031FD0198089904F011
:1008900093FE01980799069A04F0F0FC4FF460204B
:1008A0000499009008460799009A04F091FD049875
:1008B0000799079A04F04AFD01980799009A04F0F5
:1008C00087FD01980799079A04F040FD049808995C
:1008D000089A089B04F0B6FD04980799029A089BB1
:1008E00004F0B0FD052204980299089B04F0AAFDCB
:1008F00001980899079A089B04F0A4FD01980799AC
:10090000069A089B04F09EFD062201980299089B16
:1009100004F098FD049804F009FD049804F090FC9C
:10092000019804F003FD019804F08AFC049804F097
:10093000F3FC47F20040C4F20000016841F00101FD
:10094000016008980899089A05F0F8FA089805F0E7
:100950004FFB10B080BD000080B58EB041F20000AA
:10096000C4F2010004214FF400520D900C910C9B35
:100970000B921A460B9B05F081FD4FF400400D9938
:100980000A9008460C990C9A0A9B05F077FD40F6F0
:100990000040C4F20100022109900C9A089111460E
:1009A000089B05F06BFD4FF48050099907900846AD
:1009B0000C990C9A079B05F061FD2020099906907F
:1009C00008460C990C9A069B05F058FD4FF48040A0
:1009D0000D99059008460C990C9A059B05F04EFD63
:1009E00040F60000C4F20100802304900C990C9A98
:1009F00005F044FD01200999039008460C990C9AD2
:100A0000039B05F03BFD09980C990C9A0C9B05F093
:100A100035FD09980C990C9A0A9B05F02FFD4FF4AF
:100A200080600499029008460C990C9A029B05F08C
:100A300025FD4FF480700999019008460C990C9A95
:100A4000019B05F01BFD4FF4007304980C990C9A60
:100A500005F014FD04980C990C9A019B05F00EFD0D
:100A600009980C990C9A059B05F008FD09980C99BA
:100A70000C9A0B9B05F002FD04980C990C9A039BB1
:100A800005F0FCFC04980C990C9A089B05F0F6FC08
:100A900004980C990C9A0C9B05F0F0FC0823049820
:100AA0000C990C9A05F0EAFC04980C990C9A069B98
:100AB00005F0E4FC402304980C990C9A05F0DEFC48
:100AC000102304980C990C9A05F0D8FC09980C99FD
:100AD0000C9A029B05F0D2FC4FF40060099900903B
:100AE00008460C990C9A009B05F0C8FC04980C99D8
:100AF0000C9A079B05F0C2FC04980C990C9A009B79
:100B000005F0BCFC0EB080BD80B58CB00B9040F2FF
:100B1000197005F0EBFF46F20040C4F200000190AE
:100B200004F0D6FD00208DF821008DF823008DF80B
:100B300022008DF824008DF81D0004218DF81E1070
:100B400002218DF81F108DF820008DF825000B98DC
:100B500000798DF81C0007A9019804F0FFFE0B999D
:100B60000968FA2900910AD0FFE70098B0F5FA7FEA
:100B700005D0FFE70098B0F57A7F0CD1FFE70B981E
:100B800000684FF47A71414346F20040C4F200001D
:100B900004F0A4FE0AE046F20040C4F200004EF663
:100BA0004801C0F2010104F099FEFFE70020ADF812
:100BB0001200ADF814000121ADF81610ADF80800D0
:100BC000ADF80A00ADF80C00ADF80E000B984079B6
:100BD000ADF810008DF8181002A804F099FD0CB0C3
:100BE00080BD000080B582B04FF4C06005F07EFF8C
:100BF00040F2026005F07AFF40F60000C4F2010006
:100C0000482103224FF400630190009205F036FC66
:100C100018214FF480530198009A05F02FFC02B080
:100C200080BD000080B592B040F2026005F05EFF2A
:100C300040F2036005F05AFF40F2046005F056FFF1
:100C400040F2096005F052FF40F20A6005F04EFFE5
:100C50004FF4A06005F04AFF40F21D7005F046FF1A
:100C60004FF4C06005F042FF40F60040C4F20100BE
:100C7000102104224FF40073119010910F920E93E3
:100C800005F0FCFB40F60000C4F2010028214FF4FF
:100C900000520D900C910F9B0B921A460B9B05F086
:100CA000EDFB4FF480400D990A9008460C990F9A7D
:100CB0000A9B05F0E3FB4FF400400D9909900846AC
:100CC0000C990F9A099B05F0D9FB082011990890FF
:100CD00008460C990F9A089B05F0D0FB11980C99C7
:100CE0000F9A109B05F0CAFB41F20000C4F201000C
:100CF00007900F990F9A0B9B05F0C0FB07980F996F
:100D00000F9A099B05F0BAFB02201199069008463C
:100D10000F990F9A069B05F0B1FB4FF48053119881
:100D20000F990F9A05F0AAFB20201199059008460B
:100D30000F990F9A059B05F0A1FB079810990F9A40
:100D40000A9B05F09BFB80230D9810990F9A05F0E4
:100D500095FB012011990490084610990F9A049B65
:100D600005F08CFB119810990F9A0F9B05F086FBEC
:100D7000119810990F9A099B05F080FB4FF480633E
:100D80000D9810990F9A05F079FB4FF48070119926
:100D90000390084610990F9A039B05F06FFB1820EB
:100DA0000D990290084602990F9A0E9B05F066FB7A
:100DB0000D9802990F9A039B05F060FB1198029918
:100DC0000F9A0A9B05F05AFB119802990F9A0B9BF8
:100DD00005F054FB00200D990190084601990F9AE7
:100DE000049B05F04BFB0D9801990F9A069B05F0AB
:100DF00045FB0D9801990F9A0F9B05F03FFB0D984D
:100E000001990F9A089B05F039FB0D9801990F9AEB
:100E1000059B05F033FB40230D9801990F9A05F0CF
:100E20002DFB03220D980199109B05F027FB12B0B2
:100E300080BD000080B586B001468DF81700002007
:100E4000C4F202000122022304900391114602928F
:100E50001A4605F0D5F90498029905F059F99DF85C
:100E600017200498029905F0BFFA44F60000C4F276
:100E70000000802106F0B0FD0498029905F066F9A3
:100E8000FFE744F60000C4F20000062106F0DAFD98
:100E9000002802D1FFE700BFF3E744F60000C4F2E8
:100EA00000000621019006F0B7FD0021019806F030
:100EB00093FD06B080BD000010B590B00F904FF4C8
:100EC000A06005F013FE40F2127005F00FFE40F234
:100ED000065005F00BFE00208DF83A000F99496985
:100EE0000A9101218DF839100B9044F60402C4F2E6
:100EF000000208928DF8380009900C904FF440538E
:100F00000D9340F2000CC4F2020C4FF0020E08AC3C
:100F10000790604606917146059222460493CDF8EB
:100F20000CC0CDF808E0019405F098F903980299F7
:100F300005F048F90398029905F008F906988DF82C
:100F40003A000F9909690A918DF8390007990B91B8
:100F5000059A08928DF8381009910C91049B0D9315
:100F600003980699019A05F079F90398069905F016
:100F70000BF90398069905F0E9F844F60000C4F26D
:100F80000000009006F0B6FC0F980168009806F08B
:100F900033FC0F984168009806F0A0FD0F98C168D7
:100FA000009806F007FE0F988168009806F0DCFDB7
:100FB0000098079906F086FC0098079906F078FDDE
:100FC0000098079906F05EFD009806F0ADFD32210D
:100FD000009806F0B5FD4021009806F0E7FC80215E
:100FE000009806F0F9FC0821009806F0CDFD0421D8
:100FF000009806F083FD009806F004FD10B010BDC7
:1010000080B582B001468DF80700FFE744F6000086
:10101000C4F2000042F2102106F014FD002801D0B5
:10102000FFE7F3E79DF80700FFF704FF02B080BD7C
:1010300080B582B04FF4C06005F058FD40F2036007
:1010400005F054FD40F60040C4F2010018210322CF
:101050004FF480630190009205F010FA04214FF4E0
:1010600000630198009A05F009FA02B080BD000003
:1010700010B598B0179040F2015005F037FD40F2DE
:101080000F7005F033FD00208DF85A00179989681C
:10109000129101218DF85910139043F60C42C4F2BD
:1010A000000210928DF85800119014904FF44053A4
:1010B000159340F2004CC4F2020C0DF1400E089062
:1010C0006046089C07912146069272460593CDF82A
:1010D00010C0CDF80CE005F0C1F80498089905F0AF
:1010E00071F80498089905F031F807988DF85A00BE
:1010F0001799496812918DF8590008991391069A29
:1011000010928DF8581011911491059B1593049825
:101110000799039A05F0A2F843F60040C4F20000D4
:10112000029005F065FD09A8019005F0FFFD1798F4
:10113000C068099008980A90179909680B910C905B
:10114000179989690D91179949690E91179909693C
:101150000F910298019905F09BFD029805F0DCFDC6
:10116000029805F0CFFD029805F038FD18B010BDCB
:1011700080B584B001468DF80F0040F20040C4F203
:1011800002000022029001911146009204F0C0FF7B
:101190009DF80F200298009905F026F943F60040CB
:1011A000C4F20000012105F001FD0298009904F04D
:1011B000CDFF04B080BD000080B584B001468DF83D
:1011C0000F0040F20040C4F202000122029001919F
:1011D0001146009204F09CFF9DF80F2002980099A0
:1011E00005F002F943F60040C4F20000002105F0CA
:1011F000DDFC0298009904F0A9FFFFE740F20040EF
:10120000C4F202000121022205F00CF8002801D1ED
:10121000FFE7F3E740F20040C4F20200012102229E
:1012200004F0EEFF43F60040C4F20000002105F098
:10123000A5FC04B080BD000080B50220FFF798FF38
:1012400080BD000080B582B001468DF80700FFE741
:1012500043F60040C4F20000022105F003FD00281F
:1012600001D1FFE7F4E79DF80700FFF7A5FF02B003
:1012700080BD000080B584B04FF4C06005F036FC3E
:1012800040F2036005F032FC40F2026005F02EFCF3
:1012900040F60040C4F201001821032210230390FD
:1012A000029205F0EBF804202023039901900846F0
:1012B0000199029A05F0E2F8082303980199029A2D
:1012C00005F0DCF840F60000C4F201004FF40043E2
:1012D0000199029A05F0D2F840F20020C0F23000E5
:1012E000012105F0ABF904B080BD000080B592B0DB
:1012F000119011981090119840080F9040F20B60D7
:1013000005F0F4FB42F60040C4F20100039006F041
:1013100091F810980D900020ADF82C00ADF8380031
:10132000ADF82E00ADF83000FF218DF83A100BA972
:10133000039A0290104606F07DF90120ADF82000D6
:101340000421ADF822100299ADF82410ADF8261052
:10135000ADF82810ADF82A1008AA039B0190184692
:10136000009205F005FE03980199009A05F000FE31
:1013700003980299029A06F019F803980299029AC2
:1013800005F0B6FD03980199029A06F00FF803984C
:101390000199029A05F0ACFD0F9A0398029905F0A5
:1013A00099FF60220398029905F04CFF0398029977
:1013B000029A05F0B3FF0F9A0398019905F08AFF8E
:1013C00070220398019905F03DFF03980199029A54
:1013D00005F0A4FF1520ADF814000298ADF8160032
:1013E000ADF81000ADF812004FF48041ADF81810C0
:1013F000ADF81A00ADF81C0004A9039805F062FDD1
:1014000019200221029A05F0BBF90398019906F010
:10141000A7F9039806F004F912B080BD80B58AB030
:101420000990099808904FF4E06005F05FFB4FF0D9
:101430008040039005F0FEFF089806900020ADF86C
:101440001000ADF81C00ADF81200ADF814008DF8D6
:101450001E0004A9039A0290104606F0EBF81C2027
:1014600001210191029A05F08BF90398019906F088
:1014700077F90398019906F0A7F9039805F018FD8C
:10148000039806F0CDF80AB080BD000080B590B09A
:101490000F900F980E900F9840080D9040F2037037
:1014A00005F024FB40F60040C4F20000019005F076
:1014B000C1FF0E980B900020ADF82400ADF830006D
:1014C000ADF82600ADF82800FF208DF8320009A9FC
:1014D000019806F0AFF80121019806F041F9322099
:1014E00003F054FE019806F09BF810B080BD000098
:1014F00080B586B001468DF817000020C4F20200C6
:101500000422049003911146029204F001FE9DF81A
:1015100017200498029904F067FF43F60000C4F214
:101520000100402106F042FA0498029904F00EFEF0
:10153000FFE70020C4F202000421022204F072FE40
:101540000021002801910DD1FFE743F60000C4F20D
:10155000010042F20B2106F075FAB0FA80F0400962
:101560000190FFE70198C007002802D0FFE700BF05
:10157000DFE743F60000C4F2010042F20B210090C5
:1015800006F04AFA0021009806F010FA06B080BD75
:1015900080B586B00146ADF816000020C4F2020006
:1015A0000322022304900391114602921A4604F08A
:1015B00027FE0498029904F0ABFDBDF816200498AC
:1015C000029904F011FF43F60000C4F201008021EB
:1015D00006F002FA0498029904F0B8FDFFE743F61A
:1015E0000000C4F20100062106F02CFA002802D106
:1015F000FFE700BFF3E743F60000C4F20100062155
:10160000019006F009FA0021019806F0E5F906B00C
:1016100080BD000010B592B011904FF4A06005F0AD
:1016200065FA40F20E6005F061FA40F2065005F0EE
:101630005DFA00208DF84200119949690C91012151
:101640008DF841100D9043F60402C4F201020A9293
:101650008DF840000B900E904FF440530F9340F2E2
:10166000000CC4F2020C4FF0040E0AAC0990604664
:1016700008917146079222460693CDF814C0CDF822
:1016800010E0039404F0EAFD0598049904F09AFD33
:101690000598049904F05AFD08988DF842001199B4
:1016A00009690C918DF8410009990D91079A0A92E8
:1016B0008DF840100B910E91069B0F934FF0030C89
:1016C00005986146039ACDF808C004F0C7FD059857
:1016D000029904F059FD0598029904F037FD43F68C
:1016E0000000C4F20100019006F004F911980168AD
:1016F000019806F081F811984168019806F0EEF91A
:101700001198C168019806F055FA119881680198FE
:1017100006F02AFA0198099906F0D4F80198099977
:1017200006F0C6F90198099906F0ACF91421019860
:1017300006F006FA019806F0F7F94021019806F044
:1017400035F98021019806F047F90821019806F043
:101750001BFA0198049906F0D1F9019806F052F9A4
:1017600012B010BD80B5FFE743F60000C4F20100DF
:1017700042F2102106F066F9002801D0FFE7F3E7F6
:101780003220FFF7B5FE80BD80B582B00146ADF8CE
:101790000600FFE743F60000C4F2010042F2102108
:1017A00006F050F9002801D0FFE7F3E7BDF8060086
:1017B000FFF7EEFE02B080BD80B582B04FF4C0608E
:1017C00005F094F940F2036005F090F90420C4F2AA
:1017D0000100016841F00401016040F60040C4F2DC
:1017E00001001821032240230190009204F046FEDC
:1017F000042180230198009A04F040FE02B080BDCD
:101800002DE9F04FC9B000208DF823018DF8220199
:10181000ADF8200140F20510C2F2000042F243711F
:10182000405C002803F03B80FFE740F20510C2F265
:10183000000042F24371002242541C2147900846A6
:1018400003F0A4FC43F6EB30C2F2000032224690D3
:101850004799FEF799FC47F64941C0F60001469AC0
:1018600045901046FEF7B0FC43F63C41C2F2000141
:101870000860086847F66941C0F600010322FEF7D8
:1018800095FC002809D0FFE743F6EB30C2F20000D8
:101890000078102840F0AD82FFE747F64941C0F6D6
:1018A00000010020FEF790FC43F63C41C2F200012B
:1018B00008600868008844F64F61884208D0FFE756
:1018C00043F6EB30C2F20000407805284ED1FFE726
:1018D00042F60040C4F201000021012244904391ED
:1018E000429205F063FD04204499419008464399D3
:1018F000419A05F0FDFA44984299429A05F056FD46
:1019000044984299419A05F0F3FA43F63C40C2F2FA
:1019100000000068008844F64F6188421AD1FFE752
:1019200040F20510C2F2000045F25241C0F60D210E
:10193000C0F8391045F25341C5F24121C0F83610C4
:1019400045F25071C2F24D01C0F832100B20FFF782
:101950001BFF0AE040F20510C2F20000AC2180F843
:1019600032100120FFF710FFFFE740E243F63C4052
:10197000C2F20000006847F65641C0F6000103229B
:10198000FEF714FC002808D0FFE743F6EB30C2F264
:10199000000040780A284ED1FFE742F60040C4F22A
:1019A0000100002140903F913F9A05F0FFFC4098D4
:1019B0003F993F9A05F09CFA012040993E900846D5
:1019C0003E993F9A05F0F2FC40983E993F9A05F007
:1019D0008FFA43F63C40C2F20000006847F65641D9
:1019E000C0F600010322FEF7E1FB002817D1FFE754
:1019F00040F20510C2F2000040F60D21418745F289
:101A00005341C5F24F01C0F8361045F25071C2F291
:101A10004D01C0F832100A20FFF7B6FE0AE040F28E
:101A20000510C2F20000AC2180F832100120FFF74F
:101A3000ABFEFFE7DAE143F63C40C2F2000000688B
:101A4000006845F24621C5F24511884209D0FFE7FA
:101A500043F6EB30C2F200004078FC2840F087806B
:101A6000FFE743F63C40C2F200000068006845F220
:101A70004621C5F2451188424AD1FFE747F6494160
:101A8000C0F600010020FEF79FFB43F63C41C2F286
:101A900000010860086802F09DFFFEF7CDFC41ECF4
:101AA000100B9FEDEB1B51EC110B53EC102BFEF7C1
:101AB00054FC41EC100B51EC100B9FEDE70B53EC79
:101AC000102BFEF7A3FB41EC100B51EC100BFEF7B3
:101AD000C4FCFFF70BFC40F20510C2F2000040F618
:101AE0000D21C18745F24141C4F24541C0F83A1089
:101AF00045F22051C4F25041C0F8361045F246215B
:101B0000C5F24511C0F832100E20FFF73DFE2DE062
:101B100043F6EB30C2F200008078FEF78DFC41EC1A
:101B2000100B9FEDCB1B51EC110B53EC102BFEF760
:101B300014FC41EC100B51EC100B9FEDC70B53EC58
:101B4000102BFEF763FB41EC100B51EC100BFEF772
:101B500084FCFFF7CBFB40F20510C2F20000AC2181
:101B600080F832100120FFF70FFEFFE73DE143F65A
:101B70003C40C2F200000068008845F244418842BF
:101B800008D0FFE743F6EB30C2F200004078D128DE
:101B90005FD1FFE743F63C40C2F2000000680088D6
:101BA00045F24441884238D1FFE747F64941C0F643
:101BB00000010020FEF708FB43F63C41C2F20001A1
:101BC000086042F64440C4F20100026822F0FF02BD
:101BD000026009683D90084602F0FCFEC0B23D99E3
:101BE0000A681043086040F20510C2F2000044F297
:101BF0004542C0F60D22C0F83A2044F25042C5F2E8
:101C00004142C0F8362045F24442C5F22052C0F8A5
:101C100032200C20FFF7B8FD1AE042F64440C4F22F
:101C20000100016821F0FF01016043F6EB31C2F2CF
:101C30000001897802681143016040F20510C2F288
:101C40000000AC2180F832100120FFF79DFDFFE776
:101C5000CAE043F63C40C2F200000068008844F24B
:101C60004431884209D0FFE743F6EB30C2F200006E
:101C70004078DC2840F0B780FFE743F63C40C2F2F2
:101C800000000068008844F2443188426BD1FFE7CD
:101C900047F64941C0F600010020FEF795FA43F6E9
:101CA0003C41C2F20001086042F62C40C4F201003F
:101CB00090ED000AB8EE400A0A683C9010463B914D
:101CC0008DED3A0A02F086FE00EE100AB8EEC00A68
:101CD0009FED631A80EE010A9DED3A2A22EE000A7A
:101CE000BCEEC00A42F63440C4F2010080ED000AA6
:101CF0003C9890ED000AB8EE400A3B9908688DEDDB
:101D0000391A8DED380A02F065FE00EE100AB8EEC1
:101D1000C00A9DED391A80EE010A9DED382A22EEA7
:101D2000000ABCEEC00A42F63840C4F2010080ED61
:101D3000000A40F20510C2F2000044F24541C0F62C
:101D40000D21C0F83A1044F25041C5F24141C0F8AB
:101D5000361044F24431C5F22051C0F832100C2044
:101D6000FFF712FD3EE042F62C40C4F2010090ED78
:101D7000000AB8EE400A43F6EB31C2F200018A785D
:101D800001EE102AB8EEC11A9FED352A81EE021A33
:101D900020EE010ABCEEC00A42F63442C4F201024F
:101DA00082ED000A90ED000AB8EE400A887801EE54
:101DB000100AB8EEC11A81EE021A20EE010ABCEE3A
:101DC000C00A42F63840C4F2010080ED000A40F239
:101DD0000510C2F20000AC2180F832100120FFF79C
:101DE000D3FCFFE7FFE7FFE7FFE7FFE7FFE702F0CE
:101DF0003ABD43F63C40C2F20000006847F652414B
:101E0000C0F600010322FEF7D1F9002809D0FFE750
:101E100043F6EB30C2F200000078AD2840F0578363
:101E2000FFE747F64941C0F600010020FEF7CCF974
:101E300043F63C41C2F2000108600868006844F2C1
:101E40005251C4F24141884215D00BE000BF00BF9F
:101E500000000000004CFD40000000000000F0BF4A
:101E60000000C84243F6EB30C2F200004078FD2883
:101E700040F0A181FFE700208DF82301FFE79DF8E6
:101E8000230109282ADCFFE7FEF7A0FB00208DF8DC
:101E90002201FFE79DF82201052818DCFFE79DF8E5
:101EA000220140F20801C2F2000131F8101043F69D
:101EB0002042C2F2000252F82030194442F82010A9
:101EC000FFE79DF8220101308DF82201E2E7FFE7EC
:101ED0009DF8230101308DF82301D0E743F63C4003
:101EE000C2F200000068006844F25251C4F241415D
:101EF000884240F0C380FFE740F20510C2F20000C4
:101F000044F24921C5F2553140F8321F42F23A01FC
:101F1000818043F62042C2F2000213684CF6CD4C99
:101F2000CCF6CC4CA3FB0C3ECEF3CF0E0624379060
:101F30003691214635927246CDF8D0C03393329413
:101F4000FEF7CAFB0D20379988720A22CA720C2349
:101F50003190184630922F93FFF716FC3698379938
:101F6000888044F25612C4F643420A60359A536898
:101F7000DDF8D0C0A3FB0C3ECEF3CF020846329969
:101F80002E93FEF7A9FB319837998872309ACA725E
:101F90002F98FFF7F9FB44F64940C2F23A0037990F
:101FA000086035988268349BA2FB032CCCF3CF0CDD
:101FB000042137982D926246FEF78EFB31983799AF
:101FC0000872309A4A721046FFF7DEFB369837994E
:101FD000888044F25452C5F24D020A60359AD368A3
:101FE000DDF8D0C0A3FB0C3ECEF3CF0208463299F9
:101FF0002C93FEF771FB319837998872309ACA7228
:102000002F98FFF7C1FB36983799888044F2561213
:10201000C4F643520A60359A1369DDF8D0C0A3FBB9
:102020000C3ECEF3CF02084632992B93FEF754FBB9
:10203000319837998872309ACA722F98FFF7A4FBAB
:1020400036983799888044F25622C5F255320A6094
:10205000359A5369DDF8D0C0A3FB0C3ECEF3CF0216
:10206000084632992A93FEF737FB319837998872E0
:10207000309ACA722F98FFF787FB82E043F6204020
:10208000C2F2000001684CF6CD42CCF6CC42A1FB76
:102090000213DB0A40F2051CC2F2000C8CF832304D
:1020A0000368A3FB023E4FEADE0E8CF833E04FF0EC
:1020B000200E8CF834E04468A4FB0245ED0A8CF84D
:1020C00035504568A5FB0256F6088CF836608CF84A
:1020D00037E08668A6FB0267FF0A8CF838708768CD
:1020E000A7FB02784FEAD8088CF839808CF83AE0E0
:1020F000D0F80C80A8FB02894FEAD9298CF83B90D4
:10210000D0F80C90A9FB029A4FEADA0A8CF83CA0AE
:102110008CF83DE0D0F810A0AAFB02AB4FEADB2B15
:102120008CF83EB0D0F810B02990ABFB02B0C008DC
:102130008CF83F008CF840E02998D0F814E0AEFB12
:1021400002E0C00A8CF8410029984069A0FB020215
:10215000D2088CF84220112228901046279126930D
:102160002594249523962297CDF88480CDF88090ED
:10217000CDF87CA0CDF878B0CDF874E0FFF704FB83
:10218000FFE700208DF82201FFE79DF822010528D6
:1021900010DCFFE79DF8220143F62041C2F2000166
:1021A000002241F82020FFE79DF8220101308DF840
:1021B0002201EAE789E143F63C40C2F200000068F0
:1021C00047F67941C0F600010722FDF7EFFF00282E
:1021D00009D0FFE743F6EB30C2F2000040785A28FE
:1021E00040F07281FFE743F63C40C2F20000006815
:1021F00047F67941C0F600010722FDF7D7FF002816
:1022000040F0D980FFE747F64941C0F600010020C1
:102210001C90FDF7D9FF43F63C41C2F20001086073
:10222000086802F0D7FB43F64041C2F20001088083
:1022300043F6DA30C2F200001C990180FFE743F652
:10224000DA30C2F20000008843F64041C2F20001D9
:102250000988884280F2AE80FFE7FEF7B7F940F2C6
:102260000510C2F2000044F24921C5F2553140F890
:10227000321F42F23A01818040F20802C2F20002AB
:1022800013884FF0060C1B901A91614619921A465A
:10229000CDF860C0FEF720FA0D201B9988720A2243
:1022A000CA720C231790184616921593FFF76CFA12
:1022B0001A981B99888044F25612C4F643420A6069
:1022C000199A528808461899FEF706FA17981B992A
:1022D0008872169ACA721598FFF756FA44F6494062
:1022E000C2F23A001B9908601998828804211B9851
:1022F000FEF7F2F917981B990872169A4A7210465F
:10230000FFF742FA1A981B99888044F25452C5F29A
:102310004D020A60199AD28808461899FEF7DCF92E
:1023200017981B998872169ACA721598FFF72CFA9B
:102330001A981B99888044F25612C4F643520A60D8
:10234000199A128908461899FEF7C6F917981B9929
:102350008872169ACA721598FFF716FA1A981B997E
:10236000888044F25622C5F255320A60199A528981
:1023700008461899FEF7B0F917981B998872169AB3
:10238000CA721598FFF700FA42F62D50C0F60D20DC
:102390001B9988604FF02D30486008601598FFF752
:1023A000F3F9FFE743F6DA30C2F2000001880131A9
:1023B000018044E787E0FEF75DFF43F6EB30C2F2B1
:1023C00000008178C07840EA012043F64041C2F223
:1023D0000001088043F6DE30C2F2000000210180D7
:1023E000FFE743F6DE30C2F20000008843F64041CA
:1023F000C2F200010988884232DAFFE7FEF7E6F808
:1024000040F20800C2F20000417840F2EA02C2F253
:102410000002D17101881172C178517241889172A4
:102420004179D17281881173C1795173C1889173D7
:10243000417AD17301891174C17A517440899074C1
:102440000020D074212010750E20FEF7FBFEFFE760
:1024500043F6DE30C2F20000018801310180C0E79E
:1024600043F6DE30C2F20000008843F64041C2F27B
:1024700000010988884225DBFFE740F60040C4F2EE
:1024800001000421202314901391139A03F0F6FF06
:10249000282010231499129008461299139A03F0D9
:1024A000EDFF082314981299139A03F0E7FF40F602
:1024B0000000C4F201004FF400431299139A03F094
:1024C000DDFFFFE7FFE7FFE7FFE702F0CBB943F6E9
:1024D0003C40C2F20000006847F64E41C0F60001E1
:1024E0000322FDF763FE002808D0FFE743F6EB3038
:1024F000C2F200000078DC2875D1FFE743F63C40CB
:10250000C2F20000006847F64E41C0F60001032207
:10251000FDF74CFE002836D1FFE747F64941C0F6EB
:10252000000100201190FDF74FFE43F63C41C2F23E
:1025300000010860086802F04DFA119910900846F1
:10254000109A03F0FBFC119803F052FD40F20510C5
:10255000C2F200000A2180F83E1044F25451C0F645
:102560004451C0F83A1045F25501C4F24411C0F884
:10257000361044F24411C2F24301C0F832100D206B
:10258000FFF702F92DE040F2BC00C2F20000012189
:10259000017043F6EB30C2F200004278837843EAE0
:1025A000022243F6E833C2F200031A8042788078B0
:1025B00040EA022200200F900F9B0E91194603F073
:1025C000BDFC0F9803F014FDFEF754FE40F2051019
:1025D000C2F20000AC2180F832100E98FFF7D4F858
:1025E000FFE702F03EB943F63C40C2F2000000684B
:1025F000006845F24701C4F64971884209D0FFE7F7
:1026000043F6EB30C2F2000000786F2842F04180C0
:10261000FFE747F64941C0F600010020FDF7D4FD71
:1026200043F63C41C2F2000108600868006844F2C9
:102630005251C4F24141884209D0FFE743F6EB30E2
:10264000C2F2000040787D2840F00682FFE743F6A2
:102650003C40C2F200000068006844F25251C4F2EB
:102660004141884240F04D81FFE741F20000C4F251
:1026700001004FF4005103F0CBFF01281DD1FFE70B
:1026800040F20510C2F200000A2180F83E1044F228
:102690004971C0F64851C0F83A1043F64521C4F6D6
:1026A0002001C0F8361045F25341C5F24141C0F84F
:1026B00032100D20FFF768F819E040F20510C2F261
:1026C000000045F24F71C0F60D21C0F83A1043F6F4
:1026D0004521C4F62041C0F8361045F25341C5F2F9
:1026E0004141C0F832100C20FFF74EF8FFE741F2ED
:1026F0000000C4F201004FF4004103F089FF0128FB
:102700001DD1FFE740F20510C2F2000040F60D2196
:10271000C18744F64811C4F64701C0F83A1044F2A4
:102720004C51C2F23A01C0F8361044F64561C4F289
:102730004121C0F832100E20FFF726F81CE040F2CD
:102740000510C2F200000A2180F83E1044F64C71D8
:10275000C0F65751C0F83A1044F24C51C2F23A0157
:10276000C0F8361044F64561C4F24121C0F8321079
:102770000D20FFF709F8FFE740F60040C4F2010022
:10278000022103F045FF01281DD1FFE740F20510AB
:10279000C2F200000A2180F83E1044F24971C0F6EE
:1027A0004851C0F83A1043F64B21C4F62001C0F856
:1027B000361044F25741C4F65F71C0F832100D2054
:1027C000FEF7E2FF19E040F20510C2F2000045F208
:1027D0004F71C0F60D21C0F83A1043F64B21C4F6F4
:1027E0002041C0F8361044F25741C4F65F71C0F87A
:1027F00032100C20FEF7C8FFFFE740F60040C4F29D
:1028000001004FF4805103F003FF01281AD1FFE7C4
:1028100040F20510C2F2000044F64701C0F60D2157
:10282000C0F8391044F62001C4F24971C0F83610DE
:1028300044F24F31C3F65021C0F832100B20FEF79E
:10284000A3FF16E040F20510C2F2000040F60D2191
:10285000418744F62041C5F24F71C0F8361044F26A
:102860004F31C3F65021C0F832100A20FEF78CFF1A
:10287000FFE740F60040C4F20100202103F0C8FE4B
:10288000012820D1FFE740F20510C2F2000044F613
:102890004701C0F60D21C0F83D1044F62001C4F2F6
:1028A0004971C0F83A1044F65F11C3F64E21C0F8E2
:1028B000361045F65311C4F24E31C0F832100E20D6
:1028C000FEF762FF1CE040F20510C2F2000040F685
:1028D0000D21C18744F62041C5F24F71C0F83A106E
:1028E00044F65F11C3F64E21C0F8361045F6531179
:1028F000C4F24E31C0F832100D20FEF745FFFFE75D
:10290000A8E040F20510C2F20000002180F8321069
:1029100041F20000C4F201004FF4005103F078FED0
:1029200001280BD1FFE740F20510C2F2000090F839
:1029300032104900013180F8321009E040F20510F0
:10294000C2F2000090F83210490080F83210FFE720
:1029500041F20000C4F201004FF4004103F058FEC0
:1029600001280BD1FFE740F20510C2F2000090F8F9
:1029700032104900013180F8321009E040F20510B0
:10298000C2F2000090F83210490080F83210FFE7E0
:1029900040F60040C4F20100022103F039FE012894
:1029A0000BD1FFE740F20510C2F2000090F83210A0
:1029B0004900013180F8321009E040F20510C2F2FE
:1029C000000090F83210490080F83210FFE740F61E
:1029D0000040C4F201004FF4805103F019FE0128B9
:1029E0000BD1FFE740F20510C2F2000090F8321060
:1029F0004900013180F8321009E040F20510C2F2BE
:102A0000000090F83210490080F83210FFE740F6DD
:102A10000040C4F20100202103F0FAFD01280BD18F
:102A2000FFE740F20510C2F2000090F832104900B2
:102A3000013180F8321009E040F20510C2F20000C6
:102A400090F83210490080F83210FFE70120FEF7BD
:102A50009BFEFFE701F01CBE43F63C40C2F20000C3
:102A6000006847F65A41C0F600010722FDF79EFBB9
:102A7000002809D0FFE743F6EB30C2F200004078AF
:102A80007F2841F0BE82FFE7FDF766FF43F63C403A
:102A9000C2F20000006847F65A41C0F60001072262
:102AA000FDF784FB002840F03E87FFE741F200007D
:102AB000C4F201004FF4005103F0AAFD01281DD11A
:102AC000FFE740F20510C2F200000A2180F83E1034
:102AD00044F24971C0F64851C0F83A1043F6452116
:102AE000C4F62001C0F8361045F25341C5F2414109
:102AF000C0F832100D20FEF747FE19E040F2051035
:102B0000C2F2000045F24F71C0F60D21C0F83A1034
:102B100043F64521C4F62041C0F8361045F2534132
:102B2000C5F24141C0F832100C20FEF72DFEFFE740
:102B300041F20000C4F201004FF4804103F068FD4F
:102B400001281DD1FFE740F20510C2F200000A2162
:102B500080F83E1044F24971C0F64851C0F83A106E
:102B600043F64D21C4F62001C0F8361044F6414129
:102B7000C5F24121C0F832100D20FEF705FE19E024
:102B800040F20510C2F2000045F24F71C0F60D216F
:102B9000C0F83A1043F64D21C4F62041C0F8361073
:102BA00044F64141C5F24121C0F832100C20FEF735
:102BB000EBFDFFE741F20000C4F201004FF40041D9
:102BC00003F026FD01281DD1FFE740F20510C2F2F7
:102BD000000040F60D21C18744F64811C4F64701B4
:102BE000C0F83A1044F24C51C2F23A01C0F8361023
:102BF00044F64561C4F24121C0F832100E20FEF7C0
:102C0000C3FD1CE040F20510C2F200000A2180F86A
:102C10003E1044F64C71C0F65751C0F83A1044F2D9
:102C20004C51C2F23A01C0F8361044F64561C4F284
:102C30004121C0F832100D20FEF7A6FDFFE740F657
:102C40000000C4F20100012103F0E2FC01281AD1C6
:102C5000FFE740F20510C2F2000044F64701C0F65B
:102C60000D21C0F83A1042F23A01C4F64811C0F8FA
:102C7000361044F24921C5F25531C0F832100C200B
:102C8000FEF782FD19E040F20510C2F2000045F2A5
:102C90004F71C0F60D21C0F8391042F23A01C4F666
:102CA0004C71C0F8361044F24921C5F25531C0F8D4
:102CB00032100B20FEF768FDFFE740F60000C4F27B
:102CC0000100022103F0A4FC01281AD1FFE740F221
:102CD0000510C2F2000044F64701C0F60D21C0F80D
:102CE0003A1042F23A01C4F64811C0F8361044F2E4
:102CF0005611C4F64341C0F832100C20FEF744FDD3
:102D000019E040F20510C2F2000045F24F71C0F622
:102D10000D21C0F8391042F23A01C4F64C71C0F8E6
:102D2000361044F25611C4F64341C0F832100B205D
:102D3000FEF72AFDFFE740F60000C4F2010004217F
:102D400003F066FC012817D1FFE740F20510C2F23C
:102D5000000040F60D21418744F64811C4F64701B2
:102D6000C0F8361044F64941C2F23A01C0F83210B8
:102D70000A20FEF709FD16E040F20510C2F200003D
:102D80000A2180F83A1044F64C71C0F65751C0F849
:102D9000361044F64941C2F23A01C0F83210092017
:102DA000FEF7F2FCFFE740F60000C4F20100082144
:102DB00003F02EFC01281AD1FFE740F20510C2F201
:102DC000000044F64701C0F60D21C0F83A1042F267
:102DD0003A01C4F64811C0F8361044F25451C5F215
:102DE0004D01C0F832100C20FEF7CEFC19E040F285
:102DF0000510C2F2000045F24F71C0F60D21C0F877
:102E0000391042F23A01C4F64C71C0F8361044F25F
:102E10005451C5F24D01C0F832100B20FEF7B4FC3E
:102E2000FFE740F60000C4F20100102103F0F0FBC0
:102E300001281DD1FFE740F20510C2F2000040F664
:102E40000D21C18744F64811C4F64701C0F83A1075
:102E500044F65401C2F23A01C0F8361044F24F3140
:102E6000C5F65071C0F832100E20FEF78DFC1CE044
:102E700040F20510C2F200000A2180F83E1044F62C
:102E80004C71C0F65751C0F83A1044F65401C2F2E2
:102E90003A01C0F8361044F24F31C5F65071C0F80F
:102EA00032100D20FEF770FCFFE740F60000C4F280
:102EB0000100202103F0ACFB01281AD1FFE740F20A
:102EC0000510C2F2000044F64701C0F60D21C0F81B
:102ED0003A1042F23A01C4F64811C0F8361044F2F2
:102EE0005611C4F64361C0F832100C20FEF74CFCBA
:102EF00019E040F20510C2F2000045F24F71C0F631
:102F00000D21C0F8391042F23A01C4F64C71C0F8F4
:102F1000361044F25611C4F64361C0F832100B204B
:102F2000FEF732FCFFE740F60000C4F2010040214A
:102F300003F06EFB01281AD1FFE740F20510C2F240
:102F4000000044F64701C0F60D21C0F83A1042F2E5
:102F50003A01C4F64811C0F8361044F25621C5F2C1
:102F60005531C0F832100C20FEF70EFC19E040F28B
:102F70000510C2F2000045F24F71C0F60D21C0F8F5
:102F8000391042F23A01C4F64C71C0F8361044F2DE
:102F90005621C5F25531C0F832100B20FEF7F4FB74
:102FA000FFE740F60000C4F20100802103F030FB8F
:102FB00001281DD1FFE740F20510C2F200000A21EE
:102FC00080F83E1044F24971C0F64851C0F83A10FA
:102FD00043F65921C4F62001C0F8361044F252518C
:102FE000C4F24C11C0F832100D20FEF7CDFB19E0F1
:102FF00040F20510C2F2000045F24F71C0F60D21FB
:10300000C0F83A1043F65921C4F62041C0F83610F2
:1030100044F25251C4F24C11C0F832100C20FEF7A9
:10302000B3FBFFE740F60040C4F20100012103F0CA
:10303000EFFA012817D1FFE740F20510C2F20000B5
:1030400040F60D21418744F64811C4F64701C0F807
:10305000361044F25741C2F23A01C0F832100A2049
:10306000FEF792FB16E040F20510C2F200000A21C2
:1030700080F83A1044F64C71C0F65751C0F836103B
:1030800044F25741C2F23A01C0F832100920FEF76B
:103090007BFBFFE740F60040C4F20100022103F091
:1030A000B7FA01281DD1FFE740F20510C2F2000077
:1030B0000A2180F83E1044F24971C0F64851C0F828
:1030C0003A1043F64B21C4F62001C0F8361044F202
:1030D0005741C4F65F71C0F832100D20FEF754FB63
:1030E00019E040F20510C2F2000045F24F71C0F63F
:1030F0000D21C0F83A1043F64B21C4F62041C0F828
:10310000361044F25741C4F65F71C0F832100C20FB
:10311000FEF73AFBFFE740F60040C4F2010004214D
:1031200003F076FA012820D1FFE740F20510C2F241
:10313000000044F64701C0F60D21C0F83E1042F2EF
:103140003A01C4F64811C0F83A1045F65471C4F279
:103150004451C0F8361045F25531C5F24121C0F84E
:1031600032101020FEF710FB1FE040F20510C2F2F3
:10317000000045F24F71C0F60D21C0F83D1042F23B
:103180003A01C4F64C71C0F83A1045F65471C4F2D5
:103190004451C0F8361045F25531C5F24121C0F80E
:1031A00032100F20FEF7F0FAFFE740F60040C4F2BD
:1031B00001004FF4806103F02BFA012820D1FFE7D2
:1031C00040F20510C2F2000044F64701C0F60D219E
:1031D000C0F83E1042F23A01C4F64811C0F83A1065
:1031E00045F65471C5F65401C0F8361045F2553114
:1031F000C5F24121C0F832101020FEF7C5FA1FE0D9
:1032000040F20510C2F2000045F24F71C0F60D21E8
:10321000C0F83D1042F23A01C4F64C71C0F83A10C1
:1032200045F65471C5F65401C0F8361045F25531D3
:10323000C5F24121C0F832100F20FEF7A5FAFFE7D2
:1032400040F60040C4F201004FF4006103F0E0F9E1
:10325000012820D1FFE740F20510C2F2000044F639
:103260004701C0F60D21C0F83E1042F23A01C4F603
:103270004811C0F83A1045F65471C5F65201C0F82D
:10328000361045F25531C5F24121C0F832101020F8
:10329000FEF77AFA1FE040F20510C2F2000045F294
:1032A0004F71C0F60D21C0F83D1042F23A01C4F64C
:1032B0004C71C0F83A1045F65471C5F65201C0F889
:1032C000361045F25531C5F24121C0F832100F20B9
:1032D000FEF75AFAFFE740F60040C4F201004FF44F
:1032E000805103F095F901281AD1FFE740F205104B
:1032F000C2F2000040F64851C0F20A01C0F83A108C
:1033000044F62001C4F24971C0F8361044F24F313E
:10331000C3F65021C0F832100C20FEF735FA17E042
:1033200040F20510C2F2000040F60D21C0F83A103C
:1033300044F62041C5F24F71C0F8361044F24F31C7
:10334000C3F65021C0F832100B20FEF71DFAFFE73C
:1033500040F60040C4F201004FF4005103F058F968
:1033600001281DD1FFE740F20510C2F2000040F62F
:103370000D21C18744F64811C4F64701C0F83A1040
:1033800044F65301C2F23A01C0F8361045F25071CA
:10339000C5F64D71C0F832100E20FEF7F5F91CE0AD
:1033A00040F20510C2F200000A2180F83E1044F6F7
:1033B0004C71C0F65751C0F83A1044F65301C2F2AE
:1033C0003A01C0F8361045F25071C5F64D71C0F89B
:1033D00032100D20FEF7D8F9FFE740F60040C4F2A6
:1033E00001004FF4804103F013F901281DD1FFE7DC
:1033F00040F20510C2F2000040F60D21C18744F6EC
:103400004811C4F64701C0F83A1044F65341C2F2DD
:103410003A01C0F8361045F25071C5F64D71C0F84A
:1034200032100E20FEF7B0F91CE040F20510C2F297
:1034300000000A2180F83E1044F64C71C0F6575146
:10344000C0F83A1044F65341C2F23A01C0F83610BF
:1034500045F25071C5F64D71C0F832100D20FEF7DF
:1034600093F9FFE740F60040C4F201004FF4004139
:1034700003F0CEF801281AD1FFE740F20510C2F29E
:10348000000044F64701C0F60D21C0F83A1042F2A0
:103490003A01C4F64811C0F8361044F24C51C3F258
:1034A0004411C0F832100C20FEF76EF919E040F21A
:1034B0000510C2F2000045F24F71C0F60D21C0F8B0
:1034C000391042F23A01C4F64C71C0F8361044F299
:1034D0004C51C3F24411C0F832100B20FEF754F9DE
:1034E000FFE740F60000C4F201004FF4807103F0E2
:1034F0008FF801281DD1FFE740F20510C2F200004D
:1035000040F60D21C18744F64811C4F64701C0F8C2
:103510003A1044F64601C2F23A01C0F8361045F2BC
:103520005071C5F64D71C0F832100E20FEF72CF91F
:103530001CE040F20510C2F200000A2180F83E10A3
:1035400044F64C71C0F65751C0F83A1044F64601A3
:10355000C2F23A01C0F8361045F25071C5F64D710D
:10356000C0F832100D20FEF70FF9FFE740F600001B
:10357000C4F201004FF4007103F04AF801281DD194
:10358000FFE740F20510C2F2000040F60D21C187AE
:1035900044F64811C4F64701C0F83A1044F64641D3
:1035A000C2F23A01C0F8361045F25071C5F64D71BD
:1035B000C0F832100E20FEF7E7F81CE040F20510CC
:1035C000C2F200000A2180F83E1044F64C71C0F6A9
:1035D0005751C0F83A1044F64641C2F23A01C0F8D9
:1035E000361045F25071C5F64D71C0F832100D20FD
:1035F000FEF7CAF8FFE740F60040C4F201004FF4BE
:10360000005103F005F801281DD1FFE740F2051035
:10361000C2F2000040F60D21C18744F64811C4F6FD
:103620004701C0F83A1044F65301C2F23A01C0F81B
:10363000361045F25071C5F64D71C0F832100E20AB
:10364000FEF7A2F81CE040F20510C2F200000A21C9
:1036500080F83E1044F64C71C0F65751C0F83A104D
:1036600044F65301C2F23A01C0F8361045F25071E7
:10367000C5F64D71C0F832100D20FEF785F8FFE752
:1036800040F60000C4F201004FF4806102F0C0FF78
:1036900001281DD1FFE740F20510C2F2000040F6FC
:1036A0000D21C18744F64811C4F64701C0F83A100D
:1036B00044F64561C2F23A01C0F8361045F2507145
:1036C000C5F64D71C0F832100E20FEF75DF81CE013
:1036D00040F20510C2F200000A2180F83E1044F6C4
:1036E0004C71C0F65751C0F83A1044F64561C2F229
:1036F0003A01C0F8361045F25071C5F64D71C0F868
:1037000032100D20FEF740F8FFE740F60000C4F24B
:1037100001004FF4006102F07BFF01281DD1FFE79B
:1037200040F20510C2F2000040F60D21C18744F6B8
:103730004811C4F64701C0F83A1045F65201C2F2EA
:103740003A01C0F8361044F24311C5F64E71C0F884
:1037500032100E20FEF718F81CE040F20510C2F2FD
:1037600000000A2180F83E1044F64C71C0F6575113
:10377000C0F83A1045F65201C2F23A01C0F83610CC
:1037800044F24311C5F64E71C0F832100D20FDF71A
:10379000FBFFFFE740F60000C4F201004FF4805148
:1037A00002F036FF01281DD1FFE740F20510C2F2FA
:1037B000000040F60D21C18744F64811C4F64701C8
:1037C000C0F83A1045F65401C2F23A01C0F836107A
:1037D00044F24311C5F64E71C0F832100E20FDF7C9
:1037E000D3FF1CE040F20510C2F200000A2180F86D
:1037F0003E1044F64C71C0F65751C0F83A1045F6E9
:103800005401C2F23A01C0F8361044F24311C5F631
:103810004E71C0F832100D20FDF7B6FFFFE740F6FD
:103820000040C4F20100202102F0F2FE012820D164
:10383000FFE740F20510C2F2000044F64701C0F66F
:103840000D21C0F83D1044F62001C4F24971C0F8C2
:103850003A1044F65F11C3F64E21C0F8361045F613
:103860005311C4F24E31C0F832100F20FDF78CFF17
:103870001CE040F20510C2F2000040F60D21C187A5
:1038800044F62041C5F24F71C0F83A1044F65F117A
:10389000C3F64E21C0F8361045F65311C4F24E312E
:1038A000C0F832100E20FDF76FFFFFE740F6004032
:1038B000C4F201004FF4807102F0AAFE01281AD16F
:1038C000FFE740F20510C2F2000044F64701C0F6DF
:1038D0000D21C0F8391044F62001C4F24971C0F836
:1038E000361044F24611C3F64E21C0F832100B20B8
:1038F000FDF74AFF16E040F20510C2F2000040F664
:103900000D21418744F62041C5F24F71C0F83610B1
:1039100044F24611C3F64E21C0F832100A20FDF7DA
:1039200033FFFFE764E340F20510C2F2000000211C
:1039300080F8321080F8331080F8341080F8351099
:1039400041F20000C4F201004FF4005102F060FEA9
:1039500001280BD1FFE740F20510C2F2000090F8F9
:1039600032104900013180F8321009E040F20510B0
:10397000C2F2000090F83210490080F83210FFE7E0
:1039800041F20000C4F201004FF4804102F040FE19
:1039900001280BD1FFE740F20510C2F2000090F8B9
:1039A00032104900013180F8321009E040F2051070
:1039B000C2F2000090F83210490080F83210FFE7A0
:1039C00041F20000C4F201004FF4004102F020FE79
:1039D00001280BD1FFE740F20510C2F2000090F879
:1039E00032104900013180F8321009E040F2051030
:1039F000C2F2000090F83210490080F83210FFE760
:103A000040F60000C4F20100012102F001FE01288D
:103A10000BD1FFE740F20510C2F2000090F832101F
:103A20004900013180F8321009E040F20510C2F27D
:103A3000000090F83210490080F83210FFE740F69D
:103A40000000C4F20100022102F0E2FD01280BD1C6
:103A5000FFE740F20510C2F2000090F83210490072
:103A6000013180F8321009E040F20510C2F2000086
:103A700090F83210490080F83210FFE740F600005D
:103A8000C4F20100042102F0C3FD01280BD1FFE7BD
:103A900040F20510C2F2000090F8321049000131E6
:103AA00080F8321009E040F20510C2F2000090F8F0
:103AB0003210490080F83210FFE740F60000C4F2EF
:103AC0000100082102F0A4FD01280BD1FFE740F21C
:103AD0000510C2F2000090F832104900013180F860
:103AE000321009E040F20510C2F2000090F83210E6
:103AF000490080F83210FFE740F60000C4F20100F0
:103B0000102102F085FD01280BD1FFE740F20510DE
:103B1000C2F2000090F832104900013180F83210F2
:103B200009E040F20510C2F2000090F8321049009E
:103B300080F83210FFE740F60000C4F201002021B7
:103B400002F066FD01280BD1FFE740F20510C2F23A
:103B5000000090F832104900013180F8331009E07C
:103B600040F20510C2F2000090F83310490080F8CE
:103B70003310FFE740F60000C4F20100402102F0DC
:103B800047FD01280BD1FFE740F20510C2F200000B
:103B900090F832104900013180F8331009E040F20A
:103BA0000510C2F2000090F83310490080F833107D
:103BB000FFE740F60000C4F20100802102F028FD7A
:103BC00001280BD1FFE740F20510C2F2000090F887
:103BD00032104900013180F8331009E040F205103D
:103BE000C2F2000090F83310490080F83310FFE76C
:103BF00040F60040C4F20100012102F009FD012855
:103C00000BD1FFE740F20510C2F2000090F832102D
:103C10004900013180F8331009E040F20510C2F28A
:103C2000000090F83310490080F83310FFE740F6A9
:103C30000040C4F20100022102F0EAFC01280BD18D
:103C4000FFE740F20510C2F2000090F83210490080
:103C5000013180F8331009E040F20510C2F2000093
:103C600090F83310490080F83310FFE740F6004029
:103C7000C4F20100042102F0CBFC01280BD1FFE7C4
:103C800040F20510C2F2000090F8321049000131F4
:103C900080F8331009E040F20510C2F2000090F8FD
:103CA0003310490080F83310FFE740F60040C4F2BB
:103CB00001004FF4806102F0ABFC01280BD1FFE75B
:103CC00040F20510C2F2000090F8321049000131B4
:103CD00080F8331009E040F20510C2F2000090F8BD
:103CE0003310490080F83310FFE740F60040C4F27B
:103CF00001004FF4006102F08BFC01280BD1FFE7BB
:103D000040F20510C2F2000090F832104900013173
:103D100080F8331009E040F20510C2F2000090F87C
:103D20003310490080F83310FFE740F60040C4F23A
:103D300001004FF4805102F06BFC01280BD1FFE72A
:103D400040F20510C2F2000090F832104900013133
:103D500080F8341009E040F20510C2F2000090F83B
:103D60003410490080F83410FFE740F60040C4F2F8
:103D700001004FF4005102F04BFC01280BD1FFE78A
:103D800040F20510C2F2000090F8321049000131F3
:103D900080F8341009E040F20510C2F2000090F8FB
:103DA0003410490080F83410FFE740F60040C4F2B8
:103DB00001004FF4804102F02BFC01280BD1FFE7FA
:103DC00040F20510C2F2000090F8321049000131B3
:103DD00080F8341009E040F20510C2F2000090F8BB
:103DE0003410490080F83410FFE740F60040C4F278
:103DF00001004FF4004102F00BFC01280BD1FFE75A
:103E000040F20510C2F2000090F832104900013172
:103E100080F8341009E040F20510C2F2000090F87A
:103E20003410490080F83410FFE740F60000C4F277
:103E300001004FF4807102F0EBFB01280BD1FFE78A
:103E400040F20510C2F2000090F832104900013132
:103E500080F8341009E040F20510C2F2000090F83A
:103E60003410490080F83410FFE740F60000C4F237
:103E700001004FF4007102F0CBFB01280BD1FFE7EA
:103E800040F20510C2F2000090F8321049000131F2
:103E900080F8341009E040F20510C2F2000090F8FA
:103EA0003410490080F83410FFE740F60000C4F2F7
:103EB00001004FF4806102F0ABFB01280BD1FFE75A
:103EC00040F20510C2F2000090F8321049000131B2
:103ED00080F8341009E040F20510C2F2000090F8BA
:103EE0003410490080F83410FFE740F60000C4F2B7
:103EF00001004FF4006102F08BFB01280BD1FFE7BA
:103F000040F20510C2F2000090F832104900013171
:103F100080F8341009E040F20510C2F2000090F879
:103F20003410490080F83410FFE740F60000C4F276
:103F300001004FF4805102F06BFB01280BD1FFE729
:103F400040F20510C2F2000090F832104900013131
:103F500080F8351009E040F20510C2F2000090F838
:103F60003510490080F83510FFE740F60040C4F2F4
:103F70000100202102F04CFB01280BD1FFE740F2A9
:103F80000510C2F2000090F832104900013180F8AB
:103F9000351009E040F20510C2F2000090F835102B
:103FA000490080F83510FFE740F60040C4F20100F8
:103FB0004FF4807102F02CFB01280BD1FFE740F297
:103FC0000510C2F2000090F832104900013180F86B
:103FD000351009E040F20510C2F2000090F83510EB
:103FE000490080F83510FFE70420FDF7CDFBFFE71F
:103FF000FCF718FEFDF7E0FBFDF71AF8FCF7F2FD01
:1040000045E343F63C40C2F200000068006844F615
:104010004811C4F64701884208D0FFE743F6EB3069
:10402000C2F200004078FF2864D1FFE741F20000AF
:10403000C4F201004FF4804102F018FA40F600008B
:10404000C4F2010080210D9002F010FA40F6004009
:10405000C4F2010001210C9002F008FA04210C982E
:1040600002F004FA4FF400410C9802F0FFF94FF40B
:1040700080610D9802F0FAF94FF480710C9802F00B
:10408000F5F943F63C40C2F200000068006844F6CF
:104090004811C4F64701884220D1FFE740F20510DD
:1040A000C2F2000044F64701C0F60D21C0F83D10F1
:1040B00044F62001C4F24971C0F83A1045F24701B4
:1040C000C4F64971C0F8361044F64141C2F24C01C1
:1040D000C0F832100F20FDF757FB0AE040F2051040
:1040E000C2F20000AC2180F832100120FDF74CFB39
:1040F000FFE7CBE243F63C40C2F20000006847F61F
:104100008141C0F600010322FCF750F8002808D0D6
:10411000FFE743F6EB30C2F200004078002863D19D
:10412000FFE741F20000C4F201004FF4804102F0C9
:1041300095F940F60000C4F2010080210B9002F0D6
:104140008DF940F60040C4F2010001210A9002F00E
:1041500085F904210A9802F081F94FF400410A9888
:1041600002F07CF94FF480610B9802F077F94FF47C
:1041700080710A9802F072F943F63C40C2F20000E6
:10418000006847F68141C0F600010322FCF70EF8F3
:1041900000281DD1FFE740F20510C2F2000040F6F2
:1041A0000D21C18744F62041C5F24F71C0F83A1085
:1041B00045F24701C4F64971C0F8361044F6414152
:1041C000C2F24C01C0F832100E20FDF7DDFA0AE011
:1041D00040F20510C2F20000AC2180F8321001203C
:1041E000FDF7D2FAFFE750E243F63C40C2F200008E
:1041F000006847F66241C0F600010622FBF7D6FFD1
:10420000002809D0FFE743F6EB30C2F20000407807
:10421000CC2840F0BA81FFE743F63C40C2F20000F0
:10422000006847F66241C0F600010622FBF7BEFFB8
:10423000002840F0E180FFE747F64941C0F6000161
:104240000020FBF7C1FF43F63C41C2F200010860C9
:10425000086800F095FB43F6E031C2F20001086007
:104260000878C007002809D0FFE741F20000C4F237
:1042700001004FF4804102F0F9F808E041F200003B
:10428000C4F201004FF4804102F0E8F8FFE743F682
:10429000E030C2F2000000684008C007002808D0E3
:1042A000FFE740F60000C4F20100802102F0DEF8D2
:1042B00007E040F60000C4F20100802102F0CEF8D1
:1042C000FFE743F6E030C2F2000000688008C00754
:1042D000002808D0FFE740F60040C4F201000121A9
:1042E00002F0C4F807E040F60040C4F201000121EA
:1042F00002F0B4F8FFE743F6E030C2F200000068D5
:10430000C008C007002808D0FFE740F60040C4F20C
:104310000100042102F0AAF807E040F60040C4F2D0
:104320000100042102F09AF8FFE743F6E030C2F200
:10433000000000680009C007002809D0FFE740F628
:104340000040C4F201004FF4004102F08FF808E091
:1043500040F60040C4F201004FF4004102F07EF844
:10436000FFE743F6E030C2F2000000680009C00732
:10437000002809D0FFE740F60000C4F201004FF426
:10438000806102F073F808E040F60000C4F201001A
:104390004FF4806102F062F8FFE743F6E030C2F2CA
:1043A000000000680009C007002809D0FFE740F6B8
:1043B0000040C4F201004FF4807102F057F808E0A9
:1043C00040F60040C4F201004FF4807102F046F85C
:1043D000FFE740F20510C2F20000323047F60A4112
:1043E000C0F6000114220992FBF7CEFE099908904D
:1043F0000846FDF7C9F9C7E043F6EB30C2F200000A
:104400008078C007002809D0FFE741F20000C4F21D
:1044100001004FF4804102F029F808E041F2000069
:10442000C4F201004FF4804102F018F8FFE743F6B0
:10443000EB30C2F2000080784008C007002808D0A6
:10444000FFE740F60000C4F20100802102F00EF800
:1044500007E040F60000C4F20100802101F0FEFFF9
:10446000FFE743F6EB30C2F2000080788008C00717
:10447000002808D0FFE740F60040C4F20100012107
:1044800001F0F4FF07E040F60040C4F20100012112
:1044900001F0E4FFFFE743F6EB30C2F20000807862
:1044A000C008C007002808D0FFE740F60040C4F26B
:1044B0000100042101F0DAFF07E040F60040C4F2F9
:1044C0000100042101F0CAFFFFE743F6EB30C2F21E
:1044D000000080780009C007002809D0FFE740F6F7
:1044E0000040C4F201004FF4004101F0BFFF08E0BA
:1044F00040F60040C4F201004FF4004101F0AEFF6D
:10450000FFE743F6EB30C2F2000080784009C007B5
:10451000002809D0FFE740F60000C4F201004FF484
:10452000806101F0A3FF08E040F60000C4F2010042
:104530004FF4806101F092FFFFE743F6EB30C2F2E7
:10454000000080788009C007002809D0FFE740F606
:104550000040C4F201004FF4807101F087FF08E0D1
:1045600040F60040C4F201004FF4807101F076FF84
:10457000FFE740F20510C2F20000AC2180F83210D3
:104580000120FDF701F9FFE77EE043F63C40C2F26F
:104590000000006847F67141C0F600010722FBF7F2
:1045A00005FE002808D0FFE743F6EB30C2F200001A
:1045B0004078AA2867D1FFE743F63C40C2F20000EA
:1045C000006847F67141C0F600010722FBF7EEFDD7
:1045D000002829D1FFE747F64940C0F60000002136
:1045E00007900846079A06911146FBF7EDFD43F642
:1045F0003C41C2F2000108600868059100F0EAF948
:1046000043F63A41C2F20001088006980799FBF789
:10461000DBFD05990860086800F0DCF943F63841D5
:10462000C2F20001088016E043F6EB30C2F200004F
:104630008178C27842EA012143F63A42C2F200028E
:1046400011800179407940EA012043F63841C2F2F5
:1046500000010880FFE743F63A40C2F200000088FC
:1046600041F2883188420DDCFFE743F6E530C2F2C3
:104670000000012101701C2000F088FD322000F0B4
:10468000A3FDFFE7FFE7FFE7FFE7FFE7FFE7FFE740
:10469000E6E043F63C40C2F200000068006844F2E5
:1046A0005511C5F25241884208D0FFE743F6EB307E
:1046B000C2F200000078CA2861D1FFE747F64941FD
:1046C000C0F600010020FBF77FFD43F63C41C2F23B
:1046D000000108600868008844F65451884208D0F8
:1046E000FFE743F6EB30C2F200000078CA2845D15C
:1046F000FFE740F2BD00C2F2000043F23101C0F614
:104700000D21016243F25131C3F23201C16142F223
:104710004F01C5F24D01816144F24851C4F64C414C
:1047200041611020FCF76CFC43F63C40C2F20000F3
:104730000068008844F65451884213D1FFE740F2E4
:104740000510C2F20000323047F61F41C0F60001EA
:1047500015220492FBF718FD049903900846FDF713
:1047600013F80AE040F20510C2F20000AC2180F814
:1047700032100120FDF708F8FFE7FFE76FE043F68E
:104780003C40C2F20000006847F66D41C0F60001EF
:104790000322FBF70BFD002808D0FFE743F6EB30C0
:1047A000C2F200000078C52858D1FFE747F649411A
:1047B000C0F600010020FBF707FD43F63C41C2F2C2
:1047C000000108600868008844F65451884208D007
:1047D000FFE743F6EB30C2F200000078C5283CD179
:1047E000FFE740F21400C2F200005521A0F8A0102B
:1047F000032180F8A4104D21C1725021017353216F
:104800004173FBF7FFFE43F63C40C2F20000006834
:10481000008844F65451884213D1FFE740F2051056
:10482000C2F20000323047F63541C0F600011322D3
:104830000292FBF7A9FC029901900846FCF7A4FF3D
:104840000AE040F20510C2F20000AC2180F83210FC
:104850000120FCF799FFFFE7FFE7FFE7FFE7FFE72E
:10486000FFE7FFE7FFE700208DF82301FFE79DF852
:10487000230131280FDCFFE79DF8230140F20511E9
:10488000C2F2000100220A54FFE79DF82301013023
:104890008DF82301EBE71C2000F096FCFFE749B000
:1048A000BDE8F08F80B59CB0FCF7BCF9FCF784FF45
:1048B000FCF7BEFBFCF796F94FF4E13016900021AF
:1048C00017911891199140F20512C2F2000202F1FB
:1048D00032031A931B9216AB069018460591049268
:1048E000FCF798FE2020049981F832000122039001
:1048F00010460292FCF748FF069810900599119116
:104900001291139140F2BD02C2F2000202F11403AF
:104910001493159210A80192FCF7CEFA039801990E
:1049200008750298FCF76CFB05980C900D900F90A1
:1049300009900E9040F2EA01C2F20001CA1D0A92EB
:1049400005310B9109A8FCF793FB4FF4FA7007901F
:1049500005988DF821008DF8200007A8FCF7D4F801
:10496000FBF726FF42F6DF60FCF7C0FC0E20FCF7E9
:104970008DFD40F6B730FCF751FD1CB080BD000046
:1049800083B00290002001908DF80300FFE70298A9
:104990009DF80310405C00212F280A46C8BF012261
:1049A0003A28B8BF01210A4211D0FFE70198400020
:1049B000019002989DF80310405C0199084430383A
:1049C00001909DF8030001308DF80300DFE70198A6
:1049D00003B0704782B001900020ADF80200ADF83E
:1049E0000000FFE70198BDF80010405C00212F286F
:1049F0000A46C8BF01223A28B8BF01210A4217D08F
:104A0000FFE7BDF8020000EB80004000ADF80200B7
:104A10000198BDF80010405CBDF802100844303821
:104A2000ADF80200BDF800000130ADF80000D9E794
:104A3000BDF8020002B0704780B582B000900098C7
:104A40000138B0F1807F03D3FFE70120019019E026
:104A5000009801384EF21401CEF2000108604FF0C8
:104A6000FF300F2100F0CAFB4EF21800CEF200001A
:104A7000002101604EF21000CEF200000722026019
:104A80000191FFE7019802B080BD000080B543F6B8
:104A90004440C2F2000001680131016000684CF638
:104AA0006311C9F22F6148434FEAF00043F6062133
:104AB000C0F26D01884226D8FFE743F6D130C2F23A
:104AC00000000178B1FA81F14909017000780028ED
:104AD00009D0FFE740F60040C4F201004FF4007136
:104AE00001F0C4FC0EE040F60040C4F201004FF4B7
:104AF000007101F0B3FC43F64440C2F20000002113
:104B00000160FFE7FFE7FCF77BFE80BD80B582B068
:104B10004EF68850CEF20000016841F47001016049
:104B200041F20000C4F20200016841F0010101609D
:104B300041F20401C4F2020100220A6041F22C0198
:104B4000C4F202010A6001684FF6FF73CEF6F62345
:104B50001940016041F20801C4F202014FF47F03E1
:104B60000B60016821F480210160019202F09CF940
:104B70004FF00060019901F091FE02B080BD00008D
:104B800080B542F60040C4F20100012102F0FEFDB2
:104B9000002808D0FFE742F60040C4F201000121DE
:104BA00002F0E8FDFFE780BD80B588B04FF080409F
:104BB000012102F0EBFD002800F03F81FFE74FF0FC
:104BC0008040012102F0D6FD43F64240C2F20000CF
:104BD0000078002819D1FFE740F20510C2F200006A
:104BE000323047F6F731C0F6000112220792FBF788
:104BF000CBFA079906900846FCF7C6FD43F64240FB
:104C0000C2F200000121017014E043F64240C2F2FA
:104C10000000007800280CD0FFE740F2BC00C2F290
:104C200000000078002803D1FFE7FCF79BFDFFE7B9
:104C3000FFE7FFE740F20510C2F20000007800280D
:104C40000CD0FFE740F20510C2F2000042F24371BF
:104C5000012242541C2000F099FAFFE740F2004084
:104C6000C4F202000021022201F0DCFA012826D160
:104C7000FFE740F20040C4F20200002101F0D2FB45
:104C800014281CD0FFE740F2EA00C2F20000012124
:104C9000817040F20040C4F202000022022305911C
:104CA00011461A4601F0ACFA43F60040C4F2000087
:104CB000059901F063FF1C2000F068FA0BE040F258
:104CC000BC00C2F200000078002803D0FFE7FCF728
:104CD000B3FAFFE7FFE740F2EA00C2F20000807893
:104CE000002800F0A980FFE740F2EA00C2F20000CD
:104CF000002181704079C7283DD1FFE740F2EA00EA
:104D0000C2F200008079C72835D1FFE740F2BC002D
:104D1000C2F200000021017040F60040C4F2010020
:104D20000421202304900391039A01F0A7FB28207B
:104D300010230499029008460299039A01F09EFB01
:104D4000082304980299039A01F098FB40F60000AA
:104D5000C4F201004FF400430299039A01F08EFB64
:104D600040F20510C2F20000DC2180F83210012070
:104D7000FCF70AFD38E040F2EA00C2F20000407998
:104D8000662817D1FFE740F2EA00C2F200008079FE
:104D900066280FD1FFE743F6D830C2F20000018841
:104DA000490089B201900846FCF7EEFC0020019909
:104DB000088018E040F2EA00C2F20000817943F670
:104DC000D832C2F20002138840F2051CC2F2000C75
:104DD0000CEB43035970407911880CF811001088CE
:104DE00001301080FFE7FFE743F6E630C2F2000033
:104DF00000210170FFE743F6E630C2F200000078C0
:104E0000012815DCFFE743F6E630C2F20000007827
:104E100040F2EA01C2F20001084400214171FFE7BB
:104E200043F6E630C2F20000017801310170E2E79A
:104E30001C2000F0C9F9FFE7FFE708B080BD0000C3
:104E400080B584B040F60040C4F20000012102F0B9
:104E50009DFC002800F09881FFE740F60040C4F276
:104E60000000012102F086FC43F6E530C2F20000AA
:104E70000078002800F08781FFE743F64840C2F23F
:104E80000000018801310180008843F63841C2F2F8
:104E9000000109884FF4FA52B2FBF1F1884240F365
:104EA000D980FFE743F6DC30C2F20000008843F609
:104EB0003A41C2F200010988884280F2CB80FFE7C4
:104EC00043F64840C2F200000021018041F2000098
:104ED000C4F201004FF4005101F09AFB01280ED1F9
:104EE000FFE743F6DC30C2F20000008842F64901D9
:104EF000C2F200010A5C520001320A540CE043F68F
:104F0000DC30C2F20000008842F64901C2F2000122
:104F10000A5C52000A54FFE741F20000C4F20100AB
:104F20004FF4004101F074FB01280ED1FFE743F676
:104F3000DC30C2F20000008842F64901C2F20001F2
:104F40000A5C520001320A540CE043F6DC30C2F233
:104F50000000008842F64901C2F200010A5C5200DA
:104F60000A54FFE740F60040C4F20100022101F0BC
:104F70004FFB01280ED1FFE743F6DC30C2F2000000
:104F8000008842F64901C2F200010A5C5200013277
:104F90000A540CE043F6DC30C2F20000008842F60E
:104FA0004901C2F200010A5C52000A54FFE740F6D0
:104FB0000040C4F201004FF4805101F029FB0128A8
:104FC0000ED1FFE743F6DC30C2F20000008842F663
:104FD0004901C2F200010A5C520001320A540CE09D
:104FE00043F6DC30C2F20000008842F64901C2F20A
:104FF00000010A5C52000A54FFE740F60040C4F288
:105000000100202101F004FB01280ED1FFE743F647
:10501000DC30C2F20000008842F64901C2F2000111
:105020000A5C520001320A540CE043F6DC30C2F252
:105030000000008842F64901C2F200010A5C5200F9
:105040000A54FFE743F6DC30C2F200000188013168
:10505000018097E043F6DC30C2F20000008843F69E
:105060003A41C2F2000109888842C0F28A80FFE713
:1050700043F6DC30C2F200000021018043F6E43246
:10508000C2F200020123137043F6E533C2F20003BB
:1050900019701170322203901046029100F076F8D8
:1050A000029803990880FFE743F6DC30C2F2000063
:1050B000008843F63A41C2F20001098888425CDA6E
:1050C000FFE743F6E630C2F2000000210170FFE77F
:1050D00043F6DC30C2F20000008843F6E631C2F24B
:1050E00000010978084443F63A41C2F200010988F8
:1050F0000022884201920BDAFFE743F6E630C2F263
:105100000000007800213228B8BF01210191FFE79B
:105110000198C007002820D0FFE743F6DC30C2F238
:105120000000008843F6E631C2F200010978084425
:1051300042F64901C2F20001095C40F20512C2F2D6
:105140000002104480F83210FFE743F6E630C2F266
:105150000000017801310170BAE743F6E630C2F28F
:1051600000000078FCF710FBFFE743F6DC30C2F2EA
:10517000000001883231018096E71C2000F024F8FD
:10518000FFE7FFE7FFE7FFE704B080BD81B001461E
:105190008DF803009DF90300002813D4FFE79DF963
:1051A000030000F01F01012202FA01F140094EF252
:1051B0008012CEF2000242F82010BFF34F8FBFF3EF
:1051C0006F8FFFE701B0704781B001468DF8030093
:1051D0009DF9030000280FD4FFE79DF9030000F0BC
:1051E0001F01012202FA01F140094EF20012CEF233
:1051F000000242F82010FFE701B0704782B002467B
:105200008DF8070000919DF9070000280AD4FFE7F8
:10521000009800019DF907104EF20042CEF2000204
:1052200088540BE0009800019DF8071001F00F0171
:105230004EF61452CEF200028854FFE702B07047D7
:1052400081B000900098816841F008018160FFE71B
:10525000009880680007002801D5FFE7F8E700986C
:10526000816841F004018160FFE700988068400791
:10527000002801D5FFE7F8E701B0704784B00B467E
:1052800003908DF80B1001929DF80B000146012848
:10529000009104D0FFE70098022812D023E0039881
:1052A000C16A21F47001C16201980021CFF6F0714A
:1052B00001EB00503FFA80F00399CA6A1043C862BC
:1052C00012E00398816B21F4401181630198002161
:1052D000CFF6F07101EB005000F4401003998A6B97
:1052E0001043886300E0FFE704B0704782B001908C
:1052F00000910098002806D0FFE70198816841F4EA
:105300000061816005E00198816821F4006181609D
:10531000FFE702B07047000081B0009000988168FC
:1053200041F48071816001B07047000081B000904D
:1053300000988068C007002806D1FFE700988168C0
:1053400041F001018160FFE701B0704782B0134670
:105350008C4601908DF803108DF802209DF8020014
:10536000002819D0FFE79DF80300C007002806D0E9
:10537000FFE70198816841F480118160FFE79DF8A3
:1053800003008007002806D5FFE70198816841F4F3
:1053900000418160FFE718E09DF80300C007002886
:1053A00006D0FFE70198816821F480118160FFE752
:1053B0009DF803008007002806D5FFE70198816863
:1053C00021F400418160FFE7FFE702B07047000071
:1053D00084B00B4603908DF80B1001929DF80B00E2
:1053E00001460128009104D0FFE7009802280BD065
:1053F00015E00398816821F4602181600198039988
:105400008A68104388600BE00398816821F4E041CA
:105410008160019803998A681043886000E0FFE783
:1054200004B0704781B0009042F20440C4F2010021
:10543000016821F470210160009902681143016044
:1054400001B0704780B585B094468E4604908DF8C3
:105450000F108DF80E2002939DF80F0005281CDC1C
:10546000FFE70498406B01909DF80F0000EB80006F
:105470001F2101FA00F0019921EA000001909DF836
:105480000E009DF80F1001EB81018840019908433F
:10549000019001980499486348E09DF80F000B289B
:1054A0001EDCFFE70498006B01909DF80F0000EBF5
:1054B00080001E381F2101FA00F0019921EA000046
:1054C00001909DF80E009DF80F1001EB81011E392F
:1054D000884001990843019001980499086324E0E9
:1054E0009DF80F000F281EDCFFE70498C06A0190AA
:1054F0009DF80F0000EB80003C381F2101FA00F0FE
:10550000019921EA000001909DF80E009DF80F100E
:1055100001EB81013C3988400199084301900198D1
:105520000499C86200E0FFE7FFE7FFE79DF80E007F
:1055300009281BDCFFE70498006900909DF80E0025
:1055400000EB4000072101FA00F0009921EA000079
:10555000009002989DF80E1001EB410188400099DF
:105560000843009000980499086123E09DF80E001C
:1055700011281DDCFFE70498C06800909DF80E001C
:1055800000EB40001E38072101FA00F0009921EAE3
:105590000000009002989DF80E1001EB41011E39A9
:1055A000884000990843009000980499C86000E082
:1055B000FFE7FFE705B080BD82B001900091019840
:1055C000D0F8801021F44051C0F880100098019963
:1055D000D1F880201043C1F8800002B0704700006D
:1055E00082B00A4601908DF803109DF80300C007B1
:1055F000002806D0FFE70198816841F480018160AE
:10560000FFE79DF803008007002806D5FFE7019813
:10561000816841F400118160FFE702B0704700002B
:1056200083B01346029001918DF803209DF803008A
:10563000002825D0FFE79DF80500C007002806D008
:10564000FFE70298416841F480714160FFE79DF8EF
:1056500005004007002806D5FFE70298416841F49D
:1056600080614160FFE79DF804008007002806D5AF
:10567000FFE70298816841F002018160FFE724E0C2
:105680009DF80500C007002806D0FFE70298416892
:1056900021F480714160FFE79DF805004007002874
:1056A00006D5FFE70298416821F480614160FFE779
:1056B0009DF804008007002806D5FFE7029881685E
:1056C00021F002018160FFE7FFE703B070470000AF
:1056D00080B584B00390039846F20041C4F2000103
:1056E000884209D1FFE740F21940029001F02EFAFA
:1056F000029801F013FA08E040F21A40019001F01C
:1057000025FA019801F00AFAFFE704B080BD000015
:1057100082B001900020009001984089012101FA97
:1057200000F0009046F20060C4F20000016841F011
:1057300001010160009846F21C61C4F200010A6890
:1057400022EA000008600198C089002822D1FFE702
:10575000009846F20C61C4F200010A6822EA0000D7
:1057600008600198C188428842EA0141408946F2B6
:105770004062C4F2000242F8301001988188028829
:1057800042EA0141408946F24462C4F2000242F812
:105790003010FFE70198C089012821D1FFE7009868
:1057A00046F20C61C4F200010A68104308600198D7
:1057B0000188428842EA0141408946F24062C4F2CF
:1057C000000242F8301001988188C28842EA014103
:1057D000408946F24462C4F2000242F83010FFE70A
:1057E0000198808900280AD1FFE7009846F20461F9
:1057F000C4F200010A6822EA0000086008E000988C
:1058000046F20461C4F200010A6810430860FFE731
:105810000198008900280AD1FFE7009846F2146138
:10582000C4F200010A6822EA0000086008E000985B
:1058300046F21461C4F200010A6810430860FFE7F1
:105840000198007C012809D1FFE7009846F21C610D
:10585000C4F200010A6810430860FFE746F20060E6
:10586000C4F20000016821F00101016002B070473C
:1058700082B00A460190ADF80210BDF8020000F0B7
:105880001F01012303FA01F1019B800953F800C0B5
:1058900041EA0C01195002B07047000083B00A467B
:1058A0000190ADF802100198BDF802108909405826
:1058B000BDF8021001F01F01C840C007002804D045
:1058C000FFE701208DF80B0003E000208DF80B00AE
:1058D000FFE79DF80B0003B07047000080B586B06D
:1058E0000590049101208DF80F00049844F24021A6
:1058F000C0F20F01884229D8FFE70598012100F086
:1059000069FA012812D1FFE70598C0690290029850
:1059100000F040400290029804990190084600F07F
:1059200081FB019908430599C86103E000208DF8C7
:105930000F00FFE70598022100F04CFA012804D07F
:10594000FFE700208DF80F00FFE703E000208DF84F
:105950000F00FFE79DF80F0006B080BD80B586B050
:10596000059004914FF6FF70039000208DF80B0016
:105970000598016821F0020101600598016841F075
:1059800001010160FFE7059840680021C007002879
:10599000019106D1FFE70398002818BF012001906C
:1059A000FFE70198C007002804D0FFE703980138FB
:1059B0000390E8E705984068C007002804D1FFE796
:1059C00000208DF80B00B4E00498017842788378C9
:1059D00090F803C04FF0F85E0EEA026242EA81716D
:1059E0001A0442EA831241F60043C0F20F031A4040
:1059F00011444FEA0C5242EA8C2246F20003C0F2F4
:105A000070031A401144408901386FF39F20084405
:105A10000599C86104980079012806D1FFE7059827
:105A2000016841F08001016005E00598016821F0FE
:105A300080010160FFE704984079012806D1FFE763
:105A40000598016841F04001016005E00598016892
:105A500021F040010160FFE704988079012806D118
:105A6000FFE70598016841F02001016005E0059815
:105A7000016821F020010160FFE70498C079012846
:105A800006D1FFE70598016821F01001016005E0EB
:105A90000598016841F010010160FFE70498007A61
:105AA000012806D1FFE70598016841F0080101606F
:105AB00005E00598016821F008010160FFE70498FE
:105AC000407A012806D1FFE70598016841F00401FA
:105AD000016005E00598016821F004010160FFE71D
