:020000040800F2
:10000000A0190020650100086D0100086F010008BB
:10001000710100087301000875010008000000006C
:100020000000000000000000000000007701000850
:1000300079010008000000007B010008B9420008B7
:100040007F0100087F0100087F0100087F01000890
:100050007F0100087F0100087F0100087F01000880
:100060007F0100087F0100087F0100087F01000870
:100070007F0100087F0100087F0100087F01000860
:100080007F0100087F0100087F0100087F01000850
:100090007F0100087F0100087F0100087F01000840
:1000A0007F010008A94300087F0100087F010008C4
:1000B000D14300087F0100087F0100087F0100088C
:1000C0007F0100087F0100087F0100087F01000810
:1000D0007F0100087F0100087F0100087F01000800
:1000E0007F0100087F0100087F0100087F010008F0
:1000F0007F0100087F0100087F0100080000000068
:100100007F01000800000000BD4400087F010008D6
:100110007F0100087F0100087F0100087F010008BF
:100120007F0100087F0100087F0100087F010008AF
:100130007F01000800000000000000007F010008AF
:100140007F0100087F0100087F0100087F0100088F
:10015000DFF80CD000F028FA00480047395C0008AE
:10016000A01900200648804706480047FEE7FEE742
:10017000FEE7FEE7FEE7FEE7FEE7FEE7FEE7FEE757
:10018000354300085101000840EA01039B0703D0F2
:1001900009E008C9121F08C0042AFAD203E011F8C6
:1001A000013B00F8013B521EF9D2704730B50446BE
:1001B0000020034600E05B1C934203D2E05CCD5C70
:1001C000401BF8D030BD000070B50F4D00B9286855
:1001D000002412E00A4602E09E4203D0521C13782B
:1001E000002BF9D1DAB2224305D02BB124B1002182
:1001F00000F8011B04E00446401C0678002EE9D1FB
:100200002860204670BD0000000000202DE9FE4F50
:10021000804681EA0300C00F0C46009021F00041A7
:1002200023F00045B8EB0200A94105D24046214623
:1002300090461C460B46024623F00040104347D030
:10024000270DC7F30A00C3F30A510290401A019028
:1002500040286BDAC3F3130040F4801B00989246E9
:1002600020B10023D2EB030A63EB0B0B0198594634
:10027000C0F14002504600F009F906460D465046CE
:100280005946019A00F021F910EB08006141002461
:1002900087EA115284EAE7731A4340D0009A62B3A6
:1002A000019A012A4FEA075215DC001B61EB02019B
:1002B0004FF0004202EA0752CDE90042001C41F52E
:1002C000801132462B4600F021F903B0BDE8F08FD3
:1002D00040462146F9E7001B61EB0201001C41F595
:1002E000801300185B412018A2F5001747EB0301AB
:1002F00040EAD570B6196D4111E06D084FEA360637
:1003000045EAC0754FEA0752001B61EB0201001C71
:1003100041F5801149084FEA300000195141324639
:100320002B4603B0BDE8F04F00F0E1B80098012281
:1003300040000023D0EB020263EBE07300982146FB
:100340004FEAE074B8EB000061EB0401E9E783F0E9
:1003500000435BE781F0004158E72DE9F04D81EA69
:10036000030404F0004B21F0004514464FF0000A4E
:1003700023F0004150EA050220D054EA01021DD0CA
:10038000C5F30A570246C5F31303C1F31300C1F3C3
:100390000A5640F4801543F48013A7EB0608101B9F
:1003A000D64608F2FD3873EB050002D308F10108C8
:1003B00001E092185B41B8F1000F03DA002001461A
:1003C000BDE8F08D00204FF48011064684460EE013
:1003D000171B73EB050705D3121B63EB05030643DD
:1003E0004CEA010C49084FEA300092185B4150EA90
:1003F0000107EDD152EA030012D082EA040083EA39
:100400000501084305D0101BAB4106D20122002391
:1004100006E000224FF0004302E06FF001025310AB
:100420001AEB06004CEB085110EB0A0041EB0B01F4
:10043000BDE8F04D00F05BB80EB5C10F80EAE0708A
:100440000844CA07002140F233438DE80E000A46F3
:100450000B4600F05BF803B000BDC1F30A5210B5C3
:10046000C1F3130140F2FF3341F480119A4201DAE3
:10047000002010BD40F233439A42A2F2334203DC23
:10048000524200F012F810BD904010BD202A04DB4B
:10049000203A00FA02F1002070479140C2F1200397
:1004A00020FA03F3194390407047202A04DB203AD6
:1004B00021FA02F00021704721FA02F3D040C2F184
:1004C00020029140084319467047202A06DBCB17CB
:1004D000203A41FA02F043EAE07306E041FA02F3FF
:1004E000D040C2F12002914008431946704710B530
:1004F000141E73F1000408DA401C41F10001921847
:100500005B411A4301D120F0010010BD2DE9F04DEF
:1005100092469B4611B1B1FA81F202E0B0FA80F244
:1005200020329046FFF7B2FF04460F4640EA0A0029
:1005300041EA0B0153465A46084313D0114653EA89
:10054000010019D0C8F140025046FFF7AEFF054642
:100550000E46504659464246FFF798FF084305D0DD
:10056000012004E020463946BDE8F08D0020054317
:1005700046EAE0762C4337430A986305E40AA0EB89
:1005800008000022FD0A44EA47540A3002D5002040
:100590000146E9E7010510196941DDE9084500193F
:1005A0006941BDE8F04DA2E7064C074D06E0E06862
:1005B00040F0010394E8070098471034AC42F6D3AA
:1005C000FFF7CAFD007200082072000880B542F2F1
:1005D0000040C4F20100012104F01CFBFFE70020F1
:1005E000C4F202000021022205F036F9002801D1F0
:1005F000FFE7F4E70020C4F202000021022205F028
:1006000019F980BD80B582B001900198B0F8A010B2
:1006100001600198002141600198017201984172C6
:10062000019890F8A4108172019946F20040C4F23A
:10063000000004F09DFD41F23F51C2F2000108703C
:10064000087801460028009108D0FFE700980128AB
:100650000CD0FFE70098022810D017E041F230508C
:10066000C2F200004FF40071016017E041F2305017
:10067000C2F200004FF4027101600FE041F230500D
:10068000C2F200004FF40471016007E041F2305003
:10069000C2F200004FF400710160FFE7FFE741F292
:1006A0003050C2F20000018846F20040C4F200005F
:1006B00004F00EFC012801D1FFE7F0E741F23050D1
:1006C000C2F20000018846F20040C4F2000004F0CB
:1006D000E9FB02B080BD000070B582B013468C46C5
:1006E00001908DF80310ADF80020BDF8000044F62D
:1006F000D351C1F26201A0FB0101890946F2676290
:10070000C6F2666251FB02FE4FEA9E0404EBDE7EF7
:100710000EEB8E0EA1EB4E013031DDF804E09DF8BA
:1007200003400EF80410BDF8001048F21F5EC5F239
:10073000EB1EA1FB0E1E4FEA5E1E5EFB02F4A50837
:1007400005EBD47404EB8404AEEB440E0EF1300ED2
:10075000019C9DF803502C4484F801E0BDF800E0B2
:100760004CF6CD44CCF6CC44AEFB04E5ED0855FB8D
:1007700002F2960806EBD27202EB8202A5EB42026D
:100780003032019D9DF803603544AA70BDF8002009
:10079000A2FB0445ED0805EB8505A2EB450242F0FE
:1007A0003002019D9DF803603544EA7002B070BDCF
:1007B00080B590B000208DF83E0040F20801C2F2F2
:1007C00000010B9101218DF83D104FF400620C9255
:1007D00042F24C42C4F2010209928DF83C004FF4FF
:1007E00000720A9203220D924FF440530E9300239D
:1007F000C4F202030DF1240C08901846DDF820E045
:100800000791714606926246059305F041F80598F6
:10081000089904F0F1FF0598089904F0B1FF4FF42E
:10082000C02004F019F942F20040C4F201004FF474
:10083000807104900391079A04F00CFA0220049945
:10084000029008460299089A04F004FA049808995C
:1008500004F066F80498089904F0C8F90498079918
:10086000069A04F025F842F60000C4F20100019057
:100870000399079A04F0EEF901980299089A04F096
:10088000E9F90198089904F04BF80198089904F0E7
:10089000ADF901980799069A04F00AF84FF4602020
:1008A0000499009008460799009A04F0ABF8049860
:1008B0000799079A04F064F801980799009A04F0E0
:1008C000A1F801980799079A04F05AF80498089932
:1008D000089A089B04F0D0F804980799069A089B98
:1008E00004F0CAF8072204980299089B04F0C4F89F
:1008F00001980899029A089B04F0BEF80522019815
:100900000799089B04F0B8F80F2201980299089BF8
:1009100004F0B2F8049804F023F8049803F0AAFF56
:10092000019804F01DF8019803F0A4FF049804F066
:100930000DF847F20040C4F20000016841F00101E7
:10094000016008980899089A04F012FE089804F0CB
:1009500069FE10B080BD000080B582B040F6000096
:10096000C4F20100042141F6BD730191019A05F022
:1009700083F840F60040C4F2010046F6176301997F
:10098000019A05F079F841F20000C4F201004FF439
:1009900060430199019A05F06FF802B080BD000034
:1009A00080B58CB00B9040F2197005F01DFB46F23B
:1009B0000040C4F20000019004F0A4F900208DF87A
:1009C00021008DF823008DF822008DF824008DF889
:1009D0001D0004218DF81E1002218DF81F108DF8C6
:1009E00020008DF825000B9800798DF81C0007A9D0
:1009F000019804F0CDFA0B990968FA2900910AD000
:100A0000FFE70098B0F5FA7F05D0FFE70098B0F552
:100A10007A7F0CD1FFE70B9800684FF47A7141435D
:100A200046F20040C4F2000004F072FA0AE046F216
:100A30000040C4F200004EF64801C0F2010104F08B
:100A400067FAFFE70020ADF81200ADF814000121AD
:100A5000ADF81610ADF80800ADF80A00ADF80C00BE
:100A6000ADF80E000B984079ADF810008DF8181015
:100A700002A804F067F90CB080BD000080B582B018
:100A80004FF4C06005F0B0FA40F2026005F0ACFA35
:100A900040F60000C4F20100482103224FF4006335
:100AA0000190009204F0E8FF18214FF48053019860
:100AB000009A04F0E1FF02B080BD000080B58AB06A
:100AC00040F2026005F090FA40F2036005F08CFA03
:100AD00040F2046005F088FA40F2056005F084FAFF
:100AE00040F2066005F080FA40F2096005F07CFAF9
:100AF00040F20A6005F078FA4FF4A06005F074FA4D
:100B000040F21D7005F070FA4FF4C06005F06CFA09
:100B100041F20000C4F2010004214FF42043099087
:100B20000891089A04F0A8FF41F60000C4F2010001
:100B30004FF48061089A07911146079B04F09CFFCF
:100B400040F60040C4F201001021062306900591F2
:100B5000089A04F091FF4FF48040099904900846E8
:100B60000599089A049B04F087FF012306980599CC
:100B7000089A04F081FF4FF400700699039008462C
:100B80000599089A039B04F077FF40F60000C4F231
:100B9000010002900599089A079B04F06DFF0698E2
:100BA0000899089A059B04F067FF182002990190A4
:100BB00008460199089A039B04F05EFF4FF4807386
:100BC00002980199089A04F057FF06980199089A2B
:100BD000049B04F051FF4FF4005306980199089AC2
:100BE00004F04AFF022302980199089A04F044FF96
:100BF0000020AD230299009008460099089A04F05D
:100C00003BFF202309980099089A04F035FF03223E
:100C100002980099059B04F02FFF0AB080BD0000E8
:100C200080B586B001468DF817000020C4F202009E
:100C30000122022304900391114602921A4604F005
:100C4000F9FD0498029904F07DFD9DF817200498A1
:100C5000029904F0E3FE44F60000C4F20000802193
:100C600006F024F90498029904F08AFDFFE744F69F
:100C70000000C4F20000062106F04EF9002802D15F
:100C8000FFE700BFF3E744F60000C4F200000621CE
:100C9000019006F02BF90021019806F007F906B043
:100CA00080BD000010B590B00F904FF4A06005F02B
:100CB0009BF940F2127005F097F940F2065005F0EA
:100CC00093F900208DF83A000F9949690A910121A2
:100CD0008DF839100B9044F60402C4F20002089219
:100CE0008DF8380009900C904FF440530D9340F26A
:100CF000000CC4F2020C4FF0020E08AC07906046E4
:100D000006917146059222460493CDF80CC0CDF8A9
:100D100008E0019404F0BCFD0398029904F06CFD16
:100D20000398029904F02CFD06988DF83A000F996B
:100D300009690A918DF8390007990B91059A089273
:100D40008DF8381009910C91049B0D930398069926
:100D5000019A04F09DFD0398069904F02FFD039875
:100D6000069904F00DFD44F60000C4F20000009066
:100D700006F02AF80F980168009805F0A7FF0F9871
:100D80004168009806F014F90F98C168009806F0C1
:100D90007BF90F988168009806F050F90098079940
:100DA00005F0FAFF0098079906F0ECF8009807990B
:100DB00006F0D2F8009806F021F93221009806F0EA
:100DC00029F94021009806F05BF88021009806F090
:100DD0006DF80821009806F041F90421009806F00A
:100DE000F7F8009806F078F810B010BD80B582B022
:100DF00001468DF80700FFE744F60000C4F200004A
:100E000042F2102106F088F8002801D0FFE7F3E74E
:100E10009DF80700FFF704FF02B080BD80B582B0E7
:100E20004FF4C06005F0E0F840F2036005F0DCF834
:100E300040F60040C4F20100182103224FF4806301
:100E40000190009204F018FE04214FF40063019811
:100E5000009A04F011FE02B080BD0000B0B598B059
:100E6000179040F2015005F0BFF840F20F7005F006
:100E7000BBF800208DF85A0017998968129101215A
:100E80008DF859104FF48072139243F60C43C4F25C
:100E9000000310938DF85800119214904FF4405CA9
:100EA000CDF854C040F2004EC4F2020E10AC0890CF
:100EB0007046089D07912946069222460593CDF873
:100EC00010C0CDF80CE0029404F0E2FC03980899FD
:100ED00004F092FC0398089904F052FC07988DF8EE
:100EE0005A001799496812918DF859000699139183
:100EF000059A1092089B8DF8583011911493DDF8E3
:100F000010C0CDF854C003980799029A04F0C0FCB1
:100F100043F60040C4F20000019005F0E7F809A88C
:100F2000009005F06DF94FF48270099008980A90CE
:100F3000179909680B910C901799897B0D91179956
:100F4000497B0E911799097B0F910198009905F043
:100F50001DF9019805F0C0F818B0B0BD80B584B097
:100F600001468DF80F0040F20040C4F2020000225A
:100F7000029001911146009204F0E4FB9DF80F20CD
:100F80000298009904F04AFD43F60040C4F20000C4
:100F9000012105F089F80298009904F0F1FBFFE7C0
:100FA00040F20040C4F202000021022204F054FC8E
:100FB000002801D1FFE7F3E740F20040C4F202004D
:100FC0000021022204F036FC43F60040C4F2000087
:100FD000012105F051F804B080BD000080B584B057
:100FE00001468DF80F0040F20040C4F202000122D9
:100FF000029001911146009204F0A4FB9DF80F208D
:101000000298009904F00AFD43F60040C4F2000083
:10101000002105F049F80298009904F0B1FBFFE7C0
:1010200040F20040C4F202000121022204F014FC4C
:10103000002801D1FFE7F3E740F20040C4F20200CC
:101040000121022204F0F6FB43F60040C4F2000046
:10105000002105F011F804B080BD000080B5FFE765
:1010600043F60040C4F20000012105F079F80028A1
:1010700001D1FFE7F4E71420FFF770FF80BD000007
:1010800080B582B001468DF80700FFE743F60040C7
:10109000C4F20000022105F063F8002801D1FFE747
:1010A000F4E79DF80700FFF799FF02B080BD00004C
:1010B00080B584B04FF4C06004F096FF40F2036046
:1010C00004F092FF40F60040C4F201001821032210
:1010D000202303900291019204F0CEFC0823039890
:1010E0000299019A04F0C8FC04B080BD80B592B0AA
:1010F000119011981090119840080F9040F20B60D9
:1011000004F072FF42F60040C4F20100039005F0C3
:10111000FBFB10980D900020ADF82C00ADF83800C6
:10112000ADF82E00ADF83000FF218DF83A100BA974
:10113000039A0290104605F0E7FC0120ADF820006C
:101140000421ADF822100299ADF82410ADF8261054
:10115000ADF82810ADF82A1008AA039B0190184694
:10116000009205F06FF903980199009A05F06AF969
:1011700003980299029A05F083FB03980299029A58
:1011800005F020F903980199029A05F079FB03987C
:101190000199029A05F016F90F9A0398029905F041
:1011A00003FB60220398029905F0B6FA03980299AE
:1011B000029A05F01DFB0F9A0398019905F0F4FAC5
:1011C00070220398019905F0A7FA03980199029AF1
:1011D00005F00EFB1520ADF814000298ADF81600CE
:1011E000ADF81000ADF812004FF48041ADF81810C2
:1011F000ADF81A00ADF81C0004A9039805F0CCF86E
:1012000019200221029A04F039FD0398019905F092
:1012100011FD039805F06EFC12B080BD80B58AB058
:101220000990099808904FF4E06004F0DDFE4FF05B
:101230008040039005F068FB089806900020ADF808
:101240001000ADF81C00ADF81200ADF814008DF8D8
:101250001E0004A9039A0290104605F055FC1C20BC
:1012600001210191029A04F009FD0398019905F00A
:10127000E1FC0398019905F011FD039805F082F84F
:10128000039805F037FC0AB080BD000080B590B02F
:101290000F900F980E900F9840080D9040F2037039
:1012A00004F0A2FE40F60040C4F20000019005F0F8
:1012B0002BFB0E980B900020ADF82400ADF8300009
:1012C000ADF82600ADF82800FF208DF8320009A9FE
:1012D000019805F019FC0121019805F0ABFC3220C2
:1012E00003F06EFA019805F005FC10B080BD000017
:1012F00080B586B001468DF817000020C4F20200C8
:101300000422049003911146029204F01BFA9DF806
:1013100017200498029904F081FB43F60000C4F200
:101320000100402105F0ACFD0498029904F028FA70
:10133000FFE70020C4F202000421022204F08CFA2C
:101340000021002801910DD1FFE743F60000C4F20F
:10135000010042F20B2105F0DFFDB0FA80F04009F8
:101360000190FFE70198C007002802D0FFE700BF07
:10137000DFE743F60000C4F2010042F20B210090C7
:1013800005F0B4FD0021009805F07AFD06B080BD9F
:1013900080B586B001468DF817000020C4F2020027
:1013A0000322022304900391114602921A4604F08C
:1013B00041FA0498029904F0C5F99DF817200498A1
:1013C000029904F02BFB43F60000C4F201008021D7
:1013D00005F06CFD0498029904F0D2F9FFE743F69A
:1013E0000000C4F20100062105F096FD002802D19C
:1013F000FFE700BFF3E743F60000C4F20100062157
:10140000019005F073FD0021019805F04FFD06B035
:1014100080BD000010B592B011904FF4A06004F0B0
:10142000E3FD40F20E6004F0DFFD40F2065004F0F0
:10143000DBFD00208DF84200119949690C910121D2
:101440008DF841100D9043F60402C4F201020A9295
:101450008DF840000B900E904FF440530F9340F2E4
:10146000000CC4F2020C4FF0040E0AAC0990604666
:1014700008917146079222460693CDF814C0CDF824
:1014800010E0039404F004FA0598049904F0B4F908
:101490000598049904F074F908988DF842001199A0
:1014A00009690C918DF8410009990D91079A0A92EA
:1014B0008DF840100B910E91069B0F934FF0030C8B
:1014C00005986146039ACDF808C004F0E1F9059843
:1014D000029904F073F90598029904F051F943F662
:1014E0000000C4F20100019005F06EFC1198016843
:1014F000019805F0EBFB11984168019805F058FD43
:101500001198C168019805F0BFFD11988168019894
:1015100005F094FD0198099905F03EFC01980999A0
:1015200005F030FD0198099905F016FD1421019888
:1015300005F070FD019805F061FD4021019805F06E
:101540009FFC8021019805F0B1FC0821019805F06D
:1015500085FD0198049905F03BFD019805F0BCFC60
:1015600012B010BD80B5FFE743F60000C4F20100E1
:1015700042F2102105F0D0FC002801D0FFE7F3E78C
:101580003220FFF7B5FE80BD80B582B001468DF8F0
:101590000700FFE743F60000C4F2010042F2102109
:1015A00005F0BAFC002801D0FFE7F3E79DF807003B
:1015B000FFF7EEFE02B080BD80B582B04FF4C06090
:1015C00004F012FD40F2036004F00EFD0420C4F2AA
:1015D0000100016841F00401016040F60040C4F2DE
:1015E00001001821032240230190009204F044FAE4
:1015F000042180230198009A04F03EFA02B080BDD5
:101600002DE9F04FC7B000208DF81B018DF81A01AD
:10161000ADF8180140F24010C2F2000090F86500E9
:10162000002802F00C85FFE740F24010C2F20000F3
:10163000002180F865101C214590084603F0C0F891
:1016400041F24050C2F20000322244904599FEF728
:101650009BFD47F20A11C0F60001449A43901046E0
:10166000FEF7B2FD41F29051C2F200010860086835
:1016700047F22A11C0F600010322FEF797FD002869
:1016800009D0FFE741F24050C2F200000078102874
:1016900040F0AD82FFE747F20A11C0F600010020DA
:1016A000FEF792FD41F29051C2F200010860086815
:1016B000008844F64F61884208D0FFE741F240506D
:1016C000C2F20000407805284ED1FFE742F6004004
:1016D000C4F201000021012242904191409205F0A4
:1016E000CFF8042042993F90084641993F9A04F070
:1016F00069FE42984099409A05F0C2F84298409994
:101700003F9A04F05FFE41F29050C2F20000006880
:10171000008844F64F6188421AD1FFE740F240103A
:10172000C2F2000045F25241C0F60D21C0F8391056
:1017300045F25341C5F24121C0F8361045F25071CF
:10174000C2F24D01C0F832100B20FFF71DFF0AE076
:1017500040F24010C2F20000AC2180F832100120AB
:10176000FFF712FFFFE740E241F29050C2F20000A3
:10177000006847F21711C0F600010322FEF716FDBC
:10178000002808D0FFE741F24050C2F20000407844
:101790000A284ED1FFE742F60040C4F201000021C2
:1017A0003E903D913D9A05F06BF83E983D993D9AEB
:1017B00004F008FE01203E993C9008463C993D9A71
:1017C00005F05EF83E983C993D9A04F0FBFD41F22D
:1017D0009050C2F20000006847F21711C0F60001F5
:1017E0000322FEF7E3FC002817D1FFE740F2401088
:1017F000C2F2000040F60D21418745F25341C5F287
:101800004F01C0F8361045F25071C2F24D01C0F8D8
:1018100032100A20FFF7B8FE0AE040F24010C2F290
:101820000000AC2180F832100120FFF7ADFEFFE789
:10183000DAE141F29050C2F200000068006845F21F
:101840004621C5F24511884209D0FFE741F24050D8
:10185000C2F200004078FC2840F08780FFE741F2A8
:101860009050C2F200000068006845F24621C5F2BF
:10187000451188424AD1FFE747F20A11C0F600013C
:101880000020FEF7A1FC41F29051C2F20001086075
:10189000086802F0B5FCFEF7CFFD41EC100B9FEDA0
:1018A000EA1B51EC110B53EC102BFEF756FD41ECEB
:1018B000100B51EC100B9FEDE60B53EC102BFEF7C9
:1018C000A5FC41EC100B51EC100BFEF7C6FDFFF729
:1018D0000DFC40F24010C2F2000040F60D21C1871D
:1018E00045F24141C4F24541C0F83A1045F2205159
:1018F000C4F25041C0F8361045F24621C5F24511F8
:10190000C0F832100E20FFF73FFE2DE041F24050AC
:10191000C2F200008078FEF78FFD41EC100B9FEDC6
:10192000CA1B51EC110B53EC102BFEF716FD41ECCA
:10193000100B51EC100B9FEDC60B53EC102BFEF768
:1019400065FC41EC100B51EC100BFEF786FDFFF728
:10195000CDFB40F24010C2F20000AC2180F8321002
:101960000120FFF711FEFFE73DE141F29050C2F286
:1019700000000068008845F24441884208D0FFE733
:1019800041F24050C2F200004078D1285FD1FFE719
:1019900041F29050C2F200000068008845F24441D4
:1019A000884238D1FFE747F20A11C0F60001002053
:1019B000FEF70AFC41F29051C2F20001086042F6C3
:1019C0004440C4F20100026822F0FF02026009688C
:1019D0003B90084602F014FCC0B23B990A681043E1
:1019E000086040F24010C2F2000044F24542C0F6E6
:1019F0000D22C0F83A2044F25042C5F24142C0F8EC
:101A0000362045F24442C5F22052C0F832200C2064
:101A1000FFF7BAFD1AE042F64440C4F20100016843
:101A200021F0FF01016041F24051C2F200018978CA
:101A300002681143016040F24010C2F20000AC2184
:101A400080F832100120FFF79FFDFFE7CAE041F266
:101A50009050C2F200000068008844F2443188428D
:101A600009D0FFE741F24050C2F200004078DC2884
:101A700040F0B780FFE741F29050C2F200000068EA
:101A8000008844F2443188426BD1FFE747F20A11E3
:101A9000C0F600010020FEF797FB41F29051C2F220
:101AA0000001086042F62C40C4F2010090ED000AEB
:101AB000B8EE400A0A683A90104639918DED380A1E
:101AC00002F09EFB00EE100AB8EEC00A9FED621A0B
:101AD00080EE010A9DED382A22EE000ABCEEC00A13
:101AE00042F63440C4F2010080ED000A3A9890EDCD
:101AF000000AB8EE400A399908688DED371A8DED65
:101B0000360A02F07DFB00EE100AB8EEC00A9DED29
:101B1000371A80EE010A9DED362A22EE000ABCEE4D
:101B2000C00A42F63840C4F2010080ED000A40F2DB
:101B30004010C2F2000044F24541C0F60D21C0F849
:101B40003A1044F25041C5F24141C0F8361044F217
:101B50004431C5F22051C0F832100C20FFF714FDBB
:101B60003EE042F62C40C4F2010090ED000AB8EECF
:101B7000400A41F24051C2F200018A7801EE102A77
:101B8000B8EEC11A9FED342A81EE021A20EE010A46
:101B9000BCEEC00A42F63442C4F2010282ED000AF1
:101BA00090ED000AB8EE400A887801EE100AB8EE0F
:101BB000C11A81EE021A20EE010ABCEEC00A42F6FA
:101BC0003840C4F2010080ED000A40F24010C2F239
:101BD0000000AC2180F832100120FFF7D5FCFFE7B0
:101BE000FFE7FFE7FFE7FFE7FFE702F00CBA41F28C
:101BF0009050C2F20000006847F21311C0F60001D5
:101C00000322FEF7D3FA002809D0FFE741F2405043
:101C1000C2F200000078AD2840F01683FFE747F2DB
:101C20000A11C0F600010020FEF7CEFA41F29051F1
:101C3000C2F2000108600868006844F25251C4F220
:101C40004141884213D009E000000000004CFD40F3
:101C5000000000000000F0BF0000C84241F2405008
:101C6000C2F200004078FD2840F0A181FFE700208B
:101C70008DF81B01FFE79DF81B0109282ADCFFE70F
:101C8000FEF7A4FC00208DF81A01FFE79DF81A0169
:101C9000052818DCFFE79DF81A0140F20801C2F29E
:101CA000000131F8101041F27452C2F2000252F8F1
:101CB0002030194442F82010FFE79DF81A01013046
:101CC0008DF81A01E2E7FFE79DF81B0101308DF85E
:101CD0001B01D0E741F29050C2F20000006800689A
:101CE00044F25251C4F24141884240F0C380FFE7C0
:101CF00040F24010C2F2000044F24921C5F25531D1
:101D000040F8321F42F23A01818041F27452C2F22D
:101D1000000213684CF6CD4CCCF6CC4CA3FB0C3E29
:101D2000CEF3CF0E0624359034912146339272467D
:101D3000CDF8C8C031933094FEF7CEFC0D20359914
:101D400088720A22CA720C232F9018462E922D9365
:101D5000FFF71AFC34983599888044F25612C4F67D
:101D600043420A60339A5368DDF8C8C0A3FB0C3EB7
:101D7000CEF3CF02084630992C93FEF7ADFC2F9896
:101D8000359988722E9ACA722D98FFF7FDFB44F69A
:101D90004940C2F23A003599086033988268329B14
:101DA000A2FB032CCCF3CF0C042135982B92624676
:101DB000FEF792FC2F98359908722E9A4A721046B7
:101DC000FFF7E2FB34983599888044F25452C5F20B
:101DD0004D020A60339AD368DDF8C8C0A3FB0C3EFD
:101DE000CEF3CF02084630992A93FEF775FC2F9860
:101DF000359988722E9ACA722D98FFF7C5FB3498D0
:101E00003599888044F25612C4F643520A60339AD8
:101E10001369DDF8C8C0A3FB0C3ECEF3CF02084621
:101E200030992993FEF758FC2F98359988722E9A8D
:101E3000CA722D98FFF7A8FB34983599888044F230
:101E40005622C5F255320A60339A5369DDF8C8C08C
:101E5000A3FB0C3ECEF3CF02084630992893FEF741
:101E60003BFC2F98359988722E9ACA722D98FFF7ED
:101E70008BFB82E041F27450C2F2000001684CF624
:101E8000CD42CCF6CC42A1FB0213DB0A40F2401C4F
:101E9000C2F2000C8CF832300368A3FB023E4FEA1A
:101EA000DE0E8CF833E04FF0200E8CF834E04468FE
:101EB000A4FB0245ED0A8CF835504568A5FB025697
:101EC000F6088CF836608CF837E08668A6FB026767
:101ED000FF0A8CF838708768A7FB02784FEAD808A9
:101EE0008CF839808CF83AE0D0F80C80A8FB028995
:101EF0004FEAD9298CF83B90D0F80C90A9FB029AB4
:101F00004FEADA0A8CF83CA08CF83DE0D0F810A03B
:101F1000AAFB02AB4FEADB2B8CF83EB0D0F810B036
:101F20002790ABFB02B0C0088CF83F008CF840E073
:101F30002798D0F814E0AEFB02E0C00A8CF841000C
:101F400027984069A0FB0202D2088CF84220112297
:101F5000269010462591249323942295219620972C
:101F6000CDF87C80CDF87890CDF874A0CDF870B025
:101F7000CDF86CE0FFF708FBFFE700208DF81A01B1
:101F8000FFE79DF81A01052810DCFFE79DF81A010C
:101F900041F27451C2F20001002241F82020FFE713
:101FA0009DF81A0101308DF81A01EAE74AE141F281
:101FB0009050C2F20000006847F23A11C0F60001EA
:101FC0000722FEF7F3F8002809D0FFE741F240505E
:101FD000C2F2000040785A2840F03381FFE741F216
:101FE0009050C2F20000006847F23A11C0F60001BA
:101FF0000722FEF7DBF8002840F0D180FFE747F228
:102000000A11C0F6000100201A90FEF7DDF841F237
:102010009051C2F200010860086802F0F1F841F244
:102020009451C2F2000108801A988DF81B01FFE755
:102030009DF81B0141F29451C2F2000109888842C7
:1020400080F2AC80FFE7FEF7C1FA40F24010C2F226
:10205000000044F24921C5F2553140F8321F42F2E6
:102060003A01818040F20802C2F2000213884FF068
:10207000060C19901891614617921A46CDF858C06F
:10208000FEF72AFB0D20199988720A22CA720C23C6
:102090001590184614921393FFF776FA1898199929
:1020A000888044F25612C4F643420A60179A528856
:1020B00008461699FEF710FB159819998872149A1C
:1020C000CA721398FFF760FA44F64940C2F23A0028
:1020D000199908601798828804211998FEF7FCFA6C
:1020E000159819990872149A4A721046FFF74CFA1B
:1020F00018981999888044F25452C5F24D020A602A
:10210000179AD28808461699FEF7E6FA1598199993
:102110008872149ACA721398FFF736FA18981999A8
:10212000888044F25612C4F643520A60179A128904
:1021300008461699FEF7D0FA159819998872149ADC
:10214000CA721398FFF720FA18981999888044F2F8
:102150005622C5F255320A60179A528908461699D6
:10216000FEF7BAFA159819998872149ACA721398D8
:10217000FFF70AFA42F62D50C0F60D201999886033
:102180004FF02D30486008601398FFF7FDF9FFE726
:102190009DF81B0101308DF81B0149E750E041F229
:1021A0004050C2F200008178C07840EA012041F23C
:1021B0009451C2F20001088000208DF81B01FFE756
:1021C0009DF81B0141F29451C2F200010988884236
:1021D00035DAFFE7FEF7FAF940F20800C2F2000034
:1021E00001880A0242EA112140F2EA02C2F2000228
:1021F000D18541880B0243EA1121118681880B02A7
:1022000043EA11215186C1880B0243EA11219186CC
:1022100001890B0243EA1121D1864089010241EA7A
:10222000102010874FF4045050870E20FEF728FF2F
:10223000FFE79DF81B0101308DF81B01C0E7FFE7A8
:10224000FFE7FFE701F0DEBE41F29050C2F200006E
:10225000006847F20F11C0F600010322FDF7A6FF48
:10226000002808D0FFE741F24050C2F20000007899
:10227000DC2876D1FFE741F29050C2F200000068FE
:1022800047F20F11C0F600010322FDF78FFF00286F
:1022900036D1FFE747F20A11C0F600010020129084
:1022A000FDF792FF41F29051C2F200010860086808
:1022B00001F0A6FF129911900846119A03F058F9FF
:1022C000129803F0AFF940F24010C2F200000A2168
:1022D00080F83E1044F25451C0F64451C0F83A1010
:1022E00045F25501C4F24411C0F8361044F24411CD
:1022F000C2F24301C0F832100D20FFF745F92EE07D
:1023000040F2BC00C2F200000121017040F6004022
:10231000C4F20100042203234FF0100C1091114667
:102320001A46634603F0A8FB41F24050C2F2000097
:102330004178807840EA012200200F900F9903F045
:1023400017F90F9803F06EF940F24010C2F2000046
:10235000AC2180F832101098FFF716F9FFE701F072
:1023600050BE41F29050C2F200000068006845F291
:102370004701C4F64971884209D0FFE741F2405055
:10238000C2F2000000786F2841F05385FFE747F262
:102390000A11C0F600010020FDF716FF41F290512E
:1023A000C2F2000108600868006844F25251C4F2A9
:1023B0004141884209D0FFE741F24050C2F200009B
:1023C00040787D2840F0AC81FFE741F29050C2F2A6
:1023D00000000068006844F25251C4F24141884252
:1023E00040F01281FFE741F20000C4F201004FF417
:1023F000005103F00BFC01281DD1FFE740F2401013
:10240000C2F200000A2180F83E1044F24971C0F681
:102410004851C0F83A1043F64521C4F62001C0F8EF
:10242000361045F25341C5F24141C0F832100C203C
:10243000FFF7AAF819E040F24010C2F2000045F29E
:102440004F71C0F60D21C0F83A1043F64521C4F68D
:102450002041C0F8361045F25341C5F24141C0F861
:1024600032100B20FFF790F8FFE741F20000C4F2B2
:1024700001004FF4004103F0C9FB01281DD1FFE723
:1024800040F24010C2F2000040F60D21C18744F630
:102490004811C4F64701C0F83A1044F24C51C2F258
:1024A0003A01C0F8361044F64561C4F24121C0F843
:1024B00032100D20FFF768F81CE040F24010C2F225
:1024C00000000A2180F83E1044F64C71C0F65751C6
:1024D000C0F83A1044F24C51C2F23A01C0F836103A
:1024E00044F64561C4F24121C0F832100C20FFF7D8
:1024F0004BF8FFE741F60000C4F201004FF48061A1
:1025000003F084FB01281DD1FFE740F24010C2F226
:1025100000000A2180F83E1044F24971C0F648518B
:10252000C0F83A1043F64B21C4F62001C0F836102B
:1025300044F25741C4F65F71C0F832100C20FFF727
:1025400023F819E040F24010C2F2000045F24F714A
:10255000C0F60D21C0F83A1043F64B21C4F62041D5
:10256000C0F8361044F25741C4F65F71C0F832101B
:102570000B20FFF709F8FFE740F60040C4F2010026
:10258000102103F043FB012820D1FFE740F2401067
:10259000C2F2000044F64701C0F60D21C0F83D101C
:1025A00044F62001C4F24971C0F83A1044F65F11B4
:1025B000C3F64E21C0F8361045F65311C4F24E3121
:1025C000C0F832100E20FEF7DFFF1CE040F2401092
:1025D000C2F2000040F60D21C18744F62041C5F249
:1025E0004F71C0F83A1044F65F11C3F64E21C0F89F
:1025F000361045F65311C4F24E31C0F832100D209A
:10260000FEF7C2FFFFE789E040F24010C2F200008F
:10261000002180F8321041F20000C4F201004FF4B2
:10262000005103F0F3FA01280BD1FFE740F240100C
:10263000C2F2000090F832104900013180F83210E7
:1026400009E040F24010C2F2000090F83210490058
:1026500080F83210FFE741F20000C4F201004FF4AD
:10266000004103F0D3FA01280BD1FFE740F24010FC
:10267000C2F2000090F832104900013180F83210A7
:1026800009E040F24010C2F2000090F83210490018
:1026900080F83210FFE741F60000C4F201004FF469
:1026A000806103F0B3FA01280BD1FFE740F240103C
:1026B000C2F2000090F832104900013180F8321067
:1026C00009E040F24010C2F2000090F832104900D8
:1026D00080F83210FFE740F60040C4F201001021FC
:1026E00003F094FA01280BD1FFE740F24010C2F248
:1026F000000090F832104900013180F8321009E0F2
:1027000040F24010C2F2000090F83210490080F808
:102710003210FFE70120FEF737FFFFE701F088BB2B
:1027200041F29050C2F20000006847F21B11C0F65F
:1027300000010722FDF73AFD002809D0FFE741F22A
:102740004050C2F2000040787F2841F0AA80FFE7A5
:10275000FEF702F941F29050C2F20000006847F221
:102760001B11C0F600010722FDF720FD002840F0F4
:10277000C985FFE741F20000C4F201004FF40051A7
:1027800003F044FA01281DD1FFE740F24010C2F2E5
:1027900000000A2180F83E1044F24971C0F6485109
:1027A000C0F83A1043F64521C4F62001C0F83610AF
:1027B00045F25341C5F24141C0F832100D20FEF7F9
:1027C000E3FE19E040F24010C2F2000045F24F7102
:1027D000C0F60D21C0F83A1043F64521C4F6204159
:1027E000C0F8361045F25341C5F24141C0F83210ED
:1027F0000C20FEF7C9FEFFE741F20000C4F2010021
:102800004FF4804103F002FA01281DD1FFE740F2A6
:102810004010C2F200000A2180F83E1044F24971D3
:10282000C0F64851C0F83A1043F65921C4F62001C9
:10283000C0F8361044F25251C4F24141C0F832108F
:102840000D20FEF7A1FE19E040F24010C2F2000098
:1028500045F24F71C0F60D21C0F83A1043F65921E8
:10286000C4F62041C0F8361044F25251C4F241413E
:10287000C0F832100C20FEF787FEFFE741F200009F
:10288000C4F201004FF4004103F0C0F901281DD14A
:10289000FFE740F24010C2F2000040F60D21C18770
:1028A00044F64811C4F64701C0F83A1044F24C51BE
:1028B000C2F23A01C0F8361044F64561C4F2412133
:1028C000C0F832100E20FEF75FFE1CE040F2401010
:1028D000C2F200000A2180F83E1044F64C71C0F6A6
:1028E0005751C0F83A1044F24C51C2F23A01C0F8C4
:1028F000361044F64561C4F24121C0F832100D2073
:10290000FEF742FEFFE740F60000C4F2010001219D
:1029100003F07CF901281AD1FFE740F24010C2F21F
:10292000000044F64701C0F60D21C0F83A1042F20B
:102930003A01C4F64811C0F8361044F24921C5F2F4
:102940005531C0F832100C20FEF71EFE19E040F29F
:102950004010C2F2000045F24F71C0F60D21C0F8E0
:10296000391042F23A01C4F64C71C0F8361044F204
:102970004921C5F25531C0F832100B20FEF704FE94
:10298000FFE740F60000C4F20100042103F03EF925
:1029900001281AD1FFE740F24010C2F2000044F6CD
:1029A0004701C0F60D21C0F83A1042F23A01C4F6D0
:1029B0004811C0F8361044F25611C4F64341C0F82D
:1029C00032100C20FEF7E0FD19E040F24010C2F298
:1029D000000045F24F71C0F60D21C0F8391042F2E7
:1029E0003A01C4F64C71C0F8361044F25611C4F6E0
:1029F0004341C0F832100B20FEF7C6FDFFE740F65A
:102A00000000C4F20100102103F000F9012820D1D8
:102A1000FFE740F24010C2F2000044F64701C0F662
:102A20000D21C0F83D1044F62001C4F24971C0F8F0
:102A30003A1045F24F51C3F65421C0F8361044F213
:102A40004411C5F64371C0F832100F20FEF79CFD0B
:102A50001CE040F24010C2F2000040F60D21C18798
:102A600044F62041C5F24F71C0F83A1045F24F517B
:102A7000C3F65421C0F8361044F24411C5F6437130
:102A8000C0F832100E20FEF77FFDFFE740F6000091
:102A9000C4F20100202103F0B9F801281AD1FFE7A0
:102AA00040F24010C2F2000044F64701C0F60D218A
:102AB000C0F83A1042F23A01C4F64811C0F8361094
:102AC00044F25451C5F24D01C0F832100C20FEF70B
:102AD0005BFD19E040F24010C2F2000045F24F7178
:102AE000C0F60D21C0F8391042F23A01C4F64C711B
:102AF000C0F8361044F25451C5F24D01C0F83210FE
:102B00000B20FEF741FDFFE740F60000C4F2010094
:102B1000802103F07BF801281AD1FFE740F2401032
:102B2000C2F2000044F64701C0F60D21C0F83A1089
:102B300042F23A01C4F64811C0F8361044F2561178
:102B4000C4F64361C0F832100C20FEF71DFD19E0F9
:102B500040F24010C2F2000045F24F71C0F60D2164
:102B6000C0F8391042F23A01C4F64C71C0F8361080
:102B700044F25611C4F64361C0F832100B20FEF740
:102B800003FDFFE740F60040C4F20100012103F01D
:102B90003DF8012820D1FFE740F24010C2F20000CA
:102BA00044F64701C0F60D21C0F83E1042F23A014A
:102BB000C4F64811C0F83A1044F64241C4F64E310A
:102BC000C0F8361044F24C51C5F64471C0F83210CA
:102BD0001020FEF7D9FC1FE040F24010C2F20000C6
:102BE00045F24F71C0F60D21C0F83D1042F23A0196
:102BF000C4F64C71C0F83A1044F64241C4F64E3166
:102C0000C0F8361044F24C51C5F64471C0F8321089
:102C10000F20FEF7B9FCFFE740F60040C4F20100C8
:102C2000022102F0F3FF01281DD1FFE740F240101E
:102C3000C2F200000A2180F83E1044F24971C0F649
:102C40004851C0F83A1043F65921C4F62001C0F8A3
:102C5000361044F25251C4F24C11C0F832100D201B
:102C6000FEF792FC19E040F24010C2F2000045F27B
:102C70004F71C0F60D21C0F83A1043F65921C4F641
:102C80002041C0F8361044F25251C4F24C11C0F841
:102C900032100C20FEF778FCFFE740F60040C4F24B
:102CA0000100042102F0B2FF012817D1FFE740F232
:102CB0004010C2F2000040F60D21418744F6481151
:102CC000C4F64701C0F8361044F25741C2F23A0147
:102CD000C0F832100A20FEF757FC16E040F2401010
:102CE000C2F200000A2180F83A1044F64C71C0F696
:102CF0005751C0F8361044F25741C2F23A01C0F8B9
:102D000032100920FEF740FCFFE740F60040C4F215
:102D100001004FF4806102F079FF012820D1FFE724
:102D200040F24010C2F2000044F64701C0F60D2107
:102D3000C0F83E1042F23A01C4F64811C0F83A1009
:102D400045F65471C5F65401C0F8361045F25531B8
:102D5000C5F24121C0F832101020FEF715FC1FE02B
:102D600040F24010C2F2000045F24F71C0F60D2152
:102D7000C0F83D1042F23A01C4F64C71C0F83A1066
:102D800045F65471C5F65201C0F8361045F255317A
:102D9000C5F24121C0F832100F20FEF7F5FBFFE726
:102DA00040F60040C4F201004FF4005102F02EFF43
:102DB00001281DD1FFE740F24010C2F2000040F6AA
:102DC0000D21C18744F64811C4F64701C0F83A10F6
:102DD00044F65301C2F23A01C0F8361045F2507180
:102DE000C5F64D71C0F832100E20FEF7CDFB1CE089
:102DF00040F24010C2F200000A2180F83E1044F672
:102E00004C71C0F65751C0F83A1044F65301C2F263
:102E10003A01C0F8361045F25071C5F64D71C0F850
:102E200032100D20FEF7B0FBFFE740F60040C4F281
:102E300001004FF4804102F0E9FE01281DD1FFE7B7
:102E400040F24010C2F2000040F60D21C18744F666
:102E50004811C4F64701C0F83A1044F65341C2F293
:102E60003A01C0F8361045F25071C5F64D71C0F800
:102E700032100E20FEF788FB1CE040F24010C2F238
:102E800000000A2180F83E1044F64C71C0F65751FC
:102E9000C0F83A1044F65341C2F23A01C0F8361075
:102EA00045F25071C5F64D71C0F832100D20FEF795
:102EB0006BFBFFE740F60000C4F201004FF48071A5
:102EC00002F0A4FE01281DD1FFE740F24010C2F23B
:102ED000000040F60D21C18744F64811C4F64701B1
:102EE000C0F83A1044F64601C2F23A01C0F8361072
:102EF00045F25071C5F64D71C0F832100E20FEF744
:102F000043FB1CE040F24010C2F200000A2180F8AE
:102F10003E1044F64C71C0F65751C0F83A1044F6D2
:102F20004601C2F23A01C0F8361045F25071C5F6BA
:102F30004D71C0F832100D20FEF726FBFFE740F67A
:102F40000000C4F201004FF4007102F05FFE01289E
:102F50001DD1FFE740F24010C2F2000040F60D2103
:102F6000C18744F64811C4F64701C0F83A1044F648
:102F70004641C2F23A01C0F8361045F25071C5F62A
:102F80004D71C0F832100E20FEF7FEFA1CE040F240
:102F90004010C2F200000A2180F83E1044F64C7145
:102FA000C0F65751C0F83A1044F64641C2F23A0111
:102FB000C0F8361045F25071C5F64D71C0F83210A8
:102FC0000D20FEF7E1FAFFE740F60040C4F20100F1
:102FD0004FF4005102F01AFE01281DD1FFE740F224
:102FE0004010C2F2000040F60D21C18744F648119E
:102FF000C4F64701C0F83A1044F65301C2F23A0150
:10300000C0F8361045F25071C5F64D71C0F8321057
:103010000E20FEF7B9FA1CE040F24010C2F20000A8
:103020000A2180F83E1044F64C71C0F65751C0F8A2
:103030003A1044F65301C2F23A01C0F8361045F294
:103040005071C5F64D71C0F832100D20FEF79CFA94
:10305000FFE740F60000C4F201004FF4806102F087
:10306000D5FD012820D1FFE740F24010C2F2000058
:1030700044F64701C0F60D21C0F83E1042F23A0175
:10308000C4F64811C0F83A1044F65F71C5F25541D4
:10309000C0F8361045F65311C4F24E31C0F8321064
:1030A0001020FEF771FA1FE040F24010C2F200005B
:1030B00045F24F71C0F60D21C0F83D1042F23A01C1
:1030C000C4F64C71C0F83A1044F65F71C5F2554130
:1030D000C0F8361045F65311C4F24E31C0F8321024
:1030E0000F20FEF751FAFFE740F60000C4F201009E
:1030F0004FF4006102F08AFD01281DD1FFE740F284
:103100004010C2F2000040F60D21C18744F648117C
:10311000C4F64701C0F83A1045F65201C2F23A012E
:10312000C0F8361044F24311C5F64E71C0F83210A3
:103130000E20FEF729FA1CE040F24010C2F2000017
:103140000A2180F83E1044F64C71C0F65751C0F881
:103150003A1045F65201C2F23A01C0F8361044F274
:103160004311C5F64E71C0F832100D20FEF70CFA6F
:10317000FFE740F60000C4F201004FF4805102F076
:1031800045FD01281DD1FFE740F24010C2F20000CA
:1031900040F60D21C18744F64811C4F64701C0F836
:1031A0003A1045F65401C2F23A01C0F8361044F222
:1031B0004311C5F64E71C0F832100E20FEF7E4F947
:1031C0001CE040F24010C2F200000A2180F83E10DC
:1031D00044F64C71C0F65751C0F83A1045F6540108
:1031E000C2F23A01C0F8361044F24311C5F64E71EE
:1031F000C0F832100D20FEF7C7F9FFE740F6004097
:10320000C4F20100102102F001FD012820D1FFE7E6
:1032100040F24010C2F2000044F64701C0F60D2112
:10322000C0F83D1044F62001C4F24971C0F83A10CC
:1032300044F65F11C3F64E21C0F8361045F653111F
:10324000C4F24E31C0F832100F20FEF79DF91CE099
:1032500040F24010C2F2000040F60D21C18744F652
:103260002041C5F24F71C0F83A1044F65F11C3F621
:103270004E21C0F8361045F65311C4F24E31C0F855
:1032800032100E20FEF780F9FFE740F60040C4F24E
:1032900001004FF4007102F0B9FC01281AD1FFE7D8
:1032A00040F24010C2F2000044F64701C0F60D2182
:1032B000C0F8391044F62001C4F24971C0F8361044
:1032C00044F24611C3F64E21C0F832100B20FEF72F
:1032D0005BF916E040F24010C2F2000040F60D210A
:1032E000418744F62041C5F24F71C0F8361044F2D0
:1032F0004611C3F64E21C0F832100A20FEF744F9F9
:10330000FFE7C1E240F24010C2F20000002180F865
:10331000321041F20000C4F201004FF4005102F0FB
:1033200075FC01280BD1FFE740F24010C2F200000B
:1033300090F832104900013180F8321009E040F273
:103340004010C2F2000090F83210490080F83210AC
:10335000FFE741F20000C4F201004FF4804102F0A7
:1033600055FC01280BD1FFE740F24010C2F20000EB
:1033700090F832104900013180F8321009E040F233
:103380004010C2F2000090F83210490080F832106C
:10339000FFE741F20000C4F201004FF4004102F0E7
:1033A00035FC01280BD1FFE740F24010C2F20000CB
:1033B00090F832104900013180F8321009E040F2F3
:1033C0004010C2F2000090F83210490080F832102C
:1033D000FFE740F60000C4F20100012102F016FCF4
:1033E00001280BD1FFE740F24010C2F2000090F834
:1033F00032104900013180F8321009E040F24010EB
:10340000C2F2000090F83210490080F83210FFE755
:1034100040F60000C4F20100042102F0F7FB01288D
:103420000BD1FFE740F24010C2F2000090F83210DA
:103430004900013180F8321009E040F24010C2F238
:10344000000090F83210490080F83210FFE740F693
:103450000000C4F20100102102F0D8FB01280BD1BA
:10346000FFE740F24010C2F2000090F8321049002D
:10347000013180F8321009E040F24010C2F2000041
:1034800090F83210490080F83210FFE740F6000053
:10349000C4F20100202102F0B9FB01280BD1FFE7A3
:1034A00040F24010C2F2000090F8321049000131A1
:1034B00080F8321009E040F24010C2F2000090F8AB
:1034C0003210490080F83210FFE740F60000C4F2E5
:1034D0000100802102F09AFB01280BD1FFE740F2A6
:1034E0004010C2F2000090F832104900013180F81B
:1034F000321009E040F24010C2F2000090F83210A1
:10350000490080F83210FFE740F60040C4F20100A5
:10351000012102F07BFB01280BD1FFE740F24010B4
:10352000C2F2000090F832104900013180F83310E7
:1035300009E040F24010C2F2000090F83310490058
:1035400080F83310FFE740F60040C4F2010002218A
:1035500002F05CFB01280BD1FFE740F24010C2F201
:10356000000090F832104900013180F8331009E072
:1035700040F24010C2F2000090F83310490080F889
:103580003310FFE740F60040C4F20100042102F0CE
:103590003DFB01280BD1FFE740F24010C2F20000D2
:1035A00090F832104900013180F8331009E040F200
:1035B0004010C2F2000090F83310490080F8331038
:1035C000FFE740F60040C4F201004FF4806102F0D2
:1035D0001DFB01280BD1FFE740F24010C2F20000B2
:1035E00090F832104900013180F8331009E040F2C0
:1035F0004010C2F2000090F83310490080F83310F8
:10360000FFE740F60040C4F201004FF4005102F021
:10361000FDFA01280BD1FFE740F24010C2F2000092
:1036200090F832104900013180F8331009E040F27F
:103630004010C2F2000090F83310490080F83310B7
:10364000FFE740F60040C4F201004FF4804102F071
:10365000DDFA01280BD1FFE740F24010C2F2000072
:1036600090F832104900013180F8331009E040F23F
:103670004010C2F2000090F83310490080F8331077
:10368000FFE740F60000C4F201004FF4807102F041
:10369000BDFA01280BD1FFE740F24010C2F2000052
:1036A00090F832104900013180F8331009E040F2FF
:1036B0004010C2F2000090F83310490080F8331037
:1036C000FFE740F60000C4F201004FF4007102F081
:1036D0009DFA01280BD1FFE740F24010C2F2000032
:1036E00090F832104900013180F8331009E040F2BF
:1036F0004010C2F2000090F83310490080F83310F7
:10370000FFE740F60040C4F201004FF4005102F020
:103710007DFA01280BD1FFE740F24010C2F2000011
:1037200090F832104900013180F8341009E040F27D
:103730004010C2F2000090F83410490080F83410B4
:10374000FFE740F60000C4F201004FF4806102F090
:103750005DFA01280BD1FFE740F24010C2F20000F1
:1037600090F832104900013180F8341009E040F23D
:103770004010C2F2000090F83410490080F8341074
:10378000FFE740F60000C4F201004FF4006102F0D0
:103790003DFA01280BD1FFE740F24010C2F20000D1
:1037A00090F832104900013180F8341009E040F2FD
:1037B0004010C2F2000090F83410490080F8341034
:1037C000FFE740F60000C4F201004FF4805102F020
:1037D0001DFA01280BD1FFE740F24010C2F20000B1
:1037E00090F832104900013180F8341009E040F2BD
:1037F0004010C2F2000090F83410490080F83410F4
:10380000FFE740F60040C4F20100102102F0FEF98B
:1038100001280BD1FFE740F24010C2F2000090F8FF
:1038200032104900013180F8341009E040F24010B4
:10383000C2F2000090F83410490080F83410FFE71D
:1038400040F60040C4F201004FF4007102F0DEF9CE
:1038500001280BD1FFE740F24010C2F2000090F8BF
:1038600032104900013180F8341009E040F2401074
:10387000C2F2000090F83410490080F83410FFE7DD
:103880000320FDF781FEFFE7FDF718F9FDF716F9B4
:10389000FDF792FEFDF7C2FAFDF70AFCFDF7EEF820
:1038A000C5E241F29050C2F200000068006844F6A0
:1038B0004811C4F64701884208D0FFE741F2405062
:1038C000C2F200004078FF285AD1FFE740F600001E
:1038D000C4F201004FF4806102F0C6F840F60040E7
:1038E000C4F2010002210E9002F0BEF804210E98ED
:1038F00002F0BAF84FF400710E9802F0B5F841F2F8
:103900000000C4F201004FF4804102F0ADF841F232
:103910009050C2F200000068006844F64811C4F6F6
:103920004701884220D1FFE740F24010C2F2000078
:1039300044F64701C0F60D21C0F83D1044F62001C1
:10394000C4F24971C0F83A1045F24701C4F6497112
:10395000C0F8361044F64141C2F24C01C0F83210B2
:103960000F20FDF711FE0AE040F24010C2F2000005
:10397000AC2180F832100120FDF706FEFFE755E28A
:1039800041F29050C2F20000006847F24211C0F6C6
:1039900000010322FCF70AFC002808D0FFE741F2EF
:1039A0004050C2F200004078002859D1FFE740F6AD
:1039B0000000C4F201004FF4806102F04DF840F6BF
:1039C0000040C4F2010002210D9002F045F80421EC
:1039D0000D9802F041F84FF400710D9802F03CF898
:1039E00041F20000C4F201004FF4804102F034F8CB
:1039F00041F29050C2F20000006847F24211C0F656
:103A000000010322FCF7D2FB00281DD1FFE740F2A2
:103A10004010C2F2000040F60D21C18744F620415B
:103A2000C5F24F71C0F83A1045F24701C4F649712A
:103A3000C0F8361044F64141C2F24C01C0F83210D1
:103A40000E20FDF7A1FD0AE040F24010C2F2000096
:103A5000AC2180F832100120FDF796FDFFE7E4E18C
:103A600041F29050C2F20000006847F22311C0F604
:103A700000010622FCF79AFB002809D0FFE741F27B
:103A80004050C2F200004078CC2840F04E81FFE761
:103A900041F29050C2F20000006847F22311C0F6D4
:103AA00000010622FCF782FB002840F0AB80FFE714
:103AB00047F20A11C0F600010020FCF785FB41F235
:103AC0009051C2F200010860086800F06FFB41F2FB
:103AD0003851C2F2000108600878C007002809D0F8
:103AE000FFE740F60000C4F201004FF4806101F0EE
:103AF000BBFF08E040F60000C4F201004FF4806113
:103B000001F0AAFFFFE741F23850C2F2000000685E
:103B10004008C007002808D0FFE740F60040C4F284
:103B20000100022101F0A0FF07E040F60040C4F2CE
:103B30000100022101F090FFFFE741F23850C2F28C
:103B4000000000688008C007002808D0FFE740F6A2
:103B50000040C4F20100042101F086FF07E040F6B6
:103B60000040C4F20100042101F076FFFFE741F2BA
:103B70003850C2F200000068C008C007002809D011
:103B8000FFE740F60040C4F201004FF4007101F07D
:103B90006BFF08E040F60040C4F201004FF40071F2
:103BA00001F05AFFFFE741F23850C2F2000000680E
:103BB0000009C007002809D0FFE741F20000C4F265
:103BC00001004FF4804101F04FFF08E041F2000096
:103BD000C4F201004FF4804101F03EFFFFE740F2E4
:103BE0004010C2F20000323047F2CB01C0F60001B3
:103BF00014220C92FCF7C8FA0C990B900846FDF7BA
:103C0000C3FC91E041F24050C2F200008078C0074E
:103C1000002809D0FFE740F60000C4F201004FF48D
:103C2000806101F021FF08E040F60000C4F20100CD
:103C30004FF4806101F010FFFFE741F24050C2F203
:103C4000000080784008C007002808D0FFE740F651
:103C50000040C4F20100022101F006FF07E040F637
:103C60000040C4F20100022101F0F6FEFFE741F23C
:103C70004050C2F2000080788008C007002808D0B9
:103C8000FFE740F60040C4F20100042101F0ECFE21
:103C900007E040F60040C4F20100042101F0DCFE20
:103CA000FFE741F24050C2F200008078C008C00730
:103CB000002809D0FFE740F60040C4F201004FF4AD
:103CC000007101F0D1FE08E040F60040C4F20100AE
:103CD0004FF4007101F0C0FEFFE741F24050C2F224
:103CE000000080780009C007002809D0FFE741F2F2
:103CF0000000C4F201004FF4804101F0B5FE08E07D
:103D000041F20000C4F201004FF4804101F0A4FE32
:103D1000FFE740F24010C2F20000AC2180F8321000
:103D20000120FDF731FCFFE77EE041F29050C2F246
:103D30000000006847F23211C0F600010722FCF7CC
:103D400035FA002808D0FFE741F24050C2F20000E7
:103D50004078AA2867D1FFE741F29050C2F20000F4
:103D6000006847F23211C0F600010722FCF71EFA84
:103D7000002829D1FFE747F20A10C0F60000002111
:103D80000A9008460A9A09911146FCF71DFA41F279
:103D90009051C2F2000108600868089100F030FA02
:103DA00041F28E51C2F20001088009980A99FCF78D
:103DB0000BFA08990860086800F022FA41F28C5169
:103DC000C2F20001088016E041F24050C2F2000049
:103DD0008178C27842EA012141F28E52C2F2000299
:103DE00011800179407940EA012041F28C51C2F200
:103DF00000010880FFE741F28E50C2F20000008807
:103E000041F2883188420DDCFFE741F23D50C2F2B9
:103E10000000012101701C2000F0D2FC322000F0D3
:103E2000EDFCFFE7FFE7FFE7FFE7FFE7FFE7FFE75F
:103E3000E6E041F29050C2F200000068006844F2EF
:103E40005511C5F25241884208D0FFE741F2405077
:103E5000C2F200000078CA2861D1FFE747F20A11D8
:103E6000C0F600010020FCF7AFF941F29051C2F218
:103E7000000108600868008844F65451884208D060
:103E8000FFE741F24050C2F200000078CA2845D155
:103E9000FFE740F2BD00C2F2000043F23101C0F67C
:103EA0000D21016243F25131C3F23201C16142F28C
:103EB0004F01C5F24D01816144F24851C4F64C41B5
:103EC00041611020FCF792FF41F29050C2F20000D5
:103ED0000068008844F65451884213D1FFE740F24D
:103EE0004010C2F20000323047F2E001C0F600019B
:103EF00015220792FCF748F9079906900846FDF746
:103F000043FB0AE040F24010C2F20000AC2180F80E
:103F100032100120FDF738FBFFE7FFE76FE041F2C9
:103F20009050C2F20000006847F22E11C0F6000166
:103F30000322FCF73BF9002808D0FFE741F240508C
:103F4000C2F200000078C52858D1FFE747F20A11F5
:103F5000C0F600010020FCF737F941F29051C2F29F
:103F6000000108600868008844F65451884208D06F
:103F7000FFE741F24050C2F200000078C5283CD172
:103F8000FFE740F21400C2F200005521A0F8A01093
:103F9000032180F8A4104D21C172502101735321D7
:103FA0004173FCF72FFB41F29050C2F20000006811
:103FB000008844F65451884213D1FFE740F2401084
:103FC000C2F20000323047F2F601C0F600011322BF
:103FD0000592FCF7D9F8059904900846FDF7D4FA44
:103FE0000AE040F24010C2F20000AC2180F832102A
:103FF0000120FDF7C9FAFFE7FFE7FFE7FFE7FFE76B
:10400000FFE7FFE7FFE700208DF81B01FFE79DF8C2
:104010001B0113280FDCFFE79DF81B0140F2401144
:10402000C2F2000100220A54FFE79DF81B01013093
:104030008DF81B01EBE71C2000F0E0FBFFE740F2EE
:10404000EA00C2F200008078002838D0FFE740F292
:10405000EA00C2F2000000218170C2880390084685
:10406000029101F085FA029801F0DCFA03980189C7
:10407000C72918D1FFE740F2BC00C2F200000021BE
:10408000017040F60040C4F20100042110230191A8
:10409000019A01F0F1FC40F24010C2F20000DC2174
:1040A00080F8321007E040F24010C2F20000AC216C
:1040B00080F83210FFE70120FDF766FAFFE747B00E
:1040C000BDE8F08F80B598B0FCF7F8FCFDF774FA06
:1040D000FCF7A4FEFCF7ECFFFCF7D0FC4FF4E1305A
:1040E0001290002113911491159140F24012C2F2E6
:1040F000000202F132031693179212AB0590184694
:1041000004910392FDF786F92020039981F832008B
:104110000122029010460192FDF736FA05980C90A4
:1041200004990D910E910F9140F2BD02C2F200026E
:1041300002F11403109311920CA80092FCF7B2FD47
:104140000298009908750198FCF750FE04988DF8C4
:104150002C008DF82E0008908DF82D0040F2EA0119
:10416000C2F2000101F12E02099206310A9108A85B
:10417000FCF774FE4FF4FA70069004988DF81D0059
:104180008DF81C0006A8FCF70BFCFCF711FB42F6AF
:10419000DF60FCF7ABFF0E20FDF778F84DF2BF4073
:1041A000C0F20100FDF73AF818B080BD83B002906C
:1041B000002001908DF80300FFE702989DF803109E
:1041C000405C00212F280A46C8BF01223A28B8BF08
:1041D00001210A4211D0FFE70198400001900298A6
:1041E0009DF80310405C01990844303801909DF817
:1041F000030001308DF80300DFE7019803B070473A
:1042000082B001900020ADF80200ADF80000FFE799
:104210000198BDF80010405C00212F280A46C8BF55
:1042200001223A28B8BF01210A4217D0FFE7BDF8A2
:10423000020000EB80004000ADF802000198BDF8DC
:104240000010405CBDF8021008443038ADF80200A0
:10425000BDF800000130ADF80000D9E7BDF802005C
:1042600002B0704780B582B0009000980138B0F17C
:10427000807F03D3FFE70120019019E00098013807
:104280004EF21401CEF2000108604FF0FF300F2112
:1042900000F0CEFA4EF21800CEF2000000210160CC
:1042A0004EF21000CEF20000072202600191FFE7FB
:1042B000019802B080BD000080B541F29850C2F272
:1042C000000001680131016000684CF66311C9F219
:1042D0002F6148434FEAF00043F60621C0F26D011A
:1042E000884224D8FFE741F22E50C2F20000017844
:1042F000B1FA81F1490901700078002808D0FFE780
:1043000040F60040C4F20100012101F0ADFB0DE0D8
:1043100040F60040C4F20100012101F09DFB41F292
:104320009850C2F2000000210160FFE7FFE7FDF7AF
:1043300067F980BD80B582B04EF68850CEF200009D
:10434000016841F47001016041F20000C4F2020012
:10435000016841F00101016041F20401C4F202016F
:1043600000220A6041F22C01C4F202010A600168D5
:104370004FF6FF73CEF6F6231940016041F20801B3
:10438000C4F202014FF47F030B60016821F4802125
:104390000160019201F0F2FF4FF00060019901F01D
:1043A000FBFC02B080BD000080B542F60040C4F2C4
:1043B0000100012102F054FC002808D0FFE742F67A
:1043C0000040C4F20100012102F03EFCFFE780BD85
:1043D00080B54FF08040012102F042FC00286BD0F4
:1043E000FFE74FF08040012102F02EFC41F2965091
:1043F000C2F200000078002826D1FFE740F240100A
:10440000C2F2000043F23121C0F60D21C0F83E1087
:1044100045F22061C2F63161C0F83A1042F254010F
:10442000C4F64F31C0F8361045F25341C5F2412170
:10443000C0F832101020FDF7A7F841F29650C2F2F2
:1044400000000121017017E041F29650C2F2000015
:10445000007800280FD0FFE740F2BC00C2F2000055
:104460000078002803D0FFE7FCF7F8FD02E0FDF735
:1044700079F8FFE7FFE7FFE740F24010C2F20000E3
:104480000078002808D0FFE740F24010C2F2000098
:10449000012180F86510FFE740F2EA00C2F2000057
:1044A000C088002807D0FFE740F2EA00C2F200000F
:1044B00001218170FFE7FFE780BD000080B584B077
:1044C00040F60040C4F20000012102F0C9FB0028C0
:1044D00000F07381FFE740F60040C4F200000121C4
:1044E00002F0B2FB41F23D50C2F200000078002819
:1044F00000F06281FFE741F29C50C2F200000188A7
:1045000001310180008841F28C51C2F2000109881A
:104510004FF4FA52B2FBF1F1884240F3B480FFE766
:1045200041F23450C2F20000008841F28E51C2F2D2
:1045300000010988884280F2A680FFE741F29C5082
:10454000C2F200000021018041F20000C4F201002B
:104550004FF4005101F05AFB01280ED1FFE741F260
:104560003450C2F20000008840F2A611C2F20001ED
:104570000A5C520001320A540CE041F23450C2F29B
:104580000000008840F2A611C2F200010A5C52004D
:104590000A54FFE741F20000C4F201004FF4004169
:1045A00001F034FB01280ED1FFE741F23450C2F292
:1045B0000000008840F2A611C2F200010A5C52001D
:1045C00001320A540CE041F23450C2F2000000887B
:1045D00040F2A611C2F200010A5C52000A54FFE741
:1045E00041F60000C4F201004FF4806101F00EFBBF
:1045F00001280ED1FFE741F23450C2F200000088DA
:1046000040F2A611C2F200010A5C520001320A54C3
:104610000CE041F23450C2F20000008840F2A611D2
:10462000C2F200010A5C52000A54FFE740F6004063
:10463000C4F20100102101F0E9FA01280ED1FFE7D0
:1046400041F23450C2F20000008840F2A611C2F2DA
:1046500000010A5C520001320A540CE041F234506D
:10466000C2F20000008840F2A611C2F200010A5C0A
:1046700052000A54FFE741F23450C2F200000188B0
:104680000131018097E041F23450C2F2000000880D
:1046900041F28E51C2F2000109888842C0F28A803C
:1046A000FFE741F23450C2F200000021018041F2E4
:1046B0003C52C2F200020123137041F23D53C2F298
:1046C000000319701170322203901046029100F01D
:1046D00077F8029803990880FFE741F23450C2F25C
:1046E0000000008841F28E51C2F200010988884220
:1046F0005CDAFFE741F23E50C2F200000021017097
:10470000FFE741F23450C2F20000008841F23E510E
:10471000C2F200010978084441F28E51C2F2000150
:1047200009880022884201920BDAFFE741F23E50ED
:10473000C2F20000007800213228B8BF01210191A7
:10474000FFE70198C007002820D0FFE741F234506E
:10475000C2F20000008841F23E51C2F20001097825
:10476000084440F2A611C2F20001095C40F2401276
:10477000C2F20002104480F83210FFE741F23E50CE
:10478000C2F20000017801310170BAE741F23E50F7
:10479000C2F200000078FCF7F7FEFFE741F2345068
:1047A000C2F2000001883231018096E71C2000F03F
:1047B00025F8FFE7FFE7FFE7FFE704B080BD000053
:1047C00081B001468DF803009DF90300002813D441
:1047D000FFE79DF9030000F01F01012202FA01F139
:1047E00040094EF28012CEF2000242F82010BFF3D0
:1047F0004F8FBFF36F8FFFE701B0704781B0014665
:104800008DF803009DF9030000280FD4FFE79DF900
:10481000030000F01F01012202FA01F140094EF2EB
:104820000012CEF2000242F82010FFE701B07047FC
:1048300082B002468DF8070000919DF9070000281C
:104840000AD4FFE7009800019DF907104EF20042DC
:10485000CEF2000288540BE0009800019DF807108A
:1048600001F00F014EF61452CEF200028854FFE719
:1048700002B0704781B000900098816841F0080153
:104880008160FFE7009880680007002801D5FFE7F6
:10489000F8E70098816841F004018160FFE7009823
:1048A00080684007002801D5FFE7F8E701B07047AE
:1048B00084B00B4603908DF80B1001929DF80B000D
:1048C00001460128009104D0FFE70098022812D089
:1048D00023E00398C16A21F47001C16201980021AC
:1048E000CFF6F07101EB00503FFA80F00399CA6AED
:1048F0001043C86212E00398816B21F44011816378
:1049000001980021CFF6F07101EB005000F4401047
:1049100003998A6B1043886300E0FFE704B0704797
:1049200082B0019000910098002806D0FFE701981E
:10493000816841F40061816005E00198816821F49B
:1049400000618160FFE702B07047000081B0009015
:104950000098816841F48071816001B07047000067
:1049600081B0009000988068C007002806D1FFE75A
:104970000098816841F001018160FFE701B0704754
:1049800082B013468C4601908DF803108DF80220FA
:104990009DF80200002819D0FFE79DF80300C0072A
:1049A000002806D0FFE70198816841F480118160FA
:1049B000FFE79DF803008007002806D5FFE7019870
:1049C000816841F400418160FFE718E09DF8030031
:1049D000C007002806D0FFE70198816821F4801104
:1049E0008160FFE79DF803008007002806D5FFE7F8
:1049F0000198816821F400418160FFE7FFE702B080
:104A00007047000084B00B4603908DF80B100192A4
:104A10009DF80B0001460128009104D0FFE70098A3
:104A200002280BD015E00398816821F46021816091
:104A3000019803998A68104388600BE003988168A5
:104A400021F4E0418160019803998A6810438860ED
:104A500000E0FFE704B0704781B0009042F20440EC
:104A6000C4F20100016821F470210160009902681C
:104A70001143016001B0704780B585B094468E4601
:104A800004908DF80F108DF80E2002939DF80F0002
:104A900005281CDCFFE70498406B01909DF80F008F
:104AA00000EB80001F2101FA00F0019921EA0000CB
:104AB00001909DF80E009DF80F1001EB81018840D8
:104AC00001990843019001980499486348E09DF8D2
:104AD0000F000B281EDCFFE70498006B01909DF887
:104AE0000F0000EB80001E381F2101FA00F0019931
:104AF00021EA000001909DF80E009DF80F1001EBD7
:104B000081011E3988400199084301900198049958
:104B1000086324E09DF80F000F281EDCFFE70498CF
:104B2000C06A01909DF80F0000EB80003C381F2107
:104B300001FA00F0019921EA000001909DF80E00B1
:104B40009DF80F1001EB81013C3988400199084321
:104B5000019001980499C86200E0FFE7FFE7FFE7D2
:104B60009DF80E0009281BDCFFE7049800690090FF
:104B70009DF80E0000EB4000072101FA00F00099BB
:104B800021EA0000009002989DF80E1001EB41010F
:104B9000884000990843009000980499086123E038
:104BA0009DF80E0011281DDCFFE70498C0680090F6
:104BB0009DF80E0000EB40001E38072101FA00F0BE
:104BC000009921EA0000009002989DF80E1001EB78
:104BD00041011E39884000990843009000980499CB
:104BE000C86000E0FFE7FFE705B080BD82B001903C
:104BF00000910198D0F8801021F44051C0F8801045
:104C000000980199D1F880201043C1F8800002B0CB
:104C10007047000082B00A4601908DF803109DF89D
:104C20000300C007002806D0FFE70198816841F41F
:104C300080018160FFE79DF803008007002806D50A
:104C4000FFE70198816841F400118160FFE702B03D
:104C50007047000083B01346029001918DF8032045
:104C60009DF80300002825D0FFE79DF80500C00748
:104C7000002806D0FFE70298416841F48071416046
:104C8000FFE79DF805004007002806D5FFE70298DA
:104C9000416841F480614160FFE79DF804008007AE
:104CA000002806D5FFE70298816841F00201816083
:104CB000FFE724E09DF80500C007002806D0FFE7C5
:104CC0000298416821F480714160FFE79DF805007A
:104CD0004007002806D5FFE70298416821F480616B
:104CE0004160FFE79DF804008007002806D5FFE734
:104CF0000298816821F002018160FFE7FFE703B0BD
:104D00007047000080B584B00390039846F20041DC
:104D1000C4F20001884209D1FFE740F21940029035
:104D200001F092F9029801F077F908E040F21A4098
:104D3000019001F089F9019801F06EF9FFE704B0E4
:104D400080BD000082B00190002000900198408951
:104D5000012101FA00F0009046F20060C4F2000068
:104D6000016841F001010160009846F21C61C4F243
:104D700000010A6822EA000008600198C089002842
:104D800022D1FFE7009846F20C61C4F200010A68E4
:104D900022EA000008600198C188428842EA014185
:104DA000408946F24062C4F2000242F83010019895
:104DB0008188028842EA0141408946F24462C4F295
:104DC000000242F83010FFE70198C089012821D184
:104DD000FFE7009846F20C61C4F200010A68104334
:104DE000086001980188428842EA0141408946F200
:104DF0004062C4F2000242F8301001988188C288F3
:104E000042EA0141408946F24462C4F2000242F89B
:104E10003010FFE70198808900280AD1FFE7009849
:104E200046F20461C4F200010A6822EA0000086048
:104E300008E0009846F20461C4F200010A681043D9
:104E40000860FFE70198008900280AD1FFE7009871
:104E500046F21461C4F200010A6822EA0000086008
:104E600008E0009846F21461C4F200010A68104399
:104E70000860FFE70198007C012809D1FFE700984E
:104E800046F21C61C4F200010A6810430860FFE7A3
:104E900046F20060C4F20000016821F001010160E7
:104EA00002B0704782B00A460190ADF80210BDF81A
:104EB000020000F01F01012303FA01F1019B8009A8
:104EC00053F800C041EA0C01195002B070470000CD
:104ED00083B00A460190ADF802100198BDF80210A7
:104EE00089094058BDF8021001F01F01C840C007F1
:104EF000002804D0FFE701208DF80B0003E000201C
:104F00008DF80B00FFE79DF80B0003B07047000021
:104F100080B586B00590049101208DF80F000498AB
:104F200044F24021C0F20F01884229D8FFE70598DA
:104F3000012100F069FA012812D1FFE70598C06944
:104F40000290029800F0404002900298049901906B
:104F5000084600F081FB019908430599C86103E008
:104F600000208DF80F00FFE70598022100F04CFAB1
:104F7000012804D0FFE700208DF80F00FFE703E0D1
:104F800000208DF80F00FFE79DF80F0006B080BDF0
:104F900080B586B0059004914FF6FF700390002015
:104FA0008DF80B000598016821F002010160059859
:104FB000016841F001010160FFE7059840680021A8
:104FC000C0070028019106D1FFE70398002818BF09
:104FD00001200190FFE70198C007002804D0FFE7F7
:104FE000039801380390E8E705984068C007002857
:104FF00004D1FFE700208DF80B00B4E0049801789D
:105000004278837890F803C04FF0F85E0EEA0262AF
:1050100042EA81711A0442EA831241F60043C0F267
:105020000F031A4011444FEA0C5242EA8C2246F216
:105030000003C0F270031A401144408901386FF335
:105040009F2008440599C86104980079012806D179
:10505000FFE70598016841F08001016005E00598CF
:10506000016821F080010160FFE704984079012880
:1050700006D1FFE70598016841F04001016005E0B5
:105080000598016821F040010160FFE704988079EC
:10509000012806D1FFE70598016841F02001016071
:1050A00005E00598016821F020010160FFE7049800
:1050B000C079012806D1FFE70598016821F01001A9
:1050C000016005E00598016841F010010160FFE70B
:1050D0000498007A012806D1FFE70598016841F09D
:1050E0000801016005E00598016821F008010160F0
:1050F000FFE70498407A012806D1FFE70598016888
:1051000041F00401016005E00598016821F0040107
:105110000160FFE70598016821F0010101604FF689
:10512000FF700390FFE7059840680021C007002842
:10513000009106D0FFE70398002818BF01200090D7
:10514000FFE70098C007002804D0FFE70398013864
:105150000390E8E70398002804D0FFE701208DF8CA
:105160000B00FFE7FFE79DF80B0006B080BD0000D5
:1051700087B00590049100208DF80F008DF80E0087
:105180008DF80D000290009005988068400100287D
:1051900004D5FFE700208DF80F0019E0059880681E
:1051A0000001002804D5FFE701208DF80F000EE074
:1051B00005988068C000002804D5FFE702208DF81C
:1051C0000F0003E003208DF80F00FFE7FFE7FFE784
:1051D0009DF80F00032804D1FFE703208DF81B0082
:1051E0000DE105989DF80F1000EB0110D0F880112B
:1051F00001F00101C0F880110498007A002810D154
:10520000FFE704980168407A40EA415005999DF80B
:105210000F2001EB0211D1F880211043C1F8800169
:1052200011E004984168027A42EAC101407A0843D9
:1052300005999DF80F2001EB0211D1F88021104350
:10524000C1F88001FFE7049890F84B0000282CD1AA
:10525000FFE705989DF80F1000EB0110D0F88411BE
:1052600021F00F01C0F884110498807A05999DF807
:105270000F2001EB0211D1F884211043C1F8840101
:105280000498D0F80B0005999DF80F2001EB02114E
:10529000C1F888010498D0F80F0005999DF80F20F7
:1052A00001EB0211C1F88C0199E00598006A00F049
:1052B000010002900298002800F08980FFE704981E
:1052C000807A082806D8FFE70498807A0099084376
:1052D000009033E000208DF80E00FFE79DF80E00EF
:1052E000062817D8FFE70498807A9DF80E1047F239
:1052F000C402C0F60002515C884204D1FFE70120DD
:105300008DF80D0006E0FFE79DF80E0001308DF8E6
:105310000E00E3E79DF80D00012807D1FFE79DF897
:105320000E00093000990843009006E0FFE7FFE710
:1053300001200028FBD1FFE7FFE7FFE7049890F882
:105340004B1090F84C2090F84D00520142EA0010AA
:1053500040EAC110009908430090009805999DF813
:105360000F2001EB0211C1F884010498807A8008B3
:105370008DF80E0004980B3001909DF80E00002867
:105380000AD1FFE70198006805999DF80F2001EB0D
:105390000211C1F8880119E0FFE79DF80E0000280E
:1053A00013D0FFE70198006805999DF80F2001EBE5
:1053B0000211C1F88801019804300190FFE79DF8BF
:1053C0000E0001388DF80E00E7E7FFE706E0FFE783
:1053D000FFE701200028FBD1FFE7FFE7FFE7059883
:1053E0009DF80F1000EB0110D0F8801141F0010181
:1053F000C0F880119DF80F008DF81B00FFE79DF8A5
:105400001B0007B07047000086B00A4605908DF873
:10541000131000208DF812004FF6FF7003909DF8D6
:105420001300012831D1FFE70598016821F002013E
:1054300001600598016841F001010160FFE70598EE
:1054400040680021C0070028029106D1FFE70398B9
:10545000002818BF01200290FFE70298C00700282B
:1054600004D0FFE7039801380390E8E70598406807
:10547000C007002804D1FFE700208DF8120003E0E8
:1054800001208DF81200FFE76EE09DF8130002285E
:105490002CD1FFE70598016821F003010160FFE7C7
:1054A00005984068002180070028019106D0FFE799
:1054B0000398002818BF01200190FFE70198C0075A
:1054C000002804D0FFE7039801380390E8E7059827
:1054D00040688007002804D0FFE700208DF8120004
:1054E00003E001208DF81200FFE73CE09DF8130077
:1054F000042833D1FFE70598016821F0010101601C
:105500000598016841F002010160FFE705984068D5
:1055100000F0020000210228009106D0FFE7039866
:10552000002818BF01200090FFE70098C00700285E
:1055300004D0FFE7039801380390E7E70598406837
:1055400000F00200022804D0FFE700208DF81200CE
:1055500003E001208DF81200FFE703E000208DF842
:105560001200FFE7FFE7FFE79DF8120006B0704763
:1055700085B0134604900391ADF80A2004980028E2
:1055800027D1FFE703980028019008D0FFE7019892
:1055900001280CD0FFE70198022810D017E0BDF8D1
:1055A0000A0047F20841C4F20001086010E0BDF8AB
:1055B0000A0047F20C41C4F20001086008E0BDF89F
:1055C0000A0047F21041C4F20001086000E0FFE762
:1055D00026E003980028009008D0FFE700980128F3
:1055E0000CD0FFE70098022810D017E0BDF80A00A1
:1055F00047F21441C4F20001086010E0BDF80A004F
:1056000047F21841C4F20001086008E0BDF80A0042
:1056100047F21C41C4F20001086000E0FFE7FFE729
:1056200005B0704781B000900098002809D1FFE7CD
:1056300047F20440C4F20000016841F0010101603A
:1056400008E047F20440C4F20000016841F00201A2
:105650000160FFE701B0704780B58AB00990002073
:105660008DF80F00022000F0A9FB0999B0FBF1F0C2
:10567000049004984AF6AB21CAF6AA21A0FB0101C6
:1056800009090791049989080691FFE79DF80F0021
:1056900000210028019108D1FFE707980699002210
:1056A000884238BF01220192FFE70198C007002815
:1056B0001FD0FFE707980130079016200290FFE700
:1056C0000298002814D0FFE70298033007990131AF
:1056D0004843059005980499884204D1FFE70120CA
:1056E0008DF80F0004E0FFE7029801380290E7E729
:1056F000CCE79DF80F00002816D0FFE7029847F28C
:105700004811C0F6000101EBC002526851F83000A8
:105710004FF4702101EA004062F3165007996FF3CD
:105720009F21084408900AE00020C0F2231008904E
:10573000FFE7FFE701200028FBD1FFE7FFE708981C
:105740000AB080BD80B584B00A4603908DF80B1076
:1057500003989DF80B10019200F042F9002802D145
:10576000FFE7FFE7FEE703989DF80B1001EB8101CF
:1057700000EB8100816821F00101816004B080BDEF
:1057800080B584B00A4603908DF80B1003989DF8FD
:105790000B10019200F024F9002802D1FFE7FFE787
:1057A000FEE703989DF80B1001EB810100EB8100EF
:1057B000816841F00101816004B080BD80B584B092
:1057C0000A4603908DF80B1003989DF80B10019278
:1057D00000F006F9002802D1FFE7FFE7FEE7039893
:1057E0009DF80B1001EB810100EB8100816821F035
:1057F0002001816004B080BD80B584B00A4603906A
:105800008DF80B1003989DF80B10019200F0E8F84A
:10581000002802D1FFE7FFE7FEE703989DF80B1091
:1058200001EB810100EB8100816841F02001816082
:1058300004B080BD83B00B4602908DF80710009233
:1058400000989DF807108900884002994A68104323
:10585000486003B07047000084B00B4603908DF899
:105860000B1001920398006801999DF80B2092009B
:105870009140084204D0FFE701208DF8030003E0C7
:1058800000208DF80300FFE79DF8030004B0704787
:1058900080B586B00B4605908DF8131003920598DD
:1058A0009DF81310019300F09BF8002802D1FFE748
:1058B000FFE7FEE70398006805999DF8132002EBC7
:1058C000820201EB820108610398806805999DF8C6
:1058D000132002EB820201EB820148610398008AE7
:1058E00005999DF8132002EB820201EB8201C8604A
:1058F00005989DF8131001EB810100EB8100806891
:105900000290029820F47C50029003984168C2688B
:10591000406911430843029908430290029805998F
:105920009DF8132002EB820201EB8201886003984C
:10593000007E01280CD1FFE705989DF8131001EBBC
:10594000810100EB8100816841F0400181600BE042
:1059500005989DF8131001EB810100EB810081682F
:1059600021F040018160FFE70398407E01280CD1BF
:10597000FFE705989DF8131001EB810100EB810012
:10598000816841F0800181600BE005989DF813105B
:1059900001EB810100EB8100816821F080018160D1
:1059A000FFE70398807E00280CD1FFE705989DF85B
:1059B000131001EB810100EB8100816821F01001DF
:1059C00081600BE005989DF8131001EB810100EB5D
:1059D0008100816841F010018160FFE706B080BD61
:1059E00082B00A4601908DF8031001208DF8020064
:1059F000019840F20041C4F2020188420AD1FFE757
:105A00009DF80300052804DBFFE700208DF8020065
:105A1000FFE7FFE79DF8020002B0704780B584B051
:105A20000B4603908DF80B10019203989DF80B1014
:105A30000093FFF7D5FF002802D1FFE7FFE7FEE75D
:105A4000BDF8040003999DF80B2002EB820201EBE4
:105A50008201C86004B080BD82B0019000910098BE
:105A60000199486102B0704782B00190009100989E
:105A70000199086102B0704787B0069005910492C1
:105A80000393002001900090059800F00F00019012
:105A90009DF81400C006002814D5FFE704980428D8
:105AA0000AD1FFE7019840F003000190039806999E
:105AB000CA6B1043C86304E004980199084301903D
:105AC000FFE7FFE70020ADF80A00FFE7BDF80A0096
:105AD000072846D8FFE7BDF80A00039921FA00F02D
