:020000040800F2
:10000000A0190020650100086D0100086F010008BB
:10001000710100087301000875010008000000006C
:100020000000000000000000000000007701000850
:1000300079010008000000007B0100087916000823
:100040007F0100087F0100087F0100087F01000890
:100050007F0100087F0100087F0100087F01000880
:100060007F0100087F0100087F0100087F01000870
:100070007F0100087F0100087F0100087F01000860
:100080007F0100087F0100087F0100087F01000850
:100090007F0100087F0100087F0100087F01000840
:1000A0007F010008711700087F0100087F01000828
:1000B000991700087F0100087F0100087F010008F0
:1000C0007F0100087F0100087F0100087F01000810
:1000D0007F0100087F0100087F0100087F01000800
:1000E0007F0100087F0100087F0100087F010008F0
:1000F0007F0100087F0100087F0100080000000068
:100100007F010008000000004D1800087F01000872
:100110007F0100087F0100087F0100087F010008BF
:100120007F0100087F0100087F0100087F010008AF
:100130007F01000800000000000000007F010008AF
:100140007F0100087F0100087F0100087F0100088F
:10015000DFF80CD000F028FA00480047CD5A00081C
:10016000A01900200648804706480047FEE7FEE742
:10017000FEE7FEE7FEE7FEE7FEE7FEE7FEE7FEE757
:10018000FD1600085101000840EA01039B0703D057
:1001900009E008C9121F08C0042AFAD203E011F8C6
:1001A000013B00F8013B521EF9D2704730B50446BE
:1001B0000020034600E05B1C934203D2E05CCD5C70
:1001C000401BF8D030BD000070B50F4D00B9286855
:1001D000002412E00A4602E09E4203D0521C13782B
:1001E000002BF9D1DAB2224305D02BB124B1002182
:1001F00000F8011B04E00446401C0678002EE9D1FB
:100200002860204670BD0000000000202DE9FE4F50
:10021000804681EA0300C00F0C46009021F00041A7
:1002200023F00045B8EB0200A94105D24046214623
:1002300090461C460B46024623F00040104347D030
:10024000270DC7F30A00C3F30A510290401A019028
:1002500040286BDAC3F3130040F4801B00989246E9
:1002600020B10023D2EB030A63EB0B0B0198594634
:10027000C0F14002504600F009F906460D465046CE
:100280005946019A00F021F910EB08006141002461
:1002900087EA115284EAE7731A4340D0009A62B3A6
:1002A000019A012A4FEA075215DC001B61EB02019B
:1002B0004FF0004202EA0752CDE90042001C41F52E
:1002C000801132462B4600F021F903B0BDE8F08FD3
:1002D00040462146F9E7001B61EB0201001C41F595
:1002E000801300185B412018A2F5001747EB0301AB
:1002F00040EAD570B6196D4111E06D084FEA360637
:1003000045EAC0754FEA0752001B61EB0201001C71
:1003100041F5801149084FEA300000195141324639
:100320002B4603B0BDE8F04F00F0E1B80098012281
:1003300040000023D0EB020263EBE07300982146FB
:100340004FEAE074B8EB000061EB0401E9E783F0E9
:1003500000435BE781F0004158E72DE9F04D81EA69
:10036000030404F0004B21F0004514464FF0000A4E
:1003700023F0004150EA050220D054EA01021DD0CA
:10038000C5F30A570246C5F31303C1F31300C1F3C3
:100390000A5640F4801543F48013A7EB0608101B9F
:1003A000D64608F2FD3873EB050002D308F10108C8
:1003B00001E092185B41B8F1000F03DA002001461A
:1003C000BDE8F08D00204FF48011064684460EE013
:1003D000171B73EB050705D3121B63EB05030643DD
:1003E0004CEA010C49084FEA300092185B4150EA90
:1003F0000107EDD152EA030012D082EA040083EA39
:100400000501084305D0101BAB4106D20122002391
:1004100006E000224FF0004302E06FF001025310AB
:100420001AEB06004CEB085110EB0A0041EB0B01F4
:10043000BDE8F04D00F05BB80EB5C10F80EAE0708A
:100440000844CA07002140F233438DE80E000A46F3
:100450000B4600F05BF803B000BDC1F30A5210B5C3
:10046000C1F3130140F2FF3341F480119A4201DAE3
:10047000002010BD40F233439A42A2F2334203DC23
:10048000524200F012F810BD904010BD202A04DB4B
:10049000203A00FA02F1002070479140C2F1200397
:1004A00020FA03F3194390407047202A04DB203AD6
:1004B00021FA02F00021704721FA02F3D040C2F184
:1004C00020029140084319467047202A06DBCB17CB
:1004D000203A41FA02F043EAE07306E041FA02F3FF
:1004E000D040C2F12002914008431946704710B530
:1004F000141E73F1000408DA401C41F10001921847
:100500005B411A4301D120F0010010BD2DE9F04DEF
:1005100092469B4611B1B1FA81F202E0B0FA80F244
:1005200020329046FFF7B2FF04460F4640EA0A0029
:1005300041EA0B0153465A46084313D0114653EA89
:10054000010019D0C8F140025046FFF7AEFF054642
:100550000E46504659464246FFF798FF084305D0DD
:10056000012004E020463946BDE8F08D0020054317
:1005700046EAE0762C4337430A986305E40AA0EB89
:1005800008000022FD0A44EA47540A3002D5002040
:100590000146E9E7010510196941DDE9084500193F
:1005A0006941BDE8F04DA2E7064C074D06E0E06862
:1005B00040F0010394E8070098471034AC42F6D3AA
:1005C000FFF7CAFD94700008B470000880B542F2CD
:1005D0000040C4F20100012104F0DEF9FFE7002031
:1005E000C4F202000021022205F080F8002801D1A7
:1005F000FFE7F4E70020C4F202000021022205F028
:1006000063F880BD80B582B0019000208DF80300B2
:100610000199B1F8A0200A60019948600199087217
:1006200001994872019890F8A4108172019946F2DC
:100630000040C4F2000004F027FC02B080BD0000BE
:1006400070B582B013468C4601908DF80310ADF85A
:100650000020BDF8000044F6D351C1F26201A0FBB6
:100660000101890946F26762C6F2666251FB02FE29
:100670004FEA9E0404EBDE7E0EEB8E0EA1EB4E01E4
:100680003031DDF804E09DF803400EF80410BDF8A9
:10069000001048F21F5EC5F2EB1EA1FB0E1E4FEAD2
:1006A0005E1E5EFB02F4A50805EBD47404EB840423
:1006B000AEEB440E0EF1300E019C9DF803502C441D
:1006C00084F801E0BDF800E04CF6CD44CCF6CC4413
:1006D000AEFB04E5ED0855FB02F2960806EBD2727C
:1006E00002EB8202A5EB42023032019D9DF80360CD
:1006F0003544AA70BDF80020A2FB0445ED0805EBC7
:100700008505A2EB450242F03002019D9DF8036091
:100710003544EA7002B070BD80B582B040F600008A
:10072000C4F20100042141F6BD730191019A05F064
:10073000EDF840F60040C4F2010046F61763019957
:10074000019A05F0E3F841F20000C4F201004FF411
:1007500060430199019A05F0D9F802B080BD00000C
:1007600080B58EB00D9040F2197005F087FB46F20F
:100770000040C4F20000049004F086F900200AA9A9
:100780000390029104F0CCFC03988DF82D008DF8B5
:100790002F008DF82E008DF830008DF829000421EF
:1007A0008DF82A1002218DF82B108DF82C008DF871
:1007B00031000D9909798DF828100498029904F0F8
:1007C00073FA0D9909684FF47A725143049A0190B3
:1007D000104604F029FA0399ADF81E10ADF8201068
:1007E0000122ADF82220ADF81410ADF81610ADF8C6
:1007F0001810ADF81A100D9B5B79ADF81C308DF810
:10080000242005AA0090104604F05EF90EB080BDC9
:1008100080B582B04FF4C06005F030FB40F202605A
:1008200005F02CFB40F60000C4F201004821032231
:100830004FF400630190009205F068F81C214FF41A
:1008400080530198009A05F061F802B080BD000065
:1008500080B59CB040F2026005F010FB40F20360EE
:1008600005F00CFB40F2046005F008FB40F2056067
:1008700005F004FB40F2066005F000FB40F2096061
:1008800005F0FCFA40F20A6005F0F8FA4FF4A060B7
:1008900005F0F4FA40F21D7005F0F0FA4FF4C06074
:1008A00005F0ECFA41F20000C4F2010004214FF41B
:1008B000204312901191119A05F028F841F600009A
:1008C000C4F201004FF48061119A10911146109BFF
:1008D00005F01CF840F60040C4F201001021062388
:1008E0000F900E91119A05F011F84FF48040129973
:1008F0000D9008460E99119A0D9B05F007F80120FE
:100900000F990C9008460E99119A0C9B04F0FEFF6B
:100910004FF400700F990B9008460E99119A0B9B9B
:1009200004F0F4FF40F60000C4F201000A900E99B2
:10093000119A109B04F0EAFF0F981199119A0E9BDF
:1009400004F0E4FF18200A99099008460999119AC1
:100950000B9B04F0DBFF4FF480700A990890084667
:100960000999119A089B04F0D1FF0F980999119ADF
:100970000D9B04F0CBFF4FF400530F980999119A87
:1009800004F0C4FF02200A99079008460999119AB9
:10099000079B04F0BBFF0020AD230A990690084690
:1009A0000699119A04F0B2FF202312980699119A21
:1009B00004F0ACFF06988DF86E0040F20801C2F218
:1009C000000117910C998DF86D104FF40062189288
:1009D00042F24C42C4F2010215928DF86C000B9A5F
:1009E0001692032319934FF4405CCDF868C040F28F
:1009F000000CC4F2020C15AA604606990593CDF8C6
:100A000010C004F08FFE0498069904F03FFE04988D
:100A1000069904F0FFFD4FF4C02003F0DFFE42F220
:100A20000040C4F20100039008990C9A03F0D4FF2F
:100A300003980799069A03F0CFFF0398069903F0ED
:100A400031FE0398069903F093FF03980C99059AD9
:100A500003F0F0FD42F60000C4F201000290089994
:100A60000C9A03F0B9FF02980799069A03F0B4FFB5
:100A70000298069903F016FE0298069903F078FF93
:100A800002980C99059A03F0D5FD4FF46020039964
:100A9000019008460C99019A03F076FE03980C9990
:100AA0000C9A03F02FFE02980C99019A03F06CFE49
:100AB00002980C990C9A03F025FE03980699069A61
:100AC000069B03F09BFE03980C99059A069B03F086
:100AD00095FE072203980799069B03F08FFE029864
:100AE0000699079A069B03F089FE052202980C9945
:100AF000069B03F083FE0F2202980799069B03F0E2
:100B00007DFE039803F0EEFD039803F075FD029857
:100B100003F0E8FD029803F06FFD039803F0D8FDA1
:100B20000A980699059A0E9B04F0F0FE47F20040E1
:100B3000C4F20000016841F00101016006980699C5
:100B4000069A04F05FFC069804F0B6FC4FF4FA70C5
:100B5000139006988DF851008DF85000FFF758FE5D
:100B600013A8FFF7FDFD1CB080BD000080B586B066
:100B700001468DF817000020C4F202000122022372
:100B800004900391114602921A4604F09DFD0498C8
:100B9000029904F021FD9DF817200498029904F0B1
:100BA00087FE44F60000C4F20000802106F0C8F879
:100BB0000498029904F02EFDFFE744F60000C4F209
:100BC0000000062106F0F2F8002802D1FFE700BF7E
:100BD000F3E744F60000C4F200000621019006F09D
:100BE000CFF80021019806F0ABF806B080BD0000F8
:100BF00010B590B00F904FF4A06005F03FF940F2AF
:100C0000127005F03BF940F2065005F037F900206C
:100C10008DF83A000F9949690A9101218DF8391030
:100C20000B9044F60402C4F2000208928DF83800DA
:100C300009900C904FF440530D9340F2000CC4F215
:100C4000020C4FF0020E08AC079060460691714608
:100C5000059222460493CDF80CC0CDF808E001942B
:100C600004F060FD0398029904F010FD03980299C6
:100C700004F0D0FC06988DF83A000F9909690A91A2
:100C80008DF8390007990B91059A08928DF8381064
:100C900009910C91049B0D9303980699019A04F015
:100CA00041FD0398069904F0D3FC0398069904F0DB
:100CB000B1FC44F60000C4F20000009005F0CEFF45
:100CC0000F980168009805F04BFF0F984168009855
:100CD00006F0B8F80F98C168009806F01FF90F9851
:100CE0008168009806F0F4F80098079905F09EFFD7
:100CF0000098079906F090F80098079906F076F8A2
:100D0000009806F0C5F83221009806F0CDF8402191
:100D1000009805F0FFFF8021009806F011F80821E7
:100D2000009806F0E5F80421009806F09BF800987A
:100D300006F01CF810B010BD80B582B001468DF8E9
:100D40000700FFE744F60000C4F2000042F2102161
:100D500006F02CF8002801D0FFE7F3E79DF8070024
:100D6000FFF704FF02B080BD80B582B04FF4C060D1
:100D700005F084F840F2036005F080F840F600408A
:100D8000C4F20100182103224FF480630190009205
:100D900004F0BCFD04214FF400630198009A04F0B4
:100DA000B5FD02B080BD000010B598B0179040F2BC
:100DB000015005F063F840F20F7005F05FF8002075
:100DC0008DF85A0017998968129101218DF85910F0
:100DD000139043F60C42C4F2000210928DF85800B2
:100DE000119014904FF44053159340F2004CC4F20C
:100DF000020C0DF1400E08906046089C07912146B8
:100E0000069272460593CDF810C0CDF80CE004F0C0
:100E100089FC0498089904F039FC0498089904F0B6
:100E2000F9FB07988DF85A001799496812918DF8C7
:100E3000590008991391069A10928DF85810119143
:100E40001491059B159304980799039A04F06AFC82
:100E500043F60040C4F20000029005F091F809A8A2
:100E6000019005F017F94FF48270099008980A90E4
:100E7000179909680B910C901799897B0D91179917
:100E8000497B0E911799097B0F910298019905F002
:100E9000C7F8029805F06AF818B010BD80B584B0A4
:100EA00001468DF80F0040F20040C4F2020001221A
:100EB000029001911146009204F08EFB9DF80F20E4
:100EC0000298009904F0F4FC43F60040C4F20000DC
:100ED000002105F033F80298009904F09BFBFFE72E
:100EE00040F20040C4F202000121022204F0FEFBA5
:100EF000002801D1FFE7F3E740F20040C4F202000E
:100F00000121022204F0E0FB43F60040C4F200009D
:100F1000002104F0FBFF04B080BD000080B582B06A
:100F200001468DF80700FFE743F60040C4F20000D9
:100F3000022105F05FF8002801D1FFE7F4E79DF8F2
:100F40000700FFF7ABFF02B080BD000080B584B0A2
:100F50004FF4C06004F092FF40F2036004F08EFF93
:100F600040F60040C4F20100182103222023039020
:100F70000291019204F0CAFC082303980299019A95
:100F800004F0C4FC04B080BD80B592B011901198FB
:100F90001090119840080F9040F20B6004F06EFF23
:100FA00042F60040C4F20100039005F0F7FB1098F0
:100FB0000D900020ADF82C00ADF83800ADF82E00F3
:100FC000ADF83000FF218DF83A100BA9039A02907A
:100FD000104605F0E3FC0120ADF820000421ADF837
:100FE00022100299ADF82410ADF82610ADF82810A3
:100FF000ADF82A1008AA039B01901846009205F04C
:101000006BF903980199009A05F066F90398029923
:10101000029A05F07FFB03980299029A05F01CF9E9
:1010200003980199029A05F075FB03980199029AB9
:1010300005F012F90F9A0398029905F0FFFA602261
:101040000398029905F0B2FA03980299029A05F002
:1010500019FB0F9A0398019905F0F0FA7022039892
:10106000019905F0A3FA03980199029A05F00AFB89
:101070001520ADF814000298ADF81600ADF8100078
:10108000ADF812004FF48041ADF81810ADF81A0019
:10109000ADF81C0004A9039805F0C8F81920022136
:1010A000029A04F035FD0398019905F00DFD0398AF
:1010B00005F06AFC12B080BD80B58AB0099009982D
:1010C00008904FF4E06004F0D9FE4FF080400390A8
:1010D00005F064FB089806900020ADF81000ADF80C
:1010E0001C00ADF81200ADF814008DF81E0004A924
:1010F000039A0290104605F051FC1C200121019139
:10110000029A04F005FD0398019905F0DDFC0398AF
:10111000019905F00DFD039805F07EF8039805F0A0
:1011200033FC0AB080BD000080B590B00F900F98DE
:101130000E900F9840080D9040F2037004F09EFE50
:1011400040F60040C4F20000019005F027FB0E9825
:101150000B900020ADF82400ADF83000ADF826006B
:10116000ADF82800FF208DF8320009A9019805F09C
:1011700015FC0121019805F0A7FC322003F0E2F9EB
:10118000019805F001FC10B080BD000080B586B06C
:1011900001468DF817000020C4F2020004220490DA
:1011A00003911146029204F017FA9DF81720049853
:1011B000029904F07DFB43F60000C4F201004021D7
:1011C00005F0A8FD0498029904F024FAFFE7002036
:1011D000C4F202000421022204F088FA002100284F
:1011E00001910DD1FFE743F60000C4F2010042F285
:1011F0000B2105F0DBFDB0FA80F040090190FFE71C
:101200000198C007002802D0FFE700BFDFE743F6E0
:101210000000C4F2010042F20B21009005F0B0FD85
:101220000021009805F076FD06B080BD80B586B03F
:1012300001468DF817000020C4F2020003220223A9
:1012400004900391114602921A4604F03DFA049864
:10125000029904F0C1F99DF817200498029904F04E
:1012600027FB43F60000C4F20100802105F068FD71
:101270000498029904F0CEF9FFE743F60000C4F2A7
:101280000100062105F092FD002802D1FFE700BF12
:10129000F3E743F60000C4F201000621019005F0D7
:1012A0006FFD0021019805F04BFD06B080BD0000E8
:1012B00010B592B011904FF4A06004F0DFFD40F241
:1012C0000E6004F0DBFD40F2065004F0D7FD002074
:1012D0008DF84200119949690C9101218DF8411056
:1012E0000D9043F60402C4F201020A928DF8400008
:1012F0000B900E904FF440530F9340F2000CC4F249
:10130000020C4FF0040E0AAC099060460891714639
:10131000079222460693CDF814C0CDF810E003944E
:1013200004F000FA0598049904F0B0F905980499BE
:1013300004F070F908988DF84200119909690C9130
:101340008DF8410009990D91079A0A928DF8401085
:101350000B910E91069B0F934FF0030C059861467D
:10136000039ACDF808C004F0DDF90598029904F05D
:101370006FF90598029904F04DF943F60000C4F2A4
:101380000100019005F06AFC11980168019805F0D0
:10139000E7FB11984168019805F054FD1198C16868
:1013A000019805F0BBFD11988168019805F090FD4A
:1013B0000198099905F03AFC0198099905F02CFD6E
:1013C0000198099905F012FD1421019805F06CFDB2
:1013D000019805F05DFD4021019805F09BFC8021FE
:1013E000019805F0ADFC0821019805F081FD0198F8
:1013F000049905F037FD019805F0B8FC12B010BD56
:1014000080B5FFE743F60000C4F2010042F210216C
:1014100005F0CCFC002801D0FFE7F3E73220FFF70E
:10142000B5FE80BD80B582B001468DF80700FFE7AC
:1014300043F60000C4F2010042F2102105F0B6FCB0
:10144000002801D0FFE7F3E79DF80700FFF7EEFE65
:1014500002B080BD80B582B04FF4C06004F00EFDD4
:1014600040F2036004F00AFD0420C4F201000168A8
:1014700041F00401016040F60040C4F2010018216F
:10148000032240230190009204F040FA04218023BB
:101490000198009A04F03AFA02B080BD80B596B087
:1014A000FFF7D6F9FFF7D6FFFFF75EFCFFF74EFD1B
:1014B0004FF4E1301090002111911291139140F2FC
:1014C0004012C2F2000202F132031493159210ABE3
:1014D0000590184604910392FFF7EAFE2020039935
:1014E00081F832000122029010460192FFF79AFF24
:1014F00005980A9004990B910C910D9140F2BC0251
:10150000C2F2000202F114030E930F920AA8009295
:10151000FFF76EFB0298009908750198FFF70CFC25
:1015200042F6DF60FFF730FD0E20FFF7FDFD4DF2C4
:10153000BF40C0F20100FFF7BFFD08208DF8240076
:1015400004988DF826004FF4006106918DF825006F
:1015500040F2EA01C2F2000101F12E0207920631C7
:10156000089106A8FFF720FC16B080BD83B002905A
:10157000002001908DF80300FFE702989DF803100A
:10158000405C00212F280A46C8BF01223A28B8BF74
:1015900001210A4211D0FFE7019840000190029812
:1015A0009DF80310405C01990844303801909DF883
:1015B000030001308DF80300DFE7019803B07047A6
:1015C00082B001900020ADF80200ADF80000FFE706
:1015D0000198BDF80010405C00212F280A46C8BFC2
:1015E00001223A28B8BF01210A4217D0FFE7BDF80F
:1015F000020000EB80004000ADF802000198BDF849
:101600000010405CBDF8021008443038ADF802000C
:10161000BDF800000130ADF80000D9E7BDF80200C8
:1016200002B0704780B582B0009000980138B0F1E8
:10163000807F03D3FFE70120019019E00098013873
:101640004EF21401CEF2000108604FF0FF300F217E
:1016500002F0B0FF4EF21800CEF20000002101604F
:101660004EF21000CEF20000072202600191FFE767
:10167000019802B080BD000080B541F29450C2F2E2
:10168000000001680131016000684CF66311C9F285
:101690002F6148434FEAF00043F60621C0F26D0186
:1016A000884224D8FFE741F22E50C2F200000178B0
:1016B000B1FA81F1490901700078002808D0FFE7EC
:1016C00040F60040C4F20100012104F017F90DE0DA
:1016D00040F60040C4F20100012104F007F941F294
:1016E0009450C2F2000000210160FFE7FFE740F2E2
:1016F0004010C2F2000000F02BFA80BD80B582B02D
:101700004EF68850CEF20000016841F4700101608D
:1017100041F20000C4F20200016841F001010160E1
:1017200041F20401C4F2020100220A6041F22C01DC
:10173000C4F202010A6001684FF6FF73CEF6F62389
:101740001940016041F20801C4F202014FF47F0325
:101750000B60016821F480210160019204F058FDC2
:101760004FF00060019904F061FA02B080BD000002
:1017700080B542F60040C4F20100012105F0BAF93B
:10178000002808D0FFE742F60040C4F20100012122
:1017900005F0A4F9FFE780BD80B54FF0804001213E
:1017A00005F0A8F9002850D0FFE74FF08040012154
:1017B00005F094F941F29250C2F20000007800283E
:1017C00026D1FFE740F24010C2F2000043F22E7132
:1017D000C0F60D21C0F83D1045F22061C2F631611E
:1017E000C0F83A1042F25401C4F64F31C0F8361036
:1017F00045F25341C5F24121C0F832100F20FFF7E6
:1018000011FE41F29250C2F20000012101700BE082
:1018100041F29250C2F200000078002803D0FFE7A6
:10182000FFF7EEFDFFE7FFE740F24010C2F20000D5
:101830000078002808D0FFE740F24010C2F2000014
:10184000012180F86510FFE7FFE780BD80B584B017
:1018500040F60040C4F20000012105F04BF90028D9
:1018600000F07381FFE740F60040C4F20000012160
:1018700005F034F941F23950C2F200000078002836
:1018800000F06281FFE741F29850C2F20000018847
:1018900001310180008841F28851C2F200010988BB
:1018A0004FF4FA52B2FBF1F1884240F3B480FFE703
:1018B00041F23050C2F20000008841F28A51C2F277
:1018C00000010988884280F2A680FFE741F2985023
:1018D000C2F200000021018041F20000C4F20100C8
:1018E0004FF4005104F0DCF801280ED1FFE741F27B
:1018F0003050C2F20000008840F2A611C2F200018E
:101900000A5C520001320A540CE041F23050C2F23B
:101910000000008840F2A611C2F200010A5C5200E9
:101920000A54FFE741F20000C4F201004FF4004105
:1019300004F0B6F801280ED1FFE741F23050C2F2B0
:101940000000008840F2A611C2F200010A5C5200B9
:1019500001320A540CE041F23050C2F2000000881B
:1019600040F2A611C2F200010A5C52000A54FFE7DD
:1019700041F60000C4F201004FF4806104F090F8D9
:1019800001280ED1FFE741F23050C2F2000000887A
:1019900040F2A611C2F200010A5C520001320A5460
:1019A0000CE041F23050C2F20000008840F2A61173
:1019B000C2F200010A5C52000A54FFE740F6004000
:1019C000C4F20100102104F06BF801280ED1FFE7EA
:1019D00041F23050C2F20000008840F2A611C2F27B
:1019E00000010A5C520001320A540CE041F230500E
:1019F000C2F20000008840F2A611C2F200010A5CA7
:101A000052000A54FFE741F23050C2F20000018850
:101A10000131018097E041F23050C2F200000088AD
:101A200041F28A51C2F2000109888842C0F28A80DC
:101A3000FFE741F23050C2F200000021018041F284
:101A40003852C2F200020123137041F23953C2F23C
:101A5000000319701170322203901046029102F0B7
:101A600071FD029803990880FFE741F23050C2F2FD
:101A70000000008841F28A51C2F2000109888842C0
:101A80005CDAFFE741F23A50C2F200000021017037
:101A9000FFE741F23050C2F20000008841F23A51B3
:101AA000C2F200010978084441F28A51C2F20001F1
:101AB00009880022884201920BDAFFE741F23A508E
:101AC000C2F20000007800213228B8BF0121019144
:101AD000FFE70198C007002820D0FFE741F230500F
:101AE000C2F20000008841F23A51C2F200010978C6
:101AF000084440F2A611C2F20001095C40F2401213
:101B0000C2F20002104480F83210FFE741F23A506E
:101B1000C2F20000017801310170BAE741F23A5097
:101B2000C2F200000078FFF77DFCFFE741F2305081
:101B3000C2F2000001883231018096E71C2002F0D9
:101B40001FFDFFE7FFE7FFE7FFE704B080BD0000F0
:101B50002DE9F04FC3B0429000208DF807018DF8B9
:101B60000601ADF8040140F24010C2F2000090F806
:101B70006500002802F0E384FFE740F24010C2F263
:101B80000000002180F865101C2002F0DBFC429967
:101B900041F23B50C2F2000032224090FEF7F4FACC
:101BA00046F69E71C0F60001409A3F901046FEF73F
:101BB0000BFB41F28C51C2F200010860086846F646
:101BC000BE71C0F600010322FEF7F0FA002809D02A
:101BD000FFE741F23B50C2F200000078102840F0CD
:101BE000AD82FFE746F69E71C0F600010020FEF7C9
:101BF000EBFA41F28C51C2F20001086008680088DB
:101C000044F64F61884208D0FFE741F23B50C2F2F0
:101C10000000407805284ED1FFE742F60040C4F2AC
:101C20000100002101223E903D913C9204F072FDA2
:101C300004203E993B9008463D993B9A04F00CFBEA
:101C40003E983C993C9A04F065FD3E983C993B9A3D
:101C500004F002FB41F28C50C2F2000000680088E0
:101C600044F64F6188421AD1FFE740F24010C2F2B9
:101C7000000045F25241C0F60D21C0F8391045F27E
:101C80005341C5F24121C0F8361045F25071C2F2FD
:101C90004D01C0F832100B20FFF7C4FB0AE040F200
:101CA0004010C2F20000AC2180F832100120FFF792
:101CB000B9FBFFE740E241F28C50C2F2000000683D
:101CC00046F6AB71C0F600010322FEF76FFA00285A
:101CD00008D0FFE741F23B50C2F2000040780A28EA
:101CE0004ED1FFE742F60040C4F2010000213A90D5
:101CF0003991399A04F00EFD3A983999399A04F0DD
:101D0000ABFA01203A99389008463899399A04F08C
:101D100001FD3A983899399A04F09EFA41F28C50B4
:101D2000C2F20000006846F6AB71C0F60001032263
:101D3000FEF73CFA002817D1FFE740F24010C2F24C
:101D4000000040F60D21418745F25341C5F24F0195
:101D5000C0F8361045F25071C2F24D01C0F8321091
:101D60000A20FFF75FFB0AE040F24010C2F20000D9
:101D7000AC2180F832100120FFF754FBFFE7DAE1D5
:101D800041F28C50C2F200000068006845F2462122
:101D9000C5F24511884209D0FFE741F23B50C2F23B
:101DA00000004078FC2840F08780FFE741F28C502B
:101DB000C2F200000068006845F24621C5F24511F4
:101DC00088424AD1FFE746F69E71C0F60001002026
:101DD000FEF7FAF941F28C51C2F20001086008687E
:101DE000FFF7EEFBFEF728FB41EC100B9FEDEA1B23
:101DF00051EC110B53EC102BFEF7AFFA41EC100B2A
:101E000051EC100B9FEDE60B53EC102BFEF7FEF997
:101E100041EC100B51EC100BFEF71FFBFFF7B4F871
:101E200040F24010C2F2000040F60D21C18745F299
:101E30004141C4F24541C0F83A1045F22051C4F284
:101E40005041C0F8361045F24621C5F24511C0F8A0
:101E500032100E20FFF7E6FA2DE041F23B50C2F2BD
:101E600000008078FEF7E8FA41EC100B9FEDCA1BEA
:101E700051EC110B53EC102BFEF76FFA41EC100BE9
:101E800051EC100B9FEDC60B53EC102BFEF7BEF977
:101E900041EC100B51EC100BFEF7DFFAFFF774F872
:101EA00040F24010C2F20000AC2180F83210012054
:101EB000FFF7B8FAFFE73DE141F28C50C2F20000B3
:101EC0000068008845F24441884208D0FFE741F2AB
:101ED0003B50C2F200004078D1285FD1FFE741F2C9
:101EE0008C50C2F200000068008845F244418842EC
:101EF00038D1FFE746F69E71C0F600010020FEF7DC
:101F000063F941F28C51C2F20001086042F644408C
:101F1000C4F20100026822F0FF02026009683790F3
:101F20000846FFF74DFBC0B237990A6810430860B6
:101F300040F24010C2F2000044F24542C0F60D22C9
:101F4000C0F83A2044F25042C5F24142C0F836206F
:101F500045F24442C5F22052C0F832200C20FFF76F
:101F600061FA1AE042F64440C4F20100016821F02F
:101F7000FF01016041F23B51C2F200018978026821
:101F80001143016040F24010C2F20000AC2180F821
:101F900032100120FFF746FAFFE7CAE041F28C5009
:101FA000C2F200000068008844F24431884209D03F
:101FB000FFE741F23B50C2F200004078DC2840F0DD
:101FC000B780FFE741F28C50C2F200000068008841
:101FD00044F2443188426BD1FFE746F69E71C0F669
:101FE00000010020FEF7F0F841F28C51C2F200012E
:101FF000086042F62C40C4F2010090ED000AB8EEF1
:10200000400A0A683690104635918DED340AFFF784
:10201000D7FA00EE100AB8EEC00A9FED631A80EE00
:10202000010A9DED342A22EE000ABCEEC00A42F6F7
:102030003440C4F2010080ED000A369890ED000AA9
:10204000B8EE400A359908688DED331A8DED320AE5
:10205000FFF7B6FA00EE100AB8EEC00A9DED331A8B
:1020600080EE010A9DED322A22EE000ABCEEC00A83
:1020700042F63840C4F2010080ED000A40F2401000
:10208000C2F2000044F24541C0F60D21C0F83A10FA
:1020900044F25041C5F24141C0F8361044F2443197
:1020A000C5F22051C0F832100C20FFF7BBF93EE01A
:1020B00042F62C40C4F2010090ED000AB8EE400A4E
:1020C00041F23B51C2F200018A7801EE102AB8EECB
:1020D000C11A9FED352A81EE021A20EE010ABCEEEC
:1020E000C00A42F63442C4F2010282ED000A90EDC9
:1020F000000AB8EE400A887801EE100AB8EEC11A5C
:1021000081EE021A20EE010ABCEEC00A42F6384007
:10211000C4F2010080ED000A40F24010C2F200005B
:10212000AC2180F832100120FFF77CF9FFE7FFE7D0
:10213000FFE7FFE7FFE7FFE702F0E5B941F28C5068
:10214000C2F20000006846F6A771C0F60001032243
:10215000FEF72CF8002809D0FFE741F23B50C2F20D
:1021600000000078AD2840F00D83FFE746F69E7131
:10217000C0F600010020FEF727F841F28C51C2F2B0
:10218000000108600868006844F25251C4F24141FD
:10219000884214D00AE000BF00000000004CFD405F
:1021A000000000000000F0BF0000C84241F23B50B8
:1021B000C2F200004078FD2840F0A181FFE7002036
:1021C0008DF80701FFE79DF8070109282ADCFFE7E2
:1021D000FEF7FCF900208DF80601FFE79DF80601E7
:1021E000052818DCFFE79DF8060140F20801C2F25D
:1021F000000131F8101041F27052C2F2000252F8A0
:102200002030194442F82010FFE79DF80601013004
:102210008DF80601E2E7FFE79DF8070101308DF830
:102220000701D0E741F28C50C2F20000006800685C
:1022300044F25251C4F24141884240F0C380FFE76A
:1022400040F24010C2F2000044F24921C5F255317B
:1022500040F8321F42F23A01818041F27052C2F2DC
:10226000000213684CF6CD4CCCF6CC4CA3FB0C3ED4
:10227000CEF3CF0E06243190309121462F92724634
:10228000CDF8B8C02D932C94FEF7DAF90D203199D2
:1022900088720A22CA720C232B9018462A9229931C
:1022A000FFF7C0F830983199888044F25612C4F68E
:1022B00043420A602F9A5368DDF8B8C0A3FB0C3E76
:1022C000CEF3CF0208462C992893FEF7B9F92B9844
:1022D000319988722A9ACA722998FFF7A3F844F6AE
:1022E0004940C2F23A00319908602F9882682E9BCB
:1022F000A2FB032CCCF3CF0C042131982792624629
:10230000FEF79EF92B98319908722A9A4A72104664
:10231000FFF788F830983199888044F25452C5F21A
:102320004D020A602F9AD368DDF8B8C0A3FB0C3EBB
:10233000CEF3CF0208462C992693FEF781F92B980D
:10234000319988722A9ACA722998FFF76BF83098E7
:102350003199888044F25612C4F643520A602F9A8B
:102360001369DDF8B8C0A3FB0C3ECEF3CF020846DC
:102370002C992593FEF764F92B98319988722A9A43
:10238000CA722998FFF74EF830983199888044F244
:102390005622C5F255320A602F9A5369DDF8B8C04B
:1023A000A3FB0C3ECEF3CF0208462C992493FEF7F4
:1023B00047F92B98319988722A9ACA722998FFF79F
:1023C00031F882E041F27050C2F2000001684CF630
:1023D000CD42CCF6CC42A1FB0213DB0A40F2401CFA
:1023E000C2F2000C8CF832300368A3FB023E4FEAC5
:1023F000DE0E8CF833E04FF0200E8CF834E04468A9
:10240000A4FB0245ED0A8CF835504568A5FB025641
:10241000F6088CF836608CF837E08668A6FB026711
:10242000FF0A8CF838708768A7FB02784FEAD80853
:102430008CF839808CF83AE0D0F80C80A8FB02893F
:102440004FEAD9298CF83B90D0F80C90A9FB029A5E
:102450004FEADA0A8CF83CA08CF83DE0D0F810A0E6
:10246000AAFB02AB4FEADB2B8CF83EB0D0F810B0E1
:102470002390ABFB02B0C0088CF83F008CF840E022
:102480002398D0F814E0AEFB02E0C00A8CF84100BB
:1024900023984069A0FB0202D2088CF84220112246
:1024A00022901046219120931F941E951D961C97F3
:1024B000CDF86C80CDF86890CDF864A0CDF860B010
:1024C000CDF85CE0FEF7AEFFFFE700208DF80601D7
:1024D000FFE79DF80601052810DCFFE79DF80601DF
:1024E00041F27051C2F20001002241F82020FFE7C2
:1024F0009DF8060101308DF80601EAE740E141F25E
:102500008C50C2F20000006846F6CE71C0F60001A1
:102510000722FDF74BFE002809D0FFE741F23B50B0
:10252000C2F2000040785A2840F02981FFE741F2CA
:102530008C50C2F20000006846F6CE71C0F6000171
:102540000722FDF733FE002840F0D180FFE746F672
:102550009E71C0F6000100201690FDF735FE41F295
:102560008C51C2F2000108600868FFF729F841F2B7
:102570009051C2F20001088016988DF80701FFE71C
:102580009DF8070141F29051C2F20001098888428A
:1025900080F2AC80FFE7FEF719F840F24010C2F27B
:1025A000000044F24921C5F2553140F8321F42F291
:1025B0003A01818040F20802C2F2000213884FF013
:1025C000060C15901491614613921A46CDF848C036
:1025D000FEF736F80D20159988720A22CA720C236C
:1025E0001190184610920F93FEF71CFF149815993E
:1025F000888044F25612C4F643420A60139A528805
:1026000008461299FEF71CF8119815998872109ACD
:10261000CA720F98FEF706FF44F64940C2F23A002C
:10262000159908601398828804211598FEF708F818
:10263000119815990872109A4A721046FEF7F2FE28
:1026400014981599888044F25452C5F24D020A60DC
:10265000139AD28808461299FDF7F2FF119815993E
:102660008872109ACA720F98FEF7DCFE14981599BA
:10267000888044F25612C4F643520A60139A1289B3
:1026800008461299FDF7DCFF119815998872109A87
:10269000CA720F98FEF7C6FE14981599888044F206
:1026A0005622C5F255320A60139A52890846129989
:1026B000FDF7C6FF119815998872109ACA720F9883
:1026C000FEF7B0FE42F62D50C0F60D201599886039
:1026D0004FF02D30486008600F98FEF7A3FEFFE72B
:1026E0009DF8070101308DF8070149E746E041F206
:1026F0003B50C2F200008178C07840EA012041F2EC
:102700009051C2F20001088000208DF80701FFE718
:102710009DF8070141F29051C2F2000109888842F8
:102720002BDAFFE7FDF752FF40F20800C2F200008B
:10273000018840F2EA02C2F20002D185202111860E
:102740004388538691868388D3861187C3885387AD
:1027500091870389D387A2F840104089A2F84200EC
:102760002120A2F844000C20FEF7D8FBFFE79DF8DB
:10277000070101308DF80701CAE7FFE7FFE7FFE730
:1027800001F0C0BE41F28C50C2F20000006846F673
:10279000A371C0F600010322FDF708FD002808D050
:1027A000FFE741F23B50C2F200000078DC2862D122
:1027B000FFE741F28C50C2F20000006846F6A371B8
:1027C000C0F600010322FDF7F1FC002836D1FFE737
:1027D00046F69E71C0F6000100200E90FDF7F4FC55
:1027E00041F28C51C2F2000108600868FEF7E8FE71
:1027F0000E990D9008460D9A02F004FE0E9802F014
:102800005BFE40F24010C2F200000A2180F83E1048
:1028100044F25451C0F64451C0F83A1045F2550103
:10282000C4F24411C0F8361044F24411C2F243011C
:10283000C0F832100D20FEF7F5FD1AE041F23B50D2
:10284000C2F200004178807840EA012200200C901A
:102850000C9902F0D7FD0C9802F02EFE40F24010C9
:10286000C2F20000AC2180F832100120FEF7DAFD40
:10287000FFE701F046BE41F28C50C2F20000006852
:10288000006845F24701C4F64971884209D0FFE764
:1028900041F23B50C2F2000000786F2841F04985B8
:1028A000FFE746F69E71C0F600010020FDF78CFCA4
:1028B00041F28C51C2F2000108600868006844F2DD
:1028C0005251C4F24141884209D0FFE741F23B50E6
:1028D000C2F2000040787D2840F0AC81FFE741F271
:1028E0008C50C2F200000068006844F25251C4F2F9
:1028F0004141884240F01281FFE741F20000C4F2FA
:1029000001004FF4005103F0CBF801281DD1FFE77F
:1029100040F24010C2F200000A2180F83E1044F25A
:102920004971C0F64851C0F83A1043F64521C4F643
:102930002001C0F8361045F25341C5F24141C0F8BC
:1029400032100C20FEF76EFD19E040F24010C2F28A
:10295000000045F24F71C0F60D21C0F83A1043F661
:102960004521C4F62041C0F8361045F25341C5F266
:102970004141C0F832100B20FEF754FDFFE741F251
:102980000000C4F201004FF4004103F089F801286F
:102990001DD1FFE740F24010C2F2000040F60D21C9
:1029A000C18744F64811C4F64701C0F83A1044F212
:1029B0004C51C2F23A01C0F8361044F64561C4F2F7
:1029C0004121C0F832100D20FEF72CFD1CE040F232
:1029D0004010C2F200000A2180F83E1044F64C710B
:1029E000C0F65751C0F83A1044F24C51C2F23A01C5
:1029F000C0F8361044F64561C4F24121C0F83210E7
:102A00000C20FEF70FFDFFE741F60000C4F20100C5
:102A10004FF4806103F044F801281DD1FFE740F234
:102A20004010C2F200000A2180F83E1044F24971C1
:102A3000C0F64851C0F83A1043F64B21C4F62001C5
:102A4000C0F8361044F25741C4F65F71C0F8321036
:102A50000C20FEF7E7FC19E040F24010C2F2000043
:102A600045F24F71C0F60D21C0F83A1043F64B21E4
:102A7000C4F62041C0F8361044F25741C4F65F71E5
:102A8000C0F832100B20FEF7CDFCFFE740F6004007
:102A9000C4F20100102103F003F8012820D1FFE760
:102AA00040F24010C2F2000044F64701C0F60D218A
:102AB000C0F83D1044F62001C4F24971C0F83A1044
:102AC00044F65F11C3F64E21C0F8361045F6531197
:102AD000C4F24E31C0F832100E20FEF7A3FC1CE009
:102AE00040F24010C2F2000040F60D21C18744F6CA
:102AF0002041C5F24F71C0F83A1044F65F11C3F699
:102B00004E21C0F8361045F65311C4F24E31C0F8CC
:102B100032100D20FEF786FCFFE789E040F24010FE
:102B2000C2F20000002180F8321041F20000C4F22D
:102B300001004FF4005102F0B3FF01280BD1FFE771
:102B400040F24010C2F2000090F83210490001310A
:102B500080F8321009E040F24010C2F2000090F814
:102B60003210490080F83210FFE741F20000C4F251
:102B700001004FF4004102F093FF01280BD1FFE761
:102B800040F24010C2F2000090F8321049000131CA
:102B900080F8321009E040F24010C2F2000090F8D4
:102BA0003210490080F83210FFE741F60000C4F20D
:102BB00001004FF4806102F073FF01280BD1FFE7A1
:102BC00040F24010C2F2000090F83210490001318A
:102BD00080F8321009E040F24010C2F2000090F894
:102BE0003210490080F83210FFE740F60040C4F28E
:102BF0000100102102F054FF01280BD1FFE740F241
:102C00004010C2F2000090F832104900013180F803
:102C1000321009E040F24010C2F2000090F8321089
:102C2000490080F83210FFE70120FEF7FBFBFFE7C9
:102C300001F07EBB41F28C50C2F20000006846F603
:102C4000AF71C0F600010722FDF7B0FA002809D0E5
:102C5000FFE741F23B50C2F2000040787F2841F08C
:102C6000A080FFE7FDF758FD41F28C50C2F2000052
:102C7000006846F6AF71C0F600010722FDF796FA2C
:102C8000002840F0C985FFE741F20000C4F20100CE
:102C90004FF4005102F004FF01281DD1FFE740F27C
:102CA0004010C2F200000A2180F83E1044F249713F
:102CB000C0F64851C0F83A1043F64521C4F6200149
:102CC000C0F8361045F25341C5F24141C0F8321008
:102CD0000D20FEF7A7FB19E040F24010C2F2000001
:102CE00045F24F71C0F60D21C0F83A1043F6452168
:102CF000C4F62041C0F8361045F25341C5F24141B7
:102D0000C0F832100C20FEF78DFBFFE741F2000007
:102D1000C4F201004FF4804102F0C2FE01281DD12F
:102D2000FFE740F24010C2F200000A2180F83E1096
:102D300044F24971C0F64851C0F83A1043F659219F
:102D4000C4F62001C0F8361044F25251C4F2414199
:102D5000C0F832100D20FEF765FB19E040F240107C
:102D6000C2F2000045F24F71C0F60D21C0F83A10D2
:102D700043F65921C4F62041C0F8361044F25251AE
:102D8000C4F24141C0F832100C20FEF74BFBFFE7C4
:102D900041F20000C4F201004FF4004102F080FE55
:102DA00001281DD1FFE740F24010C2F2000040F6BA
:102DB0000D21C18744F64811C4F64701C0F83A1006
:102DC00044F24C51C2F23A01C0F8361044F6456163
:102DD000C4F24121C0F832100E20FEF723FB1CE0A4
:102DE00040F24010C2F200000A2180F83E1044F682
:102DF0004C71C0F65751C0F83A1044F24C51C2F22F
:102E00003A01C0F8361044F64561C4F24121C0F8D9
:102E100032100D20FEF706FBFFE740F60000C4F27B
:102E20000100012102F03CFE01281AD1FFE740F227
:102E30004010C2F2000044F64701C0F60D21C0F870
:102E40003A1042F23A01C4F64811C0F8361044F282
:102E50004921C5F25531C0F832100C20FEF7E2FAD4
:102E600019E040F24010C2F2000045F24F71C0F686
:102E70000D21C0F8391042F23A01C4F64C71C0F885
:102E8000361044F24921C5F25531C0F832100B20FA
:102E9000FEF7C8FAFFE740F60000C4F20100042183
:102EA00002F0FEFD01281AD1FFE740F24010C2F205
:102EB000000044F64701C0F60D21C0F83A1042F276
:102EC0003A01C4F64811C0F8361044F25611C4F65F
:102ED0004341C0F832100C20FEF7A4FA19E040F28A
:102EE0004010C2F2000045F24F71C0F60D21C0F84B
:102EF000391042F23A01C4F64C71C0F8361044F26F
:102F00005611C4F64341C0F832100B20FEF78AFA7E
:102F1000FFE740F60000C4F20100102102F0C0FDFE
:102F2000012820D1FFE740F24010C2F2000044F631
:102F30004701C0F60D21C0F83D1044F62001C4F24F
:102F40004971C0F83A1045F24F51C3F65421C0F808
:102F5000361044F24411C5F64371C0F832100F2008
:102F6000FEF760FA1CE040F24010C2F2000040F6AA
:102F70000D21C18744F62041C5F24F71C0F83A10C7
:102F800045F24F51C3F65421C0F8361044F24411B3
:102F9000C5F64371C0F832100E20FEF743FAFFE782
:102FA00040F60000C4F20100202102F079FD012862
:102FB0001AD1FFE740F24010C2F2000044F6470188
:102FC000C0F60D21C0F83A1042F23A01C4F6481199
:102FD000C0F8361044F25451C5F24D01C0F8321019
:102FE0000C20FEF71FFA19E040F24010C2F2000078
:102FF00045F24F71C0F60D21C0F8391042F23A0186
:10300000C4F64C71C0F8361044F25451C5F24D016B
:10301000C0F832100B20FEF705FAFFE740F600007B
:10302000C4F20100802102F03BFD01281AD1FFE724
:1030300040F24010C2F2000044F64701C0F60D21F4
:10304000C0F83A1042F23A01C4F64811C0F83610FE
:1030500044F25611C4F64361C0F832100C20FEF75A
:10306000E1F919E040F24010C2F2000045F24F7160
:10307000C0F60D21C0F8391042F23A01C4F64C7185
:10308000C0F8361044F25611C4F64361C0F832104D
:103090000B20FEF7C7F9FFE740F60040C4F201003D
:1030A000012102F0FDFC012820D1FFE740F2401091
:1030B000C2F2000044F64701C0F60D21C0F83E10F0
:1030C00042F23A01C4F64811C0F83A1044F64241BF
:1030D000C4F64E31C0F8361044F24C51C5F6447176
:1030E000C0F832101020FEF79DF91FE040F24010AA
:1030F000C2F2000045F24F71C0F60D21C0F83D103C
:1031000042F23A01C4F64C71C0F83A1044F642411A
:10311000C4F64E31C0F8361044F24C51C5F6447135
:10312000C0F832100F20FEF77DF9FFE740F60040AF
:10313000C4F20100022102F0B3FC01281DD1FFE717
:1031400040F24010C2F200000A2180F83E1044F222
:103150004971C0F64851C0F83A1043F65921C4F6F7
:103160002001C0F8361044F25251C4F24C11C0F89C
:1031700032100D20FEF756F919E040F24010C2F26D
:10318000000045F24F71C0F60D21C0F83A1043F629
:103190005921C4F62041C0F8361044F25251C4F20D
:1031A0004C11C0F832100C20FEF73CF9FFE740F656
:1031B0000040C4F20100042102F072FC012817D182
:1031C000FFE740F24010C2F2000040F60D214187B7
:1031D00044F64811C4F64701C0F8361044F257418E
:1031E000C2F23A01C0F832100A20FEF71BF916E0CD
:1031F00040F24010C2F200000A2180F83A1044F672
:103200004C71C0F65751C0F8361044F25741C2F223
:103210003A01C0F832100920FEF704F9FFE740F642
:103220000040C4F201004FF4806102F039FC012833
:1032300020D1FFE740F24010C2F2000044F64701FF
:10324000C0F60D21C0F83E1042F23A01C4F6481112
:10325000C0F83A1045F65471C5F65401C0F836105E
:1032600045F25531C5F24121C0F832101020FEF769
:10327000D9F81FE040F24010C2F2000045F24F7151
:10328000C0F60D21C0F83D1042F23A01C4F64C716F
:10329000C0F83A1045F65471C5F65201C0F8361020
:1032A00045F25531C5F24121C0F832100F20FEF72A
:1032B000B9F8FFE740F60040C4F201004FF40051B6
:1032C00002F0EEFB01281DD1FFE740F24010C2F2F0
:1032D000000040F60D21C18744F64811C4F64701AD
:1032E000C0F83A1044F65301C2F23A01C0F8361061
:1032F00045F25071C5F64D71C0F832100E20FEF740
:1033000091F81CE040F24010C2F200000A2180F85F
:103310003E1044F64C71C0F65751C0F83A1044F6CE
:103320005301C2F23A01C0F8361045F25071C5F6A9
:103330004D71C0F832100D20FEF774F8FFE740F62B
:103340000040C4F201004FF4804102F0A9FB0128C3
:103350001DD1FFE740F24010C2F2000040F60D21FF
:10336000C18744F64811C4F64701C0F83A1044F644
:103370005341C2F23A01C0F8361045F25071C5F619
:103380004D71C0F832100E20FEF74CF81CE040F2F0
:103390004010C2F200000A2180F83E1044F64C7141
:1033A000C0F65751C0F83A1044F65341C2F23A0100
:1033B000C0F8361045F25071C5F64D71C0F83210A4
:1033C0000D20FEF72FF8FFE740F60000C4F20100E1
:1033D0004FF4807102F064FB01281DD1FFE740F239
:1033E0004010C2F2000040F60D21C18744F648119A
:1033F000C4F64701C0F83A1044F64601C2F23A0159
:10340000C0F8361045F25071C5F64D71C0F8321053
:103410000E20FEF707F81CE040F24010C2F2000058
:103420000A2180F83E1044F64C71C0F65751C0F89E
:103430003A1044F64601C2F23A01C0F8361045F29D
:103440005071C5F64D71C0F832100D20FDF7EAFF3E
:10345000FFE740F60000C4F201004FF4007102F0F3
:103460001FFB01281DD1FFE740F24010C2F200000F
:1034700040F60D21C18744F64811C4F64701C0F853
:103480003A1044F64641C2F23A01C0F8361045F20D
:103490005071C5F64D71C0F832100E20FDF7C2FF15
:1034A0001CE040F24010C2F200000A2180F83E10F9
:1034B00044F64C71C0F65751C0F83A1044F64641F4
:1034C000C2F23A01C0F8361045F25071C5F64D719E
:1034D000C0F832100D20FDF7A5FFFFE740F60040D1
:1034E000C4F201004FF4005102F0DAFA01281DD1B4
:1034F000FFE740F24010C2F2000040F60D21C18704
:1035000044F64811C4F64701C0F83A1044F6530196
:10351000C2F23A01C0F8361045F25071C5F64D714D
:10352000C0F832100E20FDF77DFF1CE040F2401085
:10353000C2F200000A2180F83E1044F64C71C0F639
:103540005751C0F83A1044F65301C2F23A01C0F89C
:10355000361045F25071C5F64D71C0F832100D208D
:10356000FDF760FFFFE740F60000C4F201004FF4F2
:10357000806102F095FA012820D1FFE740F2401067
:10358000C2F2000044F64701C0F60D21C0F83E101B
:1035900042F23A01C4F64811C0F83A1044F65F719D
:1035A000C5F25541C0F8361045F65311C4F24E31FC
:1035B000C0F832101020FDF735FF1FE040F2401038
:1035C000C2F2000045F24F71C0F60D21C0F83D1067
:1035D00042F23A01C4F64C71C0F83A1044F65F71F9
:1035E000C5F25541C0F8361045F65311C4F24E31BC
:1035F000C0F832100F20FDF715FFFFE740F600007E
:10360000C4F201004FF4006102F04AFA01281DD112
:10361000FFE740F24010C2F2000040F60D21C187E2
:1036200044F64811C4F64701C0F83A1045F6520175
:10363000C2F23A01C0F8361044F24311C5F64E7199
:10364000C0F832100E20FDF7EDFE1CE040F24010F5
:10365000C2F200000A2180F83E1044F64C71C0F618
:103660005751C0F83A1045F65201C2F23A01C0F87B
:10367000361044F24311C5F64E71C0F832100D20D9
:10368000FDF7D0FEFFE740F60000C4F201004FF462
:10369000805102F005FA01281DD1FFE740F24010E9
:1036A000C2F2000040F60D21C18744F64811C4F66D
:1036B0004701C0F83A1045F65401C2F23A01C0F889
:1036C000361044F24311C5F64E71C0F832100E2088
:1036D000FDF7A8FE1CE040F24010C2F200000A21F3
:1036E00080F83E1044F64C71C0F65751C0F83A10BD
:1036F00045F65401C2F23A01C0F8361044F24311C3
:10370000C5F64E71C0F832100D20FDF78BFEFFE7B5
:1037100040F60040C4F20100102102F0C1F9012876
:1037200020D1FFE740F24010C2F2000044F647010A
:10373000C0F60D21C0F83D1044F62001C4F24971D5
:10374000C0F83A1044F65F11C3F64E21C0F83610A7
:1037500045F65311C4F24E31C0F832100F20FDF778
:1037600061FE1CE040F24010C2F2000040F60D2164
:10377000C18744F62041C5F24F71C0F83A1044F6B3
:103780005F11C3F64E21C0F8361045F65311C4F24E
:103790004E31C0F832100E20FDF744FEFFE740F630
:1037A0000040C4F201004FF4007102F079F90128E1
:1037B0001AD1FFE740F24010C2F2000044F6470180
:1037C000C0F60D21C0F8391044F62001C4F2497149
:1037D000C0F8361044F24611C3F64E21C0F832103C
:1037E0000B20FDF71FFE16E040F24010C2F2000071
:1037F00040F60D21418744F62041C5F24F71C0F8D3
:10380000361044F24611C3F64E21C0F832100A2099
:10381000FDF708FEFFE7C1E240F24010C2F20000EF
:10382000002180F8321041F20000C4F201004FF490
:10383000005102F035F901280BD1FFE740F24010AA
:10384000C2F2000090F832104900013180F83210C5
:1038500009E040F24010C2F2000090F83210490036
:1038600080F83210FFE741F20000C4F201004FF48B
:10387000804102F015F901280BD1FFE740F240101A
:10388000C2F2000090F832104900013180F8321085
:1038900009E040F24010C2F2000090F832104900F6
:1038A00080F83210FFE741F20000C4F201004FF44B
:1038B000004102F0F5F801280BD1FFE740F240107B
:1038C000C2F2000090F832104900013180F8321045
:1038D00009E040F24010C2F2000090F832104900B6
:1038E00080F83210FFE740F60000C4F20100012129
:1038F00002F0D6F801280BD1FFE740F24010C2F2E7
:10390000000090F832104900013180F8321009E0CF
:1039100040F24010C2F2000090F83210490080F8E6
:103920003210FFE740F60000C4F20100042102F06B
:10393000B7F801280BD1FFE740F24010C2F20000B7
:1039400090F832104900013180F8321009E040F25D
:103950004010C2F2000090F83210490080F8321096
:10396000FFE740F60000C4F20100102102F098F8D1
:1039700001280BD1FFE740F24010C2F2000090F89E
:1039800032104900013180F8321009E040F2401055
:10399000C2F2000090F83210490080F83210FFE7C0
:1039A00040F60000C4F20100202102F079F801285D
:1039B0000BD1FFE740F24010C2F2000090F8321045
:1039C0004900013180F8321009E040F24010C2F2A3
:1039D000000090F83210490080F83210FFE740F6FE
:1039E0000000C4F20100802102F05AF801280BD136
:1039F000FFE740F24010C2F2000090F83210490098
:103A0000013180F8321009E040F24010C2F20000AB
:103A100090F83210490080F83210FFE740F600407D
:103A2000C4F20100012102F03BF801280BD1FFE7AD
:103A300040F24010C2F2000090F83210490001310B
:103A400080F8331009E040F24010C2F2000090F814
:103A50003310490080F83310FFE740F60040C4F20D
:103A60000100022102F01CF801280BD1FFE740F20F
:103A70004010C2F2000090F832104900013180F885
:103A8000331009E040F24010C2F2000090F8331009
:103A9000490080F83310FFE740F60040C4F201000F
:103AA000042101F0FDFF01280BD1FFE740F2401097
:103AB000C2F2000090F832104900013180F8331052
:103AC00009E040F24010C2F2000090F833104900C3
:103AD00080F83310FFE740F60040C4F201004FF4D5
:103AE000806101F0DDFF01280BD1FFE740F24010BB
:103AF000C2F2000090F832104900013180F8331012
:103B000009E040F24010C2F2000090F83310490082
:103B100080F83310FFE740F60040C4F201004FF494
:103B2000005101F0BDFF01280BD1FFE740F240102A
:103B3000C2F2000090F832104900013180F83310D1
:103B400009E040F24010C2F2000090F83310490042
:103B500080F83310FFE740F60040C4F201004FF454
:103B6000804101F09DFF01280BD1FFE740F240109A
:103B7000C2F2000090F832104900013180F8331091
:103B800009E040F24010C2F2000090F83310490002
:103B900080F83310FFE740F60000C4F201004FF454
:103BA000807101F07DFF01280BD1FFE740F240104A
:103BB000C2F2000090F832104900013180F8331051
:103BC00009E040F24010C2F2000090F833104900C2
:103BD00080F83310FFE740F60000C4F201004FF414
:103BE000007101F05DFF01280BD1FFE740F24010AA
:103BF000C2F2000090F832104900013180F8331011
:103C000009E040F24010C2F2000090F83310490081
:103C100080F83310FFE740F60040C4F201004FF493
:103C2000005101F03DFF01280BD1FFE740F24010A9
:103C3000C2F2000090F832104900013180F83410CF
:103C400009E040F24010C2F2000090F83410490040
:103C500080F83410FFE740F60000C4F201004FF492
:103C6000806101F01DFF01280BD1FFE740F24010F9
:103C7000C2F2000090F832104900013180F834108F
:103C800009E040F24010C2F2000090F83410490000
:103C900080F83410FFE740F60000C4F201004FF452
:103CA000006101F0FDFE01280BD1FFE740F240105A
:103CB000C2F2000090F832104900013180F834104F
:103CC00009E040F24010C2F2000090F834104900C0
:103CD00080F83410FFE740F60000C4F201004FF412
:103CE000805101F0DDFE01280BD1FFE740F24010CA
:103CF000C2F2000090F832104900013180F834100F
:103D000009E040F24010C2F2000090F8341049007F
:103D100080F83410FFE740F60040C4F201001021A3
:103D200001F0BEFE01280BD1FFE740F24010C2F2C5
:103D3000000090F832104900013180F8341009E099
:103D400040F24010C2F2000090F83410490080F8B0
:103D50003410FFE740F60040C4F201004FF4007158
:103D600001F09EFE01280BD1FFE740F24010C2F2A5
:103D7000000090F832104900013180F8341009E059
:103D800040F24010C2F2000090F83410490080F870
:103D90003410FFE70320FDF745FBFFE7FCF758FD74
:103DA000C5E241F28C50C2F200000068006844F69F
:103DB0004811C4F64701884208D0FFE741F23B5062
:103DC000C2F200004078FF285AD1FFE740F6000019
:103DD000C4F201004FF4806101F090FD40F6004014
:103DE000C4F2010002210B9001F088FD04210B9820
:103DF00001F084FD4FF400710B9801F07FFD41F25A
:103E00000000C4F201004FF4804101F077FD41F25F
:103E10008C50C2F200000068006844F64811C4F6F5
:103E20004701884220D1FFE740F24010C2F2000073
:103E300044F64701C0F60D21C0F83D1044F62001BC
:103E4000C4F24971C0F83A1045F24701C4F649710D
:103E5000C0F8361044F64141C2F24C01C0F83210AD
:103E60000F20FDF7DFFA0AE040F24010C2F2000036
:103E7000AC2180F832100120FDF7D4FAFFE755E2BB
:103E800041F28C50C2F20000006846F6D671C0F6CE
:103E900000010322FCF78AF9002808D0FFE741F26D
:103EA0003B50C2F200004078002859D1FFE740F6AD
:103EB0000000C4F201004FF4806101F017FD40F6EC
:103EC0000040C4F2010002210A9001F00FFD04211C
:103ED0000A9801F00BFD4FF400710A9801F006FDFD
:103EE00041F20000C4F201004FF4804101F0FEFCF9
:103EF00041F28C50C2F20000006846F6D671C0F65E
:103F000000010322FCF752F900281DD1FFE740F21F
:103F10004010C2F2000040F60D21C18744F6204156
:103F2000C5F24F71C0F83A1045F24701C4F6497125
:103F3000C0F8361044F64141C2F24C01C0F83210CC
:103F40000E20FDF76FFA0AE040F24010C2F20000C6
:103F5000AC2180F832100120FDF764FAFFE7E4E1BC
:103F600041F28C50C2F20000006846F6B771C0F60C
:103F700000010622FCF71AF9002809D0FFE741F2F8
:103F80003B50C2F200004078CC2840F04E81FFE761
:103F900041F28C50C2F20000006846F6B771C0F6DC
:103FA00000010622FCF702F9002840F0AB80FFE791
:103FB00046F69E71C0F600010020FCF705F941F2BB
:103FC0008C51C2F2000108600868FDF7CFFA41F297
:103FD0003451C2F2000108600878C007002809D0F7
:103FE000FFE740F60000C4F201004FF4806101F0E9
:103FF00085FC08E040F60000C4F201004FF4806147
:1040000001F074FCFFE741F23450C2F20000006896
:104010004008C007002808D0FFE740F60040C4F27F
:104020000100022101F06AFC07E040F60040C4F202
:104030000100022101F05AFCFFE741F23450C2F2C4
:10404000000000688008C007002808D0FFE740F69D
:104050000040C4F20100042101F050FC07E040F6EA
:104060000040C4F20100042101F040FCFFE741F2EE
:104070003450C2F200000068C008C007002809D010
:10408000FFE740F60040C4F201004FF4007101F078
:1040900035FC08E040F60040C4F201004FF4007126
:1040A00001F024FCFFE741F23450C2F20000006846
:1040B0000009C007002809D0FFE741F20000C4F260
:1040C00001004FF4804101F019FC08E041F20000CA
:1040D000C4F201004FF4804101F008FCFFE740F218
:1040E0004010C2F20000323046F65F71C0F60001A7
:1040F00014220992FCF748F8099908900846FDF740
:1041000091F991E041F23B50C2F200008078C00783
:10411000002809D0FFE740F60000C4F201004FF488
:10412000806101F0EBFB08E040F60000C4F2010002
:104130004FF4806101F0DAFBFFE741F23B50C2F23D
:10414000000080784008C007002808D0FFE740F64C
:104150000040C4F20100022101F0D0FB07E040F66C
:104160000040C4F20100022101F0C0FBFFE741F270
:104170003B50C2F2000080788008C007002808D0B9
:10418000FFE740F60040C4F20100042101F0B6FB55
:1041900007E040F60040C4F20100042101F0A6FB54
:1041A000FFE741F23B50C2F200008078C008C00730
:1041B000002809D0FFE740F60040C4F201004FF4A8
:1041C000007101F09BFB08E040F60040C4F20100E2
:1041D0004FF4007101F08AFBFFE741F23B50C2F25D
:1041E000000080780009C007002809D0FFE741F2ED
:1041F0000000C4F201004FF4804101F07FFB08E0B1
:1042000041F20000C4F201004FF4804101F06EFB66
:10421000FFE740F24010C2F20000AC2180F83210FB
:104220000120FDF7FFF8FFE77EE041F28C50C2F27B
:104230000000006846F6C671C0F600010722FBF7D1
:10424000B5FF002808D0FFE741F23B50C2F2000062
:104250004078AA2867D1FFE741F28C50C2F20000F3
:10426000006846F6C671C0F600010722FBF79EFF04
:10427000002829D1FFE746F69E70C0F60000002115
:1042800007900846079A06911146FBF79DFF41F2F9
:104290008C51C2F20001086008680591FDF790F9A1
:1042A00041F28A51C2F20001088006980799FBF793
:1042B0008BFF059908600868FDF782F941F2885183
:1042C000C2F20001088016E041F23B50C2F2000049
:1042D0008178C27842EA012141F28A52C2F2000298
:1042E00011800179407940EA012041F28851C2F2FF
:1042F00000010880FFE741F28A50C2F20000008806
:1043000041F2883188420DDCFFE741F23950C2F2B8
:104310000000012101701C2000F014F9322000F08F
:104320002FF9FFE7FFE7FFE7FFE7FFE7FFE7FFE71B
:10433000E6E041F28C50C2F200000068006844F2EE
:104340005511C5F25241884208D0FFE741F23B5077
:10435000C2F200000078CA2861D1FFE746F69E71DC
:10436000C0F600010020FBF72FFF41F28C51C2F292
:10437000000108600868008844F65451884208D05B
:10438000FFE741F23B50C2F200000078CA2845D155
:10439000FFE740F2BC00C2F2000043F23101C0F678
:1043A0000D21016243F25131C3F23201C16142F287
:1043B0004F01C5F24D01816144F24851C4F64C41B0
:1043C00041611020FCF7B8FC41F28C50C2F20000B1
:1043D0000068008844F65451884213D1FFE740F248
:1043E0004010C2F20000323046F67471C0F600018F
:1043F00015220492FBF7C8FE049903900846FDF7C6
:1044000011F80AE040F24010C2F20000AC2180F83E
:1044100032100120FDF706F8FFE7FFE76FE041F2F9
:104420008C50C2F20000006846F6C271C0F600016E
:104430000322FBF7BBFE002808D0FFE741F23B5008
:10444000C2F200000078C52858D1FFE746F69E71F9
:10445000C0F600010020FBF7B7FE41F28C51C2F21A
:10446000000108600868008844F65451884208D06A
:10447000FFE741F23B50C2F200000078C5283CD172
:10448000FFE740F21400C2F200005521A0F8A0108E
:10449000032180F8A4105321417345F24D01A0F887
:1044A0000B10FCF7AFF841F28C50C2F2000000682C
:1044B000008844F65451884213D1FFE740F240107F
:1044C000C2F20000323046F68A71C0F600011322B3
:1044D0000292FBF759FE029901900846FCF7A2FFF1
:1044E0000AE040F24010C2F20000AC2180F8321025
:1044F0000120FCF797FFFFE7FFE7FFE7FFE7FFE794
:10450000FFE7FFE7FFE700208DF80701FFE79DF8D1
:10451000070113280FDCFFE79DF8070140F2401167
:10452000C2F2000100220A54FFE79DF807010130A2
:104530008DF80701EBE71C2000F022F8FFE743B0FD
:10454000BDE8F08F81B001468DF803009DF90300AE
:10455000002813D4FFE79DF9030000F01F0101229A
:1045600002FA01F140094EF28012CEF2000242F846
:104570002010BFF34F8FBFF36F8FFFE701B070477D
:1045800081B001468DF803009DF9030000280FD487
:10459000FFE79DF9030000F01F01012202FA01F17B
:1045A00040094EF20012CEF2000242F82010FFE75E
:1045B00001B0704782B002468DF8070000919DF966
:1045C000070000280AD4FFE7009800019DF90710B2
:1045D0004EF20042CEF2000288540BE00098000137
:1045E0009DF8071001F00F014EF61452CEF20002B2
:1045F0008854FFE702B0704781B00090009881684E
:1046000041F008018160FFE70098806800070028FA
:1046100001D5FFE7F8E70098816841F00401816067
:10462000FFE7009880684007002801D5FFE7F8E71A
:1046300001B0704784B00B4603908DF80B100192C7
:104640009DF80B0001460128009104D0FFE7009877
:10465000022812D023E00398C16A21F47001C162DC
:1046600001980021CFF6F07101EB00503FFA80F085
:104670000399CA6A1043C86212E00398816B21F45F
:104680004011816301980021CFF6F07101EB0050D9
:1046900000F4401003998A6B1043886300E0FFE741
:1046A00004B0704782B0019000910098002806D0B5
:1046B000FFE70198816841F40061816005E001989D
:1046C000816821F400618160FFE702B0704700005B
:1046D00081B000900098816841F48071816001B0E0
:1046E0007047000081B0009000988068C0070028E3
:1046F00006D1FFE70098816841F001018160FFE782
:1047000001B0704782B013468C4601908DF80310BB
:104710008DF802209DF80200002819D0FFE79DF8CF
:104720000300C007002806D0FFE70198816841F424
:1047300080118160FFE79DF803008007002806D5FF
:10474000FFE70198816841F400418160FFE718E0CC
:104750009DF80300C007002806D0FFE70198816894
:1047600021F480118160FFE79DF803008007002895
:1047700006D5FFE70198816821F400418160FFE7D9
:10478000FFE702B07047000084B00B4603908DF83D
:104790000B1001929DF80B0001460128009104D0F6
:1047A000FFE7009802280BD015E00398816821F4F8
:1047B00060218160019803998A68104388600BE04A
:1047C0000398816821F4E0418160019803998A6827
:1047D0001043886000E0FFE704B0704781B00090AC
:1047E00042F20440C4F20100016821F4702101602A
:1047F000009902681143016001B0704780B585B02F
:1048000094468E4604908DF80F108DF80E2002937A
:104810009DF80F0005281CDCFFE70498406B019011
:104820009DF80F0000EB80001F2101FA00F00199B4
:1048300021EA000001909DF80E009DF80F1001EB99
:1048400081018840019908430190019804994863C7
:1048500048E09DF80F000B281EDCFFE70498006B72
:1048600001909DF80F0000EB80001E381F2101FA17
:1048700000F0019921EA000001909DF80E009DF8DA
:104880000F1001EB81011E39884001990843019006
:1048900001980499086324E09DF80F000F281EDC9E
:1048A000FFE70498C06A01909DF80F0000EB8000BC
:1048B0003C381F2101FA00F0019921EA0000019023
:1048C0009DF80E009DF80F1001EB81013C398840E6
:1048D00001990843019001980499C86200E0FFE73C
:1048E000FFE7FFE79DF80E0009281BDCFFE70498AF
:1048F000006900909DF80E0000EB4000072101FACE
:1049000000F0009921EA0000009002989DF80E1036
:1049100001EB4101884000990843009000980499F8
:10492000086123E09DF80E0011281DDCFFE70498C4
:10493000C06800909DF80E0000EB40001E38072173
:1049400001FA00F0009921EA0000009002989DF819
:104950000E1001EB41011E39884000990843009078
:1049600000980499C86000E0FFE7FFE705B080BD4C
:1049700082B0019000910198D0F8801021F440514C
:10498000C0F8801000980199D1F880201043C1F838
:10499000800002B07047000082B00A4601908DF896
:1049A00003109DF80300C007002806D0FFE7019818
:1049B000816841F480018160FFE79DF80300800772
:1049C000002806D5FFE70198816841F40011816055
:1049D000FFE702B07047000083B0134602900191D8
:1049E0008DF803209DF80300002825D0FFE79DF8EF
:1049F0000500C007002806D0FFE70298416841F48F
:104A000080714160FFE79DF805004007002806D54A
:104A1000FFE70298416841F480614160FFE79DF83B
:104A200004008007002806D5FFE70298816841F05E
:104A300002018160FFE724E09DF80500C00700281F
:104A400006D0FFE70298416821F480714160FFE7DA
:104A50009DF805004007002806D5FFE70298416849
:104A600021F480614160FFE79DF804008007002881
:104A700006D5FFE70298816821F002018160FFE717
:104A8000FFE703B07047000080B584B0039003983F
:104A900046F20041C4F20001884209D1FFE740F22A
:104AA0001940029001F01AFA029801F0FFF908E0AB
:104AB00040F21A40019001F011FA019801F0F6F964
:104AC000FFE704B080BD000082B00190002000909C
:104AD00001984089012101FA00F0009046F200603F
:104AE000C4F20000016841F001010160009846F243
:104AF0001C61C4F200010A6822EA00000860019803
:104B0000C089002822D1FFE7009846F20C61C4F268
:104B100000010A6822EA000008600198C188428802
:104B200042EA0141408946F24062C4F2000242F882
:104B3000301001988188028842EA0141408946F29A
:104B40004462C4F2000242F83010FFE70198C089C5
:104B5000012821D1FFE7009846F20C61C4F2000160
:104B60000A681043086001980188428842EA0141BE
:104B7000408946F24062C4F2000242F830100198C7
:104B80008188C28842EA0141408946F24462C4F207
:104B9000000242F83010FFE70198808900280AD10E
:104BA000FFE7009846F20461C4F200010A6822EAB5
:104BB0000000086008E0009846F20461C4F20001B9
:104BC0000A6810430860FFE70198008900280AD1AD
:104BD000FFE7009846F21461C4F200010A6822EA75
:104BE0000000086008E0009846F21461C4F2000179
:104BF0000A6810430860FFE70198007C012809D18A
:104C0000FFE7009846F21C61C4F200010A681043F5
:104C10000860FFE746F20060C4F20000016821F07E
:104C20000101016002B0704780B586B00590049123
:104C300001208DF80F00049844F24021C0F20F01CA
:104C4000884229D8FFE70598012100F027FB0128B9
:104C500012D1FFE70598C0690290029800F0404029
:104C60000290029804990190084600F03FFC0199D7
:104C700008430599C86103E000208DF80F00FFE7A5
:104C80000598022100F00AFB012804D0FFE700206C
:104C90008DF80F00FFE703E000208DF80F00FFE71D
:104CA0009DF80F0006B080BD80B586B005900491D8
:104CB0004FF6FF70039000208DF80B0005980168F7
:104CC00021F0020101600598016841F001010160D5
:104CD000FFE7059840680021C0070028019106D130
:104CE000FFE70398002818BF01200190FFE7019813
:104CF000C007002804D0FFE7039801380390E8E7D5
:104D000005984068C007002804D1FFE700208DF80F
:104D10000B00B4E0049801784278837890F803C0DF
:104D20004FF0F85E0EEA026242EA81711A0442EA2A
:104D3000831241F60043C0F20F031A4011444FEAB8
:104D40000C5242EA8C2246F20003C0F270031A4071
:104D50001144408901386FF39F2008440599C861C8
:104D600004980079012806D1FFE70598016841F011
:104D70008001016005E00598016821F08001016073
:104D8000FFE704984079012806D1FFE705980168FC
:104D900041F04001016005E00598016821F0400103
:104DA0000160FFE704988079012806D1FFE70598A4
:104DB000016841F02001016005E00598016821F0DB
:104DC00020010160FFE70498C079012806D1FFE7C0
:104DD0000598016821F01001016005E0059801685F
:104DE00041F010010160FFE70498007A012806D124
:104DF000FFE70598016841F00801016005E00598AA
:104E0000016821F008010160FFE70498407A012859
:104E100006D1FFE70598016841F00401016005E053
:104E20000598016821F004010160FFE70598016819
:104E300021F0010101604FF6FF700390FFE7059834
:104E400040680021C0070028009106D0FFE70398C2
:104E5000002818BF01200090FFE70098C007002835
:104E600004D0FFE7039801380390E8E7039800288F
:104E700004D0FFE701208DF80B00FFE7FFE79DF866
:104E80000B0006B080BD000087B0059004910020A3
:104E90008DF80F008DF80E008DF80D000290009037
:104EA000059880684001002804D5FFE700208DF8B0
:104EB0000F0019E0059880680001002804D5FFE77D
:104EC00001208DF80F000EE005988068C0000028D2
:104ED00004D5FFE702208DF80F0003E003208DF8D2
:104EE0000F00FFE7FFE7FFE79DF80F00032804D15D
:104EF000FFE703208DF81B000DE105989DF80F10CA
:104F000000EB0110D0F8801101F00101C0F8801110
:104F10000498007A002810D1FFE704980168407ACD
:104F200040EA415005999DF80F2001EB0211D1F89C
:104F300080211043C1F8800111E004984168027A91
:104F400042EAC101407A084305999DF80F2001EB20
:104F50000211D1F880211043C1F88001FFE70498C5
:104F600090F84B0000282CD1FFE705989DF80F1012
:104F700000EB0110D0F8841121F00F01C0F884116A
:104F80000498807A05999DF80F2001EB0211D1F861
:104F900084211043C1F884010498D0F80B000599CE
:104FA0009DF80F2001EB0211C1F888010498D0F898
:104FB0000F0005999DF80F2001EB0211C1F88C013B
:104FC00099E00598006A00F001000290029800281C
:104FD00000F08980FFE70498807A082806D8FFE768
:104FE0000498807A00990843009033E000208DF8FF
:104FF0000E00FFE79DF80E00062817D8FFE704987B
:10500000807A9DF80E1046F65872C0F60002515C88
:10501000884204D1FFE701208DF80D0006E0FFE78C
:105020009DF80E0001308DF80E00E3E79DF80D00AD
:10503000012807D1FFE79DF80E00093000990843C9
:10504000009006E0FFE7FFE701200028FBD1FFE723
:10505000FFE7FFE7049890F84B1090F84C2090F889
:105060004D00520142EA001040EAC1100099084385
:105070000090009805999DF80F2001EB0211C1F8EE
:1050800084010498807A80088DF80E0004980B3013
:1050900001909DF80E0000280AD1FFE701980068F2
:1050A00005999DF80F2001EB0211C1F8880119E064
:1050B000FFE79DF80E00002813D0FFE70198006875
:1050C00005999DF80F2001EB0211C1F888010198A4
:1050D00004300190FFE79DF80E0001388DF80E00B6
:1050E000E7E7FFE706E0FFE7FFE701200028FBD145
:1050F000FFE7FFE7FFE705989DF80F1000EB0110B1
:10510000D0F8801141F00101C0F880119DF80F0026
:105110008DF81B00FFE79DF81B0007B070470000EB
:1051200084B002468DF80F0002919DF80F000146F1
:105130000428009100F2A9800099DFE801F0031E25
:10514000334D78000298002141710298C171029894
:105150008171029840F2FF324281029801720298F6
:1051600041700298022282700298C1700298017107
:1051700002984172029801708EE002980121C1816B
:10518000029800210174029801810298018002981E
:105190004180029881800298C180029881810298A2
:1051A000418179E0029840F2FF318182029800212A
:1051B00001740298022242740298012282740298B9
:1051C00081700298C1600298427002980170029842
:1051D0008160029841605FE00298002180F84C10E5
:1051E000029880F84D10029880F84B108DF8071047
:1051F000FFE79DF807003F280DD8FFE702989DF8CC
:10520000071008440021C172FFE79DF80700013034
:105210008DF80700EDE70298002181720298416045
:1052200002980172029841720298016034E002987B
:10523000002180F84D10029880F84E10029880F8F6
:105240004C108DF80710FFE79DF807003F280DD898
:10525000FFE702989DF8071008440021C172FFE79C
:105260009DF8070001308DF80700EDE70298002156
:1052700081720298416002980172029880F84B1086
:10528000029841720298016006E0FFE7FFE7012003
:105290000028FBD1FFE7FFE704B0704786B00A465D
:1052A00005908DF8131000208DF812004FF6FF7056
:1052B00003909DF81300012831D1FFE7059801689C
:1052C00021F0020101600598016841F001010160CF
:1052D000FFE7059840680021C0070028029106D129
:1052E000FFE70398002818BF01200290FFE702980B
:1052F000C007002804D0FFE7039801380390E8E7CF
:1053000005984068C007002804D1FFE700208DF809
:10531000120003E001208DF81200FFE76EE09DF817
:10532000130002282CD1FFE70598016821F0030142
:105330000160FFE70598406800218007002801917F
:1053400006D0FFE70398002818BF01200190FFE76F
:105350000198C007002804D0FFE7039801380390A4
:10536000E8E7059840688007002804D0FFE70020A0
:105370008DF8120003E001208DF81200FFE73CE0F9
:105380009DF81300042833D1FFE70598016821F048
:10539000010101600598016841F002010160FFE729
:1053A0000598406800F0020000210228009106D014
:1053B000FFE70398002818BF01200090FFE700983E
:1053C000C007002804D0FFE7039801380390E7E7FF
:1053D0000598406800F00200022804D0FFE7002092
:1053E0008DF8120003E001208DF81200FFE703E0C2
:1053F00000208DF81200FFE7FFE7FFE79DF812009D
:1054000006B0704785B0134604900391ADF80A20AA
:105410000498002827D1FFE703980028019008D0BE
:10542000FFE7019801280CD0FFE70198022810D06F
:1054300017E0BDF80A0047F20841C4F20001086015
:1054400010E0BDF80A0047F20C41C4F20001086008
:1054500008E0BDF80A0047F21041C4F200010860FC
:1054600000E0FFE726E003980028009008D0FFE75F
:10547000009801280CD0FFE70098022810D017E010
:10548000BDF80A0047F21441C4F20001086010E0C0
:10549000BDF80A0047F21841C4F20001086008E0B4
:1054A000BDF80A0047F21C41C4F20001086000E0A8
:1054B000FFE7FFE705B0704781B000900098002833
:1054C00009D1FFE747F20440C4F20000016841F04F
:1054D0000101016008E047F20440C4F200000168E5
:1054E00041F002010160FFE701B0704780B58AB06A
:1054F000099000208DF80F00022000F0A9FB099907
:10550000B0FBF1F0049004984AF6AB21CAF6AA2148
:10551000A0FB010109090791049989080691FFE799
:105520009DF80F0000210028019108D1FFE707989E
:1055300006990022884238BF01220192FFE70198B4
:10554000C00700281FD0FFE70798013007901620FA
:105550000290FFE70298002814D0FFE7029803307A
:10556000079901314843059005980499884204D170
:10557000FFE701208DF80F0004E0FFE702980138F3
:105580000290E7E7CCE79DF80F00002816D0FFE770
:10559000029846F6DC71C0F6000101EBC0025268C9
:1055A00051F830004FF4702101EA004062F31650C8
:1055B00007996FF39F21084408900AE00020C0F289
:1055C00023100890FFE7FFE701200028FBD1FFE749
:1055D000FFE708980AB080BD80B584B00A46039002
:1055E0008DF80B1003989DF80B10019200F042F912
:1055F000002802D1FFE7FFE7FEE703989DF80B10B4
:1056000001EB810100EB8100816821F001018160E3
:1056100004B080BD80B584B00A4603908DF80B10AD
:1056200003989DF80B10019200F024F9002802D194
:10563000FFE7FFE7FEE703989DF80B1001EB810100
:1056400000EB8100816841F00101816004B080BD00
:1056500080B584B00A4603908DF80B1003989DF82E
:105660000B10019200F006F9002802D1FFE7FFE7D6
:10567000FEE703989DF80B1001EB810100EB810020
:10568000816821F02001816004B080BD80B584B0C4
:105690000A4603908DF80B1003989DF80B100192A9
:1056A00000F0E8F8002802D1FFE7FFE7FEE70398E3
:1056B0009DF80B1001EB810100EB8100816841F046
:1056C0002001816004B080BD83B00B4602908DF84C
:1056D0000710009200989DF80710890088400299F1
:1056E0004A681043486003B07047000084B00B461E
:1056F00003908DF80B1001920398006801999DF8B2
:105700000B2092009140084204D0FFE701208DF861
:10571000030003E000208DF80300FFE79DF803007D
:1057200004B0704780B586B00B4605908DF8131015
:10573000039205989DF81310019300F09BF8002840
:1057400002D1FFE7FFE7FEE70398006805999DF89F
:10575000132002EB820201EB82010861039880684A
:1057600005999DF8132002EB820201EB820148614A
:105770000398008A05999DF8132002EB820201EB41
:105780008201C86005989DF8131001EB810100EBC0
:10579000810080680290029820F47C500290039867
:1057A0004168C26840691143084302990843029066
:1057B000029805999DF8132002EB820201EB820109
:1057C00088600398007E01280CD1FFE705989DF8BA
:1057D000131001EB810100EB8100816841F0400171
:1057E00081600BE005989DF8131001EB810100EB3F
:1057F0008100816821F040018160FFE70398407ECD
:1058000001280CD1FFE705989DF8131001EB8101E9
:1058100000EB8100816841F0800181600BE0059818
:105820009DF8131001EB810100EB8100816821F0EC
:1058300080018160FFE70398807E00280CD1FFE79C
:1058400005989DF8131001EB810100EB8100816840
:1058500021F0100181600BE005989DF8131001EB19
:10586000810100EB8100816841F010018160FFE758
:1058700006B080BD82B00A4601908DF80310012069
:105880008DF80200019840F20041C4F20201884202
:105890000AD1FFE79DF80300052804DBFFE700209D
:1058A0008DF80200FFE7FFE79DF8020002B07047A5
:1058B00080B584B00B4603908DF80B1001920398CD
:1058C0009DF80B100093FFF7D5FF002802D1FFE7EA
:1058D000FFE7FEE7BDF8040003999DF80B2002EBFB
:1058E000820201EB8201C86004B080BD82B00190E9
:1058F000009100980199486102B0704782B0019010
:10590000009100980199086102B0704787B0069035
:10591000059104920393002001900090059800F0F7
:105920000F0001909DF81400C006002814D5FFE771
:10593000049804280AD1FFE7019840F00300019081
:1059400003980699CA6B1043C86304E00498019950
:1059500008430190FFE7FFE70020ADF80A00FFE7EA
:10596000BDF80A00072846D8FFE7BDF80A000399EA
:1059700021FA00F0C007002836D0FFE7069800683B
:105980000090BDF80A0080000F2101FA00F0009994
:1059900021EA000000900198BDF80A1089008840B3
:1059A000009908430090059828280AD1FFE7BDF820
:1059B0000A00012101FA00F00399084006994861A4
:1059C0000EE0059848280AD1FFE7BDF80A0001213A
:1059D00001FA00F00399084006990861FFE7FFE724
:1059E000009806990860FFE7FFE7BDF80A0001305C
:1059F000ADF80A00B4E70820ADF80A00FFE7BDF8EB
:105A00000A000F284AD8FFE7BDF80A00039921FAD7
:105A100000F0C00700283AD0FFE7069840680090E1
:105A2000BDF80A006FF01F0101EB80000F2202FA9F
:105A300000F0009A22EA000000900198BDF80A20C8
:105A400001EB8201884000990843009005982828BE
:105A50000AD1FFE7BDF80A00012101FA00F003991D
:105A60000840069948610EE0059848280AD1FFE7EA
:105A7000BDF80A00012101FA00F0039908400699D7
:105A80000861FFE7FFE7009806994860FFE7FFE736
:105A9000BDF80A000130ADF80A00B0E707B0704762
:105AA00083B001900091019880680099084204D069
:105AB000FFE701208DF80B0003E000208DF80B00BC
:105AC000FFE79DF80B0003B07047000080B584B07D
:105AD0000020039040F20400C2F20000006840F68B
