:020000040800F2
:10000000A0190020650100086D0100086F010008BB
:10001000710100087301000875010008000000006C
:100020000000000000000000000000007701000850
:1000300079010008000000007B010008154200085B
:100040007F0100087F0100087F0100087F01000890
:100050007F0100087F0100087F0100087F01000880
:100060007F0100087F0100087F0100087F01000870
:100070007F0100087F0100087F0100087F01000860
:100080007F0100087F0100087F0100087F01000850
:100090007F0100087F0100087F0100087F01000840
:1000A0007F010008054300087F0100087F01000868
:1000B0002D4300087F0100087F0100087F01000830
:1000C0007F0100087F0100087F0100087F01000810
:1000D0007F0100087F0100087F0100087F01000800
:1000E0007F0100087F0100087F0100087F010008F0
:1000F0007F0100087F0100087F0100080000000068
:100100007F01000800000000194400087F0100087A
:100110007F0100087F0100087F0100087F010008BF
:100120007F0100087F0100087F0100087F010008AF
:100130007F01000800000000000000007F010008AF
:100140007F0100087F0100087F0100087F0100088F
:10015000DFF80CD000F028FA00480047D159000819
:10016000A01900200648804706480047FEE7FEE742
:10017000FEE7FEE7FEE7FEE7FEE7FEE7FEE7FEE757
:10018000914200085101000840EA01039B0703D097
:1001900009E008C9121F08C0042AFAD203E011F8C6
:1001A000013B00F8013B521EF9D2704730B50446BE
:1001B0000020034600E05B1C934203D2E05CCD5C70
:1001C000401BF8D030BD000070B50F4D00B9286855
:1001D000002412E00A4602E09E4203D0521C13782B
:1001E000002BF9D1DAB2224305D02BB124B1002182
:1001F00000F8011B04E00446401C0678002EE9D1FB
:100200002860204670BD0000000000202DE9FE4F50
:10021000804681EA0300C00F0C46009021F00041A7
:1002200023F00045B8EB0200A94105D24046214623
:1002300090461C460B46024623F00040104347D030
:10024000270DC7F30A00C3F30A510290401A019028
:1002500040286BDAC3F3130040F4801B00989246E9
:1002600020B10023D2EB030A63EB0B0B0198594634
:10027000C0F14002504600F009F906460D465046CE
:100280005946019A00F021F910EB08006141002461
:1002900087EA115284EAE7731A4340D0009A62B3A6
:1002A000019A012A4FEA075215DC001B61EB02019B
:1002B0004FF0004202EA0752CDE90042001C41F52E
:1002C000801132462B4600F021F903B0BDE8F08FD3
:1002D00040462146F9E7001B61EB0201001C41F595
:1002E000801300185B412018A2F5001747EB0301AB
:1002F00040EAD570B6196D4111E06D084FEA360637
:1003000045EAC0754FEA0752001B61EB0201001C71
:1003100041F5801149084FEA300000195141324639
:100320002B4603B0BDE8F04F00F0E1B80098012281
:1003300040000023D0EB020263EBE07300982146FB
:100340004FEAE074B8EB000061EB0401E9E783F0E9
:1003500000435BE781F0004158E72DE9F04D81EA69
:10036000030404F0004B21F0004514464FF0000A4E
:1003700023F0004150EA050220D054EA01021DD0CA
:10038000C5F30A570246C5F31303C1F31300C1F3C3
:100390000A5640F4801543F48013A7EB0608101B9F
:1003A000D64608F2FD3873EB050002D308F10108C8
:1003B00001E092185B41B8F1000F03DA002001461A
:1003C000BDE8F08D00204FF48011064684460EE013
:1003D000171B73EB050705D3121B63EB05030643DD
:1003E0004CEA010C49084FEA300092185B4150EA90
:1003F0000107EDD152EA030012D082EA040083EA39
:100400000501084305D0101BAB4106D20122002391
:1004100006E000224FF0004302E06FF001025310AB
:100420001AEB06004CEB085110EB0A0041EB0B01F4
:10043000BDE8F04D00F05BB80EB5C10F80EAE0708A
:100440000844CA07002140F233438DE80E000A46F3
:100450000B4600F05BF803B000BDC1F30A5210B5C3
:10046000C1F3130140F2FF3341F480119A4201DAE3
:10047000002010BD40F233439A42A2F2334203DC23
:10048000524200F012F810BD904010BD202A04DB4B
:10049000203A00FA02F1002070479140C2F1200397
:1004A00020FA03F3194390407047202A04DB203AD6
:1004B00021FA02F00021704721FA02F3D040C2F184
:1004C00020029140084319467047202A06DBCB17CB
:1004D000203A41FA02F043EAE07306E041FA02F3FF
:1004E000D040C2F12002914008431946704710B530
:1004F000141E73F1000408DA401C41F10001921847
:100500005B411A4301D120F0010010BD2DE9F04DEF
:1005100092469B4611B1B1FA81F202E0B0FA80F244
:1005200020329046FFF7B2FF04460F4640EA0A0029
:1005300041EA0B0153465A46084313D0114653EA89
:10054000010019D0C8F140025046FFF7AEFF054642
:100550000E46504659464246FFF798FF084305D0DD
:10056000012004E020463946BDE8F08D0020054317
:1005700046EAE0762C4337430A986305E40AA0EB89
:1005800008000022FD0A44EA47540A3002D5002040
:100590000146E9E7010510196941DDE9084500193F
:1005A0006941BDE8F04DA2E7064C074D06E0E06862
:1005B00040F0010394E8070098471034AC42F6D3AA
:1005C000FFF7CAFDE06E0008006F000880B542F238
:1005D0000040C4F20100012104F0CAFAFFE7002044
:1005E000C4F202000021022205F002F8002801D125
:1005F000FFE7F4E70020C4F202000021022204F029
:10060000E5FF80BD80B582B001900198B0F8A010E0
:1006100001600198002141600198017201984172C6
:10062000019890F8A4108172019946F20040C4F23A
:10063000000004F0D5FC02B080BD000070B582B0AF
:1006400013468C4601908DF80310ADF80020BDF8DC
:10065000000044F6D351C1F26201A0FB01018909F7
:1006600046F26762C6F2666251FB02FE4FEA9E04E2
:1006700004EBDE7E0EEB8E0EA1EB4E013031DDF889
:1006800004E09DF803400EF80410BDF8001048F295
:100690001F5EC5F2EB1EA1FB0E1E4FEA5E1E5EFB47
:1006A00002F4A50805EBD47404EB8404AEEB440E0D
:1006B0000EF1300E019C9DF803502C4484F801E0AB
:1006C000BDF800E04CF6CD44CCF6CC44AEFB04E5DE
:1006D000ED0855FB02F2960806EBD27202EB82029D
:1006E000A5EB42023032019D9DF803603544AA70AB
:1006F000BDF80020A2FB0445ED0805EB8505A2EB43
:10070000450242F03002019D9DF803603544EA70D5
:1007100002B070BD80B590B000208DF83E0040F270
:100720000801C2F200010B9101218DF83D104FF438
:1007300000620C9242F24C42C4F2010209928DF81E
:100740003C004FF400720A9203220D924FF4405382
:100750000E930023C4F202030DF1240C08901846F6
:10076000DDF820E00791714606926246059304F099
:100770005BFF0598089904F00BFF0598089904F0B1
:10078000CBFE4FF4C02004F015F942F20040C4F251
:1007900001004FF4807104900391079A04F008FA65
:1007A00002200499029008460299089A04F000FA7F
:1007B0000498089904F062F80498089904F0C4F9C0
:1007C00004980799069A04F021F842F60000C4F252
:1007D000010001900399079A04F0EAF9019802993F
:1007E000089A04F0E5F90198089904F047F801988F
:1007F000089904F0A9F901980799069A04F006F8F7
:100800004FF460200499009008460799009A04F07C
:10081000A7F804980799079A04F060F801980799D7
:10082000009A04F09DF801980799079A04F056F889
:1008300004980899089A089B04F0CCF80498079942
:10084000069A089B04F0C6F8072204980299089BB0
:1008500004F0C0F801980899029A089B04F0BAF8CD
:10086000052201980799089B04F0B4F80F2201981B
:100870000299089B04F0AEF8049804F01FF804985D
:1008800003F0A6FF019804F019F8019803F0A0FF07
:10089000049804F009F847F20040C4F2000001682F
:1008A00041F00101016008980899089A04F0A2FD3E
:1008B000089804F0F9FD10B080BD000080B582B04A
:1008C00040F60000C4F20100042141F6BD7301911D
:1008D000019A04F09DFF40F60040C4F2010046F684
:1008E00017630199019A04F093FF41F20000C4F2EA
:1008F00001004FF460430199019A04F089FF02B0AE
:1009000080BD000080B590B00F9040F2197005F0E6
:1009100037FA0F980068FA28059010D0FFE705987D
:10092000B0F5FA7F08D0FFE70598B0F57A7F09D1D6
:10093000FFE706200E9008E00C200E9005E018203E
:100940000E9002E030200E90FFE746F20040C4F225
:100950000000049004F084F900200BA90390029198
:1009600004F08AFC03988DF831008DF833008DF87F
:1009700032000E99ADF836108DF834008DF82D0048
:1009800004218DF82E1002218DF82F108DF83000E3
:100990008DF835000F9909798DF82C10049802997B
:1009A00004F02EFA0399ADF82210ADF824100122BC
:1009B000ADF82620ADF81810ADF81A10ADF81C10DF
:1009C000ADF81E100F9B5B79ADF820308DF8282014
:1009D00006AA0190104604F063F910B080BD000033
:1009E00080B582B04FF4C06005F0CAF940F20260F1
:1009F00005F0C6F940F60000C4F2010048210322C8
:100A00004FF400630190009204F002FF18214FF4AC
:100A100080530198009A04F0FBFE02B080BD0000F4
:100A200080B58AB040F2026005F0AAF940F2036096
:100A300005F0A6F940F2046005F0A2F940F2056065
:100A400005F09EF940F2066005F09AF940F209605F
:100A500005F096F940F20A6005F092F94FF4A060B3
:100A600005F08EF940F21D7005F08AF94FF4C06070
:100A700005F086F941F20000C4F2010004214FF4B0
:100A8000204309900891089A04F0C2FE41F6000044
:100A9000C4F201004FF48061089A07911146079B48
:100AA00004F0B6FE40F60040C4F201001021062317
:100AB00006900591089A04F0ABFE4FF48040099926
:100AC000049008460599089A049B04F0A1FE0123AE
:100AD00006980599089A04F09BFE4FF40070069959
:100AE000039008460599089A039B04F091FE40F68E
:100AF0000000C4F2010002900599089A079B04F0D7
:100B000087FE06980899089A059B04F081FE182034
:100B10000299019008460199089A039B04F078FE17
:100B20004FF4807302980199089A04F071FE0698B8
:100B30000199089A049B04F06BFE4FF40053069849
:100B40000199089A04F064FE022302980199089A18
:100B500004F05EFE0020AD23029900900846009943
:100B6000089A04F055FE202309980099089A04F089
:100B70004FFE032202980099059B04F049FE0AB03B
:100B800080BD000080B586B001468DF817000020BA
:100B9000C4F2020001220223049003911146029242
:100BA0001A4604F013FD0498029904F097FC9DF88E
:100BB00017200498029904F0FDFD44F60000C4F2E9
:100BC0000000802106F03EF80498029904F0A4FC8D
:100BD000FFE744F60000C4F20000062106F068F8C2
:100BE000002802D1FFE700BFF3E744F60000C4F29B
:100BF00000000621019006F045F80021019806F05A
:100C000021F806B080BD000010B590B00F904FF4F1
:100C1000A06005F0B5F840F2127005F0B1F840F2AE
:100C2000065005F0ADF800208DF83A000F9949699B
:100C30000A9101218DF839100B9044F60402C4F298
:100C4000000208928DF8380009900C904FF4405340
:100C50000D9340F2000CC4F2020C4FF0020E08ACEF
:100C60000790604606917146059222460493CDF89E
:100C70000CC0CDF808E0019404F0D6FC039802996A
:100C800004F086FC0398029904F046FC06988DF85F
:100C90003A000F9909690A918DF8390007990B916B
:100CA000059A08928DF8381009910C91049B0D93C8
:100CB00003980699019A04F0B7FC0398069904F08A
:100CC00049FC0398069904F027FC44F60000C4F29E
:100CD0000000009005F044FF0F980168009805F0AF
:100CE000C1FE0F984168009806F02EF80F98C16871
:100CF000009806F095F80F988168009806F06AF859
:100D00000098079905F014FF0098079906F006F877
:100D10000098079905F0ECFF009806F03BF83221A7
:100D2000009806F043F84021009805F075FF8021F7
:100D3000009805F087FF0821009806F05BF8042171
:100D4000009806F011F8009805F092FF10B010BD61
:100D500080B582B001468DF80700FFE744F6000039
:100D6000C4F2000042F2102105F0A2FF002801D0D9
:100D7000FFE7F3E79DF80700FFF704FF02B080BD2F
:100D800080B582B04FF4C06004F0FAFF40F2036017
:100D900004F0F6FF40F60040C4F2010018210322DF
:100DA0004FF480630190009204F032FD04214FF46F
:100DB00000630198009A04F02BFD02B080BD000092
:100DC000B0B598B0179040F2015004F0D9FF40F24E
:100DD0000F7004F0D5FF00208DF85A00179989682C
:100DE000129101218DF859104FF48072139243F63D
:100DF0000C43C4F2000310938DF858001192149024
:100E00004FF4405CCDF854C040F2004EC4F2020EE4
:100E100010AC08907046089D07912946069222461C
:100E20000593CDF810C0CDF80CE0029404F0FCFB63
:100E30000398089904F0ACFB0398089904F06CFB44
:100E400007988DF85A001799496812918DF8590042
:100E500006991391059A1092089B8DF858301191BC
:100E60001493DDF810C0CDF854C003980799029A86
:100E700004F0DAFB43F60040C4F20000019005F0F4
:100E800001F809A8009005F087F84FF482700990E6
:100E900008980A90179909680B910C901799897B0B
:100EA0000D911799497B0E911799097B0F91019824
:100EB000009905F037F8019804F0DAFF18B0B0BDDA
:100EC00080B584B001468DF80F0040F20040C4F2B6
:100ED00002000022029001911146009204F0FEFAF5
:100EE0009DF80F200298009904F064FC43F600403E
:100EF000C4F20000012104F0A3FF0298009904F05D
:100F00000BFBFFE740F20040C4F202000021022286
:100F100004F06EFB002801D1FFE7F3E740F2004048
:100F2000C4F202000021022204F050FB43F600400C
:100F3000C4F20000012104F06BFF04B080BD00008A
:100F400080B584B001468DF80F0040F20040C4F235
:100F500002000122029001911146009204F0BEFAB3
:100F60009DF80F200298009904F024FC43F60040FD
:100F7000C4F20000002104F063FF0298009904F01D
:100F8000CBFAFFE740F20040C4F202000121022246
:100F900004F02EFB002801D1FFE7F3E740F2004008
:100FA000C4F202000121022204F010FB43F60040CB
:100FB000C4F20000002104F02BFF04B080BD00004B
:100FC00080B5FFE743F60040C4F20000012104F0C1
:100FD00093FF002801D1FFE7F4E71420FFF770FF2B
:100FE00080BD000080B582B001468DF80700FFE7A4
:100FF00043F60040C4F20000022104F07DFF002807
:1010000001D1FFE7F4E79DF80700FFF799FF02B071
:1010100080BD000080B584B04FF4C06004F0B0FE25
:1010200040F2036004F0ACFE40F60040C4F2010060
:1010300018210322202303900291019204F0E8FB7F
:10104000082303980299019A04F0E2FB04B080BDE2
:1010500080B592B0119011981090119840080F909F
:1010600040F20B6004F08CFE42F60040C4F2010036
:10107000039005F015FB10980D900020ADF82C00A2
:10108000ADF83800ADF82E00ADF83000FF218DF836
:101090003A100BA9039A0290104605F001FC0120BA
:1010A000ADF820000421ADF822100299ADF824100B
:1010B000ADF82610ADF82810ADF82A1008AA039B49
:1010C00001901846009205F089F803980199009A5A
:1010D00005F084F803980299029A05F09DFA0398A6
:1010E0000299029A05F03AF803980199029A05F0DC
:1010F00093FA03980199029A05F030F80F9A039831
:10110000029905F01DFA60220398029905F0D0F9C2
:1011100003980299029A05F037FA0F9A03980199F9
:1011200005F00EFA70220398019905F0C1F90398B1
:101130000199029A05F028FA1520ADF814000298DA
:10114000ADF81600ADF81000ADF812004FF4804174
:10115000ADF81810ADF81A00ADF81C0004A90398FA
:1011600004F0E6FF19200221029A04F053FC0398D0
:10117000019905F02BFC039805F088FB12B080BDA7
:1011800080B58AB00990099808904FF4E06004F0A7
:10119000F7FD4FF08040039005F082FA0898069022
:1011A0000020ADF81000ADF81C00ADF81200ADF84D
:1011B00014008DF81E0004A9039A0290104605F051
:1011C0006FFB1C2001210191029A04F023FC03987B
:1011D000019905F0FBFB0398019905F02BFC03989E
:1011E00004F09CFF039805F051FB0AB080BD00009D
:1011F00080B590B00F900F980E900F9840080D900A
:1012000040F2037004F0BCFD40F60040C4F2000060
:10121000019005F045FA0E980B900020ADF82400DF
:10122000ADF83000ADF82600ADF82800FF208DF8AD
:10123000320009A9019805F033FB0121019805F05E
:10124000C5FB322003F06AFA019805F01FFB10B0CD
:1012500080BD000080B586B001468DF817000020E3
:10126000C4F202000422049003911146029204F099
:1012700035F99DF817200498029904F09BFA43F67B
:101280000000C4F20100402105F0C6FC0498029958
:1012900004F042F9FFE70020C4F202000421022218
:1012A00004F0A6F90021002801910DD1FFE743F6D3
:1012B0000000C4F2010042F20B2105F0F9FCB0FA83
:1012C00080F040090190FFE70198C007002802D094
:1012D000FFE700BFDFE743F60000C4F2010042F27F
:1012E0000B21009005F0CEFC0021009805F094FC45
:1012F00006B080BD80B586B001468DF8170000208D
:10130000C4F20200032202230490039111460292C8
:101310001A4604F05BF90498029904F0DFF89DF88E
:1013200017200498029904F045FA43F60000C4F22D
:101330000100802105F086FC0498029904F0ECF885
:10134000FFE743F60000C4F20100062105F0B0FCFF
:10135000002802D1FFE700BFF3E743F60000C4F224
:1013600001000621019005F08DFC0021019805F097
:1013700069FC06B080BD000010B592B011904FF42A
:10138000A06004F0FDFC40F20E6004F0F9FC40F2B5
:10139000065004F0F5FC00208DF8420011994969CF
:1013A0000C9101218DF841100D9043F60402C4F216
:1013B00001020A928DF840000B900E904FF44053BA
:1013C0000F9340F2000CC4F2020C4FF0040E0AAC72
:1013D0000990604608917146079222460693CDF81F
:1013E00014C0CDF810E0039404F01EF90598049998
:1013F00004F0CEF80598049904F08EF808988DF85A
:101400004200119909690C918DF8410009990D91DB
:10141000079A0A928DF840100B910E91069B0F933C
:101420004FF0030C05986146039ACDF808C004F00C
:10143000FBF80598029904F08DF80598029904F0DC
:101440006BF843F60000C4F20100019005F088FB40
:1014500011980168019805F005FB11984168019801
:1014600005F072FC1198C168019805F0D9FC11983B
:101470008168019805F0AEFC0198099905F058FBC8
:101480000198099905F04AFC0198099905F030FC8A
:101490001421019805F08AFC019805F07BFC40219D
:1014A000019805F0B9FB8021019805F0CBFB0821DC
:1014B000019805F09FFC0198049905F055FC0198EE
:1014C00005F0D6FB12B010BD80B5FFE743F6000073
:1014D000C4F2010042F2102105F0EAFB002801D01D
:1014E000FFE7F3E73220FFF7B5FE80BD80B582B09D
:1014F00001468DF80700FFE743F60000C4F2010043
:1015000042F2102105F0D4FB002801D0FFE7F3E7F9
:101510009DF80700FFF7EEFE02B080BD80B582B0F7
:101520004FF4C06004F02CFC40F2036004F028FC8F
:101530000420C4F20100016841F00401016040F69A
:101540000040C4F2010018210322402301900092C0
:1015500004F05EF9042180230198009A04F058F900
:1015600002B080BD000000002DE9F04FC7B00020A0
:101570008DF81B018DF81A01ADF8180140F24010EA
:10158000C2F2000090F86500002802F00285FFE733
:1015900040F24010C2F20000002180F865101C21CA
:1015A0004590084603F0BAF841F23B50C2F2000001
:1015B000322244904599FEF7E7FD46F6A261C0F657
:1015C0000001449A43901046FEF7FEFD41F28C5113
:1015D000C2F200010860086846F6C261C0F6000168
:1015E0000322FEF7E3FD002809D0FFE741F23B505C
:1015F000C2F200000078102840F0AD82FFE746F606
:10160000A261C0F600010020FEF7DEFD41F28C5120
:10161000C2F2000108600868008844F64F61884201
:1016200008D0FFE741F23B50C2F2000040780528A5
:101630004ED1FFE742F60040C4F201000021012232
:1016400042904191409204F0E7FF042042993F907C
:10165000084641993F9A04F081FD42984099409A8A
:1016600004F0DAFF429840993F9A04F077FD41F286
:101670008C50C2F200000068008844F64F61884236
:101680001AD1FFE740F24010C2F2000045F2524189
:10169000C0F60D21C0F8391045F25341C5F2412181
:1016A000C0F8361045F25071C2F24D01C0F8321048
:1016B0000B20FFF71BFF0AE040F24010C2F20000CF
:1016C000AC2180F832100120FFF710FFFFE740E265
:1016D00041F28C50C2F20000006846F6AF61C0F6DD
:1016E00000010322FEF762FD002808D0FFE741F267
:1016F0003B50C2F2000040780A284ED1FFE742F684
:101700000040C4F2010000213E903D913D9A04F05A
:1017100083FF3E983D993D9A04F020FD01203E99BB
:101720003C9008463C993D9A04F076FF3E983C99DF
:101730003D9A04F013FD41F28C50C2F200000068A3
:1017400046F6AF61C0F600010322FEF72FFD002828
:1017500017D1FFE740F24010C2F2000040F60D2121
:10176000418745F25341C5F24F01C0F8361045F2AA
:101770005071C2F24D01C0F832100A20FFF7B6FED8
:101780000AE040F24010C2F20000AC2180F83210B2
:101790000120FFF7ABFEFFE7DAE141F28C50C2F225
:1017A00000000068006845F24621C5F245118842F4
:1017B00009D0FFE741F23B50C2F200004078FC281C
:1017C00040F08780FFE741F28C50C2F200000068D1
:1017D000006845F24621C5F2451188424AD1FFE72B
:1017E00046F6A261C0F600010020FEF7EDFC41F2D2
:1017F0008C51C2F200010860086802F0AFFCFEF7ED
:101800001BFE41EC100B9FEDEA1B51EC110B53EC4E
:10181000102BFEF7A2FD41EC100B51EC100B9FEDCD
:10182000E60B53EC102BFEF7F1FC41EC100B51ECE6
:10183000100BFEF712FEFFF70BFC40F24010C2F255
:10184000000040F60D21C18745F24141C4F24541F7
:10185000C0F83A1045F22051C4F25041C0F8361099
:1018600045F24621C5F24511C0F832100E20FFF7AF
:101870003DFE2DE041F23B50C2F200008078FEF7C1
:10188000DBFD41EC100B9FEDCA1B51EC110B53EC2F
:10189000102BFEF762FD41EC100B51EC100B9FED8D
:1018A000C60B53EC102BFEF7B1FC41EC100B51ECC6
:1018B000100BFEF7D2FDFFF7CBFB40F24010C2F257
:1018C0000000AC2180F832100120FFF70FFEFFE787
:1018D0003DE141F28C50C2F200000068008845F200
:1018E0004441884208D0FFE741F23B50C2F2000079
:1018F0004078D1285FD1FFE741F28C50C2F200005E
:101900000068008845F24441884238D1FFE746F636
:10191000A261C0F600010020FEF756FC41F28C5196
:10192000C2F20001086042F64440C4F201000268BD
:1019300022F0FF02026009683B90084602F00EFCAC
:10194000C0B23B990A681043086040F24010C2F2EE
:10195000000044F24542C0F60D22C0F83A2044F29D
:101960005042C5F24142C0F8362045F24442C5F229
:101970002052C0F832200C20FFF7B8FD1AE042F6E2
:101980004440C4F20100016821F0FF01016041F20E
:101990003B51C2F20001897802681143016040F2B4
:1019A0004010C2F20000AC2180F832100120FFF795
:1019B0009DFDFFE7CAE041F28C50C2F200000068D2
:1019C000008844F24431884209D0FFE741F23B509D
:1019D000C2F200004078DC2840F0B780FFE741F217
:1019E0008C50C2F200000068008844F24431884202
:1019F0006BD1FFE746F6A261C0F600010020FEF7BA
:101A0000E3FB41F28C51C2F20001086042F62C4027
:101A1000C4F2010090ED000AB8EE400A0A683A905C
:101A2000104639918DED380A02F098FB00EE100A4D
:101A3000B8EEC00A9FED621A80EE010A9DED382AC9
:101A400022EE000ABCEEC00A42F63440C4F20100A5
:101A500080ED000A3A9890ED000AB8EE400A3999F4
:101A600008688DED371A8DED360A02F077FB00EE2F
:101A7000100AB8EEC00A9DED371A80EE010A9DEDFE
:101A8000362A22EE000ABCEEC00A42F63840C4F202
:101A9000010080ED000A40F24010C2F2000044F262
:101AA0004541C0F60D21C0F83A1044F25041C5F24C
:101AB0004141C0F8361044F24431C5F22051C0F81B
:101AC00032100C20FFF712FD3EE042F62C40C4F22B
:101AD000010090ED000AB8EE400A41F23B51C2F21B
:101AE00000018A7801EE102AB8EEC11A9FED342A5F
:101AF00081EE021A20EE010ABCEEC00A42F6344220
:101B0000C4F2010282ED000A90ED000AB8EE400A2C
:101B1000887801EE100AB8EEC11A81EE021A20EEA2
:101B2000010ABCEEC00A42F63840C4F2010080ED62
:101B3000000A40F24010C2F20000AC2180F83210DE
:101B40000120FFF7D3FCFFE7FFE7FFE7FFE7FFE731
:101B5000FFE702F002BA41F28C50C2F200000068C6
:101B600046F6AB61C0F600010322FEF71FFB00281A
:101B700009D0FFE741F23B50C2F200000078AD28E7
:101B800040F00C83FFE746F6A261C0F6000100209A
:101B9000FEF71AFB41F28C51C2F20001086008689E
:101BA000006844F25251C4F24141884213D009E026
:101BB00000000000004CFD40000000000000F0BFED
:101BC0000000C84241F23B50C2F200004078FD28BC
:101BD00040F0A181FFE700208DF81B01FFE79DF891
:101BE0001B0109282ADCFFE7FEF7F0FC00208DF836
:101BF0001A01FFE79DF81A01052818DCFFE79DF898
:101C00001A0140F20801C2F2000131F8101041F24D
:101C10007052C2F2000252F82030194442F82010EB
:101C2000FFE79DF81A0101308DF81A01E2E7FFE79E
:101C30009DF81B0101308DF81B01D0E741F28C505B
:101C4000C2F200000068006844F25251C4F24141FF
:101C5000884240F0C380FFE740F24010C2F200002B
:101C600044F24921C5F2553140F8321F42F23A019F
:101C7000818041F27052C2F2000213684CF6CD4CE2
:101C8000CCF6CC4CA3FB0C3ECEF3CF0E0624359005
:101C90003491214633927246CDF8C8C031933094C6
:101CA000FEF7CCFC0D20359988720A22CA720C23EB
:101CB0002F9018462E922D93FFF718FC34983599E3
:101CC000888044F25612C4F643420A60339A53683D
:101CD000DDF8C8C0A3FB0C3ECEF3CF020846309916
:101CE0002C93FEF7ABFC2F98359988722E9ACA7206
:101CF0002D98FFF7FBFB44F64940C2F23A003599B4
:101D0000086033988268329BA2FB032CCCF3CF0C83
:101D1000042135982B926246FEF790FC2F98359956
:101D200008722E9A4A721046FFF7E0FB34983599F4
:101D3000888044F25452C5F24D020A60339AD36847
:101D4000DDF8C8C0A3FB0C3ECEF3CF0208463099A5
:101D50002A93FEF773FC2F98359988722E9ACA72CF
:101D60002D98FFF7C3FB34983599888044F25612BA
:101D7000C4F643520A60339A1369DDF8C8C0A3FB66
:101D80000C3ECEF3CF02084630992993FEF756FC5D
:101D90002F98359988722E9ACA722D98FFF7A6FB54
:101DA00034983599888044F25622C5F255320A603B
:101DB000339A5369DDF8C8C0A3FB0C3ECEF3CF02C3
:101DC000084630992893FEF739FC2F983599887288
:101DD0002E9ACA722D98FFF789FB82E041F270506B
:101DE000C2F2000001684CF6CD42CCF6CC42A1FB19
:101DF0000213DB0A40F2401CC2F2000C8CF83230B5
:101E00000368A3FB023E4FEADE0E8CF833E04FF08E
:101E1000200E8CF834E04468A4FB0245ED0A8CF8EF
:101E200035504568A5FB0256F6088CF836608CF8EC
:101E300037E08668A6FB0267FF0A8CF8387087686F
:101E4000A7FB02784FEAD8088CF839808CF83AE082
:101E5000D0F80C80A8FB02894FEAD9298CF83B9076
:101E6000D0F80C90A9FB029A4FEADA0A8CF83CA051
:101E70008CF83DE0D0F810A0AAFB02AB4FEADB2BB8
:101E80008CF83EB0D0F810B02790ABFB02B0C00881
:101E90008CF83F008CF840E02798D0F814E0AEFBB7
:101EA00002E0C00A8CF8410027984069A0FB0202BA
:101EB000D2088CF8422011222690104625912493B6
:101EC0002394229521962097CDF87C80CDF87890A8
:101ED000CDF874A0CDF870B0CDF86CE0FFF706FB3C
:101EE000FFE700208DF81A01FFE79DF81A01052889
:101EF00010DCFFE79DF81A0141F27051C2F20001B7
:101F0000002241F82020FFE79DF81A0101308DF8EA
:101F10001A01EAE740E141F28C50C2F20000006889
:101F200046F6D261C0F600010722FEF73FF900280D
:101F300009D0FFE741F23B50C2F2000040785A2836
:101F400040F02981FFE741F28C50C2F200000068A6
:101F500046F6D261C0F600010722FEF727F90028F5
:101F600040F0D180FFE746F6A261C0F600010020F4
:101F70001A90FEF729F941F28C51C2F20001086073
:101F8000086802F0EBF841F29051C2F200010880BB
:101F90001A988DF81B01FFE79DF81B0141F2905143
:101FA000C2F200010988884280F2AC80FFE7FEF7A8
:101FB0000DFB40F24010C2F2000044F24921C5F28C
:101FC000553140F8321F42F23A01818040F2080256
:101FD000C2F2000213884FF0060C19901891614666
:101FE00017921A46CDF858C0FEF728FB0D20199914
:101FF00088720A22CA720C23159018461492139301
:10200000FFF774FA18981999888044F25612C4F6AA
:1020100043420A60179A528808461699FEF70EFB4B
:10202000159819998872149ACA721398FFF75EFA74
:1020300044F64940C2F23A0019990860179882881C
:1020400004211998FEF7FAFA159819990872149A4A
:102050004A721046FFF74AFA18981999888044F294
:102060005452C5F24D020A60179AD2880846169952
:10207000FEF7E4FA159819998872149ACA7213989F
:10208000FFF734FA18981999888044F25612C4F66A
:1020900043520A60179A128908461699FEF7CEFA3B
:1020A000159819998872149ACA721398FFF71EFA34
:1020B00018981999888044F25622C5F255320A6060
:1020C000179A528908461699FEF7B8FA1598199981
:1020D0008872149ACA721398FFF708FA42F62D50C4
:1020E000C0F60D20199988604FF02D3048600860C7
:1020F0001398FFF7FBF9FFE79DF81B0101308DF8FE
:102100001B0149E746E041F23B50C2F200008178F2
:10211000C07840EA012041F29051C2F200010880EB
:1021200000208DF81B01FFE79DF81B0141F2905143
:10213000C2F20001098888422BDAFFE7FEF746FA6F
:1021400040F20800C2F20000018840F2EA02C2F246
:102150000002D18520211186438853869186838889
:10216000D3861187C388538791870389D387A2F8C1
:1021700040104089A2F842002120A2F844000C201F
:10218000FEF730FFFFE79DF81B0101308DF81B01C2
:10219000CAE7FFE7FFE7FFE701F0DEBE41F28C5040
:1021A000C2F20000006846F6A761C0F600010322F3
:1021B000FDF7FCFF002808D0FFE741F23B50C2F2D8
:1021C00000000078DC2876D1FFE741F28C50C2F2A3
:1021D0000000006846F6A761C0F600010322FDF783
:1021E000E5FF002836D1FFE746F6A261C0F6000100
:1021F00000201290FDF7E8FF41F28C51C2F200017D
:102200000860086801F0AAFF129911900846119A17
:1022100003F0F0F8129803F047F940F24010C2F2D0
:1022200000000A2180F83E1044F25451C0F6445197
:10223000C0F83A1045F25501C4F24411C0F8361006
:1022400044F24411C2F24301C0F832100D20FFF7EE
:102250004DF92EE040F2BC00C2F2000001210170F5
:1022600040F60040C4F20100042203234FF0100C9A
:10227000109111461A46634603F0CAFA41F23B50E8
:10228000C2F200004178807840EA012200200F90DD
:102290000F9903F0AFF80F9803F006F940F24010E1
:1022A000C2F20000AC2180F832101098FFF71EF93E
:1022B000FFE701F050BE41F28C50C2F2000000680E
:1022C000006845F24701C4F64971884209D0FFE72A
:1022D00041F23B50C2F2000000786F2841F0538574
:1022E000FFE746F6A261C0F600010020FDF76CFF93
:1022F00041F28C51C2F2000108600868006844F2A3
:102300005251C4F24141884209D0FFE741F23B50AB
:10231000C2F2000040787D2840F0AC81FFE741F236
:102320008C50C2F200000068006844F25251C4F2BE
:102330004141884240F01281FFE741F20000C4F2BF
:1023400001004FF4005103F02DFB01281DD1FFE7E0
:1023500040F24010C2F200000A2180F83E1044F220
:102360004971C0F64851C0F83A1043F64521C4F609
:102370002001C0F8361045F25341C5F24141C0F882
:1023800032100C20FFF7B2F819E040F24010C2F210
:10239000000045F24F71C0F60D21C0F83A1043F627
:1023A0004521C4F62041C0F8361045F25341C5F22C
:1023B0004141C0F832100B20FFF798F8FFE741F2D7
:1023C0000000C4F201004FF4004103F0EBFA0128D1
:1023D0001DD1FFE740F24010C2F2000040F60D218F
:1023E000C18744F64811C4F64701C0F83A1044F2D8
:1023F0004C51C2F23A01C0F8361044F64561C4F2BD
:102400004121C0F832100D20FFF770F81CE040F2B7
:102410004010C2F200000A2180F83E1044F64C71D0
:10242000C0F65751C0F83A1044F24C51C2F23A018A
:10243000C0F8361044F64561C4F24121C0F83210AC
:102440000C20FFF753F8FFE741F60000C4F201004B
:102450004FF4806103F0A6FA01281DD1FFE740F296
:102460004010C2F200000A2180F83E1044F2497187
:10247000C0F64851C0F83A1043F64B21C4F620018B
:10248000C0F8361044F25741C4F65F71C0F83210FC
:102490000C20FFF72BF819E040F24010C2F20000C8
:1024A00045F24F71C0F60D21C0F83A1043F64B21AA
:1024B000C4F62041C0F8361044F25741C4F65F71AB
:1024C000C0F832100B20FFF711F8FFE740F600408C
:1024D000C4F20100102103F065FA012820D1FFE7C2
:1024E00040F24010C2F2000044F64701C0F60D2150
:1024F000C0F83D1044F62001C4F24971C0F83A100A
:1025000044F65F11C3F64E21C0F8361045F653115C
:10251000C4F24E31C0F832100E20FEF7E7FF1CE087
:1025200040F24010C2F2000040F60D21C18744F68F
:102530002041C5F24F71C0F83A1044F65F11C3F65E
:102540004E21C0F8361045F65311C4F24E31C0F892
:1025500032100D20FEF7CAFFFFE789E040F240107D
:10256000C2F20000002180F8321041F20000C4F2F3
:1025700001004FF4005103F015FA01280BD1FFE7D9
:1025800040F24010C2F2000090F8321049000131D0
:1025900080F8321009E040F24010C2F2000090F8DA
:1025A0003210490080F83210FFE741F20000C4F217
:1025B00001004FF4004103F0F5F901280BD1FFE7CA
:1025C00040F24010C2F2000090F832104900013190
:1025D00080F8321009E040F24010C2F2000090F89A
:1025E0003210490080F83210FFE741F60000C4F2D3
:1025F00001004FF4806103F0D5F901280BD1FFE70A
:1026000040F24010C2F2000090F83210490001314F
:1026100080F8321009E040F24010C2F2000090F859
:102620003210490080F83210FFE740F60040C4F253
:102630000100102103F0B6F901280BD1FFE740F2A9
:102640004010C2F2000090F832104900013180F8C9
:10265000321009E040F24010C2F2000090F832104F
:10266000490080F83210FFE70120FEF73FFFFFE747
:1026700001F088BB41F28C50C2F20000006846F6BF
:10268000B361C0F600010722FDF790FD002809D0D4
:10269000FFE741F23B50C2F2000040787F2841F052
:1026A000AA80FFE7FEF70AF941F28C50C2F200005F
:1026B000006846F6B361C0F600010722FDF776FD1B
:1026C000002840F0C985FFE741F20000C4F2010094
:1026D0004FF4005103F066F901281DD1FFE740F2E5
:1026E0004010C2F200000A2180F83E1044F2497105
:1026F000C0F64851C0F83A1043F64521C4F620010F
:10270000C0F8361045F25341C5F24141C0F83210CD
:102710000D20FEF7EBFE19E040F24010C2F200007F
:1027200045F24F71C0F60D21C0F83A1043F645212D
:10273000C4F62041C0F8361045F25341C5F241417C
:10274000C0F832100C20FEF7D1FEFFE741F2000086
:10275000C4F201004FF4804103F024F901281DD197
:10276000FFE740F24010C2F200000A2180F83E105C
:1027700044F24971C0F64851C0F83A1043F6592165
:10278000C4F62001C0F8361044F25251C4F241415F
:10279000C0F832100D20FEF7A9FE19E040F24010FB
:1027A000C2F2000045F24F71C0F60D21C0F83A1098
:1027B00043F65921C4F62041C0F8361044F2525174
:1027C000C4F24141C0F832100C20FEF78FFEFFE743
:1027D00041F20000C4F201004FF4004103F0E2F8BE
:1027E00001281DD1FFE740F24010C2F2000040F680
:1027F0000D21C18744F64811C4F64701C0F83A10CC
:1028000044F24C51C2F23A01C0F8361044F6456128
:10281000C4F24121C0F832100E20FEF767FE1CE022
:1028200040F24010C2F200000A2180F83E1044F647
:102830004C71C0F65751C0F83A1044F24C51C2F2F4
:102840003A01C0F8361044F64561C4F24121C0F89F
:1028500032100D20FEF74AFEFFE740F60000C4F2FA
:102860000100012103F09EF801281AD1FFE740F290
:102870004010C2F2000044F64701C0F60D21C0F836
:102880003A1042F23A01C4F64811C0F8361044F248
:102890004921C5F25531C0F832100C20FEF726FE52
:1028A00019E040F24010C2F2000045F24F71C0F64C
:1028B0000D21C0F8391042F23A01C4F64C71C0F84B
:1028C000361044F24921C5F25531C0F832100B20C0
:1028D000FEF70CFEFFE740F60000C4F20100042101
:1028E00003F060F801281AD1FFE740F24010C2F26D
:1028F000000044F64701C0F60D21C0F83A1042F23C
:102900003A01C4F64811C0F8361044F25611C4F624
:102910004341C0F832100C20FEF7E8FD19E040F208
:102920004010C2F2000045F24F71C0F60D21C0F810
:10293000391042F23A01C4F64C71C0F8361044F234
:102940005611C4F64341C0F832100B20FEF7CEFDFD
:10295000FFE740F60000C4F20100102103F022F866
:10296000012820D1FFE740F24010C2F2000044F6F7
:102970004701C0F60D21C0F83D1044F62001C4F215
:102980004971C0F83A1045F24F51C3F65421C0F8CE
:10299000361044F24411C5F64371C0F832100F20CE
:1029A000FEF7A4FD1CE040F24010C2F2000040F629
:1029B0000D21C18744F62041C5F24F71C0F83A108D
:1029C00045F24F51C3F65421C0F8361044F2441179
:1029D000C5F64371C0F832100E20FEF787FDFFE701
:1029E00040F60000C4F20100202102F0DBFF0128C4
:1029F0001AD1FFE740F24010C2F2000044F647014E
:102A0000C0F60D21C0F83A1042F23A01C4F648115E
:102A1000C0F8361044F25451C5F24D01C0F83210DE
:102A20000C20FEF763FD19E040F24010C2F20000F6
:102A300045F24F71C0F60D21C0F8391042F23A014B
:102A4000C4F64C71C0F8361044F25451C5F24D0131
:102A5000C0F832100B20FEF749FDFFE740F60000FA
:102A6000C4F20100802102F09DFF01281AD1FFE786
:102A700040F24010C2F2000044F64701C0F60D21BA
:102A8000C0F83A1042F23A01C4F64811C0F83610C4
:102A900044F25611C4F64361C0F832100C20FEF720
:102AA00025FD19E040F24010C2F2000045F24F71DE
:102AB000C0F60D21C0F8391042F23A01C4F64C714B
:102AC000C0F8361044F25611C4F64361C0F8321013
:102AD0000B20FEF70BFDFFE740F60040C4F20100BB
:102AE000012102F05FFF012820D1FFE740F24010F2
:102AF000C2F2000044F64701C0F60D21C0F83E10B6
:102B000042F23A01C4F64811C0F83A1044F6424184
:102B1000C4F64E31C0F8361044F24C51C5F644713B
:102B2000C0F832101020FEF7E1FC1FE040F2401028
:102B3000C2F2000045F24F71C0F60D21C0F83D1001
:102B400042F23A01C4F64C71C0F83A1044F64241E0
:102B5000C4F64E31C0F8361044F24C51C5F64471FB
:102B6000C0F832100F20FEF7C1FCFFE740F600402E
:102B7000C4F20100022102F015FF01281DD1FFE778
:102B800040F24010C2F200000A2180F83E1044F2E8
:102B90004971C0F64851C0F83A1043F65921C4F6BD
:102BA0002001C0F8361044F25251C4F24C11C0F862
:102BB00032100D20FEF79AFC19E040F24010C2F2EC
:102BC000000045F24F71C0F60D21C0F83A1043F6EF
:102BD0005921C4F62041C0F8361044F25251C4F2D3
:102BE0004C11C0F832100C20FEF780FCFFE740F6D5
:102BF0000040C4F20100042102F0D4FE012817D1E4
:102C0000FFE740F24010C2F2000040F60D2141877C
:102C100044F64811C4F64701C0F8361044F2574153
:102C2000C2F23A01C0F832100A20FEF75FFC16E04B
:102C300040F24010C2F200000A2180F83A1044F637
:102C40004C71C0F65751C0F8361044F25741C2F2E9
:102C50003A01C0F832100920FEF748FCFFE740F6C1
:102C60000040C4F201004FF4806102F09BFE012895
:102C700020D1FFE740F24010C2F2000044F64701C5
:102C8000C0F60D21C0F83E1042F23A01C4F64811D8
:102C9000C0F83A1045F65471C5F65401C0F8361024
:102CA00045F25531C5F24121C0F832101020FEF72F
:102CB0001DFC1FE040F24010C2F2000045F24F71CF
:102CC000C0F60D21C0F83D1042F23A01C4F64C7135
:102CD000C0F83A1045F65471C5F65201C0F83610E6
:102CE00045F25531C5F24121C0F832100F20FEF7F0
:102CF000FDFBFFE740F60040C4F201004FF4005135
:102D000002F050FE01281DD1FFE740F24010C2F250
:102D1000000040F60D21C18744F64811C4F6470172
:102D2000C0F83A1044F65301C2F23A01C0F8361026
:102D300045F25071C5F64D71C0F832100E20FEF705
:102D4000D5FB1CE040F24010C2F200000A2180F8DE
:102D50003E1044F64C71C0F65751C0F83A1044F694
:102D60005301C2F23A01C0F8361045F25071C5F66F
:102D70004D71C0F832100D20FEF7B8FBFFE740F6AA
:102D80000040C4F201004FF4804102F00BFE012824
:102D90001DD1FFE740F24010C2F2000040F60D21C5
:102DA000C18744F64811C4F64701C0F83A1044F60A
:102DB0005341C2F23A01C0F8361045F25071C5F6DF
:102DC0004D71C0F832100E20FEF790FB1CE040F26F
:102DD0004010C2F200000A2180F83E1044F64C7107
:102DE000C0F65751C0F83A1044F65341C2F23A01C6
:102DF000C0F8361045F25071C5F64D71C0F832106A
:102E00000D20FEF773FBFFE740F60000C4F201005F
:102E10004FF4807102F0C6FD01281DD1FFE740F29A
:102E20004010C2F2000040F60D21C18744F648115F
:102E3000C4F64701C0F83A1044F64601C2F23A011E
:102E4000C0F8361045F25071C5F64D71C0F8321019
:102E50000E20FEF74BFB1CE040F24010C2F20000D7
:102E60000A2180F83E1044F64C71C0F65751C0F864
:102E70003A1044F64601C2F23A01C0F8361045F263
:102E80005071C5F64D71C0F832100D20FEF72EFBC3
:102E9000FFE740F60000C4F201004FF4007102F0B9
:102EA00081FD01281DD1FFE740F24010C2F2000071
:102EB00040F60D21C18744F64811C4F64701C0F819
:102EC0003A1044F64641C2F23A01C0F8361045F2D3
:102ED0005071C5F64D71C0F832100E20FEF706FB9A
:102EE0001CE040F24010C2F200000A2180F83E10BF
:102EF00044F64C71C0F65751C0F83A1044F64641BA
:102F0000C2F23A01C0F8361045F25071C5F64D7163
:102F1000C0F832100D20FEF7E9FAFFE740F6004056
:102F2000C4F201004FF4005102F03CFD01281DD114
:102F3000FFE740F24010C2F2000040F60D21C187C9
:102F400044F64811C4F64701C0F83A1044F653015C
:102F5000C2F23A01C0F8361045F25071C5F64D7113
:102F6000C0F832100E20FEF7C1FA1CE040F240100B
:102F7000C2F200000A2180F83E1044F64C71C0F6FF
:102F80005751C0F83A1044F65301C2F23A01C0F862
:102F9000361045F25071C5F64D71C0F832100D2053
:102FA000FEF7A4FAFFE740F60000C4F201004FF478
:102FB000806102F0F7FC012820D1FFE740F24010C9
:102FC000C2F2000044F64701C0F60D21C0F83E10E1
:102FD00042F23A01C4F64811C0F83A1044F65F7163
:102FE000C5F25541C0F8361045F65311C4F24E31C2
:102FF000C0F832101020FEF779FA1FE040F24010BE
:10300000C2F2000045F24F71C0F60D21C0F83D102C
:1030100042F23A01C4F64C71C0F83A1044F65F71BE
:10302000C5F25541C0F8361045F65311C4F24E3181
:10303000C0F832100F20FEF759FAFFE740F6000003
:10304000C4F201004FF4006102F0ACFC01281DD174
:10305000FFE740F24010C2F2000040F60D21C187A8
:1030600044F64811C4F64701C0F83A1045F652013B
:10307000C2F23A01C0F8361044F24311C5F64E715F
:10308000C0F832100E20FEF731FA1CE040F240107A
:10309000C2F200000A2180F83E1044F64C71C0F6DE
:1030A0005751C0F83A1045F65201C2F23A01C0F841
:1030B000361044F24311C5F64E71C0F832100D209F
:1030C000FEF714FAFFE740F60000C4F201004FF4E7
:1030D000805102F067FC01281DD1FFE740F240104B
:1030E000C2F2000040F60D21C18744F64811C4F633
:1030F0004701C0F83A1045F65401C2F23A01C0F84F
:10310000361044F24311C5F64E71C0F832100E204D
:10311000FEF7ECF91CE040F24010C2F200000A2178
:1031200080F83E1044F64C71C0F65751C0F83A1082
:1031300045F65401C2F23A01C0F8361044F2431188
:10314000C5F64E71C0F832100D20FEF7CFF9FFE73B
:1031500040F60040C4F20100102102F023FC0128D7
:1031600020D1FFE740F24010C2F2000044F64701D0
:10317000C0F60D21C0F83D1044F62001C4F249719B
:10318000C0F83A1044F65F11C3F64E21C0F836106D
:1031900045F65311C4F24E31C0F832100F20FEF73D
:1031A000A5F91CE040F24010C2F2000040F60D21EB
:1031B000C18744F62041C5F24F71C0F83A1044F679
:1031C0005F11C3F64E21C0F8361045F65311C4F214
:1031D0004E31C0F832100E20FEF788F9FFE740F6B6
:1031E0000040C4F201004FF4007102F0DBFB012843
:1031F0001AD1FFE740F24010C2F2000044F6470146
:10320000C0F60D21C0F8391044F62001C4F249710E
:10321000C0F8361044F24611C3F64E21C0F8321001
:103220000B20FEF763F916E040F24010C2F20000F6
:1032300040F60D21418744F62041C5F24F71C0F898
:10324000361044F24611C3F64E21C0F832100A205F
:10325000FEF74CF9FFE7C1E240F24010C2F2000075
:10326000002180F8321041F20000C4F201004FF456
:10327000005102F097FB01280BD1FFE740F240100C
:10328000C2F2000090F832104900013180F832108B
:1032900009E040F24010C2F2000090F832104900FC
:1032A00080F83210FFE741F20000C4F201004FF451
:1032B000804102F077FB01280BD1FFE740F240107C
:1032C000C2F2000090F832104900013180F832104B
:1032D00009E040F24010C2F2000090F832104900BC
:1032E00080F83210FFE741F20000C4F201004FF411
:1032F000004102F057FB01280BD1FFE740F24010DC
:10330000C2F2000090F832104900013180F832100A
:1033100009E040F24010C2F2000090F8321049007B
:1033200080F83210FFE740F60000C4F201000121EE
:1033300002F038FB01280BD1FFE740F24010C2F247
:10334000000090F832104900013180F8321009E095
:1033500040F24010C2F2000090F83210490080F8AC
:103360003210FFE740F60000C4F20100042102F031
:1033700019FB01280BD1FFE740F24010C2F2000018
:1033800090F832104900013180F8321009E040F223
:103390004010C2F2000090F83210490080F832105C
:1033A000FFE740F60000C4F20100102102F0FAFA33
:1033B00001280BD1FFE740F24010C2F2000090F864
:1033C00032104900013180F8321009E040F240101B
:1033D000C2F2000090F83210490080F83210FFE786
:1033E00040F60000C4F20100202102F0DBFA0128BF
:1033F0000BD1FFE740F24010C2F2000090F832100B
:103400004900013180F8321009E040F24010C2F268
:10341000000090F83210490080F83210FFE740F6C3
:103420000000C4F20100802102F0BCFA01280BD197
:10343000FFE740F24010C2F2000090F8321049005D
:10344000013180F8321009E040F24010C2F2000071
:1034500090F83210490080F83210FFE740F6004043
:10346000C4F20100012102F09DFA01280BD1FFE70F
:1034700040F24010C2F2000090F8321049000131D1
:1034800080F8331009E040F24010C2F2000090F8DA
:103490003310490080F83310FFE740F60040C4F2D3
:1034A0000100022102F07EFA01280BD1FFE740F271
:1034B0004010C2F2000090F832104900013180F84B
:1034C000331009E040F24010C2F2000090F83310CF
:1034D000490080F83310FFE740F60040C4F20100D5
:1034E000042102F05FFA01280BD1FFE740F24010FF
:1034F000C2F2000090F832104900013180F8331018
:1035000009E040F24010C2F2000090F83310490088
:1035100080F83310FFE740F60040C4F201004FF49A
:10352000806102F03FFA01280BD1FFE740F2401022
:10353000C2F2000090F832104900013180F83310D7
:1035400009E040F24010C2F2000090F83310490048
:1035500080F83310FFE740F60040C4F201004FF45A
:10356000005102F01FFA01280BD1FFE740F2401092
:10357000C2F2000090F832104900013180F8331097
:1035800009E040F24010C2F2000090F83310490008
:1035900080F83310FFE740F60040C4F201004FF41A
:1035A000804102F0FFF901280BD1FFE740F2401003
:1035B000C2F2000090F832104900013180F8331057
:1035C00009E040F24010C2F2000090F833104900C8
:1035D00080F83310FFE740F60000C4F201004FF41A
:1035E000807102F0DFF901280BD1FFE740F24010B3
:1035F000C2F2000090F832104900013180F8331017
:1036000009E040F24010C2F2000090F83310490087
:1036100080F83310FFE740F60000C4F201004FF4D9
:10362000007102F0BFF901280BD1FFE740F2401012
:10363000C2F2000090F832104900013180F83310D6
:1036400009E040F24010C2F2000090F83310490047
:1036500080F83310FFE740F60040C4F201004FF459
:10366000005102F09FF901280BD1FFE740F2401012
:10367000C2F2000090F832104900013180F8341095
:1036800009E040F24010C2F2000090F83410490006
:1036900080F83410FFE740F60000C4F201004FF458
:1036A000806102F07FF901280BD1FFE740F2401062
:1036B000C2F2000090F832104900013180F8341055
:1036C00009E040F24010C2F2000090F834104900C6
:1036D00080F83410FFE740F60000C4F201004FF418
:1036E000006102F05FF901280BD1FFE740F24010C2
:1036F000C2F2000090F832104900013180F8341015
:1037000009E040F24010C2F2000090F83410490085
:1037100080F83410FFE740F60000C4F201004FF4D7
:10372000805102F03FF901280BD1FFE740F2401031
:10373000C2F2000090F832104900013180F83410D4
:1037400009E040F24010C2F2000090F83410490045
:1037500080F83410FFE740F60040C4F20100102169
:1037600002F020F901280BD1FFE740F24010C2F22D
:10377000000090F832104900013180F8341009E05F
:1037800040F24010C2F2000090F83410490080F876
:103790003410FFE740F60040C4F201004FF400711E
:1037A00002F000F901280BD1FFE740F24010C2F20D
:1037B000000090F832104900013180F8341009E01F
:1037C00040F24010C2F2000090F83410490080F836
:1037D0003410FFE70320FDF789FEFFE7FDF720F92E
:1037E000FDF71EF9FDF79AFEFDF7CAFAFDF712FC88
:1037F000FDF7F6F8C5E241F28C50C2F20000006815
:10380000006844F64811C4F64701884208D0FFE733
:1038100041F23B50C2F200004078FF285AD1FFE746
:1038200040F60000C4F201004FF4806101F0E8FFAF
:1038300040F60040C4F2010002210E9001F0E0FFCA
:1038400004210E9801F0DCFF4FF400710E9801F096
:10385000D7FF41F20000C4F201004FF4804101F0B3
:10386000CFFF41F28C50C2F200000068006844F6BD
:103870004811C4F64701884220D1FFE740F24010CA
:10388000C2F2000044F64701C0F60D21C0F83D1019
:1038900044F62001C4F24971C0F83A1045F24701DC
:1038A000C4F64971C0F8361044F64141C2F24C01E9
:1038B000C0F832100F20FDF719FE0AE040F2401068
:1038C000C2F20000AC2180F832100120FDF70EFE9C
:1038D000FFE755E241F28C50C2F20000006846F664
:1038E000DA61C0F600010322FCF760FC002808D072
:1038F000FFE741F23B50C2F200004078002859D166
:10390000FFE740F60000C4F201004FF4806101F0CF
:103910006FFF40F60040C4F2010002210D9001F05B
:1039200067FF04210D9801F063FF4FF400710D98BB
:1039300001F05EFF41F20000C4F201004FF480414B
:1039400001F056FF41F28C50C2F20000006846F6CA
:10395000DA61C0F600010322FCF728FC00281DD123
:10396000FFE740F24010C2F2000040F60D21C1878F
:1039700044F62041C5F24F71C0F83A1045F24701B4
:10398000C4F64971C0F8361044F64141C2F24C0108
:10399000C0F832100E20FDF7A9FD0AE040F24010F9
:1039A000C2F20000AC2180F832100120FDF79EFD2C
:1039B000FFE7E4E141F28C50C2F20000006846F6F5
:1039C000BB61C0F600010622FCF7F0FB002809D01D
:1039D000FFE741F23B50C2F200004078CC2840F0B3
:1039E0004E81FFE741F28C50C2F20000006846F6BB
:1039F000BB61C0F600010622FCF7D8FB002840F0AE
:103A0000AB80FFE746F6A261C0F600010020FCF79C
:103A1000DBFB41F28C51C2F200010860086800F043
:103A200073FB41F23451C2F2000108600878C0070C
:103A3000002809D0FFE740F60000C4F201004FF46F
:103A4000806101F0DDFE08E040F60000C4F20100F4
:103A50004FF4806101F0CCFEFFE741F23450C2F236
:103A6000000000684008C007002808D0FFE740F6C3
:103A70000040C4F20100022101F0C2FE07E040F65E
:103A80000040C4F20100022101F0B2FEFFE741F262
:103A90003450C2F2000000688008C007002808D037
:103AA000FFE740F60040C4F20100042101F0A8FE47
:103AB00007E040F60040C4F20100042101F098FE46
:103AC000FFE741F23450C2F200000068C008C007AE
:103AD000002809D0FFE740F60040C4F201004FF48F
:103AE000007101F08DFE08E040F60040C4F20100D4
:103AF0004FF4007101F07CFEFFE741F23450C2F256
:103B0000000000680009C007002809D0FFE741F263
:103B10000000C4F201004FF4804101F071FE08E0A2
:103B200041F20000C4F201004FF4804101F060FE58
:103B3000FFE740F24010C2F20000323046F6636107
:103B4000C0F6000114220C92FCF71EFB0C990B909E
:103B50000846FDF7CBFC91E041F23B50C2F2000079
:103B60008078C007002809D0FFE740F60000C4F2C3
:103B700001004FF4806101F043FE08E040F60000D0
:103B8000C4F201004FF4806101F032FEFFE741F220
:103B90003B50C2F2000080784008C007002808D0DF
:103BA000FFE740F60040C4F20100022101F028FEC8
:103BB00007E040F60040C4F20100022101F018FEC7
:103BC000FFE741F23B50C2F2000080788008C00756
:103BD000002808D0FFE740F60040C4F201000421AD
:103BE00001F00EFE07E040F60040C4F2010004219F
:103BF00001F0FEFDFFE741F23B50C2F20000807889
:103C0000C008C007002809D0FFE740F60040C4F212
:103C100001004FF4007101F0F3FD08E040F60040B0
:103C2000C4F201004FF4007101F0E2FDFFE741F240
:103C30003B50C2F2000080780009C007002809D07C
:103C4000FFE741F20000C4F201004FF4804101F0AF
:103C5000D7FD08E041F20000C4F201004FF48041BA
:103C600001F0C6FDFFE740F24010C2F20000AC21B7
:103C700080F832100120FDF739FCFFE77EE041F2C9
:103C80008C50C2F20000006846F6CA61C0F600011E
:103C90000722FCF78BFA002808D0FFE741F23B50DF
:103CA000C2F200004078AA2867D1FFE741F28C50A9
:103CB000C2F20000006846F6CA61C0F600010722A1
:103CC000FCF774FA002829D1FFE746F6A260C0F697
:103CD000000000210A9008460A9A09911146FCF753
:103CE00073FA41F28C51C2F2000108600868089131
:103CF00000F034FA41F28A51C2F2000108800998BA
:103D00000A99FCF761FA08990860086800F026FA39
:103D100041F28851C2F20001088016E041F23B50A6
:103D2000C2F200008178C27842EA012141F28A524F
:103D3000C2F2000211800179407940EA012041F28B
:103D40008851C2F200010880FFE741F28A50C2F2B6
:103D50000000008841F2883188420DDCFFE741F223
:103D60003950C2F20000012101701C2000F0D6FC85
:103D7000322000F0F1FCFFE7FFE7FFE7FFE7FFE796
:103D8000FFE7FFE7E6E041F28C50C2F20000006876
:103D9000006844F25511C5F25241884208D0FFE74D
:103DA00041F23B50C2F200000078CA2861D1FFE71F
:103DB00046F6A261C0F600010020FCF705FA41F2C8
:103DC0008C51C2F2000108600868008844F6545122
:103DD000884208D0FFE741F23B50C2F20000007871
:103DE000CA2845D1FFE740F2BD00C2F2000043F20D
:103DF0003101C0F60D21016243F25131C3F23201AB
:103E0000C16142F24F01C5F24D01816144F2485156
:103E1000C4F64C4141611020FCF79AFF41F28C50EE
:103E2000C2F200000068008844F65451884213D161
:103E3000FFE740F24010C2F20000323046F67861EF
:103E4000C0F6000115220792FCF79EF9079906902B
:103E50000846FDF74BFB0AE040F24010C2F20000BA
:103E6000AC2180F832100120FDF740FBFFE7FFE7AF
:103E70006FE041F28C50C2F20000006846F6C66165
:103E8000C0F600010322FCF791F9002808D0FFE7F3
:103E900041F23B50C2F200000078C52858D1FFE73C
:103EA00046F6A261C0F600010020FCF78DF941F250
:103EB0008C51C2F2000108600868008844F6545131
:103EC000884208D0FFE741F23B50C2F20000007880
:103ED000C5283CD1FFE740F21400C2F20000552192
:103EE000A0F8A010032180F8A4105321417345F2DB
:103EF0004D01A0F80B10FCF785FB41F28C50C2F28B
:103F000000000068008844F65451884213D1FFE74E
:103F100040F24010C2F20000323046F68E61C0F628
:103F2000000113220592FCF72FF905990490084629
:103F3000FDF7DCFA0AE040F24010C2F20000AC21CA
:103F400080F832100120FDF7D1FAFFE7FFE7FFE725
:103F5000FFE7FFE7FFE7FFE7FFE700208DF81B0122
:103F6000FFE79DF81B0113280FDCFFE79DF81B01FD
:103F700040F24011C2F2000100220A54FFE79DF80E
:103F80001B0101308DF81B01EBE71C2000F0E4FB66
:103F9000FFE740F2EA00C2F200008078002838D043
:103FA000FFE740F2EA00C2F2000000218170C288FF
:103FB00003900846029101F01DFA029801F074FA8C
:103FC00003980189C72918D1FFE740F2BC00C2F26B
:103FD00000000021017040F60040C4F201000421FD
:103FE00010230191019A01F013FC40F24010C2F23B
:103FF0000000DC2180F8321007E040F24010C2F2ED
:104000000000AC2180F83210FFE70120FDF76EFAC6
:10401000FFE747B0BDE8F08F80B598B0FCF700FD32
:10402000FDF77CFAFCF7ACFEFCF7F4FFFCF7D8FCDC
:104030004FF4E1301290002113911491159140F248
:104040004012C2F2000202F132031693179212AB31
:104050000590184604910392FDF78EF920200399EC
:1040600081F832000122029010460192FDF73EFADB
:1040700005980C9004990D910E910F9140F2BD029C
:10408000C2F2000202F11403109311920CA80092E4
:10409000FCF7BAFD0298009908750198FCF758FEE4
:1040A00008208DF82C0004988DF82E004FF4006144
:1040B00008918DF82D0040F2EA01C2F2000101F1F1
:1040C0002E02099206310A9108A8FCF779FE4FF4F6
:1040D000FA70069004988DF81D008DF81C0006A853
:1040E000FCF710FCFCF716FB42F6DF60FCF7B0FFB4
:1040F0000E20FDF77DF84DF2BF40C0F20100FDF744
:104100003FF818B080BD000083B0029000200190FD
:104110008DF80300FFE702989DF80310405C002132
:104120002F280A46C8BF01223A28B8BF01210A42F7
:1041300011D0FFE701984000019002989DF803100C
:10414000405C01990844303801909DF8030001302B
:104150008DF80300DFE7019803B0704782B001904B
:104160000020ADF80200ADF80000FFE70198BDF8AF
:104170000010405C00212F280A46C8BF01223A28BF
:10418000B8BF01210A4217D0FFE7BDF8020000EBDB
:1041900080004000ADF802000198BDF80010405CBE
:1041A000BDF8021008443038ADF80200BDF8000038
:1041B0000130ADF80000D9E7BDF8020002B0704749
:1041C00080B582B0009000980138B0F1807F03D3B1
:1041D000FFE70120019019E0009801384EF2140128
:1041E000CEF2000108604FF0FF300F2100F0CEFA50
:1041F0004EF21800CEF20000002101604EF21000D5
:10420000CEF20000072202600191FFE7019802B0A0
:1042100080BD000080B541F29450C2F200000168F8
:104220000131016000684CF66311C9F22F61484307
:104230004FEAF00043F60621C0F26D01884224D80F
:10424000FFE741F22E50C2F200000178B1FA81F18D
:10425000490901700078002808D0FFE740F60040C7
:10426000C4F20100012101F0CBFA0DE040F600405C
:10427000C4F20100012101F0BBFA41F29450C2F2F4
:10428000000000210160FFE7FFE7FDF76DF980BD49
:1042900080B582B04EF68850CEF20000016841F43D
:1042A0007001016041F20000C4F20200016841F0B7
:1042B0000101016041F20401C4F2020100220A601E
:1042C00041F22C01C4F202010A6001684FF6FF734B
:1042D000CEF6F6231940016041F20801C4F2020152
:1042E0004FF47F030B60016821F48021016001928B
:1042F00001F010FF4FF00060019901F019FC02B0CD
:1043000080BD000080B542F60040C4F201000121EA
:1043100002F072FB002808D0FFE742F60040C4F22A
:104320000100012102F05CFBFFE780BD80B54FF08A
:104330008040012102F060FB00286BD0FFE74FF0C6
:104340008040012102F04CFB41F29250C2F2000089
:104350000078002826D1FFE740F24010C2F20000AA
:1043600043F62E11C0F60D21C0F83D1045F2206134
:10437000C2F63161C0F83A1042F25401C4F64F312E
:10438000C0F8361045F25341C5F24121C0F8321051
:104390000F20FDF7ABF841F29250C2F2000001216C
:1043A000017017E041F29250C2F20000007800283C
:1043B0000FD0FFE740F2BC00C2F2000000780028F6
:1043C00003D0FFE7FCF7FCFD02E0FDF77DF8FFE717
:1043D000FFE7FFE740F24010C2F20000007800283B
:1043E00008D0FFE740F24010C2F20000012180F83F
:1043F0006510FFE740F2EA00C2F20000C088002822
:1044000007D0FFE740F2EA00C2F20000012181700C
:10441000FFE7FFE780BD000080B584B040F60040B4
:10442000C4F20000012102F0E7FA002800F07381D5
:10443000FFE740F60040C4F20000012102F0D0FA8C
:1044400041F23950C2F200000078002800F0628189
:10445000FFE741F29850C2F200000188013101806B
:10446000008841F28851C2F2000109884FF4FA52E3
:10447000B2FBF1F1884240F3B480FFE741F23050E3
:10448000C2F20000008841F28A51C2F2000109889C
:10449000884280F2A680FFE741F29850C2F2000005
:1044A0000021018041F20000C4F201004FF40051EC
:1044B00001F078FA01280ED1FFE741F23050C2F244
:1044C0000000008840F2A611C2F200010A5C52000E
:1044D00001320A540CE041F23050C2F20000008870
:1044E00040F2A611C2F200010A5C52000A54FFE732
:1044F00041F20000C4F201004FF4004101F052FA11
:1045000001280ED1FFE741F23050C2F200000088CE
:1045100040F2A611C2F200010A5C520001320A54B4
:104520000CE041F23050C2F20000008840F2A611C7
:10453000C2F200010A5C52000A54FFE741F6000093
:10454000C4F201004FF4806101F02CFA01280ED171
:10455000FFE741F23050C2F20000008840F2A6119D
:10456000C2F200010A5C520001320A540CE041F22E
:104570003050C2F20000008840F2A611C2F20001E1
:104580000A5C52000A54FFE740F60040C4F2010002
:10459000102101F007FA01280ED1FFE741F2305057
:1045A000C2F20000008840F2A611C2F200010A5CCB
:1045B000520001320A540CE041F23050C2F20000C5
:1045C000008840F2A611C2F200010A5C52000A54AF
:1045D000FFE741F23050C2F2000001880131018052
:1045E00097E041F23050C2F20000008841F28A5157
:1045F000C2F2000109888842C0F28A80FFE741F2D6
:104600003050C2F200000021018041F23852C2F263
:1046100000020123137041F23953C2F200031970F2
:104620001170322203901046029100F077F8029840
:1046300003990880FFE741F23050C2F20000008881
:1046400041F28A51C2F20001098888425CDAFFE730
:1046500041F23A50C2F2000000210170FFE741F23E
:104660003050C2F20000008841F23A51C2F200011B
:104670000978084441F28A51C2F2000109880022F7
:10468000884201920BDAFFE741F23A50C2F2000091
:10469000007800213228B8BF01210191FFE701987D
:1046A000C007002820D0FFE741F23050C2F20000DE
:1046B000008841F23A51C2F200010978084440F200
:1046C000A611C2F20001095C40F24012C2F20002DF
:1046D000104480F83210FFE741F23A50C2F2000075
:1046E000017801310170BAE741F23A50C2F200009C
:1046F0000078FCF7FBFEFFE741F23050C2F2000009
:1047000001883231018096E71C2000F025F8FFE790
:10471000FFE7FFE7FFE704B080BD000081B001467E
:104720008DF803009DF90300002813D4FFE79DF9DD
:10473000030000F01F01012202FA01F140094EF2CC
:104740008012CEF2000242F82010BFF34F8FBFF369
:104750006F8FFFE701B0704781B001468DF803000D
:104760009DF9030000280FD4FFE79DF9030000F036
:104770001F01012202FA01F140094EF20012CEF2AD
:10478000000242F82010FFE701B0704782B00246F5
:104790008DF8070000919DF9070000280AD4FFE773
:1047A000009800019DF907104EF20042CEF200027F
:1047B00088540BE0009800019DF8071001F00F01EC
:1047C0004EF61452CEF200028854FFE702B0704752
:1047D00081B000900098816841F008018160FFE796
:1047E000009880680007002801D5FFE7F8E70098E7
:1047F000816841F004018160FFE70098806840070C
:10480000002801D5FFE7F8E701B0704784B00B46F8
:1048100003908DF80B1001929DF80B0001460128C2
:10482000009104D0FFE70098022812D023E00398FB
:10483000C16A21F47001C16201980021CFF6F071C4
:1048400001EB00503FFA80F00399CA6A1043C86236
:1048500012E00398816B21F44011816301980021DB
:10486000CFF6F07101EB005000F4401003998A6B11
:104870001043886300E0FFE704B0704782B0019006
:1048800000910098002806D0FFE70198816841F464
:104890000061816005E00198816821F40061816018
:1048A000FFE702B07047000081B000900098816877
:1048B00041F48071816001B07047000081B00090C8
:1048C00000988068C007002806D1FFE7009881683B
:1048D00041F001018160FFE701B0704782B01346EB
:1048E0008C4601908DF803108DF802209DF802008F
:1048F000002819D0FFE79DF80300C007002806D064
:10490000FFE70198816841F480118160FFE79DF81D
:1049100003008007002806D5FFE70198816841F46D
:1049200000418160FFE718E09DF80300C007002800
:1049300006D0FFE70198816821F480118160FFE7CC
:104940009DF803008007002806D5FFE701988168DD
:1049500021F400418160FFE7FFE702B070470000EB
:1049600084B00B4603908DF80B1001929DF80B005C
:1049700001460128009104D0FFE7009802280BD0DF
:1049800015E00398816821F4602181600198039902
:104990008A68104388600BE00398816821F4E04145
:1049A0008160019803998A681043886000E0FFE7FE
:1049B00004B0704781B0009042F20440C4F201009C
:1049C000016821F4702101600099026811430160BF
:1049D00001B0704780B585B094468E4604908DF83E
:1049E0000F108DF80E2002939DF80F0005281CDC97
:1049F000FFE70498406B01909DF80F0000EB8000EA
:104A00001F2101FA00F0019921EA000001909DF8B0
:104A10000E009DF80F1001EB8101884001990843B9
:104A2000019001980499486348E09DF80F000B2815
:104A30001EDCFFE70498006B01909DF80F0000EB6F
:104A400080001E381F2101FA00F0019921EA0000C0
:104A500001909DF80E009DF80F1001EB81011E39A9
:104A6000884001990843019001980499086324E063
:104A70009DF80F000F281EDCFFE70498C06A019024
:104A80009DF80F0000EB80003C381F2101FA00F078
:104A9000019921EA000001909DF80E009DF80F1089
:104AA00001EB81013C39884001990843019001984C
:104AB0000499C86200E0FFE7FFE7FFE79DF80E00FA
:104AC00009281BDCFFE70498006900909DF80E00A0
:104AD00000EB4000072101FA00F0009921EA0000F4
:104AE000009002989DF80E1001EB4101884000995A
:104AF0000843009000980499086123E09DF80E0097
:104B000011281DDCFFE70498C06800909DF80E0096
:104B100000EB40001E38072101FA00F0009921EA5D
:104B20000000009002989DF80E1001EB41011E3923
:104B3000884000990843009000980499C86000E0FC
:104B4000FFE7FFE705B080BD82B0019000910198BA
:104B5000D0F8801021F44051C0F8801000980199DD
:104B6000D1F880201043C1F8800002B070470000E7
:104B700082B00A4601908DF803109DF80300C0072B
:104B8000002806D0FFE70198816841F48001816028
:104B9000FFE79DF803008007002806D5FFE701988E
:104BA000816841F400118160FFE702B070470000A6
:104BB00083B01346029001918DF803209DF8030005
:104BC000002825D0FFE79DF80500C007002806D083
:104BD000FFE70298416841F480714160FFE79DF86A
:104BE00005004007002806D5FFE70298416841F418
:104BF00080614160FFE79DF804008007002806D52A
:104C0000FFE70298816841F002018160FFE724E03C
:104C10009DF80500C007002806D0FFE7029841680C
:104C200021F480714160FFE79DF8050040070028EE
:104C300006D5FFE70298416821F480614160FFE7F3
:104C40009DF804008007002806D5FFE702988168D8
:104C500021F002018160FFE7FFE703B07047000029
:104C600080B584B00390039846F20041C4F200017D
:104C7000884209D1FFE740F21940029001F0B0F8F4
:104C8000029801F095F808E040F21A40019001F016
:104C9000A7F8019801F08CF8FFE704B080BD000090
:104CA00082B001900020009001984089012101FA12
:104CB00000F0009046F20060C4F20000016841F08C
:104CC00001010160009846F21C61C4F200010A680B
:104CD00022EA000008600198C089002822D1FFE77D
:104CE000009846F20C61C4F200010A6822EA000052
:104CF00008600198C188428842EA0141408946F231
:104D00004062C4F2000242F83010019881880288A3
:104D100042EA0141408946F24462C4F2000242F88C
:104D20003010FFE70198C089012821D1FFE70098E2
:104D300046F20C61C4F200010A6810430860019851
:104D40000188428842EA0141408946F24062C4F249
:104D5000000242F8301001988188C28842EA01417D
:104D6000408946F24462C4F2000242F83010FFE784
:104D70000198808900280AD1FFE7009846F2046173
:104D8000C4F200010A6822EA0000086008E0009806
:104D900046F20461C4F200010A6810430860FFE7AC
:104DA0000198008900280AD1FFE7009846F21461B3
:104DB000C4F200010A6822EA0000086008E00098D6
:104DC00046F21461C4F200010A6810430860FFE76C
:104DD0000198007C012809D1FFE7009846F21C6188
:104DE000C4F200010A6810430860FFE746F2006061
:104DF000C4F20000016821F00101016002B07047B7
:104E000080B586B0059004914FF6FF7003900020A6
:104E10008DF80B000598016821F0020101600598EA
:104E2000016841F001010160FFE705984068002139
:104E3000C0070028019106D1FFE70398002818BF9A
:104E400001200190FFE70198C007002804D0FFE788
:104E5000039801380390E8E705984068C0070028E8
:104E600004D1FFE700208DF80B00B4E0049801782E
:104E70004278837890F803C04FF0F85E0EEA026241
:104E800042EA81711A0442EA831241F60043C0F2F9
:104E90000F031A4011444FEA0C5242EA8C2246F2A8
:104EA0000003C0F270031A401144408901386FF3C7
:104EB0009F2008440599C86104980079012806D10B
:104EC000FFE70598016841F08001016005E0059861
:104ED000016821F080010160FFE704984079012812
:104EE00006D1FFE70598016841F04001016005E047
:104EF0000598016821F040010160FFE7049880797E
:104F0000012806D1FFE70598016841F02001016002
:104F100005E00598016821F020010160FFE7049891
:104F2000C079012806D1FFE70598016821F010013A
:104F3000016005E00598016841F010010160FFE79C
:104F40000498007A012806D1FFE70598016841F02E
:104F50000801016005E00598016821F00801016081
:104F6000FFE70498407A012806D1FFE70598016819
:104F700041F00401016005E00598016821F0040199
:104F80000160FFE70598016821F0010101604FF61B
:104F9000FF700390FFE7059840680021C0070028D4
:104FA000009106D0FFE70398002818BF0120009069
:104FB000FFE70098C007002804D0FFE703980138F6
:104FC0000390E8E70398002804D0FFE701208DF85C
:104FD0000B00FFE7FFE79DF80B0006B080BD000067
:104FE00087B00590049100208DF80F008DF80E0019
:104FF0008DF80D000290009005988068400100280F
:1050000004D5FFE700208DF80F0019E005988068AF
:105010000001002804D5FFE701208DF80F000EE005
:1050200005988068C000002804D5FFE702208DF8AD
:105030000F0003E003208DF80F00FFE7FFE7FFE715
:105040009DF80F00032804D1FFE703208DF81B0013
:105050000DE105989DF80F1000EB0110D0F88011BC
:1050600001F00101C0F880110498007A002810D1E5
:10507000FFE704980168407A40EA415005999DF89D
:105080000F2001EB0211D1F880211043C1F88001FB
:1050900011E004984168027A42EAC101407A08436B
:1050A00005999DF80F2001EB0211D1F880211043E2
:1050B000C1F88001FFE7049890F84B0000282CD13C
:1050C000FFE705989DF80F1000EB0110D0F8841150
:1050D00021F00F01C0F884110498807A05999DF899
:1050E0000F2001EB0211D1F884211043C1F8840193
:1050F0000498D0F80B0005999DF80F2001EB0211E0
:10510000C1F888010498D0F80F0005999DF80F2088
:1051100001EB0211C1F88C0199E00598006A00F0DA
:10512000010002900298002800F08980FFE70498AF
:10513000807A082806D8FFE70498807A0099084307
:10514000009033E000208DF80E00FFE79DF80E0080
:10515000062817D8FFE70498807A9DF80E1046F6C7
:105160005C62C0F60002515C884204D1FFE7012076
:105170008DF80D0006E0FFE79DF80E0001308DF878
:105180000E00E3E79DF80D00012807D1FFE79DF829
:105190000E00093000990843009006E0FFE7FFE7A2
:1051A00001200028FBD1FFE7FFE7FFE7049890F814
:1051B0004B1090F84C2090F84D00520142EA00103C
:1051C00040EAC110009908430090009805999DF8A5
:1051D0000F2001EB0211C1F884010498807A800845
:1051E0008DF80E0004980B3001909DF80E000028F9
:1051F0000AD1FFE70198006805999DF80F2001EB9F
:105200000211C1F8880119E0FFE79DF80E0000289F
:1052100013D0FFE70198006805999DF80F2001EB76
:105220000211C1F88801019804300190FFE79DF850
:105230000E0001388DF80E00E7E7FFE706E0FFE714
:10524000FFE701200028FBD1FFE7FFE7FFE7059814
:105250009DF80F1000EB0110D0F8801141F0010112
:10526000C0F880119DF80F008DF81B00FFE79DF836
:105270001B0007B07047000084B002468DF80F0095
:1052800002919DF80F0001460428009100F2A980C8
:105290000099DFE801F0031E334D780002980021E9
:1052A00041710298C17102988171029840F2FF32F7
:1052B0004281029801720298417002980222827023
:1052C0000298C170029801710298417202980170AF
:1052D0008EE002980121C181029800210174029898
:1052E0000181029801800298418002988180029891
:1052F000C180029881810298418179E0029840F250
:10530000FF318182029800210174029802224274C6
:10531000029801228274029881700298C1600298FA
:1053200042700298017002988160029841605FE0CB
:105330000298002180F84C10029880F84D100298D5
:1053400080F84B108DF80710FFE79DF807003F2805
:105350000DD8FFE702989DF8071008440021C1729C
:10536000FFE79DF8070001308DF80700EDE7029890
:105370000021817202984160029801720298417284
:105380000298016034E00298002180F84D100298E4
:1053900080F84E10029880F84C108DF80710FFE747
:1053A0009DF807003F280DD8FFE702989DF80710E9
:1053B00008440021C172FFE79DF8070001308DF815
:1053C0000700EDE70298002181720298416002987F
:1053D0000172029880F84B100298417202980160A5
:1053E00006E0FFE7FFE701200028FBD1FFE7FFE72A
:1053F00004B0704785B0134604900391ADF80A20BD
:105400000498002827D1FFE703980028019008D0CE
:10541000FFE7019801280CD0FFE70198022810D07F
:1054200017E0BDF80A0047F20841C4F20001086025
:1054300010E0BDF80A0047F20C41C4F20001086018
:1054400008E0BDF80A0047F21041C4F2000108600C
:1054500000E0FFE726E003980028009008D0FFE76F
:10546000009801280CD0FFE70098022810D017E020
:10547000BDF80A0047F21441C4F20001086010E0D0
:10548000BDF80A0047F21841C4F20001086008E0C4
:10549000BDF80A0047F21C41C4F20001086000E0B8
:1054A000FFE7FFE705B0704781B000900098002843
:1054B00009D1FFE747F20440C4F20000016841F05F
:1054C0000101016008E047F20440C4F200000168F5
:1054D00041F002010160FFE701B0704780B584B080
:1054E0000A4603908DF80B1003989DF80B1001925B
:1054F00000F042F9002802D1FFE7FFE7FEE703983A
:105500009DF80B1001EB810100EB8100816821F017
:105510000101816004B080BD80B584B00A4603906B
:105520008DF80B1003989DF80B10019200F024F9F0
:10553000002802D1FFE7FFE7FEE703989DF80B1074
:1055400001EB810100EB8100816841F00101816084
:1055500004B080BD80B584B00A4603908DF80B106E
:1055600003989DF80B10019200F006F9002802D173
:10557000FFE7FFE7FEE703989DF80B1001EB8101C1
:1055800000EB8100816821F02001816004B080BDC2
:1055900080B584B00A4603908DF80B1003989DF8EF
:1055A0000B10019200F0E8F8002802D1FFE7FFE7B6
:1055B000FEE703989DF80B1001EB810100EB8100E1
:1055C000816841F02001816004B080BD83B00B464A
:1055D00002908DF80710009200989DF8071089003E
:1055E000884002994A681043486003B07047000041
:1055F00084B00B4603908DF80B100192039800685D
:1056000001999DF80B2092009140084204D0FFE7D9
:1056100001208DF8030003E000208DF80300FFE770
:105620009DF8030004B0704780B586B00B46059026
:105630008DF81310039205989DF81310019300F054
:105640009BF8002802D1FFE7FFE7FEE70398006818
:1056500005999DF8132002EB820201EB820108619B
:105660000398806805999DF8132002EB820201EBF4
:10567000820148610398008A05999DF8132002EB86
:10568000820201EB8201C86005989DF8131001EBBE
:10569000810100EB810080680290029820F47C5028
:1056A000029003984168C268406911430843029917
:1056B00008430290029805999DF8132002EB82029C
:1056C00001EB820188600398007E01280CD1FFE77E
:1056D00005989DF8131001EB810100EB81008168B2
:1056E00041F0400181600BE005989DF8131001EB3B
:1056F000810100EB8100816821F040018160FFE7BA
:105700000398407E01280CD1FFE705989DF81310FF
:1057100001EB810100EB8100816841F08001816033
:105720000BE005989DF8131001EB810100EB81005F
:10573000816821F080018160FFE70398807E002866
:105740000CD1FFE705989DF8131001EB810100EBE8
:105750008100816821F0100181600BE005989DF8BF
:10576000131001EB810100EB8100816841F0100111
:105770008160FFE706B080BD82B00A4601908DF8D7
:10578000031001208DF80200019840F20041C4F29C
:10579000020188420AD1FFE79DF80300052804DBD7
:1057A000FFE700208DF80200FFE7FFE79DF8020009
:1057B00002B0704780B584B00B4603908DF80B1093
:1057C000019203989DF80B100093FFF7D5FF002876
:1057D00002D1FFE7FFE7FEE7BDF8040003999DF85B
:1057E0000B2002EB820201EB8201C86004B080BD95
:1057F00082B00190009100980199486102B0704711
:1058000082B00190009100980199086102B0704740
:1058100087B00690059104920393002001900090B8
:10582000059800F00F0001909DF81400C0060028B4
:1058300014D5FFE7049804280AD1FFE7019840F047
:105840000300019003980699CA6B1043C86304E0F3
:105850000498019908430190FFE7FFE70020ADF8A5
:105860000A00FFE7BDF80A00072846D8FFE7BDF8A1
:105870000A00039921FA00F0C007002836D0FFE79C
:10588000069800680090BDF80A0080000F2101FA18
:1058900000F0009921EA000000900198BDF80A107C
:1058A00089008840009908430090059828280AD16B
:1058B000FFE7BDF80A00012101FA00F00399084052
:1058C000069948610EE0059848280AD1FFE7BDF81F
:1058D0000A00012101FA00F00399084006990861C5
:1058E000FFE7FFE7009806990860FFE7FFE7BDF8CC
:1058F0000A000130ADF80A00B4E70820ADF80A004C
:10590000FFE7BDF80A000F284AD8FFE7BDF80A00F4
:10591000039921FA00F0C00700283AD0FFE7069863
:1059200040680090BDF80A006FF01F0101EB800095
:105930000F2202FA00F0009A22EA0000009001987B
:10594000BDF80A2001EB82018840009908430090CD
:10595000059828280AD1FFE7BDF80A00012101FABD
:1059600000F003990840069948610EE00598482820
:105970000AD1FFE7BDF80A00012101FA00F00399FE
:10598000084006990861FFE7FFE70098069948601C
:10599000FFE7FFE7BDF80A000130ADF80A00B0E705
:1059A00007B0704783B0019000910198806800991A
:1059B000084204D0FFE701208DF80B0003E000202F
:1059C0008DF80B00FFE79DF80B0003B07047000057
:1059D00080B584B00020039040F20400C2F20000C1
:1059E000006840F64121C0F26861A0FB0112801AF4
:1059F00002EB5000400A0291FEF7E2FB4FF0FF314C
:105A00000222019008461146FEF7C0FEFEF704FB95
:105A1000FFE7FEE780B586B013468C4686468DF8D4
:105A200017008DF816108DF81520002004900390B3
:105A300002904EF60C50CEF20000006800F4E060D8
:105A40000146B0F5407F019127D0FFE70198B0F5FE
:105A5000806F1DD0FFE70198B0F5A06F14D0FFE76D
:105A60000198B0F5C06F0AD0FFE70198B0F5E06F7C
:105A700018D1FFE700200390042002901AE00120D3
:105A800003900320029015E002200390029011E0A1
:105A900003200390012002900CE0042003900020DA
:105AA000029007E04FF4A06000F034F80220039069
:105AB0000290FFE79DF816000399C1F104018840A8
:105AC00004909DF815000299C1F104010F2222FAF9
:105AD00001F10840049908430490049800010490DF
