:020000040800F2
:1000000068190020650100086D0100086F010008F3
:10001000710100087301000875010008000000006C
:100020000000000000000000000000007701000850
:1000300079010008000000007B010008294B00083E
:100040007F0100087F0100087F0100087F01000890
:100050007F0100087F0100087F0100087F01000880
:100060007F0100087F0100087F0100087F01000870
:100070007F0100087F0100087F0100087F01000860
:100080007F0100087F0100087F0100087F01000850
:100090007F0100087F0100087F0100087F01000840
:1000A0007F0100081D4C00087F0100087F01000847
:1000B000454C00087F0100087F0100087F0100080F
:1000C0007F0100087F0100087F0100087F01000810
:1000D0007F0100087F0100087F0100087F01000800
:1000E0007F0100087F0100087F0100087F010008F0
:1000F0007F0100087F0100087F0100080000000068
:100100007F01000800000000AD4D00087F010008DD
:100110007F0100087F0100087F0100087F010008BF
:100120007F0100087F0100087F0100087F010008AF
:100130007F01000800000000000000007F010008AF
:100140007F0100087F0100087F0100087F0100088F
:10015000DFF80CD000F028FA0048004725660008B8
:10016000681900200648804706480047FEE7FEE77A
:10017000FEE7FEE7FEE7FEE7FEE7FEE7FEE7FEE757
:10018000A94B00085101000840EA01039B0703D076
:1001900009E008C9121F08C0042AFAD203E011F8C6
:1001A000013B00F8013B521EF9D2704730B50446BE
:1001B0000020034600E05B1C934203D2E05CCD5C70
:1001C000401BF8D030BD000070B50F4D00B9286855
:1001D000002412E00A4602E09E4203D0521C13782B
:1001E000002BF9D1DAB2224305D02BB124B1002182
:1001F00000F8011B04E00446401C0678002EE9D1FB
:100200002860204670BD0000000000202DE9FE4F50
:10021000804681EA0300C00F0C46009021F00041A7
:1002200023F00045B8EB0200A94105D24046214623
:1002300090461C460B46024623F00040104347D030
:10024000270DC7F30A00C3F30A510290401A019028
:1002500040286BDAC3F3130040F4801B00989246E9
:1002600020B10023D2EB030A63EB0B0B0198594634
:10027000C0F14002504600F009F906460D465046CE
:100280005946019A00F021F910EB08006141002461
:1002900087EA115284EAE7731A4340D0009A62B3A6
:1002A000019A012A4FEA075215DC001B61EB02019B
:1002B0004FF0004202EA0752CDE90042001C41F52E
:1002C000801132462B4600F021F903B0BDE8F08FD3
:1002D00040462146F9E7001B61EB0201001C41F595
:1002E000801300185B412018A2F5001747EB0301AB
:1002F00040EAD570B6196D4111E06D084FEA360637
:1003000045EAC0754FEA0752001B61EB0201001C71
:1003100041F5801149084FEA300000195141324639
:100320002B4603B0BDE8F04F00F0E1B80098012281
:1003300040000023D0EB020263EBE07300982146FB
:100340004FEAE074B8EB000061EB0401E9E783F0E9
:1003500000435BE781F0004158E72DE9F04D81EA69
:10036000030404F0004B21F0004514464FF0000A4E
:1003700023F0004150EA050220D054EA01021DD0CA
:10038000C5F30A570246C5F31303C1F31300C1F3C3
:100390000A5640F4801543F48013A7EB0608101B9F
:1003A000D64608F2FD3873EB050002D308F10108C8
:1003B00001E092185B41B8F1000F03DA002001461A
:1003C000BDE8F08D00204FF48011064684460EE013
:1003D000171B73EB050705D3121B63EB05030643DD
:1003E0004CEA010C49084FEA300092185B4150EA90
:1003F0000107EDD152EA030012D082EA040083EA39
:100400000501084305D0101BAB4106D20122002391
:1004100006E000224FF0004302E06FF001025310AB
:100420001AEB06004CEB085110EB0A0041EB0B01F4
:10043000BDE8F04D00F05BB80EB5C10F80EAE0708A
:100440000844CA07002140F233438DE80E000A46F3
:100450000B4600F05BF803B000BDC1F30A5210B5C3
:10046000C1F3130140F2FF3341F480119A4201DAE3
:10047000002010BD40F233439A42A2F2334203DC23
:10048000524200F012F810BD904010BD202A04DB4B
:10049000203A00FA02F1002070479140C2F1200397
:1004A00020FA03F3194390407047202A04DB203AD6
:1004B00021FA02F00021704721FA02F3D040C2F184
:1004C00020029140084319467047202A06DBCB17CB
:1004D000203A41FA02F043EAE07306E041FA02F3FF
:1004E000D040C2F12002914008431946704710B530
:1004F000141E73F1000408DA401C41F10001921847
:100500005B411A4301D120F0010010BD2DE9F04DEF
:1005100092469B4611B1B1FA81F202E0B0FA80F244
:1005200020329046FFF7B2FF04460F4640EA0A0029
:1005300041EA0B0153465A46084313D0114653EA89
:10054000010019D0C8F140025046FFF7AEFF054642
:100550000E46504659464246FFF798FF084305D0DD
:10056000012004E020463946BDE8F08D0020054317
:1005700046EAE0762C4337430A986305E40AA0EB89
:1005800008000022FD0A44EA47540A3002D5002040
:100590000146E9E7010510196941DDE9084500193F
:1005A0006941BDE8F04DA2E7064C074D06E0E06862
:1005B00040F0010394E8070098471034AC42F6D3AA
:1005C000FFF7CAFD147C0008347C000880B542F2B5
:1005D0000040C4F20100012104F092FFFFE7002077
:1005E000C4F202000021022205F0ACFD002801D176
:1005F000FFE7F4E70020C4F202000021022205F028
:100600008FFD80BD80B582B001900198B0F8A01038
:1006100001600198002141600198017201984172C6
:10062000019890F8A4108172019946F20040C4F23A
:10063000000005F013FA41F20651C2F20001087001
:10064000087801460028009108D0FFE700980128AB
:100650000CD0FFE70098022810D017E041F2F440D8
:10066000C2F200004FF40071016017E041F2F44063
:10067000C2F200004FF4027101600FE041F2F44059
:10068000C2F200004FF40471016007E041F2F4404F
:10069000C2F200004FF400710160FFE7FFE741F292
:1006A000F440C2F20000018846F20040C4F20000AB
:1006B00005F084F8012801D1FFE7F0E741F2F440AA
:1006C000C2F20000018846F20040C4F2000005F0CA
:1006D0005FF802B080BD000070B582B013468C4652
:1006E00001908DF80310ADF80020BDF8000044F62D
:1006F000D351C1F26201A0FB0101890946F2676290
:10070000C6F2666251FB02FE4FEA9E0404EBDE7EF7
:100710000EEB8E0EA1EB4E013031DDF804E09DF8BA
:1007200003400EF80410BDF8001048F21F5EC5F239
:10073000EB1EA1FB0E1E4FEA5E1E5EFB02F4A50837
:1007400005EBD47404EB8404AEEB440E0EF1300ED2
:10075000019C9DF803502C4484F801E0BDF800E0B2
:100760004CF6CD44CCF6CC44AEFB04E5ED0855FB8D
:1007700002F2960806EBD27202EB8202A5EB42026D
:100780003032019D9DF803603544AA70BDF8002009
:10079000A2FB0445ED0805EB8505A2EB450242F0FE
:1007A0003002019D9DF803603544EA7002B070BDCF
:1007B00080B590B000208DF83E0040F20801C2F2F2
:1007C00000010B9101218DF83D104FF400620C9255
:1007D00042F24C42C4F2010209928DF83C004FF4FF
:1007E00000720A9203220D924FF440530E9300239D
:1007F000C4F202030DF1240C08901846DDF820E045
:100800000791714606926246059305F0B7FC05987C
:10081000089905F067FC0598089905F027FC4FF446
:10082000C02004F08FFD42F20040C4F201004FF4FA
:10083000807104900391079A04F082FE02200499CB
:10084000029008460299089A04F07AFE04980899E2
:1008500004F0DCFC0498089904F03EFE0498079923
:10086000069A04F09BFC42F60000C4F201000190DD
:100870000399079A04F064FE01980299089A04F01B
:100880005FFE0198089904F0C1FC0198089904F0F2
:1008900023FE01980799069A04F080FC4FF460202B
:1008A0000499009008460799009A04F021FD0498E5
:1008B0000799079A04F0DAFC01980799009A04F066
:1008C00017FD01980799079A04F0D0FC049808993D
:1008D000089A089B04F046FD04980799029A089B21
:1008E00004F040FD052204980299089B04F03AFDAB
:1008F00001980899079A089B04F034FD019807991C
:10090000069A089B04F02EFD062201980299089B86
:1009100004F028FD049804F099FC049804F020FCED
:10092000019804F093FC019804F01AFC049804F078
:1009300083FC47F20040C4F20000016841F001016D
:10094000016008980899089A05F088FA089805F057
:10095000DFFA10B080BD000080B58EB041F200001B
:10096000C4F2010004214FF400520D900C910C9B35
:100970000B921A460B9B05F0F5FC4FF400400D99C5
:100980000A9008460C990C9A0A9B05F0EBFC40F67D
:100990000040C4F20100022109900C9A089111460E
:1009A000089B05F0DFFC4FF480500999079008463A
:1009B0000C990C9A079B05F0D5FC2020099906900C
:1009C00008460C990C9A069B05F0CCFC4FF480402D
:1009D0000D99059008460C990C9A059B05F0C2FCF0
:1009E00040F60000C4F20100802304900C990C9A98
:1009F00005F0B8FC01200999039008460C990C9A5F
:100A0000039B05F0AFFC09980C990C9A0C9B05F020
:100A1000A9FC09980C990C9A0A9B05F0A3FC4FF4C9
:100A200080600499029008460C990C9A029B05F08C
:100A300099FC4FF480700999019008460C990C9A22
:100A4000019B05F08FFC4FF4007304980C990C9AED
:100A500005F088FC04980C990C9A019B05F082FC27
:100A600009980C990C9A059B05F07CFC09980C9947
:100A70000C9A0B9B05F076FC04980C990C9A039B3E
:100A800005F070FC04980C990C9A089B05F06AFC20
:100A900004980C990C9A0C9B05F064FC08230498AC
:100AA0000C990C9A05F05EFC04980C990C9A069B24
:100AB00005F058FC402304980C990C9A05F052FC60
:100AC000102304980C990C9A05F04CFC09980C9989
:100AD0000C9A029B05F046FC4FF4006009990090C7
:100AE00008460C990C9A009B05F03CFC04980C9964
:100AF0000C9A079B05F036FC04980C990C9A009B05
:100B000005F030FC0EB080BD80B58CB00B9040F28B
:100B1000197005F05FFF46F20040C4F2000001903A
:100B200004F066FD00208DF821008DF823008DF87B
:100B300022008DF824008DF81D0004218DF81E1070
:100B400002218DF81F108DF820008DF825000B98DC
:100B500000798DF81C0007A9019804F08FFE0B990D
:100B60000968FA2900910AD0FFE70098B0F5FA7FEA
:100B700005D0FFE70098B0F57A7F0CD1FFE70B981E
:100B800000684FF47A71414346F20040C4F200001D
:100B900004F034FE0AE046F20040C4F200004EF6D3
:100BA0004801C0F2010104F029FEFFE70020ADF882
:100BB0001200ADF814000121ADF81610ADF80800D0
:100BC000ADF80A00ADF80C00ADF80E000B984079B6
:100BD000ADF810008DF8181002A804F029FD0CB033
:100BE00080BD000080B582B04FF4C06005F0F2FE19
:100BF00040F2026005F0EEFE40F60000C4F2010093
:100C0000482103224FF400630190009205F0AAFBF3
:100C100018214FF480530198009A05F0A3FB02B00D
:100C200080BD000080B590B040F2026005F0D2FEB9
:100C300040F2036005F0CEFE40F2046005F0CAFE0B
:100C400040F2096005F0C6FE40F20A6005F0C2FEFF
:100C50004FF4A06005F0BEFE40F21D7005F0BAFE34
:100C60004FF4C06005F0B6FE40F60040C4F201004B
:100C7000102104224FF400730F900E910D920C93EB
:100C800005F070FB41F20000C4F201004FF4005186
:100C90000B900D9A0A9111460A9B05F063FB4FF4E5
:100CA00000400B99099008460D990D9A099B05F093
:100CB00059FB02200F99089008460D990D9A089B40
:100CC00005F050FB4FF480530F980D990D9A05F0E5
:100CD00049FB20200F99079008460D990D9A079B14
:100CE00005F040FB4FF480400B99069008460E99A2
:100CF0000D9A069B05F036FB40F60000C4F2010099
:100D0000802305900E990D9A05F02CFB01200F9978
:100D1000049008460E990D9A049B05F023FB0F984A
:100D20000E990D9A0D9B05F01DFB0F980E990D9ACB
:100D3000099B05F017FB4FF4806305980E990D9AF7
:100D400005F010FB4FF480700F99039008460E9940
:100D50000D9A039B05F006FB1820059902900846A2
:100D600002990D9A0C9B05F0FDFA059802990D9ACF
:100D7000039B05F0F7FA0F9802990D9A069B05F070
:100D8000F1FA0F9802990D9A0A9B05F0EBFA0020F0
:100D900005990190084601990D9A049B05F0E2FA25
:100DA000059801990D9A089B05F0DCFA05980199C0
:100DB0000D9A0D9B05F0D6FA0823059801990D9A16
:100DC00005F0D0FA059801990D9A079B05F0CAFA2B
:100DD0004023059801990D9A05F0C4FA032205985D
:100DE00001990E9B05F0BEFA10B080BD80B586B0AB
:100DF00001468DF817000020C4F2020001220223F0
:100E000004900391114602921A4605F089F904985C
:100E1000029905F00DF99DF817200498029905F044
:100E200073FA44F60000C4F20000802106F048FD89
:100E30000498029905F01AF9FFE744F60000C4F29D
:100E40000000062106F072FD002802D1FFE700BF76
:100E5000F3E744F60000C4F200000621019006F01A
:100E60004FFD0021019806F02BFD06B080BD00006B
:100E700010B590B00F904FF4A06005F0ABFD40F2BC
:100E8000127005F0A7FD40F2065005F0A3FD00200A
:100E90008DF83A000F9949690A9101218DF83910AE
:100EA0000B9044F60402C4F2000208928DF8380058
:100EB00009900C904FF440530D9340F2000CC4F293
:100EC000020C4FF0020E08AC079060460691714686
:100ED000059222460493CDF80CC0CDF808E00194A9
:100EE00005F04CF90398029905F0FCF80398029973
:100EF00005F0BCF806988DF83A000F9909690A9137
:100F00008DF8390007990B91059A08928DF83810E1
:100F100009910C91049B0D9303980699019A05F091
:100F20002DF90398069905F0BFF80398069905F086
:100F30009DF844F60000C4F20000009006F04EFC5C
:100F40000F980168009806F0CBFB0F984168009855
:100F500006F038FD0F98C168009806F09FFD0F98C5
:100F60008168009806F074FD0098079906F01EFC51
:100F70000098079906F010FD0098079906F0F6FC16
:100F8000009806F045FD3221009806F04DFD402105
:100F9000009806F07FFC8021009806F091FC082163
:100FA000009806F065FD0421009806F01BFD0098EE
:100FB00006F09CFC10B010BD80B582B001468DF8E3
:100FC0000700FFE744F60000C4F2000042F21021DF
:100FD00006F0ACFC002801D0FFE7F3E79DF807001E
:100FE000FFF704FF02B080BD80B582B04FF4C0604F
:100FF00005F0F0FC40F2036005F0ECFC40F6004028
:10100000C4F20100182103224FF480630190009282
:1010100005F0A8F904214FF400630198009A05F047
:10102000A1F902B080BD000010B598B0179040F251
:10103000015005F0CFFC40F20F7005F0CBFC002012
:101040008DF85A0017998968129101218DF859106D
:10105000139043F60C42C4F2000210928DF858002F
:10106000119014904FF44053159340F2004CC4F289
:10107000020C0DF1400E08906046089C0791214635
:10108000069272460593CDF810C0CDF80CE005F03D
:1010900075F80498089905F025F80498089904F063
:1010A000E5FF07988DF85A001799496812918DF855
:1010B000590008991391069A10928DF858101191C1
:1010C0001491059B159304980799039A05F056F817
:1010D00043F60040C4F20000029005F0FDFC09A8B0
:1010E000019005F097FD1798C068099008980A903C
:1010F000179909680B910C90179989690D911799A7
:1011000049690E91179909690F910298019905F0A3
:1011100033FD029805F074FD029805F067FD029812
:1011200005F0D0FC18B010BD80B584B001468DF834
:101130000F0040F20040C4F2020000220290019130
:101140001146009204F074FF9DF80F200298009958
:1011500005F0DAF843F60040C4F20000012105F082
:1011600099FC0298009904F081FF04B080BD000052
:1011700080B584B001468DF80F0040F20040C4F203
:1011800002000122029001911146009204F050FFEA
:101190009DF80F200298009905F0B6F843F600403C
:1011A000C4F20000002105F075FC0298009904F0DB
:1011B0005DFFFFE740F20040C4F20200012102227D
:1011C00004F0C0FF002801D1FFE7F3E740F2004040
:1011D000C4F202000121022204F0A2FF43F6004003
:1011E000C4F20000002105F03DFC04B080BD000009
:1011F00080B50220FFF798FF80BD000080B582B067
:1012000001468DF80700FFE743F60040C4F20000F6
:10121000022105F09BFC002801D1FFE7F4E79DF8CF
:101220000700FFF7A5FF02B080BD000080B584B0C5
:101230004FF4C06005F0CEFB40F2036005F0CAFB3E
:1012400040F2026005F0C6FB40F60040C4F2010027
:1012500018210322102303900291019205F082F8D5
:10126000042020230399009008460099019A05F074
:1012700079F8082303980099019A05F073F840F66D
:101280000000C4F201004FF400430299019A05F0F6
:1012900069F840F20020C0F23000012105F042F967
:1012A00004B080BD80B592B0119011981090119843
:1012B00040080F9040F20B6005F08CFB42F60040B6
:1012C000C4F20100039006F029F810980D90002058
:1012D000ADF82C00ADF83800ADF82E00ADF83000B8
:1012E000FF218DF83A100BA9039A0290104606F0E0
:1012F00015F90120ADF820000421ADF82210029963
:10130000ADF82410ADF82610ADF82810ADF82A106D
:1013100008AA039B01901846009205F09DFD0398D2
:101320000199009A05F098FD03980299029A05F038
:10133000B1FF03980299029A05F04EFD03980199B6
:10134000029A05F0A7FF03980199029A05F044FD5F
:101350000F9A0398029905F031FF602203980299D1
:1013600005F0E4FE03980299029A05F04BFF0F9AEC
:101370000398019905F022FF70220398019905F066
:10138000D5FE03980199029A05F03CFF1520ADF8AF
:1013900014000298ADF81600ADF81000ADF8120078
:1013A0004FF48041ADF81810ADF81A00ADF81C00EC
:1013B00004A9039805F0FAFC19200221029A05F00D
:1013C00053F90398019906F03FF9039806F09CF849
:1013D00012B080BD80B58AB00990099808904FF48A
:1013E000E06005F0F7FA4FF08040039005F096FFBB
:1013F000089806900020ADF81000ADF81C00ADF87C
:101400001200ADF814008DF81E0004A9039A029092
:10141000104606F083F81C2001210191029A05F084
:1014200023F90398019906F00FF90398019906F042
:101430003FF9039805F0B0FC039806F065F80AB090
:1014400080BD000080B590B00F900F980E900F985F
:1014500040080D9040F2037005F0BCFA40F60040E1
:10146000C4F20000019005F059FF0E980B90002087
:10147000ADF82400ADF83000ADF82600ADF8280036
:10148000FF208DF8320009A9019806F047F80121E4
:10149000019806F0D9F8322003F008FE019806F012
:1014A00033F810B080BD000080B586B001468DF8DD
:1014B00017000020C4F20200042204900391114698
:1014C000029204F0B5FD9DF817200498029904F0EB
:1014D0001BFF43F60000C4F20100402106F0DAF9D8
:1014E0000498029904F0C2FDFFE70020C4F2020054
:1014F0000421022204F026FE0021002801910DD1D2
:10150000FFE743F60000C4F2010042F20B2106F0AF
:101510000DFAB0FA80F040090190FFE70198C0078A
:10152000002802D0FFE700BFDFE743F60000C4F267
:10153000010042F20B21009006F0E2F90021009830
:1015400006F0A8F906B080BD80B586B001468DF8DA
:1015500017000020C4F2020003220223049003912A
:10156000114602921A4604F0DBFD0498029904F039
:101570005FFD9DF817200498029904F0C5FE43F61C
:101580000000C4F20100802106F09AF90498029943
:1015900004F06CFDFFE743F60000C4F201000621F1
:1015A00006F0C4F9002802D1FFE700BFF3E743F6D5
:1015B0000000C4F201000621019006F0A1F900210B
:1015C000019806F07DF906B080BD000010B592B01C
:1015D00011904FF4A06005F0FDF940F20E6005F0A7
:1015E000F9F940F2065005F0F5F900208DF84200B7
:1015F000119949690C9101218DF841100D9043F624
:101600000402C4F201020A928DF840000B900E9081
:101610004FF440530F9340F2000CC4F2020C4FF011
:10162000040E0AAC09906046089171460792224662
:101630000693CDF814C0CDF810E0039404F09EFD9D
:101640000598049904F04EFD0598049904F00EFDE8
:1016500008988DF84200119909690C918DF84100A4
:1016600009990D91079A0A928DF840100B910E91ED
:10167000069B0F934FF0030C05986146039ACDF833
:1016800008C004F07BFD0598029904F00DFD059853
:10169000029904F0EBFC43F60000C4F20100019053
:1016A00006F09CF811980168019806F019F8119855
:1016B0004168019806F086F91198C168019806F012
:1016C000EDF911988168019806F0C2F9019809991D
:1016D00006F06CF80198099906F05EF901980999ED
:1016E00006F044F91421019806F09EF9019806F0DD
:1016F0008FF94021019806F0CDF88021019806F07D
:10170000DFF80821019806F0B3F90198049906F072
:1017100069F9019806F0EAF812B010BD80B5FFE74C
:1017200043F60000C4F2010042F2102106F0FEF878
:10173000002801D0FFE7F3E73220FFF7B5FE80BDB8
:1017400080B582B001468DF80700FFE743F6000040
:10175000C4F2010042F2102106F0E8F8002801D09E
:10176000FFE7F3E79DF80700FFF7EEFE02B080BD4C
:1017700080B582B04FF4C06005F02CF940F20360F0
:1017800005F028F90420C4F20100016841F00401C9
:10179000016040F60040C4F20100182103224023FA
:1017A0000190009204F0DEFD042180230198009A4C
:1017B00004F0D8FD02B080BD2DE9F04FC9B0002083
:1017C0008DF823018DF82201ADF8200140F20510BB
:1017D000C2F2000090F86500002803F02680FFE7C1
:1017E00040F20510C2F20000002180F865101C21B3
:1017F0004790084603F05AFC41F20750C2F200003D
:10180000322246904799FEF7BFFC47F61E31C0F6DC
:101810000001469A45901046FEF7D6FC41F2585119
:10182000C2F200010860086847F63E31C0F60001C8
:101830000322FEF7BBFC002809D0FFE741F2075066
:10184000C2F200000078102840F0AD82FFE747F6B2
:101850001E31C0F600010020FEF7B6FC41F25851DF
:10186000C2F2000108600868008844F64F618842AF
:1018700008D0FFE741F20750C2F200004078052887
:101880004ED1FFE742F60040C4F2010000210122E0
:1018900044904391429205F0FDFC0420449941900C
:1018A00008464399419A05F097FA44984299429A1A
:1018B00005F0F0FC44984299419A05F08DFA41F206
:1018C0005850C2F200000068008844F64F61884218
:1018D0001AD1FFE740F20510C2F2000045F2524172
:1018E000C0F60D21C0F8391045F25341C5F241212F
:1018F000C0F8361045F25071C2F24D01C0F83210F6
:101900000B20FFF71DFF0AE040F20510C2F20000B5
:10191000AC2180F832100120FFF712FFFFE740E210
:1019200041F25850C2F20000006847F62B31C0F671
:1019300000010322FEF73AFC002808D0FFE741F23D
:101940000750C2F2000040780A284ED1FFE742F665
:101950000040C4F20100002140903F913F9A05F001
:1019600099FC40983F993F9A05F036FA012040993A
:101970003E9008463E993F9A05F08CFC40983E996F
:101980003F9A05F029FA41F25850C2F2000000686F
:1019900047F62B31C0F600010322FEF707FC0028B2
:1019A00017D1FFE740F20510C2F2000040F60D210A
:1019B000418745F25341C5F24F01C0F8361045F258
:1019C0005071C2F24D01C0F832100A20FFF7B8FE84
:1019D0000AE040F20510C2F20000AC2180F832109B
:1019E0000120FFF7ADFEFFE7DAE141F25850C2F205
:1019F00000000068006845F24621C5F245118842A2
:101A000009D0FFE741F20750C2F200004078FC28FD
:101A100040F08780FFE741F25850C2F200000068B2
:101A2000006845F24621C5F2451188424AD1FFE7D8
:101A300047F61E31C0F600010020FEF7C5FB41F25B
:101A40005851C2F200010860086803F011F8FEF76F
:101A5000F3FC41EC100B9FEDEA1B51EC110B53EC26
:101A6000102BFEF77AFC41EC100B51EC100B9FEDA4
:101A7000E60B53EC102BFEF7C9FB41EC100B51ECBD
:101A8000100BFEF7EAFCFFF70DFC40F20510C2F266
:101A9000000040F60D21C18745F24141C4F24541A5
:101AA000C0F83A1045F22051C4F25041C0F8361047
:101AB00045F24621C5F24511C0F832100E20FFF75D
:101AC0003FFE2DE041F20750C2F200008078FEF7A1
:101AD000B3FC41EC100B9FEDCA1B51EC110B53EC06
:101AE000102BFEF73AFC41EC100B51EC100B9FED64
:101AF000C60B53EC102BFEF789FB41EC100B51EC9D
:101B0000100BFEF7AAFCFFF7CDFB40F20510C2F266
:101B10000000AC2180F832100120FFF711FEFFE732
:101B20003DE141F25850C2F200000068008845F2E1
:101B30004441884208D0FFE741F20750C2F200005A
:101B40004078D1285FD1FFE741F25850C2F200003F
:101B50000068008845F24441884238D1FFE747F6E3
:101B60001E31C0F600010020FEF72EFB41F2585155
:101B7000C2F20001086042F64440C4F2010002686B
:101B800022F0FF02026009683D90084602F070FFF3
:101B9000C0B23D990A681043086040F20510C2F2D5
:101BA000000044F24542C0F60D22C0F83A2044F24B
:101BB0005042C5F24142C0F8362045F24442C5F2D7
:101BC0002052C0F832200C20FFF7BAFD1AE042F68E
:101BD0004440C4F20100016821F0FF01016041F2BC
:101BE0000751C2F20001897802681143016040F296
:101BF0000510C2F20000AC2180F832100120FFF77E
:101C00009FFDFFE7CAE041F25850C2F200000068B1
:101C1000008844F24431884209D0FFE741F207507E
:101C2000C2F200004078DC2840F0B780FFE741F2C4
:101C30005850C2F200000068008844F244318842E3
:101C40006BD1FFE747F61E31C0F600010020FEF71A
:101C5000BBFA41F25851C2F20001086042F62C4032
:101C6000C4F2010090ED000AB8EE400A0A683C9008
:101C700010463B918DED3A0A02F0FAFE00EE100A92
:101C8000B8EEC00A9FED621A80EE010A9DED3A2A75
:101C900022EE000ABCEEC00A42F63440C4F2010053
:101CA00080ED000A3C9890ED000AB8EE400A3B999E
:101CB00008688DED391A8DED380A02F0D9FE00EE74
:101CC000100AB8EEC00A9DED391A80EE010A9DEDAA
:101CD000382A22EE000ABCEEC00A42F63840C4F2AE
:101CE000010080ED000A40F20510C2F2000044F24B
:101CF0004541C0F60D21C0F83A1044F25041C5F2FA
:101D00004141C0F8361044F24431C5F22051C0F8C8
:101D100032100C20FFF714FD3EE042F62C40C4F2D6
:101D2000010090ED000AB8EE400A41F20751C2F2FC
:101D300000018A7801EE102AB8EEC11A9FED342A0C
:101D400081EE021A20EE010ABCEEC00A42F63442CD
:101D5000C4F2010282ED000A90ED000AB8EE400ADA
:101D6000887801EE100AB8EEC11A81EE021A20EE50
:101D7000010ABCEEC00A42F63840C4F2010080ED10
:101D8000000A40F20510C2F20000AC2180F83210C7
:101D90000120FFF7D5FCFFE7FFE7FFE7FFE7FFE7DD
:101DA000FFE702F026BD41F25850C2F20000006881
:101DB00047F62731C0F600010322FEF7F7F90028A5
:101DC00009D0FFE741F20750C2F200000078AD28C9
:101DD00040F03A83FFE747F61E31C0F600010020CD
:101DE000FEF7F2F941F25851C2F2000108600868AA
:101DF000006844F25251C4F24141884213D009E0D4
:101E000000000000004CFD40000000000000F0BF9A
:101E10000000C84241F20750C2F200004078FD289D
:101E200040F0A181FFE700208DF82301FFE79DF836
:101E3000230109282ADCFFE7FEF7C8FB00208DF804
:101E40002201FFE79DF82201052818DCFFE79DF835
:101E5000220140F20801C2F2000131F8101041F2F3
:101E60003C52C2F2000252F82030194442F82010CD
:101E7000FFE79DF8220101308DF82201E2E7FFE73C
:101E80009DF8230101308DF82301D0E741F258502D
:101E9000C2F200000068006844F25251C4F24141AD
:101EA000884240F0C380FFE740F20510C2F2000014
:101EB00044F24921C5F2553140F8321F42F23A014D
:101EC000818041F23C52C2F2000213684CF6CD4CC4
:101ED000CCF6CC4CA3FB0C3ECEF3CF0E06243790B1
:101EE0003691214635927246CDF8D0C03393329464
:101EF000FEF7F2FB0D20379988720A22CA720C2372
:101F00003190184630922F93FFF71AFC3698379984
:101F1000888044F25612C4F643420A60359A5368E8
:101F2000DDF8D0C0A3FB0C3ECEF3CF0208463299B9
:101F30002E93FEF7D1FB319837998872309ACA7286
:101F40002F98FFF7FDFB44F64940C2F23A0037995B
:101F5000086035988268349BA2FB032CCCF3CF0C2D
:101F6000042137982D926246FEF7B6FB31983799D7
:101F70000872309A4A721046FFF7E2FB369837999A
:101F8000888044F25452C5F24D020A60359AD368F3
:101F9000DDF8D0C0A3FB0C3ECEF3CF020846329949
:101FA0002C93FEF799FB319837998872309ACA7250
:101FB0002F98FFF7C5FB36983799888044F2561260
:101FC000C4F643520A60359A1369DDF8D0C0A3FB0A
:101FD0000C3ECEF3CF02084632992B93FEF77CFBE2
:101FE000319837998872309ACA722F98FFF7A8FBF8
:101FF00036983799888044F25622C5F255320A60E5
:10200000359A5369DDF8D0C0A3FB0C3ECEF3CF0266
:10201000084632992A93FEF75FFB31983799887208
:10202000309ACA722F98FFF78BFB82E041F23C5046
:10203000C2F2000001684CF6CD42CCF6CC42A1FBC6
:102040000213DB0A40F2051CC2F2000C8CF832309D
:102050000368A3FB023E4FEADE0E8CF833E04FF03C
:10206000200E8CF834E04468A4FB0245ED0A8CF89D
:1020700035504568A5FB0256F6088CF836608CF89A
:1020800037E08668A6FB0267FF0A8CF8387087681D
:10209000A7FB02784FEAD8088CF839808CF83AE030
:1020A000D0F80C80A8FB02894FEAD9298CF83B9024
:1020B000D0F80C90A9FB029A4FEADA0A8CF83CA0FF
:1020C0008CF83DE0D0F810A0AAFB02AB4FEADB2B66
:1020D0008CF83EB0D0F810B02990ABFB02B0C0082D
:1020E0008CF83F008CF840E02998D0F814E0AEFB63
:1020F00002E0C00A8CF8410029984069A0FB020266
:10210000D2088CF84220112228901046279126935D
:102110002594249523962297CDF88480CDF880903D
:10212000CDF87CA0CDF878B0CDF874E0FFF708FBCF
:10213000FFE700208DF82201FFE79DF82201052826
:1021400010DCFFE79DF8220141F23C51C2F2000190
:10215000002241F82020FFE79DF8220101308DF890
:102160002201EAE76EE141F25850C2F20000006835
:1021700047F64E31C0F600010722FEF717F8002897
:1021800009D0FFE741F20750C2F2000040785A2818
:1021900040F05781FFE741F25850C2F2000000685A
:1021A00047F64E31C0F600010722FDF7FFFF002879
:1021B00040F0D180FFE747F61E31C0F60001002055
:1021C0001C90FEF701F841F25851C2F2000108607C
:1021D000086802F04DFC41F25C51C2F20001088037
:1021E0001C988DF82301FFE79DF8230141F25C5113
:1021F000C2F200010988884280F2AC80FFE7FEF756
:10220000E5F940F20510C2F2000044F24921C5F29E
:10221000553140F8321F42F23A01818040F2080203
:10222000C2F2000213884FF0060C1B901A9161460F
:1022300019921A46CDF860C0FEF74EFA0D201B9990
:1022400088720A22CA720C231790184616921593A8
:10225000FFF776FA1A981B99888044F25612C4F652
:1022600043420A60199A528808461899FEF734FAD0
:1022700017981B998872169ACA721598FFF760FA18
:1022800044F64940C2F23A001B99086019988288C6
:1022900004211B98FEF720FA17981B990872169ACA
:1022A0004A721046FFF74CFA1A981B99888044F23C
:1022B0005452C5F24D020A60199AD28808461899FC
:1022C000FEF70AFA17981B998872169ACA7215981F
:1022D000FFF736FA1A981B99888044F25612C4F612
:1022E00043520A60199A128908461899FEF7F4F9C0
:1022F00017981B998872169ACA721598FFF720FAD8
:102300001A981B99888044F25622C5F255320A6009
:10231000199A528908461899FEF7DEF917981B9901
:102320008872169ACA721598FFF70AFA42F62D506B
:10233000C0F60D201B9988604FF02D304860086072
:102340001598FFF7FDF9FFE79DF8230101308DF89F
:10235000230149E774E040F60040C4F2010018216F
:102360000322202303F0FEFF41F20750C2F20000D7
:102370008178C07840EA012041F25C51C2F200014C
:10238000088041F2FA40C2F2000000210180FFE71C
:1023900041F2FA40C2F20000008841F25C51C2F200
:1023A00000010988884232DAFFE7FEF70FF940F2B0
:1023B0000800C2F20000417840F2EA02C2F20002D4
:1023C000D17101881172C17851724188917241793D
:1023D000D17281881173C1795173C1889173417A27
:1023E000D17301891174C17A5174408990740020AD
:1023F000D074212010750E20FEF700FFFFE741F298
:10240000FA40C2F20000018801310180C0E741F2C8
:10241000FA40C2F20000008841F25C51C2F20001B1
:10242000098888420BDBFFE740F60040C4F2010058
:10243000042120231491149A03F094FFFFE7FFE78F
:10244000FFE7FFE702F0D4B941F25850C2F20000B2
:10245000006847F62331C0F600010322FDF7A6FE0F
:10246000002808D0FFE741F20750C2F200000078D0
:10247000DC287CD1FFE741F25850C2F2000000682E
:1024800047F62331C0F600010322FDF78FFE002836
:1024900036D1FFE747F61E31C0F600010020139049
:1024A000FDF792FE41F25851C2F20001086008683F
:1024B00002F0DEFA139912900846129A03F0CEFC4D
:1024C000139803F025FD40F20510C2F200000A2126
:1024D00080F83E1044F25451C0F64451C0F83A100E
:1024E00045F25501C4F24411C0F8361044F24411CB
:1024F000C2F24301C0F832100D20FFF721F934E099
:1025000040F2BC00C2F200000121017041F207500C
:10251000C2F200004278837843EA022241F2045377
:10252000C2F200031A804278807840EA022200203A
:102530001190119B1091194603F090FC119803F033
:10254000E7FC40F60040C4F20100182103222023DA
:1025500003F008FF40F20510C2F20000AC2180F841
:1025600032101098FFF7ECF8FFE702F040B941F2A3
:102570005850C2F200000068006845F24701C4F6F6
:102580004971884209D0FFE741F20750C2F20000CA
:1025900000786F2842F04380FFE747F61E31C0F60F
:1025A00000010020FDF710FE41F25851C2F2000177
:1025B00008600868006844F25251C4F24141884200
:1025C00009D0FFE741F20750C2F2000040787D28B1
:1025D00040F00682FFE741F25850C2F20000006866
:1025E000006844F25251C4F24141884240F04D81AA
:1025F000FFE741F20000C4F201004FF4005103F084
:102600007BFF01281DD1FFE740F20510C2F2000058
:102610000A2180F83E1044F24971C0F64851C0F8D2
:102620003A1043F64521C4F62001C0F8361045F2B1
:102630005341C5F24141C0F832100D20FFF780F838
:1026400019E040F20510C2F2000045F24F71C0F6E9
:102650000D21C0F83A1043F64521C4F62041C0F8D8
:10266000361045F25341C5F24141C0F832100C20FA
:10267000FFF766F8FFE741F20000C4F201004FF4F3
:10268000004103F039FF01281DD1FFE740F205109A
:10269000C2F2000040F60D21C18744F64811C4F68D
:1026A0004701C0F83A1044F24C51C2F23A01C0F866
:1026B000361044F64561C4F24121C0F832100E20B4
:1026C000FFF73EF81CE040F20510C2F200000A21BC
:1026D00080F83E1044F64C71C0F65751C0F83A10DD
:1026E00044F24C51C2F23A01C0F8361044F645614A
:1026F000C4F24121C0F832100D20FFF721F8FFE7A6
:1027000040F60040C4F20100022103F0F5FE01286A
:102710001DD1FFE740F20510C2F200000A2180F847
:102720003E1044F24971C0F64851C0F83A1043F6E1
:102730004B21C4F62001C0F8361044F25741C4F6CC
:102740005F71C0F832100D20FEF7FAFF19E040F279
:102750000510C2F2000045F24F71C0F60D21C0F81D
:102760003A1043F64B21C4F62041C0F8361044F22B
:102770005741C4F65F71C0F832100C20FEF7E0FF3D
:10278000FFE740F60040C4F201004FF4805103F02F
:10279000B3FE01281AD1FFE740F20510C2F2000093
:1027A00044F64701C0F60D21C0F8391044F6200167
:1027B000C4F24971C0F8361044F24F31C3F65021CB
:1027C000C0F832100B20FEF7BBFF16E040F20510F8
:1027D000C2F2000040F60D21418744F62041C5F2C7
:1027E0004F71C0F8361044F24F31C3F65021C0F893
:1027F00032100A20FEF7A4FFFFE740F60040C4F2C3
:102800000100202103F078FE012820D1FFE740F2EB
:102810000510C2F2000044F64701C0F60D21C0F8D1
:102820003D1044F62001C4F24971C0F83A1044F654
:102830005F11C3F64E21C0F8361045F65311C4F2AD
:102840004E31C0F832100E20FEF77AFF1CE040F245
:102850000510C2F2000040F60D21C18744F6204168
:10286000C5F24F71C0F83A1044F65F11C3F64E211D
:10287000C0F8361045F65311C4F24E31C0F832108C
:102880000D20FEF75DFFFFE7A8E040F20510C2F261
:102890000000002180F8321041F20000C4F2010073
:1028A0004FF4005103F028FE01280BD1FFE740F25E
:1028B0000510C2F2000090F832104900013180F892
:1028C000321009E040F20510C2F2000090F8321018
:1028D000490080F83210FFE741F20000C4F2010025
:1028E0004FF4004103F008FE01280BD1FFE740F24E
:1028F0000510C2F2000090F832104900013180F852
:10290000321009E040F20510C2F2000090F83210D7
:10291000490080F83210FFE740F60040C4F20100A1
:10292000022103F0E9FD01280BD1FFE740F2051079
:10293000C2F2000090F832104900013180F83210E4
:1029400009E040F20510C2F2000090F83210490090
:1029500080F83210FFE740F60040C4F201004FF467
:10296000805103F0C9FD01280BD1FFE740F20510AB
:10297000C2F2000090F832104900013180F83210A4
:1029800009E040F20510C2F2000090F83210490050
:1029900080F83210FFE740F60040C4F20100202129
:1029A00003F0AAFD01280BD1FFE740F20510C2F2A7
:1029B000000090F832104900013180F8321009E02F
:1029C00040F20510C2F2000090F83210490080F881
:1029D0003210FFE70120FEF7B3FEFFE701F01EBE55
:1029E00041F25850C2F20000006847F62F31C0F69D
:1029F00000010722FDF7DAFB002809D0FFE741F2CA
:102A00000750C2F2000040787F2841F0C082FFE703
:102A1000FDF7A2FF41F25850C2F20000006847F6ED
:102A20002F31C0F600010722FDF7C0FB002840F05F
:102A30003E87FFE741F20000C4F201004FF400516D
:102A400003F05AFD01281DD1FFE740F20510C2F244
:102A500000000A2180F83E1044F24971C0F6485146
:102A6000C0F83A1043F64521C4F62001C0F83610EC
:102A700045F25341C5F24141C0F832100D20FEF736
:102A80005FFE19E040F20510C2F2000045F24F71FE
:102A9000C0F60D21C0F83A1043F64521C4F6204196
:102AA000C0F8361045F25341C5F24141C0F832102A
:102AB0000C20FEF745FEFFE741F20000C4F20100E2
:102AC0004FF4804103F018FD01281DD1FFE740F2CB
:102AD0000510C2F200000A2180F83E1044F249714C
:102AE000C0F64851C0F83A1043F64D21C4F6200113
:102AF000C0F8361044F64141C5F24121C0F8321009
:102B00000D20FEF71DFE19E040F20510C2F2000094
:102B100045F24F71C0F60D21C0F83A1043F64D2131
:102B2000C4F62041C0F8361044F64141C5F24121B7
:102B3000C0F832100C20FEF703FEFFE741F2000060
:102B4000C4F201004FF4004103F0D6FC01281DD16E
:102B5000FFE740F20510C2F2000040F60D21C187E8
:102B600044F64811C4F64701C0F83A1044F24C51FB
:102B7000C2F23A01C0F8361044F64561C4F2412170
:102B8000C0F832100E20FEF7DBFD1CE040F205100D
:102B9000C2F200000A2180F83E1044F64C71C0F6E3
:102BA0005751C0F83A1044F24C51C2F23A01C0F801
:102BB000361044F64561C4F24121C0F832100D20B0
:102BC000FEF7BEFDFFE740F60000C4F20100012160
:102BD00003F092FC01281AD1FFE740F20510C2F27F
:102BE000000044F64701C0F60D21C0F83A1042F249
:102BF0003A01C4F64811C0F8361044F24921C5F232
:102C00005531C0F832100C20FEF79AFD19E040F261
:102C10000510C2F2000045F24F71C0F60D21C0F858
:102C2000391042F23A01C4F64C71C0F8361044F241
:102C30004921C5F25531C0F832100B20FEF780FD56
:102C4000FFE740F60000C4F20100022103F054FC4B
:102C500001281AD1FFE740F20510C2F2000044F645
:102C60004701C0F60D21C0F83A1042F23A01C4F60D
:102C70004811C0F8361044F25611C4F64341C0F86A
:102C800032100C20FEF75CFD19E040F20510C2F294
:102C9000000045F24F71C0F60D21C0F8391042F224
:102CA0003A01C4F64C71C0F8361044F25611C4F61D
:102CB0004341C0F832100B20FEF742FDFFE740F61B
:102CC0000000C4F20100042103F016FC012817D112
:102CD000FFE740F20510C2F2000040F60D214187E7
:102CE00044F64811C4F64701C0F8361044F649418D
:102CF000C2F23A01C0F832100A20FEF721FD16E0B8
:102D000040F20510C2F200000A2180F83A1044F6A1
:102D10004C71C0F65751C0F8361044F64941C2F222
:102D20003A01C0F832100920FEF70AFDFFE740F62D
:102D30000000C4F20100082103F0DEFB01281AD1D3
:102D4000FFE740F20510C2F2000044F64701C0F66A
:102D50000D21C0F83A1042F23A01C4F64811C0F809
:102D6000361044F25451C5F24D01C0F832100C2017
:102D7000FEF7E6FC19E040F20510C2F2000045F251
:102D80004F71C0F60D21C0F8391042F23A01C4F675
:102D90004C71C0F8361044F25451C5F24D01C0F8E0
:102DA00032100B20FEF7CCFCFFE740F60000C4F227
:102DB0000100102103F0A0FB01281DD1FFE740F224
:102DC0000510C2F2000040F60D21C18744F64811FB
:102DD000C4F64701C0F83A1044F65401C2F23A0171
:102DE000C0F8361044F24F31C5F65071C0F83210B9
:102DF0000E20FEF7A5FC1CE040F20510C2F2000018
:102E00000A2180F83E1044F64C71C0F65751C0F8C4
:102E10003A1044F65401C2F23A01C0F8361044F2B6
:102E20004F31C5F65071C0F832100D20FEF788FC06
:102E3000FFE740F60000C4F20100202103F05CFB34
:102E400001281AD1FFE740F20510C2F2000044F653
:102E50004701C0F60D21C0F83A1042F23A01C4F61B
:102E60004811C0F8361044F25611C4F64361C0F858
:102E700032100C20FEF764FC19E040F20510C2F29B
:102E8000000045F24F71C0F60D21C0F8391042F232
:102E90003A01C4F64C71C0F8361044F25611C4F62B
:102EA0004361C0F832100B20FEF74AFCFFE740F602
:102EB0000000C4F20100402103F01EFB01281AD1DA
:102EC000FFE740F20510C2F2000044F64701C0F6E9
:102ED0000D21C0F83A1042F23A01C4F64811C0F888
:102EE000361044F25621C5F25531C0F832100C208C
:102EF000FEF726FC19E040F20510C2F2000045F290
:102F00004F71C0F60D21C0F8391042F23A01C4F6F3
:102F10004C71C0F8361044F25621C5F25531C0F854
:102F200032100B20FEF70CFCFFE740F60000C4F265
:102F30000100802103F0E0FA01281DD1FFE740F2F3
:102F40000510C2F200000A2180F83E1044F24971D7
:102F5000C0F64851C0F83A1043F65921C4F6200192
:102F6000C0F8361044F25251C4F24C11C0F832107D
:102F70000D20FEF7E5FB19E040F20510C2F200005B
:102F800045F24F71C0F60D21C0F83A1043F65921B1
:102F9000C4F62041C0F8361044F25251C4F24C112C
:102FA000C0F832100C20FEF7CBFBFFE740F60040E4
:102FB000C4F20100012103F09FFA012817D1FFE7B5
:102FC00040F20510C2F2000040F60D21418744F6A0
:102FD0004811C4F64701C0F8361044F25741C2F216
:102FE0003A01C0F832100A20FEF7AAFB16E040F2C0
:102FF0000510C2F200000A2180F83A1044F64C7124
:10300000C0F65751C0F8361044F25741C2F23A01A7
:10301000C0F832100920FEF793FBFFE740F60040AE
:10302000C4F20100022103F067FA01281DD1FFE775
:1030300040F20510C2F200000A2180F83E1044F26E
:103040004971C0F64851C0F83A1043F64B21C4F616
:103050002001C0F8361044F25741C4F65F71C0F841
:1030600032100D20FEF76CFB19E040F20510C2F2A1
:10307000000045F24F71C0F60D21C0F83A1043F63A
:103080004B21C4F62041C0F8361044F25741C4F633
:103090005F71C0F832100C20FEF752FBFFE740F6DC
:1030A0000040C4F20100042103F026FA012820D1D7
:1030B000FFE740F20510C2F2000044F64701C0F6F7
:1030C0000D21C0F83E1042F23A01C4F64811C0F892
:1030D0003A1045F65471C4F24451C0F8361045F226
:1030E0005531C5F24121C0F832101020FEF728FBFF
:1030F0001FE040F20510C2F2000045F24F71C0F629
:103100000D21C0F83D1042F23A01C4F64C71C0F8EE
:103110003A1045F65471C4F24451C0F8361045F2E5
:103120005531C5F24121C0F832100F20FEF708FBDF
:10313000FFE740F60040C4F201004FF4806103F065
:10314000DBF9012820D1FFE740F20510C2F20000B0
:1031500044F64701C0F60D21C0F83E1042F23A0194
:10316000C4F64811C0F83A1045F65471C5F654013A
:10317000C0F8361045F25531C5F24121C0F8321081
:103180001020FEF7DDFA1FE040F20510C2F2000049
:1031900045F24F71C0F60D21C0F83D1042F23A01E0
:1031A000C4F64C71C0F83A1045F65471C5F6540196
:1031B000C0F8361045F25531C5F24121C0F8321041
:1031C0000F20FEF7BDFAFFE740F60040C4F2010011
:1031D0004FF4006103F090F9012820D1FFE740F29D
:1031E0000510C2F2000044F64701C0F60D21C0F8F8
:1031F0003E1042F23A01C4F64811C0F83A1045F6C2
:103200005471C5F65201C0F8361045F25531C5F279
:103210004121C0F832101020FEF792FA1FE040F270
:103220000510C2F2000045F24F71C0F60D21C0F842
:103230003D1042F23A01C4F64C71C0F83A1045F61E
:103240005471C5F65201C0F8361045F25531C5F239
:103250004121C0F832100F20FEF772FAFFE740F666
:103260000040C4F201004FF4805103F045F90128F9
:103270001AD1FFE740F20510C2F2000040F64851B3
:10328000C0F20A01C0F83A1044F62001C4F24971B4
:10329000C0F8361044F24F31C3F65021C0F8321056
:1032A0000C20FEF74DFA17E040F20510C2F20000C4
:1032B00040F60D21C0F83A1044F62041C5F24F7196
:1032C000C0F8361044F24F31C3F65021C0F8321026
:1032D0000B20FEF735FAFFE740F60040C4F201008C
:1032E0004FF4005103F008F901281DD1FFE740F227
:1032F0000510C2F2000040F60D21C18744F64811C6
:10330000C4F64701C0F83A1044F65301C2F23A013C
:10331000C0F8361045F25071C5F64D71C0F8321044
:103320000E20FEF70DFA1CE040F20510C2F200007C
:103330000A2180F83E1044F64C71C0F65751C0F88F
:103340003A1044F65301C2F23A01C0F8361045F281
:103350005071C5F64D71C0F832100D20FEF7F0F92E
:10336000FFE740F60040C4F201004FF4804103F053
:10337000C3F801281DD1FFE740F20510C2F200009A
:1033800040F60D21C18744F64811C4F64701C0F844
:103390003A1044F65341C2F23A01C0F8361045F2F1
:1033A0005071C5F64D71C0F832100E20FEF7C8F905
:1033B0001CE040F20510C2F200000A2180F83E1025
:1033C00044F64C71C0F65751C0F83A1044F65341D8
:1033D000C2F23A01C0F8361045F25071C5F64D718F
:1033E000C0F832100D20FEF7ABF9FFE740F60040C1
:1033F000C4F201004FF4004103F07EF801281AD115
:10340000FFE740F20510C2F2000044F64701C0F6A3
:103410000D21C0F83A1042F23A01C4F64811C0F842
:10342000361044F24C51C3F24411C0F832100C2053
:10343000FEF786F919E040F20510C2F2000045F2ED
:103440004F71C0F60D21C0F8391042F23A01C4F6AE
:103450004C71C0F8361044F24C51C3F24411C0F81C
:1034600032100B20FEF76CF9FFE740F60000C4F2C3
:1034700001004FF4807103F03FF801281DD1FFE7F0
:1034800040F20510C2F2000040F60D21C18744F65B
:103490004811C4F64701C0F83A1044F64601C2F29A
:1034A0003A01C0F8361045F25071C5F64D71C0F8BA
:1034B00032100E20FEF744F91CE040F20510C2F273
:1034C00000000A2180F83E1044F64C71C0F65751B6
:1034D000C0F83A1044F64601C2F23A01C0F836107C
:1034E00045F25071C5F64D71C0F832100D20FEF74F
:1034F00027F9FFE740F60000C4F201004FF4007125
:1035000002F0FAFF01281DD1FFE740F20510C2F2D8
:10351000000040F60D21C18744F64811C4F647016A
:10352000C0F83A1044F64641C2F23A01C0F83610EB
:1035300045F25071C5F64D71C0F832100E20FEF7FD
:10354000FFF81CE040F20510C2F200000A2180F8EA
:103550003E1044F64C71C0F65751C0F83A1044F68C
:103560004641C2F23A01C0F8361045F25071C5F634
:103570004D71C0F832100D20FEF7E2F8FFE740F67B
:103580000040C4F201004FF4005102F0B5FF0128E1
:103590001DD1FFE740F20510C2F2000040F60D21F8
:1035A000C18744F64811C4F64701C0F83A1044F602
:1035B0005301C2F23A01C0F8361045F25071C5F617
:1035C0004D71C0F832100E20FEF7BAF81CE040F240
:1035D0000510C2F200000A2180F83E1044F64C713A
:1035E000C0F65751C0F83A1044F65301C2F23A01FE
:1035F000C0F8361045F25071C5F64D71C0F8321062
:103600000D20FEF79DF8FFE740F60000C4F2010030
:103610004FF4806102F070FF01281DD1FFE740F2F6
:103620000510C2F2000040F60D21C18744F6481192
:10363000C4F64701C0F83A1044F64561C2F23A01B7
:10364000C0F8361045F25071C5F64D71C0F8321011
:103650000E20FEF775F81CE040F20510C2F20000E3
:103660000A2180F83E1044F64C71C0F65751C0F85C
:103670003A1044F64561C2F23A01C0F8361045F2FC
:103680005071C5F64D71C0F832100D20FEF758F894
:10369000FFE740F60000C4F201004FF4006102F0C1
:1036A0002BFF01281DD1FFE740F20510C2F20000F8
:1036B00040F60D21C18744F64811C4F64701C0F811
:1036C0003A1045F65201C2F23A01C0F8361044F2FF
:1036D0004311C5F64E71C0F832100E20FEF730F8D7
:1036E0001CE040F20510C2F200000A2180F83E10F2
:1036F00044F64C71C0F65751C0F83A1045F65201E5
:10370000C2F23A01C0F8361044F24311C5F64E71C8
:10371000C0F832100D20FEF713F8FFE740F6000066
:10372000C4F201004FF4805102F0E6FE01281DD1E1
:10373000FFE740F20510C2F2000040F60D21C187FC
:1037400044F64811C4F64701C0F83A1045F6540152
:10375000C2F23A01C0F8361044F24311C5F64E7178
:10376000C0F832100E20FDF7EBFF1CE040F2051010
:10377000C2F200000A2180F83E1044F64C71C0F6F7
:103780005751C0F83A1045F65401C2F23A01C0F858
:10379000361044F24311C5F64E71C0F832100D20B8
:1037A000FDF7CEFFFFE740F60040C4F20100202104
:1037B00002F0A2FE012820D1FFE740F20510C2F27C
:1037C000000044F64701C0F60D21C0F83D1044F654
:1037D0002001C4F24971C0F83A1044F65F11C3F6F3
:1037E0004E21C0F8361045F65311C4F24E31C0F8E0
:1037F00032100F20FDF7A4FF1CE040F20510C2F2CA
:10380000000040F60D21C18744F62041C5F24F71FA
:10381000C0F83A1044F65F11C3F64E21C0F83610D6
:1038200045F65311C4F24E31C0F832100E20FDF7A8
:1038300087FFFFE740F60040C4F201004FF48071BB
:1038400002F05AFE01281AD1FFE740F20510C2F239
:10385000000044F64701C0F60D21C0F8391044F6C7
:103860002001C4F24971C0F8361044F24611C3F683
:103870004E21C0F832100B20FDF762FF16E040F237
:103880000510C2F2000040F60D21418744F62041A8
:10389000C5F24F71C0F8361044F24611C3F64E21FE
:1038A000C0F832100A20FDF74BFFFFE764E340F257
:1038B0000510C2F20000002180F8321080F83310A9
:1038C00080F8341080F8351041F20000C4F2010095
:1038D0004FF4005102F010FE01280BD1FFE740F237
:1038E0000510C2F2000090F832104900013180F852
:1038F000321009E040F20510C2F2000090F83210D8
:10390000490080F83210FFE741F20000C4F20100E4
:103910004FF4804102F0F0FD01280BD1FFE740F2A7
:103920000510C2F2000090F832104900013180F811
:10393000321009E040F20510C2F2000090F8321097
:10394000490080F83210FFE741F20000C4F20100A4
:103950004FF4004102F0D0FD01280BD1FFE740F207
:103960000510C2F2000090F832104900013180F8D1
:10397000321009E040F20510C2F2000090F8321057
:10398000490080F83210FFE740F60000C4F2010061
:10399000012102F0B1FD01280BD1FFE740F2051033
:1039A000C2F2000090F832104900013180F8321064
:1039B00009E040F20510C2F2000090F83210490010
:1039C00080F83210FFE740F60000C4F20100022147
:1039D00002F092FD01280BD1FFE740F20510C2F280
:1039E000000090F832104900013180F8321009E0EF
:1039F00040F20510C2F2000090F83210490080F841
:103A00003210FFE740F60000C4F20100042102F08A
:103A100073FD01280BD1FFE740F20510C2F2000050
:103A200090F832104900013180F8321009E040F27C
:103A30000510C2F2000090F83210490080F83210F0
:103A4000FFE740F60000C4F20100082102F054FD37
:103A500001280BD1FFE740F20510C2F2000090F8F8
:103A600032104900013180F8321009E040F20510AF
:103A7000C2F2000090F83210490080F83210FFE7DF
:103A800040F60000C4F20100102102F035FD0128CB
:103A90000BD1FFE740F20510C2F2000090F832109F
:103AA0004900013180F8321009E040F20510C2F2FD
:103AB000000090F83210490080F83210FFE740F61D
:103AC0000000C4F20100202102F016FD01280BD1F4
:103AD000FFE740F20510C2F2000090F832104900F2
:103AE000013180F8331009E040F20510C2F2000005
:103AF00090F83310490080F83310FFE740F60000DB
:103B0000C4F20100402102F0F7FC01280BD1FFE7CD
:103B100040F20510C2F2000090F832104900013165
:103B200080F8331009E040F20510C2F2000090F86E
:103B30003310490080F83310FFE740F60000C4F26C
:103B40000100802102F0D8FC01280BD1FFE740F2F0
:103B50000510C2F2000090F832104900013180F8DF
:103B6000331009E040F20510C2F2000090F8331063
:103B7000490080F83310FFE740F60040C4F201002E
:103B8000012102F0B9FC01280BD1FFE740F205103A
:103B9000C2F2000090F832104900013180F8331071
:103BA00009E040F20510C2F2000090F8331049001D
:103BB00080F83310FFE740F60040C4F20100022114
:103BC00002F09AFC01280BD1FFE740F20510C2F287
:103BD000000090F832104900013180F8331009E0FC
:103BE00040F20510C2F2000090F83310490080F84E
:103BF0003310FFE740F60040C4F20100042102F058
:103C00007BFC01280BD1FFE740F20510C2F2000057
:103C100090F832104900013180F8331009E040F289
:103C20000510C2F2000090F83310490080F83310FC
:103C3000FFE740F60040C4F201004FF4806102F05B
:103C40005BFC01280BD1FFE740F20510C2F2000037
:103C500090F832104900013180F8331009E040F249
:103C60000510C2F2000090F83310490080F83310BC
:103C7000FFE740F60040C4F201004FF4006102F09B
:103C80003BFC01280BD1FFE740F20510C2F2000017
:103C900090F832104900013180F8331009E040F209
:103CA0000510C2F2000090F83310490080F833107C
:103CB000FFE740F60040C4F201004FF4805102F0EB
:103CC0001BFC01280BD1FFE740F20510C2F20000F7
:103CD00090F832104900013180F8341009E040F2C8
:103CE0000510C2F2000090F83410490080F834103A
:103CF000FFE740F60040C4F201004FF4005102F02B
:103D0000FBFB01280BD1FFE740F20510C2F20000D7
:103D100090F832104900013180F8341009E040F287
:103D20000510C2F2000090F83410490080F83410F9
:103D3000FFE740F60040C4F201004FF4804102F07A
:103D4000DBFB01280BD1FFE740F20510C2F20000B7
:103D500090F832104900013180F8341009E040F247
:103D60000510C2F2000090F83410490080F83410B9
:103D7000FFE740F60040C4F201004FF4004102F0BA
:103D8000BBFB01280BD1FFE740F20510C2F2000097
:103D900090F832104900013180F8341009E040F207
:103DA0000510C2F2000090F83410490080F8341079
:103DB000FFE740F60000C4F201004FF4807102F00A
:103DC0009BFB01280BD1FFE740F20510C2F2000077
:103DD00090F832104900013180F8341009E040F2C7
:103DE0000510C2F2000090F83410490080F8341039
:103DF000FFE740F60000C4F201004FF4007102F04A
:103E00007BFB01280BD1FFE740F20510C2F2000056
:103E100090F832104900013180F8341009E040F286
:103E20000510C2F2000090F83410490080F83410F8
:103E3000FFE740F60000C4F201004FF4806102F099
:103E40005BFB01280BD1FFE740F20510C2F2000036
:103E500090F832104900013180F8341009E040F246
:103E60000510C2F2000090F83410490080F83410B8
:103E7000FFE740F60000C4F201004FF4006102F0D9
:103E80003BFB01280BD1FFE740F20510C2F2000016
:103E900090F832104900013180F8341009E040F206
:103EA0000510C2F2000090F83410490080F8341078
:103EB000FFE740F60000C4F201004FF4805102F029
:103EC0001BFB01280BD1FFE740F20510C2F20000F6
:103ED00090F832104900013180F8351009E040F2C5
:103EE0000510C2F2000090F83510490080F8351036
:103EF000FFE740F60040C4F20100202102F0FCFA86
:103F000001280BD1FFE740F20510C2F2000090F843
:103F100032104900013180F8351009E040F20510F7
:103F2000C2F2000090F83510490080F83510FFE724
:103F300040F60040C4F201004FF4807102F0DCFA58
:103F400001280BD1FFE740F20510C2F2000090F803
:103F500032104900013180F8351009E040F20510B7
:103F6000C2F2000090F83510490080F83510FFE7E4
:103F70000420FDF7E5FBFFE7FCF754FEFDF7F8FB37
:103F8000FDF732F8FDF752F9FCF72CFE45E341F25C
:103F90005850C2F200000068006844F64811C4F6A8
:103FA0004701884208D0FFE741F20750C2F2000003
:103FB0004078FF2864D1FFE741F20000C4F201001D
:103FC0004FF4804102F0C6F940F60000C4F201004F
:103FD00080210F9002F0BEF940F60040C4F20100CB
:103FE00001210E9002F0B6F904210E9802F0B2F908
:103FF0004FF400410E9802F0ADF94FF480610F9834
:1040000002F0A8F94FF480710E9802F0A3F941F282
:104010005850C2F200000068006844F64811C4F627
:104020004701884220D1FFE740F20510C2F20000AC
:1040300044F64701C0F60D21C0F83D1044F62001BA
:10404000C4F24971C0F83A1045F24701C4F649710B
:10405000C0F8361044F64141C2F24C01C0F83210AB
:104060000F20FDF76DFB0AE040F20510C2F20000E0
:10407000AC2180F832100120FDF762FBFFE7CBE2B4
:1040800041F25850C2F20000006847F65631C0F6BF
:1040900000010322FCF78AF8002808D0FFE741F26C
:1040A0000750C2F200004078002863D1FFE741F2D8
:1040B0000000C4F201004FF4804102F043F940F6E1
:1040C0000000C4F2010080210D9002F03BF940F69F
:1040D0000040C4F2010001210C9002F033F90421E8
:1040E0000C9802F02FF94FF400410C9802F02AF9D5
:1040F0004FF480610D9802F025F94FF480710C980F
:1041000002F020F941F25850C2F20000006847F670
:104110005631C0F600010322FCF748F800281DD1F3
:10412000FFE740F20510C2F2000040F60D21C18702
:1041300044F62041C5F24F71C0F83A1045F24701EC
:10414000C4F64971C0F8361044F64141C2F24C0140
:10415000C0F832100E20FDF7F3FA0AE040F2051025
:10416000C2F20000AC2180F832100120FDF7E8FA1D
:10417000FFE750E241F25850C2F20000006847F6F3
:104180003731C0F600010622FCF710F8002809D0EC
:10419000FFE741F20750C2F200004078CC2840F01F
:1041A000BA81FFE741F25850C2F20000006847F6BA
:1041B0003731C0F600010622FBF7F8FF002840F077
:1041C000E180FFE747F61E31C0F600010020FBF753
:1041D000FBFF41F25851C2F200010860086800F08C
:1041E0001DFC41F2FC41C2F2000108600878C007E2
:1041F000002809D0FFE741F20000C4F201004FF4AB
:10420000804102F0A7F808E041F20000C4F201008A
:104210004FF4804102F096F8FFE741F2FC40C2F211
:10422000000000684008C007002808D0FFE740F6FB
:104230000000C4F20100802102F08CF807E040F693
:104240000000C4F20100802102F07CF8FFE741F297
:10425000FC40C2F2000000688008C007002808D0B7
:10426000FFE740F60040C4F20100012102F072F8BD
:1042700007E040F60040C4F20100012102F062F8BC
:10428000FFE741F2FC40C2F200000068C008C0072E
:10429000002808D0FFE740F60040C4F201000421E6
:1042A00002F058F807E040F60040C4F20100042193
:1042B00002F048F8FFE741F2FC40C2F2000000685B
:1042C0000009C007002809D0FFE740F60040C4F20B
:1042D00001004FF4004102F03DF808E040F60040D4
:1042E000C4F201004FF4004102F02CF8FFE741F264
:1042F000FC40C2F2000000680009C007002809D095
:10430000FFE740F60000C4F201004FF4806102F0C4
:1043100021F808E040F60000C4F201004FF480618B
:1043200002F010F8FFE741F2FC40C2F20000006822
:104330000009C007002809D0FFE740F60040C4F29A
:1043400001004FF4807102F005F808E040F60040EB
:10435000C4F201004FF4807101F0F4FFFFE740F276
:104360000510C2F20000323047F6DF21C0F600012E
:1043700014220B92FBF708FF0B990A900846FDF7F1
:10438000DFF9C7E041F20750C2F200008078C007B1
:10439000002809D0FFE741F20000C4F201004FF409
:1043A000804101F0D7FF08E041F20000C4F20100B3
:1043B0004FF4804101F0C6FFFFE741F20750C2F21F
:1043C000000080784008C007002808D0FFE740F6CA
:1043D0000000C4F20100802101F0BCFF07E040F6BC
:1043E0000000C4F20100802101F0ACFFFFE741F2C0
:1043F0000750C2F2000080788008C007002808D06B
:10440000FFE740F60040C4F20100012101F0A2FFE5
:1044100007E040F60040C4F20100012101F092FFE4
:10442000FFE741F20750C2F200008078C008C007E1
:10443000002808D0FFE740F60040C4F20100042144
:1044400001F088FF07E040F60040C4F201000421BB
:1044500001F078FFFFE741F20750C2F200008078D8
:104460000009C007002809D0FFE740F60040C4F269
:1044700001004FF4004101F06DFF08E040F60040FC
:10448000C4F201004FF4004101F05CFFFFE741F28C
:104490000750C2F2000080784009C007002809D008
:1044A000FFE740F60000C4F201004FF4806101F024
:1044B00051FF08E040F60000C4F201004FF48061B3
:1044C00001F040FFFFE741F20750C2F200008078A0
:1044D0008009C007002809D0FFE740F60040C4F279
:1044E00001004FF4807101F035FF08E040F6004014
:1044F000C4F201004FF4807101F024FFFFE740F2A5
:104500000510C2F20000AC2180F832100120FDF746
:1045100017F9FFE77EE041F25850C2F20000006850
:1045200047F64631C0F600010722FBF73FFE0028A0
:1045300008D0FFE741F20750C2F200004078AA28F5
:1045400067D1FFE741F25850C2F20000006847F619
:104550004631C0F600010722FBF728FE002829D1CA
:10456000FFE747F61E30C0F600000021099008461C
:10457000099A08911146FBF727FE41F25851C2F201
:10458000000108600868079100F072FA41F2565184
:10459000C2F20001088008980999FBF715FE0799F7
:1045A0000860086800F064FA41F25451C2F2000158
:1045B000088016E041F20750C2F200008178C2780C
:1045C00042EA012141F25652C2F200021180017901
:1045D000407940EA012041F25451C2F200010880C2
:1045E000FFE741F25650C2F20000008841F28831E4
:1045F00088420DDCFFE741F20150C2F200000121C8
:1046000001701C2000F052FD322000F06DFDFFE72C
:10461000FFE7FFE7FFE7FFE7FFE7FFE7E6E041F23D
:104620005850C2F200000068006844F25511C5F20B
:104630005241884208D0FFE741F20750C2F2000021
:104640000078CA2861D1FFE747F61E31C0F60001A5
:104650000020FBF7B9FD41F25851C2F20001086099
:104660000868008844F65451884208D0FFE741F2B8
:104670000750C2F200000078CA2845D1FFE740F297
:10468000BD00C2F2000043F23101C0F60D2101620B
:1046900043F25131C3F23201C16142F24F01C5F21E
:1046A0004D01816144F24851C4F64C4141611020F2
:1046B000FCF782FC41F25850C2F20000006800880A
:1046C00044F65451884213D1FFE740F20510C2F27C
:1046D0000000323047F6F421C0F6000115220692A0
:1046E000FBF752FD069905900846FDF729F80AE008
:1046F00040F20510C2F20000AC2180F83210012017
:10470000FDF71EF8FFE7FFE76FE041F25850C2F2F5
:104710000000006847F64231C0F600010322FBF7B3
:1047200045FD002808D0FFE741F20750C2F2000023
:104730000078C52858D1FFE747F61E31C0F60001C2
:104740000020FBF741FD41F25851C2F20001086020
:104750000868008844F65451884208D0FFE741F2C7
:104760000750C2F200000078C5283CD1FFE740F2B4
:104770001400C2F200005521A0F8A010032180F817
:10478000A4104D21C1725021017353214173FBF7D5
:1047900039FF41F25850C2F200000068008844F628
:1047A0005451884213D1FFE740F20510C2F20000D5
:1047B000323047F60A31C0F6000113220492FBF7AB
:1047C000E3FC049903900846FCF7BAFF0AE040F2C4
:1047D0000510C2F20000AC2180F832100120FCF775
:1047E000AFFFFFE7FFE7FFE7FFE7FFE7FFE7FFE7D1
:1047F000FFE700208DF82301FFE79DF82301312812
:104800000FDCFFE79DF8230140F20511C2F2000121
:1048100000220A54FFE79DF8230101308DF823019F
:10482000EBE71C2000F060FCFFE740F2EA00C2F278
:104830000000807800287CD0FFE740F2EA00C2F256
:104840000000002181704079C72823D1FFE740F2A2
:10485000EA00C2F200008079C7281BD1FFE740F2CE
:10486000BC00C2F200000021017040F60040C4F21A
:104870000100042120230291029A01F073FD40F20D
:104880000510C2F20000DC2180F832100120FCF794
:1048900057FF31E041F20450C2F20000008840F2BC
:1048A000EA01C2F200014A79897941EA022188428B
:1048B00021D0FFE740F2EA00C2F20000417980799E
:1048C00040EA012041F20451C2F2000108800A8846
:1048D00000200190019901F0C1FA019801F018FB44
:1048E00040F20510C2F20000AC2180F83210012025
:1048F000FCF726FFFFE7FFE700208DF82301FFE725
:104900009DF82301012810DCFFE79DF8230140F208
:10491000EA01C2F20001084400214171FFE79DF85D
:10492000230101308DF82301EAE71C2000F0DCFBB5
:10493000FFE749B0BDE8F08F80B59CB0FCF772F995
:10494000FCF716FFFCF750FBFCF770FCFCF74AF98C
:104950004FF4E1301690002117911891199140F20F
:104960000512C2F2000202F132031A931B9216AB37
:104970000690184605910492FCF728FE2020049921
:1049800081F832000122039010460292FCF7D8FE13
:1049900006981090059911911291139140F2BD0261
:1049A000C2F2000202F114031493159210A80192AE
:1049B000FCF75EFA0398019908750298FCF7FCFA77
:1049C00005980C900D900F9009900E9040F2EA011E
:1049D000C2F20001CA1D0A9205310B9109A8FCF729
:1049E00023FB4FF4FA70079005988DF821008DF89D
:1049F000200007A8FCF788F8FBF7DAFE42F6DF6034
:104A0000FCF750FC0E20FCF71DFD4DF2BF40C0F23C
:104A10000100FCF7DFFC1CB080BD000083B00290F9
:104A2000002001908DF80300FFE702989DF8031025
:104A3000405C00212F280A46C8BF01223A28B8BF8F
:104A400001210A4211D0FFE701984000019002982D
:104A50009DF80310405C01990844303801909DF89E
:104A6000030001308DF80300DFE7019803B07047C1
:104A700082B001900020ADF80200ADF80000FFE721
:104A80000198BDF80010405C00212F280A46C8BFDD
:104A900001223A28B8BF01210A4217D0FFE7BDF82A
:104AA000020000EB80004000ADF802000198BDF864
:104AB0000010405CBDF8021008443038ADF8020028
:104AC000BDF800000130ADF80000D9E7BDF80200E4
:104AD00002B0704780B582B0009000980138B0F104
:104AE000807F03D3FFE70120019019E0009801388F
:104AF0004EF21401CEF2000108604FF0FF300F219A
:104B000000F00CFB4EF21800CEF200000021016014
:104B10004EF21000CEF20000072202600191FFE782
:104B2000019802B080BD000080B541F26050C2F231
:104B3000000001680131016000684CF66311C9F2A0
:104B40002F6148434FEAF00043F60621C0F26D01A1
:104B5000884226D8FFE741F2F340C2F20000017814
:104B6000B1FA81F1490901700078002809D0FFE706
:104B700040F60040C4F201004FF4007101F0EAFB7E
:104B80000EE040F60040C4F201004FF4007101F065
:104B9000D9FB41F26050C2F2000000210160FFE742
:104BA000FFE7FCF709FE80BD80B582B04EF6885065
:104BB000CEF20000016841F47001016041F2000092
:104BC000C4F20200016841F00101016041F20401F8
:104BD000C4F2020100220A6041F22C01C4F2020177
:104BE0000A6001684FF6FF73CEF6F62319400160A4
:104BF00041F20801C4F202014FF47F030B60016827
:104C000021F480210160019202F0C2F84FF00060AF
:104C1000019901F0B7FD02B080BD000080B542F6F9
:104C20000040C4F20100012102F024FD002808D058
:104C3000FFE742F60040C4F20100012102F00EFD40
:104C4000FFE780BD80B582B04FF08040012102F0C7
:104C500011FD002800F0A780FFE74FF08040012100
:104C600002F0FCFC41F25E50C2F200000078002825
:104C700026D1FFE740F20510C2F2000043F2316195
:104C8000C0F60D21C0F83E1045F22061C2F6316138
:104C9000C0F83A1042F25401C4F64F31C0F8361051
:104CA00045F25341C5F24121C0F832101020FCF703
:104CB00047FD41F25E50C2F200000121017017E091
:104CC00041F25E50C2F20000007800280FD0FFE7EA
:104CD00040F2BC00C2F200000078002803D0FFE7D9
:104CE000FCF786FA02E0FCF719FDFFE7FFE7FFE7B4
:104CF00040F20510C2F20000007800280BD0FFE758
:104D000040F20510C2F20000012180F865101C205D
:104D100000F0CCF9FFE740F20040C4F202000021AD
:104D2000022201F00FFA01283CD1FFE740F2EA002D
:104D3000C2F200004079002808D1FFE740F2EA0003
:104D4000C2F20000807900282CD0FFE740F2EA0090
:104D5000C2F200004079FF2808D1FFE740F2EA00E4
:104D6000C2F200008079FF281CD0FFE740F2EA0081
:104D7000C2F200000121817040F20040C4F2020042
:104D800000220223019111461A4601F0C9F943F6A7
:104D90000040C4F20000019901F064FE1C2000F004
:104DA00085F9FFE7FFE702B080BD000080B584B061
:104DB00040F60040C4F20000012102F05BFC002834
:104DC00000F07281FFE740F60040C4F200000121CC
:104DD00002F044FC41F20150C2F2000000780028C9
:104DE00000F06181FFE741F26450C2F200000188E7
:104DF00001310180008841F25451C2F2000109885A
:104E00004FF4FA52B2FBF1F1884240F3B380FFE76E
:104E100041F2F840C2F20000008841F25651C2F25D
:104E200000010988884280F2A580FFE741F26450C2
:104E3000C2F200000021018041F20000C4F2010032
:104E40004FF4005101F058FB01280ED1FFE741F269
:104E5000F840C2F20000008840F26B11C2F200017B
:104E60000A5C520001320A540CE041F2F840C2F2EE
:104E70000000008840F26B11C2F200010A5C52008F
:104E80000A54FFE741F20000C4F201004FF4004170
:104E900001F032FB01280ED1FFE741F2F840C2F2E7
:104EA0000000008840F26B11C2F200010A5C52005F
:104EB00001320A540CE041F2F840C2F200000088CE
:104EC00040F26B11C2F200010A5C52000A54FFE783
:104ED00040F60040C4F20100022101F00DFB012860
:104EE0000ED1FFE741F2F840C2F20000008840F224
:104EF0006B11C2F200010A5C520001320A540CE04C
:104F000041F2F840C2F20000008840F26B11C2F298
:104F100000010A5C52000A54FFE740F60040C4F268
:104F20000100202101F0E8FA01280ED1FFE741F24B
:104F3000F840C2F20000008840F26B11C2F200019A
:104F40000A5C520001320A540CE041F2F840C2F20D
:104F50000000008840F26B11C2F200010A5C5200AE
:104F60000A54FFE741F2F840C2F200000188013123
:104F7000018097E041F2F840C2F20000008841F25F
:104F80005651C2F2000109888842C0F28A80FFE7C8
:104F900041F2F840C2F200000021018041F20052CB
:104FA000C2F200020123137041F20153C2F2000366
:104FB00019701170322203901046029100F076F8B9
:104FC000029803990880FFE741F2F840C2F200001E
:104FD000008841F25651C2F20001098888425CDA29
:104FE000FFE741F20250C2F2000000210170FFE72A
:104FF00041F2F840C2F20000008841F20251C2F2D0
:1050000000010978084441F25651C2F200010988B2
:105010000022884201920BDAFFE741F20250C2F20D
:105020000000007800213228B8BF01210191FFE77C
:105030000198C007002820D0FFE741F2F840C2F2F3
:105040000000008841F20251C2F2000109780844D0
:1050500040F26B11C2F20001095C40F20512C2F28B
:105060000002104480F83210FFE741F20250C2F211
:105070000000017801310170BAE741F20250C2F23A
:1050800000000078FCF75CFBFFE741F2F840C2F259
:10509000000001883231018096E71C2000F024F8DE
:1050A000FFE7FFE7FFE7FFE704B080BD81B00146FF
:1050B0008DF803009DF90300002813D4FFE79DF944
:1050C000030000F01F01012202FA01F140094EF233
:1050D0008012CEF2000242F82010BFF34F8FBFF3D0
:1050E0006F8FFFE701B0704781B001468DF8030074
:1050F0009DF9030000280FD4FFE79DF9030000F09D
:105100001F01012202FA01F140094EF20012CEF213
:10511000000242F82010FFE701B0704782B002465B
:105120008DF8070000919DF9070000280AD4FFE7D9
:10513000009800019DF907104EF20042CEF20002E5
:1051400088540BE0009800019DF8071001F00F0152
:105150004EF61452CEF200028854FFE702B07047B8
:1051600081B000900098816841F008018160FFE7FC
:10517000009880680007002801D5FFE7F8E700984D
:10518000816841F004018160FFE700988068400772
:10519000002801D5FFE7F8E701B0704784B00B465F
:1051A00003908DF80B1001929DF80B000146012829
:1051B000009104D0FFE70098022812D023E0039862
:1051C000C16A21F47001C16201980021CFF6F0712B
:1051D00001EB00503FFA80F00399CA6A1043C8629D
:1051E00012E00398816B21F4401181630198002142
:1051F000CFF6F07101EB005000F4401003998A6B78
:105200001043886300E0FFE704B0704782B001906C
:1052100000910098002806D0FFE70198816841F4CA
:105220000061816005E00198816821F4006181607E
:10523000FFE702B07047000081B0009000988168DD
:1052400041F48071816001B07047000081B000902E
:1052500000988068C007002806D1FFE700988168A1
:1052600041F001018160FFE701B0704782B0134651
:105270008C4601908DF803108DF802209DF80200F5
:10528000002819D0FFE79DF80300C007002806D0CA
:10529000FFE70198816841F480118160FFE79DF884
:1052A00003008007002806D5FFE70198816841F4D4
:1052B00000418160FFE718E09DF80300C007002867
:1052C00006D0FFE70198816821F480118160FFE733
:1052D0009DF803008007002806D5FFE70198816844
:1052E00021F400418160FFE7FFE702B07047000052
:1052F00084B00B4603908DF80B1001929DF80B00C3
:1053000001460128009104D0FFE7009802280BD045
:1053100015E00398816821F4602181600198039968
:105320008A68104388600BE00398816821F4E041AB
:105330008160019803998A681043886000E0FFE764
:1053400004B0704781B0009042F20440C4F2010002
:10535000016821F470210160009902681143016025
:1053600001B0704780B585B094468E4604908DF8A4
:105370000F108DF80E2002939DF80F0005281CDCFD
:10538000FFE70498406B01909DF80F0000EB800050
:105390001F2101FA00F0019921EA000001909DF817
:1053A0000E009DF80F1001EB810188400199084320
:1053B000019001980499486348E09DF80F000B287C
:1053C0001EDCFFE70498006B01909DF80F0000EBD6
:1053D00080001E381F2101FA00F0019921EA000027
:1053E00001909DF80E009DF80F1001EB81011E3910
:1053F000884001990843019001980499086324E0CA
:105400009DF80F000F281EDCFFE70498C06A01908A
:105410009DF80F0000EB80003C381F2101FA00F0DE
:10542000019921EA000001909DF80E009DF80F10EF
:1054300001EB81013C3988400199084301900198B2
:105440000499C86200E0FFE7FFE7FFE79DF80E0060
:1054500009281BDCFFE70498006900909DF80E0006
:1054600000EB4000072101FA00F0009921EA00005A
:10547000009002989DF80E1001EB410188400099C0
:105480000843009000980499086123E09DF80E00FD
:1054900011281DDCFFE70498C06800909DF80E00FD
:1054A00000EB40001E38072101FA00F0009921EAC4
:1054B0000000009002989DF80E1001EB41011E398A
:1054C000884000990843009000980499C86000E063
:1054D000FFE7FFE705B080BD82B001900091019821
:1054E000D0F8801021F44051C0F880100098019944
:1054F000D1F880201043C1F8800002B0704700004E
:1055000082B00A4601908DF803109DF80300C00791
:10551000002806D0FFE70198816841F4800181608E
:10552000FFE79DF803008007002806D5FFE70198F4
:10553000816841F400118160FFE702B0704700000C
:1055400083B01346029001918DF803209DF803006B
:10555000002825D0FFE79DF80500C007002806D0E9
:10556000FFE70298416841F480714160FFE79DF8D0
:1055700005004007002806D5FFE70298416841F47E
:1055800080614160FFE79DF804008007002806D590
:10559000FFE70298816841F002018160FFE724E0A3
:1055A0009DF80500C007002806D0FFE70298416873
:1055B00021F480714160FFE79DF805004007002855
:1055C00006D5FFE70298416821F480614160FFE75A
:1055D0009DF804008007002806D5FFE7029881683F
:1055E00021F002018160FFE7FFE703B07047000090
:1055F00080B584B00390039846F20041C4F20001E4
:10560000884209D1FFE740F21940029001F012FAF6
:10561000029801F0F7F908E040F21A40019001F019
:1056200009FA019801F0EEF9FFE704B080BD00002F
:1056300082B001900020009001984089012101FA78
:1056400000F0009046F20060C4F20000016841F0F2
:1056500001010160009846F21C61C4F200010A6871
:1056600022EA000008600198C089002822D1FFE7E3
:10567000009846F20C61C4F200010A6822EA0000B8
:1056800008600198C188428842EA0141408946F297
:105690004062C4F2000242F830100198818802880A
:1056A00042EA0141408946F24462C4F2000242F8F3
:1056B0003010FFE70198C089012821D1FFE7009849
:1056C00046F20C61C4F200010A68104308600198B8
:1056D0000188428842EA0141408946F24062C4F2B0
:1056E000000242F8301001988188C28842EA0141E4
:1056F000408946F24462C4F2000242F83010FFE7EB
:105700000198808900280AD1FFE7009846F20461D9
:10571000C4F200010A6822EA0000086008E000986C
:1057200046F20461C4F200010A6810430860FFE712
:105730000198008900280AD1FFE7009846F2146119
:10574000C4F200010A6822EA0000086008E000983C
:1057500046F21461C4F200010A6810430860FFE7D2
:105760000198007C012809D1FFE7009846F21C61EE
:10577000C4F200010A6810430860FFE746F20060C7
:10578000C4F20000016821F00101016002B070471D
:1057900082B00A460190ADF80210BDF8020000F098
:1057A0001F01012303FA01F1019B800953F800C096
:1057B00041EA0C01195002B07047000083B00A465C
:1057C0000190ADF802100198BDF802108909405807
:1057D000BDF8021001F01F01C840C007002804D026
:1057E000FFE701208DF80B0003E000208DF80B008F
:1057F000FFE79DF80B0003B07047000080B586B04E
:105800000590049101208DF80F00049844F2402186
:10581000C0F20F01884229D8FFE70598012100F066
:1058200069FA012812D1FFE70598C0690290029831
:1058300000F040400290029804990190084600F060
:1058400081FB019908430599C86103E000208DF8A8
:105850000F00FFE70598022100F04CFA012804D060
:10586000FFE700208DF80F00FFE703E000208DF830
:105870000F00FFE79DF80F0006B080BD80B586B031
:10588000059004914FF6FF70039000208DF80B00F7
:105890000598016821F0020101600598016841F056
:1058A00001010160FFE7059840680021C00700285A
:1058B000019106D1FFE70398002818BF012001904D
:1058C000FFE70198C007002804D0FFE703980138DC
:1058D0000390E8E705984068C007002804D1FFE777
:1058E00000208DF80B00B4E00498017842788378AA
:1058F00090F803C04FF0F85E0EEA026242EA81714E
:105900001A0442EA831241F60043C0F20F031A4020
:1059100011444FEA0C5242EA8C2246F20003C0F2D4
:1059200070031A401144408901386FF39F200844E6
:105930000599C86104980079012806D1FFE7059808
:10594000016841F08001016005E00598016821F0DF
:1059500080010160FFE704984079012806D1FFE744
:105960000598016841F04001016005E00598016873
:1059700021F040010160FFE704988079012806D1F9
:10598000FFE70598016841F02001016005E00598F6
:10599000016821F020010160FFE70498C079012827
:1059A00006D1FFE70598016821F01001016005E0CC
:1059B0000598016841F010010160FFE70498007A42
:1059C000012806D1FFE70598016841F00801016050
:1059D00005E00598016821F008010160FFE70498DF
:1059E000407A012806D1FFE70598016841F00401DB
:1059F000016005E00598016821F004010160FFE7FE
:105A00000598016821F0010101604FF6FF700390D5
:105A1000FFE7059840680021C0070028009106D0E4
:105A2000FFE70398002818BF01200090FFE70098C7
:105A3000C007002804D0FFE7039801380390E8E787
:105A40000398002804D0FFE701208DF80B00FFE742
:105A5000FFE79DF80B0006B080BD000087B0059001
:105A6000049100208DF80F008DF80E008DF80D00C8
:105A700002900090059880684001002804D5FFE757
:105A800000208DF80F0019E00598806800010028BB
:105A900004D5FFE701208DF80F000EE0059880681F
:105AA000C000002804D5FFE702208DF80F0003E0B6
:105AB00003208DF80F00FFE7FFE7FFE79DF80F00D9
:105AC000032804D1FFE703208DF81B000DE10598A2
:105AD0009DF80F1000EB0110D0F8801101F00101CA
