:020000040800F2
:1000000050400020650100086D0100086F010008E4
:10001000710100087301000875010008000000006C
:100020000000000000000000000000007701000850
:1000300079010008000000007B0100082942000847
:100040007F0100087F0100087F0100087F01000890
:100050007F0100087F0100087F0100087F01000880
:100060007F0100087F0100087F0100087F01000870
:100070007F0100087F0100087F0100087F01000860
:100080007F0100087F0100087F0100087F01000850
:100090007F0100087F0100087F0100087F01000840
:1000A0007F010008914300087F0100087F010008DC
:1000B000B54300087F010008714400087F01000873
:1000C0007F0100087F0100087F0100087F01000810
:1000D0007F0100087F0100087F0100087F01000800
:1000E0009B0600087F0100087F0100087F010008CF
:1000F0007F0100087F0100087F0100080000000068
:100100007F01000800000000954400087F010008FE
:100110007F0100087F0100087F0100087F010008BF
:100120007F0100087F0100087F0100087F010008AF
:100130007F01000800000000000000007F010008AF
:100140007F0100087F0100087F0100087F0100088F
:10015000DFF80CD000F048FA0048004711510008C1
:10016000504000200648804706480047FEE7FEE76B
:10017000FEE7FEE7FEE7FEE7FEE7FEE7FEE7FEE757
:10018000894200085101000840EA01039B0703D09F
:1001900009E008C9121F08C0042AFAD203E011F8C6
:1001A000013B00F8013B521EF9D27047D2B201E088
:1001B00000F8012B491EFBD270470022F6E710B56C
:1001C00013460A4604461946FFF7F0FF204610BDC5
:1001D00030B504460020034600E05B1C934203D286
:1001E000E05CCD5C401BF8D030BD000070B50F4D19
:1001F00000B92868002412E00A4602E09E4203D0BB
:10020000521C1378002BF9D1DAB2224305D02BB15E
:1002100024B1002100F8011B04E00446401C0678CC
:10022000002EE9D12860204670BD000000000020AB
:100230002DE9FE4F804681EA0300C00F0C46009076
:1002400021F0004123F00045B8EB0200A94105D29E
:100250004046214690461C460B46024623F000408D
:10026000104347D0270DC7F30A00C3F30A51029089
:10027000401A019040286BDAC3F3130040F4801B4E
:100280000098924620B10023D2EB030A63EB0B0BDC
:1002900001985946C0F14002504600F016F9064652
:1002A0000D4650465946019A00F02EF910EB080011
:1002B0006141002487EA115284EAE7731A4340D06F
:1002C000009A62B3019A012A4FEA075215DC001B1B
:1002D00061EB02014FF0004202EA0752CDE9004211
:1002E000001C41F5801132462B4600F02EF903B078
:1002F000BDE8F08F40462146F9E7001B61EB0201A3
:10030000001C41F5801300185B412018A2F500176E
:1003100047EB030140EAD570B6196D4111E06D0855
:100320004FEA360645EAC0754FEA0752001B61EBFB
:100330000201001C41F5801149084FEA3000001904
:10034000514132462B4603B0BDE8F04F00F0EEB805
:100350000098012240000023D0EB020263EBE0731F
:10036000009821464FEAE074B8EB000061EB04010D
:10037000E9E783F000435BE781F0004158E72DE9AE
:10038000F04D81EA030404F0004B21F000451446CF
:100390004FF0000A23F0004150EA050220D054EA51
:1003A00001021DD0C5F30A570246C5F31303C1F37A
:1003B0001300C1F30A5640F4801543F48013A7EBF1
:1003C0000608101BD64608F2FD3873EB050002D371
:1003D00008F1010801E092185B41B8F1000F03DA5F
:1003E00000200146BDE8F08D00204FF48011064644
:1003F00084460EE0171B73EB050705D3121B63EB56
:10040000050306434CEA010C49084FEA30009218F4
:100410005B4150EA0107EDD152EA030012D082EAB3
:10042000040083EA0501084305D0101BAB4106D246
:100430000122002306E000224FF0004302E06FF0AB
:10044000010253101AEB06004CEB085110EB0A00A6
:1004500041EB0B01BDE8F04D00F068B80EB5C10FDF
:1004600080EAE0700844CA07002140F233438DE877
:100470000E000A460B4600F068F803B000BD0EB54A
:1004800040F2334102910021CDE900110A460B46AA
:1004900000F05BF803B000BDC1F30A5210B5C1F320
:1004A000130140F2FF3341F480119A4201DA002037
:1004B00010BD40F233439A42A2F2334203DC52426F
:1004C00000F012F810BD904010BD202A04DB203A45
:1004D00000FA02F1002070479140C2F1200320FA97
:1004E00003F3194390407047202A04DB203A21FA95
:1004F00002F00021704721FA02F3D040C2F120023D
:100500009140084319467047202A06DBCB17203A52
:1005100041FA02F043EAE07306E041FA02F3D04008
:10052000C2F12002914008431946704710B5141ECD
:1005300073F1000408DA401C41F1000192185B419C
:100540001A4301D120F0010010BD2DE9F04D924673
:100550009B4611B1B1FA81F202E0B0FA80F220328A
:100560009046FFF7B2FF04460F4640EA0A0041EA10
:100570000B0153465A46084313D0114653EA010073
:1005800019D0C8F140025046FFF7AEFF05460E46AF
:10059000504659464246FFF798FF084305D00120D0
:1005A00004E020463946BDE8F08D0020054346EAC8
:1005B000E0762C4337430A986305E40AA0EB080071
:1005C0000022FD0A44EA47540A3002D500200146C1
:1005D000E9E7010510196941DDE90845001969419C
:1005E000BDE8F04DA2E70000064C074D06E0E068CC
:1005F00040F0010394E8070098471034AC42F6D36A
:10060000FFF7AAFD746600089466000810B5002480
:10061000C4F20204A4F55C40012104F000F900BF1B
:1006200020460021022204F0CAFB0028F8D0204610
:1006300000210222BDE8104004F0BABBB0B501466B
:10064000B0F8A0000022C1E9000246F2004491F88F
:10065000A400C4F200040A818872204604F052FA11
:1006600043F6EE31C2F2000143F6D83508704FF47C
:100670000071C2F20005022898BF01EBC001296099
:1006800089B2204604F078F929680128F8D089B2A7
:100690002046BDE8B04004F064B980B54FF4004096
:1006A00004F04EFCB8B1FFF7B1FF40F20800C2F20F
:1006B0000000008840F2ED0100BAC2F20001000C17
:1006C000A1F80700022000F042FF4FF40040BDE80F
:1006D000804004F02FBC80BDB0B588B000208DF8FC
:1006E0001E0040F20800C2F2000042F6000403902F
:1006F0004FF40060C4F201040490A4F56D70019001
:100700004FF48070ADF81C004FF40070029001208F
:10071000002505904FF44050C4F20205069001AA4E
:100720002846002104F054FB2846002104F02EFB4B
:100730002846002104F006FB002004F006F842F2EF
:100740000045C4F2010528464FF48071012204F0EF
:1007500074F828460221002204F06FF82846002190
:1007600003F0AFFF2846002104F04DF82846012190
:10077000012203F089FF20464FF48071012204F02A
:100780005CF820460221002204F057F820460021A0
:1007900003F097FF2046002104F035F820460121A0
:1007A000002203F071FF284601214FF4602203F07C
:1007B000BBFF28460121012203F09AFF20460121B8
:1007C0004FF4602203F0B0FF20460121012203F024
:1007D0008FFF284600210022022303F0C2FF284693
:1007E00003F07DFF284603F03FFF204603F077FF2C
:1007F000204603F039FF284603F06CFF45F2000065
:10080000CFF6FF702958002241F001012950002045
:10081000002104F003FA002004F03EFA08B0B0BD55
:1008200010B588B000208DF81E0040F20800C2F21A
:10083000000003904FF40060049042F24C40C4F278
:10084000010001904FF48070ADF81C004FF400706F
:1008500002900120002405904FF44050C4F202049D
:10086000069001AA2046002104F0B2FA2046002199
:1008700004F08CFA2046002104F064FA4FF4C02002
:1008800003F063FF42F20044C4F2010420464FF437
:100890008071012203F0D1FF20460221002203F0E3
:1008A000CCFF2046002103F00CFF2046002103F07E
:1008B000AAFF20460121012203F0E6FE2046012185
:1008C0004FF4602203F030FF20460121012203F0A3
:1008D0000FFF204600210022022303F042FF2046A2
:1008E00003F0FDFE204603F0BFFE204603F0F2FEBB
:1008F00045F20000CFF6FF702158002241F00101BF
:1009000021500020002104F089F9002004F0C4F9EE
:1009100008B010BD70B540F60004C4F2010404F53F
:1009200000663046042104224FF4005304F05EFBBD
:100930003046042104224FF4004304F057FB04F531
:100940008065284604210422022304F04FFB284638
:10095000042104224FF4805304F048FB284604216C
:100960000422202304F042FB3046042104224FF4E9
:10097000804304F03BFB204604210422802304F042
:1009800035FB284604210422012304F02FFB2846CE
:1009900004210422042304F029FB28460421042214
:1009A0004FF4004304F022FB2046042104224FF4BC
:1009B000806304F01BFB2846042104224FF480735B
:1009C00004F014FB2046042104224FF4007304F0C9
:1009D0000DFB2046042104224FF4807304F006FB33
:1009E0002846042104224FF4804304F0FFFA2846ED
:1009F000042104224FF4005304F0F8FA20460421A5
:100A00000422012304F0F2FA2046042104220223E6
:100A100004F0ECFA204604210422042304F0E6FA50
:100A2000204604210422082304F0E0FA2046042191
:100A30000422202304F0DAFA204604210422402371
:100A400004F0D4FA204604210422102304F0CEFA44
:100A50002846042104224FF4806304F0C7FA284694
:100A6000042104224FF4006304F0C0FA204604215C
:100A700004224FF4805304F0B9FA204604210422E2
:100A80004FF40063BDE8704004F0B0BA70B540F6B2
:100A90000004C4F2010404F500663046102104226B
:100AA0004FF4005304F0A2FA3046102104224FF410
:100AB000004304F09BFA04F58065284610210422C7
:100AC000022304F093FA2846102104224FF48053A5
:100AD00004F08CFA284610210422202304F086FA20
:100AE0003046102104224FF4804304F07FFA204660
:100AF00010210422802304F079FA284610210422D0
:100B0000012304F073FA284610210422042304F080
:100B10006DFA2846102104224FF4004304F066FACF
:100B20002046102104224FF4806304F05FFA284627
:100B3000102104224FF4807304F058FA204610214B
:100B400004224FF4007304F051FA204610210422CD
:100B50004FF4807304F04AFA2846102104224FF41F
:100B6000804304F043FA2846102104224FF4005336
:100B700004F03CFA204610210422012304F036FA46
:100B8000204610210422022304F030FA20461021CE
:100B90000422042304F02AFA204610210422082308
:100BA00004F024FA204610210422202304F01EFA27
:100BB000204610210422402304F018FA2046102178
:100BC0000422102304F012FA2846102104224FF4C4
:100BD000806304F00BFA2846102104224FF40063CE
:100BE00004F004FA2046102104224FF4805304F04C
:100BF000FDF92046102104224FF4006304F0F6F9B9
:100C0000284610210422082304F0F0F92846102178
:100C10000422102304F0EAF92046102104224FF4A4
:100C20000043BDE8704004F0E1B9B0B588B00446B7
:100C300046F2004540F21970C4F2000504F038FE97
:100C4000284603F022FE4FF40130CDF815000020B5
:100C5000CDF8190021798DF81D008DF8141005A923
:100C6000284603F0CDFE2068FA2818BFB0F57A7F39
:100C700017D14FF47A714143284603F085FE0020D6
:100C8000CDF80A00CDE9000060790121ADF80E1021
:100C9000ADF8080068468DF8101003F009FE08B0A2
:100CA000B0BDB0F5FA7FE4D04EF64801C0F20101C4
:100CB000E2E710B54FF4C06004F0FAFD40F20260C4
:100CC00004F0F6FD40F60004C4F201042046482179
:100CD00003224FF4006304F089F92046182103220F
:100CE0004FF48053BDE8104004F080B980B541F264
:100CF0000000C4F201001C2104224FF4004304F060
:100D000075F902200F2104F02FF94FF40040002163
:100D1000002204F0BEF84FF4004004F003F928204C
:100D200001210022BDE8804004F0C3BC70B540F64C
:100D30000005C4F2010505F5806420460421042263
:100D40004FF4804304F052F92046042104224FF46A
:100D5000005304F04BF9284604210422042304F034
:100D600045F9284604210422082304F03FF92846C7
:100D700004210422402304F039F9284604210422E6
:100D8000012304F033F9284604210422202304F02F
:100D90002DF9284604210422022304F027F92846CD
:100DA000042104224FF4004304F020F920460421DA
:100DB00004224FF4806304F019F920460421042230
:100DC0004FF4006304F012F92846042104224FF482
:100DD000805304F00BF92846042104224FF40063E9
:100DE00004F004F9284604210422102304F0FEF83C
:100DF000204604210422082304F0F8F82846102194
:100E000004224FF4007304F0F1F828461021042264
:100E10004FF4807304F0EAF82046102104220223E4
:100E200004F0E4F82046102104224FF4805304F02B
:100E3000DDF805F500663046102104224FF48043AA
:100E400004F0D4F83046102104224FF4005304F08B
:100E5000CDF8204610210422202304F0C7F83046A4
:100E6000102104224FF4004304F0C0F82046102162
:100E700004224FF4807304F0B9F8284610210422AC
:100E8000802304F0B3F8204610210422012304F04B
:100E9000ADF8204610210422042304F0A7F82046D0
:100EA000102104224FF4004304F0A0F8284610213A
:100EB00004224FF4806304F099F8204610210422A4
:100EC000102304F093F840F20020C0F2300001211A
:100ED000BDE8704004F0E6B870B540F60004C4F216
:100EE00001042046042104224FF4007304F07EF82C
:100EF0002046042104224FF4807304F077F804F5AF
:100F00008065284604210422022304F06FF8284655
:100F1000042104224FF4805304F068F804F50066BD
:100F20003046042104224FF4804304F05FF8304639
:100F3000042104224FF4005304F058F828460421F9
:100F40000422202304F052F83046042104224FF4F6
:100F5000004304F04BF82846042104224FF4807328
:100F600004F044F8204604210422802304F03EF8D3
:100F7000284604210422012304F038F828460421DD
:100F80000422042304F032F82846042104224FF4FA
:100F9000004304F02BF82046042104224FF4806320
:100FA00004F024F8284604210422102304F01EF83B
:100FB0002846102104224FF4804304F017F82846F5
:100FC000102104224FF4005304F010F820461021A1
:100FD0000422042304F00AF82046102104220823E6
:100FE00004F004F8204610210422402303F0FEFF01
:100FF000204610210422012303F0F8FF204610218F
:101000000422202303F0F2FF2046102104220223B1
:1010100003F0ECFF2046102104224FF4004303F0BC
:10102000E5FF2846102104224FF4806303F0DEFF21
:101030002846102104224FF4006303F0D7FF204616
:10104000102104224FF4805303F0D0FF20461021DA
:1010500004224FF4006303F0C9FF2046102104224C
:10106000102303F0C3FF284610210422082303F0B5
:10107000BDFF40F20020C0F230000121BDE8704009
:1010800004F010B870B540F2026004F011FC40F2B8
:10109000036004F00DFC40F2046004F009FC40F22F
:1010A000096004F005FC40F20A6004F001FC012034
:1010B00004F03EFB4FF4A06004F0FAFB40F21D7018
:1010C00004F0F6FB4FF4C06004F0F2FB40F60004BD
:1010D000C4F2010404F580652846102104224FF46F
:1010E000807303F083FF28464FF4807103F03AFFCA
:1010F00004F500663046102104224FF4804303F0CB
:1011000075FF204610210422802303F06FFF28463C
:1011100010210422012303F069FF28461021042234
:10112000042303F063FF2846102104224FF40043F8
:1011300003F05CFF2046102104224FF4806303F08B
:1011400055FF3046042104224FF4005303F04EFFB4
:101150003046042104224FF4004303F047FF2846A1
:1011600004210422022303F041FF28460421042223
:101170004FF4805303F03AFF284604210422202331
:1011800003F034FF2846102104224FF4007303F0CB
:101190002DFF2046282104224FF4005303F026FFA0
:1011A0002046282104224FF4804303F01FFF2046ED
:1011B000282104224FF4004303F018FF2846282179
:1011C0000422082303F012FF2846282104221023BA
:1011D00003F00CFF40F20020C0F23000012103F0C8
:1011E00061FF2046182104224FF4007303F0FEFE35
:1011F0002046182104224FF4807303F0F7FE28469E
:10120000182104224FF4804303F0F0FE28461821F1
:1012100004224FF4005303F0E9FE2046002104228B
:10122000012303F0E3FE204600210422022303F001
:10123000DDFE204600210422042303F0D7FE2046D1
:1012400000210422082303F0D1FE204600210422BD
:10125000202303F0CBFE204600210422402303F08C
:10126000C5FE2046002104221023BDE8704003F093
:10127000BDBE000070B544F60004C4F2000404F5DD
:10128000DC36054630460121022203F091FD30464E
:10129000012103F045FD304601212A4603F0DAFD25
:1012A0002046802104F0D9FE3046012103F04AFD9A
:1012B0002046062104F0E8FE08B900BFF8E7204602
:1012C000062104F0D5FE20460021BDE8704004F060
:1012D000C4BE2DE9F04F87B005464FF4A06004F07E
:1012E000E7FA40F2127004F0E3FA40F2065004F01C
:1012F000DFFA44F600046869C4F20004002704F52C
:10130000DC36E8468DF81A70CDE9020704F10409CD
:101310004FF4807A4FF4805B304602214246CDF88C
:101320000090ADF818A001970497CDF814B003F021
:101330004FFD3046022103F029FD3046022103F023
:1013400001FD296901208DF81A00CDE90217304608
:1013500001214246CDF80090ADF818A00197CDE9E3
:10136000047B03F035FD3046012103F0FDFC3046DF
:10137000012103F0E7FC204604F02CFE29682046FA
:1013800004F0EBFD6968204604F092FEE96820460F
:1013900004F0BDFEA968204604F0ABFE2046002103
:1013A00004F010FE2046002104F07CFE20460021BF
:1013B00004F072FE204604F089FE2046322104F03B
:1013C0008CFE2046402104F042FE2046802104F09D
:1013D00044FE2046082104F094FE2046042104F037
:1013E0006FFE204604F03FFE07B0BDE8F08F00001E
:1013F000B0B544F600050446C4F20005284642F2A2
:10140000102104F041FE0028F8D12046BDE8B0408C
:10141000FFF730BF10B54FF4C06004F049FA40F256
:10142000036004F045FA40F60044C4F2010420468B
:10143000182103224FF4806303F0D8FD20460421D5
:1014400003224FF40063BDE8104003F0CFBD2DE947
:10145000F04F8FB0054640F2015004F029FA40F2F7
:101460000F7004F025FA43F60049A868C4F2000999
:10147000002709F5E4360DF120088DF83A70CDE922
:101480000A0709F10C044FF4807A4FF4405B3046B0
:10149000002142460894ADF838A009970C97CDF882
:1014A00034B003F095FC3046002103F06FFC304669
:1014B000002103F047FC696801208DF83A00CDE96E
:1014C0000A173046012142460894ADF838A0099722
:1014D000CDE90C7B03F07CFC484604F030FA01AE09
:1014E000304604F079FA28680C352ECDCDE9011785
:1014F000CDE9030748463146CDE90553079204F08C
:1015000047FA484604F063FA484604F05BFA484656
:1015100004F010FA0FB0BDE8F08FB0B540F200450E
:10152000C4F2020504462846002103F0F9FB2846D0
:101530000021224603F08EFCA5F5E430012104F0E1
:10154000F0F928460021BDE8B04003F0FBBBB0B580
:1015500040F20045C4F2020504462846012103F08A
:10156000DFFB28460121224603F074FCA5F5E43098
:10157000002104F0D6F928460121BDE8B04003F06F
:10158000E1BB0000B0B540F20044C4F202040546DD
:101590002046012103F0C4FB204601212A4603F026
:1015A00059FCA4F5E4352846002104F0BAF9204698
:1015B000012103F0C7FB00BF20460121022203F0F6
:1015C000FEFB0028F8D020460121022203F0F0FBA8
:1015D00028460021BDE8B04004F098B90220FFF78A
:1015E0009CBF0000B0B543F600450446C4F20005B8
:1015F0002846022104F0C7F90028F9D02046BDE8AA
:10160000B040FFF7BFBF10B54FF4C06004F050F911
:1016100040F2036004F04CF940F2026004F048F933
:1016200040F60044C4F2010420461821032210238E
:1016300003F0DCFC204604210322202303F0D6FC27
:10164000204604210322082303F0D0FCA4F5806087
:10165000042103224FF4004303F0C8FC40F20020B1
:10166000C0F230000121BDE8104003F01BBDF0B511
:101670008BB00646450840F20B6004F019F942F6BB
:101680000044C4F20104204604F040FB0027FF2080
:101690000996ADF81C70ADF82870CDF81E708DF865
:1016A0002A0007A9204604F0DAFB0120C0F204005A
:1016B00004AE0697CDE9040720460021324604F027
:1016C000C5F9204601213246012604F0BFF9204623
:1016D0000021002204F0F8FA20460021002204F044
:1016E0009BF920460121002204F0EEFA2046012158
:1016F000002204F091F9204600212A4604F0C2FAA3
:1017000020460021602204F0A1FA20460021002298
:1017100004F0BEFA204601212A4604F0B3FA20461E
:101720000121702204F092FA20460121002204F0E7
:10173000AFFA4FF48040CDE900760290694620462A
:10174000ADF80C7004F055F919200221002203F0C5
:10175000B0FF2046012104F0E3FB204604F07AFBB1
:101760000BB0F0BD10B584B004464FF4E06004F057
:101770009FF84FF0804004F0C9FA00200294ADF8C1
:101780000000ADF80C00CDF802008DF80E0069469F
:101790004FF0804004F063FB1C200121002203F085
:1017A00088FF4FF08040012104F0BAFB4FF08040E9
:1017B000012104F0C9FB4FF0804004F015F94FF00F
:1017C000804004F047FB04B010BD70B588B00646F9
:1017D000450840F2027004F06BF840F60004C4F2D1
:1017E0000004204604F092FA06960026FF20ADF889
:1017F0001060ADF81C60CDF812608DF81E0004A9D1
:10180000204604F02CFB0120C0F204000396CDE931
:10181000010601AA2046022104F018F920460221FF
:10182000002204F051FA20460221002204F0F4F8CC
:10183000204602212A4604F025FA20460221602291
:1018400004F004FA20460221012204F03DFA204669
:101850000221002204F01CFA1E200221002203F0C3
:1018600028FF2046012104F05BFB204604F0F2FA39
:1018700008B070BDB0B584B0054640F2037004F006
:1018800017F840F60044C4F20004204604F03EFA83
:1018900000200295ADF80000ADF80C00CDF8020074
:1018A000FF208DF80E006946204604F0D8FA204645
:1018B000012104F035FB4EF28410CEF200004FF40B
:1018C00080210160BFF34F8F2046BFF36F8F04F07C
:1018D000C1FA04B0B0BDB0B50025C4F2020504469B
:1018E0002846042103F01CFA28460421224603F06E
:1018F000B1FAA5F54840402104F0A9FB284604218F
:10190000BDE8B04003F01EBA70B543F60004C4F25F
:10191000010404F54846054630460321022203F03F
:1019200047FA3046032103F0FBF9304603212A46EB
:1019300003F090FA2046802104F08FFB304603210B
:1019400003F000FA2046062104F09EFB08B900BF10
:10195000F8E72046062104F08BFB20460021BDE875
:10196000704004F07ABB2DE9F04F87B005464FF484
:10197000A06003F09DFF40F20E6003F099FF40F27B
:10198000065003F095FF686943F600040027C4F28F
:1019900001048DF81A70CDE9020704F104094FF42F
:1019A000807A322004F54846E846CDF80090ADF83C
:1019B00018A0019704904FF4005B30460421424682
:1019C000CDF814B003F004FA3046042103F0DEF938
:1019D0003046042103F0B6F9296901208DF81A0078
:1019E000CDE90217304603214246CDF80090ADF80C
:1019F00018A00197CDE9047B03F0EAF930460321F2
:101A000003F0B2F93046032103F09CF9204604F0BC
:101A1000E1FA2968204604F0A0FA6968204604F03B
:101A200047FBE968204604F072FBA968204604F0F1
:101A300060FB2046002104F0C5FA2046002104F096
:101A400031FB2046002104F027FB204604F03EFB3A
:101A50002046FF2104F041FB2046402104F0F7FA24
:101A60002046802104F0F9FA2046082104F049FBC1
:101A70002046042104F024FB204604F0F4FA07B0C9
:101A8000BDE8F08FB0B543F600050446C4F2010589
:101A9000284642F2102104F0F7FA0028F8D1204637
:101AA000BDE8B040FFF730BF10B54FF4C06003F0A1
:101AB000FFFE40F2036003F0FBFE0420C4F20100CD
:101AC000016840F6004441F00401C4F201040160E1
:101AD000204618210322402303F088FA20460421DF
:101AE00003228023BDE8104003F080BA000000000C
:101AF0002DE9F04F81B040F20818C2F2000842F21E
:101B0000437018F80010002902F098814EF200127C
:101B10000021CEF2000208F800104FF08050C2F809
:101B20008000BFF34F8F43F6F03BBFF36F8FC2F2DD
:101B3000000BD8E90840D8E90A12D8E900E9D8E949
:101B400002A3D8E90476CBE90840B8F83000D8E918
:101B5000065CCBE90A1246F24B11CBE900E9CBE96E
:101B600002A3CBE90476ABF83000C0F6000158467A
:101B7000CBF81850CBF81CC0FEF738FB43F6404AB0
:101B8000C2F2000A0FF2407103220546CAF80000B3
:101B9000FEF71EFB002800F0A3809BF80060102ECB
:101BA00000F09E800FF6C07128460322FEF710FB5E
:101BB000AD2E18BF002840F0E68046F24B11C0F66B
:101BC00000010020FEF712FBCAF80000054600687D
:101BD00044F25256C4F24146B04200F03E819BF8B6
:101BE0000170FD2F00F039810FF680712846072221
:101BF000FEF7EEFA5A2F18BF002840F0A8820028FE
:101C000000F07786FFF7FFFC9BF802009BF80310BB
:101C100043F6444841EA002043F6E235C2F20008A8
:101C2000C2F200050021A8F800002980B0B340F2FC
:101C3000080640F2ED07C2F20006C2F200074FF4B8
:101C4000045400BFFEF7E2FC3088718800BA000C33
:101C5000A7F8070008BAB188000CA7F8090008BA6D
:101C6000F188000CA7F80B0008BA3189000CA7F81E
:101C70000D0008BA7189000CA7F80F00080A7874E3
:101C80000E20B974A7F81340FFF7ACFC2888B8F809
:101C90000010013082B28A422880D3D340F600057A
:101CA000C4F2000505F582342046042104222023D5
:101CB00003F09CF9204628210422102303F096F912
:101CC000204628210422082303F090F905F58030EE
:101CD000282104224FF4004303F088F902F0A0B851
:101CE00046F24B11C0F600010020FEF77FFACAF859
:101CF00000000546008844F64F67B84200F0818036
:101D00009BF80160052E7CD046F26411C0F60001FC
:101D100028460322FEF75CFA0A2E18BF002840F07E
:101D2000018140F60000C4F2000000F59234204624
:101D30000021002203F0C8FF20460021002203F00A
:101D40006BFE20460121002203F0BEFF2046012148
:101D5000002203F061FEDAF8000046F26411C0F6DA
:101D600000010322FEF734FA002842F0538046F2C5
:101D7000D83108F13200C0F600010A22FEF704FA59
:101D80000A2002F04BB846F26011C0F60001284666
:101D90000322FEF71DFADC2E18BF002840F0088150
:101DA000FEF73EFDFFF71AFC43F64741C2F2000181
:101DB0000125DAF800000D7046F26011C0F600014E
:101DC0000322FEF705FA002800F0398240F2BC0039
:101DD000BBF80110C2F20000057008BA020C43F60D
:101DE000EC30C2F2000002800020002102F016FF59
:101DF000002002F051FFFFF706FCAC2088F832000B
:101E00004EE240F60000C4F2000000F59234204695
:101E10000021012203F058FF20460021042203F094
:101E2000FBFD20460121012203F04EFF2046012147
:101E3000042203F0F1FDDAF800000088B84241F016
:101E4000E98746F2E43108F13200C0F600010B22C6
:101E5000FEF79AF90B2001F0E1BF40F2080743F6C4
:101E600024450024C2F20007C2F20005FEF7CEFBB3
:101E7000002000BF37F8101055F82020114445F815
:101E8000201001300628F5D101340A2CEED3DAF8FF
:101E900000000068B04200F0198295E88E004CF610
:101EA000CD40CCF6CC40A1FB0061A2FB0062A3FBBD
:101EB0000036A7FB00372B694FF0110AA3FB003453
:101EC0006B69A3FB0003C808C90A88F8321088F8B8
:101ED00033002020D108D20A88F8340088F8352051
:101EE00088F83610F108F20A88F8370088F83820A8
:101EF00088F83910F908FA0A88F83A0088F83B207F
:101F000088F83C10E108E20A88F83D0088F83E2095
:101F100088F83F1088F84000D80800BA000CA8F8EC
:101F200041009FE3286845F24621C5F24511401A59
:101F300018BF0120FC2E18BF002840F02081002887
:101F400000F0B2849BF802009BF8031041EA0020E5
:101F5000FEF784FA9FEDD80B02460B4651EC100BAE
:101F6000FEF70DFA9FEDD60B53EC102BFEF760F940
:101F7000FEF792FAFFF77BFB40F60000C4F2000088
:101F800000F5923420460021012203F09DFE2046F8
:101F90000021042203F040FD20460121012203F02C
:101FA00093FE20460121042203F036FD01F032BFEA
:101FB000286845F24701C4F64971401A18BF01204C
:101FC0006F2E18BF002840F0F78046F24B11C0F684
:101FD00000010020FEF70AF9CAF80000016844F287
:101FE0005252C4F241420546881A18BF012091425C
:101FF00000F044839BF80190B9F17D0F00F03E831F
:1020000046F27111C0F6000128460722FEF7E0F8FB
:10201000B9F17F0F18BF002840F0F384FEF77AFC77
:10202000DAF8000046F27111C0F600010722FEF74F
:10203000CFF8002801F0AC8040F60005C4F200059E
:10204000002005F58434C8F8320020464FF40051D2
:1020500003F023F80138B0FA80F098F83210400904
:1020600040EA410088F8320020464FF4804103F0F6
:1020700014F80138B0FA80F098F83210400940EABC
:10208000410088F8320020464FF4004103F005F883
:102090000138B0FA80F098F83210400940EA410067
:1020A00005F5803488F832002046012102F0F5FF62
:1020B0000138B0FA80F098F83210400940EA410047
:1020C00088F832002046022102F0E7FF0138B0FA1A
:1020D00080F098F83210400940EA410088F8320058
:1020E0002046042102F0D9FF0138B0FA80F098F8B8
:1020F0003210400940EA410088F8320020460821A9
:1021000002F0CBFF0138B0FA80F098F832104009A5
:1021100040EA410088F832002046102102F0BDFF5D
:102120000138B0FA80F098F83210400940EA4100D6
:1021300088F832002046202102F0AFFF012841F04C
:102140003E8098F832004000013001F03BB846F282
:102150006811C0F6000128460822FEF739F8372F2B
:1021600018BF002840F0E182002800F019869BF893
:102170000250AC20012488F8320000F03ABE2888D2
:1021800045F24441401A18BF0120D12E18BF002843
:1021900040F01283002800F0818542F62C40C4F202
:1021A0000100816921F0FF0181619BF802108269C1
:1021B0001143816101F02EBE286844F25511C5F229
:1021C0005241401A18BF0120CA2E18BF002840F003
:1021D0002D8346F24B11C0F600010020FEF706F8F1
:1021E000CAF80000008844F65455A84204D09BF871
:1021F0000000CA2841F0148640F2C0000FF67412A5
:10220000C2F20000DFF86C19D2E90137D26800F1A0
:10221000140C8CE88A0002621020FFF7E9F8DAF863
:1022200000000088A84241F0F58508F132000FF661
:1022300058111522FDF7A8FF152001F0EFBD46F259
:102240004B11C0F6000100200024FDF7CFFFCAF8B3
:1022500000000178A1F13002092A0FD800220024E1
:1022600004EB84035B00013253FA81F391B2415CC9
:10227000A3F13004A1F130070A2FF1D3A2B200205C
:10228000002102F0CBFC002002F006FD46F2A41172
:1022900008F13200C0F600010D220D25FDF774FF94
:1022A0002846FFF7EFFB40F20810C2F2000032218F
:1022B000FDF783FF01F0C2BD00000000004CFD40AF
:1022C000000000000000F0BF50574D0028684CF699
:1022D000CD46CCF6CC46A0FB060E42F23A00A8F85A
:1022E000360044F24920C5F2553044F6D35BC8F8B5
:1022F0003200CEF3CF00C1F2620BA0FB0B2348F2F9
:102300001F599A09C5F2EB19A0FB0937A2FB063C3D
:102310007B09A0FB0607A3FB0604F808A0FB0671D7
:102320004FEADC0707EB8707A2EB4702C90842F038
:102330003002E70801EB810188F838204FEADE021D
:1023400007EB8707A0EB410100EB8000A3EB4703FD
:10235000A2EB400043F0300341F0300140F0300088
:1023600088F8393088F83A1088F83B0040F60D209C
:10237000A8F83C000C204FF00C0AFFF783FB6868BC
:10238000A0FB060E42F23A00A8F8360044F25610BE
:10239000C4F64340C8F83200CEF3CF00A0FB0B23B5
:1023A0009A09A0FB0937A2FB063C7B09A0FB0607A4
:1023B000A3FB0604F808A0FB06714FEADC0707EB55
:1023C0008707A2EB4702C90842F03002E70801EB99
:1023D000810188F838204FEADE0207EB8707A0EB7F
:1023E000410100EB8000A3EB4703A2EB400043F068
:1023F000300341F0300140F0300088F8393088F87F
:102400003A1088F83B0040F60D20A8F83C000C205C
:10241000FFF738FBA868A0FB060E44F64940C2F25D
:102420003A00C8F83200CEF3CF00A0FB0B239A0984
:10243000A0FB0937A2FB063C7B09A0FB0607A3FB18
:102440000604F808A0FB06714FEADC0707EB8707D4
:10245000A2EB4702C90842F03002E70801EB810114
:1024600088F836204FEADE0207EB8707A0EB410130
:1024700000EB8000A3EB4703A2EB400043F03003E6
:1024800041F0300140F0300088F8373088F83810DB
:1024900088F8390040F60D20A8F83A000A20CB460B
:1024A000FFF7F0FAE86844F6D359A0FB060E42F2B3
:1024B0003A00A8F8360044F25450C5F24D00C8F86E
:1024C0003200CEF3CF00C1F26209A0FB09239A09C2
:1024D000A0FB0B37A2FB063C7B09A0FB0607A3FB76
:1024E0000604F808A0FB06714FEADC0707EB870734
:1024F000A2EB4702C90842F03002E70801EB810174
:1025000088F838204FEADE0207EB8707A0EB41018D
:1025100000EB8000A3EB4703A2EB400043F0300345
:1025200041F0300140F0300088F8393088F83A1036
:1025300088F83B0040F60D20A8F83C000C20FFF77F
:10254000A1FA2869A0FB060E42F23A00A8F836006C
:1025500044F25610C4F64350C8F83200CEF3CF0010
:10256000A0FB09239A09A0FB0B37A2FB063C7B09C1
:10257000A0FB0607A3FB0604F808A0FB06714FEAC0
:10258000DC0707EB8707A2EB4702C90842F03002DD
:10259000E70801EB810188F838204FEADE0207EBFB
:1025A0008707A0EB410100EB8000A3EB4703A2EB00
:1025B000400043F0300341F0300140F0300088F833
:1025C000393088F83A1088F83B0040F60D20A8F81A
:1025D0003C000C20FFF756FA6869A0FB060142F2A6
:1025E0003A00A8F8360044F25620C5F25530C8F833
:1025F0003200C1F3CF00A0FB09239A09A0FB0B37DF
:10260000A2FB06357B09A0FB0607A3FB0604F8081E
:10261000A0FB0676EF0807EB8707A2EB470242F024
:10262000300288F83820E20802EB8202A3EB420273
:1026300042F0300288F83920F20802EB8202C90821
:10264000A0EB420200EB8000A1EB400042F0300220
:1026500040F0300088F83A2088F83B0040F60D2022
:10266000A8F83C005046FFF70DFA43F62440C2F2AA
:1026700000001821FDF7A1FD01F0D2BB002800F0F9
:102680003E8340F60005C4F20005002005F58434C1
:1026900088F8320020464FF4005102F0FEFC013869
:1026A000B0FA80F098F83210400940EA410088F80A
:1026B000320020464FF4004102F0EFFC0138B0FA3E
:1026C00080F098F83210400940EA410005F5823464
:1026D00088F832002046022102F0DFFC0138B0FA0F
:1026E00080F098F83210400940EA410088F8320042
:1026F00020464FF4805102F0D0FC0138B0FA80F04F
:1027000098F83210400940EA410088F8320020462B
:10271000202102F0C2FC0138B0FA80F098F83210A3
:10272000400940EA410001F076BB286845F2534574
:10273000C5F24F05401B18BF0120302F18BF0028DD
:1027400041F06E8340F60006C4F2000606F58430C0
:10275000042104224FF4004302F048FC06F58234C1
:10276000204604210422202302F040FC2046282198
:102770000422102302F03AFC2046282104220823D8
:1027800002F034FC06F58030282104224FF4004387
:1027900002F02CFCDAF800000068A84241F03A830D
:1027A00046F2945108F13200C0F600011122FDF703
:1027B000EBFC112001F032BB288844F24431401A6E
:1027C00018BF0120DC2E18BF002841F02983002803
:1027D00000F0F68342F62C40C4F2010090ED000AAE
:1027E0009FEDEF2AB8EE400A9BF8021001EE101A96
:1027F000B8EE411A81EE021A21EE000ABCEEC00AC0
:1028000080ED020A90ED000AB8EE400A9BF8021033
:1028100001EE101AB8EE411A81EE021A21EE000AFA
:10282000BCEEC00A80ED030A01F0F4BADDA128462F
:102830000322FDF7CDFCC52E18BF002840F0DC8137
:1028400046F24B11C0F600010020FDF7CFFCCAF89C
:102850000000008844F65455A84204D09BF80000BC
:10286000C52841F0DD8240F21400C2F2000055217B
:10287000A0F8A010032180F8A41045F24D01A0F8A3
:102880000B1053214173FDF7D9FEDAF800000088E0
:10289000A84241F0BF8208F13200C3A11322FDF724
:1028A00073FC132001F0BABA46F24B11C0F60001D6
:1028B0000020FDF79BFCCAF800000178A1F130026E
:1028C000092A00F233820022002300BF03EB8303B6
:1028D0005B00013253FA81F391B2415C303BA1F1CC
:1028E00030070A2FF2D398B2FDF7C9FD41EC100B67
:1028F0001EE246F24B11C0F6000100200024FDF755
:1029000075FCCAF800000178A1F13002092A00F232
:102910009A820022002300BF03EB83035B00013295
:1029200053FA81F391B2415C303BA1F130070A2F99
:10293000F2D343F6444943F6DE3AC2F20009C2F24A
:10294000000A00201904A9F80030AAF8000001F0DC
:1029500067824CF6CD4BCCF6CC4BFDF757FE40F2E0
:102960000800C2F20000008844F6D351C1F26201AF
:10297000A0FB0112910948F21F52C5F2EB12A0FB15
:102980000223A1FB0B27FF0807EB87075A09A1EBDE
:102990004701A2FB0B3541F0300188F83210E908FD
:1029A000A0FB0B3401EB8101E308A2EB4101A3FB87
:1029B0000B4641F0300188F83310F10801EB81013A
:1029C000A3EB410141F0300188F8341003EB83019F
:1029D000A0EB410040F0300088F8350040F60D20B3
:1029E000A8F836000620FFF74DF8BAF80000B9F84D
:1029F0000010013082B28A42AAF80000ADD301F083
:102A00000FBA286844F64816C4F64706801B18BF5C
:102A10000120B9F1FF0F18BF002840F0208240F6D6
:102A20000007C4F2000707F5843528464FF400512B
:102A300002F098FA28464FF4004102F093FA07F5A5
:102A400082342046022102F08DFA20464FF4805154
:102A500002F088FA2046202102F084FA28464FF43A
:102A6000804102F07FFA07F580352846802102F088
:102A700079FA2046012102F075FA2046042102F07D
:102A800071FA20464FF4004102F06CFA28464FF4E8
:102A9000806102F067FA20464FF4807102F062FA1A
:102AA00028464FF4007102F05DFA28464FF4807119
:102AB00002F058FA20464FF4804102F053FA2046C3
:102AC0004FF4005102F04EFA2846012102F04AFA72
:102AD0002846022102F046FA2846042102F042FA72
:102AE0002846082102F03EFA2846202102F03AFA50
:102AF0002846402102F036FA2846102102F032FA28
:102B000020464FF4806102F02DFA20464FF4006118
:102B100002F028FA28464FF4805102F023FA2846A2
:102B20004FF4006102F01EFA2046082102F01AFA62
:102B30002046102102F016FA28464FF4004102F018
:102B400011FADAF800000068B04241F0638146F201
:102B5000C83108F13200C0F600010F22FDF714FB66
:102B60000F2001F05BB900BF4144430053414D5079
:102B70004C45530048454C4C4F204D50513332305A
:102B800031300D0A000000005541525432205445A6
:102B90005354204D53472073656E640D0A000000A6
:102BA0000000C84243414E0043414E205445535417
:102BB000204D53472073656E640D0A0046414E0058
:102BC00046414E204F46460D0A00000000BF00BFA0
:102BD000000000000000000000000000004CFD406C
:102BE000000000000000F0BF414C4C204750494F0E
:102BF000204C4F570D0A0000AFF240012846032237
:102C0000FDF7E6FAFA2E18BF002841F0098146F2D6
:102C10004B11C0F600010020FDF7E8FACAF80000E9
:102C20000546008844F64F66B04200F06F849BF87A
:102C30000170F02F00F06A8446F26411C0F60001C2
:102C400028460322FDF7C4FA0F2F18BF002840F0D2
:102C5000C08740F60004C4F2000404F5823010215D
:102C600004224FF4807302F0C1F9204603F04EF8BD
:102C7000DAF8000046F26411C0F600010322FDF705
:102C8000A7FA002841F0C68008F13200AFF2D00167
:102C90000922FDF779FA092001F0C0B846F24B117C
:102CA00042F62C44C0F600010020C4F201040025C5
:102CB000FDF79CFACAF80000A16921F0FF01A161AB
:102CC0000178A1F13002092A0FD80022002303EB7A
:102CD00083035B00013253FA81F391B2415C303BD4
:102CE000A1F130070A2FF2D3DDB2A06946F2D41168
:102CF0002843A06108F13200C0F60001C3E140F6AC
:102D00000006C4F2000606F5843420464FF4005154
:102D100002F0C3F9012840F0BC8146F25C2108F1C1
:102D20003200C0F600010D220D25BAE11FED580B4F
:102D30001FED571B53EC102B51EC110BFDF71FFB34
:102D40001FED590B53EC102BFDF772FAFDF7A4FBA6
:102D5000FEF78DFC40F60000C4F2000000F592344E
:102D600020460021012202F0AFFF2046002104226C
:102D700002F052FE20460121012202F0A5FF20466A
:102D80000121042202F048FE46F2C41108F132008B
:102D9000C0F600010E22FDF7F7F90E2001F03EB853
:102DA00046F24B11C0F6000100200025FDF71EFA87
:102DB000CAF800000178A1F13002092A0FD80022D8
:102DC000002505EB85035B00013253FA81F391B2D4
:102DD000415CA3F13005A1F130070A2FF1D346F28F
:102DE000A85108F13200C0F6000112221224FDF7AA
:102DF000CBF92046FEF746FEFEF705FCFDF776FF11
:102E00004FF0FF3050FA85F0052807D8DFE810F0C2
:102E10000600110326033B035003650340F600053B
:102E2000C4F2000505F58E3420460121012201F08F
:102E30002BFC05F590300121002201F025FC2046F5
:102E4000002100225DE343F64440C2F2000004800A
:102E500043F6DE30C2F20000048000F0E1BF46F22B
:102E60008411C0F6000128460322FDF7B1F9B9F13B
:102E7000000F18BF002840F06E8340F60006C4F231
:102E8000000606F5843528464FF4005102F068F834
:102E900028464FF4004102F063F806F582342046DC
:102EA000022102F05DF820464FF4805102F058F8FC
:102EB0002046202102F054F828464FF4804102F0C9
:102EC0004FF806F580352846802102F049F8204663
:102ED000012102F045F82046042102F041F8204685
:102EE0004FF4004102F03CF828464FF4806102F0B4
:102EF00037F820464FF4807102F032F828464FF43C
:102F0000007102F02DF828464FF4807102F028F885
:102F100020464FF4804102F023F820464FF4005140
:102F200002F01EF82846012102F01AF82846022174
:102F300002F016F82846042102F012F8284608216B
:102F400002F00EF82846202102F00AF82846402117
:102F500002F006F82846102102F002F820464FF44D
:102F6000806101F0FDFF20464FF4006101F0F8FFA1
:102F700028464FF4805101F0F3FF28464FF40061DA
:102F800001F0EEFF2046082101F0EAFF2046102163
:102F900001F0E6FF28464FF4004101F0E1FFDAF8C6
:102FA000000046F28411C0F600010322FDF710F97B
:102FB000002840F02F8708F13200AFF2D431E9E663
:102FC00046F24B1142F62C44C0F600010020C4F238
:102FD0000104FDF70BF9CAF8000094ED000AB8EE01
:102FE000402A01789FEDE30AA1F13002092AB0EEF0
:102FF000403A13D80022002303EB83035B00013225
:1030000053FA81F391B2415C303BA1F130070A2FB2
:10301000F2D399B201EE101AB8EE413A9FEDD61AEA
:1030200083EE013A23EE022ABCEEC22A84ED022A84
:1030300094ED002AB8EE422A0178A1F13002092A63
:1030400013D80022002303EB83035B00013253FA01
:1030500081F391B2415C303BA1F130070A2FF2D3EA
:1030600098B200EE100AB8EE400A80EE010A46F26D
:10307000B41108F13200C0F6000120EE020ABCEEE5
:10308000C00A84ED030A0C22FDF77EF80C2000F044
:10309000C5BE46F2444108F13200C0F600010C22E0
:1030A0000C25FDF771F82846FEF7ECFC20464FF49E
:1030B000004101F0F2FF012808D146F24C2108F14D
:1030C0003200C0F600010E220E2407E046F2344121
:1030D00008F13200C0F600010D220D24FDF754F86E
:1030E0002046FEF7CFFC06F582342046022101F08F
:1030F000D4FF012808D146F29C2108F13200C0F625
:1031000000010D220D2507E046F2844108F132004E
:10311000C0F600010C220C25FDF736F82846FEF714
:10312000B1FC20464FF4805101F0B7FF012808D1CF
:1031300046F2343108F13200C0F600010B220B25B3
:1031400007E046F2145108F13200C0F600010A22ED
:103150000A25FDF719F82846FEF794FC20462021A1
:1031600001F09BFF012807D146F2243108F132001B
:10317000C0F600010F220EE646F2045108F13200BB
:10318000C0F600010E22FCF7FFFF0D2000F046BE46
:1031900040F60006C4F2000606F5843420464FF4DB
:1031A000005101F07AFF012840F0F48146F25C21E1
:1031B00008F13200C0F600010D220D25F2E198F869
:1031C0003300400088F833002046402101F065FFBD
:1031D000012804D198F832004000013002E098F84C
:1031E0003300400088F833002046802101F055FF6D
:1031F000012804D198F832004000013002E098F82C
:103200003300400005F5823588F833002846012157
:1032100001F043FF012804D198F83200400001304A
:1032200002E098F83300400088F833002846022175
:1032300001F033FF012804D198F83200400001303A
:1032400002E098F83300400088F833002846042153
:1032500001F023FF012804D198F83200400001302A
:1032600002E098F83300400088F8330028464FF415
:10327000806101F012FF012804D198F8320040006B
:10328000013002E098F83300400088F83300284607
:103290004FF4006101F001FF012804D198F83200D9
:1032A0004000013002E098F83300400088F8330015
:1032B00028464FF4805101F0F0FE012804D198F81F
:1032C00032004000013002E098F83400400088F8F5
:1032D000340028464FF4005101F0DFFE012804D1EC
:1032E00098F832004000013002E098F834004000C5
:1032F00088F8340028464FF4804101F0CEFE0128C2
:1033000004D198F832004000013002E098F834000F
:10331000400088F8340028464FF4004101F0BDFE1B
:10332000012804D198F832004000013002E098F8FA
:103330003400400088F8340020464FF4807101F0DA
:10334000ACFE012804D198F832004000013002E0C0
:1033500098F83400400088F8340020464FF400719B
:1033600001F09BFE012809D198F83200400001309D
:1033700007E000BF000000000000C84298F83400D9
:10338000400088F8340020464FF4806101F085FE4B
:10339000012804D198F832004000013002E098F88A
:1033A0003400400088F8340020464FF4006101F0FA
:1033B00074FE012804D198F832004000013002E088
:1033C00098F83400400088F8340020464FF48051CB
:1033D00001F063FE012804D198F83200400001306A
:1033E00002E098F83500400088F835002846202192
:1033F00001F053FE012804D198F83200400001305A
:1034000002E098F83500400088F8350028464FF46F
:10341000807101F042FE012804D198F8320040008A
:10342000013002E098F835004000042488F83500A7
:10343000C3E340F60005C4F2000505F58E342046CE
:103440000121012201F020F905F59030012100222F
:1034500001F01AF920460021012252E040F6000551
:10346000C4F2000505F58E3420460121012201F049
:103470000BF905F590300121002201F005F92046F5
:10348000002102223DE040F60004C4F2000404F5ED
:103490008E300121002201F0F7F804F59034204627
:1034A0000121012201F0F0F820460021032228E04A
:1034B00040F60004C4F2000404F58E30012100221D
:1034C00001F0E2F804F5903420460121012201F0D8
:1034D000DBF820460021052213E040F60004C4F288
:1034E000000404F58E300121002201F0CDF804F52E
:1034F000903420460121012201F0C6F82046002127
:103500000622052301F02DF900F08ABC40F60000E8
:10351000C4F2000000F58230182104224FF48073B9
:1035200001F064FD40F20770FEF74FF9DAF8000091
:103530000088B04240F06E8444F64F60C0F60D2023
:10354000C8F8360044F24610C2F24E00C8F8320005
:10355000082000F063BC0FF6EC3128460622FCF789
:1035600037FEB9F1CC0F18BF002840F0598300286E
:1035700000F09C839BF8020040F60005C007C4F2EF
:10358000000505F584304FF4804140F0BE8301F022
:10359000E7FCBCE346F2444108F13200C0F600010A
:1035A0000C220C25FCF7F0FD2846FEF76BFA2046AE
:1035B0004FF4804101F071FD012808D146F2E82165
:1035C00008F13200C0F600010D220D2507E046F299
:1035D000CC4108F13200C0F600010C220C25FCF7AA
:1035E000D3FD2846FEF74EFA20464FF4004101F085
:1035F00054FD012808D146F24C2108F13200C0F6F2
:1036000000010E220E2407E046F2344108F1320098
:10361000C0F600010D220D24FCF7B6FD2046FEF792
:1036200031FA06F580342046012101F036FD0128EB
:1036300008D146F2503108F13200C0F600010C22E8
:103640000C2507E046F22C5108F13200C0F60001CB
:103650000B220B25FCF798FD2846FEF713FA2046AF
:10366000022101F01AFD012808D146F2AC2108F12F
:103670003200C0F600010C220C2507E046F294410E
:1036800008F13200C0F600010B220B25FCF77CFD8F
:103690002846FEF7F7F92046042101F0FEFC012838
:1036A00008D146F2CC2108F13200C0F600010A220E
:1036B0000A2507E046F2B04108F13200C0F60001E9
:1036C00009220925FCF760FD2846FEF7DBF92046B4
:1036D000082101F0E2FC012808D146F2403108F14E
:1036E0003200C0F600010C220C2507E046F2205102
:1036F00008F13200C0F600010B220B25FCF744FD57
:103700002846FEF7BFF92046102101F0C6FC01282B
:1037100008D146F28C2108F13200C0F600010E22D9
:103720000E2507E046F2744108F13200C0F60001B0
:103730000D220D25FCF728FD2846FEF7A3F92046AB
:10374000202101F0AAFC012808D146F2043108F139
:103750003200C0F600010C220C2507E046F2E841D9
:1037600008F13200C0F600010B220B25FCF70CFD1E
:103770002846FEF787F92046402101F08EFC0128FB
:1037800008D146F2603108F13200C0F600010C2287
:103790000C2507E046F2385108F13200C0F600016E
:1037A0000B220B25FCF7F0FC2846FEF76BF92046B0
:1037B000802101F072FC012808D146F2B83108F1ED
:1037C0003200C0F600010D220D2507E046F28451BB
:1037D00008F13200C0F600010C220C25FCF7D4FCE5
:1037E0002846FEF74FF906F582352846012101F0FB
:1037F00054FC012808D146F22C2108F13200C0F611
:1038000000010A220A2607E046F2184108F13200B8
:10381000C0F6000109220926FCF7B6FC3046FEF787
:1038200031F92846022101F038FC012808D146F27E
:103830009C2108F13200C0F600010D220D2607E0A0
:1038400046F2844108F13200C0F600010C220C2639
:10385000FCF79AFC3046FEF715F92846042101F0E2
:103860001CFC012808D146F2382108F13200C0F6CC
:1038700000011022102607E046F2244108F1320030
:10388000C0F600010F220F26FCF77EFC3046FEF743
:10389000F9F828464FF4806101F0FFFB012808D1B8
:1038A00046F2A43108F13200C0F6000110221026C1
:1038B00007E046F2745108F13200C0F600010F2211
:1038C0000F26FCF761FC3046FEF7DCF828464FF483
:1038D000006101F0E2FB012808D146F2803108F1D5
:1038E0003200C0F600011022102607E046F25451C3
:1038F00008F13200C0F600010F220F26FCF744FC4D
:103900003046FEF7BFF828464FF4805101F0C5FB62
:1039100001280AD146F2343108F13200C0F6000124
:103920000C220C26FCF730FC09E046F2145108F199
:103930003200C0F600010C22FCF726FC0B263046B4
:10394000FEF7A0F828464FF4005101F0A6FB01282D
:1039500008D146F27C2108F13200C0F600010E22A7
:103960000E2607E046F2644108F13200C0F600017D
:103970000D220D26FCF708FC3046FEF783F828469A
:103980004FF4804101F089FB012808D146F2D8218B
:1039900008F13200C0F600010E220E2607E046F2C2
:1039A000BC4108F13200C0F600010D220D26FCF7E3
:1039B000EBFB3046FEF766F828464FF4004101F075
:1039C0006CFB012808D146F21C2108F13200C0F638
:1039D00000010C220C2607E046F20C4108F13200EF
:1039E000C0F600010B220B26FCF7CEFB3046FEF79B
:1039F00049F820464FF4807101F04FFB012808D1AF
:103A000046F26C2108F13200C0F600010E220E26AB
:103A100007E046F2544108F13200C0F600010D22E1
:103A20000D26FCF7B1FB3046FEF72CF820464FF48C
:103A3000007101F032FB012808D146F2BC2108F1E7
:103A40003200C0F600010E220E2607E046F2A04129
:103A500008F13200C0F600010D220D26FCF794FBA0
:103A60003046FEF70FF828464FF4005101F015FBE1
:103A7000012808D146F27C2108F13200C0F600018D
:103A80000E220E2607E046F2644108F13200C0F62D
:103A900000010D220D26FCF777FB3046FDF7F2FF03
:103AA00020464FF4806101F0F8FA012808D146F26F
:103AB000143108F13200C0F600010E220E2607E094
:103AC00046F2F44108F13200C0F600010D220D2645
:103AD000FCF75AFB3046FDF7D5FF20464FF4006156
:103AE00001F0DBFA012808D146F2703108F132000A
:103AF000C0F600010E220E2607E046F2445108F1FE
:103B00003200C0F600010D220D26FCF73DFB3046C9
:103B1000FDF7B8FF20464FF4805101F0BEFA0128AE
:103B200008D146F2943108F13200C0F600010E22AD
:103B30000E2407E046F2645108F13200C0F600019D
:103B40000D220D24FCF720FB2046FDF79BFF2846A5
:103B5000202101F0A2FA012808D146F2243108F10F
:103B60003200C0F600010F220F2407E046F2045194
:103B700008F13200C0F600010E220E24FCF704FB0F
:103B80002046FDF77FFF28464FF4807101F085FA4B
:103B9000012808D146F2F82108F13200C0F60001F0
:103BA0000B220B2407E046F2DC4108F13200C0F69C
:103BB00000010A220A24FCF7E7FA2046FDF762FF1B
:103BC000FDF760FAFDF770FFFDF724FCFDF771F8D3
:103BD00026E1288844F24431401A18BF0120DC2F26
:103BE00018BF002840F01C81002800F02A8140F610
:103BF0000000C4F2000090ED0B0A9FEDEE2AB8EE33
:103C0000400A9BF8021001EE101AB8EE411A81EE3C
:103C1000021A21EE000ABCEEC00A80ED0F0AF9E09C
:103C20000FF2285128460722FCF7D2FAB9F1AA0F61
:103C300018BF002810D143F63E450028C2F2000507
:103C400000F02B81BBF80200BBF8041000BA000C96
:103C5000288008BA040C5FE146F28011C0F600012A
:103C600028460322FCF7B4FAB9F1A00F18BF0028C8
:103C700040F0AE80FCF70AFF002000F0FEFFDAF80B
:103C8000000046F28011C0F600010322FCF7A0FA02
:103C9000002840F0BF8046F2F03108F13200C0F653
:103CA00000011822FCF770FA1820B7E046F24B1119
:103CB00040F60004C0F600010020C4F20004002613
:103CC000FCF794FACAF80000017843F6E435A1F154
:103CD0003002092AC2F2000500F23F8100220023CF
:103CE000013201EB4303D1B2415C303BA1F130071B
:103CF0000A2FF5D3D8072B6000F0308104F584300B
:103D00004FF4804101F02EF92EE101F02BF99BF8E0
:103D10000200800705D405F58030802101F020F9EC
:103D200004E005F58030802101F01CF99BF80200C9
:103D3000400705D405F58230012101F011F904E0B6
:103D400005F58230012101F00DF99BF80200000712
:103D500005D405F58230042101F002F904E005F5EF
:103D60008230042101F0FEF89BF80200C00606D460
:103D700005F582304FF4004101F0F2F805E005F559
:103D800082304FF4004101F0EDF89BF8020080060C
:103D900006D405F580304FF4806101F0E1F805E0CC
:103DA00005F580304FF4806101F0DCF89BF80200EB
:103DB000400606D405F582304FF4807101F0D0F84A
:103DC00028E005F582304FF4807101F0CBF821E056
:103DD00046F27911C0F6000128460622FCF7F8F9F0
:103DE000B9F1A40F18BF002840F02681FDF74AF969
:103DF00043F6EA31C2F200010022DAF800000A704C
:103E000046F27911C0F600010622FCF7E1F900281C
:103E100000F07781AC2088F832000120FDF732FEF7
:103E200040F20810C2F200003221FCF7C6F94EF24F
:103E300000114FF08050CEF20001086001B0BDE8E3
:103E4000F08F46F24B1140F60004C0F6000100204E
:103E5000C4F20004FCF7CAF9CAF8000094ED0B0A9A
:103E6000B8EE400A0178A1F13002092A00F20D8172
:103E70000022002303EB83035B00013253FA81F33A
:103E800091B2415C303BA1F130070A2FF2D398B2D6
:103E900001EE100AB8EE411AF9E046F24B11C0F6F5
:103EA000000100200024FCF7A1F9CAF80000017805
:103EB000A1F13002092A0FD80022002404EB840368
:103EC0005B00013253FA81F391B2415CA3F13004FB
:103ED000A1F130070A2FF1D346F24B11C0F60001D1
:103EE00000202C800024FCF781F9CAF8000001783A
:103EF000A1F13002092A0FD80022002404EB840328
:103F00005B00013253FA81F391B2415CA3F13004BA
:103F1000A1F130070A2FF1D3298843F63C4041F242
:103F20008832C2F20000914204803FF679AF43F636
:103F3000E930C2F20000012101704EF200114FF091
:103F40008050CEF20001C1F88000BFF34F8F4FF4D4
:103F50008020BFF36F8F486062E72E6004F58430E5
:103F60004FF4804100F0FCFF2878800705D404F569
:103F70008030802100F0F4FF04E004F580308021DF
:103F800000F0F0FF2878400705D404F582300121C5
:103F900000F0E6FF04E004F58230012100F0E2FFCA
:103FA0002878000708D404F58230042100F0D8FFF7
:103FB00007E000BF0000C84204F58230042100F091
:103FC000D1FF2878C00606D404F582304FF40041B2
:103FD00000F0C6FF05E004F582304FF4004100F028
:103FE000C1FF2878C00606D404F580304FF4806104
:103FF00000F0B6FF05E004F580304FF4806100F07A
:10400000B1FF2878C00606D404F582304FF48071E1
:1040100000F0A6FF05E004F582304FF4807100F057
:10402000A1FF46F2042108F13200C0F6000114227B
:10403000FCF7AAF81420F1E646F25011C0F6000190
:1040400028460722FCF7C4F8B9F1850F18BF0028ED
:104050002FD1FCF76BFE002000F00FFE43F6EA3193
:10406000C2F200010122DAF800000A7046F2501193
:10407000C0F600010722FCF7ABF8E8BB46F2881156
:1040800008F13200C0F6000149E09FED281A9FEDCB
:10409000262A08F1320081EE021A25A1102221EE13
:1040A000000ABCEEC00A84ED0F0AFCF76DF8102080
:1040B000B4E646F25811C0F6000128460722FCF784
:1040C00087F8B9F1580F18BF00287FF4A9AEFCF7A4
:1040D00003FF002000F0D1FD43F6EA31C2F20001F7
:1040E0000222DAF800000A7046F25811C0F6000108
:1040F0000722FCF76DF878B1AC2088F83200022076
:104100008CE646F2E41108F13200C0F600011F22ED
:10411000FCF73AF81F2081E608F132000DA11B22BE
:10412000FCF732F81B2079E60000C84200000000CE
:1041300046414E20444320555044415445440D0AC5
:1041400000000000435553544F4D0000504154545B
:1041500045524E004750494F2073657420617320CB
:104160006D6964646C65207465737420320D0A0097
:10417000F0B595B0FCF786FFFDF796FCFDF74AF920
:10418000FCF797FD40F20816C2F200064FF4E13545
:10419000002406F132000F95CDE910441294CDE9C8
:1041A00013060FA8FDF7DFFB2027012086F83270E9
:1041B000FDF768FCCDE9095440F2C005C2F20005E4
:1041C00005F11400CDE90B44CDE90D0509A8FDF773
:1041D00080F801202F75FDF70BF940F2ED00C2F2D7
:1041E0000000C11D05300294CDE90544CDE9074426
:1041F0000391049002A8FDF72AF94FF4FA70009099
:104200006846ADF80440FCF710FDFCF765FA40F293
:10421000AF40FDF72CFA0E20FDF72CFB40F6B7302F
:10422000FDF7A0FA15B0F0BD10B543F64844C2F250
:104230000004206842F647010130CBF2A3714143EC
:104240004EF633424FEA3111C0F20A029142206029
:1042500016D843F6D431C2F200010A7840F6004085
:10426000B2FA82F35B09C4F201000B704FF40071E3
:1042700022B100F075FE0020206001E000F072FE27
:10428000BDE81040FDF734BC4EF68851CEF2000177
:104290000A6841F2000042F47002C4F202000A60AF
:1042A00001684FF6FF7241F0010101600021416099
:1042B000C1620168CEF6F622114001604FF47F0121
:1042C0008160016821F480210160016841F480313E
:1042D000016040F2FF7100BF03684A1E8A4203D2A8
:1042E00013F400311146F7D00168890301D400BFEF
:1042F000FEE742F20001C4F202010A6822F007025E
:104300000A600A6842F003020A6041684FF6FF72D1
:1043100041604168CDF6C3724160416841F48061FB
:10432000416041681140416041684FF2000241F034
:10433000005141F454114160C16ACBF6FE72114044
:10434000C162C16A41F4843141F01901C16201685E
:1043500041F08061016000BF01680901FCD501687E
:1043600041F08071016000BF01688901FCD541689E
:1043700021F003014160416841F00201416000BF4A
:1043800041680907FCD54FF00060002101F0C4B975
:1043900010B542F60044C4F201042046012101F0A8
:1043A000C8FD28B120460121BDE8104001F0BCBD88
:1043B00010BD0000B0B54FF08040012101F0B9FD03
:1043C000C0B34FF080400121012401F0ADFD43F660
:1043D0004645C2F20005287868B340F20815C2F2DB
:1043E00000052878F0B143F60004C4F20104204629
:1043F00042F20B2101F048FE012813D1204642F27F
:104400000B2101F035FE42F24370012129544EF296
:104410008010CEF200004FF080510160BFF34F8F4B
:10442000BFF36F8F40F2BC00C2F200000078297821
:1044300008430ED0B0BD40F20810C2F20000323086
:1044400006A11022FBF7A0FE1020FDF71BFB2C702D
:10445000B0BD3220BDE8B040FDF73DBA53544152E3
:1044600054204F4B2056312E32320D0A00000000EE
:1044700010B540F60004C4F200042046012101F00A
:1044800058FD28B120460121BDE8104001F04CBD87
:1044900010BD00002DE9F04F81B040F60044C4F299
:1044A00000042046012101F044FD002800F0D980DD
:1044B0002046012101F038FD43F6E930C2F2000048
:1044C0000178002900F0CD8043F64C41C2F2000192
:1044D0000A884FF4FA56571C43F63C42C2F20002D7
:1044E000128843F63E49B6FBF2F543F6E036BBB21E
:1044F000C2F20006C2F200093288AB42B9F80030BD
:104500000F8052D99A4250D2002004F5823508809B
:1045100028464FF4005100F0C0FD318842F64C07A8
:104520000138C2F20007B0FA80F07A5C400940EA34
:104530004200785428464FF4004100F0AEFD318827
:104540000138B0FA80F07A5C400940EA420004F594
:10455000803478542046022100F09FFD31880138D4
:10456000B0FA80F07A5C400940EA42007854204674
:104570004FF4805100F091FD31880138B0FA80F09D
:104580007A5C400940EA420078542046202100F03D
:1045900084FD31880138B0FA80F07A5C400940EA45
:1045A00042007854481C30805BE09A4259D3002185
:1045B000017043F6E8304EF20012C2F20000CEF273
:1045C000000201704FF480203180C2F88400BFF3F4
:1045D0004F8FBFF36F8F3180B9F80000D0B343F62F
:1045E000EB3440F2081542F64C0A4FF0000BC2F2D1
:1045F0000004C2F20005C2F2000A00218FB21FFAC5
:1046000080F847454FF0000084F800B016D2FA4316
:104610004244E819312A28BF312232300AEB07011F
:104620000132FBF7B1FD0120312800F1010103D86F
:10463000384440450846F7D3481E2070C0B2FDF705
:1046400021FA308800F13201B9F800008AB28242C2
:104650003180D3D34EF200114FF08050CEF20001E2
:10466000086001B0BDE8F08F816841F00801816009
:1046700081680907FCD4816841F00401816000BFB2
:1046800081684907FCD4704780B5012908D0022908
:1046900018BF80BD4FF4401E6FF4401C382304E067
:1046A0004FF4700E6FF4700C2C23195801EA0C01B2
:1046B00019500EEB02511A5801EA0E01114319501C
:1046C00080BD8268002942F4006308BF22F40063C1
:1046D00083607047816841F48071816070478168B0
:1046E000C90718BF7047816841F0010181607047B8
:1046F000002A01F001020AD01AB1826842F4801245
:10470000826089070FD5816841F400410AE01AB13F
:10471000826822F480128260890758BF70478168DE
:1047200021F4004181607047012905D0022918BF9A
:1047300070476FF4E04101E06FF460218368194035
:104740008160816811438160704742F20441C4F284
:1047500001010A6822F470220A600A6810430860A6
:10476000704780B505290ED8D0F834C001EB810E12
:104770001F2101FA0EF12CEA010C02FA0EF141EAB6
:104780000C01416324E00B2910D801EB8101D0F822
:1047900030C0A1F11E0E1F2101FA0EF12CEA010C0E
:1047A00002FA0EF141EA0C01016311E010290FD267
:1047B00001EB8101D0F82CC0A1F13C0E1F2101FAC0
:1047C0000EF12CEA010C02FA0EF141EA0C01C16271
:1047D000092A04D800F1100C02EB420107E0112A6B
:1047E00088BF80BD02EB420100F10C0C1E39DCF8E1
:1047F00000200720884022EA000003FA01F1084364
:10480000CCF8000080BDD0F8802022F44052C0F8DF
:104810008020D0F880201143C0F880107047CA076C
:1048200003D0826842F480028260890758BF7047D3
:10483000816841F4001181607047002A01F48072A0
:1048400010D01AB1426842F4807242604A0503D522
:10485000426842F480624260890715D5816841F060
:10486000020110E01AB1426822F4807242604A05E7
:1048700003D5426822F480624260890758BF7047BE
:10488000816821F002018160704710B546F2004155
:10489000C4F2000140F21A44884208BF40F21944B1
:1048A000204601F024F82046BDE8104001F00FB882
:1048B000B0B546F20061C4F2000144890A684FF0C5
:1048C000010C42F001020A60CB690CFA04F5AB431B
:1048D000CB61C3896FEA050C012B10D023BBCB68D9
:1048E00003EA0C03CB60B0F806E0438843EA0E43CA
:1048F0004FEAC40E01EBC404236403460DE0CB6809
:104900002B43CB60B0F800E0438843EA0E434FEA04
:10491000C40E01EBC4042364831D84881B8843EA0E
:10492000044301EB0E04636483894C68002B44EA62
:10493000050208BF04EA0C024A6002894B69002A9A
:1049400043EA050408BF03EA0C044C61007C01281B
:1049500002D1C8692843C861086820F001000860D6
:10496000B0BD01F01F0289094FF0010C0B580CFA81
:1049700002F21A430A5070478A09105801F01F01C9
:10498000C84000F00100704770B544F24022C0F208
:104990000F02914284BF002070BD044600680125CB
:1049A00020F0020020602068CFF6FF7540F0010083
:1049B00020602846626820B112F0010200F1010077
:1049C000F8D06068C00701D1002008E0E06900F07D
:1049D0004046084600F06EF93043E061012021684E
:1049E00021F00301216000BF616825B111F00301CE
:1049F00005F10105F8D16168890718BF002070BD75
:104A0000F0B5026840F2010C22F002020260026876
:104A1000CFF6FF7C42F0010263460260426823B198
:104A200012F0010203F10103F8D04268D20704BF7B
:104A30000020F0BD0A7891F801E08B789207CC78DD
:104A400003F00F0503F070036EF31C624F8942EA16
:104A5000831204F0070604F0180442EA0542013FFD
:104A600042EA84226FF39F2742EA06523A44C26127
:104A70000A790368012A23F0800708BF43F0800702
:104A800007604A790368012A23F0400708BF43F012
:104A9000400707608A790368012A23F0200708BFCE
:104AA00043F020070760CA790368012A43F0100722
:104AB00008BF23F0100707600A7A0368012A23F071
:104AC000080708BF43F008070760497A0268012910
:104AD00022F0040308BF42F004030360016821F0E0
:104AE0000101016042686146BCF1000F04D012F080
:104AF000010201F1010CF5D1002918BF012108467E
:104B0000F0BD0000B0B581B086468068400109D490
:104B1000DEF80800000107D4DEF80800C00005D464
:104B2000032074E0002002E0012000E002200EEBF0
:104B30000013D3F8804104F00104C3F880410C7ADB
:104B40001CB14A6844EAC20401E00C6864054A7A70
:104B500091F84BC0D3F8805122432A43BCF1000F97
:104B6000C3F8802105D0DEF82020D20717D100BF7E
:104B7000FEE7D3F8842122F00F02C3F884218A7A59
:104B8000D3F884512A43C3F88421D1F80B20C3F809
:104B90008821D1F80F104FF4C672995031E091F886
:104BA0000AE0BEF1090F72460CD346F2441400220B
:104BB000C0F60004A55CAE4503D00132072AF9D146
:104BC000FEE7093291F84C4091F84D5042EACC1280
:104BD00042EA441242EA0512C3F8842100220B3152
:104BE000B2EB9E0F009114D04FEA9E01009A01395A
:104BF00012680D06C3F88821009A02F1040200929F
:104C0000F4D1D3F8801141F00101C3F8801101B053
:104C1000B0BD00994FF4C4720968BEE750B10229D3
:104C200013D0012917D0A9B947F20840C4F20000F7
:104C3000C2607047022914D0012918D051B947F237
:104C40000840C4F200000260704747F20840C4F216
:104C500000004261704747F20840C4F20000026160
:104C6000704747F20840C4F200008260704747F284
:104C70000840C4F200004260704747F20041C4F2AD
:104C800000010A686FF48033002808BF6FF0010349
:104C900002EA03000860704747F20441C4F20001D1
:104CA0000A680223002808BF012342EA03000860C3
:104CB0007047000010B50446022000F073FDB0FB01
:104CC000F4FE4AF6AB20CAF6AA20AEFB0002100999
:104CD000B0EB9E0F12D24FEA9E0C831C01301622BD
:104CE000002400BFD11C5943714508D0013C14F188
:104CF0001601A2F10102F5D16045EED3FEE746F2BE
:104D0000BC51C0F6000101EBC401D1E92C216FF3C5
:104D10009F2002F00F0261F3165040EA024010BDDE
:104D200040F20042C4F20202904202D1052900D3AF
:104D3000FEE701EB810100EB8100816821F00101B8
:104D40008160704740F20042C4F20202904202D1F8
:104D5000052900D3FEE701EB810100EB81008168AA
:104D600041F001018160704740F20042C4F202024A
:104D7000904202D1052900D3FEE701EB810100EB4F
:104D80008100816821F020018160704740F200427B
:104D9000C4F20202904202D1052900D3FEE701EBE2
:104DA000810100EB8100816841F020018160704742
:104DB0008900436802FA01F11943416070470068B5
:104DC000890002FA01F1084018BF01207047000075
:104DD00040F20043C4F20203984202D1052900D3F5
:104DE000FEE780B5136801EB810100EB81000361F0
:104DF00091684161118AC1608168536821F47C5CCB
:104E0000D168D2F814E043EA0C03194341EA0E01D9
:104E1000816092F818C08368BCF1010F23F0400153
:104E200008BF43F04001816092F819C08368BCF16B
:104E3000010F23F0800108BF43F080018160917E63
:104E40008268002942F0100308BF22F0100383603B
:104E500080BD000040F20043C4F20203984202D138
:104E6000052900D3FEE701EB810192B200EB81003E
:104E7000C260704740F20042C4F20202904202D186
:104E8000052900D3FEE701EB810100EB8100C0683A
:104E9000704740F2004CC4F2010CDCF800300129EC
:104EA00023EA0003CCF80030DCF8043023EA0003E6
:104EB000CCF80430DCF8083023EA0003CCF80830E2
:104EC000DCF80C3023EA0003CCF80C3006D051B9E2
:104ED000DCF800100143CCF8001004E0DCF804100A
:104EE0000143CCF80410022A0DD0012A6FEA000118
:104EF0000DD0B2B9DCF808201043CCF80800DCF87B
:104F00000C0008400BE0DCF80810014302E0DCF87C
:104F100008201140CCF80810DCF80C100843CCF83D
:104F20000C00704740F20041C4F201010A681043CE
:104F30000860704740F21441C4F2010108607047F4
:104F400040F20041C4F201014A690968024000EAE6
:104F5000010018BF0122002818BF0120104070472F
:104F600041617047016170470C2240F2080C02EA6F
:104F700081030F22C4F2010C032902FA03F20BD8B9
:104F8000DCF8001098409143CCF80010DCF80010D9
:104F90000843CCF80000704707290BD8DCF8041050
:104FA00098409143CCF80410DCF804100843CCF886
:104FB000040070470B296FEA02010BD8DCF80820C7
:104FC00098401140CCF80810DCF808100843CCF8E1
:104FD00008007047DCF80C2098401140CCF80C1009
:104FE000DCF80C100843CCF80C0070472DE9F047B2
:104FF000CF0601F00F0C09D5042A05D1C26B4CF085
:10500000030C1A43C26301E04CEA020C00F1100EDB
:1050100000F1140800244FF0010A4FF00F09002797
:105020000AFA07F21A4010D0056809FA04F6B543E7
:105030000CFA04F6282946EA050603D0482903D1CC
:10504000754600E045462A6006600137082F04F1E6
:105050000404E5D1082400254FF0010A4FF00F09A0
:105060000AFA04F21A4010D0466809FA05F7BE435E
:105070000CFA05F7282947EA060703D0482903D187
:10508000764600E04646326047600134102C05F158
:10509000040508BFBDE8F087E2E78068084018BF54
:1050A00001207047B0B50422C4F20102134602F198
:1050B000180E002848BF73461B6800F44014C0F364
:1050C0000345B4F5401F1FFA80FC06D1146823F095
:1050D000E06324F0E06414600DE0C40206D46FF0D5
:1050E0000F0404EA50440CFA04F401E00324AC4039
:1050F000A34343F0E06331B16FF00F0101EA504187
:105100000CFA01F10B43002848BF72461360B0BD92
:105110004EF62355CEF20005FFF72AF840F20400C0
:10512000C2F20000006841F25971CDF2B711A0FB44
:1051300001014FF0FF3000EB51304FF0000ABAEBA5
:10514000106F0AD14EF21001CEF200014860F0203B
:1051500028700720C1F808A0086040F60004C4F2D7
:105160000104202040F2ED0B43F6EA3843F6DC3927
:10517000287004F57C45C2F2000BC2F2000804F569
:105180008067C2F2000900BF284600210222FFF713
:1051900016FE012814D128460021FFF76BFE1428C3
:1051A0000ED001208BF80200284600210222FFF7D2
:1051B000FFFD43F60040C4F20000012100F0A6FB11
:1051C0009BF80200002871D09BF805009BF80610A0
:1051D000C7288BF802A008BFC7292BD0662808BFB4
:1051E000662959D043F6EC36C2F20006338841EA0C
:1051F00000229A420ED047F20440C4F200003280EE
:1052000042600146006840F0010008609BF805001C
:105210009BF80610B9F8002040F208165300C2F2BD
:10522000000601333236F15406F81200501CA9F87A
:10523000000039E040F2BC00C2F2000080F800A09B
:105240003846042104222023FFF7D0FE38462821C7
:1052500004221023FFF7CAFE38462821042208231F
:10526000FFF7C4FE2046282104224FF40043FFF735
:10527000BDFE40F20810C2F20000DC2180F83210BE
:105280000120FCF7FFFB4EF21000CEF200004FF0C1
:105290008051C0F8F01009E0B9F80000400080B279
:1052A000FCF7F0FBA9F800A0FCF798F998F80000CB
:1052B00002280FD001287FF467AF38464FF48041B1
:1052C000FFF7EBFE012812D120464FF40071FFF7E3
:1052D00049FE11E020464FF40071FFF7DEFE012881
:1052E00017D138464FF48041FFF73CFE16E02046C8
:1052F0004FF40071FFF734FE38464FF40051FFF7CA
:10530000CCFE012817D120464FF48071FFF72AFE0A
:1053100016E038464FF48041FFF722FE20464FF456
:105320008071FFF7BAFE012815D138464FF40051BD
:10533000FFF718FE14E020464FF48071FFF710FECF
:1053400020460421FFF7A9FE012814D13846022186
:10535000FFF708FE13E038464FF40051FFF700FE58
:1053600038460221FFF799FE012814D12046042176
:10537000FFF7F8FD13E038460221FFF7F1FD204664
:105380000821FFF78AFE012815D138464FF48051D5
:10539000FFF7E8FD14E020460421FFF7E1FD384661
:1053A0004FF48051FFF779FE012816D120460821DD
:1053B000FFF7D8FD15E038464FF48051FFF7D0FDD8
:1053C00020464021FFF769FE012818D104F500604E
:1053D0004FF48041FFF7C6FD17E020460821FFF794
:1053E000BFFD04F5006630464FF48041FFF755FEDF
:1053F000012817D120464021FFF7B4FD16E004F53F
:1054000000604FF48041FFF7ABFD20460121FFF71C
:1054100044FE012816D104F500604FF40051FFF757
:10542000A1FD15E020464021FFF79AFD30464FF4DC
:105430000051FFF732FE012815D120460121FFF768
:1054400091FD14E004F500604FF40051FFF788FD72
:1054500020462021FFF721FE012813D138462021C4
:10546000FFF780FD12E020460121FFF779FD384665
:105470002021FFF712FE012815D120462021FFF739
:1054800071FD14E038462021FFF76AFD2046022115
:10549000FFF703FE012816D104F500604FF4004128
:1054A000FFF760FD15E020462021FFF759FD30464B
:1054B0004FF40041FFF7F1FD012817D120460221EA
:1054C000FFF750FD16E004F500604FF40041FFF7D0
:1054D00047FD20464FF40041FFF7DFFD012816D1BC
:1054E00038464FF48071FFF73DFD15E0204602215C
:1054F000FFF736FD38464FF48071FFF7CEFD0128E7
:1055000016D120464FF40041FFF72CFD15E0384638
:105510004FF48071FFF724FD38464FF48061FFF7A8
:10552000BCFD012815D120468021FFF71BFD14E0AA
:1055300020464FF40041FFF713FD20468021FFF77E
:10554000ACFD012815D138464FF48061FFF70AFD04
:1055500014E020468021FFF703FD38464FF4006138
:10556000FFF79BFD012815D138460121FFF7FAFC12
:1055700014E038464FF48061FFF7F2FC3846012111
:10558000FFF78BFD012815D138464FF40061FFF776
:10559000E9FC14E038460121FFF7E2FC20464FF415
:1055A0008051FFF77AFD012815D138460421FFF715
:1055B000D9FC14E038464FF40061FFF7D1FC3846BF
:1055C0000421FFF76AFD012816D120464FF48051CF
:1055D000FFF7C8FC15E038460421FFF7C1FC204660
:1055E0004FF40061FFF759FD012817D138464FF4F9
:1055F0000041FFF7B7FC16E020464FF48051FFF75B
:10560000AFFC38464FF40041FFF747FD012816D1A3
:1056100020464FF40061FFF7A5FC15E038464FF433
:105620000041FFF79DFC20461021FFF736FD0128C1
:1056300016D120464FF48061FFF794FC15E0204618
:105640004FF40061FFF78CFC20464FF48061FFF7B8
:1056500024FD012814D120461021FFF783FC13E01C
:1056600020464FF48061FFF77BFC38460821FFF7A6
:1056700014FD012813D138461021FFF773FC83E590
:1056800020461021FFF76CFC38461021FFF705FD7E
:10569000012809D138460821FFF764FC74E5384633
:1056A0001021FFF75DFC6FE538460821FFF758FC35
:1056B0006AE54EF60C5CCEF2000CDCF8003003F428
:1056C000E063A3F54073B3F5A06F03D21B0AC3F1E7
:1056D000040C08E040F20053C0F2FA53CCF800305A
:1056E00002234FF0020C99400F2323FA0CF31A40C7
:1056F00011434EF20012CEF20002090140EA020309
:1057000083F8001300F01F01012303FA01F11C23A9
:1057100003EAD000815070474FF68072C1F6FF72E5
:10572000114008434EF60851CEF200010860704760
:1057300010B541F2040CC4F2020CDCF8001043F680
:10574000FF72CEF6FF720A40DCF828100B2821F019
:10575000005E21D8012383401C070CD113F4706F25
:105760000CD04CF20003CFF6FC7303EA8030024306
:1057700041F0005E10E042EA80320DE001218140FC
:1057800011F0A00F08D04CF20001CEF6FE7101EA34
:105790008030104340F08052CCF80020CCF828E054
:1057A00010BD000010B541F2040EC4F2020EDEF886
:1057B000001001F00C01082941F20021C0F27A0129
:1057C00046D1DEF80030DB0304D440F6001CC0F202
:1057D0003D0C25E0DEF82830DEF828C05B0046F6F8
:1057E0000043C0F2DC2358BF0B465FEACC3110D532
:1057F000DEF82810C1F3031CDEF828100CF1010CB0
:10580000C1F30321B3FBFCF30231112908BF1421BA
:105810004B43DEF8281001F00F010131B3FBF1FC1E
:10582000DEF800301022C3F38343DEF8001002EAF2
:105830005161194401220F2938BF022253180F2B3E
:1058400011BF03FB0CF10CEB4C01490001EB5C01B7
:10585000DEF800200328C2F30313DEF80020C2F3B1
:10586000022CDEF800400DD80DA2D25C46F23C1EA0
:1058700021FA02F3C0F6000EDFE800F00F0206097D
:1058800019460AE0002108E01EF80C0003E0C4F30A
:10589000C2201EF8000023FA00F1084610BD00BF28
:1058A00000000000000000000102030406070809D0
:1058B00041F2000300F01F018009C4F202034FF01F
:1058C000010CC2580CFA01F11143C150704741F26A
:1058D000000300F01F018009C4F202034FF0010C25
:1058E000C2580CFA01F122EA0101C150704741F29D
:1058F000000300F01F018009C4F202034FF0010C05
:10590000C2580CFA01F11143C150704742686FF060
:105910000103002908BF6FF0020302EA030141609E
:10592000704742680123002908BF022342EA0301AD
:1059300041607047016841F040010160704710B557
:1059400043F20001C4F2010188420FD043F6004146
:10595000C4F2000188420CD043F60001C4F20001F9
:10596000884218BF10BD40F20E4404E04FF4437467
:1059700001E040F20F442046FFF7B9FF2046BDE8A2
:105980001040FFF7A4BF8068084018BF012070478F
:1059900070B50268D1E902E402F4415CD1E9003259
:1059A000D1E9045643EA0C031A4342EA0E022243A9
:1059B00089692A43324311430160C16921F40061BE
:1059C000C16170BD416841F00401416070474168A8
:1059D00041F00801416070470021C0E90511C0E9AC
:1059E0000011C0E902117047016841F080010160B7
:1059F0007047B1F800C04B888A8843EA0C0343EA39
:105A0000020CCB880A8943EA0C031A434B89898923
:105A10001A43114341647047022907D001290BD072
:105A200099B950F8201F21F004010AE050F8201F16
:105A3000120221F4806104E050F8201F120121F0CD
:105A4000400101600168114301607047032988BF6C
:105A50007047DFE801F0024187CC016A21F00101C3
:105A600001621188036A19430162016A21F002018F
:105A700001629188036A194343F20043C4F20103AF
:105A80009842016205D042F60041C4F20101884209
:105A90001FD1016A21F0040101625188036A194390
:105AA0000162016A21F008010162D188036A194389
:105AB0000162416821F48071416011894368194392
:105AC0004160416821F4007141605189426811438D
:105AD00041606FF0030143E0016A21F010010162AF
