:020000040800F2
:1000000050400020650100086D0100086F010008E4
:10001000710100087301000875010008000000006C
:100020000000000000000000000000007701000850
:1000300079010008000000007B01000895570008C6
:100040007F0100087F0100087F0100087F01000890
:100050007F0100087F0100087F0100087F01000880
:100060007F0100087F0100087F0100087F01000870
:100070007F0100087F0100087F0100087F01000860
:100080007F0100087F0100087F0100087F01000850
:100090007F0100087F0100087F0100087F01000840
:1000A0007F010008895800087F0100087F010008CF
:1000B000B15800087F0100087F0100087F01000897
:1000C0007F0100087F0100087F0100087F01000810
:1000D0007F0100087F0100087F0100087F01000800
:1000E000D90600087F0100087F0100087F01000891
:1000F0007F0100087F0100087F0100080000000068
:100100007F01000800000000A15900087F010008DD
:100110007F0100087F0100087F0100087F010008BF
:100120007F0100087F0100087F0100087F010008AF
:100130007F01000800000000000000007F010008AF
:100140007F0100087F0100087F0100087F0100088F
:10015000DFF80CD000F028FA0048004725750008A9
:10016000504000200648804706480047FEE7FEE76B
:10017000FEE7FEE7FEE7FEE7FEE7FEE7FEE7FEE757
:10018000155800085101000840EA01039B0703D0FD
:1001900009E008C9121F08C0042AFAD203E011F8C6
:1001A000013B00F8013B521EF9D2704730B50446BE
:1001B0000020034600E05B1C934203D2E05CCD5C70
:1001C000401BF8D030BD000070B50F4D00B9286855
:1001D000002412E00A4602E09E4203D0521C13782B
:1001E000002BF9D1DAB2224305D02BB124B1002182
:1001F00000F8011B04E00446401C0678002EE9D1FB
:100200002860204670BD0000000000202DE9FE4F50
:10021000804681EA0300C00F0C46009021F00041A7
:1002200023F00045B8EB0200A94105D24046214623
:1002300090461C460B46024623F00040104347D030
:10024000270DC7F30A00C3F30A510290401A019028
:1002500040286BDAC3F3130040F4801B00989246E9
:1002600020B10023D2EB030A63EB0B0B0198594634
:10027000C0F14002504600F009F906460D465046CE
:100280005946019A00F021F910EB08006141002461
:1002900087EA115284EAE7731A4340D0009A62B3A6
:1002A000019A012A4FEA075215DC001B61EB02019B
:1002B0004FF0004202EA0752CDE90042001C41F52E
:1002C000801132462B4600F021F903B0BDE8F08FD3
:1002D00040462146F9E7001B61EB0201001C41F595
:1002E000801300185B412018A2F5001747EB0301AB
:1002F00040EAD570B6196D4111E06D084FEA360637
:1003000045EAC0754FEA0752001B61EB0201001C71
:1003100041F5801149084FEA300000195141324639
:100320002B4603B0BDE8F04F00F0E1B80098012281
:1003300040000023D0EB020263EBE07300982146FB
:100340004FEAE074B8EB000061EB0401E9E783F0E9
:1003500000435BE781F0004158E72DE9F04D81EA69
:10036000030404F0004B21F0004514464FF0000A4E
:1003700023F0004150EA050220D054EA01021DD0CA
:10038000C5F30A570246C5F31303C1F31300C1F3C3
:100390000A5640F4801543F48013A7EB0608101B9F
:1003A000D64608F2FD3873EB050002D308F10108C8
:1003B00001E092185B41B8F1000F03DA002001461A
:1003C000BDE8F08D00204FF48011064684460EE013
:1003D000171B73EB050705D3121B63EB05030643DD
:1003E0004CEA010C49084FEA300092185B4150EA90
:1003F0000107EDD152EA030012D082EA040083EA39
:100400000501084305D0101BAB4106D20122002391
:1004100006E000224FF0004302E06FF001025310AB
:100420001AEB06004CEB085110EB0A0041EB0B01F4
:10043000BDE8F04D00F05BB80EB5C10F80EAE0708A
:100440000844CA07002140F233438DE80E000A46F3
:100450000B4600F05BF803B000BDC1F30A5210B5C3
:10046000C1F3130140F2FF3341F480119A4201DAE3
:10047000002010BD40F233439A42A2F2334203DC23
:10048000524200F012F810BD904010BD202A04DB4B
:10049000203A00FA02F1002070479140C2F1200397
:1004A00020FA03F3194390407047202A04DB203AD6
:1004B00021FA02F00021704721FA02F3D040C2F184
:1004C00020029140084319467047202A06DBCB17CB
:1004D000203A41FA02F043EAE07306E041FA02F3FF
:1004E000D040C2F12002914008431946704710B530
:1004F000141E73F1000408DA401C41F10001921847
:100500005B411A4301D120F0010010BD2DE9F04DEF
:1005100092469B4611B1B1FA81F202E0B0FA80F244
:1005200020329046FFF7B2FF04460F4640EA0A0029
:1005300041EA0B0153465A46084313D0114653EA89
:10054000010019D0C8F140025046FFF7AEFF054642
:100550000E46504659464246FFF798FF084305D0DD
:10056000012004E020463946BDE8F08D0020054317
:1005700046EAE0762C4337430A986305E40AA0EB89
:1005800008000022FD0A44EA47540A3002D5002040
:100590000146E9E7010510196941DDE9084500193F
:1005A0006941BDE8F04DA2E7064C074D06E0E06862
:1005B00040F0010394E8070098471034AC42F6D3AA
:1005C000FFF7CAFD549400087494000880B542F205
:1005D0000040C4F20100012105F0B2FDFFE7002058
:1005E000C4F202000021022206F0CCFB002801D157
:1005F000FFE7F4E70020C4F202000021022206F027
:10060000AFFB80BD80B582B001900198B0F8A0101A
:1006100001600198002141600198017201984172C6
:10062000019890F8A4108172019946F20040C4F23A
:10063000000006F033F843F6EE31C2F20001087014
:10064000087801460028009108D0FFE700980128AB
:100650000CD0FFE70098022810D017E043F6D43002
:10066000C2F200004FF40071016017E043F6D4308D
:10067000C2F200004FF4027101600FE043F6D43083
:10068000C2F200004FF40471016007E043F6D43079
:10069000C2F200004FF400710160FFE7FFE743F68C
:1006A000D430C2F20000018846F20040C4F20000DB
:1006B00005F0A4FE012801D1FFE7F0E743F6D430AE
:1006C000C2F20000018846F20040C4F2000005F0CA
:1006D0007FFE02B080BD000080B54FF4004006F000
:1006E00015FD00281DD0FFE7FFF770FF43F6DC3053
:1006F000C2F2000001880131018040F20800C2F21C
:100700000000417840F2EA02C2F20002D171008892
:100710001072022001F026F84FF4004006F0ECFCC5
:10072000FFE780BD70B582B013468C4601908DF80E
:100730000310ADF80020BDF8000044F6D351C1F21B
:100740006201A0FB0101890946F26762C6F2666296
:1007500051FB02FE4FEA9E0404EBDE7E0EEB8E0E92
:10076000A1EB4E013031DDF804E09DF803400EF8B6
:100770000410BDF8001048F21F5EC5F2EB1EA1FB8D
:100780000E1E4FEA5E1E5EFB02F4A50805EBD47454
:1007900004EB8404AEEB440E0EF1300E019C9DF888
:1007A00003502C4484F801E0BDF800E04CF6CD4441
:1007B000CCF6CC44AEFB04E5ED0855FB02F29608FE
:1007C00006EBD27202EB8202A5EB42023032019DAF
:1007D0009DF803603544AA70BDF80020A2FB0445D3
:1007E000ED0805EB8505A2EB450242F03002019DC4
:1007F0009DF803603544EA7002B070BD80B58CB0DE
:1008000000208DF82E0040F20801C2F2000107918D
:1008100001218DF82D104FF40062089242F24C42F3
:10082000C4F2010205928DF82C004FF4007206927A
:1008300009914FF440520A920022C4F2020205AB21
:1008400004901046DDF810C00391614602921A46EA
:1008500006F0B4FA0298049906F064FA0298049932
:1008600006F024FA4FF4C02005F08CFB42F2004061
:10087000C4F201004FF480710190039A05F080FCEE
:1008800002210198049A05F07BFC0198049905F077
:10089000DDFA0198049905F03FFC01980399039A49
:1008A00005F09CFA4FF460220198039905F040FB93
:1008B00001980399039A05F0F9FA01980499049AAA
:1008C000049B05F06FFB019805F0E0FA019805F034
:1008D00067FA019805F0D0FA47F20040C4F2000030
:1008E000016841F00101016004980499049A06F03E
:1008F000D5F8049806F02CF90CB080BD80B58EB008
:1009000041F20000C4F2010004214FF400520D90A6
:100910000C910C9B0B921A460B9B06F0A3FC4FF418
:1009200000400D990A9008460C990C9A0A9B06F013
:1009300099FC40F60040C4F20100022109900C9A93
:1009400008911146089B06F08DFC4FF480500999E0
:10095000079008460C990C9A079B06F083FC202010
:100960000999069008460C990C9A069B06F07AFCA9
:100970004FF480400D99059008460C990C9A059B00
:1009800006F070FC40F60000C4F2010080230490E1
:100990000C990C9A06F066FC012009990390084610
:1009A0000C990C9A039B06F05DFC09980C990C9A23
:1009B0000C9B06F057FC09980C990C9A0A9B06F0C0
:1009C00051FC4FF480600499029008460C990C9AEF
:1009D000029B06F047FC4FF480700999019008468D
:1009E0000C990C9A019B06F03DFC4FF4007304989F
:1009F0000C990C9A06F036FC04980C990C9A019B01
:100A000006F030FC09980C990C9A059B06F02AFC1C
:100A100009980C990C9A0B9B06F024FC04980C99ED
:100A20000C9A039B06F01EFC04980C990C9A089BE8
:100A300006F018FC04980C990C9A0C9B06F012FC1A
:100A4000082304980C990C9A06F00CFC04980C9955
:100A50000C9A069B06F006FC402304980C990C9A0D
:100A600006F000FC102304980C990C9A06F0FAFB8F
:100A700009980C990C9A029B06F0F4FB4FF4006065
:100A80000999009008460C990C9A009B06F0EAFB25
:100A900004980C990C9A079B06F0E4FB04980C99B7
:100AA0000C9A009B06F0DEFB0EB080BD80B590B0C6
:100AB00041F20000C4F20100102104224FF400535F
:100AC0000F900E910D920C9306F0CCFB4FF400406A
:100AD0000F990B9008460E990D9A0B9B06F0C2FBDE
:100AE00040F60040C4F2010002210A900E9A0991DA
:100AF00011460D9A099B06F0B5FB4FF480500A99F8
:100B0000089008460E990D9A089B06F0ABFB202032
:100B10000A99079008460E990D9A079B06F0A2FBCA
:100B20004FF480400F99069008460E990D9A069B47
:100B300006F098FB40F60000C4F201008023059007
:100B40000E990D9A06F08EFB01200A990490084632
:100B50000E990D9A049B06F085FB0A980E990D9A42
:100B60000D9B06F07FFB0A980E990D9A0B9B06F0E1
:100B700079FB4FF480600599039008460E990D9A11
:100B8000039B06F06FFB4FF480700A9902900846B1
:100B90000E990D9A029B06F065FB4FF400730598C1
:100BA0000E990D9A06F05EFB05980E990D9A029B20
:100BB00006F058FB0A980E990D9A069B06F052FB18
:100BC0000A980E990D9A0C9B06F04CFB05980E990D
:100BD0000D9A049B06F046FB05980E990D9A099B09
:100BE00006F040FB05980E990D9A0D9B06F03AFB16
:100BF00008200599019008460E990D9A019B06F070
:100C000031FB05980E990D9A079B06F02BFB4023AC
:100C100005980E990D9A06F025FB05980E990D9AE8
:100C20000E9B06F01FFB0A980E990D9A039B06F087
:100C300019FB4FF400600A99009008460E990D9A2E
:100C4000009B06F00FFB05980E990D9A089B06F085
:100C500009FB05980E990D9A009B06F003FB0A9874
:100C60000E990D9A019B06F0FDFA0A980E990D9ABD
:100C70000E9B06F0F7FA05980E990D9A0B9B06F05D
:100C8000F1FA10B080BD000080B58CB00B9040F23E
:100C9000197007F059FA46F20040C4F200000190C2
:100CA00005F0C6FA00208DF821008DF823008DF89C
:100CB00022008DF824008DF81D0004218DF81E10EF
:100CC00002218DF81F108DF820008DF825000B985B
:100CD00000798DF81C0007A9019805F0EFFB0B992E
:100CE0000968FA2900910AD0FFE70098B0F5FA7F69
:100CF00005D0FFE70098B0F57A7F0CD1FFE70B989D
:100D000000684FF47A71414346F20040C4F200009B
:100D100005F094FB0AE046F20040C4F200004EF6F3
:100D20004801C0F2010105F089FBFFE70020ADF8A2
:100D30001200ADF814000121ADF81610ADF808004E
:100D4000ADF80A00ADF80C00ADF80E000B98407934
:100D5000ADF810008DF8181002A805F089FA0CB053
:100D600080BD000080B582B04FF4C06007F0ECF9A0
:100D700040F2026007F0E8F940F60000C4F201001A
:100D8000482103224FF400630190009206F06AFAB2
:100D900018214FF480530198009A06F063FA02B0CC
:100DA00080BD000080B582B041F20000C4F20100B5
:100DB0001C2104224FF40043019306F053FA022051
:100DC0000F2106F0D9F900200199009008460099FA
:100DD000009A06F0F3F8019806F082F92820012124
:100DE000009A06F0FBFF02B080BD000080B590B015
:100DF00040F60040C4F2010004214FF480420F90FD
:100E00000E910E9B0D921A460D9B06F02BFA4FF495
:100E100000500F990C9008460E990E9A0C9B06F004
:100E200021FA40F60000C4F201000B900E990E9AD0
:100E30000E9B06F017FA08200B990A9008460E99A7
:100E40000E9A0A9B06F00EFA40230B980E990E9A02
:100E500006F008FA01200B99099008460E990E9A9F
:100E6000099B06F0FFF920200B99089008460E997F
:100E70000E9A089B06F0F6F902200B990790084697
:100E80000E990E9A079B06F0EDF94FF400400B996E
:100E9000069008460E990E9A069B06F0E3F94FF469
:100EA00080600F99059008460E990E9A059B06F0F2
:100EB000D9F94FF400600F99049008460E990E9AE4
:100EC000049B06F0CFF94FF480500B99039008462D
:100ED0000E990E9A039B06F0C5F90B980E990E9A7F
:100EE000049B06F0BFF910200B99029008460E995A
:100EF0000E9A029B06F0B6F90F980E990E9A0A9B6D
:100F000006F0B0F94FF400730B9802990E9A06F0B0
:100F1000A9F94FF480700B990190084602990E9A36
:100F2000019B06F09FF90F9802990E9A079B06F015
:100F300099F90F9802990E9A039B06F093F941F2E2
:100F40000000C4F20100009002990E9A0D9B06F079
:100F500089F9009802990E9A0C9B06F083F90F9874
:100F600002990E9A089B06F07DF9009802990E9A54
:100F7000069B06F077F90F9802990E9A019B06F0EE
:100F800071F980230B9802990E9A06F06BF90F986D
:100F900002990E9A099B06F065F90F9802990E9A2C
:100FA0000E9B06F05FF90F9802990E9A069B06F0C9
:100FB00059F90B9802990E9A059B06F053F90F9870
:100FC00002990E9A029B06F04DF940F20020C0F201
:100FD0003000099906F026FA10B080BD80B590B0B7
:100FE00040F60000C4F2010004214FF400730F909A
:100FF0000E910E9A06F036F94FF480700F990D900D
:1010000008460E990E9A0D9B06F02CF940F600400A
:10101000C4F2010002210C900E9A0B9111460B9B19
:1010200006F020F94FF480500C990A9008460E996A
:101030000E9A0A9B06F016F941F20000C4F2010074
:101040004FF4804109900E9A08911146089B06F0D2
:1010500009F94FF400500999079008460E990E9A25
:10106000079B06F0FFF820200C99069008460E9981
:101070000E9A069B06F0F6F84FF400400999059089
:1010800008460E990E9A059B06F0ECF80C980E99FE
:101090000E9A0D9B06F0E6F880230F980E990E9A93
:1010A00006F0E0F801200C99049008460E990E9A7B
:1010B000049B06F0D7F80C980E990E9A0E9B06F03A
:1010C000D1F80C980E990E9A059B06F0CBF84FF4C8
:1010D00080600F99039008460E990E9A039B06F0C4
:1010E000C1F810200C99029008460E990E9A029BA6
:1010F00006F0B8F80C9802990E9A089B06F0B2F820
:101100000C9802990E9A079B06F0ACF80F9802997A
:101110000E9A0E9B06F0A6F808200F99019008463B
:1011200002990E9A019B06F09DF840230F980299B0
:101130000E9A06F097F80F9802990E9A049B06F003
:1011400091F80F9802990E9A069B06F08BF80F986B
:1011500002990E9A0B9B06F085F80F9802990E9A49
:10116000059B06F07FF80C9802990E9A039B06F0F7
:1011700079F84FF400600C990090084602990E9A95
:10118000009B06F06FF80F9802990E9A0A9B06F0E2
:1011900069F80F9802990E9A009B06F063F80F9871
:1011A00002990E9A029B06F05DF80C9802990E9A2D
:1011B000019B06F057F840F20020C0F2300004997D
:1011C00006F030F910B080BD80B592B040F20260F8
:1011D00006F0BAFF40F2036006F0B6FF40F204608A
:1011E00006F0B2FF40F2096006F0AEFF40F20A607E
:1011F00006F0AAFF4FF4A06006F0A6FF40F21D70B3
:1012000006F0A2FF4FF4C06006F09EFF40F60040DB
:10121000C4F20100102104224FF4007311901091C8
:101220000F920E9306F01EF840F60000C4F2010083
:1012300028214FF400520D900C910F9B0B921A46EF
:101240000B9B06F00FF84FF480400D990A9008466A
:101250000C990F9A0A9B06F005F84FF400400D997F
:10126000099008460C990F9A099B05F0FBFF08208E
:101270001199089008460C990F9A089B05F0F2FF07
:1012800011980C990F9A109B05F0ECFF40F200208A
:10129000C0F230000121079106F0C4F841F20000CD
:1012A000C4F2010006900F990F9A0B9B05F0DAFF2C
:1012B00006980F990F9A099B05F0D4FF0220119907
:1012C000059008460F990F9A059B05F0CBFF4FF448
:1012D000805311980F990F9A05F0C4FF202011999F
:1012E000049008460F990F9A049B05F0BBFF0698DF
:1012F00010990F9A0A9B05F0B5FF80230D9810995D
:101300000F9A05F0AFFF119810990F9A079B05F0FF
:10131000A9FF119810990F9A0F9B05F0A3FF119840
:1013200010990F9A099B05F09DFF4FF480630D986B
:1013300010990F9A05F096FF4FF480701199039061
:10134000084610990F9A039B05F08CFF18200D9901
:101350000290084602990F9A0E9B05F083FF0D98A4
:1013600002990F9A039B05F07DFF119802990F9A3D
:101370000A9B05F077FF119802990F9A0B9B05F0D5
:1013800071FF00200D990190084601990F9A079B63
:1013900005F068FF0D9801990F9A059B05F062FF13
:1013A0000D9801990F9A0F9B05F05CFF0D9801991C
:1013B0000F9A089B05F056FF0D9801990F9A049B10
:1013C00005F050FF40230D9801990F9A05F04AFF50
:1013D0000D9801990F9A109B05F044FF12B080BD43
:1013E00080B586B001468DF817000020C4F20200D7
:1013F0000122022304900391114602921A4605F03D
:10140000AFFC0498029905F033FC9DF8172004986E
:10141000029905F099FD44F60000C4F20000802115
:1014200007F008FE0498029905F040FCFFE744F637
:101430000000C4F20000062107F032FE002802D1AD
:10144000FFE700BFF3E744F60000C4F20000062106
:10145000019007F00FFE0021019807F0EBFD06B0A8
:1014600080BD000010B590B00F904FF4A06006F062
:101470006BFE40F2127006F067FE40F2065006F076
:1014800063FE00208DF83A000F9949690A91012105
:101490008DF839100B9044F60402C4F20002089251
:1014A0008DF8380009900C904FF480530D9340F262
:1014B000000CC4F2020C4FF0020E08AC079060461C
:1014C00006917146059222460493CDF80CC0CDF8E2
:1014D00008E0019405F072FC0398029905F022FCE3
:1014E0000398029905F0E2FB06988DF83A000F99EF
:1014F00009690A918DF8390007990B91059A0892AC
:101500008DF8381009910C91049B0D93039806995E
:10151000019A05F053FC0398069905F0E5FB039842
:10152000069905F0C3FB44F60000C4F200000090E9
:1015300007F00EFD0F980168009807F08BFC0F98DC
:101540004168009807F0F8FD0F98C168009807F00F
:101550005FFE0F988168009807F034FE00980799A5
:1015600007F0DEFC0098079907F0D0FD0098079976
:1015700007F0B6FD009807F005FE3221009807F04D
:101580000DFE4021009807F03FFD8021009807F0F4
:1015900051FD0821009807F025FE0421009807F06E
:1015A000DBFD009807F05CFD10B010BD80B582B087
:1015B00001468DF80700FFE744F60000C4F2000082
:1015C00042F2102107F06CFD002801D0FFE7F3E79D
:1015D0009DF80700FFF704FF02B080BD80B582B020
:1015E0004FF4C06006F0B0FD40F2036006F0ACFDC1
:1015F00040F60040C4F20100182103224FF480633A
:101600000190009205F02EFE04214FF40063019832
:10161000009A05F027FE02B080BD000010B598B01A
:10162000179040F2015006F08FFD40F20F7006F067
:101630008BFD00208DF85A001799896812910121BD
:101640008DF85910139043F60C42C4F20002109228
:101650008DF85800119014904FF44053159340F2B8
:10166000004CC4F2020C0DF1400E08906046089C3C
:1016700007912146069272460593CDF810C0CDF829
:101680000CE005F09BFB0498089905F04BFB0498CF
:10169000089905F00BFB07988DF85A0017994968CF
:1016A00012918DF8590008991391069A10928DF8AD
:1016B000581011911491059B159304980799039A5A
:1016C00005F07CFB43F60040C4F20000029006F0F7
:1016D000BDFD09A8019006F057FE1798C068099053
:1016E00008980A90179909680B910C9017998969C5
:1016F0000D91179949690E91179909690F910298EF
:10170000019906F0F3FD029806F034FE029806F007
:1017100027FE029806F090FD18B010BD80B584B089
:1017200001468DF80F0040F20040C4F20200002292
:10173000029001911146009205F09AFA9DF80F204F
:101740000298009905F000FC43F60040C4F2000046
:10175000012106F059FD0298009905F0A7FA04B09E
:1017600080BD000080B584B001468DF80F0040F2C6
:101770000040C4F202000122029001911146009241
:1017800005F076FA9DF80F200298009905F0DCFB31
:1017900043F60040C4F20000002106F035FD029837
:1017A000009905F083FA04B080BD000080B584B0D4
:1017B00001468DF80F0040F20040C4F20200012201
:1017C000029001911146009205F052FA9DF80F2007
:1017D0000298009905F0B8FB43F60040C4F20000FF
:1017E000002106F011FD0298009905F05FFAFFE76D
:1017F00040F20040C4F202000121022205F0C2FAC8
:10180000002801D1FFE7F3E740F20040C4F20200F4
:101810000121022205F0A4FA43F60040C4F20000C0
:10182000002106F0D9FC04B080BD000080B5022084
:10183000FFF774FF80BD000080B582B001468DF8CF
:101840000700FFE743F60040C4F20000022106F063
:1018500037FD002801D1FFE7F4E79DF80700FFF707
:10186000A5FF02B080BD000080B584B04FF4C06019
:1018700006F06AFC40F2036006F066FC40F202608B
:1018800006F062FC40F60040C4F201001821032279
:1018900010230390029205F0E5FC04202023039915
:1018A000019008460199029A05F0DCFC0823039890
:1018B0000199029A05F0D6FC40F60000C4F201003E
:1018C0004FF400430199029A05F0CCFC40F200204D
:1018D000C0F23000012105F0A5FD04B080BD00007C
:1018E00080B592B0119011981090119840080F9007
:1018F00040F20B6006F028FC42F60040C4F2010002
:10190000039007F0C5F810980D900020ADF82C005A
:10191000ADF83800ADF82E00ADF83000FF218DF89D
:101920003A100BA9039A0290104607F0B1F9012072
:10193000ADF820000421ADF822100299ADF8241072
:10194000ADF82610ADF82810ADF82A1008AA039BB0
:1019500001901846009206F039FE03980199009A0A
:1019600006F034FE03980299029A07F04DF80398A6
:101970000299029A06F0EAFD03980199029A07F08B
:1019800043F803980199029A06F0E0FD0F9A039834
:10199000029906F0CDFF60220398029906F080FFBD
:1019A00003980299029A06F0E7FF0F9A03980199AB
:1019B00006F0BEFF70220398019906F071FF0398AC
:1019C0000199029A06F0D8FF1520ADF8140002988C
:1019D000ADF81600ADF81000ADF812004FF48041DC
:1019E000ADF81810ADF81A00ADF81C0004A9039862
:1019F00006F096FD19200221029A06F0EFF90398ED
:101A0000019907F0DBF9039807F038F912B080BDAF
:101A100080B58AB00990099808904FF4E06006F00C
:101A200093FB4FF08040039007F032F8089806903F
:101A30000020ADF81000ADF81C00ADF81200ADF8B4
:101A400014008DF81E0004A9039A0290104607F0B6
:101A50001FF91C2001210191029A06F0BFF9039899
:101A6000019907F0ABF90398019907F0DBF90398A6
:101A700006F04CFD039807F001F90AB080BD0000A4
:101A800080B590B00F900F980E900F9840080D9071
:101A900040F2037006F058FB40F60040C4F200002C
:101AA000019006F0F5FF0E980B900020ADF8240091
:101AB000ADF83000ADF82600ADF82800FF208DF815
:101AC000320009A9019807F0E3F80121019807F015
:101AD00075F9322004F00AF9019807F0CFF810B038
:101AE00080BD000080B584B001468DF80F00002055
:101AF000C4F202000422029001911146009205F006
:101B0000B7F89DF80F200298009905F01DFA43F6EA
:101B10000000C4F20100402107F076FA0298009913
:101B200005F0C4F804B080BD80B586B00146ADF8BC
:101B300016000020C4F20200032202230490039145
:101B4000114602921A4605F00BF90498029905F025
:101B50008FF8BDF816200498029905F0F5F943F6C0
:101B60000000C4F20100802107F064FA0498029991
:101B700005F09CF8FFE743F60000C4F201000621DF
:101B800007F08EFA002802D1FFE700BFF3E743F623
:101B90000000C4F201000621019007F06BFA002159
:101BA000019807F047FA06B080BD000010B592B06A
:101BB00011904FF4A06006F0C7FA40F20E6006F0F4
:101BC000C3FA40F2065006F0BFFA00208DF842003A
:101BD000119949690C9101218DF841100D9043F63E
:101BE0000402C4F201020A928DF840000B903223E5
:101BF0000E934FF400530F9340F2000CC4F2020C0A
:101C00004FF0040E0AAC09906046089171460792A5
:101C100022460693CDF814C0CDF810E0039405F0E9
:101C2000CDF80598049905F07DF80598049905F01C
:101C30003DF808988DF84200119909690C918DF8CA
:101C4000410009990D91079A0A928DF840100B9165
:101C50000E91069B0F934FF0030C05986146039A73
:101C6000CDF808C005F0AAF80598029905F03CF8EF
:101C70000598029905F01AF843F60000C4F2010035
:101C8000019007F065F911980168019807F0E2F8F2
:101C900011984168019807F04FFA1198C1680198AE
:101CA00007F0B6FA11988168019807F08BFA01984D
:101CB000099907F035F90198099907F027FA019871
:101CC000099907F00DFA019807F05CFAFF210198D5
:101CD00007F064FA4021019807F096F980210198F5
:101CE00007F0A8F90821019807F07CFA01980499F7
:101CF00007F032FA019807F0B3F912B010BD0000F6
:101D000080B582B00146ADF80600FFE743F600005B
:101D1000C4F2010042F2102107F0C2F9002801D0FC
:101D2000FFE7F3E7BDF80600FFF7FEFE02B080BD57
:101D300080B582B04FF4C06006F006FA40F203604E
:101D400006F002FA0420C4F20100016841F0040127
:101D5000016040F60040C4F2010018210322402334
:101D60000190009205F07EFA042180230198009AE8
:101D700005F078FA02B080BD2DE9F04FADF5057D94
:101D800000208DF813028DF8120201218DF8111236
:101D9000ADF80E0240F20510C2F2000042F24371AB
:101DA000405C002803F0FD83FFE740F20510C2F21B
:101DB000000042F24371002242541C2182900846E6
:101DC00003F094FF43F6EF30C2F20000322281901C
:101DD0008299FEF7D9F949F23B31C0F60001819AA8
:101DE00080901046FEF7F0F943F64041C2F2000140
:101DF0000860086849F27B31C0F600010322FEF753
:101E0000D5F9002809D0FFE743F6EF30C2F2000011
:101E10000078102840F0FC82FFE749F23B31C0F621
:101E200000010020FEF7D0F943F64041C2F2000164
:101E300008600868008844F64F61884208D0FFE7D0
:101E400043F6EF30C2F20000407805284ED1FFE79C
:101E500042F60040C4F20100002101227F907E91F1
:101E60007D9206F0D1FD04207F997C9008467E99F2
:101E70007C9A06F06BFB7F987D997D9A06F0C4FDF5
:101E80007F987D997C9A06F061FB43F64040C2F250
:101E900000000068008844F64F6188421AD1FFE7CD
:101EA00040F20510C2F2000045F25241C0F60D2189
:101EB000C0F8391045F25341C5F24121C0F836103F
:101EC00045F25071C2F24D01C0F832100B20FFF7FD
:101ED00017FF0AE040F20510C2F20000AC2180F8C2
:101EE00032100120FFF70CFFFFE78FE243F640407E
:101EF000C2F20000006849F25831C0F60001032226
:101F0000FEF754F9002808D0FFE743F6EF30C2F29D
:101F1000000040780A284ED1FFE742F60040C4F2A4
:101F2000010000217B907A917A9A06F06DFD7B98F2
:101F30007A997A9A06F00AFB01207B9979900846F3
:101F400079997A9A06F060FD7B9879997A9A06F0E9
:101F5000FDFA43F64040C2F20000006849F25831F1
:101F6000C0F600010322FEF721F9002817D1FFE790
:101F700040F20510C2F2000040F60D21418745F203
:101F80005341C5F24F01C0F8361045F25071C2F20C
:101F90004D01C0F832100A20FFF7B2FE0AE040F20D
:101FA0000510C2F20000AC2180F832100120FFF7CA
:101FB000A7FEFFE729E243F64040C2F200000068B6
:101FC000006845F24621C5F24511884209D0FFE775
:101FD00043F6EF30C2F200004078FC2840F0CA809F
:101FE000FFE743F64040C2F200000068006845F297
:101FF0004621C5F24511884269D1FFE749F23B31DC
:10200000C0F6000100207890FEF7DEF843F640416C
:10201000C2F200010860086803F060FBFEF70CFAEA
:1020200041EC100B9FEDD21B51EC110B53EC102B1C
:10203000FEF793F941EC100B51EC100B9FEDCE0B1A
:1020400053EC102BFEF7E2F841EC100B51EC100BA7
:10205000FEF703FAFFF744FC42F60040C4F2010029
:1020600001217790789A76911146769A06F0CCFC09
:1020700004207799759008467899759A06F066FA63
:1020800077987699769A06F0BFFC77987699759A44
:1020900006F05CFA40F20510C2F2000040F60D2195
:1020A000C18745F24141C4F24541C0F83A1045F2BA
:1020B0002051C4F25041C0F8361045F24621C5F215
:1020C0004511C0F832100E20FFF71AFE51E043F61A
:1020D000EF30C2F200008178C07840EA0120ADF80C
:1020E0000E02BDF80E02FEF7A7F941EC100B9FEDB2
:1020F000A01B51EC110B53EC102BFEF72EF941EC09
:10210000100B51EC100B9FED9C0B53EC102BFEF7BA
:102110007DF841EC100B51EC100BFEF79EF9FFF728
:10212000DFFB42F60040C4F201000021012274905E
:102130007391729206F068FC0420749971900846BD
:102140007399719A06F002FA74987299729A06F06D
:102150005BFC74987299719A06F0F8F940F20510D8
:10216000C2F20000AC2180F832107298FFF7C8FD6F
:10217000FFE749E143F64040C2F2000000680088F2
:1021800045F24441884208D0FFE743F6EF30C2F2FF
:1021900000004078D1285FD1FFE743F64040C2F20B
:1021A00000000068008845F24441884238D1FFE7CA
:1021B00049F23B31C0F600010020FEF705F843F676
:1021C0004041C2F20001086042F64440C4F20100FE
:1021D000026822F0FF02026009687090084603F06E
:1021E0007DFAC0B270990A681043086040F2051089
:1021F000C2F2000044F24542C0F60D22C0F83A2077
:1022000044F25042C5F24142C0F8362045F2444201
:10221000C5F22052C0F832200C20FFF771FD1AE001
:1022200042F64440C4F20100016821F0FF01016060
:1022300043F6EF31C2F20001897802681143016070
:1022400040F20510C2F20000AC2180F832100120EB
:10225000FFF756FDFFE7D6E043F64040C2F200002C
:102260000068008844F24431884209D0FFE743F611
:10227000EF30C2F200004078DC2840F0C380FFE776
:1022800043F64040C2F200000068008844F2443146
:10229000884277D1FFE749F23B31C0F600010020C8
:1022A000FDF792FF43F64041C2F20001086042F69A
:1022B0002C40C4F2010090ED000AB8EE400A0A6812
:1022C0006F9010466E918DED6D0A03F007FA00EEE7
:1022D000100AB8EEC00A9FED2A1A80EE010A9DEDA1
:1022E0006D2A22EE000ABCEEC00A42F63440C4F267
:1022F000010080ED000A6F9890ED000AB8EE400AE8
:102300006E9908688DED6C1A8DED6B0A03F0E6F995
:1023100000EE100AB8EEC00A9DED6C1A80EE010ABC
:102320009DED6B2A22EE000ABCEEC00A42F6384050
:10233000C4F2010080ED000A40F20510C2F2000074
:1023400044F24541C0F60D21C0F83A1044F2504124
:10235000C5F24141C0F8361044F24431C5F2205173
:10236000C0F832100C20FFF7CBFC4AE000BF00BFE2
:1023700000000000004CFD40000000000000F0BF25
:102380000000C84242F62C40C4F2010090ED000A61
:10239000B8EE400A43F6EF31C2F200018A7801EE4E
:1023A000102AB8EEC11A1FED0A2A81EE021A20EE99
:1023B000010ABCEEC00A42F63442C4F2010282EDC8
:1023C000000A90ED000AB8EE400A887801EE100A83
:1023D000B8EEC11A81EE021A20EE010ABCEEC00A64
:1023E00042F63840C4F2010080ED000A40F20510C8
:1023F000C2F20000AC2180F832100120FFF780FC0F
:10240000FFE7FFE7FFE7FFE7FFE7FFE703F0A7B816
:1024100043F64040C2F20000006849F25431C0F671
:1024200000010322FDF7C2FE002809D0FFE743F6B2
:10243000EF30C2F200000078AD2840F07A84FFE768
:1024400049F23B31C0F600010020FDF7BDFE43F626
:102450004041C2F2000108600868006844F252512D
:10246000C4F24141884209D0FFE743F6EF30C2F29F
:1024700000004078FD2840F0A181FFE700208DF8A2
:102480001302FFE79DF8130209282ADCFFE7FEF795
:102490009DF800208DF81202FFE79DF81202052832
:1024A00018DCFFE79DF8120240F20801C2F20001B9
:1024B00031F8101043F62442C2F2000252F82030E4
:1024C000194442F82010FFE79DF8120201308DF800
:1024D0001202E2E7FFE79DF8130201308DF81302C4
:1024E000D0E743F64040C2F200000068006844F2C2
:1024F0005251C4F24141884240F0C380FFE740F2AC
:102500000510C2F2000044F24921C5F2553140F8ED
:10251000321F42F23A01818043F62442C2F20002A5
:1025200013684CF6CD4CCCF6CC4CA3FB0C3ECEF352
:10253000CF0E06246A906991214668927246CDF8C2
:102540009CC166936594FEF7EDF80D206A99887238
:102550000A22CA720C236490184663926293FFF7B2
:10256000CFFB69986A99888044F25612C4F64342B8
:102570000A60689A5368DDF89CC1A3FB0C3ECEF359
:10258000CF02084665996193FEF7CCF864986A9982
:102590008872639ACA726298FFF7B2FB44F64940A8
:1025A000C2F23A006A99086068988268679BA2FB49
:1025B000032CCCF3CF0C04216A9860926246FEF79C
:1025C000B1F864986A990872639A4A721046FFF7E4
:1025D00097FB69986A99888044F25452C5F24D027B
:1025E0000A60689AD368DDF89CC1A3FB0C3ECEF369
:1025F000CF02084665995F93FEF794F864986A994C
:102600008872639ACA726298FFF77AFB69986A992E
:10261000888044F25612C4F643520A60689A1369DD
:10262000DDF89CC1A3FB0C3ECEF3CF0208466599B2
:102630005E93FEF777F864986A998872639ACA7213
:102640006298FFF75DFB69986A99888044F2562288
:10265000C5F255320A60689A5369DDF89CC1A3FB44
:102660000C3ECEF3CF02084665995D93FEF75AF80B
:1026700064986A998872639ACA726298FFF740FBFD
:1026800082E043F62440C2F2000001684CF6CD42DD
:10269000CCF6CC42A1FB0213DB0A40F2051CC2F2CD
:1026A000000C8CF832300368A3FB023E4FEADE0ECA
:1026B0008CF833E04FF0200E8CF834E04468A4FB33
:1026C0000245ED0A8CF835504568A5FB0256F60820
:1026D0008CF836608CF837E08668A6FB0267FF0A44
:1026E0008CF838708768A7FB02784FEAD8088CF816
:1026F00039808CF83AE0D0F80C80A8FB02894FEAC8
:10270000D9298CF83B90D0F80C90A9FB029A4FEA9B
:10271000DA0A8CF83CA08CF83DE0D0F810A0AAFBB7
:1027200002AB4FEADB2B8CF83EB0D0F810B05C90D7
:10273000ABFB02B0C0088CF83F008CF840E05C981E
:10274000D0F814E0AEFB02E0C00A8CF841005C98BF
:102750004069A0FB0202D2088CF8422011225B9053
:1027600010465A9159935894579556965597CDF8C7
:102770005081CDF84C91CDF848A1CDF844B1CDF8B9
:1027800040E1FFF7BDFAFFE700208DF81202FFE7F6
:102790009DF81202052810DCFFE79DF8120243F6AF
:1027A0002441C2F20001002241F82020FFE79DF8F9
:1027B000120201308DF81202EAE7B8E243F6404017
:1027C000C2F20000006849F28B31C0F60001072216
:1027D000FDF7ECFC002809D0FFE743F6EF30C2F22A
:1027E000000040785A2840F07281FFE743F64040ED
:1027F000C2F20000006849F28B31C0F600010722E6
:10280000FDF7D4FC002840F0D980FFE749F23B31C6
:10281000C0F6000100204F90FDF7D6FC43F6404182
:10282000C2F200010860086802F058FF43F6444114
:10283000C2F20001088043F6DA30C2F200004F997C
:102840000180FFE743F6DA30C2F20000008843F669
:102850004441C2F200010988884280F2AE80FFE75D
:10286000FDF7B4FE40F20510C2F2000044F2492127
:10287000C5F2553140F8321F42F23A01818040F2F0
:102880000802C2F2000213884FF0060C4E904D91E0
:1028900061464C921A46CDF82CC1FDF743FF0D203E
:1028A0004E9988720A22CA720C234A90184649929D
:1028B0004893FFF725FA4D984E99888044F25612B6
:1028C000C4F643420A604C9A528808464B99FDF779
:1028D00029FF4A984E998872499ACA724898FFF718
:1028E0000FFA44F64940C2F23A004E9908604C98FB
:1028F000828804214E98FDF715FF4A984E99087278
:10290000499A4A721046FFF7FBF94D984E99888014
:1029100044F25452C5F24D020A604C9AD2880846DD
:102920004B99FDF7FFFE4A984E998872499ACA72F0
:102930004898FFF7E5F94D984E99888044F2561271
:10294000C4F643520A604C9A128908464B99FDF727
:10295000E9FE4A984E998872499ACA724898FFF7D8
:10296000CFF94D984E99888044F25622C5F25532DF
:102970000A604C9A528908464B99FDF7D3FE4A9853
:102980004E998872499ACA724898FFF7B9F942F687
:102990002D50C0F60D204E9988604FF02D304860C4
:1029A00008604898FFF7ACF9FFE743F6DA30C2F267
:1029B000000001880131018044E787E0FEF754FF01
:1029C00043F6EF30C2F200008178C07840EA01207F
:1029D00043F64441C2F20001088043F6E030C2F2FF
:1029E000000000210180FFE743F6E030C2F2000062
:1029F000008843F64441C2F200010988884232DA75
:102A0000FFE7FDF7E3FD40F20800C2F20000417865
:102A100040F2EA02C2F20002D17101881172C1785B
:102A20005172418891724179D17281881173C17953
:102A30005173C1889173417AD17301891174C17A3C
:102A40005174408990740020D074212010750E209C
:102A5000FEF7F2FEFFE743F6E030C2F20000018825
:102A600001310180C0E743F6E030C2F20000008887
:102A700043F64441C2F200010988884225DBFFE7A2
:102A800040F60040C4F20100042120234790469103
:102A9000469A04F0E7FB2820102347994590084602
:102AA0004599469A04F0DEFB082347984599469AD3
:102AB00004F0D8FB40F60000C4F201004FF40043DC
:102AC0004599469A04F0CEFBFFE7FFE72EE143F677
:102AD0004040C2F20000006849F25C31C0F60001DB
:102AE0000822FDF763FB002809D0FFE743F6EF302B
:102AF000C2F200004078372840F0A580FFE743F697
:102B00004040C2F20000006849F25C31C0F60001AA
:102B10000822FDF74BFB002824D1FFE749F23B31A7
:102B2000C0F600010020FDF74FFB43F64041C2F222
:102B300000010860086802F0D1FD8DF8130240F230
:102B40000510C2F20000323049F2FE21C0F6000149
:102B500012224492FDF718FB449943900846FFF770
:102B6000CFF811E043F6EF30C2F2000080788DF824
:102B7000130240F20510C2F20000AC2180F83210BE
:102B80000120FFF7BDF8FFE7FEF76EFEFEF70AF93A
:102B90009DF81302013801460528429147D8429911
:102BA000DFE801F0030E19242F3A42F20040C4F28C
:102BB000010000214191419A419B03F0F3F941E06A
:102BC00042F20040C4F20100012200214091409BEA
:102BD00003F0E8F936E042F20040C4F201000222BC
:102BE00000213F913F9B03F0DDF92BE042F20040D2
:102BF000C4F20100032200213E913E9B03F0D2F972
:102C000020E042F20040C4F20100052200213D9183
:102C10003D9B03F0C7F915E042F20040C4F2010009
:102C2000062200213C913C9B03F0BCF90AE042F2F1
:102C30000040C4F2010000213B913B9A3B9B03F012
:102C4000B1F9FFE771E043F64040C2F200000068CE
:102C5000006845F25341C5F24F01884208D0FFE7B2
:102C600043F6EF30C2F20000407830285CD1FFE735
:102C700041F20000C4F2010004214FF400423A91F5
:102C80003A9B39921A46399B04F0ECFA40F6004020
:102C9000C4F20100202338903A993A9A04F0E2FAFB
:102CA0002820102338993790084637993A9A04F02B
:102CB000D9FA0823389837993A9A04F0D3FA40F6AB
:102CC0000000C4F2010037993A9A399B04F0CAFA1D
:102CD00043F64040C2F200000068006845F25341EC
:102CE000C5F24F01884213D1FFE740F20510C2F24E
:102CF0000000323049F2EC21C0F600011122369278
:102D0000FDF742FA369935900846FEF7F9FF0AE0DA
:102D100040F20510C2F20000AC2180F83210012010
:102D2000FEF7EEFFFFE7FFE7FFE7FFE7FFE702F051
:102D300015BC43F64040C2F20000006849F2503131
:102D4000C0F600010322FDF731FA002809D0FFE7A1
:102D500043F6EF30C2F200000078DC2840F08180BA
:102D6000FFE700208DF81102FEF760FD43F64740B3
:102D7000C2F200000121017043F64040C2F200009F
:102D8000006849F25031C0F600010322FDF70EFA47
:102D9000002836D1FFE749F23B31C0F600010020A0
:102DA0003490FDF711FA43F64041C2F20001086089
:102DB000086802F093FC349933900846339A03F084
:102DC0006DFE349803F0C4FE40F20510C2F200001C
:102DD0000A2180F83E1044F25451C0F64451C0F824
:102DE0003A1045F25501C4F24411C0F8361044F2CD
:102DF0004411C2F24301C0F832100D20FEF780FFEB
:102E00002DE040F2BC00C2F200000121017043F647
:102E1000EF30C2F200004278837843EA022243F6A0
:102E2000EC33C2F200031A804278807840EA022232
:102E300000203290329B3191194603F02FFE3298D8
:102E400003F086FEFEF710FD40F20510C2F200000E
:102E5000AC2180F832103198FEF752FFFFE702F004
:102E60007CBB43F64040C2F200000068006845F2B7
:102E70004701C4F64971884209D0FFE743F6EF30B5
:102E8000C2F2000000786F2842F07F82FFE749F22B
:102E90003B31C0F600010020FDF796F943F64041B2
:102EA000C2F2000108600868006844F25251C4F29E
:102EB0004141884209D0FFE743F6EF30C2F20000FB
:102EC00040787D2840F00682FFE743F64040C2F29A
:102ED00000000068006844F25251C4F24141884247
:102EE00040F04D81FFE741F20000C4F201004FF4D1
:102EF000005104F081FA01281DD1FFE740F20510CE
:102F0000C2F200000A2180F83E1044F24971C0F676
:102F10004851C0F83A1043F64521C4F62001C0F8E4
:102F2000361045F25341C5F24141C0F832100D2030
:102F3000FEF7E6FE19E040F20510C2F2000045F28D
:102F40004F71C0F60D21C0F83A1043F64521C4F682
:102F50002041C0F8361045F25341C5F24141C0F856
:102F600032100C20FEF7CCFEFFE741F20000C4F265
:102F700001004FF4004104F03FFA01281DD1FFE7A2
:102F800040F20510C2F2000040F60D21C18744F660
:102F90004811C4F64701C0F83A1044F24C51C2F24D
:102FA0003A01C0F8361044F64561C4F24121C0F838
:102FB00032100E20FEF7A4FE1CE040F20510C2F213
:102FC00000000A2180F83E1044F64C71C0F65751BB
:102FD000C0F83A1044F24C51C2F23A01C0F836102F
:102FE00044F64561C4F24121C0F832100D20FEF7CD
:102FF00087FEFFE740F60040C4F20100022104F022
:10300000FBF901281DD1FFE740F20510C2F20000D4
:103010000A2180F83E1044F24971C0F64851C0F8C8
:103020003A1043F64B21C4F62001C0F8361044F2A2
:103030005741C4F65F71C0F832100D20FEF760FEF4
:1030400019E040F20510C2F2000045F24F71C0F6DF
:103050000D21C0F83A1043F64B21C4F62041C0F8C8
:10306000361044F25741C4F65F71C0F832100C209C
:10307000FEF746FEFFE740F60040C4F201004FF4C1
:10308000805104F0B9F901281AD1FFE740F2051088
:10309000C2F2000044F64701C0F60D21C0F8391015
:1030A00044F62001C4F24971C0F8361044F24F31A1
:1030B000C3F65021C0F832100B20FEF721FE16E0B7
:1030C00040F20510C2F2000040F60D21418744F69F
:1030D0002041C5F24F71C0F8361044F24F31C3F6AB
:1030E0005021C0F832100A20FEF70AFEFFE740F632
:1030F0000040C4F20100202104F07EF9012820D113
:10310000FFE740F20510C2F2000044F64701C0F6A6
:103110000D21C0F83D1044F62001C4F24971C0F8F9
:103120003A1044F65F11C3F64E21C0F8361045F64A
:103130005311C4F24E31C0F832100E20FEF7E0FDFC
:103140001CE040F20510C2F2000040F60D21C187DC
:1031500044F62041C5F24F71C0F83A1044F65F11B1
:10316000C3F64E21C0F8361045F65311C4F24E3165
:10317000C0F832100D20FEF7C3FDFFE7A8E040F2D3
:103180000510C2F20000002180F8321041F2000068
:10319000C4F201004FF4005104F02EF901280BD1C4
:1031A000FFE740F20510C2F2000090F8321049002B
:1031B000013180F8321009E040F20510C2F200003F
:1031C00090F83210490080F83210FFE741F2000019
:1031D000C4F201004FF4004104F00EF901280BD1B4
:1031E000FFE740F20510C2F2000090F832104900EB
:1031F000013180F8321009E040F20510C2F20000FF
:1032000090F83210490080F83210FFE740F6004095
:10321000C4F20100022104F0EFF801280BD1FFE70E
:1032200040F20510C2F2000090F83210490001315E
:1032300080F8321009E040F20510C2F2000090F868
:103240003210490080F83210FFE740F60040C4F227
:1032500001004FF4805104F0CFF801280BD1FFE7B3
:1032600040F20510C2F2000090F83210490001311E
:1032700080F8321009E040F20510C2F2000090F828
:103280003210490080F83210FFE740F60040C4F2E7
:103290000100202104F0B0F801280BD1FFE740F233
:1032A0000510C2F2000090F832104900013180F898
:1032B000321009E040F20510C2F2000090F832101E
:1032C000490080F83210FFE70120FEF719FDFFE703
:1032D00002F05AB843F64040C2F20000006849F2DA
:1032E0006531C0F600010722FCF760FF002809D015
:1032F000FFE743F6EF30C2F2000040787F2841F04C
:10330000BF82FFE7FDF7FAFA43F64040C2F2000041
:10331000006849F26531C0F600010722FCF746FF5C
:10332000002840F03E87FFE741F20000C4F20100B0
:103330004FF4005104F060F801281DD1FFE740F27E
:103340000510C2F200000A2180F83E1044F24971D3
:10335000C0F64851C0F83A1043F64521C4F62001A2
:10336000C0F8361045F25341C5F24141C0F8321061
:103370000D20FEF7C5FC19E040F20510C2F2000076
:1033800045F24F71C0F60D21C0F83A1043F64521C1
:10339000C4F62041C0F8361045F25341C5F2414110
:1033A000C0F832100C20FEF7ABFCFFE741F2000042
:1033B000C4F201004FF4804104F01EF801281DD131
:1033C000FFE740F20510C2F200000A2180F83E102B
:1033D00044F24971C0F64851C0F83A1043F64D2105
:1033E000C4F62001C0F8361044F64141C5F241212F
:1033F000C0F832100D20FEF783FC19E040F20510F2
:10340000C2F2000045F24F71C0F60D21C0F83A102B
:1034100043F64D21C4F62041C0F8361044F6414130
:10342000C5F24121C0F832100C20FEF769FCFFE71D
:1034300041F20000C4F201004FF4004103F0DCFF50
:1034400001281DD1FFE740F20510C2F2000040F64E
:103450000D21C18744F64811C4F64701C0F83A105F
:1034600044F24C51C2F23A01C0F8361044F64561BC
:10347000C4F24121C0F832100E20FEF741FC1CE0DE
:1034800040F20510C2F200000A2180F83E1044F616
:103490004C71C0F65751C0F83A1044F24C51C2F288
:1034A0003A01C0F8361044F64561C4F24121C0F833
:1034B00032100D20FEF724FCFFE740F60000C4F2B6
:1034C0000100012103F098FF01281AD1FFE740F223
:1034D0000510C2F2000044F64701C0F60D21C0F805
:1034E0003A1042F23A01C4F64811C0F8361044F2DC
:1034F0004921C5F25531C0F832100C20FEF700FC0E
:1035000019E040F20510C2F2000045F24F71C0F61A
:103510000D21C0F8391042F23A01C4F64C71C0F8DE
:10352000361044F24921C5F25531C0F832100B2053
:10353000FEF7E6FBFFE740F60000C4F201000221BF
:1035400003F05AFF01281AD1FFE740F20510C2F23A
:10355000000044F64701C0F60D21C0F83A1042F2CF
:103560003A01C4F64811C0F8361044F25611C4F6B8
:103570004341C0F832100C20FEF7C2FB19E040F2C4
:103580000510C2F2000045F24F71C0F60D21C0F8DF
:10359000391042F23A01C4F64C71C0F8361044F2C8
:1035A0005611C4F64341C0F832100B20FEF7A8FBB9
:1035B000FFE740F60000C4F20100042103F01CFF05
:1035C000012817D1FFE740F20510C2F2000040F6D3
:1035D0000D21418744F64811C4F64701C0F8361062
:1035E00044F64941C2F23A01C0F832100A20FEF70F
:1035F00087FB16E040F20510C2F200000A2180F8B5
:103600003A1044F64C71C0F65751C0F8361044F6E3
:103610004941C2F23A01C0F832100920FEF770FBAE
:10362000FFE740F60000C4F20100082103F0E4FEC9
:1036300001281AD1FFE740F20510C2F2000044F65B
:103640004701C0F60D21C0F83A1042F23A01C4F623
:103650004811C0F8361044F25451C5F24D01C0F87B
:1036600032100C20FEF74CFB19E040F20510C2F2BC
:10367000000045F24F71C0F60D21C0F8391042F23A
:103680003A01C4F64C71C0F8361044F25451C5F2F8
:103690004D01C0F832100B20FEF732FBFFE740F679
:1036A0000000C4F20100102103F0A6FE01281DD184
:1036B000FFE740F20510C2F2000040F60D21C1877D
:1036C00044F64811C4F64701C0F83A1044F65401D4
:1036D000C2F23A01C0F8361044F24F31C5F65071CB
:1036E000C0F832100E20FEF70BFB1CE040F2051074
:1036F000C2F200000A2180F83E1044F64C71C0F678
:103700005751C0F83A1044F65401C2F23A01C0F8D9
:10371000361044F24F31C5F65071C0F832100D200A
:10372000FEF7EEFAFFE740F60000C4F201002021A8
:1037300003F062FE01281AD1FFE740F20510C2F241
:10374000000044F64701C0F60D21C0F83A1042F2DD
:103750003A01C4F64811C0F8361044F25611C4F6C6
:103760004361C0F832100C20FEF7CAFA19E040F2AB
:103770000510C2F2000045F24F71C0F60D21C0F8ED
:10378000391042F23A01C4F64C71C0F8361044F2D6
:103790005611C4F64361C0F832100B20FEF7B0FAA0
:1037A000FFE740F60000C4F20100402103F024FED0
:1037B00001281AD1FFE740F20510C2F2000044F6DA
:1037C0004701C0F60D21C0F83A1042F23A01C4F6A2
:1037D0004811C0F8361044F25621C5F25531C0F8F0
:1037E00032100C20FEF78CFA19E040F20510C2F2FC
:1037F000000045F24F71C0F60D21C0F8391042F2B9
:103800003A01C4F64C71C0F8361044F25621C5F2A4
:103810005531C0F832100B20FEF772FAFFE740F680
:103820000000C4F20100802103F0E6FD01281DD153
:10383000FFE740F20510C2F200000A2180F83E10B6
:1038400044F24971C0F64851C0F83A1043F6592184
:10385000C4F62001C0F8361044F25251C4F24C11A3
:10386000C0F832100D20FEF74BFA19E040F20510B7
:10387000C2F2000045F24F71C0F60D21C0F83A10B7
:1038800043F65921C4F62041C0F8361044F2525193
:10389000C4F24C11C0F832100C20FEF731FAFFE7E9
:1038A00040F60040C4F20100012103F0A5FD01280B
:1038B00017D1FFE740F20510C2F2000040F60D21DB
:1038C000418744F64811C4F64701C0F8361044F267
:1038D0005741C2F23A01C0F832100A20FEF710FA3E
:1038E00016E040F20510C2F200000A2180F83A10FA
:1038F00044F64C71C0F65751C0F8361044F25741A7
:10390000C2F23A01C0F832100920FEF7F9F9FFE7D8
:1039100040F60040C4F20100022103F06DFD0128D1
:103920001DD1FFE740F20510C2F200000A2180F825
:103930003E1044F24971C0F64851C0F83A1043F6BF
:103940004B21C4F62001C0F8361044F25741C4F6AA
:103950005F71C0F832100D20FEF7D2F919E040F285
:103960000510C2F2000045F24F71C0F60D21C0F8FB
:103970003A1043F64B21C4F62041C0F8361044F209
:103980005741C4F65F71C0F832100C20FEF7B8F949
:10399000FFE740F60040C4F20100042103F02CFDD3
:1039A000012820D1FFE740F20510C2F2000044F6E2
:1039B0004701C0F60D21C0F83E1042F23A01C4F6AC
:1039C0004811C0F83A1045F65471C4F24451C0F899
:1039D000361045F25531C5F24121C0F832101020A1
:1039E000FEF78EF91FE040F20510C2F2000045F22A
:1039F0004F71C0F60D21C0F83D1042F23A01C4F6F5
:103A00004C71C0F83A1045F65471C4F24451C0F8F4
:103A1000361045F25531C5F24121C0F832100F2061
:103A2000FEF76EF9FFE740F60040C4F201004FF4E4
:103A3000806103F0E1FC012820D1FFE740F205108E
:103A4000C2F2000044F64701C0F60D21C0F83E1056
:103A500042F23A01C4F64811C0F83A1045F65471E2
:103A6000C5F65401C0F8361045F25531C5F2412172
:103A7000C0F832101020FEF743F91FE040F20510A5
:103A8000C2F2000045F24F71C0F60D21C0F83D10A2
:103A900042F23A01C4F64C71C0F83A1045F654713E
:103AA000C5F65401C0F8361045F25531C5F2412132
:103AB000C0F832100F20FEF723F9FFE740F6004070
:103AC000C4F201004FF4006103F096FC012820D1FC
:103AD000FFE740F20510C2F2000044F64701C0F6CD
:103AE0000D21C0F83E1042F23A01C4F64811C0F868
:103AF0003A1045F65471C5F65201C0F8361045F239
:103B00005531C5F24121C0F832101020FEF7F8F807
:103B10001FE040F20510C2F2000045F24F71C0F6FE
:103B20000D21C0F83D1042F23A01C4F64C71C0F8C4
:103B30003A1045F65471C5F65201C0F8361045F2F8
:103B40005531C5F24121C0F832100F20FEF7D8F8E8
:103B5000FFE740F60040C4F201004FF4805103F04B
:103B60004BFC01281AD1FFE740F20510C2F2000019
:103B700040F64851C0F20A01C0F83A1044F620015C
:103B8000C4F24971C0F8361044F24F31C3F65021E7
:103B9000C0F832100C20FEF7B3F817E040F2051021
:103BA000C2F2000040F60D21C0F83A1044F6204160
:103BB000C5F24F71C0F8361044F24F31C3F65021B0
:103BC000C0F832100B20FEF79BF8FFE740F60040EC
:103BD000C4F201004FF4005103F00EFC01281DD186
:103BE000FFE740F20510C2F2000040F60D21C18748
:103BF00044F64811C4F64701C0F83A1044F65301A0
:103C0000C2F23A01C0F8361045F25071C5F64D7156
:103C1000C0F832100E20FEF773F81CE040F20510D9
:103C2000C2F200000A2180F83E1044F64C71C0F642
:103C30005751C0F83A1044F65301C2F23A01C0F8A5
:103C4000361045F25071C5F64D71C0F832100D2096
:103C5000FEF756F8FFE740F60040C4F201004FF4CB
:103C6000804103F0C9FB01281DD1FFE740F2051098
:103C7000C2F2000040F60D21C18744F64811C4F697
:103C80004701C0F83A1044F65341C2F23A01C0F875
:103C9000361045F25071C5F64D71C0F832100E2045
:103CA000FEF72EF81CE040F20510C2F200000A21D7
:103CB00080F83E1044F64C71C0F65751C0F83A10E7
:103CC00044F65341C2F23A01C0F8361045F2507141
:103CD000C5F64D71C0F832100D20FEF711F8FFE760
:103CE00040F60040C4F201004FF4004103F084FBB1
:103CF00001281AD1FFE740F20510C2F2000044F695
:103D00004701C0F60D21C0F83A1042F23A01C4F65C
:103D10004811C0F8361044F24C51C3F24411C0F8B7
:103D200032100C20FDF7ECFF19E040F20510C2F252
:103D3000000045F24F71C0F60D21C0F8391042F273
:103D40003A01C4F64C71C0F8361044F24C51C3F23B
:103D50004411C0F832100B20FDF7D2FFFFE740F608
:103D60000000C4F201004FF4807103F045FB01280C
:103D70001DD1FFE740F20510C2F2000040F60D2110
:103D8000C18744F64811C4F64701C0F83A1044F61A
:103D90004601C2F23A01C0F8361045F25071C5F63C
:103DA0004D71C0F832100E20FDF7AAFF1CE040F262
:103DB0000510C2F200000A2180F83E1044F64C7152
:103DC000C0F65751C0F83A1044F64601C2F23A0123
:103DD000C0F8361045F25071C5F64D71C0F832107A
:103DE0000D20FDF78DFFFFE740F60000C4F2010053
:103DF0004FF4007103F000FB01281DD1FFE740F2F2
:103E00000510C2F2000040F60D21C18744F64811AA
:103E1000C4F64701C0F83A1044F64641C2F23A01EE
:103E2000C0F8361045F25071C5F64D71C0F8321029
:103E30000E20FDF765FF1CE040F20510C2F2000005
:103E40000A2180F83E1044F64C71C0F65751C0F874
:103E50003A1044F64641C2F23A01C0F8361045F233
:103E60005071C5F64D71C0F832100D20FDF748FFB6
:103E7000FFE740F60040C4F201004FF4005103F0A8
:103E8000BBFA01281DD1FFE740F20510C2F2000085
:103E900040F60D21C18744F64811C4F64701C0F829
:103EA0003A1044F65301C2F23A01C0F8361045F216
:103EB0005071C5F64D71C0F832100E20FDF720FF8D
:103EC0001CE040F20510C2F200000A2180F83E100A
:103ED00044F64C71C0F65751C0F83A1044F65301FD
:103EE000C2F23A01C0F8361045F25071C5F64D7174
:103EF000C0F832100D20FDF703FFFFE740F6000089
:103F0000C4F201004FF4806103F076FA01281DD15C
:103F1000FFE740F20510C2F2000040F60D21C18714
:103F200044F64811C4F64701C0F83A1044F645611A
:103F3000C2F23A01C0F8361045F25071C5F64D7123
:103F4000C0F832100E20FDF7DBFE1CE040F2051039
:103F5000C2F200000A2180F83E1044F64C71C0F60F
:103F60005751C0F83A1044F64561C2F23A01C0F820
:103F7000361045F25071C5F64D71C0F832100D2063
:103F8000FDF7BEFEFFE740F60000C4F201004FF46B
:103F9000006103F031FA01281DD1FFE740F205105E
:103FA000C2F2000040F60D21C18744F64811C4F664
:103FB0004701C0F83A1045F65201C2F23A01C0F882
:103FC000361044F24311C5F64E71C0F832100E207F
:103FD000FDF796FE1CE040F20510C2F200000A2137
:103FE00080F83E1044F64C71C0F65751C0F83A10B4
:103FF00045F65201C2F23A01C0F8361044F24311BC
:10400000C5F64E71C0F832100D20FDF779FEFFE7BE
:1040100040F60000C4F201004FF4805103F0ECF9C7
:1040200001281DD1FFE740F20510C2F2000040F662
:104030000D21C18744F64811C4F64701C0F83A1073
:1040400045F65401C2F23A01C0F8361044F2431169
:10405000C5F64E71C0F832100E20FDF751FE1CE07F
:1040600040F20510C2F200000A2180F83E1044F62A
:104070004C71C0F65751C0F83A1045F65401C2F2DF
:104080003A01C0F8361044F24311C5F64E71C0F83B
:1040900032100D20FDF734FEFFE740F60040C4F279
:1040A0000100202103F0A8F9012820D1FFE740F208
:1040B0000510C2F2000044F64701C0F60D21C0F819
:1040C0003D1044F62001C4F24971C0F83A1044F69C
:1040D0005F11C3F64E21C0F8361045F65311C4F2F5
:1040E0004E31C0F832100F20FDF70AFE1CE040F2FE
:1040F0000510C2F2000040F60D21C18744F62041B0
:10410000C5F24F71C0F83A1044F65F11C3F64E2164
:10411000C0F8361045F65311C4F24E31C0F83210D3
:104120000E20FDF7EDFDFFE740F60040C4F2010070
:104130004FF4807103F060F901281AD1FFE740F2D3
:104140000510C2F2000044F64701C0F60D21C0F888
:10415000391044F62001C4F24971C0F8361044F217
:104160004611C3F64E21C0F832100B20FDF7C8FDF2
:1041700016E040F20510C2F2000040F60D21418722
:1041800044F62041C5F24F71C0F8361044F2461192
:10419000C3F64E21C0F832100A20FDF7B1FDFFE74B
:1041A00064E340F20510C2F20000002180F83210F2
:1041B00080F8331080F8341080F8351041F2000098
:1041C000C4F201004FF4005103F016F901280BD19D
:1041D000FFE740F20510C2F2000090F832104900EB
:1041E000013180F8321009E040F20510C2F20000FF
:1041F00090F83210490080F83210FFE741F20000D9
:10420000C4F201004FF4804103F0F6F801280BD10D
:10421000FFE740F20510C2F2000090F832104900AA
:10422000013180F8321009E040F20510C2F20000BE
:1042300090F83210490080F83210FFE741F2000098
:10424000C4F201004FF4004103F0D6F801280BD16D
:10425000FFE740F20510C2F2000090F8321049006A
:10426000013180F8321009E040F20510C2F200007E
:1042700090F83210490080F83210FFE740F6000055
:10428000C4F20100012103F0B7F801280BD1FFE7C8
:1042900040F20510C2F2000090F8321049000131DE
:1042A00080F8321009E040F20510C2F2000090F8E8
:1042B0003210490080F83210FFE740F60000C4F2E7
:1042C0000100022103F098F801280BD1FFE740F22A
:1042D0000510C2F2000090F832104900013180F858
:1042E000321009E040F20510C2F2000090F83210DE
:1042F000490080F83210FFE740F60000C4F20100E8
:10430000042103F079F801280BD1FFE740F20510F2
:10431000C2F2000090F832104900013180F83210EA
:1043200009E040F20510C2F2000090F83210490096
:1043300080F83210FFE740F60000C4F201000821C7
:1043400003F05AF801280BD1FFE740F20510C2F242
:10435000000090F832104900013180F8321009E075
:1043600040F20510C2F2000090F83210490080F8C7
:104370003210FFE740F60000C4F20100102103F004
:104380003BF801280BD1FFE740F20510C2F2000014
:1043900090F832104900013180F8321009E040F203
:1043A0000510C2F2000090F83210490080F8321077
:1043B000FFE740F60000C4F20100202103F01CF8E2
:1043C00001280BD1FFE740F20510C2F2000090F87F
:1043D00032104900013180F8331009E040F2051035
:1043E000C2F2000090F83310490080F83310FFE764
:1043F00040F60000C4F20100402102F0FDFF012858
:104400000BD1FFE740F20510C2F2000090F8321025
:104410004900013180F8331009E040F20510C2F282
:10442000000090F83310490080F83310FFE740F6A1
:104430000000C4F20100802102F0DEFF01280BD150
:10444000FFE740F20510C2F2000090F83210490078
:10445000013180F8331009E040F20510C2F200008B
:1044600090F83310490080F83310FFE740F6004021
:10447000C4F20100012102F0BFFF01280BD1FFE7C8
:1044800040F20510C2F2000090F8321049000131EC
:1044900080F8331009E040F20510C2F2000090F8F5
:1044A0003310490080F83310FFE740F60040C4F2B3
:1044B0000100022102F0A0FF01280BD1FFE740F22A
:1044C0000510C2F2000090F832104900013180F866
:1044D000331009E040F20510C2F2000090F83310EA
:1044E000490080F83310FFE740F60040C4F20100B5
:1044F000042102F081FF01280BD1FFE740F20510F3
:10450000C2F2000090F832104900013180F83310F7
:1045100009E040F20510C2F2000090F833104900A3
:1045200080F83310FFE740F60040C4F201004FF47A
:10453000806102F061FF01280BD1FFE740F2051016
:10454000C2F2000090F832104900013180F83310B7
:1045500009E040F20510C2F2000090F83310490063
:1045600080F83310FFE740F60040C4F201004FF43A
:10457000006102F041FF01280BD1FFE740F2051076
:10458000C2F2000090F832104900013180F8331077
:1045900009E040F20510C2F2000090F83310490023
:1045A00080F83310FFE740F60040C4F201004FF4FA
:1045B000805102F021FF01280BD1FFE740F20510E6
:1045C000C2F2000090F832104900013180F8341036
:1045D00009E040F20510C2F2000090F834104900E2
:1045E00080F83410FFE740F60040C4F201004FF4B9
:1045F000005102F001FF01280BD1FFE740F2051046
:10460000C2F2000090F832104900013180F83410F5
:1046100009E040F20510C2F2000090F834104900A1
:1046200080F83410FFE740F60040C4F201004FF478
:10463000804102F0E1FE01280BD1FFE740F20510B6
:10464000C2F2000090F832104900013180F83410B5
:1046500009E040F20510C2F2000090F83410490061
:1046600080F83410FFE740F60040C4F201004FF438
:10467000004102F0C1FE01280BD1FFE740F2051016
:10468000C2F2000090F832104900013180F8341075
:1046900009E040F20510C2F2000090F83410490021
:1046A00080F83410FFE740F60000C4F201004FF438
:1046B000807102F0A1FE01280BD1FFE740F2051046
:1046C000C2F2000090F832104900013180F8341035
:1046D00009E040F20510C2F2000090F834104900E1
:1046E00080F83410FFE740F60000C4F201004FF4F8
:1046F000007102F081FE01280BD1FFE740F20510A6
:10470000C2F2000090F832104900013180F83410F4
:1047100009E040F20510C2F2000090F834104900A0
:1047200080F83410FFE740F60000C4F201004FF4B7
:10473000806102F061FE01280BD1FFE740F2051015
:10474000C2F2000090F832104900013180F83410B4
:1047500009E040F20510C2F2000090F83410490060
:1047600080F83410FFE740F60000C4F201004FF477
:10477000006102F041FE01280BD1FFE740F2051075
:10478000C2F2000090F832104900013180F8341074
:1047900009E040F20510C2F2000090F83410490020
:1047A00080F83410FFE740F60000C4F201004FF437
:1047B000805102F021FE01280BD1FFE740F20510E5
:1047C000C2F2000090F832104900013180F8351033
:1047D00009E040F20510C2F2000090F835104900DF
:1047E00080F83510FFE740F60040C4F201002021B8
:1047F00002F002FE01280BD1FFE740F20510C2F2E1
:10480000000090F832104900013180F8351009E0BD
:1048100040F20510C2F2000090F83510490080F80F
:104820003510FFE740F60040C4F201004FF48071FC
:1048300002F0E2FD01280BD1FFE740F20510C2F2C1
:10484000000090F832104900013180F8351009E07D
:1048500040F20510C2F2000090F83510490080F8CF
:104860003510FFE70420FDF74BFAFFE7FCF7ACFC3F
:10487000FDF75EFAFCF7B2FEFCF774FA00F083BDB8
:1048800043F64040C2F200000068006844F6481158
:10489000C4F64701884209D0FFE743F6EF30C2F281
:1048A00000004078FF2840F0EA80FFE741F2000076
:1048B000C4F201004FF4005130902F9102F054FCEB
:1048C0004FF4004030992E9008462E9902F04CFC8F
:1048D00040F60040C4F2010002212D902C9102F01C
:1048E00043FC4FF480502D992B9008462B9902F0F1
:1048F0003BFC20202D992A9008462A9902F034FC8E
:104900004FF48040309929900846299902F02CFCF8
:1049100040F60000C4F201008021289002F024FC3F
:1049200001202D9927900846279902F01DFC0420AC
:104930002D9926900846269902F016FC2D982E995E
:1049400002F012FC4FF480602899259008462599C2
:1049500002F00AFC4FF480702D99249008462499A7
:1049600002F002FC4FF40071289802F0FDFB289839
:10497000249902F0F9FB2D98299902F0F5FB2D9866
:104980002F9902F0F1FB2898279902F0EDFB289867
:104990002C9902F0E9FB2898269902F0E5FB082003
:1049A000289923900846239902F0DEFB28982A993B
:1049B00002F0DAFB4021289802F0D6FB102028995B
:1049C00022900846229902F0CFFB2D98259902F0FB
:1049D000CBFB4FF400602D9921900846219902F0FD
:1049E000C3FB28982B9902F0BFFB2898219902F06D
:1049F000BBFB2D98239902F0B7FB2D98229902F06A
:104A0000B3FB28982E9902F0AFFB43F64040C2F268
:104A100000000068006844F64811C4F64701884267
:104A200020D1FFE740F20510C2F2000044F6470132
:104A3000C0F60D21C0F83D1044F62001C4F24971C2
:104A4000C0F83A1045F24701C4F64971C0F8361073
:104A500044F64141C2F24C01C0F832100F20FDF77C
:104A60004FF90AE040F20510C2F20000AC2180F8D4
:104A700032100120FDF744F9FFE700F083BC43F654
:104A80004040C2F20000006849F29731C0F60001D0
:104A90000322FBF78BFB002809D0FFE743F6EF303A
:104AA000C2F200004078002840F0E880FFE741F2C1
:104AB0000000C4F201004FF4005120901F9102F059
:104AC0004BFB4FF4004020991E9008461E9902F0BF
:104AD00043FB40F60040C4F2010002211D901C91EE
:104AE00002F03AFB4FF480501D991B9008461B9929
:104AF00002F032FB20201D991A9008461A9902F004
:104B00002BFB4FF48040209919900846199902F028
:104B100023FB40F60000C4F201008021189002F04F
:104B20001BFB01201D9917900846179902F014FBF2
:104B300004201D9916900846169902F00DFB1D9849
:104B40001E9902F009FB4FF48060189915900846F1
:104B5000159902F001FB4FF480701D9914900846DE
:104B6000149902F0F9FA4FF40071189802F0F4FA6F
:104B70001898149902F0F0FA1D98199902F0ECFABD
:104B80001D981F9902F0E8FA1898179902F0E4FAB4
:104B900018981C9902F0E0FA1898169902F0DCFABD
:104BA0000820189913900846139902F0D5FA18981E
:104BB0001A9902F0D1FA4021189802F0CDFA10208B
:104BC000189912900846129902F0C6FA1D98159984
:104BD00002F0C2FA4FF400601D9911900846119935
:104BE00002F0BAFA18981B9902F0B6FA18981199BF
:104BF00002F0B2FA1D98139902F0AEFA1D981299BC
:104C000002F0AAFA18981E9902F0A6FA43F640405C
:104C1000C2F20000006849F29731C0F60001032299
:104C2000FBF7C4FA00281DD1FFE740F20510C2F2DD
:104C3000000040F60D21C18744F62041C5F24F71B6
:104C4000C0F83A1045F24701C4F64971C0F8361071
:104C500044F64141C2F24C01C0F832100E20FDF77B
:104C60004FF80AE040F20510C2F20000AC2180F8D3
:104C700032100120FDF744F8FFE782E343F640409D
:104C8000C2F20000006849F27431C0F60001062249
:104C9000FBF78CFA002809D0FFE743F6EF30C2F2A9
:104CA00000004078CC2840F0BA81FFE743F640404E
:104CB000C2F20000006849F27431C0F60001062219
:104CC000FBF774FA002840F0E180FFE749F23B313E
:104CD000C0F600010020FBF777FA43F64041C2F22C
:104CE00000010860086800F0CFFC43F6E431C2F22E
:104CF000000108600878C007002809D0FFE741F2EA
:104D00000000C4F201004FF4804102F02DFA08E0E7
:104D100041F20000C4F201004FF4804102F01CFA9D
:104D2000FFE743F6E430C2F2000000684008C00725
:104D3000002808D0FFE740F60000C4F201008021FF
:104D400002F012FA07E040F60000C4F201008021F0
:104D500002F002FAFFE743F6E430C2F20000006816
:104D60008008C007002808D0FFE740F60040C4F2E2
:104D70000100012102F0F8F907E040F60040C4F21A
:104D80000100012102F0E8F9FFE743F6E430C2F246
:104D900000000068C008C007002808D0FFE740F600
:104DA0000040C4F20100042102F0DEF907E040F601
:104DB0000040C4F20100042102F0CEF9FFE743F6FF
:104DC000E430C2F2000000680009C007002809D0E2
:104DD000FFE740F60040C4F201004FF4004102F04A
:104DE000C3F908E040F60040C4F201004FF400416E
:104DF00002F0B2F9FFE743F6E430C2F200000068C7
:104E00000009C007002809D0FFE740F60000C4F2FF
:104E100001004FF4806102F0A7F908E040F60000BD
:104E2000C4F201004FF4806102F096F9FFE743F607
:104E3000E430C2F2000000680009C007002809D071
:104E4000FFE740F60040C4F201004FF4807102F029
:104E50008BF908E040F60040C4F201004FF4807185
:104E600002F07AF9FFE740F20510C2F2000032309A
:104E700049F2BE21C0F6000114221092FBF784F91A
:104E800010990F900846FCF73BFFC7E043F6EF3060
:104E9000C2F200008078C007002809D0FFE741F285
:104EA0000000C4F201004FF4804102F05DF908E017
:104EB00041F20000C4F201004FF4804102F04CF9CD
:104EC000FFE743F6EF30C2F2000080784008C007E9
:104ED000002808D0FFE740F60000C4F2010080215E
:104EE00002F042F907E040F60000C4F20100802120
:104EF00002F032F9FFE743F6EF30C2F200008078AB
:104F00008008C007002808D0FFE740F60040C4F240
:104F10000100012102F028F907E040F60040C4F248
:104F20000100012102F018F9FFE743F6EF30C2F269
:104F300000008078C008C007002808D0FFE740F6CE
:104F40000040C4F20100042102F00EF907E040F62F
:104F50000040C4F20100042102F0FEF8FFE743F62E
:104F6000EF30C2F2000080780009C007002809D0A5
:104F7000FFE740F60040C4F201004FF4004102F0A8
:104F8000F3F808E040F60040C4F201004FF400419D
:104F900002F0E2F8FFE743F6EF30C2F2000080785B
:104FA0004009C007002809D0FFE740F60000C4F21E
:104FB00001004FF4806102F0D7F808E040F60000ED
:104FC000C4F201004FF4806102F0C6F8FFE743F637
:104FD000EF30C2F2000080788009C007002809D0B5
:104FE000FFE740F60040C4F201004FF4807102F088
:104FF000BBF808E040F60040C4F201004FF48071B5
:1050000002F0AAF8FFE740F20510C2F20000AC215E
:1050100080F832100120FCF773FEFFE7B0E143F6A1
:105020004040C2F20000006849F28331C0F600013E
:105030000722FBF7BBF8002808D0FFE743F6EF3064
:10504000C2F200004078AA2867D1FFE743F640404B
:10505000C2F20000006849F28331C0F60001072265
:10506000FBF7A4F8002829D1FFE749F23B30C0F64E
:10507000000000210E9008460E9A0D911146FBF794
:10508000A3F843F64041C2F20001086008680C91A1
:1050900000F024FB43F63E41C2F2000108800D9867
:1050A0000E99FBF791F80C990860086800F016FB60
:1050B00043F63C41C2F20001088016E043F6EF30AF
:1050C000C2F200008178C27842EA012143F63E42F2
:1050D000C2F2000211800179407940EA012043F6D2
:1050E0003C41C2F200010880FFE743F63E40C2F2B5
:1050F0000000008841F2883188420DDCFFE743F66A
:10510000E930C2F20000012101701C2000F0EEFD28
:10511000322000F009FEFFE731E143F64040C2F2E1
:105120000000006849F29331C0F600010322FBF74A
:105130003DF8002808D0FFE743F6EF30C2F2000048
:105140004078A02830D1FFE7FBF7B0FC43F64040A1
:10515000C2F20000006849F29331C0F60001032258
:10516000FBF724F8002813D1FFE740F20510C2F244
:105170000000323049F2D321C0F6000118220B9210
:10518000FBF702F80B990A900846FCF7B9FD0AE014
:1051900040F20510C2F20000AC2180F8321001206C
:1051A000FCF7AEFDFFE7E9E043F64040C2F2000045
:1051B000006849F26D31C0F600010622FAF7F6FFE9
:1051C000002808D0FFE743F6EF30C2F20000407835
:1051D000A42836D1FFE7FBF7F7FF43F6EA30C2F227
:1051E00000000021017043F64040C2F20000006858
:1051F00049F26D31C0F600010622FAF7D7FF002808
:1052000013D1FFE740F20510C2F20000323049F23C
:105210009E21C0F600011F220992FAF7B5FF0999F5
:1052200008900846FCF76CFD0AE040F20510C2F257
:105230000000AC2180F832100120FCF761FDFFE78F
:105240009BE043F64040C2F20000006849F2403162
:10525000C0F600010722FAF7A9FF002808D0FFE7EF
:1052600043F6EF30C2F200004078852836D1FFE7E0
:10527000FBF7BCFD43F6EA30C2F2000001210170E9
:1052800043F64040C2F20000006849F24031C0F6E7
:1052900000010722FAF78AFF002813D1FFE740F246
:1052A0000510C2F20000323049F25321C0F600016D
:1052B0001B220792FAF768FF079906900846FCF749
:1052C0001FFD0AE040F20510C2F20000AC2180F898
:1052D00032100220FCF714FDFFE74DE043F640409A
:1052E000C2F20000006849F24831C0F6000107220E
:1052F000FAF75CFF002808D0FFE743F6EF30C2F270
:1053000000004078582836D1FFE7FBF767FE43F6E8
:10531000EA30C2F200000221017043F64040C2F2BE
:105320000000006849F24831C0F600010722FAF790
:105330003DFF002813D1FFE740F20510C2F2000044
:10534000323049F26F21C0F600011B220592FAF7B4
:105350001BFF059904900846FCF7D2FC0AE040F2D6
:105360000510C2F20000AC2180F832100220FCF7D8
:10537000C7FCFFE7FFE7FFE7FFE7FFE7FFE7FFE720
:10538000FFE7FFE7FFE7FFE7E6E043F64040C2F252
:1053900000000068006844F25511C5F2524188428D
:1053A00008D0FFE743F6EF30C2F200000078CA28C9
:1053B00061D1FFE749F23B31C0F600010020FAF766
:1053C00003FF43F64041C2F200010860086800880C
:1053D00044F65451884208D0FFE743F6EF30C2F25A
:1053E00000000078CA2845D1FFE740F2BD00C2F2B4
:1053F000000043F23101C0F60D21016243F2513148
:10540000C3F23201C16142F24F01C5F24D01816127
:1054100044F24851C4F64C4141611020FCF7C6F8F3
:1054200043F64040C2F200000068008844F6545140
:10543000884213D1FFE740F20510C2F2000032307B
:1054400049F21131C0F6000115220392FAF79CFED1
:10545000039902900846FCF753FC0AE040F205105D
:10546000C2F20000AC2180F832100120FCF748FCA9
:10547000FFE7FFE76FE043F64040C2F2000000683C
:1054800049F27F31C0F600010322FAF78FFE0028AF
:1054900008D0FFE743F6EF30C2F200000078C528DD
:1054A00058D1FFE749F23B31C0F600010020FAF77E
:1054B0008BFE43F64041C2F2000108600868008894
:1054C00044F65451884208D0FFE743F6EF30C2F269
:1054D00000000078C5283CD1FFE740F21400C2F27A
:1054E00000005521A0F8A010032180F8A4104D2140
:1054F000C1725021017353214173FBF783F843F6C6
:105500004040C2F200000068008844F654518842CE
:1055100013D1FFE740F20510C2F20000323049F229
:105520002731C0F6000113220192FAF72DFE0199EE
:1055300000900846FCF7E4FB0AE040F20510C2F2D6
:105540000000AC2180F832100120FCF7D9FBFFE706
:10555000FFE7FFE7FFE7FFE7FFE7FFE7FFE70020E1
:105560008DF81302FFE79DF8130231280FDCFFE7E7
:105570009DF8130240F20511C2F2000100220A5404
:10558000FFE79DF8130201308DF81302EBE79DF859
:105590001102002804D0FFE71C2000F0C5FBFFE744
:1055A000FFE70DF5057DBDE8F08F000080B59CB0EC
:1055B000FBF70AFEFCF7BCFBFCF710F8FBF7D2FB8D
:1055C0004FF4E1301690002117911891199140F293
:1055D0000512C2F2000202F132031A931B9216ABBB
:1055E0000690184605910492FCF7E0FA20200499F1
:1055F00081F832000122039010460292FCF780FBF2
:1056000006981090059911911291139140F2BD02E4
:10561000C2F2000202F114031493159210A8019231
:10562000FBF720FF0398019908750298FBF7BEFF6E
:1056300005980C900D900F9009900E9040F2EA01A1
:10564000C2F20001CA1D0A9205310B9109A8FBF7AD
:10565000E5FF4FF4FA70079005988DF821008DF85A
:10566000200007A8FBF710FBFBF7C8F842F6DF6045
:10567000FCF736F90E20FCF703FA40F6B730FCF7DA
:10568000C7F91CB080BD000083B0029000200190DB
:105690008DF80300FFE702989DF80310405C00219D
:1056A0002F280A46C8BF01223A28B8BF01210A4262
:1056B00011D0FFE701984000019002989DF8031077
:1056C000405C01990844303801909DF80300013096
:1056D0008DF80300DFE7019803B0704782B00190B6
:1056E0000020ADF80200ADF80000FFE70198BDF81A
:1056F0000010405C00212F280A46C8BF01223A282A
:10570000B8BF01210A4217D0FFE7BDF8020000EB45
:1057100080004000ADF802000198BDF80010405C28
:10572000BDF8021008443038ADF80200BDF80000A2
:105730000130ADF80000D9E7BDF8020002B07047B3
:1057400080B582B0009000980138B0F1807F03D31B
:10575000FFE70120019019E0009801384EF2140192
:10576000CEF2000108604FF0FF300F2100F0F6FA92
:105770004EF21800CEF20000002101604EF210003F
:10578000CEF20000072202600191FFE7019802B00B
:1057900080BD000080B543F64840C2F200000168B9
:1057A00001310160006842F64701CBF2A371484322
:1057B0004FEA30104EF63341C0F20A01884226D833
:1057C000FFE743F6D130C2F200000178B1FA81F16F
:1057D000490901700078002809D0FFE740F6004031
:1057E000C4F201004FF4007101F0BEFC0EE040F67F
:1057F0000040C4F201004FF4007101F0ADFC43F62B
:105800004840C2F2000000210160FFE7FFE7FCF71B
:10581000B3FA80BD80B582B04EF68850CEF200005B
:10582000016841F47001016041F20000C4F202001D
:10583000016841F00101016041F20401C4F202017A
:1058400000220A6041F22C01C4F202010A600168E0
:105850004FF6FF73CEF6F6231940016041F20801BE
:10586000C4F202014FF47F030B60016821F4802130
:105870000160019202F046FE4FF00060019902F0D3
:105880003BFB02B080BD000080B542F60040C4F290
:105890000100012103F0A8FA002808D0FFE742F632
:1058A0000040C4F20100012103F092FAFFE780BD3D
:1058B00080B582B04FF08040012103F095FA0028B6
:1058C0006CD0FFE74FF08040012103F081FA43F6EE
:1058D0004640C2F200000078002819D1FFE740F2EC
:1058E0000510C2F20000323049F28B21C0F60001EF
:1058F00012220192FAF748FC019900900846FCF741
:10590000FFF943F64640C2F200000121017044E075
:1059100043F64640C2F20000007800283CD0FFE782
:1059200040F20510C2F20000007800281FD0FFE707
:1059300043F60000C4F2010042F20B2103F0B0FB79
:10594000012814D1FFE743F60000C4F2010042F23F
:105950000B2103F08FFB40F20510C2F2000042F26F
:105960004371012242541C2000F0C0F9FFE740F2CD
:10597000BC00C2F20000007800280CD1FFE740F222
:105980000510C2F200000078002804D1FFE73220A1
:10599000FCF7A8F8FFE7FFE7FFE7FFE702B080BDED
:1059A00080B584B040F60040C4F20000012103F04D
:1059B0001BFA002800F09881FFE740F60040C4F28F
:1059C0000000012103F004FA43F6E930C2F20000BE
:1059D0000078002800F08781FFE743F64C40C2F2D0
:1059E0000000018801310180008843F63C41C2F289
:1059F000000109884FF4FA52B2FBF1F1884240F3FA
:105A0000D980FFE743F6DE30C2F20000008843F69B
:105A10003E41C2F200010988884280F2CB80FFE754
:105A200043F64C40C2F200000021018041F2000028
:105A3000C4F201004FF4005101F0DEFC01280ED148
:105A4000FFE743F6DE30C2F20000008842F649016B
:105A5000C2F200010A5C520001320A540CE043F623
:105A6000DE30C2F20000008842F64901C2F20001B5
:105A70000A5C52000A54FFE741F20000C4F2010040
:105A80004FF4004101F0B8FC01280ED1FFE743F6C6
:105A9000DE30C2F20000008842F64901C2F2000185
:105AA0000A5C520001320A540CE043F6DE30C2F2C6
:105AB0000000008842F64901C2F200010A5C52006F
:105AC0000A54FFE740F60040C4F20100022101F051
:105AD00093FC01280ED1FFE743F6DE30C2F200004E
