:020000040800F2
:1000000050400020650100086D0100086F010008E4
:10001000710100087301000875010008000000006C
:100020000000000000000000000000007701000850
:1000300079010008000000007B0100089D570008BE
:100040007F0100087F0100087F0100087F01000890
:100050007F0100087F0100087F0100087F01000880
:100060007F0100087F0100087F0100087F01000870
:100070007F0100087F0100087F0100087F01000860
:100080007F0100087F0100087F0100087F01000850
:100090007F0100087F0100087F0100087F01000840
:1000A0007F010008915800087F0100087F010008C7
:1000B000B95800087F0100087F0100087F0100088F
:1000C0007F0100087F0100087F0100087F01000810
:1000D0007F0100087F0100087F0100087F01000800
:1000E000D90600087F0100087F0100087F01000891
:1000F0007F0100087F0100087F0100080000000068
:100100007F01000800000000A95900087F010008D5
:100110007F0100087F0100087F0100087F010008BF
:100120007F0100087F0100087F0100087F010008AF
:100130007F01000800000000000000007F010008AF
:100140007F0100087F0100087F0100087F0100088F
:10015000DFF80CD000F028FA00480047617500086D
:10016000504000200648804706480047FEE7FEE76B
:10017000FEE7FEE7FEE7FEE7FEE7FEE7FEE7FEE757
:100180001D5800085101000840EA01039B0703D0F5
:1001900009E008C9121F08C0042AFAD203E011F8C6
:1001A000013B00F8013B521EF9D2704730B50446BE
:1001B0000020034600E05B1C934203D2E05CCD5C70
:1001C000401BF8D030BD000070B50F4D00B9286855
:1001D000002412E00A4602E09E4203D0521C13782B
:1001E000002BF9D1DAB2224305D02BB124B1002182
:1001F00000F8011B04E00446401C0678002EE9D1FB
:100200002860204670BD0000000000202DE9FE4F50
:10021000804681EA0300C00F0C46009021F00041A7
:1002200023F00045B8EB0200A94105D24046214623
:1002300090461C460B46024623F00040104347D030
:10024000270DC7F30A00C3F30A510290401A019028
:1002500040286BDAC3F3130040F4801B00989246E9
:1002600020B10023D2EB030A63EB0B0B0198594634
:10027000C0F14002504600F009F906460D465046CE
:100280005946019A00F021F910EB08006141002461
:1002900087EA115284EAE7731A4340D0009A62B3A6
:1002A000019A012A4FEA075215DC001B61EB02019B
:1002B0004FF0004202EA0752CDE90042001C41F52E
:1002C000801132462B4600F021F903B0BDE8F08FD3
:1002D00040462146F9E7001B61EB0201001C41F595
:1002E000801300185B412018A2F5001747EB0301AB
:1002F00040EAD570B6196D4111E06D084FEA360637
:1003000045EAC0754FEA0752001B61EB0201001C71
:1003100041F5801149084FEA300000195141324639
:100320002B4603B0BDE8F04F00F0E1B80098012281
:1003300040000023D0EB020263EBE07300982146FB
:100340004FEAE074B8EB000061EB0401E9E783F0E9
:1003500000435BE781F0004158E72DE9F04D81EA69
:10036000030404F0004B21F0004514464FF0000A4E
:1003700023F0004150EA050220D054EA01021DD0CA
:10038000C5F30A570246C5F31303C1F31300C1F3C3
:100390000A5640F4801543F48013A7EB0608101B9F
:1003A000D64608F2FD3873EB050002D308F10108C8
:1003B00001E092185B41B8F1000F03DA002001461A
:1003C000BDE8F08D00204FF48011064684460EE013
:1003D000171B73EB050705D3121B63EB05030643DD
:1003E0004CEA010C49084FEA300092185B4150EA90
:1003F0000107EDD152EA030012D082EA040083EA39
:100400000501084305D0101BAB4106D20122002391
:1004100006E000224FF0004302E06FF001025310AB
:100420001AEB06004CEB085110EB0A0041EB0B01F4
:10043000BDE8F04D00F05BB80EB5C10F80EAE0708A
:100440000844CA07002140F233438DE80E000A46F3
:100450000B4600F05BF803B000BDC1F30A5210B5C3
:10046000C1F3130140F2FF3341F480119A4201DAE3
:10047000002010BD40F233439A42A2F2334203DC23
:10048000524200F012F810BD904010BD202A04DB4B
:10049000203A00FA02F1002070479140C2F1200397
:1004A00020FA03F3194390407047202A04DB203AD6
:1004B00021FA02F00021704721FA02F3D040C2F184
:1004C00020029140084319467047202A06DBCB17CB
:1004D000203A41FA02F043EAE07306E041FA02F3FF
:1004E000D040C2F12002914008431946704710B530
:1004F000141E73F1000408DA401C41F10001921847
:100500005B411A4301D120F0010010BD2DE9F04DEF
:1005100092469B4611B1B1FA81F202E0B0FA80F244
:1005200020329046FFF7B2FF04460F4640EA0A0029
:1005300041EA0B0153465A46084313D0114653EA89
:10054000010019D0C8F140025046FFF7AEFF054642
:100550000E46504659464246FFF798FF084305D0DD
:10056000012004E020463946BDE8F08D0020054317
:1005700046EAE0762C4337430A986305E40AA0EB89
:1005800008000022FD0A44EA47540A3002D5002040
:100590000146E9E7010510196941DDE9084500193F
:1005A0006941BDE8F04DA2E7064C074D06E0E06862
:1005B00040F0010394E8070098471034AC42F6D3AA
:1005C000FFF7CAFD90940008B094000880B542F28D
:1005D0000040C4F20100012105F0B6FDFFE7002054
:1005E000C4F202000021022206F0EAFB002801D139
:1005F000FFE7F4E70020C4F202000021022206F027
:10060000CDFB80BD80B582B001900198B0F8A010FC
:1006100001600198002141600198017201984172C6
:10062000019890F8A4108172019946F20040C4F23A
:10063000000006F037F843F6EE31C2F20001087010
:10064000087801460028009108D0FFE700980128AB
:100650000CD0FFE70098022810D017E043F6D43002
:10066000C2F200004FF40071016017E043F6D4308D
:10067000C2F200004FF4027101600FE043F6D43083
:10068000C2F200004FF40471016007E043F6D43079
:10069000C2F200004FF400710160FFE7FFE743F68C
:1006A000D430C2F20000018846F20040C4F20000DB
:1006B00005F0A8FE012801D1FFE7F0E743F6D430AA
:1006C000C2F20000018846F20040C4F2000005F0CA
:1006D00083FE02B080BD000080B54FF4004006F0FC
:1006E00033FD00281DD0FFE7FFF770FF43F6DC3035
:1006F000C2F2000001880131018040F20800C2F21C
:100700000000417840F2EA02C2F20002D171008892
:100710001072022001F026F84FF4004006F00AFDA6
:10072000FFE780BD70B582B013468C4601908DF80E
:100730000310ADF80020BDF8000044F6D351C1F21B
:100740006201A0FB0101890946F26762C6F2666296
:1007500051FB02FE4FEA9E0404EBDE7E0EEB8E0E92
:10076000A1EB4E013031DDF804E09DF803400EF8B6
:100770000410BDF8001048F21F5EC5F2EB1EA1FB8D
:100780000E1E4FEA5E1E5EFB02F4A50805EBD47454
:1007900004EB8404AEEB440E0EF1300E019C9DF888
:1007A00003502C4484F801E0BDF800E04CF6CD4441
:1007B000CCF6CC44AEFB04E5ED0855FB02F29608FE
:1007C00006EBD27202EB8202A5EB42023032019DAF
:1007D0009DF803603544AA70BDF80020A2FB0445D3
:1007E000ED0805EB8505A2EB450242F03002019DC4
:1007F0009DF803603544EA7002B070BD80B58CB0DE
:1008000000208DF82E0040F20801C2F2000107918D
:1008100001218DF82D104FF40062089242F24C42F3
:10082000C4F2010205928DF82C004FF4007206927A
:1008300009914FF440520A920022C4F2020205AB21
:1008400004901046DDF810C00391614602921A46EA
:1008500006F0D2FA0298049906F082FA02980499F6
:1008600006F042FA4FF4C02005F090FB42F200403F
:10087000C4F201004FF480710190039A05F084FCEA
:1008800002210198049A05F07FFC0198049905F073
:10089000E1FA0198049905F043FC01980399039A41
:1008A00005F0A0FA4FF460220198039905F044FB8B
:1008B00001980399039A05F0FDFA01980499049AA6
:1008C000049B05F073FB019805F0E4FA019805F02C
:1008D0006BFA019805F0D4FA47F20040C4F2000028
:1008E000016841F00101016004980499049A06F03E
:1008F000D9F8049806F04AF90CB080BD80B58EB0E6
:1009000041F20000C4F2010004214FF400520D90A6
:100910000C910C9B0B921A460B9B06F0C1FC4FF4FA
:1009200000400D990A9008460C990C9A0A9B06F013
:10093000B7FC40F60040C4F20100022109900C9A75
:1009400008911146089B06F0ABFC4FF480500999C2
:10095000079008460C990C9A079B06F0A1FC2020F2
:100960000999069008460C990C9A069B06F098FC8B
:100970004FF480400D99059008460C990C9A059B00
:1009800006F08EFC40F60000C4F2010080230490C3
:100990000C990C9A06F084FC0120099903900846F2
:1009A0000C990C9A039B06F07BFC09980C990C9A05
:1009B0000C9B06F075FC09980C990C9A0A9B06F0A2
:1009C0006FFC4FF480600499029008460C990C9AD1
:1009D000029B06F065FC4FF480700999019008466F
:1009E0000C990C9A019B06F05BFC4FF40073049881
:1009F0000C990C9A06F054FC04980C990C9A019BE3
:100A000006F04EFC09980C990C9A059B06F048FCE0
:100A100009980C990C9A0B9B06F042FC04980C99CF
:100A20000C9A039B06F03CFC04980C990C9A089BCA
:100A300006F036FC04980C990C9A0C9B06F030FCDE
:100A4000082304980C990C9A06F02AFC04980C9937
:100A50000C9A069B06F024FC402304980C990C9AEF
:100A600006F01EFC102304980C990C9A06F018FC52
:100A700009980C990C9A029B06F012FC4FF4006046
:100A80000999009008460C990C9A009B06F008FC06
:100A900004980C990C9A079B06F002FC04980C9998
:100AA0000C9A009B06F0FCFB0EB080BD80B590B0A8
:100AB00041F20000C4F20100102104224FF400535F
:100AC0000F900E910D920C9306F0EAFB4FF400404C
:100AD0000F990B9008460E990D9A0B9B06F0E0FBC0
:100AE00040F60040C4F2010002210A900E9A0991DA
:100AF00011460D9A099B06F0D3FB4FF480500A99DA
:100B0000089008460E990D9A089B06F0C9FB202014
:100B10000A99079008460E990D9A079B06F0C0FBAC
:100B20004FF480400F99069008460E990D9A069B47
:100B300006F0B6FB40F60000C4F2010080230590E9
:100B40000E990D9A06F0ACFB01200A990490084614
:100B50000E990D9A049B06F0A3FB0A980E990D9A24
:100B60000D9B06F09DFB0A980E990D9A0B9B06F0C3
:100B700097FB4FF480600599039008460E990D9AF3
:100B8000039B06F08DFB4FF480700A990290084693
:100B90000E990D9A029B06F083FB4FF400730598A3
:100BA0000E990D9A06F07CFB05980E990D9A029B02
:100BB00006F076FB0A980E990D9A069B06F070FBDC
:100BC0000A980E990D9A0C9B06F06AFB05980E99EF
:100BD0000D9A049B06F064FB05980E990D9A099BEB
:100BE00006F05EFB05980E990D9A0D9B06F058FBDA
:100BF00008200599019008460E990D9A019B06F070
:100C00004FFB05980E990D9A079B06F049FB402370
:100C100005980E990D9A06F043FB05980E990D9ACA
:100C20000E9B06F03DFB0A980E990D9A039B06F069
:100C300037FB4FF400600A99009008460E990D9A10
:100C4000009B06F02DFB05980E990D9A089B06F067
:100C500027FB05980E990D9A009B06F021FB0A9838
:100C60000E990D9A019B06F01BFB0A980E990D9A9E
:100C70000E9B06F015FB05980E990D9A0B9B06F03E
:100C80000FFB10B080BD000080B58CB00B9040F21F
:100C9000197007F077FA46F20040C4F200000190A4
:100CA00005F0CAFA00208DF821008DF823008DF898
:100CB00022008DF824008DF81D0004218DF81E10EF
:100CC00002218DF81F108DF820008DF825000B985B
:100CD00000798DF81C0007A9019805F0F3FB0B992A
:100CE0000968FA2900910AD0FFE70098B0F5FA7F69
:100CF00005D0FFE70098B0F57A7F0CD1FFE70B989D
:100D000000684FF47A71414346F20040C4F200009B
:100D100005F098FB0AE046F20040C4F200004EF6EF
:100D20004801C0F2010105F08DFBFFE70020ADF89E
:100D30001200ADF814000121ADF81610ADF808004E
:100D4000ADF80A00ADF80C00ADF80E000B98407934
:100D5000ADF810008DF8181002A805F08DFA0CB04F
:100D600080BD000080B582B04FF4C06007F00AFA81
:100D700040F2026007F006FA40F60000C4F20100FB
:100D8000482103224FF400630190009206F088FA94
:100D900018214FF480530198009A06F081FA02B0AE
:100DA00080BD000080B582B041F20000C4F20100B5
:100DB0001C2104224FF40043019306F071FA022033
:100DC0000F2106F0F7F900200199009008460099DC
:100DD000009A06F011F9019806F0A0F928200121E7
:100DE000009A07F019F802B080BD000080B590B0FD
:100DF00040F60040C4F2010004214FF480420F90FD
:100E00000E910E9B0D921A460D9B06F049FA4FF477
:100E100000500F990C9008460E990E9A0C9B06F004
:100E20003FFA40F60000C4F201000B900E990E9AB2
:100E30000E9B06F035FA08200B990A9008460E9989
:100E40000E9A0A9B06F02CFA40230B980E990E9AE4
:100E500006F026FA01200B99099008460E990E9A81
:100E6000099B06F01DFA20200B99089008460E9960
:100E70000E9A089B06F014FA02200B990790084678
:100E80000E990E9A079B06F00BFA4FF400400B994F
:100E9000069008460E990E9A069B06F001FA4FF44A
:100EA00080600F99059008460E990E9A059B06F0F2
:100EB000F7F94FF400600F99049008460E990E9AC6
:100EC000049B06F0EDF94FF480500B99039008460F
:100ED0000E990E9A039B06F0E3F90B980E990E9A61
:100EE000049B06F0DDF910200B99029008460E993C
:100EF0000E9A029B06F0D4F90F980E990E9A0A9B4F
:100F000006F0CEF94FF400730B9802990E9A06F092
:100F1000C7F94FF480700B990190084602990E9A18
:100F2000019B06F0BDF90F9802990E9A079B06F0F7
:100F3000B7F90F9802990E9A039B06F0B1F941F2A6
:100F40000000C4F20100009002990E9A0D9B06F079
:100F5000A7F9009802990E9A0C9B06F0A1F90F9838
:100F600002990E9A089B06F09BF9009802990E9A36
:100F7000069B06F095F90F9802990E9A019B06F0D0
:100F80008FF980230B9802990E9A06F089F90F9831
:100F900002990E9A099B06F083F90F9802990E9A0E
:100FA0000E9B06F07DF90F9802990E9A069B06F0AB
:100FB00077F90B9802990E9A059B06F071F90F9834
:100FC00002990E9A029B06F06BF940F20020C0F2E3
:100FD0003000099906F044FA10B080BD80B590B099
:100FE00040F60000C4F2010004214FF400730F909A
:100FF0000E910E9A06F054F94FF480700F990D90EF
:1010000008460E990E9A0D9B06F04AF940F60040EC
:10101000C4F2010002210C900E9A0B9111460B9B19
:1010200006F03EF94FF480500C990A9008460E994C
:101030000E9A0A9B06F034F941F20000C4F2010056
:101040004FF4804109900E9A08911146089B06F0D2
:1010500027F94FF400500999079008460E990E9A07
:10106000079B06F01DF920200C99069008460E9962
:101070000E9A069B06F014F94FF40040099905906A
:1010800008460E990E9A059B06F00AF90C980E99DF
:101090000E9A0D9B06F004F980230F980E990E9A74
:1010A00006F0FEF801200C99049008460E990E9A5D
:1010B000049B06F0F5F80C980E990E9A0E9B06F01C
:1010C000EFF80C980E990E9A059B06F0E9F84FF48C
:1010D00080600F99039008460E990E9A039B06F0C4
:1010E000DFF810200C99029008460E990E9A029B88
:1010F00006F0D6F80C9802990E9A089B06F0D0F8E4
:101100000C9802990E9A079B06F0CAF80F9802995C
:101110000E9A0E9B06F0C4F808200F99019008461D
:1011200002990E9A019B06F0BBF840230F98029992
:101130000E9A06F0B5F80F9802990E9A049B06F0E5
:10114000AFF80F9802990E9A069B06F0A9F80F982F
:1011500002990E9A0B9B06F0A3F80F9802990E9A2B
:10116000059B06F09DF80C9802990E9A039B06F0D9
:1011700097F84FF400600C990090084602990E9A77
:10118000009B06F08DF80F9802990E9A0A9B06F0C4
:1011900087F80F9802990E9A009B06F081F80F9835
:1011A00002990E9A029B06F07BF80C9802990E9A0F
:1011B000019B06F075F840F20020C0F2300004995F
:1011C00006F04EF910B080BD80B592B040F20260DA
:1011D00006F0D8FF40F2036006F0D4FF40F204604E
:1011E00006F0D0FF40F2096006F0CCFF40F20A6042
:1011F00006F0C8FF4FF4A06006F0C4FF40F21D7077
:1012000006F0C0FF4FF4C06006F0BCFF40F600409F
:10121000C4F20100102104224FF4007311901091C8
:101220000F920E9306F03CF840F60000C4F2010065
:1012300028214FF400520D900C910F9B0B921A46EF
:101240000B9B06F02DF84FF480400D990A9008464C
:101250000C990F9A0A9B06F023F84FF400400D9961
:10126000099008460C990F9A099B06F019F8082076
:101270001199089008460C990F9A089B06F010F8EF
:1012800011980C990F9A109B06F00AF840F2002072
:10129000C0F230000121079106F0E2F841F20000AF
:1012A000C4F2010006900F990F9A0B9B05F0F8FF0E
:1012B00006980F990F9A099B05F0F2FF02201199E9
:1012C000059008460F990F9A059B05F0E9FF4FF42A
:1012D000805311980F990F9A05F0E2FF2020119981
:1012E000049008460F990F9A049B05F0D9FF0698C1
:1012F00010990F9A0A9B05F0D3FF80230D9810993F
:101300000F9A05F0CDFF119810990F9A079B05F0E1
:10131000C7FF119810990F9A0F9B05F0C1FF119804
:1013200010990F9A099B05F0BBFF4FF480630D984D
:1013300010990F9A05F0B4FF4FF480701199039043
:10134000084610990F9A039B05F0AAFF18200D99E3
:101350000290084602990F9A0E9B05F0A1FF0D9886
:1013600002990F9A039B05F09BFF119802990F9A1F
:101370000A9B05F095FF119802990F9A0B9B05F0B7
:101380008FFF00200D990190084601990F9A079B45
:1013900005F086FF0D9801990F9A059B05F080FFD7
:1013A0000D9801990F9A0F9B05F07AFF0D980199FE
:1013B0000F9A089B05F074FF0D9801990F9A049BF2
:1013C00005F06EFF40230D9801990F9A05F068FF14
:1013D0000D9801990F9A109B05F062FF12B080BD25
:1013E00080B586B001468DF817000020C4F20200D7
:1013F0000122022304900391114602921A4605F03D
:10140000CDFC0498029905F051FC9DF81720049832
:10141000029905F0B7FD44F60000C4F200008021F7
:1014200007F026FE0498029905F05EFCFFE744F6FB
:101430000000C4F20000062107F050FE002802D18F
:10144000FFE700BFF3E744F60000C4F20000062106
:10145000019007F02DFE0021019807F009FE06B06B
:1014600080BD000010B590B00F904FF4A06006F062
:1014700089FE40F2127006F085FE40F2065006F03A
:1014800081FE00208DF83A000F9949690A910121E7
:101490008DF839100B9044F60402C4F20002089251
:1014A0008DF8380009900C904FF480530D9340F262
:1014B000000CC4F2020C4FF0020E08AC079060461C
:1014C00006917146059222460493CDF80CC0CDF8E2
:1014D00008E0019405F090FC0398029905F040FCA7
:1014E0000398029905F000FC06988DF83A000F99D0
:1014F00009690A918DF8390007990B91059A0892AC
:101500008DF8381009910C91049B0D93039806995E
:10151000019A05F071FC0398069905F003FC039805
:10152000069905F0E1FB44F60000C4F200000090CB
:1015300007F02CFD0F980168009807F0A9FC0F98A0
:101540004168009807F016FE0F98C168009807F0F0
:101550007DFE0F988168009807F052FE0098079969
:1015600007F0FCFC0098079907F0EEFD009807993A
:1015700007F0D4FD009807F023FE3221009807F011
:101580002BFE4021009807F05DFD8021009807F0B8
:101590006FFD0821009807F043FE0421009807F032
:1015A000F9FD009807F07AFD10B010BD80B582B04B
:1015B00001468DF80700FFE744F60000C4F2000082
:1015C00042F2102107F08AFD002801D0FFE7F3E77F
:1015D0009DF80700FFF704FF02B080BD80B582B020
:1015E0004FF4C06006F0CEFD40F2036006F0CAFD85
:1015F00040F60040C4F20100182103224FF480633A
:101600000190009205F04CFE04214FF40063019814
:10161000009A05F045FE02B080BD000010B598B0FC
:10162000179040F2015006F0ADFD40F20F7006F049
:10163000A9FD00208DF85A0017998968129101219F
:101640008DF85910139043F60C42C4F20002109228
:101650008DF85800119014904FF44053159340F2B8
:10166000004CC4F2020C0DF1400E08906046089C3C
:1016700007912146069272460593CDF810C0CDF829
:101680000CE005F0B9FB0498089905F069FB049893
:10169000089905F029FB07988DF85A0017994968B1
:1016A00012918DF8590008991391069A10928DF8AD
:1016B000581011911491059B159304980799039A5A
:1016C00005F09AFB43F60040C4F20000029006F0D9
:1016D000DBFD09A8019006F075FE1798C068099017
:1016E00008980A90179909680B910C9017998969C5
:1016F0000D91179949690E91179909690F910298EF
:10170000019906F011FE029806F052FE029806F0CA
:1017100045FE029806F0AEFD18B010BD80B584B04D
:1017200001468DF80F0040F20040C4F20200002292
:10173000029001911146009205F0B8FA9DF80F2031
:101740000298009905F01EFC43F60040C4F2000028
:10175000012106F077FD0298009905F0C5FA04B062
:1017600080BD000080B584B001468DF80F0040F2C6
:101770000040C4F202000122029001911146009241
:1017800005F094FA9DF80F200298009905F0FAFBF5
:1017900043F60040C4F20000002106F053FD029819
:1017A000009905F0A1FA04B080BD000080B584B0B6
:1017B00001468DF80F0040F20040C4F20200012201
:1017C000029001911146009205F070FA9DF80F20E9
:1017D0000298009905F0D6FB43F60040C4F20000E1
:1017E000002106F02FFD0298009905F07DFAFFE731
:1017F00040F20040C4F202000121022205F0E0FAAA
:10180000002801D1FFE7F3E740F20040C4F20200F4
:101810000121022205F0C2FA43F60040C4F20000A2
:10182000002106F0F7FC04B080BD000080B5022066
:10183000FFF774FF80BD000080B582B001468DF8CF
:101840000700FFE743F60040C4F20000022106F063
:1018500055FD002801D1FFE7F4E79DF80700FFF7E9
:10186000A5FF02B080BD000080B584B04FF4C06019
:1018700006F088FC40F2036006F084FC40F202604F
:1018800006F080FC40F60040C4F20100182103225B
:1018900010230390029205F003FD042020230399F6
:1018A000019008460199029A05F0FAFC0823039872
:1018B0000199029A05F0F4FC40F60000C4F2010020
:1018C0004FF400430199029A05F0EAFC40F200202F
:1018D000C0F23000012105F0C3FD04B080BD00005E
:1018E00080B592B0119011981090119840080F9007
:1018F00040F20B6006F046FC42F60040C4F20100E4
:10190000039007F0E3F810980D900020ADF82C003C
:10191000ADF83800ADF82E00ADF83000FF218DF89D
:101920003A100BA9039A0290104607F0CFF9012054
:10193000ADF820000421ADF822100299ADF8241072
:10194000ADF82610ADF82810ADF82A1008AA039BB0
:1019500001901846009206F057FE03980199009AEC
:1019600006F052FE03980299029A07F06BF803986A
:101970000299029A06F008FE03980199029A07F06C
:1019800061F803980199029A06F0FEFD0F9A0398F8
:10199000029906F0EBFF60220398029906F09EFF81
:1019A00003980299029A07F005F80F9A0398019993
:1019B00006F0DCFF70220398019906F08FFF039870
:1019C0000199029A06F0F6FF1520ADF8140002986E
:1019D000ADF81600ADF81000ADF812004FF48041DC
:1019E000ADF81810ADF81A00ADF81C0004A9039862
:1019F00006F0B4FD19200221029A06F00DFA0398B0
:101A0000019907F0F9F9039807F056F912B080BD73
:101A100080B58AB00990099808904FF4E06006F00C
:101A2000B1FB4FF08040039007F050F80898069003
:101A30000020ADF81000ADF81C00ADF81200ADF8B4
:101A400014008DF81E0004A9039A0290104607F0B6
:101A50003DF91C2001210191029A06F0DDF903985D
:101A6000019907F0C9F90398019907F0F9F903986A
:101A700006F06AFD039807F01FF90AB080BD000068
:101A800080B590B00F900F980E900F9840080D9071
:101A900040F2037006F076FB40F60040C4F200000E
:101AA000019007F013F80E980B900020ADF8240079
:101AB000ADF83000ADF82600ADF82800FF208DF815
:101AC000320009A9019807F001F90121019807F0F6
:101AD00093F9322004F00EF9019807F0EDF810B0F8
:101AE00080BD000080B584B001468DF80F00002055
:101AF000C4F202000422029001911146009205F006
:101B0000D5F89DF80F200298009905F03BFA43F6AE
:101B10000000C4F20100402107F094FA02980099F5
:101B200005F0E2F804B080BD80B586B00146ADF89E
:101B300016000020C4F20200032202230490039145
:101B4000114602921A4605F029F90498029905F007
:101B5000ADF8BDF816200498029905F013FA43F683
:101B60000000C4F20100802107F082FA0498029973
:101B700005F0BAF8FFE743F60000C4F201000621C1
:101B800007F0ACFA002802D1FFE700BFF3E743F605
:101B90000000C4F201000621019007F089FA00213B
:101BA000019807F065FA06B080BD000010B592B04C
:101BB00011904FF4A06006F0E5FA40F20E6006F0D6
:101BC000E1FA40F2065006F0DDFA00208DF84200FE
:101BD000119949690C9101218DF841100D9043F63E
:101BE0000402C4F201020A928DF840000B903223E5
:101BF0000E934FF400530F9340F2000CC4F2020C0A
:101C00004FF0040E0AAC09906046089171460792A5
:101C100022460693CDF814C0CDF810E0039405F0E9
:101C2000EBF80598049905F09BF80598049905F0E0
:101C30005BF808988DF84200119909690C918DF8AC
:101C4000410009990D91079A0A928DF840100B9165
:101C50000E91069B0F934FF0030C05986146039A73
:101C6000CDF808C005F0C8F80598029905F05AF8B3
:101C70000598029905F038F843F60000C4F2010017
:101C8000019007F083F911980168019807F000F9B5
:101C900011984168019807F06DFA1198C168019890
:101CA00007F0D4FA11988168019807F0A9FA019811
:101CB000099907F053F90198099907F045FA019835
:101CC000099907F02BFA019807F07AFAFF21019899
:101CD00007F082FA4021019807F0B4F980210198B9
:101CE00007F0C6F90821019807F09AFA01980499BB
:101CF00007F050FA019807F0D1F912B010BD0000BA
:101D000080B582B00146ADF80600FFE743F600005B
:101D1000C4F2010042F2102107F0E0F9002801D0DE
:101D2000FFE7F3E7BDF80600FFF7FEFE02B080BD57
:101D300080B582B04FF4C06006F024FA40F2036030
:101D400006F020FA0420C4F20100016841F0040109
:101D5000016040F60040C4F2010018210322402334
:101D60000190009205F09CFA042180230198009ACA
:101D700005F096FA02B080BD2DE9F04FADF5057D76
:101D800000208DF813028DF8120201218DF8111236
:101D9000ADF80E0240F20510C2F2000042F24371AB
:101DA000405C002803F00284FFE740F20510C2F215
:101DB000000042F24371002242541C2182900846E6
:101DC00003F098FF43F6EF30C2F200003222819018
:101DD0008299FEF7D9F949F27731C0F60001819A6C
:101DE00080901046FEF7F0F943F64041C2F2000140
:101DF0000860086849F2B731C0F600010322FEF717
:101E0000D5F9002809D0FFE743F6EF30C2F2000011
:101E10000078102840F0FC82FFE749F27731C0F6E5
:101E200000010020FEF7D0F943F64041C2F2000164
:101E300008600868008844F64F61884208D0FFE7D0
:101E400043F6EF30C2F20000407805284ED1FFE79C
:101E500042F60040C4F20100002101227F907E91F1
:101E60007D9206F0EFFD04207F997C9008467E99D4
:101E70007C9A06F089FB7F987D997D9A06F0E2FDB9
:101E80007F987D997C9A06F07FFB43F64040C2F232
:101E900000000068008844F64F6188421AD1FFE7CD
:101EA00040F20510C2F2000045F25241C0F60D2189
:101EB000C0F8391045F25341C5F24121C0F836103F
:101EC00045F25071C2F24D01C0F832100B20FFF7FD
:101ED00017FF0AE040F20510C2F20000AC2180F8C2
:101EE00032100120FFF70CFFFFE78FE243F640407E
:101EF000C2F20000006849F29431C0F600010322EA
:101F0000FEF754F9002808D0FFE743F6EF30C2F29D
:101F1000000040780A284ED1FFE742F60040C4F2A4
:101F2000010000217B907A917A9A06F08BFD7B98D4
:101F30007A997A9A06F028FB01207B9979900846D5
:101F400079997A9A06F07EFD7B9879997A9A06F0CB
:101F50001BFB43F64040C2F20000006849F2943196
:101F6000C0F600010322FEF721F9002817D1FFE790
:101F700040F20510C2F2000040F60D21418745F203
:101F80005341C5F24F01C0F8361045F25071C2F20C
:101F90004D01C0F832100A20FFF7B2FE0AE040F20D
:101FA0000510C2F20000AC2180F832100120FFF7CA
:101FB000A7FEFFE729E243F64040C2F200000068B6
:101FC000006845F24621C5F24511884209D0FFE775
:101FD00043F6EF30C2F200004078FC2840F0CA809F
:101FE000FFE743F64040C2F200000068006845F297
:101FF0004621C5F24511884269D1FFE749F27731A0
:10200000C0F6000100207890FEF7DEF843F640416C
:10201000C2F200010860086803F064FBFEF70CFAE6
:1020200041EC100B9FEDD21B51EC110B53EC102B1C
:10203000FEF793F941EC100B51EC100B9FEDCE0B1A
:1020400053EC102BFEF7E2F841EC100B51EC100BA7
:10205000FEF703FAFFF744FC42F60040C4F2010029
:1020600001217790789A76911146769A06F0EAFCEB
:1020700004207799759008467899759A06F084FA45
:1020800077987699769A06F0DDFC77987699759A26
:1020900006F07AFA40F20510C2F2000040F60D2177
:1020A000C18745F24141C4F24541C0F83A1045F2BA
:1020B0002051C4F25041C0F8361045F24621C5F215
:1020C0004511C0F832100E20FFF71AFE51E043F61A
:1020D000EF30C2F200008178C07840EA0120ADF80C
:1020E0000E02BDF80E02FEF7A7F941EC100B9FEDB2
:1020F000A01B51EC110B53EC102BFEF72EF941EC09
:10210000100B51EC100B9FED9C0B53EC102BFEF7BA
:102110007DF841EC100B51EC100BFEF79EF9FFF728
:10212000DFFB42F60040C4F201000021012274905E
:102130007391729206F086FC04207499719008469F
:102140007399719A06F020FA74987299729A06F04F
:1021500079FC74987299719A06F016FA40F205109B
:10216000C2F20000AC2180F832107298FFF7C8FD6F
:10217000FFE749E143F64040C2F2000000680088F2
:1021800045F24441884208D0FFE743F6EF30C2F2FF
:1021900000004078D1285FD1FFE743F64040C2F20B
:1021A00000000068008845F24441884238D1FFE7CA
:1021B00049F27731C0F600010020FEF705F843F63A
:1021C0004041C2F20001086042F64440C4F20100FE
:1021D000026822F0FF02026009687090084603F06E
:1021E00081FAC0B270990A681043086040F2051085
:1021F000C2F2000044F24542C0F60D22C0F83A2077
:1022000044F25042C5F24142C0F8362045F2444201
:10221000C5F22052C0F832200C20FFF771FD1AE001
:1022200042F64440C4F20100016821F0FF01016060
:1022300043F6EF31C2F20001897802681143016070
:1022400040F20510C2F20000AC2180F832100120EB
:10225000FFF756FDFFE7D6E043F64040C2F200002C
:102260000068008844F24431884209D0FFE743F611
:10227000EF30C2F200004078DC2840F0C380FFE776
:1022800043F64040C2F200000068008844F2443146
:10229000884277D1FFE749F27731C0F6000100208C
:1022A000FDF792FF43F64041C2F20001086042F69A
:1022B0002C40C4F2010090ED000AB8EE400A0A6812
:1022C0006F9010466E918DED6D0A03F00BFA00EEE3
:1022D000100AB8EEC00A9FED2A1A80EE010A9DEDA1
:1022E0006D2A22EE000ABCEEC00A42F63440C4F267
:1022F000010080ED000A6F9890ED000AB8EE400AE8
:102300006E9908688DED6C1A8DED6B0A03F0EAF991
:1023100000EE100AB8EEC00A9DED6C1A80EE010ABC
:102320009DED6B2A22EE000ABCEEC00A42F6384050
:10233000C4F2010080ED000A40F20510C2F2000074
:1023400044F24541C0F60D21C0F83A1044F2504124
:10235000C5F24141C0F8361044F24431C5F2205173
:10236000C0F832100C20FFF7CBFC4AE000BF00BFE2
:1023700000000000004CFD40000000000000F0BF25
:102380000000C84242F62C40C4F2010090ED000A61
:10239000B8EE400A43F6EF31C2F200018A7801EE4E
:1023A000102AB8EEC11A1FED0A2A81EE021A20EE99
:1023B000010ABCEEC00A42F63442C4F2010282EDC8
:1023C000000A90ED000AB8EE400A887801EE100A83
:1023D000B8EEC11A81EE021A20EE010ABCEEC00A64
:1023E00042F63840C4F2010080ED000A40F20510C8
:1023F000C2F20000AC2180F832100120FFF780FC0F
:10240000FFE7FFE7FFE7FFE7FFE7FFE703F0ACB811
:1024100043F64040C2F20000006849F29031C0F635
:1024200000010322FDF7C2FE002809D0FFE743F6B2
:10243000EF30C2F200000078AD2840F07A84FFE768
:1024400049F27731C0F600010020FDF7BDFE43F6EA
:102450004041C2F2000108600868006844F252512D
:10246000C4F24141884209D0FFE743F6EF30C2F29F
:1024700000004078FD2840F0A181FFE700208DF8A2
:102480001302FFE79DF8130209282ADCFFE7FEF795
:102490009DF800208DF81202FFE79DF81202052832
:1024A00018DCFFE79DF8120240F20801C2F20001B9
:1024B00031F8101043F62442C2F2000252F82030E4
:1024C000194442F82010FFE79DF8120201308DF800
:1024D0001202E2E7FFE79DF8130201308DF81302C4
:1024E000D0E743F64040C2F200000068006844F2C2
:1024F0005251C4F24141884240F0C380FFE740F2AC
:102500000510C2F2000044F24921C5F2553140F8ED
:10251000321F42F23A01818043F62442C2F20002A5
:1025200013684CF6CD4CCCF6CC4CA3FB0C3ECEF352
:10253000CF0E06246A906991214668927246CDF8C2
:102540009CC166936594FEF7EDF80D206A99887238
:102550000A22CA720C236490184663926293FFF7B2
:10256000CFFB69986A99888044F25612C4F64342B8
:102570000A60689A5368DDF89CC1A3FB0C3ECEF359
:10258000CF02084665996193FEF7CCF864986A9982
:102590008872639ACA726298FFF7B2FB44F64940A8
:1025A000C2F23A006A99086068988268679BA2FB49
:1025B000032CCCF3CF0C04216A9860926246FEF79C
:1025C000B1F864986A990872639A4A721046FFF7E4
:1025D00097FB69986A99888044F25452C5F24D027B
:1025E0000A60689AD368DDF89CC1A3FB0C3ECEF369
:1025F000CF02084665995F93FEF794F864986A994C
:102600008872639ACA726298FFF77AFB69986A992E
:10261000888044F25612C4F643520A60689A1369DD
:10262000DDF89CC1A3FB0C3ECEF3CF0208466599B2
:102630005E93FEF777F864986A998872639ACA7213
:102640006298FFF75DFB69986A99888044F2562288
:10265000C5F255320A60689A5369DDF89CC1A3FB44
:102660000C3ECEF3CF02084665995D93FEF75AF80B
:1026700064986A998872639ACA726298FFF740FBFD
:1026800082E043F62440C2F2000001684CF6CD42DD
:10269000CCF6CC42A1FB0213DB0A40F2051CC2F2CD
:1026A000000C8CF832300368A3FB023E4FEADE0ECA
:1026B0008CF833E04FF0200E8CF834E04468A4FB33
:1026C0000245ED0A8CF835504568A5FB0256F60820
:1026D0008CF836608CF837E08668A6FB0267FF0A44
:1026E0008CF838708768A7FB02784FEAD8088CF816
:1026F00039808CF83AE0D0F80C80A8FB02894FEAC8
:10270000D9298CF83B90D0F80C90A9FB029A4FEA9B
:10271000DA0A8CF83CA08CF83DE0D0F810A0AAFBB7
:1027200002AB4FEADB2B8CF83EB0D0F810B05C90D7
:10273000ABFB02B0C0088CF83F008CF840E05C981E
:10274000D0F814E0AEFB02E0C00A8CF841005C98BF
:102750004069A0FB0202D2088CF8422011225B9053
:1027600010465A9159935894579556965597CDF8C7
:102770005081CDF84C91CDF848A1CDF844B1CDF8B9
:1027800040E1FFF7BDFAFFE700208DF81202FFE7F6
:102790009DF81202052810DCFFE79DF8120243F6AF
:1027A0002441C2F20001002241F82020FFE79DF8F9
:1027B000120201308DF81202EAE7B8E243F6404017
:1027C000C2F20000006849F2C731C0F600010722DA
:1027D000FDF7ECFC002809D0FFE743F6EF30C2F22A
:1027E000000040785A2840F07281FFE743F64040ED
:1027F000C2F20000006849F2C731C0F600010722AA
:10280000FDF7D4FC002840F0D980FFE749F277318A
:10281000C0F6000100204F90FDF7D6FC43F6404182
:10282000C2F200010860086802F05CFF43F6444110
:10283000C2F20001088043F6DA30C2F200004F997C
:102840000180FFE743F6DA30C2F20000008843F669
:102850004441C2F200010988884280F2AE80FFE75D
:10286000FDF7B4FE40F20510C2F2000044F2492127
:10287000C5F2553140F8321F42F23A01818040F2F0
:102880000802C2F2000213884FF0060C4E904D91E0
:1028900061464C921A46CDF82CC1FDF743FF0D203E
:1028A0004E9988720A22CA720C234A90184649929D
:1028B0004893FFF725FA4D984E99888044F25612B6
:1028C000C4F643420A604C9A528808464B99FDF779
:1028D00029FF4A984E998872499ACA724898FFF718
:1028E0000FFA44F64940C2F23A004E9908604C98FB
:1028F000828804214E98FDF715FF4A984E99087278
:10290000499A4A721046FFF7FBF94D984E99888014
:1029100044F25452C5F24D020A604C9AD2880846DD
:102920004B99FDF7FFFE4A984E998872499ACA72F0
:102930004898FFF7E5F94D984E99888044F2561271
:10294000C4F643520A604C9A128908464B99FDF727
:10295000E9FE4A984E998872499ACA724898FFF7D8
:10296000CFF94D984E99888044F25622C5F25532DF
:102970000A604C9A528908464B99FDF7D3FE4A9853
:102980004E998872499ACA724898FFF7B9F942F687
:102990002D50C0F60D204E9988604FF02D304860C4
:1029A00008604898FFF7ACF9FFE743F6DA30C2F267
:1029B000000001880131018044E787E0FEF754FF01
:1029C00043F6EF30C2F200008178C07840EA01207F
:1029D00043F64441C2F20001088043F6E030C2F2FF
:1029E000000000210180FFE743F6E030C2F2000062
:1029F000008843F64441C2F200010988884232DA75
:102A0000FFE7FDF7E3FD40F20800C2F20000417865
:102A100040F2EA02C2F20002D17101881172C1785B
:102A20005172418891724179D17281881173C17953
:102A30005173C1889173417AD17301891174C17A3C
:102A40005174408990740020D074212010750E209C
:102A5000FEF7F2FEFFE743F6E030C2F20000018825
:102A600001310180C0E743F6E030C2F20000008887
:102A700043F64441C2F200010988884225DBFFE7A2
:102A800040F60040C4F20100042120234790469103
:102A9000469A04F005FC28201023479945900846E3
:102AA0004599469A04F0FCFB082347984599469AB5
:102AB00004F0F6FB40F60000C4F201004FF40043BE
:102AC0004599469A04F0ECFBFFE7FFE72EE143F659
:102AD0004040C2F20000006849F29831C0F600019F
:102AE0000822FDF763FB002809D0FFE743F6EF302B
:102AF000C2F200004078372840F0A580FFE743F697
:102B00004040C2F20000006849F29831C0F600016E
:102B10000822FDF74BFB002824D1FFE749F277316B
:102B2000C0F600010020FDF74FFB43F64041C2F222
:102B300000010860086802F0D5FD8DF8130240F22C
:102B40000510C2F20000323049F23A31C0F60001FD
:102B500012224492FDF718FB449943900846FFF770
:102B6000CFF811E043F6EF30C2F2000080788DF824
:102B7000130240F20510C2F20000AC2180F83210BE
:102B80000120FFF7BDF8FFE7FEF76EFEFEF70AF93A
:102B90009DF81302013801460528429147D8429911
:102BA000DFE801F0030E19242F3A42F20040C4F28C
:102BB000010000214191419A419B03F0F7F941E066
:102BC00042F20040C4F20100012200214091409BEA
:102BD00003F0ECF936E042F20040C4F201000222B8
:102BE00000213F913F9B03F0E1F92BE042F20040CE
:102BF000C4F20100032200213E913E9B03F0D6F96E
:102C000020E042F20040C4F20100052200213D9183
:102C10003D9B03F0CBF915E042F20040C4F2010005
:102C2000062200213C913C9B03F0C0F90AE042F2ED
:102C30000040C4F2010000213B913B9A3B9B03F012
:102C4000B5F9FFE771E043F64040C2F200000068CA
:102C5000006845F25341C5F24F01884208D0FFE7B2
:102C600043F6EF30C2F20000407830285CD1FFE735
:102C700041F20000C4F2010004214FF400423A91F5
:102C80003A9B39921A46399B04F00AFB40F6004001
:102C9000C4F20100202338903A993A9A04F000FBDC
:102CA0002820102338993790084637993A9A04F02B
:102CB000F7FA0823389837993A9A04F0F1FA40F66F
:102CC0000000C4F2010037993A9A399B04F0E8FAFF
:102CD00043F64040C2F200000068006845F25341EC
:102CE000C5F24F01884213D1FFE740F20510C2F24E
:102CF0000000323049F22831C0F60001112236922C
:102D0000FDF742FA369935900846FEF7F9FF0AE0DA
:102D100040F20510C2F20000AC2180F83210012010
:102D2000FEF7EEFFFFE7FFE7FFE7FFE7FFE702F051
:102D30001ABC43F64040C2F20000006849F28C31F0
:102D4000C0F600010322FDF731FA002809D0FFE7A1
:102D500043F6EF30C2F200000078DC2840F08380B8
:102D6000FFE700208DF81102FDF748FDFEF75EFD3C
:102D700043F64740C2F200000121017043F6404093
:102D8000C2F20000006849F28C31C0F60001032253
:102D9000FDF70CFA002836D1FFE749F27731C0F68B
:102DA000000100203490FDF70FFA43F64041C2F2D3
:102DB00000010860086802F095FC349933900846D9
:102DC000339A03F06FFE349803F0E0FE40F20510F2
:102DD000C2F200000A2180F83E1044F25451C0F6BD
:102DE0004451C0F83A1045F25501C4F24411C0F8FC
:102DF000361044F24411C2F24301C0F832100D20E3
:102E0000FEF77EFF2DE040F2BC00C2F2000001217F
:102E1000017043F6EF30C2F200004278837843EA53
:102E2000022243F6EC33C2F200031A804278807823
:102E300040EA022200203290329B3191194603F081
:102E400031FE329803F0A2FEFEF70EFD40F20510AF
:102E5000C2F20000AC2180F832103198FEF750FF2A
:102E6000FFE702F07FBB43F64040C2F2000000687B
:102E7000006845F24701C4F64971884209D0FFE76E
:102E800043F6EF30C2F2000000786F2842F08282F1
:102E9000FFE749F27731C0F600010020FDF794F911
:102EA00043F64041C2F2000108600868006844F23D
:102EB0005251C4F24141884209D0FFE743F6EF3056
:102EC000C2F2000040787D2840F00682FFE743F61A
:102ED0004040C2F200000068006844F25251C4F25F
:102EE0004141884240F04D81FFE741F20000C4F2C9
:102EF00001004FF4005104F09DFA01281DD1FFE7B5
:102F000040F20510C2F200000A2180F83E1044F29F
:102F10004971C0F64851C0F83A1043F64521C4F64D
:102F20002001C0F8361045F25341C5F24141C0F8C6
:102F300032100D20FEF7E4FE19E040F20510C2F257
:102F4000000045F24F71C0F60D21C0F83A1043F66B
:102F50004521C4F62041C0F8361045F25341C5F270
:102F60004141C0F832100C20FEF7CAFEFFE741F2E3
:102F70000000C4F201004FF4004104F05BFA0128A4
:102F80001DD1FFE740F20510C2F2000040F60D210E
:102F9000C18744F64811C4F64701C0F83A1044F21C
:102FA0004C51C2F23A01C0F8361044F64561C4F201
:102FB0004121C0F832100E20FEF7A2FE1CE040F2C4
:102FC0000510C2F200000A2180F83E1044F64C7150
:102FD000C0F65751C0F83A1044F24C51C2F23A01CF
:102FE000C0F8361044F64561C4F24121C0F83210F1
:102FF0000D20FEF785FEFFE740F60040C4F2010019
:10300000022104F017FA01281DD1FFE740F2051054
:10301000C2F200000A2180F83E1044F24971C0F665
:103020004851C0F83A1043F64B21C4F62001C0F8CD
:10303000361044F25741C4F65F71C0F832100D20CB
:10304000FEF75EFE19E040F20510C2F2000045F204
:103050004F71C0F60D21C0F83A1043F64B21C4F66B
:103060002041C0F8361044F25741C4F65F71C0F8F1
:1030700032100C20FEF744FEFFE740F60040C4F299
:1030800001004FF4805104F0D5F901281AD1FFE76F
:1030900040F20510C2F2000044F64701C0F60D21CF
:1030A000C0F8391044F62001C4F24971C0F8361056
:1030B00044F24F31C3F65021C0F832100B20FEF716
:1030C0001FFE16E040F20510C2F2000040F60D218E
:1030D000418744F62041C5F24F71C0F8361044F2E2
:1030E0004F31C3F65021C0F832100A20FEF708FE17
:1030F000FFE740F60040C4F20100202104F09AF9F5
:10310000012820D1FFE740F20510C2F2000044F68A
:103110004701C0F60D21C0F83D1044F62001C4F26D
:103120004971C0F83A1044F65F11C3F64E21C0F859
:10313000361045F65311C4F24E31C0F832100E204D
:10314000FEF7DEFD1CE040F20510C2F2000040F682
:103150000D21C18744F62041C5F24F71C0F83A10E5
:1031600044F65F11C3F64E21C0F8361045F65311F0
:10317000C4F24E31C0F832100D20FEF7C1FDFFE75A
:10318000A8E040F20510C2F20000002180F83210E1
:1031900041F20000C4F201004FF4005104F04AF97A
:1031A00001280BD1FFE740F20510C2F2000090F8B1
:1031B00032104900013180F8321009E040F2051068
:1031C000C2F2000090F83210490080F83210FFE798
:1031D00041F20000C4F201004FF4004104F02AF96A
:1031E00001280BD1FFE740F20510C2F2000090F871
:1031F00032104900013180F8321009E040F2051028
:10320000C2F2000090F83210490080F83210FFE757
:1032100040F60040C4F20100022104F00BF901283D
:103220000BD1FFE740F20510C2F2000090F8321017
:103230004900013180F8321009E040F20510C2F275
:10324000000090F83210490080F83210FFE740F695
:103250000040C4F201004FF4805104F0EBF8012863
:103260000BD1FFE740F20510C2F2000090F83210D7
:103270004900013180F8321009E040F20510C2F235
:10328000000090F83210490080F83210FFE740F655
:103290000040C4F20100202104F0CCF801280BD139
:1032A000FFE740F20510C2F2000090F8321049002A
:1032B000013180F8321009E040F20510C2F200003E
:1032C00090F83210490080F83210FFE70120FEF735
:1032D00017FDFFE702F05DB843F64040C2F2000080
:1032E000006849F2A131C0F600010722FCF75EFF39
:1032F000002809D0FFE743F6EF30C2F20000407823
:103300007F2841F0BF82FFE7FDF7F8FA43F640401F
:10331000C2F20000006849F2A131C0F600010722A4
:10332000FCF744FF002840F03E87FFE741F2000031
:10333000C4F201004FF4005104F07CF801281DD1C3
:10334000FFE740F20510C2F200000A2180F83E10AB
:1033500044F24971C0F64851C0F83A1043F645218D
:10336000C4F62001C0F8361045F25341C5F2414180
:10337000C0F832100D20FEF7C3FC19E040F2051032
:10338000C2F2000045F24F71C0F60D21C0F83A10AC
:1033900043F64521C4F62041C0F8361045F25341AA
:1033A000C5F24141C0F832100C20FEF7A9FCFFE73E
:1033B00041F20000C4F201004FF4804104F03AF8F9
:1033C00001281DD1FFE740F20510C2F200000A21DA
:1033D00080F83E1044F24971C0F64851C0F83A10E6
:1033E00043F64D21C4F62001C0F8361044F64141A1
:1033F000C5F24121C0F832100D20FEF781FC19E022
:1034000040F20510C2F2000045F24F71C0F60D21E6
:10341000C0F83A1043F64D21C4F62041C0F83610EA
:1034200044F64141C5F24121C0F832100C20FEF7AC
:1034300067FCFFE741F20000C4F201004FF40041D5
:1034400003F0F8FF01281DD1FFE740F20510C2F29A
:10345000000040F60D21C18744F64811C4F647012B
:10346000C0F83A1044F24C51C2F23A01C0F836109A
:1034700044F64561C4F24121C0F832100E20FEF737
:103480003FFC1CE040F20510C2F200000A2180F867
:103490003E1044F64C71C0F65751C0F83A1044F251
:1034A0004C51C2F23A01C0F8361044F64561C4F2FC
:1034B0004121C0F832100D20FEF722FCFFE740F654
:1034C0000000C4F20100012103F0B4FF01281AD169
:1034D000FFE740F20510C2F2000044F64701C0F6D3
:1034E0000D21C0F83A1042F23A01C4F64811C0F872
:1034F000361044F24921C5F25531C0F832100C2083
:10350000FEF7FEFB19E040F20510C2F2000045F2A2
:103510004F71C0F60D21C0F8391042F23A01C4F6DD
:103520004C71C0F8361044F24921C5F25531C0F84B
:1035300032100B20FEF7E4FBFFE740F60000C4F278
:103540000100022103F076FF01281AD1FFE740F2C3
:103550000510C2F2000044F64701C0F60D21C0F884
:103560003A1042F23A01C4F64811C0F8361044F25B
:103570005611C4F64341C0F832100C20FEF7C0FBD0
:1035800019E040F20510C2F2000045F24F71C0F69A
:103590000D21C0F8391042F23A01C4F64C71C0F85E
:1035A000361044F25611C4F64341C0F832100B20D5
:1035B000FEF7A6FBFFE740F60000C4F2010004217D
:1035C00003F038FF012817D1FFE740F20510C2F2DF
:1035D000000040F60D21418744F64811C4F647012A
:1035E000C0F8361044F64941C2F23A01C0F8321030
:1035F0000A20FEF785FB16E040F20510C2F200003B
:103600000A2180F83A1044F64C71C0F65751C0F8C0
:10361000361044F64941C2F23A01C0F8321009208E
:10362000FEF76EFBFFE740F60000C4F20100082140
:1036300003F000FF01281AD1FFE740F20510C2F2A3
:10364000000044F64701C0F60D21C0F83A1042F2DE
:103650003A01C4F64811C0F8361044F25451C5F28C
:103660004D01C0F832100C20FEF74AFB19E040F281
:103670000510C2F2000045F24F71C0F60D21C0F8EE
:10368000391042F23A01C4F64C71C0F8361044F2D7
:103690005451C5F24D01C0F832100B20FEF730FB3B
:1036A000FFE740F60000C4F20100102103F0C2FE63
:1036B00001281DD1FFE740F20510C2F2000040F6DC
:1036C0000D21C18744F64811C4F64701C0F83A10ED
:1036D00044F65401C2F23A01C0F8361044F24F31B8
:1036E000C5F65071C0F832100E20FEF709FB1CE041
:1036F00040F20510C2F200000A2180F83E1044F6A4
:103700004C71C0F65751C0F83A1044F65401C2F259
:103710003A01C0F8361044F24F31C5F65071C0F886
:1037200032100D20FEF7ECFAFFE740F60000C4F27D
:103730000100202103F07EFE01281AD1FFE740F2AC
:103740000510C2F2000044F64701C0F60D21C0F892
:103750003A1042F23A01C4F64811C0F8361044F269
:103760005611C4F64361C0F832100C20FEF7C8FAB7
:1037700019E040F20510C2F2000045F24F71C0F6A8
:103780000D21C0F8391042F23A01C4F64C71C0F86C
:10379000361044F25611C4F64361C0F832100B20C3
:1037A000FEF7AEFAFFE740F60000C4F20100402148
:1037B00003F040FE01281AD1FFE740F20510C2F2E3
:1037C000000044F64701C0F60D21C0F83A1042F25D
:1037D0003A01C4F64811C0F8361044F25621C5F239
:1037E0005531C0F832100C20FEF78AFA19E040F289
:1037F0000510C2F2000045F24F71C0F60D21C0F86D
:10380000391042F23A01C4F64C71C0F8361044F255
:103810005621C5F25531C0F832100B20FEF770FA70
:10382000FFE740F60000C4F20100802103F002FE31
:1038300001281DD1FFE740F20510C2F200000A2165
:1038400080F83E1044F24971C0F64851C0F83A1071
:1038500043F65921C4F62001C0F8361044F2525103
:10386000C4F24C11C0F832100D20FEF749FA19E0ED
:1038700040F20510C2F2000045F24F71C0F60D2172
:10388000C0F83A1043F65921C4F62041C0F836106A
:1038900044F25251C4F24C11C0F832100C20FEF721
:1038A0002FFAFFE740F60040C4F20100012103F0C7
:1038B000C1FD012817D1FFE740F20510C2F2000058
:1038C00040F60D21418744F64811C4F64701C0F87F
:1038D000361044F25741C2F23A01C0F832100A20C1
:1038E000FEF70EFA16E040F20510C2F200000A21BF
:1038F00080F83A1044F64C71C0F65751C0F83610B3
:1039000044F25741C2F23A01C0F832100920FEF7E2
:10391000F7F9FFE740F60040C4F20100022103F08E
:1039200089FD01281DD1FFE740F20510C2F2000019
:103930000A2180F83E1044F24971C0F64851C0F89F
:103940003A1043F64B21C4F62001C0F8361044F279
:103950005741C4F65F71C0F832100D20FEF7D0F960
:1039600019E040F20510C2F2000045F24F71C0F6B6
:103970000D21C0F83A1043F64B21C4F62041C0F89F
:10398000361044F25741C4F65F71C0F832100C2073
:10399000FEF7B6F9FFE740F60040C4F2010004214B
:1039A00003F048FD012820D1FFE740F20510C2F2E4
:1039B000000044F64701C0F60D21C0F83E1042F267
:1039C0003A01C4F64811C0F83A1045F65471C4F2F1
:1039D0004451C0F8361045F25531C5F24121C0F8C6
:1039E00032101020FEF78CF91FE040F20510C2F2F1
:1039F000000045F24F71C0F60D21C0F83D1042F2B3
:103A00003A01C4F64C71C0F83A1045F65471C4F24C
:103A10004451C0F8361045F25531C5F24121C0F885
:103A200032100F20FEF76CF9FFE740F60040C4F2B9
:103A300001004FF4806103F0FDFC012820D1FFE775
:103A400040F20510C2F2000044F64701C0F60D2115
:103A5000C0F83E1042F23A01C4F64811C0F83A10DC
:103A600045F65471C5F65401C0F8361045F255318B
:103A7000C5F24121C0F832101020FEF741F91FE0D5
:103A800040F20510C2F2000045F24F71C0F60D2160
:103A9000C0F83D1042F23A01C4F64C71C0F83A1039
:103AA00045F65471C5F65401C0F8361045F255314B
:103AB000C5F24121C0F832100F20FEF721F9FFE7CF
:103AC00040F60040C4F201004FF4006103F0B2FC84
:103AD000012820D1FFE740F20510C2F2000044F6B1
:103AE0004701C0F60D21C0F83E1042F23A01C4F67B
:103AF0004811C0F83A1045F65471C5F65201C0F8A5
:103B0000361045F25531C5F24121C0F8321010206F
:103B1000FEF7F6F81FE040F20510C2F2000045F291
:103B20004F71C0F60D21C0F83D1042F23A01C4F6C3
:103B30004C71C0F83A1045F65471C5F65201C0F800
:103B4000361045F25531C5F24121C0F832100F2030
:103B5000FEF7D6F8FFE740F60040C4F201004FF44C
:103B6000805103F067FC01281AD1FFE740F20510ED
:103B7000C2F2000040F64851C0F20A01C0F83A1003
:103B800044F62001C4F24971C0F8361044F24F31B6
:103B9000C3F65021C0F832100C20FEF7B1F817E040
:103BA00040F20510C2F2000040F60D21C0F83A10B4
:103BB00044F62041C5F24F71C0F8361044F24F313F
:103BC000C3F65021C0F832100B20FEF799F8FFE73A
:103BD00040F60040C4F201004FF4005103F02AFC0B
:103BE00001281DD1FFE740F20510C2F2000040F6A7
:103BF0000D21C18744F64811C4F64701C0F83A10B8
:103C000044F65301C2F23A01C0F8361045F2507141
:103C1000C5F64D71C0F832100E20FEF771F81CE0A9
:103C200040F20510C2F200000A2180F83E1044F66E
:103C30004C71C0F65751C0F83A1044F65301C2F225
:103C40003A01C0F8361045F25071C5F64D71C0F812
:103C500032100D20FEF754F8FFE740F60040C4F2A2
:103C600001004FF4804103F0E5FB01281DD1FFE77F
:103C700040F20510C2F2000040F60D21C18744F663
:103C80004811C4F64701C0F83A1044F65341C2F255
:103C90003A01C0F8361045F25071C5F64D71C0F8C2
:103CA00032100E20FEF72CF81CE040F20510C2F294
:103CB00000000A2180F83E1044F64C71C0F65751BE
:103CC000C0F83A1044F65341C2F23A01C0F8361037
:103CD00045F25071C5F64D71C0F832100D20FEF757
:103CE0000FF8FFE740F60040C4F201004FF4004136
:103CF00003F0A0FB01281AD1FFE740F20510C2F241
:103D0000000044F64701C0F60D21C0F83A1042F217
:103D10003A01C4F64811C0F8361044F24C51C3F2CF
:103D20004411C0F832100C20FDF7EAFF19E040F210
:103D30000510C2F2000045F24F71C0F60D21C0F827
:103D4000391042F23A01C4F64C71C0F8361044F210
:103D50004C51C3F24411C0F832100B20FDF7D0FFD4
:103D6000FFE740F60000C4F201004FF4807103F059
:103D700061FB01281DD1FFE740F20510C2F20000EF
:103D800040F60D21C18744F64811C4F64701C0F83A
:103D90003A1044F64601C2F23A01C0F8361045F234
:103DA0005071C5F64D71C0F832100E20FDF7A8FF16
:103DB0001CE040F20510C2F200000A2180F83E101B
:103DC00044F64C71C0F65751C0F83A1044F646011B
:103DD000C2F23A01C0F8361045F25071C5F64D7185
:103DE000C0F832100D20FDF78BFFFFE740F6000012
:103DF000C4F201004FF4007103F01CFB01281DD137
:103E0000FFE740F20510C2F2000040F60D21C18725
:103E100044F64811C4F64701C0F83A1044F646414A
:103E2000C2F23A01C0F8361045F25071C5F64D7134
:103E3000C0F832100E20FDF763FF1CE040F20510C1
:103E4000C2F200000A2180F83E1044F64C71C0F620
:103E50005751C0F83A1044F64641C2F23A01C0F850
:103E6000361045F25071C5F64D71C0F832100D2074
:103E7000FDF746FFFFE740F60040C4F201004FF4B3
:103E8000005103F0D7FA01281DD1FFE740F20510D9
:103E9000C2F2000040F60D21C18744F64811C4F675
:103EA0004701C0F83A1044F65301C2F23A01C0F893
:103EB000361045F25071C5F64D71C0F832100E2023
:103EC000FDF71EFF1CE040F20510C2F200000A21BF
:103ED00080F83E1044F64C71C0F65751C0F83A10C5
:103EE00044F65301C2F23A01C0F8361045F250715F
:103EF000C5F64D71C0F832100D20FDF701FFFFE748
:103F000040F60000C4F201004FF4806103F092FA21
:103F100001281DD1FFE740F20510C2F2000040F673
:103F20000D21C18744F64811C4F64701C0F83A1084
:103F300044F64561C2F23A01C0F8361045F25071BC
:103F4000C5F64D71C0F832100E20FDF7D9FE1CE009
:103F500040F20510C2F200000A2180F83E1044F63B
:103F60004C71C0F65751C0F83A1044F64561C2F2A0
:103F70003A01C0F8361045F25071C5F64D71C0F8DF
:103F800032100D20FDF7BCFEFFE740F60000C4F242
:103F900001004FF4006103F04DFA01281DD1FFE745
:103FA00040F20510C2F2000040F60D21C18744F630
:103FB0004811C4F64701C0F83A1045F65201C2F262
:103FC0003A01C0F8361044F24311C5F64E71C0F8FC
:103FD00032100E20FDF794FE1CE040F20510C2F2F4
:103FE00000000A2180F83E1044F64C71C0F657518B
:103FF000C0F83A1045F65201C2F23A01C0F8361044
:1040000044F24311C5F64E71C0F832100D20FDF791
:1040100077FEFFE740F60000C4F201004FF4805144
:1040200003F008FA01281DD1FFE740F20510C2F2A3
:10403000000040F60D21C18744F64811C4F647013F
:10404000C0F83A1045F65401C2F23A01C0F83610F1
:1040500044F24311C5F64E71C0F832100E20FDF740
:104060004FFE1CE040F20510C2F200000A2180F869
:104070003E1044F64C71C0F65751C0F83A1045F660
:104080005401C2F23A01C0F8361044F24311C5F6A9
:104090004E71C0F832100D20FDF732FEFFE740F6FA
:1040A0000040C4F20100202103F0C4F9012820D10E
:1040B000FFE740F20510C2F2000044F64701C0F6E7
:1040C0000D21C0F83D1044F62001C4F24971C0F83A
:1040D0003A1044F65F11C3F64E21C0F8361045F68B
:1040E0005311C4F24E31C0F832100F20FDF708FE14
:1040F0001CE040F20510C2F2000040F60D21C1871D
:1041000044F62041C5F24F71C0F83A1044F65F11F1
:10411000C3F64E21C0F8361045F65311C4F24E31A5
:10412000C0F832100E20FDF7EBFDFFE740F600402F
:10413000C4F201004FF4807103F07CF901281AD118
:10414000FFE740F20510C2F2000044F64701C0F656
:104150000D21C0F8391044F62001C4F24971C0F8AD
:10416000361044F24611C3F64E21C0F832100B202F
:10417000FDF7C6FD16E040F20510C2F2000040F661
:104180000D21418744F62041C5F24F71C0F8361029
:1041900044F24611C3F64E21C0F832100A20FDF752
:1041A000AFFDFFE764E340F20510C2F2000000211A
:1041B00080F8321080F8331080F8341080F8351011
:1041C00041F20000C4F201004FF4005103F032F953
:1041D00001280BD1FFE740F20510C2F2000090F871
:1041E00032104900013180F8321009E040F2051028
:1041F000C2F2000090F83210490080F83210FFE758
:1042000041F20000C4F201004FF4804103F012F9C2
:1042100001280BD1FFE740F20510C2F2000090F830
:1042200032104900013180F8321009E040F20510E7
:10423000C2F2000090F83210490080F83210FFE717
:1042400041F20000C4F201004FF4004103F0F2F823
:1042500001280BD1FFE740F20510C2F2000090F8F0
:1042600032104900013180F8321009E040F20510A7
:10427000C2F2000090F83210490080F83210FFE7D7
:1042800040F60000C4F20100012103F0D3F8012838
:104290000BD1FFE740F20510C2F2000090F8321097
:1042A0004900013180F8321009E040F20510C2F2F5
:1042B000000090F83210490080F83210FFE740F615
:1042C0000000C4F20100022103F0B4F801280BD170
:1042D000FFE740F20510C2F2000090F832104900EA
:1042E000013180F8321009E040F20510C2F20000FE
:1042F00090F83210490080F83210FFE740F60000D5
:10430000C4F20100042103F095F801280BD1FFE766
:1043100040F20510C2F2000090F83210490001315D
:1043200080F8321009E040F20510C2F2000090F867
:104330003210490080F83210FFE740F60000C4F266
:104340000100082103F076F801280BD1FFE740F2C5
:104350000510C2F2000090F832104900013180F8D7
:10436000321009E040F20510C2F2000090F832105D
:10437000490080F83210FFE740F60000C4F2010067
:10438000102103F057F801280BD1FFE740F2051088
:10439000C2F2000090F832104900013180F832106A
:1043A00009E040F20510C2F2000090F83210490016
:1043B00080F83210FFE740F60000C4F2010020212F
:1043C00003F038F801280BD1FFE740F20510C2F2E4
:1043D000000090F832104900013180F8331009E0F4
:1043E00040F20510C2F2000090F83310490080F846
:1043F0003310FFE740F60000C4F20100402103F053
:1044000019F801280BD1FFE740F20510C2F20000B5
:1044100090F832104900013180F8331009E040F281
:104420000510C2F2000090F83310490080F83310F4
:10443000FFE740F60000C4F20100802102F0FAFF1D
:1044400001280BD1FFE740F20510C2F2000090F8FE
:1044500032104900013180F8331009E040F20510B4
:10446000C2F2000090F83310490080F83310FFE7E3
:1044700040F60040C4F20100012102F0DBFF0128F8
:104480000BD1FFE740F20510C2F2000090F83210A5
:104490004900013180F8331009E040F20510C2F202
:1044A000000090F83310490080F83310FFE740F621
:1044B0000040C4F20100022102F0BCFF01280BD130
:1044C000FFE740F20510C2F2000090F832104900F8
:1044D000013180F8331009E040F20510C2F200000B
:1044E00090F83310490080F83310FFE740F60040A1
:1044F000C4F20100042102F09DFF01280BD1FFE767
:1045000040F20510C2F2000090F83210490001316B
:1045100080F8331009E040F20510C2F2000090F874
:104520003310490080F83310FFE740F60040C4F232
:1045300001004FF4806102F07DFF01280BD1FFE7FD
:1045400040F20510C2F2000090F83210490001312B
:1045500080F8331009E040F20510C2F2000090F834
:104560003310490080F83310FFE740F60040C4F2F2
:1045700001004FF4006102F05DFF01280BD1FFE75D
:1045800040F20510C2F2000090F8321049000131EB
:1045900080F8331009E040F20510C2F2000090F8F4
:1045A0003310490080F83310FFE740F60040C4F2B2
:1045B00001004FF4805102F03DFF01280BD1FFE7CD
:1045C00040F20510C2F2000090F8321049000131AB
:1045D00080F8341009E040F20510C2F2000090F8B3
:1045E0003410490080F83410FFE740F60040C4F270
:1045F00001004FF4005102F01DFF01280BD1FFE72D
:1046000040F20510C2F2000090F83210490001316A
:1046100080F8341009E040F20510C2F2000090F872
:104620003410490080F83410FFE740F60040C4F22F
:1046300001004FF4804102F0FDFE01280BD1FFE79D
:1046400040F20510C2F2000090F83210490001312A
:1046500080F8341009E040F20510C2F2000090F832
:104660003410490080F83410FFE740F60040C4F2EF
:1046700001004FF4004102F0DDFE01280BD1FFE7FD
:1046800040F20510C2F2000090F8321049000131EA
:1046900080F8341009E040F20510C2F2000090F8F2
:1046A0003410490080F83410FFE740F60000C4F2EF
:1046B00001004FF4807102F0BDFE01280BD1FFE72D
:1046C00040F20510C2F2000090F8321049000131AA
:1046D00080F8341009E040F20510C2F2000090F8B2
:1046E0003410490080F83410FFE740F60000C4F2AF
:1046F00001004FF4007102F09DFE01280BD1FFE78D
:1047000040F20510C2F2000090F832104900013169
:1047100080F8341009E040F20510C2F2000090F871
:104720003410490080F83410FFE740F60000C4F26E
:1047300001004FF4806102F07DFE01280BD1FFE7FC
:1047400040F20510C2F2000090F832104900013129
:1047500080F8341009E040F20510C2F2000090F831
:104760003410490080F83410FFE740F60000C4F22E
:1047700001004FF4006102F05DFE01280BD1FFE75C
:1047800040F20510C2F2000090F8321049000131E9
:1047900080F8341009E040F20510C2F2000090F8F1
:1047A0003410490080F83410FFE740F60000C4F2EE
:1047B00001004FF4805102F03DFE01280BD1FFE7CC
:1047C00040F20510C2F2000090F8321049000131A9
:1047D00080F8351009E040F20510C2F2000090F8B0
:1047E0003510490080F83510FFE740F60040C4F26C
:1047F0000100202102F01EFE01280BD1FFE740F24C
:104800000510C2F2000090F832104900013180F822
:10481000351009E040F20510C2F2000090F83510A2
:10482000490080F83510FFE740F60040C4F201006F
:104830004FF4807102F0FEFD01280BD1FFE740F23A
:104840000510C2F2000090F832104900013180F8E2
:10485000351009E040F20510C2F2000090F8351062
:10486000490080F83510FFE70420FDF749FAFFE71B
:10487000FCF7AAFCFDF75CFAFCF7B0FEFCF772FA55
:1048800000F086BD43F64040C2F2000000680068B8
:1048900044F64811C4F64701884209D0FFE743F6C1
:1048A000EF30C2F200004078FF2840F0EA80FFE7D6
:1048B00041F20000C4F201004FF4005130902F91FA
:1048C00002F070FC4FF4004030992E9008462E996B
:1048D00002F068FC40F60040C4F2010002212D9075
:1048E0002C9102F05FFC4FF480502D992B900846DC
:1048F0002B9902F057FC20202D992A9008462A99DE
:1049000002F050FC4FF480403099299008462999D4
:1049100002F048FC40F60000C4F20100802128901B
:1049200002F040FC01202D9927900846279902F0BB
:1049300039FC04202D9926900846269902F032FC75
:104940002D982E9902F02EFC4FF480602899259026
:104950000846259902F026FC4FF480702D9924908A
:104960000846249902F01EFC4FF40071289802F0CA
:1049700019FC2898249902F015FC2D98299902F029
:1049800011FC2D982F9902F00DFC2898279902F020
:1049900009FC28982C9902F005FC2898269902F029
:1049A00001FC0820289923900846239902F0FAFB7D
:1049B00028982A9902F0F6FB4021289802F0F2FB91
:1049C0001020289922900846229902F0EBFB2D989E
:1049D000259902F0E7FB4FF400602D9921900846DD
:1049E000219902F0DFFB28982B9902F0DBFB289835
:1049F000219902F0D7FB2D98239902F0D3FB2D9833
:104A0000229902F0CFFB28982E9902F0CBFB43F6B7
:104A10004040C2F200000068006844F64811C4F645
:104A20004701884220D1FFE740F20510C2F20000A2
:104A300044F64701C0F60D21C0F83D1044F62001B0
:104A4000C4F24971C0F83A1045F24701C4F6497101
:104A5000C0F8361044F64141C2F24C01C0F83210A1
:104A60000F20FDF74DF90AE040F20510C2F20000F8
:104A7000AC2180F832100120FDF742F9FFE700F089
:104A800086BC43F64040C2F20000006849F2D331D0
:104A9000C0F600010322FBF789FB002809D0FFE7DD
:104AA00043F6EF30C2F200004078002840F0E88082
:104AB000FFE741F20000C4F201004FF400512090E2
:104AC0001F9102F067FB4FF4004020991E900846AA
:104AD0001E9902F05FFB40F60040C4F20100022183
:104AE0001D901C9102F056FB4FF480501D991B90B5
:104AF00008461B9902F04EFB20201D991A9008468B
:104B00001A9902F047FB4FF480402099199008460B
:104B1000199902F03FFB40F60000C4F20100802129
:104B2000189002F037FB01201D991790084617993D
:104B300002F030FB04201D9916900846169902F0E9
:104B400029FB1D981E9902F025FB4FF480601899EF
:104B500015900846159902F01DFB4FF480701D99C1
:104B600014900846149902F015FB4FF40071189840
:104B700002F010FB1898149902F00CFB1D9819997B
:104B800002F008FB1D981F9902F004FB1898179972
:104B900002F000FB18981C9902F0FCFA189816997C
:104BA00002F0F8FA0820189913900846139902F0B9
:104BB000F1FA18981A9902F0EDFA4021189802F0CB
:104BC000E9FA1020189912900846129902F0E2FAB8
:104BD0001D98159902F0DEFA4FF400601D991190AE
:104BE0000846119902F0D6FA18981B9902F0D2FAE9
:104BF0001898119902F0CEFA1D98139902F0CAFA8A
:104C00001D98129902F0C6FA18981E9902F0C2FA7D
:104C100043F64040C2F20000006849F2D331C0F6CA
:104C200000010322FBF7C2FA00281DD1FFE740F282
:104C30000510C2F2000040F60D21C18744F6204164
:104C4000C5F24F71C0F83A1045F24701C4F64971F8
:104C5000C0F8361044F64141C2F24C01C0F832109F
:104C60000E20FDF74DF80AE040F20510C2F20000F8
:104C7000AC2180F832100120FDF742F8FFE785E310
:104C800043F64040C2F20000006849F2B031C0F67D
:104C900000010622FBF78AFA002809D0FFE743F655
:104CA000EF30C2F200004078CC2840F0BA81FFE734
:104CB00043F64040C2F20000006849F2B031C0F64D
:104CC00000010622FBF772FA002840F0E180FFE7BE
:104CD00049F27731C0F600010020FBF775FA43F680
:104CE0004041C2F200010860086800F0D1FC43F6C0
:104CF000E431C2F2000108600878C007002809D03A
:104D0000FFE741F20000C4F201004FF4804102F0DD
:104D100049FA08E041F20000C4F201004FF480417A
:104D200002F038FAFFE743F6E430C2F20000006810
:104D30004008C007002808D0FFE740F60000C4F292
:104D40000100802102F02EFA07E040F60000C4F2D4
:104D50000100802102F01EFAFFE743F6E430C2F2C0
:104D6000000000688008C007002808D0FFE740F670
:104D70000040C4F20100012102F014FA07E040F6FD
:104D80000040C4F20100012102F004FAFFE743F6FB
:104D9000E430C2F200000068C008C007002808D054
:104DA000FFE740F60040C4F20100042102F0FAF9E6
:104DB00007E040F60040C4F20100042102F0EAF9E5
:104DC000FFE743F6E430C2F2000000680009C007C4
:104DD000002809D0FFE740F60040C4F201004FF47C
:104DE000004102F0DFF908E040F60040C4F20100A3
:104DF0004FF4004102F0CEF9FFE743F6E430C2F28F
:104E0000000000680009C007002809D0FFE740F64D
:104E10000000C4F201004FF4806102F0C3F908E021
:104E200040F60000C4F201004FF4806102F0B2F9D4
:104E3000FFE743F6E430C2F2000000680009C00753
:104E4000002809D0FFE740F60040C4F201004FF40B
:104E5000807102F0A7F908E040F60040C4F20100BA
:104E60004FF4807102F096F9FFE740F20510C2F2AC
:104E70000000323049F2FA21C0F6000114221092EB
:104E8000FBF782F910990F900846FCF739FFC7E04D
:104E900043F6EF30C2F200008078C007002809D046
:104EA000FFE741F20000C4F201004FF4804102F03C
:104EB00079F908E041F20000C4F201004FF48041AA
:104EC00002F068F9FFE743F6EF30C2F200008078A5
:104ED0004008C007002808D0FFE740F60000C4F2F1
:104EE0000100802102F05EF907E040F60000C4F204
:104EF0000100802102F04EF9FFE743F6EF30C2F2E5
:104F0000000080788008C007002808D0FFE740F63E
:104F10000040C4F20100012102F044F907E040F62C
:104F20000040C4F20100012102F034F9FFE743F62A
:104F3000EF30C2F200008078C008C007002808D017
:104F4000FFE740F60040C4F20100042102F02AF914
:104F500007E040F60040C4F20100042102F01AF913
:104F6000FFE743F6EF30C2F2000080780009C00787
:104F7000002809D0FFE740F60040C4F201004FF4DA
:104F8000004102F00FF908E040F60040C4F20100D1
:104F90004FF4004102F0FEF8FFE743F6EF30C2F2B3
:104FA000000080784009C007002809D0FFE740F6DC
:104FB0000000C4F201004FF4806102F0F3F808E051
:104FC00040F60000C4F201004FF4806102F0E2F804
:104FD000FFE743F6EF30C2F2000080788009C00797
:104FE000002809D0FFE740F60040C4F201004FF46A
:104FF000807102F0D7F808E040F60040C4F20100EA
:105000004FF4807102F0C6F8FFE740F20510C2F2DB
:105010000000AC2180F832100120FCF771FEFFE7A0
:10502000B3E143F64040C2F20000006849F2BF31EC
:10503000C0F600010722FBF7B9F8002808D0FFE707
:1050400043F6EF30C2F200004078AA2867D1FFE7AC
:1050500043F64040C2F20000006849F2BF31C0F69A
:1050600000010722FBF7A2F8002829D1FFE749F247
:105070007730C0F6000000210E9008460E9A0D9180
:105080001146FBF7A1F843F64041C2F20001086067
:1050900008680C9100F026FB43F63E41C2F2000185
:1050A00008800D980E99FBF78FF80C990860086836
:1050B00000F018FB43F63C41C2F20001088016E004
:1050C00043F6EF30C2F200008178C27842EA012153
:1050D00043F63E42C2F2000211800179407940EA73
:1050E000012043F63C41C2F200010880FFE743F68D
:1050F0003E40C2F20000008841F2883188420DDC57
:10510000FFE743F6E930C2F20000012101701C20E4
:1051100000F0F0FD322000F00BFEFFE734E143F633
:105120004040C2F20000006849F2CF31C0F60001F1
:105130000322FBF73BF8002808D0FFE743F6EF30E7
:10514000C2F200004078A02833D1FFE7FBF7AEFCA5
:10515000002001F001FD43F64040C2F2000000686B
:1051600049F2CF31C0F600010322FBF71FF80028F7
:1051700013D1FFE740F20510C2F20000323049F2CD
:105180000F31C0F6000118220B92FAF7FDFF0B99C0
:105190000A900846FCF7B4FD0AE040F20510C2F29E
:1051A0000000AC2180F832100120FCF7A9FDFFE7D8
:1051B000E9E043F64040C2F20000006849F2A9313C
:1051C000C0F600010622FAF7F1FF002808D0FFE739
:1051D00043F6EF30C2F200004078A42836D1FFE752
:1051E000FBF7F2FF43F6EA30C2F200000021017043
:1051F00043F64040C2F20000006849F2A931C0F60F
:1052000000010622FAF7D2FF002813D1FFE740F28F
:105210000510C2F20000323049F2DA21C0F6000176
:105220001F220992FAF7B0FF099908900846FCF787
:1052300067FD0AE040F20510C2F20000AC2180F8E0
:1052400032100120FCF75CFDFFE79BE043F6404095
:10525000C2F20000006849F27C31C0F6000107226A
:10526000FAF7A4FF002808D0FFE743F6EF30C2F2B8
:1052700000004078852836D1FFE7FBF7B7FD43F6FD
:10528000EA30C2F200000121017043F64040C2F250
:105290000000006849F27C31C0F600010722FAF7ED
:1052A00085FF002813D1FFE740F20510C2F200008D
:1052B000323049F28F21C0F600011B220792FAF723
:1052C00063FF079906900846FCF71AFD0AE040F2D2
:1052D0000510C2F20000AC2180F832100220FCF769
:1052E0000FFDFFE74DE043F64040C2F200000068CA
:1052F00049F28431C0F600010722FAF757FF00286F
:1053000008D0FFE743F6EF30C2F20000407858289B
:1053100036D1FFE7FBF762FE43F6EA30C2F2000047
:105320000221017043F64040C2F20000006849F2D9
:105330008431C0F600010722FAF738FF002813D1A4
:10534000FFE740F20510C2F20000323049F2AB2113
:10535000C0F600011B220592FAF716FF059904908A
:105360000846FCF7CDFC0AE040F20510C2F200004E
:10537000AC2180F832100220FCF7C2FCFFE7FFE707
:10538000FFE7FFE7FFE7FFE7FFE7FFE7FFE7FFE7ED
:10539000FFE7E6E043F64040C2F200000068006824
:1053A00044F25511C5F25241884208D0FFE743F656
:1053B000EF30C2F200000078CA2861D1FFE749F25D
:1053C0007731C0F600010020FAF7FEFE43F64041B7
:1053D000C2F2000108600868008844F6545188420F
:1053E00008D0FFE743F6EF30C2F200000078CA2889
:1053F00045D1FFE740F2BD00C2F2000043F23101A7
:10540000C0F60D21016243F25131C3F23201C16194
:1054100042F24F01C5F24D01816144F24851C4F698
:105420004C4141611020FCF7C1F843F64040C2F204
:1054300000000068008844F65451884213D1FFE709
:1054400040F20510C2F20000323049F24D31C0F690
:10545000000115220392FAF797FE0399029008467D
:10546000FCF74EFC0AE040F20510C2F20000AC214D
:1054700080F832100120FCF743FCFFE7FFE76FE004
:1054800043F64040C2F20000006849F2BB31C0F66A
:1054900000010322FAF78AFE002808D0FFE743F64E
:1054A000EF30C2F200000078C52858D1FFE749F27A
:1054B0007731C0F600010020FAF786FE43F640413E
:1054C000C2F2000108600868008844F6545188421E
:1054D00008D0FFE743F6EF30C2F200000078C5289D
:1054E0003CD1FFE740F21400C2F200005521A0F8C1
:1054F000A010032180F8A4104D21C1725021017326
:1055000053214173FBF77EF843F64040C2F200009E
:105510000068008844F65451884213D1FFE740F2F6
:105520000510C2F20000323049F26331C0F60001CA
:1055300013220192FAF728FE019900900846FCF721
:10554000DFFB0AE040F20510C2F20000AC2180F857
:1055500032100120FCF7D4FBFFE7FFE7FFE7FFE78E
:10556000FFE7FFE7FFE7FFE700208DF81302FFE703
:105570009DF8130231280FDCFFE79DF8130240F27B
:105580000511C2F2000100220A54FFE79DF8130240
:1055900001308DF81302EBE79DF81102002804D0CA
:1055A000FFE71C2000F0C4FBFFE7FFE70DF5057DDA
:1055B000BDE8F08F80B59CB0FBF706FEFCF7B8FBAA
:1055C000FCF70CF8FBF7CEFB4FF4E130169000210E
:1055D00017911891199140F20512C2F2000202F1DE
:1055E00032031A931B9216AB06901846059104924B
:1055F000FCF7DCFA2020049981F8320001220390A4
:1056000010460292FCF77CFB0698109005991191C8
:105610001291139140F2BD02C2F2000202F1140392
:105620001493159210A80192FBF71CFF039801999F
:1056300008750298FBF7BAFF05980C900D900F9033
:1056400009900E9040F2EA01C2F20001CA1D0A92CE
:1056500005310B9109A8FBF7E1FF4FF4FA700790B1
:1056600005988DF821008DF8200007A8FBF70CFBAA
:10567000FBF7C4F842F6DF60FCF732F90E20FCF7C6
:10568000FFF940F6B730FCF7C3F91CB080BD00004D
:1056900083B00290002001908DF80300FFE702988C
:1056A0009DF80310405C00212F280A46C8BF012244
:1056B0003A28B8BF01210A4211D0FFE70198400003
:1056C000019002989DF80310405C0199084430381D
:1056D00001909DF8030001308DF80300DFE7019889
:1056E00003B0704782B001900020ADF80200ADF821
:1056F0000000FFE70198BDF80010405C00212F2852
:105700000A46C8BF01223A28B8BF01210A4217D071
:10571000FFE7BDF8020000EB80004000ADF802009A
:105720000198BDF80010405CBDF802100844303804
:10573000ADF80200BDF800000130ADF80000D9E777
:10574000BDF8020002B0704780B582B000900098AA
:105750000138B0F1807F03D3FFE70120019019E009
:10576000009801384EF21401CEF2000108604FF0AB
:10577000FF300F2100F0F6FA4EF21800CEF20000D2
:10578000002101604EF21000CEF2000007220260FC
:105790000191FFE7019802B080BD000080B543F69B
:1057A0004840C2F20000016801310160006842F621
:1057B0004701CBF2A37148434FEA30104EF6334114
:1057C000C0F20A01884226D8FFE743F6D130C2F280
:1057D00000000178B1FA81F14909017000780028D0
:1057E00009D0FFE740F60040C4F201004FF4007119
:1057F00001F0D8FC0EE040F60040C4F201004FF486
:10580000007101F0C7FC43F64840C2F200000021DD
:105810000160FFE7FFE7FCF7AFFA80BD80B582B01B
:105820004EF68850CEF20000016841F4700101602C
:1058300041F20000C4F20200016841F00101016080
:1058400041F20401C4F2020100220A6041F22C017B
:10585000C4F202010A6001684FF6FF73CEF6F62328
:105860001940016041F20801C4F202014FF47F03C4
:105870000B60016821F480210160019202F060FE5A
:105880004FF00060019902F055FB02B080BD0000AE
:1058900080B542F60040C4F20100012103F0C2FAD3
:1058A000002808D0FFE742F60040C4F201000121C1
:1058B00003F0ACFAFFE780BD80B582B04FF08040C6
:1058C000012103F0AFFA00286CD0FFE74FF08040D1
:1058D000012103F09BFA43F64640C2F20000007833
:1058E000002819D1FFE740F20510C2F20000323063
:1058F00049F2C721C0F6000112220192FAF744FCD6
:10590000019900900846FCF7FBF943F64640C2F2C5
:1059100000000121017044E043F64640C2F200005D
:10592000007800283CD0FFE740F20510C2F20000EA
:10593000007800281FD0FFE743F60000C4F2010002
:1059400042F20B2103F0CAFB012814D1FFE743F612
:105950000000C4F2010042F20B2103F0A9FB40F267
:105960000510C2F2000042F24371012242541C2091
:1059700000F0C0F9FFE740F2BC00C2F2000000787E
:1059800000280CD1FFE740F20510C2F200000078B9
:10599000002804D1FFE73220FCF7A4F8FFE7FFE777
:1059A000FFE7FFE702B080BD80B584B040F600405D
:1059B000C4F20000012103F035FA002800F09881BC
:1059C000FFE740F60040C4F20000012103F01EFA98
:1059D00043F6E930C2F200000078002800F0878129
:1059E000FFE743F64C40C2F200000188013101801C
:1059F000008843F63C41C2F2000109884FF4FA5294
:105A0000B2FBF1F1884240F3D980FFE743F6DE3084
:105A1000C2F20000008843F63E41C2F2000109884C
:105A2000884280F2CB80FFE743F64C40C2F2000090
:105A30000021018041F20000C4F201004FF4005146
:105A400001F0F8FC01280ED1FFE743F6DE30C2F288
:105A50000000008842F64901C2F200010A5C5200CF
:105A600001320A540CE043F6DE30C2F20000008836
:105A700042F64901C2F200010A5C52000A54FFE7F3
:105A800041F20000C4F201004FF4004101F0D2FCE9
:105A900001280ED1FFE743F6DE30C2F20000008895
:105AA00042F64901C2F200010A5C520001320A5476
:105AB0000CE043F6DE30C2F20000008842F64901F5
:105AC000C2F200010A5C52000A54FFE740F60040AF
:105AD000C4F20100022101F0ADFC01280ED1FFE764
