:020000040800F2
:1000000050400020650100086D0100086F010008E4
:10001000710100087301000875010008000000006C
:100020000000000000000000000000007701000850
:1000300079010008000000007B010008755A0008E3
:100040007F0100087F0100087F0100087F01000890
:100050007F0100087F0100087F0100087F01000880
:100060007F0100087F0100087F0100087F01000870
:100070007F0100087F0100087F0100087F01000860
:100080007F0100087F0100087F0100087F01000850
:100090007F0100087F0100087F0100087F01000840
:1000A0007F010008695B00087F0100087F010008EC
:1000B000915B00087F0100087F0100087F010008B4
:1000C0007F0100087F0100087F0100087F01000810
:1000D0007F0100087F0100087F0100087F01000800
:1000E0007F0100087F0100087F0100087F010008F0
:1000F0007F0100087F0100087F0100080000000068
:100100007F01000800000000615C00087F0100081A
:100110007F0100087F0100087F0100087F010008BF
:100120007F0100087F0100087F0100087F010008AF
:100130007F01000800000000000000007F010008AF
:100140007F0100087F0100087F0100087F0100088F
:10015000DFF80CD000F028FA004800475D75000871
:10016000504000200648804706480047FEE7FEE76B
:10017000FEE7FEE7FEE7FEE7FEE7FEE7FEE7FEE757
:10018000F55A00085101000840EA01039B0703D01B
:1001900009E008C9121F08C0042AFAD203E011F8C6
:1001A000013B00F8013B521EF9D2704730B50446BE
:1001B0000020034600E05B1C934203D2E05CCD5C70
:1001C000401BF8D030BD000070B50F4D00B9286855
:1001D000002412E00A4602E09E4203D0521C13782B
:1001E000002BF9D1DAB2224305D02BB124B1002182
:1001F00000F8011B04E00446401C0678002EE9D1FB
:100200002860204670BD0000000000202DE9FE4F50
:10021000804681EA0300C00F0C46009021F00041A7
:1002200023F00045B8EB0200A94105D24046214623
:1002300090461C460B46024623F00040104347D030
:10024000270DC7F30A00C3F30A510290401A019028
:1002500040286BDAC3F3130040F4801B00989246E9
:1002600020B10023D2EB030A63EB0B0B0198594634
:10027000C0F14002504600F009F906460D465046CE
:100280005946019A00F021F910EB08006141002461
:1002900087EA115284EAE7731A4340D0009A62B3A6
:1002A000019A012A4FEA075215DC001B61EB02019B
:1002B0004FF0004202EA0752CDE90042001C41F52E
:1002C000801132462B4600F021F903B0BDE8F08FD3
:1002D00040462146F9E7001B61EB0201001C41F595
:1002E000801300185B412018A2F5001747EB0301AB
:1002F00040EAD570B6196D4111E06D084FEA360637
:1003000045EAC0754FEA0752001B61EB0201001C71
:1003100041F5801149084FEA300000195141324639
:100320002B4603B0BDE8F04F00F0E1B80098012281
:1003300040000023D0EB020263EBE07300982146FB
:100340004FEAE074B8EB000061EB0401E9E783F0E9
:1003500000435BE781F0004158E72DE9F04D81EA69
:10036000030404F0004B21F0004514464FF0000A4E
:1003700023F0004150EA050220D054EA01021DD0CA
:10038000C5F30A570246C5F31303C1F31300C1F3C3
:100390000A5640F4801543F48013A7EB0608101B9F
:1003A000D64608F2FD3873EB050002D308F10108C8
:1003B00001E092185B41B8F1000F03DA002001461A
:1003C000BDE8F08D00204FF48011064684460EE013
:1003D000171B73EB050705D3121B63EB05030643DD
:1003E0004CEA010C49084FEA300092185B4150EA90
:1003F0000107EDD152EA030012D082EA040083EA39
:100400000501084305D0101BAB4106D20122002391
:1004100006E000224FF0004302E06FF001025310AB
:100420001AEB06004CEB085110EB0A0041EB0B01F4
:10043000BDE8F04D00F05BB80EB5C10F80EAE0708A
:100440000844CA07002140F233438DE80E000A46F3
:100450000B4600F05BF803B000BDC1F30A5210B5C3
:10046000C1F3130140F2FF3341F480119A4201DAE3
:10047000002010BD40F233439A42A2F2334203DC23
:10048000524200F012F810BD904010BD202A04DB4B
:10049000203A00FA02F1002070479140C2F1200397
:1004A00020FA03F3194390407047202A04DB203AD6
:1004B00021FA02F00021704721FA02F3D040C2F184
:1004C00020029140084319467047202A06DBCB17CB
:1004D000203A41FA02F043EAE07306E041FA02F3FF
:1004E000D040C2F12002914008431946704710B530
:1004F000141E73F1000408DA401C41F10001921847
:100500005B411A4301D120F0010010BD2DE9F04DEF
:1005100092469B4611B1B1FA81F202E0B0FA80F244
:1005200020329046FFF7B2FF04460F4640EA0A0029
:1005300041EA0B0153465A46084313D0114653EA89
:10054000010019D0C8F140025046FFF7AEFF054642
:100550000E46504659464246FFF798FF084305D0DD
:10056000012004E020463946BDE8F08D0020054317
:1005700046EAE0762C4337430A986305E40AA0EB89
:1005800008000022FD0A44EA47540A3002D5002040
:100590000146E9E7010510196941DDE9084500193F
:1005A0006941BDE8F04DA2E7064C074D06E0E06862
:1005B00040F0010394E8070098471034AC42F6D3AA
:1005C000FFF7CAFD948D0008B48D000880B542F293
:1005D0000040C4F20100012105F012FFFFE70020F6
:1005E000C4F202000021022206F02CFD002801D1F5
:1005F000FFE7F4E70020C4F202000021022206F027
:100600000FFD80BD80B582B001900198B0F8A010B8
:1006100001600198002141600198017201984172C6
:10062000019890F8A4108172019946F20040C4F23A
:10063000000006F093F943F6EA31C2F200010870B7
:10064000087801460028009108D0FFE700980128AB
:100650000CD0FFE70098022810D017E043F6D43002
:10066000C2F200004FF40071016017E043F6D4308D
:10067000C2F200004FF4027101600FE043F6D43083
:10068000C2F200004FF40471016007E043F6D43079
:10069000C2F200004FF400710160FFE7FFE743F68C
:1006A000D430C2F20000018846F20040C4F20000DB
:1006B00006F004F8012801D1FFE7F0E743F6D43053
:1006C000C2F20000018846F20040C4F2000005F0CA
:1006D000DFFF02B080BD000070B582B013468C46CB
:1006E00001908DF80310ADF80020BDF8000044F62D
:1006F000D351C1F26201A0FB0101890946F2676290
:10070000C6F2666251FB02FE4FEA9E0404EBDE7EF7
:100710000EEB8E0EA1EB4E013031DDF804E09DF8BA
:1007200003400EF80410BDF8001048F21F5EC5F239
:10073000EB1EA1FB0E1E4FEA5E1E5EFB02F4A50837
:1007400005EBD47404EB8404AEEB440E0EF1300ED2
:10075000019C9DF803502C4484F801E0BDF800E0B2
:100760004CF6CD44CCF6CC44AEFB04E5ED0855FB8D
:1007700002F2960806EBD27202EB8202A5EB42026D
:100780003032019D9DF803603544AA70BDF8002009
:10079000A2FB0445ED0805EB8505A2EB450242F0FE
:1007A0003002019D9DF803603544EA7002B070BDCF
:1007B00080B590B000208DF83E0040F20801C2F2F2
:1007C00000010B9101218DF83D104FF400620C9255
:1007D00042F24C42C4F2010209928DF83C004FF4FF
:1007E00000720A9203220D924FF440530E9300239D
:1007F000C4F202030DF1240C08901846DDF820E045
:100800000791714606926246059306F037FC0598FB
:10081000089906F0E7FB0598089906F0A7FB4FF446
:10082000C02005F00FFD42F20040C4F201004FF479
:10083000807104900391079A05F002FE022004994A
:10084000029008460299089A05F0FAFD0498089962
:1008500005F05CFC0498089905F0BEFD0498079922
:10086000069A05F01BFC42F60000C4F2010001905C
:100870000399079A05F0E4FD01980299089A05F09A
:10088000DFFD0198089905F041FC0198089905F0F1
:10089000A3FD01980799069A05F000FC4FF460202B
:1008A0000499009008460799009A05F0A1FC049865
:1008B0000799079A05F05AFC01980799009A05F0E4
:1008C00097FC01980799079A05F050FC049808993D
:1008D000089A089B05F0C6FC04980799029A089BA1
:1008E00005F0C0FC052204980299089B05F0BAFCAB
:1008F00001980899079A089B05F0B4FC019807999C
:10090000069A089B05F0AEFC062201980299089B06
:1009100005F0A8FC049805F019FC049805F0A0FB6C
:10092000019805F013FC019805F09AFB049805F076
:1009300003FC47F20040C4F20000016841F00101ED
:10094000016008980899089A06F008FA089806F0D5
:100950005FFA10B080BD000080B58EB041F200009B
:10096000C4F2010004214FF400520D900C910C9B35
:100970000B921A460B9B06F091FC4FF400400D9928
:100980000A9008460C990C9A0A9B06F087FC40F6E0
:100990000040C4F20100022109900C9A089111460E
:1009A000089B06F07BFC4FF480500999079008469D
:1009B0000C990C9A079B06F071FC2020099906906F
:1009C00008460C990C9A069B06F068FC4FF4804090
:1009D0000D99059008460C990C9A059B06F05EFC53
:1009E00040F60000C4F20100802304900C990C9A98
:1009F00006F054FC01200999039008460C990C9AC2
:100A0000039B06F04BFC09980C990C9A0C9B06F082
:100A100045FC09980C990C9A0A9B06F03FFC4FF490
:100A200080600499029008460C990C9A029B06F08B
:100A300035FC4FF480700999019008460C990C9A86
:100A4000019B06F02BFC4FF4007304980C990C9A50
:100A500006F024FC04980C990C9A019B06F01EFCED
:100A600009980C990C9A059B06F018FC09980C99AA
:100A70000C9A0B9B06F012FC04980C990C9A039BA1
:100A800006F00CFC04980C990C9A089B06F006FCE6
:100A900004980C990C9A0C9B06F000FC082304980F
:100AA0000C990C9A06F0FAFB04980C990C9A069B88
:100AB00006F0F4FB402304980C990C9A06F0EEFB28
:100AC000102304980C990C9A06F0E8FB09980C99ED
:100AD0000C9A029B06F0E2FB4FF40060099900902B
:100AE00008460C990C9A009B06F0D8FB04980C99C8
:100AF0000C9A079B06F0D2FB04980C990C9A009B69
:100B000006F0CCFB0EB080BD80B590B041F2000085
:100B1000C4F20100102104224FF400530F900E91F3
:100B20000D920C9306F0BAFB4FF400400F990B9016
:100B300008460E990D9A0B9B06F0B0FB40F600405C
:100B4000C4F2010002210A900E9A099111460D9AF1
:100B5000099B06F0A3FB4FF480500A9908900846C1
:100B60000E990D9A089B06F099FB20200A99079090
:100B700008460E990D9A079B06F090FB4FF48040B3
:100B80000F99069008460E990D9A069B06F086FB73
:100B900040F60000C4F20100802305900E990D9AE2
:100BA00006F07CFB01200A99049008460E990D9AE4
:100BB000049B06F073FB0A980E990D9A0D9B06F0A4
:100BC0006DFB0A980E990D9A0B9B06F067FB4FF48C
:100BD00080600599039008460E990D9A039B06F0D4
:100BE0005DFB4FF480700A99029008460E990D9AA9
:100BF000029B06F053FB4FF4007305980E990D9A73
:100C000006F04CFB05980E990D9A029B06F046FBE8
:100C10000A980E990D9A069B06F040FB0A980E99C9
:100C20000D9A0C9B06F03AFB05980E990D9A049BC1
:100C300006F034FB05980E990D9A099B06F02EFBE1
:100C400005980E990D9A0D9B06F028FB0823059830
:100C50000E990D9A06F022FB05980E990D9A079BA6
:100C600006F01CFB402305980E990D9A06F016FB22
:100C700005980E990D9A0E9B06F010FB0A980E9996
:100C80000D9A039B06F00AFB4FF400600A9901904D
:100C900008460E990D9A019B06F000FB05980E99E7
:100CA0000D9A089B06F0FAFA05980E990D9A019B89
:100CB00006F0F4FA10B080BD80B58CB00B9040F215
:100CC000197006F00FFF46F20040C4F200000190D8
:100CD00005F00EFC00208DF821008DF823008DF822
:100CE00022008DF824008DF81D0004218DF81E10BF
:100CF00002218DF81F108DF820008DF825000B982B
:100D000000798DF81C0007A9019805F037FD0B99B3
:100D10000968FA2900910AD0FFE70098B0F5FA7F38
:100D200005D0FFE70098B0F57A7F0CD1FFE70B986C
:100D300000684FF47A71414346F20040C4F200006B
:100D400005F0DCFC0AE046F20040C4F200004EF67A
:100D50004801C0F2010105F0D1FCFFE70020ADF829
:100D60001200ADF814000121ADF81610ADF808001E
:100D7000ADF80A00ADF80C00ADF80E000B98407904
:100D8000ADF810008DF8181002A805F0D1FB0CB0DA
:100D900080BD000080B582B04FF4C06006F0A2FEB6
:100DA00040F2026006F09EFE40F60000C4F2010030
:100DB000482103224FF400630190009206F06EFA7E
:100DC00018214FF480530198009A06F067FA02B098
:100DD00080BD000080B590B041F20000C4F2010077
:100DE000102104224FF400530F900E910D920C939A
:100DF00006F054FA4FF400400F990B9008460E99F4
:100E00000D9A0B9B06F04AFA40F60040C4F201002E
:100E100002210A900E9A099111460D9A099B06F03B
:100E20003DFA4FF480500A99089008460E990D9AA1
:100E3000089B06F033FA20200A99079008460E997D
:100E40000D9A079B06F02AFA4FF480400F990690FE
:100E500008460E990D9A069B06F020FA40F600000F
:100E6000C4F20100802305900E990D9A06F016FA3F
:100E700001200A99049008460E990D9A049B06F0E9
:100E80000DFA0A980E990D9A0D9B06F007FA0A982A
:100E90000E990D9A0B9B06F001FA4FF480600599AC
:100EA000039008460E990D9A039B06F0F7F94FF44C
:100EB00080700A99029008460E990D9A029B06F0DE
:100EC000EDF94FF4007305980E990D9A06F0E6F9C6
:100ED00005980E990D9A029B06F0E0F90A980D9973
:100EE0000D9A069B06F0DAF90A980D990D9A0C9B5B
:100EF00006F0D4F905980D990D9A049B06F0CEF9E9
:100F000005980D990D9A099B06F0C8F905980D9959
:100F10000D9A0D9B06F0C2F9082305980D990D9ABC
:100F200006F0BCF905980D990D9A079B06F0B6F9E5
:100F3000402305980D990D9A06F0B0F905980D9982
:100F40000D9A0E9B06F0AAF90A980D990D9A039B2B
:100F500006F0A4F94FF400600A99019008460D9933
:100F60000D9A019B06F09AF905980D990D9A089B28
:100F700006F094F905980D990D9A019B06F08EF9EB
:100F800010B080BD80B590B041F20000C4F2010005
:100F900004214FF400520F900E910E9B0D921A46B1
:100FA0000D9B06F07BF94FF400400F990C9008461A
:100FB0000E990E9A0C9B06F071F940F60040C4F2AF
:100FC000010002210B900E9A0A9111460A9B06F02D
:100FD00065F94FF480500B99099008460E990E9AC6
:100FE000099B06F05BF920200B99089008460E99A2
:100FF0000E9A089B06F052F94FF480400F99079023
:1010000008460E990E9A079B06F048F940F6000034
:10101000C4F20100802306900E990E9A06F03EF964
:1010200001200B99059008460E990E9A059B06F033
:1010300035F90B980E990E9A0E9B06F02FF90B9826
:101040000E990E9A0C9B06F029F94FF480600699D0
:10105000049008460E990E9A049B06F01FF94FF46F
:1010600080700B99039008460E990E9A039B06F028
:1010700015F94FF4007306980E990E9A06F00EF9C2
:1010800006980E990E9A039B06F008F910200B990A
:101090000290084602990E9A079B06F0FFF80B98FB
:1010A00002990E9A0D9B06F0F9F8069802990E9A8D
:1010B000059B06F0F3F8069802990E9A0A9B06F033
:1010C000EDF8069802990E9A0E9B06F0E7F80823B1
:1010D000069802990E9A06F0E1F8069802990E9A7F
:1010E000089B06F0DBF84023069802990E9A06F05A
:1010F000D5F8069802990E9A029B06F0CFF80B9845
:1011000002990E9A049B06F0C9F84FF400600B99FF
:101110000190084602990E9A019B06F0BFF80698C6
:1011200002990E9A099B06F0B9F8069802990E9A50
:10113000019B06F0B3F810B080BD000080B592B0FE
:1011400040F2026006F0CEFC40F2036006F0CAFCFA
:1011500040F2046006F0C6FC40F2096006F0C2FCF2
:1011600040F20A6006F0BEFC4FF4A06006F0BAFC44
:1011700040F21D7006F0B6FC4FF4C06006F0B2FC01
:1011800040F60040C4F20100102104224FF4007325
:10119000119010910F920E9306F080F840F6000027
:1011A000C4F2010028214FF400520D900C910F9BC6
:1011B0000B921A460B9B06F071F84FF480400D9984
:1011C0000A9008460C990F9A0A9B06F067F84FF4AC
:1011D00000400D99099008460C990F9A099B06F05A
:1011E0005DF808201199089008460C990F9A089B01
:1011F00006F054F811980C990F9A109B06F04EF8CF
:1012000041F20000C4F2010007900F990F9A0B9B66
:1012100006F044F807980F990F9A099B06F03EF8DC
:1012200002201199069008460F990F9A069B06F026
:1012300035F84FF4805311980F990F9A06F02EF855
:1012400020201199059008460F990F9A059B06F0EA
:1012500025F8079810990F9A0A9B06F01FF880232B
:101260000D9810990F9A06F019F801201199049021
:10127000084610990F9A049B06F010F811981099DF
:101280000F9A0F9B06F00AF8119810990F9A099B74
:1012900006F004F84FF480630D9810990F9A05F04A
:1012A000FDFF4FF4807011990390084610990F9A32
:1012B000039B05F0F3FF18200D9902900846029950
:1012C0000F9A0E9B05F0EAFF0D9802990F9A039B67
:1012D00005F0E4FF119802990F9A0A9B05F0DEFFD2
:1012E000119802990F9A0B9B05F0D8FF00200D99D9
:1012F0000190084601990F9A049B05F0CFFF0D98C5
:1013000001990F9A069B05F0C9FF0D9801990F9A54
:101310000F9B05F0C3FF0D9801990F9A089B05F0EC
:10132000BDFF0D9801990F9A059B05F0B7FF40236B
:101330000D9801990F9A05F0B1FF03220D980199BC
:10134000109B05F0ABFF12B080BD000080B586B0E9
:1013500001468DF817000020C4F20200012202238A
:1013600004900391114602921A4605F059FE049822
:10137000029905F0DDFD9DF817200498029905F00B
:1013800043FF44F60000C4F20000802107F020FB78
:101390000498029905F0EAFDFFE744F60000C4F264
:1013A0000000062107F04AFB002802D1FFE700BF3A
:1013B000F3E744F60000C4F200000621019007F0B4
:1013C00027FB0021019807F003FB06B080BD000059
:1013D00010B590B00F904FF4A06006F083FB40F280
:1013E000127006F07FFB40F2065006F07BFB0020F7
:1013F0008DF83A000F9949690A9101218DF8391049
:101400000B9044F60402C4F2000208928DF83800F2
:1014100009900C904FF440530D9340F2000CC4F22D
:10142000020C4FF0020E08AC079060460691714620
:10143000059222460493CDF80CC0CDF808E0019443
:1014400005F01CFE0398029905F0CCFD0398029963
:1014500005F08CFD06988DF83A000F9909690A91FC
:101460008DF8390007990B91059A08928DF838107C
:1014700009910C91049B0D9303980699019A05F02C
:10148000FDFD0398069905F08FFD0398069905F078
:101490006DFD44F60000C4F20000009007F026FA4B
:1014A0000F980168009807F0A3F90F984168009819
:1014B00007F010FB0F98C168009807F077FB0F98B2
:1014C0008168009807F04CFB0098079907F0F6F93F
:1014D0000098079907F0E8FA0098079907F0CEFA04
:1014E000009807F01DFB3221009807F025FB4021F2
:1014F000009807F057FA8021009807F069FA082150
:10150000009807F03DFB0421009807F0F3FA0098DB
:1015100007F074FA10B010BD80B582B001468DF8A6
:101520000700FFE744F60000C4F2000042F2102179
:1015300007F084FA002801D0FFE7F3E79DF80700E1
:10154000FFF704FF02B080BD80B582B04FF4C060E9
:1015500006F0C8FA40F2036006F0C4FA40F6004014
:10156000C4F20100182103224FF48063019000921D
:1015700005F094FE04214FF400630198009A05F0F1
:101580008DFE02B080BD000010B598B0179040F2FB
:10159000015006F0A7FA40F20F7006F0A3FA0020FF
:1015A0008DF85A0017998968129101218DF8591008
:1015B000139043F60C42C4F2000210928DF85800CA
:1015C000119014904FF44053159340F2004CC4F224
:1015D000020C0DF1400E08906046089C07912146D0
:1015E000069272460593CDF810C0CDF80CE005F0D8
:1015F00045FD0498089905F0F5FC0498089905F054
:10160000B5FC07988DF85A001799496812918DF822
:10161000590008991391069A10928DF8581011915B
:101620001491059B159304980799039A05F026FDDC
:1016300043F60040C4F20000029006F0D5FA09A873
:10164000019006F06FFB1798C068099008980A90FF
:10165000179909680B910C90179989690D91179941
:1016600049690E91179909690F910298019906F03D
:101670000BFB029806F04CFB029806F03FFB029829
:1016800006F0A8FA18B010BD80B584B001468DF8F8
:101690000F0040F20040C4F20200002202900191CB
:1016A0001146009205F044FC9DF80F200298009925
:1016B00005F0AAFD43F60040C4F20000012106F047
:1016C00071FA0298009905F051FC04B080BD000049
:1016D00080B584B001468DF80F0040F20040C4F29E
:1016E00002000122029001911146009205F020FCB7
:1016F0009DF80F200298009905F086FD43F6004002
:10170000C4F20000002106F04DFA0298009905F09D
:101710002DFCFFE740F20040C4F20200012102224A
:1017200005F090FC002801D1FFE7F3E740F200400C
:10173000C4F202000121022205F072FC43F60040CF
:10174000C4F20000002106F015FA04B080BD0000CC
:1017500080B50220FFF798FF80BD000080B582B001
:1017600001468DF80700FFE743F60040C4F2000091
:10177000022106F073FA002801D1FFE7F4E79DF893
:101780000700FFF7A5FF02B080BD000080B584B060
:101790004FF4C06006F0A6F940F2036006F0A2F92B
:1017A00040F2026006F09EF940F60040C4F20100EB
:1017B0001821032210230390029205F06FFD0420EC
:1017C00020230399019008460199029A05F066FDCD
:1017D000082303980199029A05F060FD40F6000085
:1017E000C4F201004FF400430199029A05F056FD3E
:1017F00040F20020C0F23000012105F02FFE04B0BD
:1018000080BD000080B592B0119011981090119891
:1018100040080F9040F20B6006F064F942F6004079
:10182000C4F20100039006F001FE10980D90002014
:10183000ADF82C00ADF83800ADF82E00ADF8300052
:10184000FF218DF83A100BA9039A0290104606F07A
:10185000EDFE0120ADF820000421ADF82210029920
:10186000ADF82410ADF82610ADF82810ADF82A1008
:1018700008AA039B01901846009206F075FB039896
:101880000199009A06F070FB03980299029A06F0FB
:1018900089FD03980299029A06F026FB03980199A4
:1018A000029A06F07FFD03980199029A06F01CFB4C
:1018B0000F9A0398029906F009FD60220398029995
:1018C00006F0BCFC03980299029A06F023FD0F9AD9
:1018D0000398019906F0FAFC70220398019906F02A
:1018E000ADFC03980199029A06F014FD1520ADF89D
:1018F00014000298ADF81600ADF81000ADF8120013
:101900004FF48041ADF81810ADF81A00ADF81C0086
:1019100004A9039806F0D2FA19200221029A05F0D0
:101920002BFF0398019906F017FF039806F074FE49
:1019300012B080BD80B58AB00990099808904FF424
:10194000E06006F0CFF84FF08040039006F06EFDA7
:10195000089806900020ADF81000ADF81C00ADF816
:101960001200ADF814008DF81E0004A9039A02902D
:10197000104606F05BFE1C2001210191029A05F041
:10198000FBFE0398019906F0E7FE0398019906F023
:1019900017FF039806F088FA039806F03DFE0AB098
:1019A00080BD000080B590B00F900F980E900F98FA
:1019B00040080D9040F2037006F094F840F60040A5
:1019C000C4F20000019006F031FD0E980B9000204B
:1019D000ADF82400ADF83000ADF82600ADF82800D1
:1019E000FF208DF8320009A9019806F01FFE0121A1
:1019F000019806F0B1FE322004F0D8FA019806F002
:101A00000BFE10B080BD000080B586B001468DF899
:101A100017000020C4F20200042204900391114632
:101A2000029205F085FA9DF817200498029905F0B6
:101A3000EBFB43F60000C4F20100402106F0B2FFC8
:101A40000498029905F092FAFFE70020C4F2020020
:101A50000421022205F0F6FA0021002801910DD19F
:101A6000FFE743F60000C4F2010042F20B2106F04A
:101A7000E5FFB0FA80F040090190FFE70198C00748
:101A8000002802D0FFE700BFDFE743F60000C4F202
:101A9000010042F20B21009006F0BAFF00210098ED
:101AA00006F080FF06B080BD80B586B00146ADF877
:101AB00016000020C4F202000322022304900391C6
:101AC000114602921A4605F0ABFA0498029905F005
:101AD0002FFABDF816200498029905F095FB43F6FD
:101AE0000000C4F20100802106F072FF0498029900
:101AF00005F03CFAFFE743F60000C4F201000621BE
:101B000006F09CFF002802D1FFE700BFF3E743F691
:101B10000000C4F201000621019006F079FF0021C7
:101B2000019806F055FF06B080BD000010B592B0D8
:101B300011904FF4A06005F0D5FF40F20E6005F063
:101B4000D1FF40F2065005F0CDFF00208DF8420095
:101B5000119949690C9101218DF841100D9043F6BE
:101B60000402C4F201020A928DF840000B900E901C
:101B70004FF440530F9340F2000CC4F2020C4FF0AC
:101B8000040E0AAC099060460891714607922246FD
:101B90000693CDF814C0CDF810E0039405F06EFA6A
:101BA0000598049905F01EFA0598049905F0DEF9E8
:101BB00008988DF84200119909690C918DF841003F
:101BC00009990D91079A0A928DF840100B910E9188
:101BD000069B0F934FF0030C05986146039ACDF8CE
:101BE00008C005F04BFA0598029905F0DDF9059853
:101BF000029905F0BBF943F60000C4F20100019020
:101C000006F074FE11980168019806F0F1FD119834
:101C10004168019806F05EFF1198C168019806F0CE
:101C2000C5FF11988168019806F09AFF01980999FB
:101C300006F044FE0198099906F036FF01980999CB
:101C400006F01CFF1421019806F076FF019806F0BB
:101C500067FF4021019806F0A5FE8021019806F05B
:101C6000B7FE0821019806F08BFF0198049906F051
:101C700041FF019806F0C2FE12B010BD80B5FFE72B
:101C800043F60000C4F2010042F2102106F0D6FE35
:101C9000002801D0FFE7F3E73220FFF7B5FE80BD53
:101CA00080B582B00146ADF80600FFE743F60000BC
:101CB000C4F2010042F2102106F0C0FE002801D05B
:101CC000FFE7F3E7BDF80600FFF7EEFE02B080BDC8
:101CD00080B582B04FF4C06005F004FF40F20360AD
:101CE00005F000FF0420C4F20100016841F0040186
:101CF000016040F60040C4F2010018210322402395
:101D00000190009205F0CAFA042180230198009AFC
:101D100005F0C4FA02B080BD2DE9F04FF3B0002009
:101D20008DF8CB018DF8CA0101218DF8C911ADF8EC
:101D3000C60140F20510C2F2000042F24371405C5D
:101D4000002803F0A482FFE740F20510C2F2000071
:101D500042F24371002242541C217090084604F064
:101D600025F943F6EB30C2F2000032226F907099F1
:101D7000FEF70AFA48F68341C0F600016F9A6E90AA
:101D80001046FEF721FA43F63C41C2F2000108601A
:101D9000086848F6BA41C0F600010322FEF706FAC9
:101DA000002809D0FFE743F6EB30C2F200000078CC
:101DB000102840F0FD82FFE748F68341C0F600019D
:101DC0000020FEF701FA43F63C41C2F20001086030
:101DD0000868008844F64F61884208D0FFE743F660
:101DE000EB30C2F20000407805284ED1FFE742F602
:101DF0000040C4F20100002101226D906C916B92B1
:101E000006F0D0FA04206D996A9008466C996A9A97
:101E100006F06AF86D986B996B9A06F0C3FA6D98A4
:101E20006B996A9A06F060F843F63C40C2F20000F3
:101E30000068008844F64F6188421AD1FFE740F2FB
:101E40000510C2F2000045F25241C0F60D21C0F863
:101E5000391045F25341C5F24121C0F8361045F220
:101E60005071C2F24D01C0F832100B20FFF718FF7D
:101E70000AE040F20510C2F20000AC2180F83210F6
:101E80000120FFF70DFFFFE790E243F63C40C2F26E
:101E90000000006848F6A041C0F600010322FEF7EA
:101EA00085F9002808D0FFE743F6EB30C2F20000C6
:101EB00040780A284ED1FFE742F60040C4F2010004
:101EC000002169906891689A06F06CFA699868999F
:101ED000689A06F009F801206999679008466799A1
:101EE000689A06F05FFA69986799689A05F0FCFFAE
:101EF00043F63C40C2F20000006848F6A041C0F63C
:101F000000010322FEF752F9002817D1FFE740F243
:101F10000510C2F2000040F60D21418745F2534101
:101F2000C5F24F01C0F8361045F25071C2F24D01B2
:101F3000C0F832100A20FFF7B3FE0AE040F20510A5
:101F4000C2F20000AC2180F832100120FFF7A8FE99
:101F5000FFE72AE243F63C40C2F200000068006856
:101F600045F24621C5F24511884209D0FFE743F604
:101F7000EB30C2F200004078FC2840F0CA80FFE756
:101F800043F63C40C2F200000068006845F246217A
:101F9000C5F24511884269D1FFE748F68341C0F692
:101FA000000100206690FEF70FF943F63C41C2F2B3
:101FB00000010860086803F001FDFEF73DFA41ECFE
:101FC000100B9FEDD31B51EC110B53EC102BFEF7B4
:101FD000C4F941EC100B51EC100B9FEDCF0B53ECFF
:101FE000102BFEF713F941EC100B51EC100BFEF720
:101FF00034FAFFF707FC42F60040C4F20100012169
:102000006590669A64911146649A06F0CBF90420B3
:102010006599639008466699639A05F065FF65982F
:102020006499649A06F0BEF965986499639A05F01C
:102030005BFF40F20510C2F2000040F60D21C1879F
:1020400045F24141C4F24541C0F83A1045F22051F1
:10205000C4F25041C0F8361045F24621C5F2451190
:10206000C0F832100E20FFF71BFE51E043F6EB30B4
:10207000C2F200008178C07840EA0120ADF8C601C4
:10208000BDF8C601FEF7D8F941EC100B9FEDA01B7F
:1020900051EC110B53EC102BFEF75FF941EC100BD8
:1020A00051EC100B9FED9C0B53EC102BFEF7AEF890
:1020B00041EC100B51EC100BFEF7CFF9FFF7A2FB30
:1020C00042F60040C4F201000021012262906191B9
:1020D000609206F067F9042062995F900846619962
:1020E0005F9A05F001FF62986099609A06F05AF9CC
:1020F000629860995F9A05F0F7FE40F20510C2F20F
:102100000000AC2180F832106098FFF7C9FDFFE7AE
:102110004AE143F63C40C2F200000068008845F204
:102120004441884208D0FFE743F6EB30C2F200009A
:102130004078D1285FD1FFE743F63C40C2F200006F
:102140000068008845F24441884238D1FFE748F6EC
:102150008341C0F600010020FEF736F843F63C410B
:10216000C2F20001086042F64440C4F20100026875
:1021700022F0FF02026009685E90084603F01EFC30
:10218000C0B25E990A681043086040F20510C2F2BE
:10219000000044F24542C0F60D22C0F83A2044F255
:1021A0005042C5F24142C0F8362045F24442C5F2E1
:1021B0002052C0F832200C20FFF772FD1AE042F6E0
:1021C0004440C4F20100016821F0FF01016043F6C0
:1021D000EB31C2F20001897802681143016040F2DC
:1021E0000510C2F20000AC2180F832100120FFF788
:1021F00057FDFFE7D7E043F63C40C2F2000000681D
:10220000008844F24431884209D0FFE743F6EB30BE
:10221000C2F200004078DC2840F0C480FFE743F6BB
:102220003C40C2F200000068008844F24431884219
:1022300078D1FFE748F68341C0F600010020FDF7A2
:10224000C3FF43F63C41C2F20001086042F62C4055
:10225000C4F2010090ED000AB8EE400A0A685D90F1
:1022600010465C918DED5B0A03F0A8FB00EE100AAE
:10227000B8EEC00A9FED2A1A80EE010A9DED5B2A96
:1022800022EE000ABCEEC00A42F63440C4F201005D
:1022900080ED000A5D9890ED000AB8EE400A5C9966
:1022A00008688DED5A1A8DED590A03F087FB00EE90
:1022B000100AB8EEC00A9DED5A1A80EE010A9DED93
:1022C000592A22EE000ABCEEC00A42F63840C4F297
:1022D000010080ED000A40F20510C2F2000044F255
:1022E0004541C0F60D21C0F83A1044F25041C5F204
:1022F0004141C0F8361044F24431C5F22051C0F8D3
:1023000032100C20FFF7CCFC4BE000BF00BF00BF39
:1023100000000000004CFD40000000000000F0BF85
:102320000000C84242F62C40C4F2010090ED000AC1
:10233000B8EE400A43F6EB31C2F200018A7801EEB2
:10234000102AB8EEC11A1FED0A2A81EE021A20EEF9
:10235000010ABCEEC00A42F63442C4F2010282ED28
:10236000000A90ED000AB8EE400A887801EE100AE3
:10237000B8EEC11A81EE021A20EE010ABCEEC00AC4
:1023800042F63840C4F2010080ED000A40F2051028
:10239000C2F20000AC2180F832100120FFF780FC6F
:1023A000FFE7FFE7FFE7FFE7FFE7FFE702F04DBFCB
:1023B00043F63C40C2F20000006848F69C41C0F67B
:1023C00000010322FDF7F2FE002809D0FFE743F6E3
:1023D000EB30C2F200000078AD2840F04B83FFE7FD
:1023E00048F68341C0F600010020FDF7EDFE43F6FC
:1023F0003C41C2F2000108600868006844F2525192
:10240000C4F24141884209D0FFE743F6EB30C2F203
:1024100000004078FD2840F0A181FFE700208DF802
:10242000CB01FFE79DF8CB0109282ADCFFE7FEF787
:10243000CDF800208DF8CA01FFE79DF8CA010528F4
:1024400018DCFFE79DF8CA0140F20801C2F2000162
:1024500031F8101043F62042C2F2000252F8203048
:10246000194442F82010FFE79DF8CA0101308DF8A9
:10247000CA01E2E7FFE79DF8CB0101308DF8CB01FF
:10248000D0E743F63C40C2F200000068006844F226
:102490005251C4F24141884240F0C380FFE740F20C
:1024A0000510C2F2000044F24921C5F2553140F84E
:1024B000321F42F23A01818043F62042C2F200020A
:1024C00013684CF6CD4CCCF6CC4CA3FB0C3ECEF3B3
:1024D000CF0E062458905791214656927246CDF859
:1024E00054C154935394FEF7F7F80D20589988720D
:1024F0000A22CA720C235290184651925093FFF749
:10250000CFFB57985899888044F25612C4F643423C
:102510000A60569A5368DDF854C1A3FB0C3ECEF313
:10252000CF02084653994F93FEF7D6F85298589920
:102530008872519ACA725098FFF7B2FB44F649402C
:10254000C2F23A005899086056988268559BA2FBDF
:10255000032CCCF3CF0C042158984E926246FEF720
:10256000BBF8529858990872519A4A721046FFF770
:1025700097FB57985899888044F25452C5F24D02FF
:102580000A60569AD368DDF854C1A3FB0C3ECEF323
:10259000CF02084653994D93FEF79EF852985899EA
:1025A0008872519ACA725098FFF77AFB57985899D7
:1025B000888044F25612C4F643520A60569A136950
:1025C000DDF854C1A3FB0C3ECEF3CF02084653996D
:1025D0004C93FEF781F8529858998872519ACA72B2
:1025E0005098FFF75DFB57985899888044F256221F
:1025F000C5F255320A60569A5369DDF854C1A3FBFF
:102600000C3ECEF3CF02084653994B93FEF764F885
:10261000529858998872519ACA725098FFF740FBA5
:1026200082E043F62040C2F2000001684CF6CD4241
:10263000CCF6CC42A1FB0213DB0A40F2051CC2F22D
:10264000000C8CF832300368A3FB023E4FEADE0E2A
:102650008CF833E04FF0200E8CF834E04468A4FB93
:102660000245ED0A8CF835504568A5FB0256F60880
:102670008CF836608CF837E08668A6FB0267FF0AA4
:102680008CF838708768A7FB02784FEAD8088CF876
:1026900039808CF83AE0D0F80C80A8FB02894FEA28
:1026A000D9298CF83B90D0F80C90A9FB029A4FEAFC
:1026B000DA0A8CF83CA08CF83DE0D0F810A0AAFB18
:1026C00002AB4FEADB2B8CF83EB0D0F810B04A904A
:1026D000ABFB02B0C0088CF83F008CF840E04A9891
:1026E000D0F814E0AEFB02E0C00A8CF841004A9832
:1026F0004069A0FB0202D2088CF8422011224990C6
:102700001046489147934694459544964397CDF893
:102710000881CDF80491CDF800A1CDF8FCB0CDF83A
:10272000F8E0FFF7BDFAFFE700208DF8CA01FFE7E8
:102730009DF8CA01052810DCFFE79DF8CA0143F6A1
:102740002041C2F20001002241F82020FFE79DF85D
:10275000CA0101308DF8CA01EAE789E143F63C403D
:10276000C2F20000006848F6CA41C0F60001072224
:10277000FDF71CFD002809D0FFE743F6EB30C2F25D
:10278000000040785A2840F07281FFE743F63C4051
:10279000C2F20000006848F6CA41C0F600010722F4
:1027A000FDF704FD002840F0D980FFE748F683419B
:1027B000C0F6000100203D90FDF706FD43F63C41C8
:1027C000C2F200010860086803F0F8F843F64041DF
:1027D000C2F20001088043F6DA30C2F200003D99EF
:1027E0000180FFE743F6DA30C2F20000008843F6CA
:1027F0004041C2F200010988884280F2AE80FFE7C2
:10280000FDF7E4FE40F20510C2F2000044F2492157
:10281000C5F2553140F8321F42F23A01818040F250
:102820000802C2F2000213884FF0060C3C903B9164
:1028300061463A921A46CDF8E4C0FDF74DFF0D20EF
:102840003C9988720A22CA720C2338901846379233
:102850003693FFF725FA3B983C99888044F256124C
:10286000C4F643420A603A9A528808463999FDF7FD
:1028700033FF38983C998872379ACA723698FFF7B6
:102880000FFA44F64940C2F23A003C9908603A987F
:10289000828804213C98FDF71FFF38983C99087204
:1028A000379A4A721046FFF7FBF93B983C998880AB
:1028B00044F25452C5F24D020A603A9AD288084650
:1028C0003999FDF709FF38983C998872379ACA728E
:1028D0003698FFF7E5F93B983C99888044F2561208
:1028E000C4F643520A603A9A128908463999FDF7AC
:1028F000F3FE38983C998872379ACA723698FFF777
:10290000CFF93B983C99888044F25622C5F2553263
:102910000A603A9A528908463999FDF7DDFE3898DF
:102920003C998872379ACA723698FFF7B9F942F61D
:102930002D50C0F60D203C9988604FF02D30486036
:1029400008603698FFF7ACF9FFE743F6DA30C2F2D9
:10295000000001880131018044E787E0FEF716FF9F
:1029600043F6EB30C2F200008178C07840EA0120E3
:1029700043F64041C2F20001088043F6DE30C2F265
:10298000000000210180FFE743F6DE30C2F20000C4
:10299000008843F64041C2F200010988884232DAD9
:1029A000FFE7FDF713FE40F20800C2F20000417895
:1029B00040F2EA02C2F20002D17101881172C178BC
:1029C0005172418891724179D17281881173C179B4
:1029D0005173C1889173417AD17301891174C17A9D
:1029E0005174408990740020D074212010750E20FD
:1029F000FEF7B4FEFFE743F6DE30C2F200000188C6
:102A000001310180C0E743F6DE30C2F200000088E9
:102A100043F64041C2F200010988884225DBFFE706
:102A200040F60040C4F20100042120233590349187
:102A3000349A04F033FC282010233599339008464B
:102A40003399349A04F02AFC082335983399349A40
:102A500004F024FC40F60000C4F201004FF40043EF
:102A60003399349A04F01AFCFFE7FFE7FFE7FFE72A
:102A700002F0EABB43F63C40C2F20000006848F6B0
:102A80009841C0F600010322FDF790FB002808D012
:102A9000FFE743F6EB30C2F200000078DC287AD181
:102AA000FFE700208DF8C901FEF752FE43F63C40D7
:102AB000C2F20000006848F69841C0F60001032207
:102AC000FDF774FB002836D1FFE748F68341C0F6D6
:102AD000000100203290FDF777FB43F63C41C2F243
:102AE00000010860086802F069FF329931900846D9
:102AF000319A04F033F9329804F08AF940F2051063
:102B0000C2F200000A2180F83E1044F25451C0F68F
:102B10004451C0F83A1045F25501C4F24411C0F8CE
:102B2000361044F24411C2F24301C0F832100D20B5
:102B3000FFF7B6F82DE040F2BC00C2F20000012120
:102B4000017043F6EB30C2F200004278837843EA2A
:102B5000022243F6E833C2F200031A8042788078FA
:102B600040EA022200203090309B2F91194604F059
:102B7000F5F8309804F04CF9FEF708FE40F2051025
:102B8000C2F20000AC2180F832102F98FFF788F8CD
:102B9000FFE702F058BB43F63C40C2F20000006879
:102BA000006845F24701C4F64971884209D0FFE741
:102BB00043F6EB30C2F2000000786F2842F05B82EF
:102BC000FFE748F68341C0F600010020FDF7FCFA5C
:102BD00043F63C41C2F2000108600868006844F214
:102BE0005251C4F24141884209D0FFE743F6EB302D
:102BF000C2F2000040787D2840F00682FFE743F6ED
:102C00003C40C2F200000068006844F25251C4F235
:102C10004141884240F04D81FFE741F20000C4F29B
:102C200001004FF4005104F003FC01281DD1FFE71F
:102C300040F20510C2F200000A2180F83E1044F272
:102C40004971C0F64851C0F83A1043F64521C4F620
:102C50002001C0F8361045F25341C5F24141C0F899
:102C600032100D20FFF71CF819E040F20510C2F2F7
:102C7000000045F24F71C0F60D21C0F83A1043F63E
:102C80004521C4F62041C0F8361045F25341C5F243
:102C90004141C0F832100C20FFF702F8FFE741F283
:102CA0000000C4F201004FF4004104F0C1FB012810
:102CB0001DD1FFE740F20510C2F2000040F60D21E1
:102CC000C18744F64811C4F64701C0F83A1044F2EF
:102CD0004C51C2F23A01C0F8361044F64561C4F2D4
:102CE0004121C0F832100E20FEF7DAFF1CE040F25E
:102CF0000510C2F200000A2180F83E1044F64C7123
:102D0000C0F65751C0F83A1044F24C51C2F23A01A1
:102D1000C0F8361044F64561C4F24121C0F83210C3
:102D20000D20FEF7BDFFFFE740F60040C4F20100B2
:102D3000022104F07DFB01281DD1FFE740F20510C0
:102D4000C2F200000A2180F83E1044F24971C0F638
:102D50004851C0F83A1043F64B21C4F62001C0F8A0
:102D6000361044F25741C4F65F71C0F832100D209E
:102D7000FEF796FF19E040F20510C2F2000045F29E
:102D80004F71C0F60D21C0F83A1043F64B21C4F63E
:102D90002041C0F8361044F25741C4F65F71C0F8C4
:102DA00032100C20FEF77CFFFFE740F60040C4F233
:102DB00001004FF4805104F03BFB01281AD1FFE7DA
:102DC00040F20510C2F2000044F64701C0F60D21A2
:102DD000C0F8391044F62001C4F24971C0F8361029
:102DE00044F24F31C3F65021C0F832100B20FEF7E9
:102DF00057FF16E040F20510C2F2000040F60D2128
:102E0000418744F62041C5F24F71C0F8361044F2B4
:102E10004F31C3F65021C0F832100A20FEF740FFB0
:102E2000FFE740F60040C4F20100202104F000FB5F
:102E3000012820D1FFE740F20510C2F2000044F65D
:102E40004701C0F60D21C0F83D1044F62001C4F240
:102E50004971C0F83A1044F65F11C3F64E21C0F82C
:102E6000361045F65311C4F24E31C0F832100E2020
:102E7000FEF716FF1CE040F20510C2F2000040F61B
:102E80000D21C18744F62041C5F24F71C0F83A10B8
:102E900044F65F11C3F64E21C0F8361045F65311C3
:102EA000C4F24E31C0F832100D20FEF7F9FEFFE7F4
:102EB000A8E040F20510C2F20000002180F83210B4
:102EC00041F20000C4F201004FF4005104F0B0FAE6
:102ED00001280BD1FFE740F20510C2F2000090F884
:102EE00032104900013180F8321009E040F205103B
:102EF000C2F2000090F83210490080F83210FFE76B
:102F000041F20000C4F201004FF4004104F090FAD5
:102F100001280BD1FFE740F20510C2F2000090F843
:102F200032104900013180F8321009E040F20510FA
:102F3000C2F2000090F83210490080F83210FFE72A
:102F400040F60040C4F20100022104F071FA0128A9
:102F50000BD1FFE740F20510C2F2000090F83210EA
:102F60004900013180F8321009E040F20510C2F248
:102F7000000090F83210490080F83210FFE740F668
:102F80000040C4F201004FF4805104F051FA0128CE
:102F90000BD1FFE740F20510C2F2000090F83210AA
:102FA0004900013180F8321009E040F20510C2F208
:102FB000000090F83210490080F83210FFE740F628
:102FC0000040C4F20100202104F032FA01280BD1A4
:102FD000FFE740F20510C2F2000090F832104900FD
:102FE000013180F8321009E040F20510C2F2000011
:102FF00090F83210490080F83210FFE70120FEF708
:103000004FFEFFE702F036B843F63C40C2F2000044
:10301000006848F6A441C0F600010722FDF7C6F893
:10302000002809D0FFE743F6EB30C2F200004078F9
:103030007F2841F0BF82FFE7FDF78EFC43F63C405E
:10304000C2F20000006848F6A441C0F60001072261
:10305000FDF7ACF8002840F03E87FFE741F20000A2
:10306000C4F201004FF4005104F0E2F901281DD12F
:10307000FFE740F20510C2F200000A2180F83E107E
:1030800044F24971C0F64851C0F83A1043F6452160
:10309000C4F62001C0F8361045F25341C5F2414153
:1030A000C0F832100D20FEF7FBFD19E040F20510CC
:1030B000C2F2000045F24F71C0F60D21C0F83A107F
:1030C00043F64521C4F62041C0F8361045F253417D
:1030D000C5F24141C0F832100C20FEF7E1FDFFE7D8
:1030E00041F20000C4F201004FF4804104F0A0F965
:1030F00001281DD1FFE740F20510C2F200000A21AD
:1031000080F83E1044F24971C0F64851C0F83A10B8
:1031100043F64D21C4F62001C0F8361044F6414173
:10312000C5F24121C0F832100D20FEF7B9FD19E0BB
:1031300040F20510C2F2000045F24F71C0F60D21B9
:10314000C0F83A1043F64D21C4F62041C0F83610BD
:1031500044F64141C5F24121C0F832100C20FEF77F
:103160009FFDFFE741F20000C4F201004FF400416F
:1031700004F05EF901281DD1FFE740F20510C2F20C
:10318000000040F60D21C18744F64811C4F64701FE
:10319000C0F83A1044F24C51C2F23A01C0F836106D
:1031A00044F64561C4F24121C0F832100E20FEF70A
:1031B00077FD1CE040F20510C2F200000A2180F801
:1031C0003E1044F64C71C0F65751C0F83A1044F224
:1031D0004C51C2F23A01C0F8361044F64561C4F2CF
:1031E0004121C0F832100D20FEF75AFDFFE740F6EE
:1031F0000000C4F20100012104F01AF901281AD1DB
:10320000FFE740F20510C2F2000044F64701C0F6A5
:103210000D21C0F83A1042F23A01C4F64811C0F844
:10322000361044F24921C5F25531C0F832100C2055
:10323000FEF736FD19E040F20510C2F2000045F23B
:103240004F71C0F60D21C0F8391042F23A01C4F6B0
:103250004C71C0F8361044F24921C5F25531C0F81E
:1032600032100B20FEF71CFDFFE740F60000C4F211
:103270000100022104F0DCF801281AD1FFE740F236
:103280000510C2F2000044F64701C0F60D21C0F857
:103290003A1042F23A01C4F64811C0F8361044F22E
:1032A0005611C4F64341C0F832100C20FEF7F8FC6A
:1032B00019E040F20510C2F2000045F24F71C0F66D
:1032C0000D21C0F8391042F23A01C4F64C71C0F831
:1032D000361044F25611C4F64341C0F832100B20A8
:1032E000FEF7DEFCFFE740F60000C4F20100042117
:1032F00004F09EF8012817D1FFE740F20510C2F252
:10330000000040F60D21418744F64811C4F64701FC
:10331000C0F8361044F64941C2F23A01C0F8321002
:103320000A20FEF7BDFC16E040F20510C2F20000D4
:103330000A2180F83A1044F64C71C0F65751C0F893
:10334000361044F64941C2F23A01C0F83210092061
:10335000FEF7A6FCFFE740F60000C4F201000821DA
:1033600004F066F801281AD1FFE740F20510C2F216
:10337000000044F64701C0F60D21C0F83A1042F2B1
:103380003A01C4F64811C0F8361044F25451C5F25F
:103390004D01C0F832100C20FEF782FC19E040F21B
:1033A0000510C2F2000045F24F71C0F60D21C0F8C1
:1033B000391042F23A01C4F64C71C0F8361044F2AA
:1033C0005451C5F24D01C0F832100B20FEF768FCD5
:1033D000FFE740F60000C4F20100102104F028F8D5
:1033E00001281DD1FFE740F20510C2F2000040F6AF
:1033F0000D21C18744F64811C4F64701C0F83A10C0
:1034000044F65401C2F23A01C0F8361044F24F318A
:10341000C5F65071C0F832100E20FEF741FC1CE0DA
:1034200040F20510C2F200000A2180F83E1044F676
:103430004C71C0F65751C0F83A1044F65401C2F22C
:103440003A01C0F8361044F24F31C5F65071C0F859
:1034500032100D20FEF724FCFFE740F60000C4F216
:103460000100202103F0E4FF01281AD1FFE740F218
:103470000510C2F2000044F64701C0F60D21C0F865
:103480003A1042F23A01C4F64811C0F8361044F23C
:103490005611C4F64361C0F832100C20FEF700FC50
:1034A00019E040F20510C2F2000045F24F71C0F67B
:1034B0000D21C0F8391042F23A01C4F64C71C0F83F
:1034C000361044F25611C4F64361C0F832100B2096
:1034D000FEF7E6FBFFE740F60000C4F201004021E2
:1034E00003F0A6FF01281AD1FFE740F20510C2F24F
:1034F000000044F64701C0F60D21C0F83A1042F230
:103500003A01C4F64811C0F8361044F25621C5F20B
:103510005531C0F832100C20FEF7C2FB19E040F222
:103520000510C2F2000045F24F71C0F60D21C0F83F
:10353000391042F23A01C4F64C71C0F8361044F228
:103540005621C5F25531C0F832100B20FEF7A8FB0A
:10355000FFE740F60000C4F20100802103F068FF9D
:1035600001281DD1FFE740F20510C2F200000A2138
:1035700080F83E1044F24971C0F64851C0F83A1044
:1035800043F65921C4F62001C0F8361044F25251D6
:10359000C4F24C11C0F832100D20FEF781FB19E087
:1035A00040F20510C2F2000045F24F71C0F60D2145
:1035B000C0F83A1043F65921C4F62041C0F836103D
:1035C00044F25251C4F24C11C0F832100C20FEF7F4
:1035D00067FBFFE740F60040C4F20100012103F061
:1035E00027FF012817D1FFE740F20510C2F20000C3
:1035F00040F60D21418744F64811C4F64701C0F852
:10360000361044F25741C2F23A01C0F832100A2093
:10361000FEF746FB16E040F20510C2F200000A2158
:1036200080F83A1044F64C71C0F65751C0F8361085
:1036300044F25741C2F23A01C0F832100920FEF7B5
:103640002FFBFFE740F60040C4F20100022103F027
:10365000EFFE01281DD1FFE740F20510C2F2000085
:103660000A2180F83E1044F24971C0F64851C0F872
:103670003A1043F64B21C4F62001C0F8361044F24C
:103680005741C4F65F71C0F832100D20FEF708FBF9
:1036900019E040F20510C2F2000045F24F71C0F689
:1036A0000D21C0F83A1043F64B21C4F62041C0F872
:1036B000361044F25741C4F65F71C0F832100C2046
:1036C000FEF7EEFAFFE740F60040C4F201000421E5
:1036D00003F0AEFE012820D1FFE740F20510C2F250
:1036E000000044F64701C0F60D21C0F83E1042F23A
:1036F0003A01C4F64811C0F83A1045F65471C4F2C4
:103700004451C0F8361045F25531C5F24121C0F898
:1037100032101020FEF7C4FA1FE040F20510C2F28A
:10372000000045F24F71C0F60D21C0F83D1042F285
:103730003A01C4F64C71C0F83A1045F65471C4F21F
:103740004451C0F8361045F25531C5F24121C0F858
:1037500032100F20FEF7A4FAFFE740F60040C4F253
:1037600001004FF4806103F063FE012820D1FFE7E0
:1037700040F20510C2F2000044F64701C0F60D21E8
:10378000C0F83E1042F23A01C4F64811C0F83A10AF
:1037900045F65471C5F65401C0F8361045F255315E
:1037A000C5F24121C0F832101020FEF779FA1FE06F
:1037B00040F20510C2F2000045F24F71C0F60D2133
:1037C000C0F83D1042F23A01C4F64C71C0F83A100C
:1037D00045F65471C5F65401C0F8361045F255311E
:1037E000C5F24121C0F832100F20FEF759FAFFE769
:1037F00040F60040C4F201004FF4006103F018FEEF
:10380000012820D1FFE740F20510C2F2000044F683
:103810004701C0F60D21C0F83E1042F23A01C4F64D
:103820004811C0F83A1045F65471C5F65201C0F877
:10383000361045F25531C5F24121C0F83210102042
:10384000FEF72EFA1FE040F20510C2F2000045F22A
:103850004F71C0F60D21C0F83D1042F23A01C4F696
:103860004C71C0F83A1045F65471C5F65201C0F8D3
:10387000361045F25531C5F24121C0F832100F2003
:10388000FEF70EFAFFE740F60040C4F201004FF4E5
:10389000805103F0CDFD01281AD1FFE740F2051059
:1038A000C2F2000040F64851C0F20A01C0F83A10D6
:1038B00044F62001C4F24971C0F8361044F24F3189
:1038C000C3F65021C0F832100C20FEF7E9F917E0DA
:1038D00040F20510C2F2000040F60D21C0F83A1087
:1038E00044F62041C5F24F71C0F8361044F24F3112
:1038F000C3F65021C0F832100B20FEF7D1F9FFE7D4
:1039000040F60040C4F201004FF4005103F090FD76
:1039100001281DD1FFE740F20510C2F2000040F679
:103920000D21C18744F64811C4F64701C0F83A108A
:1039300044F65301C2F23A01C0F8361045F2507114
:10394000C5F64D71C0F832100E20FEF7A9F91CE043
:1039500040F20510C2F200000A2180F83E1044F641
:103960004C71C0F65751C0F83A1044F65301C2F2F8
:103970003A01C0F8361045F25071C5F64D71C0F8E5
:1039800032100D20FEF78CF9FFE740F60040C4F23C
:1039900001004FF4804103F04BFD01281DD1FFE7EA
:1039A00040F20510C2F2000040F60D21C18744F636
:1039B0004811C4F64701C0F83A1044F65341C2F228
:1039C0003A01C0F8361045F25071C5F64D71C0F895
:1039D00032100E20FEF764F91CE040F20510C2F22E
:1039E00000000A2180F83E1044F64C71C0F6575191
:1039F000C0F83A1044F65341C2F23A01C0F836100A
:103A000045F25071C5F64D71C0F832100D20FEF729
:103A100047F9FFE740F60040C4F201004FF40041CF
:103A200003F006FD01281AD1FFE740F20510C2F2AB
:103A3000000044F64701C0F60D21C0F83A1042F2EA
:103A40003A01C4F64811C0F8361044F24C51C3F2A2
:103A50004411C0F832100C20FEF722F919E040F2B0
:103A60000510C2F2000045F24F71C0F60D21C0F8FA
:103A7000391042F23A01C4F64C71C0F8361044F2E3
:103A80004C51C3F24411C0F832100B20FEF708F974
:103A9000FFE740F60000C4F201004FF4807103F02C
:103AA000C7FC01281DD1FFE740F20510C2F200005B
:103AB00040F60D21C18744F64811C4F64701C0F80D
:103AC0003A1044F64601C2F23A01C0F8361045F207
:103AD0005071C5F64D71C0F832100E20FEF7E0F8B7
:103AE0001CE040F20510C2F200000A2180F83E10EE
:103AF00044F64C71C0F65751C0F83A1044F64601EE
:103B0000C2F23A01C0F8361045F25071C5F64D7157
:103B1000C0F832100D20FEF7C3F8FFE740F60000B2
:103B2000C4F201004FF4007103F082FC01281DD1A2
:103B3000FFE740F20510C2F2000040F60D21C187F8
:103B400044F64811C4F64701C0F83A1044F646411D
:103B5000C2F23A01C0F8361045F25071C5F64D7107
:103B6000C0F832100E20FEF79BF81CE040F2051062
:103B7000C2F200000A2180F83E1044F64C71C0F6F3
:103B80005751C0F83A1044F64641C2F23A01C0F823
:103B9000361045F25071C5F64D71C0F832100D2047
:103BA000FEF77EF8FFE740F60040C4F201004FF454
:103BB000005103F03DFC01281DD1FFE740F2051044
:103BC000C2F2000040F60D21C18744F64811C4F648
:103BD0004701C0F83A1044F65301C2F23A01C0F866
:103BE000361045F25071C5F64D71C0F832100E20F6
:103BF000FEF756F81CE040F20510C2F200000A2160
:103C000080F83E1044F64C71C0F65751C0F83A1097
:103C100044F65301C2F23A01C0F8361045F2507131
:103C2000C5F64D71C0F832100D20FEF739F8FFE7E8
:103C300040F60000C4F201004FF4806103F0F8FB8D
:103C400001281DD1FFE740F20510C2F2000040F646
:103C50000D21C18744F64811C4F64701C0F83A1057
:103C600044F64561C2F23A01C0F8361045F250718F
:103C7000C5F64D71C0F832100E20FEF711F81CE0A9
:103C800040F20510C2F200000A2180F83E1044F60E
:103C90004C71C0F65751C0F83A1044F64561C2F273
:103CA0003A01C0F8361045F25071C5F64D71C0F8B2
:103CB00032100D20FDF7F4FFFFE740F60000C4F2DC
:103CC00001004FF4006103F0B3FB01281DD1FFE7B1
:103CD00040F20510C2F2000040F60D21C18744F603
:103CE0004811C4F64701C0F83A1045F65201C2F235
:103CF0003A01C0F8361044F24311C5F64E71C0F8CF
:103D000032100E20FDF7CCFF1CE040F20510C2F28D
:103D100000000A2180F83E1044F64C71C0F657515D
:103D2000C0F83A1045F65201C2F23A01C0F8361016
:103D300044F24311C5F64E71C0F832100D20FDF764
:103D4000AFFFFFE740F60000C4F201004FF48051DE
:103D500003F06EFB01281DD1FFE740F20510C2F20F
:103D6000000040F60D21C18744F64811C4F6470112
:103D7000C0F83A1045F65401C2F23A01C0F83610C4
:103D800044F24311C5F64E71C0F832100E20FDF713
:103D900087FF1CE040F20510C2F200000A2180F803
:103DA0003E1044F64C71C0F65751C0F83A1045F633
:103DB0005401C2F23A01C0F8361044F24311C5F67C
:103DC0004E71C0F832100D20FDF76AFFFFE740F694
:103DD0000040C4F20100202103F02AFB012820D179
:103DE000FFE740F20510C2F2000044F64701C0F6BA
:103DF0000D21C0F83D1044F62001C4F24971C0F80D
:103E00003A1044F65F11C3F64E21C0F8361045F65D
:103E10005311C4F24E31C0F832100F20FDF740FFAD
:103E20001CE040F20510C2F2000040F60D21C187EF
:103E300044F62041C5F24F71C0F83A1044F65F11C4
:103E4000C3F64E21C0F8361045F65311C4F24E3178
:103E5000C0F832100E20FDF723FFFFE740F60040C8
:103E6000C4F201004FF4807103F0E2FA01281AD184
:103E7000FFE740F20510C2F2000044F64701C0F629
:103E80000D21C0F8391044F62001C4F24971C0F880
:103E9000361044F24611C3F64E21C0F832100B2002
:103EA000FDF7FEFE16E040F20510C2F2000040F6FB
:103EB0000D21418744F62041C5F24F71C0F83610FC
:103EC00044F24611C3F64E21C0F832100A20FDF725
:103ED000E7FEFFE764E340F20510C2F200000021B4
:103EE00080F8321080F8331080F8341080F83510E4
:103EF00041F20000C4F201004FF4005103F098FABF
:103F000001280BD1FFE740F20510C2F2000090F843
:103F100032104900013180F8321009E040F20510FA
:103F2000C2F2000090F83210490080F83210FFE72A
:103F300041F20000C4F201004FF4804103F078FA2E
:103F400001280BD1FFE740F20510C2F2000090F803
:103F500032104900013180F8321009E040F20510BA
:103F6000C2F2000090F83210490080F83210FFE7EA
:103F700041F20000C4F201004FF4004103F058FA8E
:103F800001280BD1FFE740F20510C2F2000090F8C3
:103F900032104900013180F8321009E040F205107A
:103FA000C2F2000090F83210490080F83210FFE7AA
:103FB00040F60000C4F20100012103F039FA0128A3
:103FC0000BD1FFE740F20510C2F2000090F832106A
:103FD0004900013180F8321009E040F20510C2F2C8
:103FE000000090F83210490080F83210FFE740F6E8
:103FF0000000C4F20100022103F01AFA01280BD1DB
:10400000FFE740F20510C2F2000090F832104900BC
:10401000013180F8321009E040F20510C2F20000D0
:1040200090F83210490080F83210FFE740F60000A7
:10403000C4F20100042103F0FBF901280BD1FFE7D2
:1040400040F20510C2F2000090F832104900013130
:1040500080F8321009E040F20510C2F2000090F83A
:104060003210490080F83210FFE740F60000C4F239
:104070000100082103F0DCF901280BD1FFE740F231
:104080000510C2F2000090F832104900013180F8AA
:10409000321009E040F20510C2F2000090F8321030
:1040A000490080F83210FFE740F60000C4F201003A
:1040B000102103F0BDF901280BD1FFE740F20510F4
:1040C000C2F2000090F832104900013180F832103D
:1040D00009E040F20510C2F2000090F832104900E9
:1040E00080F83210FFE740F60000C4F20100202102
:1040F00003F09EF901280BD1FFE740F20510C2F250
:10410000000090F832104900013180F8331009E0C6
:1041100040F20510C2F2000090F83310490080F818
:104120003310FFE740F60000C4F20100402103F025
:104130007FF901280BD1FFE740F20510C2F2000021
:1041400090F832104900013180F8331009E040F254
:104150000510C2F2000090F83310490080F83310C7
:10416000FFE740F60000C4F20100802103F060F98F
:1041700001280BD1FFE740F20510C2F2000090F8D1
:1041800032104900013180F8331009E040F2051087
:10419000C2F2000090F83310490080F83310FFE7B6
:1041A00040F60040C4F20100012103F041F901286A
:1041B0000BD1FFE740F20510C2F2000090F8321078
:1041C0004900013180F8331009E040F20510C2F2D5
:1041D000000090F83310490080F83310FFE740F6F4
:1041E0000040C4F20100022103F022F901280BD1A2
:1041F000FFE740F20510C2F2000090F832104900CB
:10420000013180F8331009E040F20510C2F20000DD
:1042100090F83310490080F83310FFE740F6004073
:10422000C4F20100042103F003F901280BD1FFE7D8
:1042300040F20510C2F2000090F83210490001313E
:1042400080F8331009E040F20510C2F2000090F847
:104250003310490080F83310FFE740F60040C4F205
:1042600001004FF4806103F0E3F801280BD1FFE770
:1042700040F20510C2F2000090F8321049000131FE
:1042800080F8331009E040F20510C2F2000090F807
:104290003310490080F83310FFE740F60040C4F2C5
:1042A00001004FF4006103F0C3F801280BD1FFE7D0
:1042B00040F20510C2F2000090F8321049000131BE
:1042C00080F8331009E040F20510C2F2000090F8C7
:1042D0003310490080F83310FFE740F60040C4F285
:1042E00001004FF4805103F0A3F801280BD1FFE740
:1042F00040F20510C2F2000090F83210490001317E
:1043000080F8341009E040F20510C2F2000090F885
:104310003410490080F83410FFE740F60040C4F242
:1043200001004FF4005103F083F801280BD1FFE79F
:1043300040F20510C2F2000090F83210490001313D
:1043400080F8341009E040F20510C2F2000090F845
:104350003410490080F83410FFE740F60040C4F202
:1043600001004FF4804103F063F801280BD1FFE70F
:1043700040F20510C2F2000090F8321049000131FD
:1043800080F8341009E040F20510C2F2000090F805
:104390003410490080F83410FFE740F60040C4F2C2
:1043A00001004FF4004103F043F801280BD1FFE76F
:1043B00040F20510C2F2000090F8321049000131BD
:1043C00080F8341009E040F20510C2F2000090F8C5
:1043D0003410490080F83410FFE740F60000C4F2C2
:1043E00001004FF4807103F023F801280BD1FFE79F
:1043F00040F20510C2F2000090F83210490001317D
:1044000080F8341009E040F20510C2F2000090F884
:104410003410490080F83410FFE740F60000C4F281
:1044200001004FF4007103F003F801280BD1FFE7FE
:1044300040F20510C2F2000090F83210490001313C
:1044400080F8341009E040F20510C2F2000090F844
:104450003410490080F83410FFE740F60000C4F241
:1044600001004FF4806102F0E3FF01280BD1FFE768
:1044700040F20510C2F2000090F8321049000131FC
:1044800080F8341009E040F20510C2F2000090F804
:104490003410490080F83410FFE740F60000C4F201
:1044A00001004FF4006102F0C3FF01280BD1FFE7C8
:1044B00040F20510C2F2000090F8321049000131BC
:1044C00080F8341009E040F20510C2F2000090F8C4
:1044D0003410490080F83410FFE740F60000C4F2C1
:1044E00001004FF4805102F0A3FF01280BD1FFE738
:1044F00040F20510C2F2000090F83210490001317C
:1045000080F8351009E040F20510C2F2000090F882
:104510003510490080F83510FFE740F60040C4F23E
:104520000100202102F084FF01280BD1FFE740F2B7
:104530000510C2F2000090F832104900013180F8F5
:10454000351009E040F20510C2F2000090F8351075
:10455000490080F83510FFE740F60040C4F2010042
:104560004FF4807102F064FF01280BD1FFE740F2A5
:104570000510C2F2000090F832104900013180F8B5
:10458000351009E040F20510C2F2000090F8351035
:10459000490080F83510FFE70420FDF781FBFFE7B5
:1045A000FCF7CCFDFDF794FBFCF7CEFFFCF7F2FB2C
:1045B00000F05FBD43F63C40C2F2000000680068B6
:1045C00044F64811C4F64701884209D0FFE743F694
:1045D000EB30C2F200004078FF2840F0D880FFE7BF
:1045E00041F20000C4F201004FF400512E902D91D1
:1045F00002F04CFE4FF400402E992C9008462C9966
:1046000002F044FE40F60040C4F2010002212B906B
:104610002A9102F03BFE4FF480502B9929900846D6
:10462000299902F033FE20202B99289008462899DA
:1046300002F02CFE4FF480402E99279008462799CF
:1046400002F024FE40F60000C4F201008021269012
:1046500002F01CFE01202B9925900846259902F0B6
:1046600015FE04202B9924900846249902F00EFE92
:104670002B982C9902F00AFE4FF480602699239023
:104680000846239902F002FE4FF480702B99229085
:104690000846229902F0FAFD4FF40071269802F0C4
:1046A000F5FD2698229902F0F1FD2B98279902F04A
:1046B000EDFD2B982D9902F0E9FD2698259902F041
:1046C000E5FD26982A9902F0E1FD2698249902F04A
:1046D000DDFD0821269802F0D9FD2698289902F0E0
:1046E000D5FD4021269802F0D1FD1021269802F038
:1046F000CDFD2B98239902F0C9FD4FF400602B9952
:1047000021900846219902F0C1FD2698299902F0CE
:10471000BDFD2698219902F0B9FD43F63C40C2F256
:1047200000000068006844F64811C4F6470188425A
:1047300020D1FFE740F20510C2F2000044F6470125
:10474000C0F60D21C0F83D1044F62001C4F24971B5
:10475000C0F83A1045F24701C4F64971C0F8361066
:1047600044F64141C2F24C01C0F832100F20FDF76F
:1047700097FA0AE040F20510C2F20000AC2180F87E
:1047800032100120FDF78CFAFFE700F071BC43F610
:104790003C40C2F20000006848F6D641C0F6000175
:1047A0000322FBF703FD002809D0FFE743F6EB30B7
:1047B000C2F200004078002840F0D680FFE741F2C6
:1047C0000000C4F201004FF4005120901F9102F04C
:1047D00055FD4FF4004020991E9008461E9902F0A6
:1047E0004DFD40F60040C4F2010002211D901C91D5
:1047F00002F044FD4FF480501D991B9008461B9910
:1048000002F03CFD20201D991A9008461A9902F0EA
:1048100035FD4FF48040209919900846199902F00F
:104820002DFD40F60000C4F201008021189002F036
:1048300025FD01201D9917900846179902F01EFDCD
:1048400004201D9916900846169902F017FD1D9830
:104850001E9902F013FD4FF48060189915900846D8
:10486000159902F00BFD4FF480701D9914900846C5
:10487000149902F003FD4FF40071189802F0FEFC49
:104880001898149902F0FAFC1D98199902F0F6FC98
:104890001D981F9902F0F2FC1898179902F0EEFC8F
:1048A00018981C9902F0EAFC1898169902F0E6FC98
:1048B0000821189802F0E2FC18981A9902F0DEFC20
:1048C0004021189802F0DAFC1021189802F0D6FC6A
:1048D0001D98159902F0D2FC4FF400601D991390B9
:1048E0000846139902F0CAFC18981B9902F0C6FCFE
:1048F0001898139902F0C2FC43F63C40C2F2000043
:10490000006848F6D641C0F600010322FBF74EFCD2
:1049100000281DD1FFE740F20510C2F2000040F66A
:104920000D21C18744F62041C5F24F71C0F83A10FD
:1049300045F24701C4F64971C0F8361044F64141CA
:10494000C2F24C01C0F832100E20FDF7A9F90AE0BE
:1049500040F20510C2F20000AC2180F832100120B4
:10496000FDF79EF9FFE782E343F63C40C2F2000008
:10497000006848F6B341C0F600010622FBF716FCBA
:10498000002809D0FFE743F6EB30C2F20000407880
:10499000CC2840F0BA81FFE743F63C40C2F2000069
:1049A000006848F6B341C0F600010622FBF7FEFBA3
:1049B000002840F0E180FFE748F68341C0F600019F
:1049C0000020FBF701FC43F63C41C2F20001086005
:1049D000086800F0C9FF43F6E031C2F20001086048
:1049E0000878C007002809D0FFE741F20000C4F2B0
:1049F00001004FF4804102F049FC08E041F2000060
:104A0000C4F201004FF4804102F038FCFFE743F6A6
:104A1000E030C2F2000000684008C007002808D05B
:104A2000FFE740F60000C4F20100802102F02EFCF6
:104A300007E040F60000C4F20100802102F01EFCF5
:104A4000FFE743F6E030C2F2000000688008C007CC
:104A5000002808D0FFE740F60040C4F20100012121
:104A600002F014FC07E040F60040C4F2010001210E
:104A700002F004FCFFE743F6E030C2F200000068F9
:104A8000C008C007002808D0FFE740F60040C4F285
:104A90000100042102F0FAFB07E040F60040C4F2F6
:104AA0000100042102F0EAFBFFE743F6E030C2F226
:104AB000000000680009C007002809D0FFE740F6A1
:104AC0000040C4F201004FF4004102F0DFFB08E0B7
:104AD00040F60040C4F201004FF4004102F0CEFB6A
:104AE000FFE743F6E030C2F2000000680009C007AB
:104AF000002809D0FFE740F60000C4F201004FF49F
:104B0000806102F0C3FB08E040F60000C4F201003F
:104B10004FF4806102F0B2FBFFE743F6E030C2F2EF
:104B2000000000680009C007002809D0FFE740F630
:104B30000040C4F201004FF4807102F0A7FB08E0CE
:104B400040F60040C4F201004FF4807102F096FB81
:104B5000FFE740F20510C2F20000323048F62B4168
:104B6000C0F6000114221292FBF70EFB129911906D
:104B70000846FDF795F8C7E043F6EB30C2F20000B7
:104B80008078C007002809D0FFE741F20000C4F296
:104B900001004FF4804102F079FB08E041F200008F
:104BA000C4F201004FF4804102F068FBFFE743F6D6
:104BB000EB30C2F2000080784008C007002808D01F
:104BC000FFE740F60000C4F20100802102F05EFB26
:104BD00007E040F60000C4F20100802102F04EFB25
:104BE000FFE743F6EB30C2F2000080788008C00790
:104BF000002808D0FFE740F60040C4F20100012180
:104C000002F044FB07E040F60040C4F2010001213D
:104C100002F034FBFFE743F6EB30C2F2000080788D
:104C2000C008C007002808D0FFE740F60040C4F2E3
:104C30000100042102F02AFB07E040F60040C4F224
:104C40000100042102F01AFBFFE743F6EB30C2F249
:104C5000000080780009C007002809D0FFE740F66F
:104C60000040C4F201004FF4004102F00FFB08E0E5
:104C700040F60040C4F201004FF4004102F0FEFA99
:104C8000FFE743F6EB30C2F2000080784009C0072E
:104C9000002809D0FFE740F60000C4F201004FF4FD
:104CA000806102F0F3FA08E040F60000C4F201006F
:104CB0004FF4806102F0E2FAFFE743F6EB30C2F214
:104CC000000080788009C007002809D0FFE740F67F
:104CD0000040C4F201004FF4807102F0D7FA08E0FE
:104CE00040F60040C4F201004FF4807102F0C6FAB1
:104CF000FFE740F20510C2F20000AC2180F832104C
:104D00000120FCF7CDFFFFE7B0E143F63C40C2F2E3
:104D10000000006848F6C241C0F600010722FBF718
:104D200045FA002808D0FFE743F6EB30C2F2000056
:104D30004078AA2867D1FFE743F63C40C2F2000062
:104D4000006848F6C241C0F600010722FBF72EFAC0
:104D5000002829D1FFE748F68340C0F60000002173
:104D600010900846109A0F911146FBF72DFA43F662
:104D70003C41C2F20001086008680E9100F01EFE7E
:104D800043F63A41C2F2000108800F981099FBF7F0
:104D90001BFA0E990860086800F010FE43F63841CF
:104DA000C2F20001088016E043F6EB30C2F20000C8
:104DB0008178C27842EA012143F63A42C2F2000207
:104DC00011800179407940EA012043F63841C2F26E
:104DD00000010880FFE743F63A40C2F20000008875
:104DE00041F2883188420DDCFFE743F6E530C2F23C
:104DF0000000012101701C2001F0D8F8322001F0E0
:104E0000F3F8FFE731E143F63C40C2F200000068EE
:104E100048F6D241C0F600010322FBF7C7F900288B
:104E200008D0FFE743F6EB30C2F200004078A0283C
:104E300030D1FFE7FBF768FE43F63C40C2F20000CA
:104E4000006848F6D241C0F600010322FBF7AEF934
:104E5000002813D1FFE740F20510C2F20000323003
:104E600048F64041C0F6000118220D92FBF78CF97C
:104E70000D990C900846FCF713FF0AE040F205106C
:104E8000C2F20000AC2180F832100120FCF708FFCC
:104E9000FFE7E9E043F63C40C2F20000006848F654
:104EA000AC41C0F600010622FBF780F9002808D0CB
:104EB000FFE743F6EB30C2F200004078A42836D179
:104EC000FFE7FCF73BF943F6E630C2F200000021B1
:104ED000017043F63C40C2F20000006848F6AC4165
:104EE000C0F600010622FBF761F9002813D1FFE7A5
:104EF00040F20510C2F20000323048F60B41C0F615
:104F000000011F220B92FBF73FF90B990A9008460C
:104F1000FCF7C6FE0AE040F20510C2F20000AC2128
:104F200080F832100120FCF7BBFEFFE79BE043F660
:104F30003C40C2F20000006848F68841C0F600011B
:104F40000722FBF733F9002808D0FFE743F6EB30E0
:104F5000C2F200004078852836D1FFE7FBF73AFF20
:104F600043F6E630C2F200000121017043F63C40F6
:104F7000C2F20000006848F68841C0F6000107222E
:104F8000FBF714F9002813D1FFE740F20510C2F235
:104F90000000323048F6EF31C0F600011B220992C2
:104FA000FBF7F2F8099908900846FCF779FE0AE049
:104FB00040F20510C2F20000AC2180F8321002204D
:104FC000FCF76EFEFFE74DE043F63C40C2F2000006
:104FD000006848F69041C0F600010722FBF7E6F8AA
:104FE000002808D0FFE743F6EB30C2F2000040781B
:104FF000582836D1FFE7FBF7C5FF43F6E630C2F28B
:1050000000000221017043F63C40C2F2000000683B
:1050100048F69041C0F600010722FBF7C7F80028C8
:1050200013D1FFE740F20510C2F20000323048F61B
:10503000EF31C0F600011B220792FBF7A5F8079994
:1050400006900846FCF72CFE0AE040F20510C2F27A
:105050000000AC2180F832100220FCF721FEFFE7AF
:10506000FFE7FFE7FFE7FFE7FFE7FFE7FFE7FFE710
:10507000FFE7FFE7E6E043F63C40C2F200000068CD
:10508000006844F25511C5F25241884208D0FFE74A
:1050900043F6EB30C2F200000078CA2861D1FFE786
:1050A00048F68341C0F600010020FBF78DF843F677
:1050B0003C41C2F2000108600868008844F654517F
:1050C000884208D0FFE743F6EB30C2F200000078D8
:1050D000CA2845D1FFE740F2BD00C2F2000043F20A
:1050E0003101C0F60D21016243F25131C3F23201A8
:1050F000C16142F24F01C5F24D01816144F2485154
:10510000C4F64C4141611020FCF706FA43F63C40DE
:10511000C2F200000068008844F65451884213D15E
:10512000FFE740F20510C2F20000323048F6594164
:10513000C0F6000115220592FBF726F805990490A8
:105140000846FCF7ADFD0AE040F20510C2F200008F
:10515000AC2180F832100120FCF7A2FDFFE7FFE749
:105160006FE043F63C40C2F20000006848F6BE41E2
:10517000C0F600010322FBF719F8002808D0FFE76A
:1051800043F6EB30C2F200000078C52858D1FFE7A3
:1051900048F68341C0F600010020FBF715F843F6FE
:1051A0003C41C2F2000108600868008844F654518E
:1051B000884208D0FFE743F6EB30C2F200000078E7
:1051C000C5283CD1FFE740F21400C2F2000055218F
:1051D000A0F8A010032180F8A4104D21C172502125
:1051E000017353214173FBF70DFA43F63C40C2F2C1
:1051F00000000068008844F65451884213D1FFE74C
:1052000040F20510C2F20000323048F66F41C0F69D
:10521000000113220392FAF7B7FF039902900846A0
:10522000FCF73EFD0AE040F20510C2F20000AC219E
:1052300080F832100120FCF733FDFFE7FFE7FFE7BE
:10524000FFE7FFE7FFE7FFE7FFE700208DF8CB016F
:10525000FFE79DF8CB0131280FDCFFE79DF8CB017C
:1052600040F20511C2F2000100220A54FFE79DF846
:10527000CB0101308DF8CB01EBE79DF8C901002887
:1052800004D0FFE71C2000F0AFFEFFE7FFE743F686
:10529000E630C2F20000007801460128019105D0F5
:1052A000FFE70198022800F07A81EAE240F6004028
:1052B000C4F201004FF4804102F0BAF8012809D18C
:1052C000FFE740F60000C4F201004FF4007101F066
:1052D000DDFF08E040F60000C4F201004FF4007169
:1052E00001F0CCFFFFE740F60040C4F201004FF4AC
:1052F000005102F09DF8012809D1FFE740F60000B7
:10530000C4F201004FF4807101F0C0FF08E040F6E4
:105310000000C4F201004FF4807101F0AFFFFFE71D
:1053200040F60000C4F20100012102F081F80128DA
:1053300009D1FFE741F20000C4F201004FF400512F
:1053400001F0A4FF08E041F20000C4F201004FF4B4
:10535000005101F093FFFFE740F60000C4F20100A6
:10536000022102F065F8012809D1FFE741F20000AF
:10537000C4F201004FF4004101F088FF08E041F25F
:105380000000C4F201004FF4004101F077FFFFE795
:1053900040F60000C4F20100042102F049F801289F
:1053A00008D1FFE740F60040C4F20100022101F0FD
:1053B0006DFF07E040F60040C4F20100022101F059
:1053C0005DFFFFE740F60000C4F20100082102F093
:1053D0002FF8012809D1FFE740F60040C4F2010090
:1053E0004FF4805101F052FF08E040F60040C4F253
:1053F00001004FF4805101F041FFFFE740F600004B
:10540000C4F20100202102F013F8012808D1FFE7BF
:1054100040F60040C4F20100202101F037FF07E010
:1054200040F60040C4F20100202101F027FFFFE711
:1054300040F60000C4F20100402101F0F9FF01280C
:1054400009D1FFE741F20000C4F201004FF48041AE
:1054500001F01CFF08E041F20000C4F201004FF42B
:10546000804101F00BFFFFE740F60000C4F20100AD
:10547000102101F0DDFF012809D1FFE740F60040CF
:10548000C4F201004FF4807101F000FF08E040F623
:105490000040C4F201004FF4807101F0EFFEFFE71D
:1054A00040F60040C4F201004FF4806101F0C0FFFB
:1054B000012808D1FFE740F60000C4F20100802176
:1054C00001F0E4FE07E040F60000C4F20100802194
:1054D00001F0D4FEFFE740F60040C4F201004FF4B3
:1054E000006101F0A5FF012808D1FFE740F6004068
:1054F000C4F20100012101F0C9FE07E040F60040BE
:10550000C4F20100012101F0B9FEFFE740F60000FE
:10551000C4F201004FF4805101F08AFF012808D144
:10552000FFE740F60040C4F20100042101F0AEFEA6
:1055300007E040F60040C4F20100042101F09EFEA5
:10554000FFE740F60000C4F201004FF4006101F0F3
:105550006FFF012811D1FFE740F60000C4F20100FF
:105560004FF4806101F092FE40F60040C4F2010069
:105570004FF4004101F08AFE10E040F60040C4F212
:1055800001004FF4004101F079FE40F60000C4F242
:1055900001004FF4806101F071FEFFE772E140F617
:1055A0000000C4F201004FF4007101F041FF012836
:1055B00009D1FFE740F60040C4F201004FF48041FA
:1055C00001F064FE08E040F60040C4F201004FF430
:1055D000804101F053FEFFE740F60000C4F20100F5
:1055E0004FF4807101F024FF012809D1FFE740F654
:1055F0000040C4F201004FF4005101F047FE08E002
:1056000040F60040C4F201004FF4005101F036FEB4
:10561000FFE741F20000C4F201004FF4005101F035
:1056200007FF012808D1FFE740F60000C4F201009F
:10563000012101F02BFE07E040F60000C4F201005A
:10564000012101F01BFEFFE741F20000C4F201005E
:105650004FF4004101F0ECFE012808D1FFE740F6CD
:105660000000C4F20100022101F010FE07E040F644
:105670000000C4F20100022101F000FEFFE740F645
:105680000040C4F20100022101F0D2FE012808D13D
:10569000FFE740F60000C4F20100042101F0F6FD2E
:1056A00007E040F60000C4F20100042101F0E6FD2D
:1056B000FFE740F60040C4F201004FF4805101F0D2
:1056C000B7FE012808D1FFE740F60000C4F2010050
:1056D000082101F0DBFD07E040F60000C4F2010004
:1056E000082101F0CBFDFFE740F60040C4F20100C5
:1056F000202101F09DFE012808D1FFE740F60000BF
:10570000C4F20100202101F0C1FD07E040F60000D5
:10571000C4F20100202101F0B1FDFFE741F20000D9
:10572000C4F201004FF4804101F082FE012808D14B
:10573000FFE740F60000C4F20100402101F0A6FDA1
:1057400007E040F60000C4F20100402101F096FDA0
:10575000FFE740F60040C4F201004FF4807101F011
:1057600067FE012808D1FFE740F60000C4F20100FF
:10577000102101F08BFD07E040F60000C4F20100AB
:10578000102101F07BFDFFE740F60000C4F20100AC
:10579000802101F04DFE012809D1FFE740F60040CD
:1057A000C4F201004FF4806101F070FD08E040F6A2
:1057B0000040C4F201004FF4806101F05FFDFFE79B
:1057C00040F60040C4F20100012101F031FE012841
:1057D00009D1FFE740F60040C4F201004FF4006138
:1057E00001F054FD08E040F60040C4F201004FF41F
:1057F000006101F043FDFFE740F60040C4F2010004
:10580000042101F015FE012809D1FFE740F6000050
:10581000C4F201004FF4805101F038FD08E040F679
:105820000000C4F201004FF4805101F027FDFFE7B2
:1058300040F60040C4F201004FF4004101F0F8FDD1
:10584000012814D1FFE740F60000C4F201004FF434
:10585000806101F0EDFD012809D1FFE740F600006D
:10586000C4F201004FF4006101F010FD08E040F6C1
:105870000000C4F201004FF4006101F0FFFCFFE7FB
:1058800000E0FFE773B0BDE8F08F000080B59CB08A
:10589000FBF754FCFCF71CFAFBF756FEFBF77AFA11
:1058A0004FF4E1301690002117911891199140F2B0
:1058B0000512C2F2000202F132031A931B9216ABD8
:1058C0000690184605910492FCF730F920200499BF
:1058D00081F832000122039010460292FCF7E0F9B1
:1058E00006981090059911911291139140F2BD0202
:1058F000C2F2000202F114031493159210A801924F
:10590000FBF766FD0398019908750298FBF704FE02
:1059100005980C900D900F9009900E9040F2EA01BE
:10592000C2F20001CA1D0A9205310B9109A8FBF7CA
:105930002BFE4FF4FA70079005988DF821008DF832
:10594000200007A8FBF7B8F9FAF732FF42F6DF604C
:10595000FBF758FF0E20FCF725F840F6B730FBF7B1
:10596000E9FF1CB080BD000083B0029000200190D0
:105970008DF80300FFE702989DF80310405C0021BA
:105980002F280A46C8BF01223A28B8BF01210A427F
:1059900011D0FFE701984000019002989DF8031094
:1059A000405C01990844303801909DF803000130B3
:1059B0008DF80300DFE7019803B0704782B00190D3
:1059C0000020ADF80200ADF80000FFE70198BDF837
:1059D0000010405C00212F280A46C8BF01223A2847
:1059E000B8BF01210A4217D0FFE7BDF8020000EB63
:1059F00080004000ADF802000198BDF80010405C46
:105A0000BDF8021008443038ADF80200BDF80000BF
:105A10000130ADF80000D9E7BDF8020002B07047D0
:105A200080B582B0009000980138B0F1807F03D338
:105A3000FFE70120019019E0009801384EF21401AF
:105A4000CEF2000108604FF0FF300F2100F0E6FABF
:105A50004EF21800CEF20000002101604EF210005C
:105A6000CEF20000072202600191FFE7019802B028
:105A700080BD000080B543F64440C2F200000168DA
:105A800001310160006842F64701CBF2A37148433F
:105A90004FEA30104EF63341C0F20A01884226D850
:105AA000FFE743F6D130C2F200000178B1FA81F18C
:105AB000490901700078002809D0FFE740F600404E
:105AC000C4F201004FF4007101F0E0FB0EE040F67B
:105AD0000040C4F201004FF4007101F0CFFB43F627
