:020000040800F2
:1000000050400020650100086D0100086F010008E4
:10001000710100087301000875010008000000006C
:100020000000000000000000000000007701000850
:1000300079010008000000007B010008494B00081E
:100040007F0100087F0100087F0100087F01000890
:100050007F0100087F0100087F0100087F01000880
:100060007F0100087F0100087F0100087F01000870
:100070007F0100087F0100087F0100087F01000860
:100080007F0100087F0100087F0100087F01000850
:100090007F0100087F0100087F0100087F01000840
:1000A0007F0100083D4C00087F0100087F01000827
:1000B000654C00087F0100087F0100087F010008EF
:1000C0007F0100087F0100087F0100087F01000810
:1000D0007F0100087F0100087F0100087F01000800
:1000E0007F0100087F0100087F0100087F010008F0
:1000F0007F0100087F0100087F0100080000000068
:100100007F010008000000001D4D00087F0100086D
:100110007F0100087F0100087F0100087F010008BF
:100120007F0100087F0100087F0100087F010008AF
:100130007F01000800000000000000007F010008AF
:100140007F0100087F0100087F0100087F0100088F
:10015000DFF80CD000F028FA0048004719660008C4
:10016000504000200648804706480047FEE7FEE76B
:10017000FEE7FEE7FEE7FEE7FEE7FEE7FEE7FEE757
:10018000C94B00085101000840EA01039B0703D056
:1001900009E008C9121F08C0042AFAD203E011F8C6
:1001A000013B00F8013B521EF9D2704730B50446BE
:1001B0000020034600E05B1C934203D2E05CCD5C70
:1001C000401BF8D030BD000070B50F4D00B9286855
:1001D000002412E00A4602E09E4203D0521C13782B
:1001E000002BF9D1DAB2224305D02BB124B1002182
:1001F00000F8011B04E00446401C0678002EE9D1FB
:100200002860204670BD0000000000202DE9FE4F50
:10021000804681EA0300C00F0C46009021F00041A7
:1002200023F00045B8EB0200A94105D24046214623
:1002300090461C460B46024623F00040104347D030
:10024000270DC7F30A00C3F30A510290401A019028
:1002500040286BDAC3F3130040F4801B00989246E9
:1002600020B10023D2EB030A63EB0B0B0198594634
:10027000C0F14002504600F009F906460D465046CE
:100280005946019A00F021F910EB08006141002461
:1002900087EA115284EAE7731A4340D0009A62B3A6
:1002A000019A012A4FEA075215DC001B61EB02019B
:1002B0004FF0004202EA0752CDE90042001C41F52E
:1002C000801132462B4600F021F903B0BDE8F08FD3
:1002D00040462146F9E7001B61EB0201001C41F595
:1002E000801300185B412018A2F5001747EB0301AB
:1002F00040EAD570B6196D4111E06D084FEA360637
:1003000045EAC0754FEA0752001B61EB0201001C71
:1003100041F5801149084FEA300000195141324639
:100320002B4603B0BDE8F04F00F0E1B80098012281
:1003300040000023D0EB020263EBE07300982146FB
:100340004FEAE074B8EB000061EB0401E9E783F0E9
:1003500000435BE781F0004158E72DE9F04D81EA69
:10036000030404F0004B21F0004514464FF0000A4E
:1003700023F0004150EA050220D054EA01021DD0CA
:10038000C5F30A570246C5F31303C1F31300C1F3C3
:100390000A5640F4801543F48013A7EB0608101B9F
:1003A000D64608F2FD3873EB050002D308F10108C8
:1003B00001E092185B41B8F1000F03DA002001461A
:1003C000BDE8F08D00204FF48011064684460EE013
:1003D000171B73EB050705D3121B63EB05030643DD
:1003E0004CEA010C49084FEA300092185B4150EA90
:1003F0000107EDD152EA030012D082EA040083EA39
:100400000501084305D0101BAB4106D20122002391
:1004100006E000224FF0004302E06FF001025310AB
:100420001AEB06004CEB085110EB0A0041EB0B01F4
:10043000BDE8F04D00F05BB80EB5C10F80EAE0708A
:100440000844CA07002140F233438DE80E000A46F3
:100450000B4600F05BF803B000BDC1F30A5210B5C3
:10046000C1F3130140F2FF3341F480119A4201DAE3
:10047000002010BD40F233439A42A2F2334203DC23
:10048000524200F012F810BD904010BD202A04DB4B
:10049000203A00FA02F1002070479140C2F1200397
:1004A00020FA03F3194390407047202A04DB203AD6
:1004B00021FA02F00021704721FA02F3D040C2F184
:1004C00020029140084319467047202A06DBCB17CB
:1004D000203A41FA02F043EAE07306E041FA02F3FF
:1004E000D040C2F12002914008431946704710B530
:1004F000141E73F1000408DA401C41F10001921847
:100500005B411A4301D120F0010010BD2DE9F04DEF
:1005100092469B4611B1B1FA81F202E0B0FA80F244
:1005200020329046FFF7B2FF04460F4640EA0A0029
:1005300041EA0B0153465A46084313D0114653EA89
:10054000010019D0C8F140025046FFF7AEFF054642
:100550000E46504659464246FFF798FF084305D0DD
:10056000012004E020463946BDE8F08D0020054317
:1005700046EAE0762C4337430A986305E40AA0EB89
:1005800008000022FD0A44EA47540A3002D5002040
:100590000146E9E7010510196941DDE9084500193F
:1005A0006941BDE8F04DA2E7064C074D06E0E06862
:1005B00040F0010394E8070098471034AC42F6D3AA
:1005C000FFF7CAFDEC7D00080C7E000880B542F202
:1005D0000040C4F20100012104F070FFFFE7002099
:1005E000C4F202000021022205F08AFD002801D198
:1005F000FFE7F4E70020C4F202000021022205F028
:100600006DFD80BD80B582B001900198B0F8A0105A
:1006100001600198002141600198017201984172C6
:10062000019890F8A4108172019946F20040C4F23A
:10063000000005F0F1F943F6EA31C2F2000108705A
:10064000087801460028009108D0FFE700980128AB
:100650000CD0FFE70098022810D017E043F6D43002
:10066000C2F200004FF40071016017E043F6D4308D
:10067000C2F200004FF4027101600FE043F6D43083
:10068000C2F200004FF40471016007E043F6D43079
:10069000C2F200004FF400710160FFE7FFE743F68C
:1006A000D430C2F20000018846F20040C4F20000DB
:1006B00005F062F8012801D1FFE7F0E743F6D430F6
:1006C000C2F20000018846F20040C4F2000005F0CA
:1006D0003DF802B080BD000070B582B013468C4674
:1006E00001908DF80310ADF80020BDF8000044F62D
:1006F000D351C1F26201A0FB0101890946F2676290
:10070000C6F2666251FB02FE4FEA9E0404EBDE7EF7
:100710000EEB8E0EA1EB4E013031DDF804E09DF8BA
:1007200003400EF80410BDF8001048F21F5EC5F239
:10073000EB1EA1FB0E1E4FEA5E1E5EFB02F4A50837
:1007400005EBD47404EB8404AEEB440E0EF1300ED2
:10075000019C9DF803502C4484F801E0BDF800E0B2
:100760004CF6CD44CCF6CC44AEFB04E5ED0855FB8D
:1007700002F2960806EBD27202EB8202A5EB42026D
:100780003032019D9DF803603544AA70BDF8002009
:10079000A2FB0445ED0805EB8505A2EB450242F0FE
:1007A0003002019D9DF803603544EA7002B070BDCF
:1007B00080B590B000208DF83E0040F20801C2F2F2
:1007C00000010B9101218DF83D104FF400620C9255
:1007D00042F24C42C4F2010209928DF83C004FF4FF
:1007E00000720A9203220D924FF440530E9300239D
:1007F000C4F202030DF1240C08901846DDF820E045
:100800000791714606926246059305F095FC05989E
:10081000089905F045FC0598089905F005FC4FF48A
:10082000C02004F06DFD42F20040C4F201004FF41C
:10083000807104900391079A04F060FE02200499ED
:10084000029008460299089A04F058FE0498089904
:1008500004F0BAFC0498089904F01CFE0498079967
:10086000069A04F079FC42F60000C4F201000190FF
:100870000399079A04F042FE01980299089A04F03D
:100880003DFE0198089904F09FFC0198089904F036
:1008900001FE01980799069A04F05EFC4FF460206F
:1008A0000499009008460799009A04F0FFFC049808
:1008B0000799079A04F0B8FC01980799009A04F088
:1008C000F5FC01980799079A04F0AEFC0498089982
:1008D000089A089B04F024FD04980799029A089B43
:1008E00004F01EFD052204980299089B04F018FDEF
:1008F00001980899079A089B04F012FD019807993E
:10090000069A089B04F00CFD062201980299089BA8
:1009100004F006FD049804F077FC049804F0FEFB54
:10092000019804F071FC019804F0F8FB049804F0BD
:1009300061FC47F20040C4F20000016841F001018F
:10094000016008980899089A05F066FA089805F079
:10095000BDFA10B080BD000080B58EB041F200003D
:10096000C4F2010004214FF400520D900C910C9B35
:100970000B921A460B9B05F0EFFC4FF400400D99CB
:100980000A9008460C990C9A0A9B05F0E5FC40F683
:100990000040C4F20100022109900C9A089111460E
:1009A000089B05F0D9FC4FF4805009990790084640
:1009B0000C990C9A079B05F0CFFC20200999069012
:1009C00008460C990C9A069B05F0C6FC4FF4804033
:1009D0000D99059008460C990C9A059B05F0BCFCF6
:1009E00040F60000C4F20100802304900C990C9A98
:1009F00005F0B2FC01200999039008460C990C9A65
:100A0000039B05F0A9FC09980C990C9A0C9B05F026
:100A1000A3FC09980C990C9A0A9B05F09DFC4FF4D5
:100A200080600499029008460C990C9A029B05F08C
:100A300093FC4FF480700999019008460C990C9A28
:100A4000019B05F089FC4FF4007304980C990C9AF3
:100A500005F082FC04980C990C9A019B05F07CFC33
:100A600009980C990C9A059B05F076FC09980C994D
:100A70000C9A0B9B05F070FC04980C990C9A039B44
:100A800005F06AFC04980C990C9A089B05F064FC2C
:100A900004980C990C9A0C9B05F05EFC08230498B2
:100AA0000C990C9A05F058FC04980C990C9A069B2A
:100AB00005F052FC402304980C990C9A05F04CFC6C
:100AC000102304980C990C9A05F046FC09980C998F
:100AD0000C9A029B05F040FC4FF4006009990090CD
:100AE00008460C990C9A009B05F036FC04980C996A
:100AF0000C9A079B05F030FC04980C990C9A009B0B
:100B000005F02AFC0EB080BD80B58CB00B9040F291
:100B1000197006F041F846F20040C4F2000001905E
:100B200004F044FD00208DF821008DF823008DF89D
:100B300022008DF824008DF81D0004218DF81E1070
:100B400002218DF81F108DF820008DF825000B98DC
:100B500000798DF81C0007A9019804F06DFE0B992F
:100B60000968FA2900910AD0FFE70098B0F5FA7FEA
:100B700005D0FFE70098B0F57A7F0CD1FFE70B981E
:100B800000684FF47A71414346F20040C4F200001D
:100B900004F012FE0AE046F20040C4F200004EF6F5
:100BA0004801C0F2010104F007FEFFE70020ADF8A4
:100BB0001200ADF814000121ADF81610ADF80800D0
:100BC000ADF80A00ADF80C00ADF80E000B984079B6
:100BD000ADF810008DF8181002A804F007FD0CB055
:100BE00080BD000080B582B04FF4C06005F0D4FF36
:100BF00040F2026005F0D0FF40F60000C4F20100B0
:100C0000482103224FF400630190009205F0A4FBF9
:100C100018214FF480530198009A05F09DFB02B013
:100C200080BD000080B592B040F2026005F0B4FFD4
:100C300040F2036005F0B0FF40F2046005F0ACFF45
:100C400040F2096005F0A8FF40F20A6005F0A4FF39
:100C50004FF4A06005F0A0FF40F21D7005F09CFF6E
:100C60004FF4C06005F098FF40F60040C4F2010068
:100C7000102104224FF40073119010910F920E93E3
:100C800005F06AFB40F60000C4F2010028214FF491
:100C900000520D900C910F9B0B921A460B9B05F086
:100CA0005BFB4FF480400D990A9008460C990F9A0F
:100CB0000A9B05F051FB4FF400400D99099008463E
:100CC0000C990F9A099B05F047FB08201199089091
:100CD00008460C990F9A089B05F03EFB11980C9959
:100CE0000F9A109B05F038FB41F20000C4F201009E
:100CF00007900F990F9A0B9B05F02EFB07980F9901
:100D00000F9A099B05F028FB0220119906900846CE
:100D10000F990F9A069B05F01FFB4FF48053119813
:100D20000F990F9A05F018FB20201199059008469D
:100D30000F990F9A059B05F00FFB079810990F9AD2
:100D40000A9B05F009FB80230D9810990F9A05F076
:100D500003FB012011990490084610990F9A049BF7
:100D600005F0FAFA119810990F9A0F9B05F0F4FA12
:100D7000119810990F9A099B05F0EEFA4FF48063D1
:100D80000D9810990F9A05F0E7FA4FF480701199B9
:100D90000390084610990F9A039B05F0DDFA18207E
:100DA0000D990290084602990F9A0E9B05F0D4FA0D
:100DB0000D9802990F9A039B05F0CEFA11980299AB
:100DC0000F9A0A9B05F0C8FA119802990F9A0B9B8B
:100DD00005F0C2FA00200D990190084601990F9A7A
:100DE000049B05F0B9FA0D9801990F9A069B05F03E
:100DF000B3FA0D9801990F9A0F9B05F0ADFA0D9873
:100E000001990F9A089B05F0A7FA0D9801990F9A7E
:100E1000059B05F0A1FA40230D9801990F9A05F062
:100E20009BFA03220D980199109B05F095FA12B0D8
:100E300080BD000080B586B001468DF81700002007
:100E4000C4F202000122022304900391114602928F
:100E50001A4605F043F90498029905F0C7F89DF881
:100E600017200498029905F02DFA44F60000C4F208
:100E70000000802106F006FE0498029905F0D4F8DF
:100E8000FFE744F60000C4F20000062106F030FE41
:100E9000002802D1FFE700BFF3E744F60000C4F2E8
:100EA00000000621019006F00DFE0021019806F0D9
:100EB000E9FD06B080BD000010B590B00F904FF472
:100EC000A06005F069FE40F2127005F065FE40F288
:100ED000065005F061FE00208DF83A000F9949692F
:100EE0000A9101218DF839100B9044F60402C4F2E6
:100EF000000208928DF8380009900C904FF440538E
:100F00000D9340F2000CC4F2020C4FF0020E08AC3C
:100F10000790604606917146059222460493CDF8EB
:100F20000CC0CDF808E0019405F006F90398029989
:100F300005F0B6F80398029905F076F806988DF852
:100F40003A000F9909690A918DF8390007990B91B8
:100F5000059A08928DF8381009910C91049B0D9315
:100F600003980699019A05F0E7F80398069905F0A9
:100F700079F80398069905F057F844F60000C4F292
:100F80000000009006F00CFD0F980168009806F034
:100F900089FC0F984168009806F0F6FD0F98C1682B
:100FA000009806F05DFE0F988168009806F032FE0A
:100FB0000098079906F0DCFC0098079906F0CEFD32
:100FC0000098079906F0B4FD009806F003FE322160
:100FD000009806F00BFE4021009806F03DFD8021B0
:100FE000009806F04FFD0821009806F023FE04212A
:100FF000009806F0D9FD009806F05AFD10B010BD1B
:1010000080B582B001468DF80700FFE744F6000086
:10101000C4F2000042F2102106F06AFD002801D05F
:10102000FFE7F3E79DF80700FFF704FF02B080BD7C
:1010300080B582B04FF4C06005F0AEFD40F20360B1
:1010400005F0AAFD40F60040C4F201001821032279
:101050004FF480630190009205F07EF904214FF473
:1010600000630198009A05F077F902B080BD000096
:1010700010B598B0179040F2015005F08DFD40F288
:101080000F7005F089FD00208DF85A0017998968C6
:10109000129101218DF85910139043F60C42C4F2BD
:1010A000000210928DF85800119014904FF44053A4
:1010B000159340F2004CC4F2020C0DF1400E089062
:1010C0006046089C07912146069272460593CDF82A
:1010D00010C0CDF80CE005F02FF80498089904F042
:1010E000DFFF0498089904F09FFF07988DF85A00D5
:1010F0001799496812918DF8590008991391069A29
:1011000010928DF8581011911491059B1593049825
:101110000799039A05F010F843F60040C4F2000066
:10112000029005F0BBFD09A8019005F055FE179847
:10113000C068099008980A90179909680B910C905B
:10114000179989690D91179949690E91179909693C
:101150000F910298019905F0F1FD029805F032FE19
:10116000029805F025FE029805F08EFD18B010BD1E
:1011700080B584B001468DF80F0040F20040C4F203
:1011800002000022029001911146009204F02EFF0D
:101190009DF80F200298009905F094F843F600405E
:1011A000C4F20000012105F057FD0298009904F0F7
:1011B0003BFF04B080BD000080B584B001468DF8CF
:1011C0000F0040F20040C4F202000122029001919F
:1011D0001146009204F00AFF9DF80F200298009932
:1011E00005F070F843F60040C4F20000002105F05D
:1011F00033FD0298009904F017FFFFE740F200402A
:10120000C4F202000121022204F07AFF002801D179
:10121000FFE7F3E740F20040C4F20200012102229E
:1012200004F05CFF43F60040C4F20000002105F02A
:10123000FBFC04B080BD000080B50220FFF798FFE2
:1012400080BD000080B582B001468DF80700FFE741
:1012500043F60040C4F20000022105F059FD0028C9
:1012600001D1FFE7F4E79DF80700FFF7A5FF02B003
:1012700080BD000080B584B04FF4C06005F08CFCE8
:1012800040F2036005F088FC40F2026005F084FC47
:1012900040F60040C4F201001821032210230390FD
:1012A000029205F059F80420202303990190084682
:1012B0000199029A05F050F8082303980199029ABF
:1012C00005F04AF840F60000C4F201004FF4004374
:1012D0000199029A05F040F840F20020C0F2300077
:1012E000012105F019F904B080BD000080B592B06D
:1012F000119011981090119840080F9040F20B60D7
:1013000005F04AFC42F60040C4F20100039006F0EA
:10131000E7F810980D900020ADF82C00ADF83800DB
:10132000ADF82E00ADF83000FF218DF83A100BA972
:10133000039A0290104606F0D3F90120ADF8200080
:101340000421ADF822100299ADF82410ADF8261052
:10135000ADF82810ADF82A1008AA039B0190184692
:10136000009205F05BFE03980199009A05F056FE85
:1013700003980299029A06F06FF803980299029A6C
:1013800005F00CFE03980199029A06F065F803989F
:101390000199029A05F002FE0F9A0398029905F04E
:1013A000EFFF60220398029905F0A2FF03980299CB
:1013B000029A06F009F80F9A0398019905F0E0FFE8
:1013C00070220398019905F093FF03980199029AFE
:1013D00005F0FAFF1520ADF814000298ADF81600DC
:1013E000ADF81000ADF812004FF48041ADF81810C0
:1013F000ADF81A00ADF81C0004A9039805F0B8FD7B
:1014000019200221029A05F011FA0398019906F0B9
:10141000FDF9039806F05AF912B080BD80B58AB084
:101420000990099808904FF4E06005F0B5FB4FF083
:101430008040039006F054F8089806900020ADF81C
:101440001000ADF81C00ADF81200ADF814008DF8D6
:101450001E0004A9039A0290104606F041F91C20D0
:1014600001210191029A05F0E1F90398019906F032
:10147000CDF90398019906F0FDF9039805F06EFD8A
:10148000039806F023F90AB080BD000080B590B043
:101490000F900F980E900F9840080D9040F2037037
:1014A00005F07AFB40F60040C4F20000019006F01F
:1014B00017F80E980B900020ADF82400ADF830001E
:1014C000ADF82600ADF82800FF208DF8320009A9FC
:1014D000019806F005F90121019806F097F93220EC
:1014E00003F0C2FD019806F0F1F810B080BD0000D5
:1014F00080B586B001468DF817000020C4F20200C6
:101500000422049003911146029204F06FFD9DF8AD
:1015100017200498029904F0D5FE43F60000C4F2A7
:101520000100402106F098FA0498029904F07CFD2D
:10153000FFE70020C4F202000421022204F0E0FDD3
:101540000021002801910DD1FFE743F60000C4F20D
:10155000010042F20B2106F0CBFAB0FA80F040090C
:101560000190FFE70198C007002802D0FFE700BF05
:10157000DFE743F60000C4F2010042F20B210090C5
:1015800006F0A0FA0021009806F066FA06B080BDC9
:1015900080B586B00146ADF816000020C4F2020006
:1015A0000322022304900391114602921A4604F08A
:1015B00095FD0498029904F019FDBDF816200498D1
:1015C000029904F07FFE43F60000C4F2010080217E
:1015D00006F058FA0498029904F026FDFFE743F656
:1015E0000000C4F20100062106F082FA002802D1B0
:1015F000FFE700BFF3E743F60000C4F20100062155
:10160000019006F05FFA0021019806F03BFA06B05F
:1016100080BD000010B592B011904FF4A06005F0AD
:10162000BBFA40F20E6005F0B7FA40F2065005F042
:10163000B3FA00208DF84200119949690C910121FB
:101640008DF841100D9043F60402C4F201020A9293
:101650008DF840000B900E904FF440530F9340F2E2
:10166000000CC4F2020C4FF0040E0AAC0990604664
:1016700008917146079222460693CDF814C0CDF822
:1016800010E0039404F058FD0598049904F008FD57
:101690000598049904F0C8FC08988DF84200119947
:1016A00009690C918DF8410009990D91079A0A92E8
:1016B0008DF840100B910E91069B0F934FF0030C89
:1016C00005986146039ACDF808C004F035FD0598E9
:1016D000029904F0C7FC0598029904F0A5FC43F6B2
:1016E0000000C4F20100019006F05AF91198016857
:1016F000019806F0D7F811984168019806F044FA6D
:101700001198C168019806F0ABFA119881680198A8
:1017100006F080FA0198099906F02AF901980999CA
:1017200006F01CFA0198099906F002FA14210198B2
:1017300006F05CFA019806F04DFA4021019806F097
:101740008BF98021019806F09DF90821019806F097
:1017500071FA0198049906F027FA019806F0A8F9A1
:1017600012B010BD80B5FFE743F60000C4F20100DF
:1017700042F2102106F0BCF9002801D0FFE7F3E7A0
:101780003220FFF7B5FE80BD80B582B00146ADF8CE
:101790000600FFE743F60000C4F2010042F2102108
:1017A00006F0A6F9002801D0FFE7F3E7BDF8060030
:1017B000FFF7EEFE02B080BD80B582B04FF4C0608E
:1017C00005F0EAF940F2036005F0E6F90420C4F2FE
:1017D0000100016841F00401016040F60040C4F2DC
:1017E00001001821032240230190009204F0B4FD6F
:1017F000042180230198009A04F0AEFD02B080BD60
:101800002DE9F04FD5B000208DF853018DF852012D
:1018100001218DF85111ADF84E0140F20510C2F2D0
:10182000000042F24371405C002803F09680FFE71D
:1018300040F20510C2F2000042F24371002242540D
:101840001C215290084603F00FFC43F6EB30C2F225
:101850000000322251905299FEF796FC47F6F5416E
:10186000C0F60001519A50901046FEF7ADFC43F6C9
:101870003C41C2F200010860086847F61551C0F605
:1018800000010322FEF792FC002809D0FFE743F68F
:10189000EB30C2F200000078102840F00983FFE727
:1018A00047F6F541C0F600010020FEF78DFC43F637
:1018B0003C41C2F2000108600868008844F64F61AC
:1018C000884208D0FFE743F6EB30C2F200004078D0
:1018D00005284ED1FFE742F60040C4F20100002186
:1018E00001224F904E914D9205F0B6FD04204F9984
:1018F0004C9008464E994C9A05F050FB4F984D99E4
:101900004D9A05F0A9FD4F984D994C9A05F046FB6C
:1019100043F63C40C2F200000068008844F64F6184
:1019200088421AD1FFE740F20510C2F2000045F2EA
:101930005241C0F60D21C0F8391045F25341C5F2AD
:101940004121C0F8361045F25071C2F24D01C0F885
:1019500032100B20FFF718FF0AE040F20510C2F228
:101960000000AC2180F832100120FFF70DFFFFE7E7
:101970009CE243F63C40C2F20000006847F6025188
:10198000C0F600010322FEF711FC002808D0FFE793
:1019900043F6EB30C2F2000040780A284ED1FFE750
:1019A00042F60040C4F2010000214B904A914A9A4D
:1019B00005F052FD4B984A994A9A05F0EFFA01203A
:1019C0004B994990084649994A9A05F045FD4B982C
:1019D00049994A9A05F0E2FA43F63C40C2F2000007
:1019E000006847F60251C0F600010322FEF7DEFB55
:1019F000002817D1FFE740F20510C2F2000040F6C0
:101A00000D21418745F25341C5F24F01C0F8361010
:101A100045F25071C2F24D01C0F832100A20FFF7B2
:101A2000B3FE0AE040F20510C2F20000AC2180F8DB
:101A300032100120FFF7A8FEFFE736E243F63C40F4
:101A4000C2F200000068006845F24621C5F2451167
:101A5000884209D0FFE743F6EB30C2F2000040783D
:101A6000FC2840F0D880FFE743F63C40C2F200007B
:101A70000068006845F24621C5F24511884269D1E7
:101A8000FFE747F6F541C0F6000100204890FEF759
:101A90009BFB43F63C41C2F200010860086802F07B
:101AA000F7FFFEF7C9FC41EC100B9FEDD91B51EC81
:101AB000110B53EC102BFEF750FC41EC100B51ECCA
:101AC000100B9FEDD50B53EC102BFEF79FFB41EC59
:101AD000100B51EC100BFEF7C0FCFFF707FC42F6B1
:101AE0000040C4F2010001214790489A46911146F6
:101AF000469A05F0B1FC042047994590084648995C
:101B0000459A05F04BFA47984699469A05F0A4FC89
:101B100047984699459A05F041FA40F20510C2F2FD
:101B2000000040F60D21C18745F24141C4F2454114
:101B3000C0F83A1045F22051C4F25041C0F83610B6
:101B400045F24621C5F24511C0F832100E20FFF7CC
:101B50001BFE5FE043F6EB30C2F200008178C078F4
:101B6000090244900846FEF767FC41EC100B9FED1C
:101B7000A81B51EC110B53EC102BFEF7EEFB41ECC4
:101B8000100B44988DED420BFEF756FC41EC100B08
:101B90009DED421B51EC110B53EC102BFEF736FB65
:101BA00041EC100B51EC100B9FED9B0B53EC102BE9
:101BB000FEF72CFB41EC100B51EC100BFEF74DFC2B
:101BC000FFF794FB42F60040C4F20100002101221D
:101BD000419040913F9205F03FFC042041993E9096
:101BE000084640993E9A05F0D9F941983F993F9AA5
:101BF00005F032FC41983F993E9A05F0CFF940F24A
:101C00000510C2F20000AC2180F832103F98FFF7B7
:101C1000BBFDFFE748E143F63C40C2F2000000682C
:101C2000008845F24441884208D0FFE743F6EB3094
:101C3000C2F200004078D1285FD1FFE743F63C4074
:101C4000C2F200000068008845F24441884238D161
:101C5000FFE747F6F541C0F600010020FEF7B4FAB1
:101C600043F63C41C2F20001086042F64440C4F22F
:101C70000100026822F0FF02026009683D900846F8
:101C800002F006FFC0B23D990A681043086040F2B6
:101C90000510C2F2000044F24542C0F60D22C0F821
:101CA0003A2044F25042C5F24142C0F8362045F293
:101CB0004442C5F22052C0F832200C20FFF764FDE8
:101CC0001AE042F64440C4F20100016821F0FF012D
:101CD000016043F6EB31C2F20001897802681143DA
:101CE000016040F20510C2F20000AC2180F8321011
:101CF0000120FFF749FDFFE7D5E043F63C40C2F283
:101D000000000068008844F24431884209D0FFE7AF
:101D100043F6EB30C2F200004078DC2840F0C2808D
:101D2000FFE743F63C40C2F200000068008844F23E
:101D30004431884276D1FFE747F6F541C0F600010D
:101D40000020FEF741FA43F63C41C2F20001086070
:101D500042F62C40C4F2010090ED000AB8EE400AB1
:101D60000A683C9010463B918DED3A0A02F090FED5
:101D700000EE100AB8EEC00A9FED291A80EE010AA3
:101D80009DED3A2A22EE000ABCEEC00A42F634402B
:101D9000C4F2010080ED000A3C9890ED000AB8EE14
:101DA000400A3B9908688DED391A8DED380A02F02A
:101DB0006FFE00EE100AB8EEC00A9DED391A80EEF3
:101DC000010A9DED382A22EE000ABCEEC00A42F656
:101DD0003840C4F2010080ED000A40F20510C2F262
:101DE000000044F24541C0F60D21C0F83A1044F21B
:101DF0005041C5F24141C0F8361044F24431C5F2B9
:101E00002051C0F832100C20FFF7BEFC49E000BFA3
:101E100000000000004CFD40000000000000F0BF8A
:101E20000000C84242F62C40C4F2010090ED000AC6
:101E3000B8EE400A43F6EB31C2F200018A7801EEB7
:101E4000102AB8EEC11A1FED0A2A81EE021A20EEFE
:101E5000010ABCEEC00A42F63442C4F2010282ED2D
:101E6000000A90ED000AB8EE400A887801EE100AE8
:101E7000B8EEC11A81EE021A20EE010ABCEEC00AC9
:101E800042F63840C4F2010080ED000A40F205102D
:101E9000C2F20000AC2180F832100120FFF774FC80
:101EA000FFE7FFE7FFE7FFE7FFE7FFE702F033BDEC
:101EB00043F63C40C2F20000006847F6FE41C0F61F
:101EC00000010322FEF772F9002809D0FFE743F66C
:101ED000EB30C2F200000078AD2840F04B83FFE702
:101EE00047F6F541C0F600010020FEF76DF943F614
:101EF0003C41C2F2000108600868006844F2525197
:101F0000C4F24141884209D0FFE743F6EB30C2F208
:101F100000004078FD2840F0A181FFE700208DF807
:101F20005301FFE79DF8530109282ADCFFE7FEF77C
:101F30004DFB00208DF85201FFE79DF85201052866
:101F400018DCFFE79DF8520140F20801C2F20001DF
:101F500031F8101043F62042C2F2000252F820304D
:101F6000194442F82010FFE79DF8520101308DF826
:101F70005201E2E7FFE79DF8530101308DF853016C
:101F8000D0E743F63C40C2F200000068006844F22B
:101F90005251C4F24141884240F0C380FFE740F211
:101FA0000510C2F2000044F24921C5F2553140F853
:101FB000321F42F23A01818043F62042C2F200020F
:101FC00013684CF6CD4CCCF6CC4CA3FB0C3ECEF3B8
:101FD000CF0E062437903691214635927246CDF8C1
:101FE000D0C033933294FEF777FB0D203799887277
:101FF0000A22CA720C233190184630922F93FFF7B1
:10200000C3FB36983799888044F25612C4F643428F
:102010000A60359A5368DDF8D0C0A3FB0C3ECEF3BE
:10202000CF02084632992E93FEF756FB3198379926
:102030008872309ACA722F98FFF7A6FB44F649407F
:10204000C2F23A003799086035988268349BA2FB47
:10205000032CCCF3CF0C042137982D926246FEF767
:102060003BFB319837990872309A4A721046FFF755
:102070008BFB36983799888044F25452C5F24D0252
:102080000A60359AD368DDF8D0C0A3FB0C3ECEF3CE
:10209000CF02084632992C93FEF71EFB31983799F0
:1020A0008872309ACA722F98FFF76EFB369837996C
:1020B000888044F25612C4F643520A60359A136976
:1020C000DDF8D0C0A3FB0C3ECEF3CF020846329918
:1020D0002B93FEF701FB319837998872309ACA72B8
:1020E0002F98FFF751FB36983799888044F2562293
:1020F000C5F255320A60359A5369DDF8D0C0A3FBAA
:102100000C3ECEF3CF02084632992A93FEF7E4FA4A
:10211000319837998872309ACA722F98FFF734FB3A
:1021200082E043F62040C2F2000001684CF6CD4246
:10213000CCF6CC42A1FB0213DB0A40F2051CC2F232
:10214000000C8CF832300368A3FB023E4FEADE0E2F
:102150008CF833E04FF0200E8CF834E04468A4FB98
:102160000245ED0A8CF835504568A5FB0256F60885
:102170008CF836608CF837E08668A6FB0267FF0AA9
:102180008CF838708768A7FB02784FEAD8088CF87B
:1021900039808CF83AE0D0F80C80A8FB02894FEA2D
:1021A000D9298CF83B90D0F80C90A9FB029A4FEA01
:1021B000DA0A8CF83CA08CF83DE0D0F810A0AAFB1D
:1021C00002AB4FEADB2B8CF83EB0D0F810B0299070
:1021D000ABFB02B0C0088CF83F008CF840E02998B7
:1021E000D0F814E0AEFB02E0C00A8CF84100299858
:1021F0004069A0FB0202D2088CF8422011222890EC
:102200001046279126932594249523962297CDF85E
:102210008480CDF88090CDF87CA0CDF878B0CDF852
:1022200074E0FFF7B1FAFFE700208DF85201FFE7F5
:102230009DF85201052810DCFFE79DF8520143F696
:102240002041C2F20001002241F82020FFE79DF862
:10225000520101308DF85201EAE789E143F63C4032
:10226000C2F20000006847F62551C0F600010722BF
:10227000FDF79CFF002809D0FFE743F6EB30C2F2E0
:10228000000040785A2840F07281FFE743F63C4056
:10229000C2F20000006847F62551C0F6000107228F
:1022A000FDF784FF002840F0D980FFE747F6F541AD
:1022B000C0F6000100201C90FDF786FF43F63C416C
:1022C000C2F200010860086802F0E2FB43F64041F8
:1022D000C2F20001088043F6DA30C2F200001C9915
:1022E0000180FFE743F6DA30C2F20000008843F6CF
:1022F0004041C2F200010988884280F2AE80FFE7C7
:10230000FEF764F940F20510C2F2000044F24921E0
:10231000C5F2553140F8321F42F23A01818040F255
:102320000802C2F2000213884FF0060C1B901A91AB
:10233000614619921A46CDF860C0FEF7CDF90D201E
:102340001B9988720A22CA720C231790184616929B
:102350001593FFF719FA1A981B99888044F25612C0
:10236000C4F643420A60199A528808461899FEF743
:10237000B3F917981B998872169ACA721598FFF7C5
:1023800003FA44F64940C2F23A001B9908601998D2
:10239000828804211B98FEF79FF917981B990872F1
:1023A000169A4A721046FFF7EFF91A981B9988801F
:1023B00044F25452C5F24D020A60199AD288084676
:1023C0001899FEF789F917981B998872169ACA729C
:1023D0001598FFF7D9F91A981B99888044F256127C
:1023E000C4F643520A60199A128908461899FEF7F2
:1023F00073F917981B998872169ACA721598FFF785
:10240000C3F91A981B99888044F25622C5F25532B6
:102410000A60199A528908461899FEF75DF91798CB
:102420001B998872169ACA721598FFF7ADF942F691
:102430002D50C0F60D201B9988604FF02D3048605C
:1024400008601598FFF7A0F9FFE743F6DA30C2F20B
:10245000000001880131018044E787E0FEF70AFFB0
:1024600043F6EB30C2F200008178C07840EA0120E8
:1024700043F64041C2F20001088043F6DE30C2F26A
:10248000000000210180FFE743F6DE30C2F20000C9
:10249000008843F64041C2F200010988884232DADE
:1024A000FFE7FEF793F840F20800C2F2000041781F
:1024B00040F2EA02C2F20002D17101881172C178C1
:1024C0005172418891724179D17281881173C179B9
:1024D0005173C1889173417AD17301891174C17AA2
:1024E0005174408990740020D074212010750E2002
:1024F000FEF7A8FEFFE743F6DE30C2F200000188D7
:1025000001310180C0E743F6DE30C2F200000088EE
:1025100043F64041C2F200010988884225DBFFE70B
:1025200040F60040C4F201000421202314901391CE
:10253000139A03F011FF28201023149912900846D3
:102540001299139A03F008FF082314981299139A0A
:1025500003F002FF40F60000C4F201004FF4004314
:102560001299139A03F0F8FEFFE7FFE7FFE7FFE792
:1025700002F0D0B943F63C40C2F20000006847F6D2
:10258000FA41C0F600010322FDF710FE002808D032
:10259000FFE743F6EB30C2F200000078DC287AD186
:1025A000FFE700208DF85101FEF746FE43F63C4060
:1025B000C2F20000006847F6FA41C0F600010322AB
:1025C000FDF7F4FD002836D1FFE747F6F541C0F6E8
:1025D000000100201190FDF7F7FD43F63C41C2F2E7
:1025E00000010860086802F053FA1199109008463B
:1025F000109A03F011FC119803F068FC40F20510EA
:10260000C2F200000A2180F83E1044F25451C0F694
:102610004451C0F83A1045F25501C4F24411C0F8D3
:10262000361044F24411C2F24301C0F832100D20BA
:10263000FFF7AAF82DE040F2BC00C2F20000012131
:10264000017043F6EB30C2F200004278837843EA2F
:10265000022243F6E833C2F200031A8042788078FF
:1026600040EA022200200F900F9B0E91194603F0C2
:10267000D3FB0F9803F02AFCFEF7FCFD40F2051097
:10268000C2F20000AC2180F832100E98FFF77CF8FF
:10269000FFE702F03EB943F63C40C2F2000000689A
:1026A000006845F24701C4F64971884209D0FFE746
:1026B00043F6EB30C2F2000000786F2842F0418010
:1026C000FFE747F6F541C0F600010020FDF77CFD6D
:1026D00043F63C41C2F2000108600868006844F219
:1026E0005251C4F24141884209D0FFE743F6EB3032
:1026F000C2F2000040787D2840F00682FFE743F6F2
:102700003C40C2F200000068006844F25251C4F23A
:102710004141884240F04D81FFE741F20000C4F2A0
:1027200001004FF4005103F0E1FE01281DD1FFE745
:1027300040F20510C2F200000A2180F83E1044F277
:102740004971C0F64851C0F83A1043F64521C4F625
:102750002001C0F8361045F25341C5F24141C0F89E
:1027600032100D20FFF710F819E040F20510C2F208
:10277000000045F24F71C0F60D21C0F83A1043F643
:102780004521C4F62041C0F8361045F25341C5F248
:102790004141C0F832100C20FEF7F6FFFFE741F28E
:1027A0000000C4F201004FF4004103F09FFE012835
:1027B0001DD1FFE740F20510C2F2000040F60D21E6
:1027C000C18744F64811C4F64701C0F83A1044F2F4
:1027D0004C51C2F23A01C0F8361044F64561C4F2D9
:1027E0004121C0F832100E20FEF7CEFF1CE040F26F
:1027F0000510C2F200000A2180F83E1044F64C7128
:10280000C0F65751C0F83A1044F24C51C2F23A01A6
:10281000C0F8361044F64561C4F24121C0F83210C8
:102820000D20FEF7B1FFFFE740F60040C4F20100C3
:10283000022103F05BFE01281DD1FFE740F20510E5
:10284000C2F200000A2180F83E1044F24971C0F63D
:102850004851C0F83A1043F64B21C4F62001C0F8A5
:10286000361044F25741C4F65F71C0F832100D20A3
:10287000FEF78AFF19E040F20510C2F2000045F2AF
:102880004F71C0F60D21C0F83A1043F64B21C4F643
:102890002041C0F8361044F25741C4F65F71C0F8C9
:1028A00032100C20FEF770FFFFE740F60040C4F244
:1028B00001004FF4805103F019FE01281AD1FFE7FF
:1028C00040F20510C2F2000044F64701C0F60D21A7
:1028D000C0F8391044F62001C4F24971C0F836102E
:1028E00044F24F31C3F65021C0F832100B20FEF7EE
:1028F0004BFF16E040F20510C2F2000040F60D2139
:10290000418744F62041C5F24F71C0F8361044F2B9
:102910004F31C3F65021C0F832100A20FEF734FFC1
:10292000FFE740F60040C4F20100202103F0DEFD85
:10293000012820D1FFE740F20510C2F2000044F662
:102940004701C0F60D21C0F83D1044F62001C4F245
:102950004971C0F83A1044F65F11C3F64E21C0F831
:10296000361045F65311C4F24E31C0F832100E2025
:10297000FEF70AFF1CE040F20510C2F2000040F62C
:102980000D21C18744F62041C5F24F71C0F83A10BD
:1029900044F65F11C3F64E21C0F8361045F65311C8
:1029A000C4F24E31C0F832100D20FEF7EDFEFFE705
:1029B000A8E040F20510C2F20000002180F83210B9
:1029C00041F20000C4F201004FF4005103F08EFD0B
:1029D00001280BD1FFE740F20510C2F2000090F889
:1029E00032104900013180F8321009E040F2051040
:1029F000C2F2000090F83210490080F83210FFE770
:102A000041F20000C4F201004FF4004103F06EFDFA
:102A100001280BD1FFE740F20510C2F2000090F848
:102A200032104900013180F8321009E040F20510FF
:102A3000C2F2000090F83210490080F83210FFE72F
:102A400040F60040C4F20100022103F04FFD0128CE
:102A50000BD1FFE740F20510C2F2000090F83210EF
:102A60004900013180F8321009E040F20510C2F24D
:102A7000000090F83210490080F83210FFE740F66D
:102A80000040C4F201004FF4805103F02FFD0128F3
:102A90000BD1FFE740F20510C2F2000090F83210AF
:102AA0004900013180F8321009E040F20510C2F20D
:102AB000000090F83210490080F83210FFE740F62D
:102AC0000040C4F20100202103F010FD01280BD1C9
:102AD000FFE740F20510C2F2000090F83210490002
:102AE000013180F8321009E040F20510C2F2000016
:102AF00090F83210490080F83210FFE70120FEF70D
:102B000043FEFFE701F01CBE43F63C40C2F200006A
:102B1000006847F60651C0F600010722FDF746FBA4
:102B2000002809D0FFE743F6EB30C2F200004078FE
:102B30007F2841F0BE82FFE7FDF70EFF43F63C40E1
:102B4000C2F20000006847F60651C0F600010722F5
:102B5000FDF72CFB002840F03E87FFE741F2000024
:102B6000C4F201004FF4005103F0C0FC01281DD154
:102B7000FFE740F20510C2F200000A2180F83E1083
:102B800044F24971C0F64851C0F83A1043F6452165
:102B9000C4F62001C0F8361045F25341C5F2414158
:102BA000C0F832100D20FEF7EFFD19E040F20510DD
:102BB000C2F2000045F24F71C0F60D21C0F83A1084
:102BC00043F64521C4F62041C0F8361045F2534182
:102BD000C5F24141C0F832100C20FEF7D5FDFFE7E9
:102BE00041F20000C4F201004FF4804103F07EFC8A
:102BF00001281DD1FFE740F20510C2F200000A21B2
:102C000080F83E1044F24971C0F64851C0F83A10BD
:102C100043F64D21C4F62001C0F8361044F6414178
:102C2000C5F24121C0F832100D20FEF7ADFD19E0CC
:102C300040F20510C2F2000045F24F71C0F60D21BE
:102C4000C0F83A1043F64D21C4F62041C0F83610C2
:102C500044F64141C5F24121C0F832100C20FEF784
:102C600093FDFFE741F20000C4F201004FF4004180
:102C700003F03CFC01281DD1FFE740F20510C2F231
:102C8000000040F60D21C18744F64811C4F6470103
:102C9000C0F83A1044F24C51C2F23A01C0F8361072
:102CA00044F64561C4F24121C0F832100E20FEF70F
:102CB0006BFD1CE040F20510C2F200000A2180F812
:102CC0003E1044F64C71C0F65751C0F83A1044F229
:102CD0004C51C2F23A01C0F8361044F64561C4F2D4
:102CE0004121C0F832100D20FEF74EFDFFE740F6FF
:102CF0000000C4F20100012103F0F8FB01281AD101
:102D0000FFE740F20510C2F2000044F64701C0F6AA
:102D10000D21C0F83A1042F23A01C4F64811C0F849
:102D2000361044F24921C5F25531C0F832100C205A
:102D3000FEF72AFD19E040F20510C2F2000045F24C
:102D40004F71C0F60D21C0F8391042F23A01C4F6B5
:102D50004C71C0F8361044F24921C5F25531C0F823
:102D600032100B20FEF710FDFFE740F60000C4F222
:102D70000100022103F0BAFB01281AD1FFE740F25B
:102D80000510C2F2000044F64701C0F60D21C0F85C
:102D90003A1042F23A01C4F64811C0F8361044F233
:102DA0005611C4F64341C0F832100C20FEF7ECFC7B
:102DB00019E040F20510C2F2000045F24F71C0F672
:102DC0000D21C0F8391042F23A01C4F64C71C0F836
:102DD000361044F25611C4F64341C0F832100B20AD
:102DE000FEF7D2FCFFE740F60000C4F20100042128
:102DF00003F07CFB012817D1FFE740F20510C2F277
:102E0000000040F60D21418744F64811C4F6470101
:102E1000C0F8361044F64941C2F23A01C0F8321007
:102E20000A20FEF7B1FC16E040F20510C2F20000E5
:102E30000A2180F83A1044F64C71C0F65751C0F898
:102E4000361044F64941C2F23A01C0F83210092066
:102E5000FEF79AFCFFE740F60000C4F201000821EB
:102E600003F044FB01281AD1FFE740F20510C2F23B
:102E7000000044F64701C0F60D21C0F83A1042F2B6
:102E80003A01C4F64811C0F8361044F25451C5F264
:102E90004D01C0F832100C20FEF776FC19E040F22C
:102EA0000510C2F2000045F24F71C0F60D21C0F8C6
:102EB000391042F23A01C4F64C71C0F8361044F2AF
:102EC0005451C5F24D01C0F832100B20FEF75CFCE6
:102ED000FFE740F60000C4F20100102103F006FBFA
:102EE00001281DD1FFE740F20510C2F2000040F6B4
:102EF0000D21C18744F64811C4F64701C0F83A10C5
:102F000044F65401C2F23A01C0F8361044F24F318F
:102F1000C5F65071C0F832100E20FEF735FC1CE0EB
:102F200040F20510C2F200000A2180F83E1044F67B
:102F30004C71C0F65751C0F83A1044F65401C2F231
:102F40003A01C0F8361044F24F31C5F65071C0F85E
:102F500032100D20FEF718FCFFE740F60000C4F227
:102F60000100202103F0C2FA01281AD1FFE740F244
:102F70000510C2F2000044F64701C0F60D21C0F86A
:102F80003A1042F23A01C4F64811C0F8361044F241
:102F90005611C4F64361C0F832100C20FEF7F4FB62
:102FA00019E040F20510C2F2000045F24F71C0F680
:102FB0000D21C0F8391042F23A01C4F64C71C0F844
:102FC000361044F25611C4F64361C0F832100B209B
:102FD000FEF7DAFBFFE740F60000C4F201004021F3
:102FE00003F084FA01281AD1FFE740F20510C2F27B
:102FF000000044F64701C0F60D21C0F83A1042F235
:103000003A01C4F64811C0F8361044F25621C5F210
:103010005531C0F832100C20FEF7B6FB19E040F233
:103020000510C2F2000045F24F71C0F60D21C0F844
:10303000391042F23A01C4F64C71C0F8361044F22D
:103040005621C5F25531C0F832100B20FEF79CFB1B
:10305000FFE740F60000C4F20100802103F046FAC9
:1030600001281DD1FFE740F20510C2F200000A213D
:1030700080F83E1044F24971C0F64851C0F83A1049
:1030800043F65921C4F62001C0F8361044F25251DB
:10309000C4F24C11C0F832100D20FEF775FB19E098
:1030A00040F20510C2F2000045F24F71C0F60D214A
:1030B000C0F83A1043F65921C4F62041C0F8361042
:1030C00044F25251C4F24C11C0F832100C20FEF7F9
:1030D0005BFBFFE740F60040C4F20100012103F072
:1030E00005FA012817D1FFE740F20510C2F20000EF
:1030F00040F60D21418744F64811C4F64701C0F857
:10310000361044F25741C2F23A01C0F832100A2098
:10311000FEF73AFB16E040F20510C2F200000A2169
:1031200080F83A1044F64C71C0F65751C0F836108A
:1031300044F25741C2F23A01C0F832100920FEF7BA
:1031400023FBFFE740F60040C4F20100022103F038
:10315000CDF901281DD1FFE740F20510C2F20000B1
:103160000A2180F83E1044F24971C0F64851C0F877
:103170003A1043F64B21C4F62001C0F8361044F251
:103180005741C4F65F71C0F832100D20FEF7FCFA0B
:1031900019E040F20510C2F2000045F24F71C0F68E
:1031A0000D21C0F83A1043F64B21C4F62041C0F877
:1031B000361044F25741C4F65F71C0F832100C204B
:1031C000FEF7E2FAFFE740F60040C4F201000421F6
:1031D00003F08CF9012820D1FFE740F20510C2F27C
:1031E000000044F64701C0F60D21C0F83E1042F23F
:1031F0003A01C4F64811C0F83A1045F65471C4F2C9
:103200004451C0F8361045F25531C5F24121C0F89D
:1032100032101020FEF7B8FA1FE040F20510C2F29B
:10322000000045F24F71C0F60D21C0F83D1042F28A
:103230003A01C4F64C71C0F83A1045F65471C4F224
:103240004451C0F8361045F25531C5F24121C0F85D
:1032500032100F20FEF798FAFFE740F60040C4F264
:1032600001004FF4806103F041F9012820D1FFE70C
:1032700040F20510C2F2000044F64701C0F60D21ED
:10328000C0F83E1042F23A01C4F64811C0F83A10B4
:1032900045F65471C5F65401C0F8361045F2553163
:1032A000C5F24121C0F832101020FEF76DFA1FE080
:1032B00040F20510C2F2000045F24F71C0F60D2138
:1032C000C0F83D1042F23A01C4F64C71C0F83A1011
:1032D00045F65471C5F65401C0F8361045F2553123
:1032E000C5F24121C0F832100F20FEF74DFAFFE77A
:1032F00040F60040C4F201004FF4006103F0F6F81C
:10330000012820D1FFE740F20510C2F2000044F688
:103310004701C0F60D21C0F83E1042F23A01C4F652
:103320004811C0F83A1045F65471C5F65201C0F87C
:10333000361045F25531C5F24121C0F83210102047
:10334000FEF722FA1FE040F20510C2F2000045F23B
:103350004F71C0F60D21C0F83D1042F23A01C4F69B
:103360004C71C0F83A1045F65471C5F65201C0F8D8
:10337000361045F25531C5F24121C0F832100F2008
:10338000FEF702FAFFE740F60040C4F201004FF4F6
:10339000805103F0ABF801281AD1FFE740F2051085
:1033A000C2F2000040F64851C0F20A01C0F83A10DB
:1033B00044F62001C4F24971C0F8361044F24F318E
:1033C000C3F65021C0F832100C20FEF7DDF917E0EB
:1033D00040F20510C2F2000040F60D21C0F83A108C
:1033E00044F62041C5F24F71C0F8361044F24F3117
:1033F000C3F65021C0F832100B20FEF7C5F9FFE7E5
:1034000040F60040C4F201004FF4005103F06EF8A2
:1034100001281DD1FFE740F20510C2F2000040F67E
:103420000D21C18744F64811C4F64701C0F83A108F
:1034300044F65301C2F23A01C0F8361045F2507119
:10344000C5F64D71C0F832100E20FEF79DF91CE054
:1034500040F20510C2F200000A2180F83E1044F646
:103460004C71C0F65751C0F83A1044F65301C2F2FD
:103470003A01C0F8361045F25071C5F64D71C0F8EA
:1034800032100D20FEF780F9FFE740F60040C4F24D
:1034900001004FF4804103F029F801281DD1FFE716
:1034A00040F20510C2F2000040F60D21C18744F63B
:1034B0004811C4F64701C0F83A1044F65341C2F22D
:1034C0003A01C0F8361045F25071C5F64D71C0F89A
:1034D00032100E20FEF758F91CE040F20510C2F23F
:1034E00000000A2180F83E1044F64C71C0F6575196
:1034F000C0F83A1044F65341C2F23A01C0F836100F
:1035000045F25071C5F64D71C0F832100D20FEF72E
:103510003BF9FFE740F60040C4F201004FF40041E0
:1035200002F0E4FF01281AD1FFE740F20510C2F2D1
:10353000000044F64701C0F60D21C0F83A1042F2EF
:103540003A01C4F64811C0F8361044F24C51C3F2A7
:103550004411C0F832100C20FEF716F919E040F2C1
:103560000510C2F2000045F24F71C0F60D21C0F8FF
:10357000391042F23A01C4F64C71C0F8361044F2E8
:103580004C51C3F24411C0F832100B20FEF7FCF886
:10359000FFE740F60000C4F201004FF4807102F032
:1035A000A5FF01281DD1FFE740F20510C2F200007F
:1035B00040F60D21C18744F64811C4F64701C0F812
:1035C0003A1044F64601C2F23A01C0F8361045F20C
:1035D0005071C5F64D71C0F832100E20FEF7D4F8C8
:1035E0001CE040F20510C2F200000A2180F83E10F3
:1035F00044F64C71C0F65751C0F83A1044F64601F3
:10360000C2F23A01C0F8361045F25071C5F64D715C
:10361000C0F832100D20FEF7B7F8FFE740F60000C3
:10362000C4F201004FF4007102F060FF01281DD1C7
:10363000FFE740F20510C2F2000040F60D21C187FD
:1036400044F64811C4F64701C0F83A1044F6464122
:10365000C2F23A01C0F8361045F25071C5F64D710C
:10366000C0F832100E20FEF78FF81CE040F2051073
:10367000C2F200000A2180F83E1044F64C71C0F6F8
:103680005751C0F83A1044F64641C2F23A01C0F828
:10369000361045F25071C5F64D71C0F832100D204C
:1036A000FEF772F8FFE740F60040C4F201004FF465
:1036B000005102F01BFF01281DD1FFE740F2051069
:1036C000C2F2000040F60D21C18744F64811C4F64D
:1036D0004701C0F83A1044F65301C2F23A01C0F86B
:1036E000361045F25071C5F64D71C0F832100E20FB
:1036F000FEF74AF81CE040F20510C2F200000A2171
:1037000080F83E1044F64C71C0F65751C0F83A109C
:1037100044F65301C2F23A01C0F8361045F2507136
:10372000C5F64D71C0F832100D20FEF72DF8FFE7F9
:1037300040F60000C4F201004FF4806102F0D6FEB2
:1037400001281DD1FFE740F20510C2F2000040F64B
:103750000D21C18744F64811C4F64701C0F83A105C
:1037600044F64561C2F23A01C0F8361045F2507194
:10377000C5F64D71C0F832100E20FEF705F81CE0BA
:1037800040F20510C2F200000A2180F83E1044F613
:103790004C71C0F65751C0F83A1044F64561C2F278
:1037A0003A01C0F8361045F25071C5F64D71C0F8B7
:1037B00032100D20FDF7E8FFFFE740F60000C4F2ED
:1037C00001004FF4006102F091FE01281DD1FFE7D6
:1037D00040F20510C2F2000040F60D21C18744F608
:1037E0004811C4F64701C0F83A1045F65201C2F23A
:1037F0003A01C0F8361044F24311C5F64E71C0F8D4
:1038000032100E20FDF7C0FF1CE040F20510C2F29E
:1038100000000A2180F83E1044F64C71C0F6575162
:10382000C0F83A1045F65201C2F23A01C0F836101B
:1038300044F24311C5F64E71C0F832100D20FDF769
:10384000A3FFFFE740F60000C4F201004FF48051EF
:1038500002F04CFE01281DD1FFE740F20510C2F234
:10386000000040F60D21C18744F64811C4F6470117
:10387000C0F83A1045F65401C2F23A01C0F83610C9
:1038800044F24311C5F64E71C0F832100E20FDF718
:103890007BFF1CE040F20510C2F200000A2180F814
:1038A0003E1044F64C71C0F65751C0F83A1045F638
:1038B0005401C2F23A01C0F8361044F24311C5F681
:1038C0004E71C0F832100D20FDF75EFFFFE740F6A5
:1038D0000040C4F20100202102F008FE012820D19E
:1038E000FFE740F20510C2F2000044F64701C0F6BF
:1038F0000D21C0F83D1044F62001C4F24971C0F812
:103900003A1044F65F11C3F64E21C0F8361045F662
:103910005311C4F24E31C0F832100F20FDF734FFBE
:103920001CE040F20510C2F2000040F60D21C187F4
:1039300044F62041C5F24F71C0F83A1044F65F11C9
:10394000C3F64E21C0F8361045F65311C4F24E317D
:10395000C0F832100E20FDF717FFFFE740F60040D9
:10396000C4F201004FF4807102F0C0FD01281AD1A9
:10397000FFE740F20510C2F2000044F64701C0F62E
:103980000D21C0F8391044F62001C4F24971C0F885
:10399000361044F24611C3F64E21C0F832100B2007
:1039A000FDF7F2FE16E040F20510C2F2000040F60C
:1039B0000D21418744F62041C5F24F71C0F8361001
:1039C00044F24611C3F64E21C0F832100A20FDF72A
:1039D000DBFEFFE764E340F20510C2F200000021C5
:1039E00080F8321080F8331080F8341080F83510E9
:1039F00041F20000C4F201004FF4005102F076FDE4
:103A000001280BD1FFE740F20510C2F2000090F848
:103A100032104900013180F8321009E040F20510FF
:103A2000C2F2000090F83210490080F83210FFE72F
:103A300041F20000C4F201004FF4804102F056FD53
:103A400001280BD1FFE740F20510C2F2000090F808
:103A500032104900013180F8321009E040F20510BF
:103A6000C2F2000090F83210490080F83210FFE7EF
:103A700041F20000C4F201004FF4004102F036FDB3
:103A800001280BD1FFE740F20510C2F2000090F8C8
:103A900032104900013180F8321009E040F205107F
:103AA000C2F2000090F83210490080F83210FFE7AF
:103AB00040F60000C4F20100012102F017FD0128C8
:103AC0000BD1FFE740F20510C2F2000090F832106F
:103AD0004900013180F8321009E040F20510C2F2CD
:103AE000000090F83210490080F83210FFE740F6ED
:103AF0000000C4F20100022102F0F8FC01280BD101
:103B0000FFE740F20510C2F2000090F832104900C1
:103B1000013180F8321009E040F20510C2F20000D5
:103B200090F83210490080F83210FFE740F60000AC
:103B3000C4F20100042102F0D9FC01280BD1FFE7F7
:103B400040F20510C2F2000090F832104900013135
:103B500080F8321009E040F20510C2F2000090F83F
:103B60003210490080F83210FFE740F60000C4F23E
:103B70000100082102F0BAFC01280BD1FFE740F256
:103B80000510C2F2000090F832104900013180F8AF
:103B9000321009E040F20510C2F2000090F8321035
:103BA000490080F83210FFE740F60000C4F201003F
:103BB000102102F09BFC01280BD1FFE740F2051019
:103BC000C2F2000090F832104900013180F8321042
:103BD00009E040F20510C2F2000090F832104900EE
:103BE00080F83210FFE740F60000C4F20100202107
:103BF00002F07CFC01280BD1FFE740F20510C2F275
:103C0000000090F832104900013180F8331009E0CB
:103C100040F20510C2F2000090F83310490080F81D
:103C20003310FFE740F60000C4F20100402102F02B
:103C30005DFC01280BD1FFE740F20510C2F2000045
:103C400090F832104900013180F8331009E040F259
:103C50000510C2F2000090F83310490080F83310CC
:103C6000FFE740F60000C4F20100802102F03EFCB4
:103C700001280BD1FFE740F20510C2F2000090F8D6
:103C800032104900013180F8331009E040F205108C
:103C9000C2F2000090F83310490080F83310FFE7BB
:103CA00040F60040C4F20100012102F01FFC01288F
:103CB0000BD1FFE740F20510C2F2000090F832107D
:103CC0004900013180F8331009E040F20510C2F2DA
:103CD000000090F83310490080F83310FFE740F6F9
:103CE0000040C4F20100022102F000FC01280BD1C7
:103CF000FFE740F20510C2F2000090F832104900D0
:103D0000013180F8331009E040F20510C2F20000E2
:103D100090F83310490080F83310FFE740F6004078
:103D2000C4F20100042102F0E1FB01280BD1FFE7FE
:103D300040F20510C2F2000090F832104900013143
:103D400080F8331009E040F20510C2F2000090F84C
:103D50003310490080F83310FFE740F60040C4F20A
:103D600001004FF4806102F0C1FB01280BD1FFE795
:103D700040F20510C2F2000090F832104900013103
:103D800080F8331009E040F20510C2F2000090F80C
:103D90003310490080F83310FFE740F60040C4F2CA
:103DA00001004FF4006102F0A1FB01280BD1FFE7F5
:103DB00040F20510C2F2000090F8321049000131C3
:103DC00080F8331009E040F20510C2F2000090F8CC
:103DD0003310490080F83310FFE740F60040C4F28A
:103DE00001004FF4805102F081FB01280BD1FFE765
:103DF00040F20510C2F2000090F832104900013183
:103E000080F8341009E040F20510C2F2000090F88A
:103E10003410490080F83410FFE740F60040C4F247
:103E200001004FF4005102F061FB01280BD1FFE7C4
:103E300040F20510C2F2000090F832104900013142
:103E400080F8341009E040F20510C2F2000090F84A
:103E50003410490080F83410FFE740F60040C4F207
:103E600001004FF4804102F041FB01280BD1FFE734
:103E700040F20510C2F2000090F832104900013102
:103E800080F8341009E040F20510C2F2000090F80A
:103E90003410490080F83410FFE740F60040C4F2C7
:103EA00001004FF4004102F021FB01280BD1FFE794
:103EB00040F20510C2F2000090F8321049000131C2
:103EC00080F8341009E040F20510C2F2000090F8CA
:103ED0003410490080F83410FFE740F60000C4F2C7
:103EE00001004FF4807102F001FB01280BD1FFE7C4
:103EF00040F20510C2F2000090F832104900013182
:103F000080F8341009E040F20510C2F2000090F889
:103F10003410490080F83410FFE740F60000C4F286
:103F200001004FF4007102F0E1FA01280BD1FFE724
:103F300040F20510C2F2000090F832104900013141
:103F400080F8341009E040F20510C2F2000090F849
:103F50003410490080F83410FFE740F60000C4F246
:103F600001004FF4806102F0C1FA01280BD1FFE794
:103F700040F20510C2F2000090F832104900013101
:103F800080F8341009E040F20510C2F2000090F809
:103F90003410490080F83410FFE740F60000C4F206
:103FA00001004FF4006102F0A1FA01280BD1FFE7F4
:103FB00040F20510C2F2000090F8321049000131C1
:103FC00080F8341009E040F20510C2F2000090F8C9
:103FD0003410490080F83410FFE740F60000C4F2C6
:103FE00001004FF4805102F081FA01280BD1FFE764
:103FF00040F20510C2F2000090F832104900013181
:1040000080F8351009E040F20510C2F2000090F887
:104010003510490080F83510FFE740F60040C4F243
:104020000100202102F062FA01280BD1FFE740F2E3
:104030000510C2F2000090F832104900013180F8FA
:10404000351009E040F20510C2F2000090F835107A
:10405000490080F83510FFE740F60040C4F2010047
:104060004FF4807102F042FA01280BD1FFE740F2D1
:104070000510C2F2000090F832104900013180F8BA
:10408000351009E040F20510C2F2000090F835103A
:10409000490080F83510FFE70420FDF775FBFFE7C6
:1040A000FCF7C0FDFDF788FBFCF7C2FFFCF79AFDAB
:1040B00045E343F63C40C2F200000068006844F665
:1040C0004811C4F64701884208D0FFE743F6EB30B9
:1040D000C2F200004078FF2864D1FFE741F20000FF
:1040E000C4F201004FF4804102F02EF940F60000C6
:1040F000C4F2010080210D9002F026F940F6004044
:10410000C4F2010001210C9002F01EF904210C9868
:1041100002F01AF94FF400410C9802F015F94FF42F
:1041200080610D9802F010F94FF480710C9802F044
:104130000BF943F63C40C2F200000068006844F608
:104140004811C4F64701884220D1FFE740F205102C
:10415000C2F2000044F64701C0F60D21C0F83D1040
:1041600044F62001C4F24971C0F83A1045F2470103
:10417000C4F64971C0F8361044F64141C2F24C0110
:10418000C0F832100F20FDF7FFFA0AE040F20510E8
:10419000C2F20000AC2180F832100120FDF7F4FAE1
:1041A000FFE7CBE243F63C40C2F20000006847F66E
:1041B0002D51C0F600010322FBF7F8FF002808D0BC
:1041C000FFE743F6EB30C2F200004078002863D1ED
:1041D000FFE741F20000C4F201004FF4804102F019
:1041E000ABF840F60000C4F2010080210B9002F011
:1041F000A3F840F60040C4F2010001210A9002F049
:104200009BF804210A9802F097F84FF400410A98AD
:1042100002F092F84FF480610B9802F08DF84FF4A1
:1042200080710A9802F088F843F63C40C2F2000020
:10423000006847F62D51C0F600010322FBF7B6FFD8
:1042400000281DD1FFE740F20510C2F2000040F641
:104250000D21C18744F62041C5F24F71C0F83A10D4
:1042600045F24701C4F64971C0F8361044F64141A1
:10427000C2F24C01C0F832100E20FDF785FA0AE0B8
:1042800040F20510C2F20000AC2180F8321001208B
:10429000FDF77AFAFFE750E243F63C40C2F2000035
:1042A000006847F60E51C0F600010622FBF77EFFBC
:1042B000002809D0FFE743F6EB30C2F20000407857
:1042C000CC2840F0BA81FFE743F63C40C2F2000040
:1042D000006847F60E51C0F600010622FBF766FFA4
:1042E000002840F0E180FFE747F6F541C0F6000105
:1042F0000020FBF769FF43F63C41C2F20001086071
:10430000086800F09BFB43F6E031C2F20001086050
:104310000878C007002809D0FFE741F20000C4F286
:1043200001004FF4804102F00FF808E041F2000074
:10433000C4F201004FF4804101F0FEFFFFE743F6B5
:10434000E030C2F2000000684008C007002808D032
:10435000FFE740F60000C4F20100802101F0F4FF05
:1043600007E040F60000C4F20100802101F0E4FF04
:10437000FFE743F6E030C2F2000000688008C007A3
:10438000002808D0FFE740F60040C4F201000121F8
:1043900001F0DAFF07E040F60040C4F2010001211D
:1043A00001F0CAFFFFE743F6E030C2F20000006808
:1043B000C008C007002808D0FFE740F60040C4F25C
:1043C0000100042101F0C0FF07E040F60040C4F204
:1043D0000100042101F0B0FFFFE743F6E030C2F234
:1043E000000000680009C007002809D0FFE740F678
:1043F0000040C4F201004FF4004101F0A5FF08E0C5
:1044000040F60040C4F201004FF4004101F094FF77
:10441000FFE743F6E030C2F2000000680009C00781
:10442000002809D0FFE740F60000C4F201004FF475
:10443000806101F089FF08E040F60000C4F201004D
:104440004FF4806101F078FFFFE743F6E030C2F2FD
:10445000000000680009C007002809D0FFE740F607
:104460000040C4F201004FF4807101F06DFF08E0DC
:1044700040F60040C4F201004FF4807101F05CFF8F
:10448000FFE740F20510C2F20000323047F6B641B5
:10449000C0F6000114220992FBF776FE09990890F4
:1044A0000846FDF771F9C7E043F6EB30C2F20000B1
:1044B0008078C007002809D0FFE741F20000C4F26D
:1044C00001004FF4804101F03FFF08E041F200009D
:1044D000C4F201004FF4804101F02EFFFFE743F6E4
:1044E000EB30C2F2000080784008C007002808D0F6
:1044F000FFE740F60000C4F20100802101F024FF34
:1045000007E040F60000C4F20100802101F014FF32
:10451000FFE743F6EB30C2F2000080788008C00766
:10452000002808D0FFE740F60040C4F20100012156
:1045300001F00AFF07E040F60040C4F2010001214B
:1045400001F0FAFEFFE743F6EB30C2F2000080789C
:10455000C008C007002808D0FFE740F60040C4F2BA
:104560000100042101F0F0FE07E040F60040C4F233
:104570000100042101F0E0FEFFE743F6EB30C2F258
:10458000000080780009C007002809D0FFE740F646
:104590000040C4F201004FF4004101F0D5FE08E0F4
:1045A00040F60040C4F201004FF4004101F0C4FEA7
:1045B000FFE743F6EB30C2F2000080784009C00705
:1045C000002809D0FFE740F60000C4F201004FF4D4
:1045D000806101F0B9FE08E040F60000C4F201007D
:1045E0004FF4806101F0A8FEFFE743F6EB30C2F222
:1045F000000080788009C007002809D0FFE740F656
:104600000040C4F201004FF4807101F09DFE08E00B
:1046100040F60040C4F201004FF4807101F08CFEBE
:10462000FFE740F20510C2F20000AC2180F8321022
:104630000120FDF7A9F8FFE77EE043F63C40C2F217
:104640000000006847F61D51C0F600010722FBF785
:10465000ADFD002808D0FFE743F6EB30C2F20000C2
:104660004078AA2867D1FFE743F63C40C2F2000039
:10467000006847F61D51C0F600010722FBF796FDC2
:10468000002829D1FFE747F6F540C0F600000021D9
:1046900007900846079A06911146FBF795FD43F6E9
:1046A0003C41C2F2000108600868059100F0F0F991
:1046B00043F63A41C2F20001088006980799FBF7D9
:1046C00083FD05990860086800F0E2F943F6384177
:1046D000C2F20001088016E043F6EB30C2F200009F
:1046E0008178C27842EA012143F63A42C2F20002DE
:1046F00011800179407940EA012043F63841C2F245
:1047000000010880FFE743F63A40C2F2000000884B
:1047100041F2883188420DDCFFE743F6E530C2F212
:104720000000012101701C2000F09EFC322000F0EE
:10473000B9FCFFE7FFE7FFE7FFE7FFE7FFE7FFE77A
:10474000E6E043F63C40C2F200000068006844F234
:104750005511C5F25241884208D0FFE743F6EB30CD
:10476000C2F200000078CA2861D1FFE747F6F541A0
:10477000C0F600010020FBF727FD43F63C41C2F2E2
:10478000000108600868008844F65451884208D047
:10479000FFE743F6EB30C2F200000078CA2845D1AB
:1047A000FFE740F2BD00C2F2000043F23101C0F663
:1047B0000D21016243F25131C3F23201C16142F273
:1047C0004F01C5F24D01816144F24851C4F64C419C
:1047D00041611020FCF714FC43F63C40C2F200009B
:1047E0000068008844F65451884213D1FFE740F234
:1047F0000510C2F20000323047F6CB41C0F600018E
:1048000015220492FBF7C0FC049903900846FCF7BC
:10481000BBFF0AE040F20510C2F20000AC2180F8B4
:1048200032100120FCF7B0FFFFE7FFE76FE043F62F
:104830003C40C2F20000006847F61951C0F6000182
:104840000322FBF7B3FC002808D0FFE743F6EB3068
:10485000C2F200000078C52858D1FFE747F6F541BD
:10486000C0F600010020FBF7AFFC43F63C41C2F26A
:10487000000108600868008844F65451884208D056
:10488000FFE743F6EB30C2F200000078C5283CD1C8
:10489000FFE740F21400C2F200005521A0F8A0107A
:1048A000032180F8A4104D21C172502101735321BE
:1048B0004173FBF7A7FE43F63C40C2F200000068DC
:1048C000008844F65451884213D1FFE740F20510A6
:1048D000C2F20000323047F6E141C0F60001132277
:1048E0000292FBF751FC029901900846FCF74CFF3D
:1048F0000AE040F20510C2F20000AC2180F832104C
:104900000120FCF741FFFFE7FFE7FFE7FFE7FFE7D5
:10491000FFE7FFE7FFE700208DF85301FFE79DF871
:10492000530131280FDCFFE79DF8530140F20511D8
:10493000C2F2000100220A54FFE79DF85301013042
:104940008DF85301EBE79DF85101002804D0FFE7F3
:104950001C2000F0A7FBFFE7FFE755B0BDE8F08F94
:1049600080B59CB0FCF75EF9FCF726FFFCF760FB16
:10497000FCF738F94FF4E1301690002117911891A7
:10498000199140F20512C2F2000202F132031A93A9
:104990001B9216AB0690184605910492FCF73AFE5E
:1049A0002020049981F832000122039010460292DF
:1049B000FCF7EAFE06981090059911911291139157
:1049C00040F2BD02C2F2000202F1140314931592E8
:1049D00010A80192FCF770FA0398019908750298E3
:1049E000FCF70EFB05980C900D900F9009900E901F
:1049F00040F2EA01C2F20001CA1D0A9205310B9190
:104A000009A8FCF735FB4FF4FA70079005988DF86C
:104A100021008DF8200007A8FCF776F8FBF7C8FE08
:104A200042F6DF60FCF762FC0E20FCF72FFD40F63B
:104A3000B730FCF7F3FC1CB080BD000083B00290DF
:104A4000002001908DF80300FFE702989DF8031005
:104A5000405C00212F280A46C8BF01223A28B8BF6F
:104A600001210A4211D0FFE701984000019002980D
:104A70009DF80310405C01990844303801909DF87E
:104A8000030001308DF80300DFE7019803B07047A1
:104A900082B001900020ADF80200ADF80000FFE701
:104AA0000198BDF80010405C00212F280A46C8BFBD
:104AB00001223A28B8BF01210A4217D0FFE7BDF80A
:104AC000020000EB80004000ADF802000198BDF844
:104AD0000010405CBDF8021008443038ADF8020008
:104AE000BDF800000130ADF80000D9E7BDF80200C4
:104AF00002B0704780B582B0009000980138B0F1E4
:104B0000807F03D3FFE70120019019E0009801386E
:104B10004EF21401CEF2000108604FF0FF300F2179
:104B200000F0DAFA4EF21800CEF200000021016027
:104B30004EF21000CEF20000072202600191FFE762
:104B4000019802B080BD000080B543F64440C2F237
:104B5000000001680131016000684CF66311C9F280
:104B60002F6148434FEAF00043F60621C0F26D0181
:104B7000884226D8FFE743F6D130C2F20000017820
:104B8000B1FA81F1490901700078002809D0FFE7E6
:104B900040F60040C4F201004FF4007101F0D4FB74
:104BA0000EE040F60040C4F201004FF4007101F045
:104BB000C3FB43F64440C2F2000000210160FFE75E
:104BC000FFE7FCF71DFE80BD80B582B04EF6885031
:104BD000CEF20000016841F47001016041F2000072
:104BE000C4F20200016841F00101016041F20401D8
:104BF000C4F2020100220A6041F22C01C4F2020157
:104C00000A6001684FF6FF73CEF6F6231940016083
:104C100041F20801C4F202014FF47F030B60016806
:104C200021F480210160019202F094F94FF00060BC
:104C3000019901F089FE02B080BD000080B542F606
:104C40000040C4F20100012102F0F6FD002808D066
:104C5000FFE742F60040C4F20100012102F0E0FD4E
:104C6000FFE780BD80B582B04FF08040012102F0A7
:104C7000E3FD002850D0FFE74FF08040012102F013
:104C8000CFFD43F64240C2F200000078002819D15F
:104C9000FFE740F20510C2F20000323047F6A341B0
:104CA000C0F6000112220192FBF76EFA0199009002
:104CB0000846FCF769FD43F64240C2F200000121BC
:104CC000017014E043F64240C2F200000078002870
:104CD0000CD0FFE740F2BC00C2F2000000780028D0
:104CE00003D1FFE7FCF73EFDFFE7FFE7FFE740F2F8
:104CF0000510C2F20000007800280CD0FFE740F257
:104D00000510C2F2000042F24371012242541C20FD
:104D100000F0AAF9FFE7FFE702B080BD80B584B0DC
:104D200040F60040C4F20000012102F085FD002899
:104D300000F09881FFE740F60040C4F20000012136
:104D400002F06EFD43F6E530C2F200000078002864
:104D500000F08781FFE743F64840C2F20000018877
:104D600001310180008843F63841C2F20001098810
:104D70004FF4FA52B2FBF1F1884240F3D980FFE7D9
:104D800043F6DC30C2F20000008843F63A41C2F23A
:104D900000010988884280F2CB80FFE743F6484053
:104DA000C2F200000021018041F20000C4F20100C3
:104DB0004FF4005101F09AFB01280ED1FFE743F6B2
:104DC000DC30C2F20000008842F64901C2F2000164
:104DD0000A5C520001320A540CE043F6DC30C2F2A5
:104DE0000000008842F64901C2F200010A5C52004C
:104DF0000A54FFE741F20000C4F201004FF4004101
:104E000001F074FB01280ED1FFE743F6DC30C2F25B
:104E10000000008842F64901C2F200010A5C52001B
:104E200001320A540CE043F6DC30C2F20000008884
:104E300042F64901C2F200010A5C52000A54FFE73F
:104E400040F60040C4F20100022101F04FFB0128AE
:104E50000ED1FFE743F6DC30C2F20000008842F6D4
:104E60004901C2F200010A5C520001320A540CE00E
:104E700043F6DC30C2F20000008842F64901C2F27B
:104E800000010A5C52000A54FFE740F60040C4F2F9
:104E900001004FF4805101F029FB01280ED1FFE7FA
:104EA00043F6DC30C2F20000008842F64901C2F24B
:104EB00000010A5C520001320A540CE043F6DC3077
:104EC000C2F20000008842F64901C2F200010A5C09
:104ED00052000A54FFE740F60040C4F201002021CE
:104EE00001F004FB01280ED1FFE743F6DC30C2F2EB
:104EF0000000008842F64901C2F200010A5C52003B
:104F000001320A540CE043F6DC30C2F200000088A3
:104F100042F64901C2F200010A5C52000A54FFE75E
:104F200043F6DC30C2F2000001880131018097E0D5
:104F300043F6DC30C2F20000008843F63A41C2F288
:104F4000000109888842C0F28A80FFE743F6DC301E
:104F5000C2F200000021018043F6E432C2F20002F6
:104F60000123137043F6E533C2F200031970117088
:104F7000322203901046029100F076F802980399CD
:104F80000880FFE743F6DC30C2F20000008843F6F9
:104F90003A41C2F20001098888425CDAFFE743F631
:104FA000E630C2F2000000210170FFE743F6DC307A
:104FB000C2F20000008843F6E631C2F2000109782F
:104FC000084443F63A41C2F20001098800228842AF
:104FD00001920BDAFFE743F6E630C2F200000078F8
:104FE00000213228B8BF01210191FFE70198C007D5
:104FF000002820D0FFE743F6DC30C2F20000008832
:1050000043F6E631C2F200010978084442F649014C
:10501000C2F20001095C40F20512C2F20002104423
:1050200080F83210FFE743F6E630C2F20000017864
:1050300001310170BAE743F6E630C2F200000078B1
:10504000FCF7A2FBFFE743F6DC30C2F20000018868
:105050003231018096E71C2000F024F8FFE7FFE7DB
:10506000FFE7FFE704B080BD81B001468DF8030083
:105070009DF90300002813D4FFE79DF9030000F019
:105080001F01012202FA01F140094EF28012CEF214
:10509000000242F82010BFF34F8FBFF36F8FFFE77E
:1050A00001B0704781B001468DF803009DF90300FF
:1050B00000280FD4FFE79DF9030000F01F01012233
:1050C00002FA01F140094EF20012CEF2000242F85B
:1050D0002010FFE701B0704782B002468DF807004C
:1050E00000919DF9070000280AD4FFE7009800010D
:1050F0009DF907104EF20042CEF2000288540BE0F8
:10510000009800019DF8071001F00F014EF61452AF
:10511000CEF200028854FFE702B0704781B00090E1
:105120000098816841F008018160FFE7009880687D
:105130000007002801D5FFE7F8E70098816841F0F3
:1051400004018160FFE7009880684007002801D5CE
:10515000FFE7F8E701B0704784B00B4603908DF885
:105160000B1001929DF80B0001460128009104D01C
:10517000FFE70098022812D023E00398C16A21F4C7
:105180007001C16201980021CFF6F07101EB00506F
:105190003FFA80F00399CA6A1043C86212E003988C
:1051A000816B21F44011816301980021CFF6F071E9
:1051B00001EB005000F4401003998A6B10438863A0
:1051C00000E0FFE704B0704782B0019000910098C2
:1051D000002806D0FFE70198816841F400618160F2
:1051E00005E00198816821F400618160FFE702B069
:1051F0007047000081B000900098816841F4807190
:10520000816001B07047000081B000900098806814
:10521000C007002806D1FFE70098816841F001012E
:105220008160FFE701B0704782B013468C46019061
:105230008DF803108DF802209DF80200002819D087
:10524000FFE79DF80300C007002806D0FFE701989C
:10525000816841F480118160FFE79DF803008007B9
:10526000002806D5FFE70198816841F4004181607C
:10527000FFE718E09DF80300C007002806D0FFE70D
:105280000198816821F480118160FFE79DF8030097
:105290008007002806D5FFE70198816821F40041C6
:1052A0008160FFE7FFE702B07047000084B00B4663
:1052B00003908DF80B1001929DF80B000146012818
:1052C000009104D0FFE7009802280BD015E0039866
:1052D000816821F460218160019803998A681043F4
:1052E00088600BE00398816821F4E04181600198B7
:1052F00003998A681043886000E0FFE704B07047B4
:1053000081B0009042F20440C4F20100016821F42F
:1053100070210160009902681143016001B070477B
:1053200080B585B094468E4604908DF80F108DF8A8
:105330000E2002939DF80F0005281CDCFFE704985F
:10534000406B01909DF80F0000EB80001F2101FAD7
:1053500000F0019921EA000001909DF80E009DF8EF
:105360000F1001EB810188400199084301900198D9
:105370000499486348E09DF80F000B281EDCFFE706
:105380000498006B01909DF80F0000EB80001E3820
:105390001F2101FA00F0019921EA000001909DF817
:1053A0000E009DF80F1001EB81011E398840019914
:1053B0000843019001980499086324E09DF80F00C8
:1053C0000F281EDCFFE70498C06A01909DF80F00CB
:1053D00000EB80003C381F2101FA00F0019921EA1E
:1053E000000001909DF80E009DF80F1001EB810167
:1053F0003C39884001990843019001980499C8629A
:1054000000E0FFE7FFE7FFE79DF80E0009281BDC3F
:10541000FFE70498006900909DF80E0000EB400043
:10542000072101FA00F0009921EA0000009002989B
:105430009DF80E1001EB410188400099084300904F
:1054400000980499086123E09DF80E0011281DDCE6
:10545000FFE70498C06800909DF80E0000EB400044
:105460001E38072101FA00F0009921EA000000909F
:1054700002989DF80E1001EB41011E3988400099F9
:105480000843009000980499C86000E0FFE7FFE738
:1054900005B080BD82B0019000910198D0F88010D5
:1054A00021F44051C0F8801000980199D1F8802073
:1054B0001043C1F8800002B07047000082B00A4675
:1054C00001908DF803109DF80300C007002806D056
:1054D000FFE70198816841F480018160FFE79DF852
:1054E00003008007002806D5FFE70198816841F492
:1054F00000118160FFE702B07047000083B01346DF
:10550000029001918DF803209DF80300002825D01A
:10551000FFE79DF80500C007002806D0FFE70298C6
:10552000416841F480714160FFE79DF80500400744
:10553000002806D5FFE70298416841F48061416088
:10554000FFE79DF804008007002806D5FFE70298D2
:10555000816841F002018160FFE724E09DF80500C9
:10556000C007002806D0FFE70298416821F4807147
:105570004160FFE79DF805004007002806D5FFE7DA
:105580000298416821F480614160FFE79DF80400C2
:105590008007002806D5FFE70298816821F0020104
:1055A0008160FFE7FFE703B07047000080B584B07B
:1055B0000390039846F20041C4F20001884209D1E9
:1055C000FFE740F21940029001F016FB029801F04B
:1055D000FBFA08E040F21A40019001F00DFB01983F
:1055E00001F0F2FAFFE704B080BD000082B0019044
:1055F0000020009001984089012101FA00F00090FC
:1056000046F20060C4F20000016841F0010101604F
:10561000009846F21C61C4F200010A6822EA000008
:1056200008600198C089002822D1FFE7009846F25F
:105630000C61C4F200010A6822EA000008600198C7
:10564000C188428842EA0141408946F24062C4F280
:10565000000242F8301001988188028842EA014134
:10566000408946F24462C4F2000242F83010FFE77B
:105670000198C089012821D1FFE7009846F20C610A
:10568000C4F200010A68104308600198018842884A
:1056900042EA0141408946F24062C4F2000242F807
:1056A000301001988188C28842EA0141408946F25F
:1056B0004462C4F2000242F83010FFE7019880898A
:1056C00000280AD1FFE7009846F20461C4F2000105
:1056D0000A6822EA0000086008E0009846F20461C7
:1056E000C4F200010A6810430860FFE701980089CE
:1056F00000280AD1FFE7009846F21461C4F20001C5
:105700000A6822EA0000086008E0009846F2146186
:10571000C4F200010A6810430860FFE70198007CAA
:10572000012809D1FFE7009846F21C61C4F200018C
:105730000A6810430860FFE746F20060C4F2000008
:10574000016821F00101016002B0704782B00A4691
:105750000190ADF80210BDF8020000F01F01012316
:1057600003FA01F1019B800953F800C041EA0C01E2
:10577000195002B07047000083B00A460190ADF89E
:1057800002100198BDF8021089094058BDF80210B6
:1057900001F01F01C840C007002804D0FFE7012026
:1057A0008DF80B0003E000208DF80B00FFE79DF85B
:1057B0000B0003B07047000080B586B005900491DF
:1057C00001208DF80F00049844F24021C0F20F012F
:1057D000884229D8FFE70598012100F069FA0128DD
:1057E00012D1FFE70598C0690290029800F040408E
:1057F0000290029804990190084600F081FB0199FB
:1058000008430599C86103E000208DF80F00FFE709
:105810000598022100F04CFA012804D0FFE700208F
:105820008DF80F00FFE703E000208DF80F00FFE781
:105830009DF80F0006B080BD80B586B0059004913C
:105840004FF6FF70039000208DF80B00059801685B
:1058500021F0020101600598016841F00101016039
:10586000FFE7059840680021C0070028019106D194
:10587000FFE70398002818BF01200190FFE7019877
:10588000C007002804D0FFE7039801380390E8E739
:1058900005984068C007002804D1FFE700208DF874
:1058A0000B00B4E0049801784278837890F803C044
:1058B0004FF0F85E0EEA026242EA81711A0442EA8F
:1058C000831241F60043C0F20F031A4011444FEA1D
:1058D0000C5242EA8C2246F20003C0F270031A40D6
:1058E0001144408901386FF39F2008440599C8612D
:1058F00004980079012806D1FFE70598016841F076
:105900008001016005E00598016821F080010160D7
:10591000FFE704984079012806D1FFE70598016860
:1059200041F04001016005E00598016821F0400167
:105930000160FFE704988079012806D1FFE7059808
:10594000016841F02001016005E00598016821F03F
:1059500020010160FFE70498C079012806D1FFE724
:105960000598016821F01001016005E005980168C3
:1059700041F010010160FFE70498007A012806D188
:10598000FFE70598016841F00801016005E005980E
:10599000016821F008010160FFE70498407A0128BE
:1059A00006D1FFE70598016841F00401016005E0B8
:1059B0000598016821F004010160FFE7059801687E
:1059C00021F0010101604FF6FF700390FFE7059899
:1059D00040680021C0070028009106D0FFE7039827
:1059E000002818BF01200090FFE70098C00700289A
:1059F00004D0FFE7039801380390E8E703980028F4
:105A000004D0FFE701208DF80B00FFE7FFE79DF8CA
:105A10000B0006B080BD000087B005900491002007
:105A20008DF80F008DF80E008DF80D00029000909B
:105A3000059880684001002804D5FFE700208DF814
:105A40000F0019E0059880680001002804D5FFE7E1
:105A500001208DF80F000EE005988068C000002836
:105A600004D5FFE702208DF80F0003E003208DF836
:105A70000F00FFE7FFE7FFE79DF80F00032804D1C1
:105A8000FFE703208DF81B000DE105989DF80F102E
:105A900000EB0110D0F8801101F00101C0F8801175
:105AA0000498007A002810D1FFE704980168407A32
:105AB00040EA415005999DF80F2001EB0211D1F801
:105AC00080211043C1F8800111E004984168027AF6
:105AD00042EAC101407A084305999DF80F2001EB85
