:020000040800F2
:1000000058400020650100086D0100086F010008DC
:10001000710100087301000875010008000000006C
:100020000000000000000000000000007701000850
:1000300079010008000000007B0100084957000812
:100040007F0100087F0100087F0100087F01000890
:100050007F0100087F0100087F0100087F01000880
:100060007F0100087F0100087F0100087F01000870
:100070007F0100087F0100087F0100087F01000860
:100080007F0100087F0100087F0100087F01000850
:100090007F0100087F0100087F0100087F01000840
:1000A0007F0100083D5800087F0100087F0100081B
:1000B000655800087F0100087F0100087F010008E3
:1000C0007F0100087F0100087F0100087F01000810
:1000D0007F0100087F0100087F0100087F01000800
:1000E0007F0100087F0100087F0100087F010008F0
:1000F0007F0100087F0100087F0100080000000068
:100100007F010008000000006D5900087F01000811
:100110007F0100087F0100087F0100087F010008BF
:100120007F0100087F0100087F0100087F010008AF
:100130007F01000800000000000000007F010008AF
:100140007F0100087F0100087F0100087F0100088F
:10015000DFF80CD000F028FA004800476972000868
:10016000584000200648804706480047FEE7FEE763
:10017000FEE7FEE7FEE7FEE7FEE7FEE7FEE7FEE757
:10018000C95700085101000840EA01039B0703D04A
:1001900009E008C9121F08C0042AFAD203E011F8C6
:1001A000013B00F8013B521EF9D2704730B50446BE
:1001B0000020034600E05B1C934203D2E05CCD5C70
:1001C000401BF8D030BD000070B50F4D00B9286855
:1001D000002412E00A4602E09E4203D0521C13782B
:1001E000002BF9D1DAB2224305D02BB124B1002182
:1001F00000F8011B04E00446401C0678002EE9D1FB
:100200002860204670BD0000000000202DE9FE4F50
:10021000804681EA0300C00F0C46009021F00041A7
:1002200023F00045B8EB0200A94105D24046214623
:1002300090461C460B46024623F00040104347D030
:10024000270DC7F30A00C3F30A510290401A019028
:1002500040286BDAC3F3130040F4801B00989246E9
:1002600020B10023D2EB030A63EB0B0B0198594634
:10027000C0F14002504600F009F906460D465046CE
:100280005946019A00F021F910EB08006141002461
:1002900087EA115284EAE7731A4340D0009A62B3A6
:1002A000019A012A4FEA075215DC001B61EB02019B
:1002B0004FF0004202EA0752CDE90042001C41F52E
:1002C000801132462B4600F021F903B0BDE8F08FD3
:1002D00040462146F9E7001B61EB0201001C41F595
:1002E000801300185B412018A2F5001747EB0301AB
:1002F00040EAD570B6196D4111E06D084FEA360637
:1003000045EAC0754FEA0752001B61EB0201001C71
:1003100041F5801149084FEA300000195141324639
:100320002B4603B0BDE8F04F00F0E1B80098012281
:1003300040000023D0EB020263EBE07300982146FB
:100340004FEAE074B8EB000061EB0401E9E783F0E9
:1003500000435BE781F0004158E72DE9F04D81EA69
:10036000030404F0004B21F0004514464FF0000A4E
:1003700023F0004150EA050220D054EA01021DD0CA
:10038000C5F30A570246C5F31303C1F31300C1F3C3
:100390000A5640F4801543F48013A7EB0608101B9F
:1003A000D64608F2FD3873EB050002D308F10108C8
:1003B00001E092185B41B8F1000F03DA002001461A
:1003C000BDE8F08D00204FF48011064684460EE013
:1003D000171B73EB050705D3121B63EB05030643DD
:1003E0004CEA010C49084FEA300092185B4150EA90
:1003F0000107EDD152EA030012D082EA040083EA39
:100400000501084305D0101BAB4106D20122002391
:1004100006E000224FF0004302E06FF001025310AB
:100420001AEB06004CEB085110EB0A0041EB0B01F4
:10043000BDE8F04D00F05BB80EB5C10F80EAE0708A
:100440000844CA07002140F233438DE80E000A46F3
:100450000B4600F05BF803B000BDC1F30A5210B5C3
:10046000C1F3130140F2FF3341F480119A4201DAE3
:10047000002010BD40F233439A42A2F2334203DC23
:10048000524200F012F810BD904010BD202A04DB4B
:10049000203A00FA02F1002070479140C2F1200397
:1004A00020FA03F3194390407047202A04DB203AD6
:1004B00021FA02F00021704721FA02F3D040C2F184
:1004C00020029140084319467047202A06DBCB17CB
:1004D000203A41FA02F043EAE07306E041FA02F3FF
:1004E000D040C2F12002914008431946704710B530
:1004F000141E73F1000408DA401C41F10001921847
:100500005B411A4301D120F0010010BD2DE9F04DEF
:1005100092469B4611B1B1FA81F202E0B0FA80F244
:1005200020329046FFF7B2FF04460F4640EA0A0029
:1005300041EA0B0153465A46084313D0114653EA89
:10054000010019D0C8F140025046FFF7AEFF054642
:100550000E46504659464246FFF798FF084305D0DD
:10056000012004E020463946BDE8F08D0020054317
:1005700046EAE0762C4337430A986305E40AA0EB89
:1005800008000022FD0A44EA47540A3002D5002040
:100590000146E9E7010510196941DDE9084500193F
:1005A0006941BDE8F04DA2E7064C074D06E0E06862
:1005B00040F0010394E8070098471034AC42F6D3AA
:1005C000FFF7CAFD249200084492000880B542F269
:1005D0000040C4F20100012105F098FDFFE7002072
:1005E000C4F202000021022206F0B2FB002801D171
:1005F000FFE7F4E70020C4F202000021022206F027
:1006000095FB80BD80B582B001900198B0F8A01034
:1006100001600198002141600198017201984172C6
:10062000019890F8A4108172019946F20040C4F23A
:10063000000006F019F843F6F031C2F2000108702C
:10064000087801460028009108D0FFE700980128AB
:100650000CD0FFE70098022810D017E043F6D43002
:10066000C2F200004FF40071016017E043F6D4308D
:10067000C2F200004FF4027101600FE043F6D43083
:10068000C2F200004FF40471016007E043F6D43079
:10069000C2F200004FF400710160FFE7FFE743F68C
:1006A000D430C2F20000018846F20040C4F20000DB
:1006B00005F08AFE012801D1FFE7F0E743F6D430C8
:1006C000C2F20000018846F20040C4F2000005F0CA
:1006D00065FE02B080BD000070B582B013468C4646
:1006E00001908DF80310ADF80020BDF8000044F62D
:1006F000D351C1F26201A0FB0101890946F2676290
:10070000C6F2666251FB02FE4FEA9E0404EBDE7EF7
:100710000EEB8E0EA1EB4E013031DDF804E09DF8BA
:1007200003400EF80410BDF8001048F21F5EC5F239
:10073000EB1EA1FB0E1E4FEA5E1E5EFB02F4A50837
:1007400005EBD47404EB8404AEEB440E0EF1300ED2
:10075000019C9DF803502C4484F801E0BDF800E0B2
:100760004CF6CD44CCF6CC44AEFB04E5ED0855FB8D
:1007700002F2960806EBD27202EB8202A5EB42026D
:100780003032019D9DF803603544AA70BDF8002009
:10079000A2FB0445ED0805EB8505A2EB450242F0FE
:1007A0003002019D9DF803603544EA7002B070BDCF
:1007B00080B58CB000208DF82E0040F20801C2F206
:1007C0000001079101218DF82D104FF4006208926D
:1007D00042F24C42C4F2010205928DF82C004FF413
:1007E0000072069209914FF440520A920022C4F21C
:1007F000020205AB04901046DDF810C0039161467B
:1008000002921A4606F0C0FA0298049906F070FAAD
:100810000298049906F030FA4FF4C02005F098FBD6
:1008200042F20040C4F201004FF480710190039A3B
:1008300005F08CFC02210198049A05F087FC0198D0
:10084000049905F0E9FA0198049905F04BFC019828
:100850000399039A05F0A8FA4FF4602201980399CE
:1008600005F04CFB01980399039A05F005FB0198EC
:100870000499049A049B05F07BFB019805F0ECFABF
:10088000019805F073FA019805F0DCFA47F2004090
:10089000C4F20000016841F001010160049804996C
:1008A000049A06F0E1F8049806F038F90CB080BD1F
:1008B00080B58EB041F20000C4F2010004214FF473
:1008C00000520D900C910C9B0B921A460B9B06F05C
:1008D0006BFB4FF400400D990A9008460C990C9A56
:1008E0000A9B06F061FB40F60040C4F201000221C1
:1008F00009900C9A08911146089B06F055FB4FF49D
:1009000080500999079008460C990C9A079B06F0AD
:100910004BFB20200999069008460C990C9A069BDF
:1009200006F042FB4FF480400D99059008460C9963
:100930000C9A059B06F038FB40F60000C4F201005B
:10094000802304900C990C9A06F02EFB0120099943
:10095000039008460C990C9A039B06F025FB099816
:100960000C990C9A0C9B06F01FFB09980C990C9A99
:100970000A9B06F019FB4FF4806004990290084628
:100980000C990C9A029B06F00FFB4FF480700999AA
:10099000019008460C990C9A019B06F005FB4FF458
:1009A000007304980C990C9A06F0FEFA04980C99BE
:1009B0000C9A019B06F0F8FA09980C990C9A059B81
:1009C00006F0F2FA09980C990C9A0B9B06F0ECFAD7
:1009D00004980C990C9A039B06F0E6FA04980C997B
:1009E0000C9A089B06F0E0FA04980C990C9A0C9B60
:1009F00006F0DAFA082304980C990C9A06F0D4FA57
:100A000004980C990C9A069B06F0CEFA40230498A1
:100A10000C990C9A06F0C8FA102304980C990C9AB9
:100A200006F0C2FA09980C990C9A029B06F0BCFADF
:100A30004FF400600999009008460C990C9A009BAD
:100A400006F0B2FA04980C990C9A079B06F0ACFADF
:100A500004980C990C9A009B06F0A6FA0EB080BD83
:100A600080B590B041F20000C4F2010010210422D0
:100A70004FF400530F900E910D920C9306F094FAE0
:100A80004FF400400F990B9008460E990D9A0B9B5E
:100A900006F08AFA40F60040C4F2010002210A90F2
:100AA0000E9A099111460D9A099B06F07DFA4FF4B2
:100AB00080500A99089008460E990D9A089B06F0F6
:100AC00073FA20200A99079008460E990D9A079B01
:100AD00006F06AFA4FF480400F99069008460E9986
:100AE0000D9A069B06F060FA40F60000C4F2010081
:100AF000802305900E990D9A06F056FA01200A9966
:100B0000049008460E990D9A049B06F04DFA0A9837
:100B10000E990D9A0D9B06F047FA0A980E990D9AB8
:100B20000B9B06F041FA4FF480600599039008464C
:100B30000E990D9A039B06F037FA4FF480700A99CC
:100B4000029008460E990D9A029B06F02DFA4FF47A
:100B5000007305980E990D9A06F026FA05980E99DD
:100B60000D9A029B06F020FA0A980E990D9A069BA0
:100B700006F01AFA0A980E990D9A0C9B06F014FAD0
:100B800005980E990D9A049B06F00EFA05980E9999
:100B90000D9A099B06F008FA05980E990D9A0D9B7F
:100BA00006F002FA08200599019008460E990D9A60
:100BB000019B06F0F9F905980E990D9A079B06F02E
:100BC000F3F9402305980E990D9A06F0EDF9059872
:100BD0000E990D9A0E9B06F0E7F90A980E990D9A58
:100BE000039B06F0E1F94FF400600A990090084673
:100BF0000E990D9A009B06F0D7F905980E990D9A5B
:100C0000089B06F0D1F905980E990D9A009B06F005
:100C1000CBF90A980E990D9A019B06F0C5F90A982E
:100C20000E990D9A0E9B06F0BFF905980E990D9A34
:100C30000B9B06F0B9F910B080BD000080B58CB0F8
:100C40000B9040F2197007F071F946F20040C4F2BF
:100C50000000019005F0D2FA00208DF821008DF8F7
:100C600023008DF822008DF824008DF81D0004214A
:100C70008DF81E1002218DF81F108DF820008DF8C0
:100C800025000B9800798DF81C0007A9019805F044
:100C9000FBFB0B990968FA2900910AD0FFE700983D
:100CA000B0F5FA7F05D0FFE70098B0F57A7F0CD158
:100CB000FFE70B9800684FF47A71414346F2004019
:100CC000C4F2000005F0A0FB0AE046F20040C4F2C6
:100CD00000004EF64801C0F2010105F095FBFFE768
:100CE0000020ADF81200ADF814000121ADF8161087
:100CF000ADF80800ADF80A00ADF80C00ADF80E0034
:100D00000B984079ADF810008DF8181002A805F086
:100D100095FA0CB080BD000080B582B04FF4C06081
:100D200007F004F940F2026007F000F940F6000015
:100D3000C4F20100482103224FF4006301900092A5
:100D400006F032F918214FF480530198009A06F00A
:100D50002BF902B080BD000080B590B040F6004095
:100D6000C4F2010004214FF480420F900E910E9BBB
:100D70000D921A460D9B06F017F94FF400500F998B
:100D80000C9008460E990E9A0C9B06F00DF940F651
:100D90000000C4F201000B900E990E9A0E9B06F013
:100DA00003F908200B990A9008460E990E9A0A9B9F
:100DB00006F0FAF840230B980E990E9A06F0F4F814
:100DC00001200B99099008460E990E9A099B06F08E
:100DD000EBF820200B99089008460E990E9A089B74
:100DE00006F0E2F802200B99079008460E990E9A39
:100DF000079B06F0D9F84FF400400B99069008467F
:100E00000E990E9A069B06F0CFF84FF480600F996A
:100E1000059008460E990E9A059B06F0C5F84FF40A
:100E200000600F99049008460E990E9A049B06F0F4
:100E3000BBF84FF480500B99039008460E990E9A18
:100E4000039B06F0B1F80B980E990E9A049B06F0DE
:100E5000ABF810200B99029008460E990E9A029B4F
:100E600006F0A2F80B980E990E9A0A9B06F09CF8D1
:100E70004FF400730B9802990E9A06F095F84FF410
:100E800080700B990190084602990E9A019B06F01A
:100E90008BF80F9802990E9A079B06F085F80F9829
:100EA00002990E9A039B06F07FF841F20000C4F20B
:100EB0000100009002990E9A0D9B06F075F80098BB
:100EC00002990E9A0C9B06F06FF80F9802990E9AF1
:100ED000089B06F069F8009802990E9A069B06F0A6
:100EE00063F80F9802990E9A019B06F05DF8802333
:100EF0000B9802990E9A06F057F80F9802990E9ADD
:100F0000099B06F051F80F9802990E9A0E9B06F075
:100F10004BF80F9802990E9A069B06F045F80B982D
:100F200002990E9A059B06F03FF80F9802990E9AC7
:100F3000029B06F039F810B080BD000080B590B07B
:100F400040F60000C4F2010004214FF400730F903A
:100F50000E910E9A06F028F84FF480700F990D90BC
:100F600008460E990E9A0D9B06F01EF840F60040BA
:100F7000C4F2010002210C900E9A0B9111460B9BBA
:100F800006F012F84FF480500C990A9008460E991A
:100F90000E9A0A9B06F008F841F20000C4F2010024
:100FA0004FF4804109900E9A08911146089B05F074
:100FB000FBFF4FF400500999079008460E990E9ACE
:100FC000079B05F0F1FF20200C99069008460E992A
:100FD0000E9A069B05F0E8FF4FF400400999059032
:100FE00008460E990E9A059B05F0DEFF0C980E99A7
:100FF0000E9A0D9B05F0D8FF80230F980E990E9A3C
:1010000005F0D2FF01200C99049008460E990E9A23
:10101000049B05F0C9FF0C980E990E9A0E9B05F0E3
:10102000C3FF0C980E990E9A059B05F0BDFF4FF477
:1010300080600F99039008460E990E9A039B05F065
:10104000B3FF10200C99029008460E990E9A029B4D
:1010500005F0AAFF0C9802990E9A089B05F0A4FFD0
:101060000C9802990E9A079B05F09EFF0F98029923
:101070000E9A0E9B05F098FF08200F9901900846E4
:1010800002990E9A019B05F08FFF40230F98029959
:101090000E9A05F089FF0F9802990E9A049B05F0AD
:1010A00083FF0F9802990E9A069B05F07DFF0F981B
:1010B00002990E9A0B9B05F077FF0F9802990E9AF2
:1010C000059B05F071FF0C9802990E9A039B05F0A1
:1010D0006BFF4FF400600C990090084602990E9A3D
:1010E000009B05F061FF0F9802990E9A0A9B05F08C
:1010F0005BFF0F9802990E9A009B05F055FF0F9821
:1011000002990E9A029B05F04FFF0F9802990E9AD2
:10111000019B05F049FF10B080BD000080B592B082
:1011200040F2026006F002FF40F2036006F0FEFEAD
:1011300040F2046006F0FAFE40F2096006F0F6FEA6
:1011400040F20A6006F0F2FE4FF4A06006F0EEFEF8
:1011500040F21D7006F0EAFE4FF4C06006F0E6FEB5
:1011600040F60040C4F20100102104224FF4007345
:10117000119010910F920E9305F016FF40F60000AB
:10118000C4F2010028214FF400520D900C910F9BE6
:101190000B921A460B9B05F007FF4FF480400D9908
:1011A0000A9008460C990F9A0A9B05F0FDFE4FF431
:1011B00000400D99099008460C990F9A099B05F07B
:1011C000F3FE08201199089008460C990F9A089B85
:1011D00005F0EAFE11980C990F9A109B05F0E4FEB9
:1011E00041F20000C4F2010007900F990F9A0B9B87
:1011F00005F0DAFE07980F990F9A099B05F0D4FEC7
:1012000002201199069008460F990F9A069B05F047
:10121000CBFE4FF4805311980F990F9A05F0C4FE3E
:1012200020201199059008460F990F9A059B05F00B
:10123000BBFE079810990F9A0A9B05F0B5FE802314
:101240000D9810990F9A05F0AFFE012011990490A6
:10125000084610990F9A049B05F0A6FE1198109964
:101260000F9A0F9B05F0A0FE119810990F9A099BF9
:1012700005F09AFE4FF480630D9810990F9A05F0CF
:1012800093FE4FF4807011990390084610990F9ABD
:10129000039B05F089FE18200D99029008460299DB
:1012A0000F9A0E9B05F080FE0D9802990F9A039BF2
:1012B00005F07AFE119802990F9A0A9B05F074FEC8
:1012C000119802990F9A0B9B05F06EFE00200D9964
:1012D0000190084601990F9A049B05F065FE0D9850
:1012E00001990F9A069B05F05FFE0D9801990F9AE0
:1012F0000F9B05F059FE0D9801990F9A089B05F078
:1013000053FE0D9801990F9A059B05F04DFE402361
:101310000D9801990F9A05F047FE03220D98019947
:10132000109B05F041FE12B080BD000080B586B074
:1013300001468DF817000020C4F2020001220223AA
:1013400004900391114602921A4605F0EFFC0498AE
:10135000029905F073FC9DF817200498029905F096
:10136000D9FD44F60000C4F20000802107F054FDCE
:101370000498029905F080FCFFE744F60000C4F2EF
:101380000000062107F07EFD002802D1FFE700BF24
:10139000F3E744F60000C4F200000621019007F0D4
:1013A0005BFD0021019807F037FD06B080BD00000D
:1013B00010B590B00F904FF4A06006F0B7FD40F26A
:1013C000127006F0B3FD40F2065006F0AFFD0020AB
:1013D0008DF83A000F9949690A9101218DF8391069
:1013E0000B9044F60402C4F2000208928DF8380013
:1013F00009900C904FF440530D9340F2000CC4F24E
:10140000020C4FF0020E08AC079060460691714640
:10141000059222460493CDF80CC0CDF808E0019463
:1014200005F0B2FC0398029905F062FC039802995A
:1014300005F022FC06988DF83A000F9909690A9187
:101440008DF8390007990B91059A08928DF838109C
:1014500009910C91049B0D9303980699019A05F04C
:1014600093FC0398069905F025FC0398069905F06E
:1014700003FC44F60000C4F20000009007F05AFCA0
:101480000F980168009807F0D7FB0F984168009803
:1014900007F044FD0F98C168009807F0ABFD0F9866
:1014A0008168009807F080FD0098079907F02AFCF2
:1014B0000098079907F01CFD0098079907F002FDB6
:1014C000009807F051FD3221009807F059FD4021A6
:1014D000009807F08BFC8021009807F09DFC082104
:1014E000009807F071FD0421009807F027FD00988F
:1014F00007F0A8FC10B010BD80B582B001468DF891
:101500000700FFE744F60000C4F2000042F2102199
:1015100007F0B8FC002801D0FFE7F3E79DF80700CB
:10152000FFF704FF02B080BD80B582B04FF4C06009
:1015300006F0FCFC40F2036006F0F8FC40F60040C8
:10154000C4F20100182103224FF48063019000923D
:1015500005F02AFD04214FF400630198009A05F07C
:1015600023FD02B080BD000010B598B0179040F286
:10157000015006F0DBFC40F20F7006F0D7FC0020B3
:101580008DF85A0017998968129101218DF8591028
:10159000139043F60C42C4F2000210928DF85800EA
:1015A000119014904FF44053159340F2004CC4F244
:1015B000020C0DF1400E08906046089C07912146F0
:1015C000069272460593CDF810C0CDF80CE005F0F8
:1015D000DBFB0498089905F08BFB0498089905F04B
:1015E0004BFB07988DF85A001799496812918DF8AE
:1015F000590008991391069A10928DF8581011917C
:101600001491059B159304980799039A05F0BCFB68
:1016100043F60040C4F20000029006F009FD09A85C
:10162000019006F0A3FD1798C068099008980A90E9
:10163000179909680B910C90179989690D91179961
:1016400049690E91179909690F910298019906F05D
:101650003FFD029806F080FD029806F073FD0298A7
:1016600006F0DCFC18B010BD80B584B001468DF8E2
:101670000F0040F20040C4F20200002202900191EB
:101680001146009205F0DAFA9DF80F2002980099B1
:1016900005F040FC43F60040C4F20000012106F0D2
:1016A000A5FC0298009905F0E7FA04B080BD00009F
:1016B00080B584B001468DF80F0040F20040C4F2BE
:1016C00002000122029001911146009205F0B6FA43
:1016D0009DF80F200298009905F01CFC43F600408D
:1016E000C4F20000002106F081FC0298009905F088
:1016F000C3FA04B080BD000080B584B001468DF807
:101700000F0040F20040C4F2020001220290019159
:101710001146009205F092FA9DF80F200298009968
:1017200005F0F8FB43F60040C4F20000002106F08B
:101730005DFC0298009905F09FFAFFE740F2004037
:10174000C4F202000121022205F002FB002801D1AF
:10175000FFE7F3E740F20040C4F202000121022259
:1017600005F0E4FA43F60040C4F20000002106F060
:1017700025FC04B080BD000080B50220FFF774FF97
:1017800080BD000080B582B001468DF80700FFE7FC
:1017900043F60040C4F20000022106F083FC00285A
:1017A00001D1FFE7F4E79DF80700FFF7A5FF02B0BE
:1017B00080BD000080B584B04FF4C06006F0B6FB79
:1017C00040F2036006F0B2FB40F2026006F0AEFBAE
:1017D00040F60040C4F201001821032210230390B8
:1017E000029205F0E1FB04202023039901900846B2
:1017F0000199029A05F0D8FB082303980199029AEF
:1018000005F0D2FB40F60000C4F201004FF40043A3
:101810000199029A05F0C8FB40F20020C0F23000A6
:10182000012105F0A1FC04B080BD000080B592B09C
:10183000119011981090119840080F9040F20B6091
:1018400006F074FB42F60040C4F20100039007F07A
:1018500011F810980D900020ADF82C00ADF838006C
:10186000ADF82E00ADF83000FF218DF83A100BA92D
:10187000039A0290104607F0FDF80120ADF8200011
:101880000421ADF822100299ADF82410ADF826100D
:10189000ADF82810ADF82A1008AA039B019018464D
:1018A000009206F085FD03980199009A06F080FDEC
:1018B00003980299029A06F099FF03980299029AF6
:1018C00006F036FD03980199029A06F08FFF0398FF
:1018D0000199029A06F02CFD0F9A0398029906F0DE
:1018E00019FF60220398029906F0CCFE0398029932
:1018F000029A06F033FF0F9A0398019906F00AFF47
:1019000070220398019906F0BDFE03980199029A8E
:1019100006F024FF1520ADF814000298ADF816006B
:10192000ADF81000ADF812004FF48041ADF818107A
:10193000ADF81A00ADF81C0004A9039806F0E2FC0B
:1019400019200221029A06F03BF90398019907F049
:1019500027F9039807F084F812B080BD80B58AB0EB
:101960000990099808904FF4E06006F0DFFA4FF014
:101970008040039006F07EFF089806900020ADF8A6
:101980001000ADF81C00ADF81200ADF814008DF891
:101990001E0004A9039A0290104607F06BF81C2061
:1019A00001210191029A06F00BF90398019907F0C1
:1019B000F7F80398019907F027F9039806F098FCC7
:1019C000039807F04DF80AB080BD000080B590B0D4
:1019D0000F900F980E900F9840080D9040F20370F2
:1019E00006F0A4FA40F60040C4F20000019006F0B0
:1019F00041FF0E980B900020ADF82400ADF83000A8
:101A0000ADF82600ADF82800FF208DF8320009A9B6
:101A1000019807F02FF80121019807F0C1F8322052
:101A200004F04AF9019807F01BF810B080BD0000DF
:101A300080B584B001468DF80F000020C4F202008A
:101A40000422029001911146009205F0F7F89DF8EA
:101A50000F200298009905F05DFA43F60000C4F2E9
:101A60000100402107F0C2F90298009905F004F93D
:101A700004B080BD80B584B00146ADF80E000020F2
:101A8000C4F2020003220223029001911146009247
:101A90001A4605F04BF90298009905F0CFF8BDF809
:101AA0000E200298009905F035FA43F60000C4F2C2
:101AB0000100802107F0B0F90298009905F0DCF8E8
:101AC00004B080BD80B586B00146ADF81600002098
:101AD000C4F20200032202230490039111460292F1
:101AE0001A4605F023F90498029905F0A7F8BDF805
:101AF00016200498029905F00DFA43F60000C4F28E
:101B00000100802107F088F90498029905F0B4F8E3
:101B1000FFE743F60000C4F20100062107F0B2F926
:101B2000002802D1FFE700BFF3E743F60000C4F24C
:101B300001000621019007F08FF90021019807F0BC
:101B40006BF906B080BD000010B592B011904FF453
:101B5000A06006F0EBF940F20E6006F0E7F940F203
:101B6000065006F0E3F900208DF84200119949690A
:101B70000C9101218DF841100D9043F60402C4F23E
:101B800001020A928DF840000B9032230E934FF41D
:101B900040530F9340F2000CC4F2020C4FF0040EBD
:101BA0000AAC099060460891714607922246069356
:101BB000CDF814C0CDF810E0039405F0E5F80598D1
:101BC000049905F095F80598049905F055F80898DA
:101BD0008DF84200119909690C918DF8410009991D
:101BE0000D91079A0A928DF840100B910E91069B69
:101BF0000F934FF0030C05986146039ACDF808C087
:101C000005F0C2F80598029905F054F80598029974
:101C100005F032F843F60000C4F20100019007F02D
:101C200089F811980168019807F006F81198416841
:101C3000019807F073F91198C168019807F0DAF973
:101C400011988168019807F0AFF90198099907F098
:101C500059F80198099907F04BF90198099907F08B
:101C600031F9019807F080F9FF21019807F088F910
:101C70004021019807F0BAF88021019807F0CCF8CC
:101C80000821019807F0A0F90198049907F056F986
:101C9000019807F0D7F812B010BD000080B582B0EF
:101CA0000146ADF80600FFE743F60000C4F201006C
:101CB00042F2102107F0E6F8002801D0FFE7F3E731
:101CC000BDF80600FFF7FEFE02B080BD80B582B011
:101CD0004FF4C06006F02AF940F2036006F026F9DE
:101CE0000420C4F20100016841F00401016040F6E3
:101CF0000040C4F201001821032240230190009209
:101D000005F052F9042180230198009A05F04CF95E
:101D100002B080BD000000002DE9F04FADF5057D5B
:101D200000208DF813028DF8120201218DF8111296
:101D3000ADF80E0240F20510C2F2000042F243710B
:101D4000405C002803F00884FFE740F20510C2F26F
:101D5000000042F24371002242541C218290084646
:101D600003F0AAFF43F6F130C2F200003222819064
:101D70008299FEF709FA49F20C11C0F60001819A26
:101D800080901046FEF720FA43F64041C2F200016F
:101D90000860086849F24C11C0F600010322FEF702
:101DA00005FA002809D0FFE743F6F130C2F200003F
:101DB0000078102840F0FC82FFE749F20C11C0F6D1
:101DC00000010020FEF700FA43F64041C2F2000194
:101DD00008600868008844F64F61884208D0FFE731
:101DE00043F6F130C2F20000407805284ED1FFE7FB
:101DF00042F60040C4F20100002101227F907E9152
:101E00007D9206F0F3FC04207F997C9008467E9931
:101E10007C9A06F08DFA7F987D997D9A06F0E6FC13
:101E20007F987D997C9A06F083FA43F64040C2F28F
:101E300000000068008844F64F6188421AD1FFE72D
:101E400040F20510C2F2000045F25241C0F60D21E9
:101E5000C0F8391045F25341C5F24121C0F836109F
:101E600045F25071C2F24D01C0F832100B20FFF75D
:101E700015FF0AE040F20510C2F20000AC2180F824
:101E800032100120FFF70AFFFFE78FE243F64040E0
:101E9000C2F20000006849F22911C0F600010322D5
:101EA000FEF784F9002808D0FFE743F6F130C2F2CC
:101EB000000040780A284ED1FFE742F60040C4F205
:101EC000010000217B907A917A9A06F08FFC7B9832
:101ED0007A997A9A06F02CFA01207B997990084633
:101EE00079997A9A06F082FC7B9879997A9A06F029
:101EF0001FFA43F64040C2F20000006849F229117F
:101F0000C0F600010322FEF751F9002817D1FFE7C0
:101F100040F20510C2F2000040F60D21418745F263
:101F20005341C5F24F01C0F8361045F25071C2F26C
:101F30004D01C0F832100A20FFF7B0FE0AE040F26F
:101F40000510C2F20000AC2180F832100120FFF72A
:101F5000A5FEFFE729E243F64040C2F20000006818
:101F6000006845F24621C5F24511884209D0FFE7D5
:101F700043F6F130C2F200004078FC2840F0CA80FD
:101F8000FFE743F64040C2F200000068006845F2F7
:101F90004621C5F24511884269D1FFE749F20C118B
:101FA000C0F6000100207890FEF70EF943F640419C
:101FB000C2F200010860086803F06AFBFEF73CFA11
:101FC00041EC100B9FEDD21B51EC110B53EC102B7D
:101FD000FEF7C3F941EC100B51EC100B9FEDCE0B4B
:101FE00053EC102BFEF712F941EC100B51EC100BD7
:101FF000FEF733FAFFF71AFC42F60040C4F2010084
:1020000001217790789A76911146769A06F0EEFB48
:1020100004207799759008467899759A06F088F9A2
:1020200077987699769A06F0E1FB77987699759A83
:1020300006F07EF940F20510C2F2000040F60D21D4
:10204000C18745F24141C4F24541C0F83A1045F21A
:102050002051C4F25041C0F8361045F24621C5F275
:102060004511C0F832100E20FFF718FE51E043F67C
:10207000F130C2F200008178C07840EA0120ADF86A
:102080000E02BDF80E02FEF7D7F941EC100B9FEDE2
:10209000A01B51EC110B53EC102BFEF75EF941EC39
:1020A000100B51EC100B9FED9C0B53EC102BFEF71B
:1020B000ADF841EC100B51EC100BFEF7CEF9FFF729
:1020C000B5FB42F60040C4F20100002101227490E9
:1020D0007391729206F08AFB0420749971900846FD
:1020E0007399719A06F024F974987299729A06F0AD
:1020F0007DFB74987299719A06F01AF940F20510F6
:10210000C2F20000AC2180F832107298FFF7C6FDD1
:10211000FFE749E143F64040C2F200000068008852
:1021200045F24441884208D0FFE743F6F130C2F25D
:1021300000004078D1285FD1FFE743F64040C2F26B
:1021400000000068008845F24441884238D1FFE72A
:1021500049F20C11C0F600010020FEF735F843F6F5
:102160004041C2F20001086042F64440C4F201005E
:10217000026822F0FF02026009687090084603F0CE
:1021800087FAC0B270990A681043086040F20510DF
:10219000C2F2000044F24542C0F60D22C0F83A20D7
:1021A00044F25042C5F24142C0F8362045F2444262
:1021B000C5F22052C0F832200C20FFF76FFD1AE064
:1021C00042F64440C4F20100016821F0FF010160C1
:1021D00043F6F131C2F200018978026811430160CF
:1021E00040F20510C2F20000AC2180F8321001204C
:1021F000FFF754FDFFE7D6E043F64040C2F200008F
:102200000068008844F24431884209D0FFE743F671
:10221000F130C2F200004078DC2840F0C380FFE7D4
:1022200043F64040C2F200000068008844F24431A6
:10223000884277D1FFE749F20C11C0F60001002077
:10224000FDF7C2FF43F64041C2F20001086042F6CA
:102250002C40C4F2010090ED000AB8EE400A0A6872
:102260006F9010466E918DED6D0A03F011FA00EE3D
:10227000100AB8EEC00A9FED2A1A80EE010A9DED01
:102280006D2A22EE000ABCEEC00A42F63440C4F2C7
:10229000010080ED000A6F9890ED000AB8EE400A48
:1022A0006E9908688DED6C1A8DED6B0A03F0F0F9EC
:1022B00000EE100AB8EEC00A9DED6C1A80EE010A1D
:1022C0009DED6B2A22EE000ABCEEC00A42F63840B1
:1022D000C4F2010080ED000A40F20510C2F20000D5
:1022E00044F24541C0F60D21C0F83A1044F2504185
:1022F000C5F24141C0F8361044F24431C5F22051D4
:10230000C0F832100C20FFF7C9FC4AE000BF00BF44
:1023100000000000004CFD40000000000000F0BF85
:102320000000C84242F62C40C4F2010090ED000AC1
:10233000B8EE400A43F6F131C2F200018A7801EEAC
:10234000102AB8EEC11A1FED0A2A81EE021A20EEF9
:10235000010ABCEEC00A42F63442C4F2010282ED28
:10236000000A90ED000AB8EE400A887801EE100AE3
:10237000B8EEC11A81EE021A20EE010ABCEEC00AC4
:1023800042F63840C4F2010080ED000A40F2051028
:10239000C2F20000AC2180F832100120FFF77EFC71
:1023A000FFE7FFE7FFE7FFE7FFE7FFE703F0B2B86C
:1023B00043F64040C2F20000006849F22511C0F621
:1023C00000010322FDF7F2FE002809D0FFE743F6E3
:1023D000F130C2F200000078AD2840F08584FFE7BC
:1023E00049F20C11C0F600010020FDF7EDFE43F6A6
:1023F0004041C2F2000108600868006844F252518E
:10240000C4F24141884209D0FFE743F6F130C2F2FD
:1024100000004078FD2840F0A181FFE700208DF802
:102420001302FFE79DF8130209282ADCFFE7FEF7F5
:10243000CDF800208DF81202FFE79DF81202052862
:1024400018DCFFE79DF8120240F20801C2F2000119
:1024500031F8101043F62442C2F2000252F8203044
:10246000194442F82010FFE79DF8120201308DF860
:102470001202E2E7FFE79DF8130201308DF8130224
:10248000D0E743F64040C2F200000068006844F222
:102490005251C4F24141884240F0C380FFE740F20C
:1024A0000510C2F2000044F24921C5F2553140F84E
:1024B000321F42F23A01818043F62442C2F2000206
:1024C00013684CF6CD4CCCF6CC4CA3FB0C3ECEF3B3
:1024D000CF0E06246A906991214668927246CDF823
:1024E0009CC166936594FEF7F7F80D206A9988728F
:1024F0000A22CA720C236490184663926293FFF713
:10250000CDFB69986A99888044F25612C4F643421A
:102510000A60689A5368DDF89CC1A3FB0C3ECEF3B9
:10252000CF02084665996193FEF7D6F864986A99D8
:102530008872639ACA726298FFF7B0FB44F649400A
:10254000C2F23A006A99086068988268679BA2FBA9
:10255000032CCCF3CF0C04216A9860926246FEF7FC
:10256000BBF864986A990872639A4A721046FFF73A
:1025700095FB69986A99888044F25452C5F24D02DD
:102580000A60689AD368DDF89CC1A3FB0C3ECEF3C9
:10259000CF02084665995F93FEF79EF864986A99A2
:1025A0008872639ACA726298FFF778FB69986A9991
:1025B000888044F25612C4F643520A60689A13693E
:1025C000DDF89CC1A3FB0C3ECEF3CF020846659913
:1025D0005E93FEF781F864986A998872639ACA726A
:1025E0006298FFF75BFB69986A99888044F25622EB
:1025F000C5F255320A60689A5369DDF89CC1A3FBA5
:102600000C3ECEF3CF02084665995D93FEF764F861
:1026100064986A998872639ACA726298FFF73EFB5F
:1026200082E043F62440C2F2000001684CF6CD423D
:10263000CCF6CC42A1FB0213DB0A40F2051CC2F22D
:10264000000C8CF832300368A3FB023E4FEADE0E2A
:102650008CF833E04FF0200E8CF834E04468A4FB93
:102660000245ED0A8CF835504568A5FB0256F60880
:102670008CF836608CF837E08668A6FB0267FF0AA4
:102680008CF838708768A7FB02784FEAD8088CF876
:1026900039808CF83AE0D0F80C80A8FB02894FEA28
:1026A000D9298CF83B90D0F80C90A9FB029A4FEAFC
:1026B000DA0A8CF83CA08CF83DE0D0F810A0AAFB18
:1026C00002AB4FEADB2B8CF83EB0D0F810B05C9038
:1026D000ABFB02B0C0088CF83F008CF840E05C987F
:1026E000D0F814E0AEFB02E0C00A8CF841005C9820
:1026F0004069A0FB0202D2088CF8422011225B90B4
:1027000010465A9159935894579556965597CDF827
:102710005081CDF84C91CDF848A1CDF844B1CDF819
:1027200040E1FFF7BBFAFFE700208DF81202FFE758
:102730009DF81202052810DCFFE79DF8120243F60F
:102740002441C2F20001002241F82020FFE79DF859
:10275000120201308DF81202EAE7C3E243F640406C
:10276000C2F20000006849F25C11C0F600010722C5
:10277000FDF71CFD002809D0FFE743F6F130C2F257
:10278000000040785A2840F07281FFE743F640404D
:10279000C2F20000006849F25C11C0F60001072295
:1027A000FDF704FD002840F0D980FFE749F20C1145
:1027B000C0F6000100204F90FDF706FD43F64041B2
:1027C000C2F200010860086802F062FF43F644416B
:1027D000C2F20001088043F6DA30C2F200004F99DD
:1027E0000180FFE743F6DA30C2F20000008843F6CA
:1027F0004441C2F200010988884280F2AE80FFE7BE
:10280000FDF7E4FE40F20510C2F2000044F2492157
:10281000C5F2553140F8321F42F23A01818040F250
:102820000802C2F2000213884FF0060C4E904D9140
:1028300061464C921A46CDF82CC1FDF74DFF0D2094
:102840004E9988720A22CA720C234A9018464992FD
:102850004893FFF723FA4D984E99888044F2561218
:10286000C4F643420A604C9A528808464B99FDF7D9
:1028700033FF4A984E998872499ACA724898FFF76E
:102880000DFA44F64940C2F23A004E9908604C985D
:10289000828804214E98FDF71FFF4A984E990872CE
:1028A000499A4A721046FFF7F9F94D984E99888077
:1028B00044F25452C5F24D020A604C9AD28808463E
:1028C0004B99FDF709FF4A984E998872499ACA7246
:1028D0004898FFF7E3F94D984E99888044F25612D4
:1028E000C4F643520A604C9A128908464B99FDF788
:1028F000F3FE4A984E998872499ACA724898FFF72F
:10290000CDF94D984E99888044F25622C5F2553241
:102910000A604C9A528908464B99FDF7DDFE4A98A9
:102920004E998872499ACA724898FFF7B7F942F6E9
:102930002D50C0F60D204E9988604FF02D30486024
:1029400008604898FFF7AAF9FFE743F6DA30C2F2C9
:10295000000001880131018044E787E0FEF72AFF8B
:1029600043F6F130C2F200008178C07840EA0120DD
:1029700043F64441C2F20001088043F6E030C2F25F
:10298000000000210180FFE743F6E030C2F20000C2
:10299000008843F64441C2F200010988884232DAD5
:1029A000FFE7FDF713FE40F20800C2F20000417895
:1029B00040F2EA02C2F20002D17101881172C178BC
:1029C0005172418891724179D17281881173C179B4
:1029D0005173C1889173417AD17301891174C17A9D
:1029E0005174408990740020D074212010750E20FD
:1029F000FEF7C8FEFFE743F6E030C2F200000188B0
:102A000001310180C0E743F6E030C2F200000088E7
:102A100043F64441C2F200010988884225DBFFE702
:102A200040F60040C4F20100042120234790469163
:102A3000469A04F0B9FA2820102347994590084691
:102A40004599469A04F0B0FA082347984599469A62
:102A500004F0AAFA40F60000C4F201004FF400436B
:102A60004599469A04F0A0FAFFE7FFE739E143F6FB
:102A70004040C2F20000006849F22D11C0F600018A
:102A80000822FDF793FB002809D0FFE743F6F13059
:102A9000C2F200004078372840F0B680FFE743F6E6
:102AA0004040C2F20000006849F22D11C0F600015A
:102AB0000822FDF77BFB002824D1FFE749F20C1127
:102AC000C0F600010020FDF77FFB43F64041C2F253
:102AD00000010860086802F0DBFD8DF8130240F287
:102AE0000510C2F20000323049F2CF01C0F60001F9
:102AF00012224492FDF748FB449943900846FFF7A1
:102B0000CDF811E043F6F130C2F2000080788DF884
:102B1000130240F20510C2F20000AC2180F832101E
:102B20000120FFF7BBF8FFE743F64740C2F2000081
:102B3000012101709DF813020138014605284291D8
:102B400047D84299DFE801F0030E19242F3A42F2E8
:102B50000040C4F2010000214191419A419B03F0E1
:102B600007FA41E042F20040C4F2010001220021D4
:102B70004091409B03F0FCF936E042F20040C4F281
:102B80000100022200213F913F9B03F0F1F92BE06D
:102B900042F20040C4F20100032200213E913E9B1C
:102BA00003F0E6F920E042F20040C4F20100052201
:102BB00000213D913D9B03F0DBF915E042F200401E
:102BC000C4F20100062200213C913C9B03F0D0F9A5
:102BD0000AE042F20040C4F2010000213B913B9A1E
:102BE0003B9B03F0C5F9FFE7FEF7E4FD41F200006F
:102BF000C4F201004FF4004104F0A0FA43F6E831BA
:102C0000C2F2000108706BE043F64040C2F20000DF
:102C10000068006845F25341C5F24F01884208D070
:102C2000FFE743F6F130C2F200004078302856D179
:102C3000FFE743F64740C2F200000021017040F672
:102C40000040C4F20100042120233A903991399ABE
:102C500004F0AAF9282010233A99389008463899A8
:102C6000399A04F0A1F908233A983899399A04F06E
:102C70009BF940F60000C4F201004FF4004338997C
:102C8000399A04F091F943F64040C2F2000000681E
:102C9000006845F25341C5F24F01884213D1FFE766
:102CA00040F20510C2F20000323049F2BD01C0F618
:102CB000000111223792FDF767FA379936900846DE
:102CC000FEF7ECFF0AE040F20510C2F20000AC2172
:102CD00080F832100120FEF7E1FFFFE7FFE7FFE792
:102CE000FFE7FFE702F015BC43F64040C2F20000E8
:102CF000006849F22111C0F600010322FDF756FADF
:102D0000002809D0FFE743F6F130C2F20000007856
:102D1000DC2840F08180FFE700208DF81102FEF7EB
:102D20002BFD43F64840C2F200000121017043F63A
:102D30004040C2F20000006849F22111C0F60001D3
:102D40000322FDF733FA002836D1FFE749F20C11D0
:102D5000C0F6000100203590FDF736FA43F64041F9
:102D6000C2F200010860086802F092FC35993490C4
:102D70000846349A03F078FE359803F0CFFE40F20F
:102D80000510C2F200000A2180F83E1044F25451AE
:102D9000C0F64451C0F83A1045F25501C4F244114E
:102DA000C0F8361044F24411C2F24301C0F83210A8
:102DB0000D20FEF773FF2DE040F2BC00C2F20000D0
:102DC0000121017043F6F130C2F2000042788378AD
:102DD00043EA022243F6EE33C2F200031A8042783D
:102DE000807840EA022200203390339B32911946CA
:102DF00003F03AFE339803F091FEFEF7DBFC40F25D
:102E00000510C2F20000AC2180F832103298FEF7B3
:102E100045FFFFE702F07CBB43F64040C2F20000F2
:102E20000068006845F24701C4F64971884209D03C
:102E3000FFE743F6F130C2F2000000786F2842F05D
:102E40007F82FFE749F20C11C0F600010020FDF778
:102E5000BBF943F64041C2F200010860086800680F
:102E600044F25251C4F24141884209D0FFE743F68F
:102E7000F130C2F2000040787D2840F00682FFE782
:102E800043F64040C2F200000068006844F252512C
:102E9000C4F24141884240F04D81FFE741F2000019
:102EA000C4F201004FF4005104F048F901281DD18B
:102EB000FFE740F20510C2F200000A2180F83E1040
:102EC00044F24971C0F64851C0F83A1043F6452122
:102ED000C4F62001C0F8361045F25341C5F2414115
:102EE000C0F832100D20FEF7D9FE19E040F20510AF
:102EF000C2F2000045F24F71C0F60D21C0F83A1041
:102F000043F64521C4F62041C0F8361045F253413E
:102F1000C5F24141C0F832100C20FEF7BFFEFFE7BA
:102F200041F20000C4F201004FF4004104F006F940
:102F300001281DD1FFE740F20510C2F2000040F663
:102F40000D21C18744F64811C4F64701C0F83A1074
:102F500044F24C51C2F23A01C0F8361044F64561D1
:102F6000C4F24121C0F832100E20FEF797FE1CE09B
:102F700040F20510C2F200000A2180F83E1044F62B
:102F80004C71C0F65751C0F83A1044F24C51C2F29D
:102F90003A01C0F8361044F64561C4F24121C0F848
:102FA00032100D20FEF77AFEFFE740F60040C4F233
:102FB0000100022104F0C2F801281DD1FFE740F210
:102FC0000510C2F200000A2180F83E1044F2497157
:102FD000C0F64851C0F83A1043F64B21C4F6200120
:102FE000C0F8361044F25741C4F65F71C0F8321091
:102FF0000D20FEF753FE19E040F20510C2F200006A
:1030000045F24F71C0F60D21C0F83A1043F64B213E
:10301000C4F62041C0F8361044F25741C4F65F713F
:10302000C0F832100C20FEF739FEFFE740F60040F2
:10303000C4F201004FF4805104F080F801281AD145
:10304000FFE740F20510C2F2000044F64701C0F667
:103050000D21C0F8391044F62001C4F24971C0F8BE
:10306000361044F24F31C3F65021C0F832100B2015
:10307000FEF714FE16E040F20510C2F2000040F622
:103080000D21418744F62041C5F24F71C0F836103A
:1030900044F24F31C3F65021C0F832100A20FEF737
:1030A000FDFDFFE740F60040C4F20100202104F0DE
:1030B00045F8012820D1FFE740F20510C2F20000D8
:1030C00044F64701C0F60D21C0F83D1044F620013A
:1030D000C4F24971C0F83A1044F65F11C3F64E21AC
:1030E000C0F8361045F65311C4F24E31C0F8321014
:1030F0000E20FEF7D3FD1CE040F20510C2F20000E6
:1031000040F60D21C18744F62041C5F24F71C0F849
:103110003A1044F65F11C3F64E21C0F8361045F65A
:103120005311C4F24E31C0F832100D20FEF7B6FD37
:10313000FFE7A8E040F20510C2F20000002180F88D
:10314000321041F20000C4F201004FF4005103F0CC
:10315000F5FF01280BD1FFE740F20510C2F2000095
:1031600090F832104900013180F8321009E040F245
:103170000510C2F2000090F83210490080F83210B9
:10318000FFE741F20000C4F201004FF4004103F0F8
:10319000D5FF01280BD1FFE740F20510C2F2000075
:1031A00090F832104900013180F8321009E040F205
:1031B0000510C2F2000090F83210490080F8321079
:1031C000FFE740F60040C4F20100022103F0B6FF21
:1031D00001280BD1FFE740F20510C2F2000090F881
:1031E00032104900013180F8321009E040F2051038
:1031F000C2F2000090F83210490080F83210FFE768
:1032000040F60040C4F201004FF4805103F096FFF5
:1032100001280BD1FFE740F20510C2F2000090F840
:1032200032104900013180F8321009E040F20510F7
:10323000C2F2000090F83210490080F83210FFE727
:1032400040F60040C4F20100202103F077FF01287E
:103250000BD1FFE740F20510C2F2000090F83210E7
:103260004900013180F8321009E040F20510C2F245
:10327000000090F83210490080F83210FFE701207A
:10328000FEF70CFDFFE702F05AB843F64040C2F2E9
:103290000000006849F23611C0F600010722FCF771
:1032A00085FF002809D0FFE743F6F130C2F20000A5
:1032B00040787F2841F0BF82FFE7FDF7F9FA43F637
:1032C0004040C2F20000006849F23611C0F6000129
:1032D0000722FCF76BFF002840F03E87FFE741F232
:1032E0000000C4F201004FF4005103F027FF012851
:1032F0001DD1FFE740F20510C2F200000A2180F85C
:103300003E1044F24971C0F64851C0F83A1043F6F5
:103310004521C4F62001C0F8361045F25341C5F2EC
:103320004141C0F832100D20FEF7B8FC19E040F220
:103330000510C2F2000045F24F71C0F60D21C0F831
:103340003A1043F64521C4F62041C0F8361045F244
:103350005341C5F24141C0F832100C20FEF79EFCEB
:10336000FFE741F20000C4F201004FF4804103F096
:10337000E5FE01281DD1FFE740F20510C2F2000072
:103380000A2180F83E1044F24971C0F64851C0F855
:103390003A1043F64D21C4F62001C0F8361044F629
:1033A0004141C5F24121C0F832100D20FEF776FCF4
:1033B00019E040F20510C2F2000045F24F71C0F66C
:1033C0000D21C0F83A1043F64D21C4F62041C0F853
:1033D000361044F64141C5F24121C0F832100C20AC
:1033E000FEF75CFCFFE741F20000C4F201004FF47D
:1033F000004103F0A3FE01281DD1FFE740F20510B4
:10340000C2F2000040F60D21C18744F64811C4F60F
:103410004701C0F83A1044F24C51C2F23A01C0F8E8
:10342000361044F64561C4F24121C0F832100E2036
:10343000FEF734FC1CE040F20510C2F200000A2145
:1034400080F83E1044F64C71C0F65751C0F83A105F
:1034500044F24C51C2F23A01C0F8361044F64561CC
:10346000C4F24121C0F832100D20FEF717FCFFE72F
:1034700040F60000C4F20100012103F05FFE0128C4
:103480001AD1FFE740F20510C2F2000044F64701EE
:10349000C0F60D21C0F83A1042F23A01C4F64811C4
:1034A000C0F8361044F24921C5F25531C0F8321047
:1034B0000C20FEF7F3FB19E040F20510C2F2000009
:1034C00045F24F71C0F60D21C0F8391042F23A01B1
:1034D000C4F64C71C0F8361044F24921C5F255319A
:1034E000C0F832100B20FEF7D9FBFFE740F60000D2
:1034F000C4F20100022103F021FE01281AD1FFE7E6
:1035000040F20510C2F2000044F64701C0F60D215A
:10351000C0F83A1042F23A01C4F64811C0F8361029
:1035200044F25611C4F64341C0F832100C20FEF7A5
:10353000B5FB19E040F20510C2F2000045F24F71F0
:10354000C0F60D21C0F8391042F23A01C4F64C71B0
:10355000C0F8361044F25611C4F64341C0F8321098
:103560000B20FEF79BFBFFE740F60000C4F20100D2
:10357000042103F0E3FD012817D1FFE740F2051015
:10358000C2F2000040F60D21418744F64811C4F60E
:103590004701C0F8361044F64941C2F23A01C0F87A
:1035A00032100A20FEF77AFB16E040F20510C2F254
:1035B00000000A2180F83A1044F64C71C0F65751C9
:1035C000C0F8361044F64941C2F23A01C0F8321050
:1035D0000920FEF763FBFFE740F60000C4F201009C
:1035E000082103F0ABFD01281AD1FFE740F20510D6
:1035F000C2F2000044F64701C0F60D21C0F83A10AF
:1036000042F23A01C4F64811C0F8361044F254515F
:10361000C5F24D01C0F832100C20FEF73FFB19E057
:1036200040F20510C2F2000045F24F71C0F60D21C4
:10363000C0F8391042F23A01C4F64C71C0F83610A5
:1036400044F25451C5F24D01C0F832100B20FEF780
:1036500025FBFFE740F60000C4F20100102103F053
:103660006DFD01281DD1FFE740F20510C2F20000F8
:1036700040F60D21C18744F64811C4F64701C0F851
:103680003A1044F65401C2F23A01C0F8361044F23E
:103690004F31C5F65071C0F832100E20FEF7FEFA19
:1036A0001CE040F20510C2F200000A2180F83E1032
:1036B00044F64C71C0F65751C0F83A1044F6540124
:1036C000C2F23A01C0F8361044F24F31C5F65071DB
:1036D000C0F832100D20FEF7E1FAFFE740F60000D7
:1036E000C4F20100202103F029FD01281AD1FFE7CF
:1036F00040F20510C2F2000044F64701C0F60D2169
:10370000C0F83A1042F23A01C4F64811C0F8361037
:1037100044F25611C4F64361C0F832100C20FEF793
:10372000BDFA19E040F20510C2F2000045F24F71F7
:10373000C0F60D21C0F8391042F23A01C4F64C71BE
:10374000C0F8361044F25611C4F64361C0F8321086
:103750000B20FEF7A3FAFFE740F60000C4F20100D9
:10376000402103F0EBFC01281AD1FFE740F20510DD
:10377000C2F2000044F64701C0F60D21C0F83A102D
:1037800042F23A01C4F64811C0F8361044F256210C
:10379000C5F25531C0F832100C20FEF77FFA19E05F
:1037A00040F20510C2F2000045F24F71C0F60D2143
:1037B000C0F8391042F23A01C4F64C71C0F8361024
:1037C00044F25621C5F25531C0F832100B20FEF7F5
:1037D00065FAFFE740F60000C4F20100802103F023
:1037E000ADFC01281DD1FFE740F20510C2F2000038
:1037F0000A2180F83E1044F24971C0F64851C0F8E1
:103800003A1043F65921C4F62001C0F8361044F2AC
:103810005251C4F24C11C0F832100D20FEF73EFA9E
:1038200019E040F20510C2F2000045F24F71C0F6F7
:103830000D21C0F83A1043F65921C4F62041C0F8D2
:10384000361044F25251C4F24C11C0F832100C2020
:10385000FEF724FAFFE740F60040C4F20100012120
:1038600003F06CFC012817D1FFE740F20510C2F20B
:10387000000040F60D21418744F64811C4F6470187
:10388000C0F8361044F25741C2F23A01C0F8321083
:103890000A20FEF703FA16E040F20510C2F200001B
:1038A0000A2180F83A1044F64C71C0F65751C0F81E
:1038B000361044F25741C2F23A01C0F832100920E2
:1038C000FEF7ECF9FFE740F60040C4F201000221E8
:1038D00003F034FC01281DD1FFE740F20510C2F2CD
:1038E00000000A2180F83E1044F24971C0F64851A8
:1038F000C0F83A1043F64B21C4F62001C0F8361048
:1039000044F25741C4F65F71C0F832100D20FEF743
:10391000C5F919E040F20510C2F2000045F24F71FE
:10392000C0F60D21C0F83A1043F64B21C4F62041F1
:10393000C0F8361044F25741C4F65F71C0F8321037
:103940000C20FEF7ABF9FFE740F60040C4F201009F
:10395000042103F0F3FB012820D1FFE740F205101A
:10396000C2F2000044F64701C0F60D21C0F83E1037
:1039700042F23A01C4F64811C0F83A1045F65471C3
:10398000C4F24451C0F8361045F25531C5F2412118
:10399000C0F832101020FEF781F91FE040F2051048
:1039A000C2F2000045F24F71C0F60D21C0F83D1083
:1039B00042F23A01C4F64C71C0F83A1045F654711F
:1039C000C4F24451C0F8361045F25531C5F24121D8
:1039D000C0F832100F20FEF761F9FFE740F6004013
:1039E000C4F201004FF4806103F0A8FB012820D14C
:1039F000FFE740F20510C2F2000044F64701C0F6AE
:103A00000D21C0F83E1042F23A01C4F64811C0F848
:103A10003A1045F65471C5F65401C0F8361045F217
:103A20005531C5F24121C0F832101020FEF736F9A9
:103A30001FE040F20510C2F2000045F24F71C0F6DF
:103A40000D21C0F83D1042F23A01C4F64C71C0F8A5
:103A50003A1045F65471C5F65401C0F8361045F2D7
:103A60005531C5F24121C0F832100F20FEF716F98A
:103A7000FFE740F60040C4F201004FF4006103F09C
:103A80005DFB012820D1FFE740F20510C2F20000E3
:103A900044F64701C0F60D21C0F83E1042F23A014B
:103AA000C4F64811C0F83A1045F65471C5F65201F3
:103AB000C0F8361045F25531C5F24121C0F8321038
:103AC0001020FEF7EBF81FE040F20510C2F20000F4
:103AD00045F24F71C0F60D21C0F83D1042F23A0197
:103AE000C4F64C71C0F83A1045F65471C5F652014F
:103AF000C0F8361045F25531C5F24121C0F83210F8
:103B00000F20FEF7CBF8FFE740F60040C4F20100BB
:103B10004FF4805103F012FB01281AD1FFE740F265
:103B20000510C2F2000040F64851C0F20A01C0F888
:103B30003A1044F62001C4F24971C0F8361044F23C
:103B40004F31C3F65021C0F832100C20FEF7A6F812
:103B500017E040F20510C2F2000040F60D21C0F857
:103B60003A1044F62041C5F24F71C0F8361044F2C5
:103B70004F31C3F65021C0F832100B20FEF78EF8FB
:103B8000FFE740F60040C4F201004FF4005103F09B
:103B9000D5FA01281DD1FFE740F20510C2F200005E
:103BA00040F60D21C18744F64811C4F64701C0F81C
:103BB0003A1044F65301C2F23A01C0F8361045F209
:103BC0005071C5F64D71C0F832100E20FEF766F840
:103BD0001CE040F20510C2F200000A2180F83E10FD
:103BE00044F64C71C0F65751C0F83A1044F65301F0
:103BF000C2F23A01C0F8361045F25071C5F64D7167
:103C0000C0F832100D20FEF749F8FFE740F60040FB
:103C1000C4F201004FF4804103F090FA01281DD155
:103C2000FFE740F20510C2F2000040F60D21C18707
:103C300044F64811C4F64701C0F83A1044F653411F
:103C4000C2F23A01C0F8361045F25071C5F64D7116
:103C5000C0F832100E20FEF721F81CE040F20510EB
:103C6000C2F200000A2180F83E1044F64C71C0F602
:103C70005751C0F83A1044F65341C2F23A01C0F825
:103C8000361045F25071C5F64D71C0F832100D2056
:103C9000FEF704F8FFE740F60040C4F201004FF4DD
:103CA000004103F04BFA01281AD1FFE740F205105A
:103CB000C2F2000044F64701C0F60D21C0F83A10E8
:103CC00042F23A01C4F64811C0F8361044F24C51A1
:103CD000C3F24411C0F832100C20FDF7DFFF19E0E9
:103CE00040F20510C2F2000045F24F71C0F60D21FE
:103CF000C0F8391042F23A01C4F64C71C0F83610DF
:103D000044F24C51C3F24411C0F832100B20FDF7BD
:103D1000C5FFFFE740F60000C4F201004FF48071D8
:103D200003F00CFA01281DD1FFE740F20510C2F2A2
:103D3000000040F60D21C18744F64811C4F6470142
:103D4000C0F83A1044F64601C2F23A01C0F8361003
:103D500045F25071C5F64D71C0F832100E20FDF7D6
:103D60009DFF1CE040F20510C2F200000A2180F81D
:103D70003E1044F64C71C0F65751C0F83A1044F664
:103D80004601C2F23A01C0F8361045F25071C5F64C
:103D90004D71C0F832100D20FDF780FFFFE740F6AF
:103DA0000000C4F201004FF4007103F0C7F90128CC
:103DB0001DD1FFE740F20510C2F2000040F60D21D0
:103DC000C18744F64811C4F64701C0F83A1044F6DA
:103DD0004641C2F23A01C0F8361045F25071C5F6BC
:103DE0004D71C0F832100E20FDF758FF1CE040F274
:103DF0000510C2F200000A2180F83E1044F64C7112
:103E0000C0F65751C0F83A1044F64641C2F23A01A2
:103E1000C0F8361045F25071C5F64D71C0F8321039
:103E20000D20FDF73BFFFFE740F60040C4F2010024
:103E30004FF4005103F082F901281DD1FFE740F251
:103E40000510C2F2000040F60D21C18744F648116A
:103E5000C4F64701C0F83A1044F65301C2F23A01E1
:103E6000C0F8361045F25071C5F64D71C0F83210E9
:103E70000E20FDF713FF1CE040F20510C2F2000017
:103E80000A2180F83E1044F64C71C0F65751C0F834
:103E90003A1044F65301C2F23A01C0F8361045F226
:103EA0005071C5F64D71C0F832100D20FDF7F6FEC9
:103EB000FFE740F60000C4F201004FF4806103F018
:103EC0003DF901281DD1FFE740F20510C2F20000C4
:103ED00040F60D21C18744F64811C4F64701C0F8E9
:103EE0003A1044F64561C2F23A01C0F8361045F284
:103EF0005071C5F64D71C0F832100E20FDF7CEFEA0
:103F00001CE040F20510C2F200000A2180F83E10C9
:103F100044F64C71C0F65751C0F83A1044F645616A
:103F2000C2F23A01C0F8361045F25071C5F64D7133
:103F3000C0F832100D20FDF7B1FEFFE740F600009B
:103F4000C4F201004FF4006103F0F8F801281DD11C
:103F5000FFE740F20510C2F2000040F60D21C187D4
:103F600044F64811C4F64701C0F83A1045F652012C
:103F7000C2F23A01C0F8361044F24311C5F64E7150
:103F8000C0F832100E20FDF789FE1CE040F205104B
:103F9000C2F200000A2180F83E1044F64C71C0F6CF
:103FA0005751C0F83A1045F65201C2F23A01C0F832
:103FB000361044F24311C5F64E71C0F832100D2090
:103FC000FDF76CFEFFE740F60000C4F201004FF47D
:103FD000805103F0B3F801281DD1FFE740F205102E
:103FE000C2F2000040F60D21C18744F64811C4F624
:103FF0004701C0F83A1045F65401C2F23A01C0F840
:10400000361044F24311C5F64E71C0F832100E203E
:10401000FDF744FE1CE040F20510C2F200000A2148
:1040200080F83E1044F64C71C0F65751C0F83A1073
:1040300045F65401C2F23A01C0F8361044F2431179
:10404000C5F64E71C0F832100D20FDF727FEFFE7D0
:1040500040F60040C4F20100202103F06FF801286F
:1040600020D1FFE740F20510C2F2000044F64701FC
:10407000C0F60D21C0F83D1044F62001C4F249718C
:10408000C0F83A1044F65F11C3F64E21C0F836105E
:1040900045F65311C4F24E31C0F832100F20FDF72F
:1040A000FDFD1CE040F20510C2F2000040F60D21BB
:1040B000C18744F62041C5F24F71C0F83A1044F66A
:1040C0005F11C3F64E21C0F8361045F65311C4F205
:1040D0004E31C0F832100E20FDF7E0FDFFE740F64C
:1040E0000040C4F201004FF4807103F027F801286A
:1040F0001AD1FFE740F20510C2F2000044F6470172
:10410000C0F60D21C0F8391044F62001C4F24971FF
:10411000C0F8361044F24611C3F64E21C0F83210F2
:104120000B20FDF7BBFD16E040F20510C2F20000C7
:1041300040F60D21418744F62041C5F24F71C0F889
:10414000361044F24611C3F64E21C0F832100A2050
:10415000FDF7A4FDFFE764E340F20510C2F20000A2
:10416000002180F8321080F8331080F8341080F885
:10417000351041F20000C4F201004FF4005102F08A
:10418000DDFF01280BD1FFE740F20510C2F200006D
:1041900090F832104900013180F8321009E040F205
:1041A0000510C2F2000090F83210490080F8321079
:1041B000FFE741F20000C4F201004FF4804102F039
:1041C000BDFF01280BD1FFE740F20510C2F200004D
:1041D00090F832104900013180F8321009E040F2C5
:1041E0000510C2F2000090F83210490080F8321039
:1041F000FFE741F20000C4F201004FF4004102F079
:104200009DFF01280BD1FFE740F20510C2F200002C
:1042100090F832104900013180F8321009E040F284
:104220000510C2F2000090F83210490080F83210F8
:10423000FFE740F60000C4F20100012102F07EFF1A
:1042400001280BD1FFE740F20510C2F2000090F800
:1042500032104900013180F8321009E040F20510B7
:10426000C2F2000090F83210490080F83210FFE7E7
:1042700040F60000C4F20100022102F05FFF0128B5
:104280000BD1FFE740F20510C2F2000090F83210A7
:104290004900013180F8321009E040F20510C2F205
:1042A000000090F83210490080F83210FFE740F625
:1042B0000000C4F20100042102F040FF01280BD1EC
:1042C000FFE740F20510C2F2000090F832104900FA
:1042D000013180F8321009E040F20510C2F200000E
:1042E00090F83210490080F83210FFE740F60000E5
:1042F000C4F20100082102F021FF01280BD1FFE7E1
:1043000040F20510C2F2000090F83210490001316D
:1043100080F8321009E040F20510C2F2000090F877
:104320003210490080F83210FFE740F60000C4F276
:104330000100102102F002FF01280BD1FFE740F23B
:104340000510C2F2000090F832104900013180F8E7
:10435000321009E040F20510C2F2000090F832106D
:10436000490080F83210FFE740F60000C4F2010077
:10437000202102F0E3FE01280BD1FFE740F20510F7
:10438000C2F2000090F832104900013180F8331079
:1043900009E040F20510C2F2000090F83310490025
:1043A00080F83310FFE740F60000C4F2010040211E
:1043B00002F0C4FE01280BD1FFE740F20510C2F263
:1043C000000090F832104900013180F8331009E004
:1043D00040F20510C2F2000090F83310490080F856
:1043E0003310FFE740F60000C4F20100802102F024
:1043F000A5FE01280BD1FFE740F20510C2F2000034
:1044000090F832104900013180F8331009E040F291
:104410000510C2F2000090F83310490080F8331004
:10442000FFE740F60040C4F20100012102F086FEE1
:1044300001280BD1FFE740F20510C2F2000090F80E
:1044400032104900013180F8331009E040F20510C4
:10445000C2F2000090F83310490080F83310FFE7F3
:1044600040F60040C4F20100022102F067FE01287C
:104470000BD1FFE740F20510C2F2000090F83210B5
:104480004900013180F8331009E040F20510C2F212
:10449000000090F83310490080F83310FFE740F631
:1044A0000040C4F20100042102F048FE01280BD1B3
:1044B000FFE740F20510C2F2000090F83210490008
:1044C000013180F8331009E040F20510C2F200001B
:1044D00090F83310490080F83310FFE740F60040B1
:1044E000C4F201004FF4806102F028FE01280BD1D4
:1044F000FFE740F20510C2F2000090F832104900C8
:10450000013180F8331009E040F20510C2F20000DA
:1045100090F83310490080F83310FFE740F6004070
:10452000C4F201004FF4006102F008FE01280BD133
:10453000FFE740F20510C2F2000090F83210490087
:10454000013180F8331009E040F20510C2F200009A
:1045500090F83310490080F83310FFE740F6004030
:10456000C4F201004FF4805102F0E8FD01280BD1A4
:10457000FFE740F20510C2F2000090F83210490047
:10458000013180F8341009E040F20510C2F2000059
:1045900090F83410490080F83410FFE740F60040EE
:1045A000C4F201004FF4005102F0C8FD01280BD104
:1045B000FFE740F20510C2F2000090F83210490007
:1045C000013180F8341009E040F20510C2F2000019
:1045D00090F83410490080F83410FFE740F60040AE
:1045E000C4F201004FF4804102F0A8FD01280BD174
:1045F000FFE740F20510C2F2000090F832104900C7
:10460000013180F8341009E040F20510C2F20000D8
:1046100090F83410490080F83410FFE740F600406D
:10462000C4F201004FF4004102F088FD01280BD1D3
:10463000FFE740F20510C2F2000090F83210490086
:10464000013180F8341009E040F20510C2F2000098
:1046500090F83410490080F83410FFE740F600006D
:10466000C4F201004FF4807102F068FD01280BD103
:10467000FFE740F20510C2F2000090F83210490046
:10468000013180F8341009E040F20510C2F2000058
:1046900090F83410490080F83410FFE740F600002D
:1046A000C4F201004FF4007102F048FD01280BD163
:1046B000FFE740F20510C2F2000090F83210490006
:1046C000013180F8341009E040F20510C2F2000018
:1046D00090F83410490080F83410FFE740F60000ED
:1046E000C4F201004FF4806102F028FD01280BD1D3
:1046F000FFE740F20510C2F2000090F832104900C6
:10470000013180F8341009E040F20510C2F20000D7
:1047100090F83410490080F83410FFE740F60000AC
:10472000C4F201004FF4006102F008FD01280BD132
:10473000FFE740F20510C2F2000090F83210490085
:10474000013180F8341009E040F20510C2F2000097
:1047500090F83410490080F83410FFE740F600006C
:10476000C4F201004FF4805102F0E8FC01280BD1A3
:10477000FFE740F20510C2F2000090F83210490045
:10478000013180F8351009E040F20510C2F2000056
:1047900090F83510490080F83510FFE740F60040EA
:1047A000C4F20100202102F0C9FC01280BD1FFE76F
:1047B00040F20510C2F2000090F8321049000131B9
:1047C00080F8351009E040F20510C2F2000090F8C0
:1047D0003510490080F83510FFE740F60040C4F27C
:1047E00001004FF4807102F0A9FC01280BD1FFE712
:1047F00040F20510C2F2000090F832104900013179
:1048000080F8351009E040F20510C2F2000090F87F
:104810003510490080F83510FFE70420FDF73EFA17
:10482000FFE7FCF77BFCFDF751FAFCF77DFEFCF798
:1048300073FA00F083BD43F64040C2F20000006806
:10484000006844F64811C4F64701884209D0FFE7E2
:1048500043F6F130C2F200004078FF2840F0EA80D1
:10486000FFE741F20000C4F201004FF40051319023
:10487000309102F091FB4FF4004031992F9008469F
:104880002F9902F089FB40F60040C4F2010002219A
:104890002E902D9102F080FB4FF480502E992C9099
:1048A00008462C9902F078FB20202E992B90084680
:1048B0002B9902F071FB4FF4804031992A90084601
:1048C0002A9902F069FB40F60000C4F20100802141
:1048D000299002F061FB01202E9928900846289922
:1048E00002F05AFB04202E9927900846279902F0DF
:1048F00053FB2E982F9902F04FFB4FF480602999BB
:1049000026900846269902F047FB4FF480702E99B6
:1049100025900846259902F03FFB4FF40071299835
:1049200002F03AFB2998259902F036FB2E982A9935
:1049300002F032FB2E98309902F02EFB299828992C
:1049400002F02AFB29982D9902F026FB2998279935
:1049500002F022FB0820299924900846249902F0AD
:104960001BFB29982B9902F017FB4021299802F094
:1049700013FB1020299923900846239902F00CFB81
:104980002E98269902F008FB4FF400602E99229091
:104990000846229902F000FB29982C9902F0FCFAB3
:1049A0002998229902F0F8FA2E98249902F0F4FA44
:1049B0002E98239902F0F0FA29982F9902F0ECFA38
:1049C00043F64040C2F200000068006844F6481117
:1049D000C4F64701884220D1FFE740F20510C2F239
:1049E000000044F64701C0F60D21C0F83D1044F622
:1049F0002001C4F24971C0F83A1045F24701C4F6EB
:104A00004971C0F8361044F64141C2F24C01C0F879
:104A100032100F20FDF742F90AE040F20510C2F211
:104A20000000AC2180F832100120FDF737F9FFE7D4
:104A300000F083BC43F64040C2F20000006849F237
:104A40006811C0F600010322FBF7B0FB002809D073
:104A5000FFE743F6F130C2F200004078002840F052
:104A6000E880FFE741F20000C4F201004FF400517A
:104A70002190209102F088FA4FF4004021991F9074
:104A800008461F9902F080FA40F60040C4F2010087
:104A900002211E901D9102F077FA4FF480501E996A
:104AA0001C9008461C9902F06FFA20201E991B905A
:104AB00008461B9902F068FA4FF4804021991A9039
:104AC00008461A9902F060FA40F60000C4F20100AC
:104AD0008021199002F058FA01201E99189008467A
:104AE000189902F051FA04201E9917900846179958
:104AF00002F04AFA1E981F9902F046FA4FF48060BD
:104B0000199916900846169902F03EFA4FF48070F3
:104B10001E9915900846159902F036FA4FF4007167
:104B2000199802F031FA1998159902F02DFA1E9889
:104B30001A9902F029FA1E98209902F025FA19987C
:104B4000189902F021FA19981D9902F01DFA199886
:104B5000179902F019FA0820199914900846149927
:104B600002F012FA19981B9902F00EFA40211998D6
:104B700002F00AFA1020199913900846139902F0CE
:104B800003FA1E98169902F0FFF94FF400601E997F
:104B900012900846129902F0F7F919981C9902F040
:104BA000F3F91998129902F0EFF91E98149902F08E
:104BB000EBF91E98139902F0E7F919981F9902F082
:104BC000E3F943F64040C2F20000006849F2681180
:104BD000C0F600010322FBF7E9FA00281DD1FFE728
:104BE00040F20510C2F2000040F60D21C18744F6E4
:104BF0002041C5F24F71C0F83A1045F24701C4F6A2
:104C00004971C0F8361044F64141C2F24C01C0F877
:104C100032100E20FDF742F80AE040F20510C2F211
:104C20000000AC2180F832100120FDF737F8FFE7D3
:104C300082E343F64040C2F20000006849F24511A9
:104C4000C0F600010622FBF7B1FA002809D0FFE701
:104C500043F6F130C2F200004078CC2840F0BA812F
:104C6000FFE743F64040C2F20000006849F24511F8
:104C7000C0F600010622FBF799FA002840F0E18017
:104C8000FFE749F20C11C0F600010020FBF79CFA87
:104C900043F64041C2F200010860086800F0CEFC13
:104CA00043F6E431C2F2000108600878C00700282A
:104CB00009D0FFE741F20000C4F201004FF4804147
:104CC00002F06AF908E041F20000C4F201004FF47A
:104CD000804102F059F9FFE743F6E430C2F20000E8
:104CE00000684008C007002808D0FFE740F6000031
:104CF000C4F20100802102F04FF907E040F6000005
:104D0000C4F20100802102F03FF9FFE743F6E430EE
:104D1000C2F2000000688008C007002808D0FFE742
:104D200040F60040C4F20100012102F035F907E02D
:104D300040F60040C4F20100012102F025F9FFE72E
:104D400043F6E430C2F200000068C008C007002843
:104D500008D0FFE740F60040C4F20100042102F051
:104D60001BF907E040F60040C4F20100042102F004
:104D70000BF9FFE743F6E430C2F2000000680009D7
:104D8000C007002809D0FFE740F60040C4F2010048
:104D90004FF4004102F000F908E040F60040C4F290
:104DA00001004FF4004102F0EFF8FFE743F6E43072
:104DB000C2F2000000680009C007002809D0FFE720
:104DC00040F60000C4F201004FF4806102F0E4F804
:104DD00008E040F60000C4F201004FF4806102F0E8
:104DE000D3F8FFE743F6E430C2F2000000680009A0
:104DF000C007002809D0FFE740F60040C4F20100D8
:104E00004FF4807102F0C8F808E040F60040C4F2A8
:104E100001004FF4807102F0B7F8FFE740F205108F
:104E2000C2F20000323049F28F01C0F600011422B4
:104E30001192FBF7A9F9119910900846FCF72EFF83
:104E4000C7E043F6F130C2F200008078C0070028C6
:104E500009D0FFE741F20000C4F201004FF48041A5
:104E600002F09AF808E041F20000C4F201004FF4A9
:104E7000804102F089F8FFE743F6F130C2F200000A
:104E800080784008C007002808D0FFE740F60000FF
:104E9000C4F20100802102F07FF807E040F6000034
:104EA000C4F20100802102F06FF8FFE743F6F13011
:104EB000C2F2000080788008C007002808D0FFE711
:104EC00040F60040C4F20100012102F065F807E05D
:104ED00040F60040C4F20100012102F055F8FFE75E
:104EE00043F6F130C2F200008078C008C007002805
:104EF00008D0FFE740F60040C4F20100042102F0B0
:104F00004BF807E040F60040C4F20100042102F033
:104F10003BF8FFE743F6F130C2F200008078000969
:104F2000C007002809D0FFE740F60040C4F20100A6
:104F30004FF4004102F030F808E040F60040C4F2BF
:104F400001004FF4004102F01FF8FFE743F6F13093
:104F5000C2F2000080784009C007002809D0FFE7AE
:104F600040F60000C4F201004FF4806102F014F832
:104F700008E040F60000C4F201004FF4806102F046
:104F800003F8FFE743F6F130C2F2000080788009B1
:104F9000C007002809D0FFE740F60040C4F2010036
:104FA0004FF4807101F0F8FF08E040F60040C4F2D1
:104FB00001004FF4807101F0E7FFFFE740F20510B8
:104FC000C2F20000AC2180F832100120FCF766FE2E
:104FD000FFE7B0E143F64040C2F20000006849F24A
:104FE0005411C0F600010722FBF7E0F8002808D0B2
:104FF000FFE743F6F130C2F200004078AA2867D1FB
:10500000FFE743F64040C2F20000006849F2541145
:10501000C0F600010722FBF7C9F8002829D1FFE7F5
:1050200049F20C10C0F6000000210F9008460F9ABC
:105030000E911146FBF7C8F843F64041C2F2000159
:10504000086008680D9100F023FB43F63E41C2F270
:10505000000108800E980F99FBF7B6F80D990860CB
:10506000086800F015FB43F63C41C2F200010880DD
:1050700016E043F6F130C2F200008178C27842EACD
:10508000012143F63E42C2F20002118001794079CB
:1050900040EA012043F63C41C2F200010880FFE7EC
:1050A00043F63E40C2F20000008841F28831884257
:1050B0000DDCFFE743F6EA30C2F200000121017087
:1050C0001C2000F0F9FD322000F014FEFFE731E172
:1050D00043F64040C2F20000006849F26411C0F695
:1050E00000010322FBF762F8002808D0FFE743F62F
:1050F000F130C2F200004078A02830D1FFE7FBF782
:10510000AFFC43F64040C2F20000006849F264116F
:10511000C0F600010322FBF749F8002813D1FFE78E
:1051200040F20510C2F20000323049F2A401C0F68C
:10513000000118220C92FBF727F80C990B900846F7
:10514000FCF7ACFD0AE040F20510C2F20000AC2111
:1051500080F832100120FCF7A1FDFFE7E9E043F6FB
:105160004040C2F20000006849F23E11C0F6000162
:105170000622FBF71BF8002808D0FFE743F6F130C2
:10518000C2F200004078A42836D1FFE7FBF7C6FF43
:1051900043F6EB30C2F200000021017043F64040BC
:1051A000C2F20000006849F23E11C0F6000106227A
:1051B000FAF7FCFF002813D1FFE740F20510C2F216
:1051C0000000323049F26F01C0F600011F220A923E
:1051D000FAF7DAFF0A9909900846FCF75FFD0AE042
:1051E00040F20510C2F20000AC2180F8321001201C
:1051F000FCF754FDFFE79BE043F64040C2F200009D
:10520000006849F21111C0F600010722FAF7CEFF3B
:10521000002808D0FFE743F6F130C2F200004078E2
:10522000852836D1FFE7FBF797FD43F6EB30C2F256
:1052300000000121017043F64040C2F20000006806
:1052400049F21111C0F600010722FAF7AFFF00285A
:1052500013D1FFE740F20510C2F20000323049F2EC
:105260003701C0F600011B220892FAF78DFF08995A
:1052700007900846FCF712FD0AE040F20510C2F262
:105280000000AC2180F832100220FCF707FDFFE798
:105290004DE043F64040C2F20000006849F21911A7
:1052A000C0F600010722FAF781FF002808D0FFE7C7
:1052B00043F6F130C2F200004078582836D1FFE7BB
:1052C000FBF73CFE43F6EB30C2F200000221017016
:1052D00043F64040C2F20000006849F21911C0F6DE
:1052E00000010722FAF762FF002813D1FFE740F21E
:1052F0000510C2F20000323049F25301C0F600013D
:105300001B220692FAF740FF069905900846FCF723
:10531000C5FC0AE040F20510C2F20000AC2180F8A2
:1053200032100220FCF7BAFCFFE7FFE7FFE7FFE7D8
:10533000FFE7FFE7FFE7FFE7FFE7FFE7FFE7E6E05D
:1053400043F64040C2F200000068006844F2551184
:10535000C5F25241884208D0FFE743F6F130C2F26D
:1053600000000078CA2861D1FFE749F20C11C0F6AD
:1053700000010020FAF728FF43F64041C2F2000185
:1053800008600868008844F65451884208D0FFE756
:1053900043F6F130C2F200000078CA2845D1FFE799
:1053A00040F2BD00C2F2000043F23101C0F60D210F
:1053B000016243F25131C3F23201C16142F24F0145
:1053C000C5F24D01816144F24851C4F64C4141613E
:1053D0001020FCF791F843F64040C2F2000000684C
:1053E000008844F65451884213D1FFE740F205107B
:1053F000C2F20000323049F2E201C0F6000115228B
:105400000492FAF7C1FE049903900846FCF746FCA3
:105410000AE040F20510C2F20000AC2180F8321020
:105420000120FCF73BFCFFE7FFE76FE043F640405D
:10543000C2F20000006849F25011C0F600010322D8
:10544000FAF7B4FE002808D0FFE743F6F130C2F2C5
:1054500000000078C52858D1FFE749F20C11C0F6CA
:1054600000010020FAF7B0FE43F64041C2F200010D
:1054700008600868008844F65451884208D0FFE765
:1054800043F6F130C2F200000078C5283CD1FFE7B6
:1054900040F21400C2F200005521A0F8A010032130
:1054A00080F8A4104D21C172502101735321417322
:1054B000FBF7A8F843F64040C2F2000000680088FD
:1054C00044F65451884213D1FFE740F20510C2F26E
:1054D0000000323049F2F801C0F6000113220292B6
:1054E000FAF752FE029901900846FCF7D7FB0AE052
:1054F00040F20510C2F20000AC2180F83210012009
:10550000FCF7CCFBFFE7FFE7FFE7FFE7FFE7FFE77D
:10551000FFE7FFE700208DF81302FFE79DF8130275
:1055200031280FDCFFE79DF8130240F20511C2F2AB
:10553000000100220A54FFE79DF8130201308DF8A4
:105540001302EBE79DF81102002804D0FFE71C20AE
:1055500000F0D0FBFFE7FFE70DF5057DBDE8F08F1C
:1055600080B59CB0FBF7DAFDFCF7B0FBFBF7DCFF86
:10557000FBF7D2FB4FF4E130169000211791189100
:10558000199140F20512C2F2000202F132031A939D
:105590001B9216AB0690184605910492FCF7D4FABC
:1055A0002020049981F832000122039010460292D3
:1055B000FCF774FB069810900599119112911391C4
:1055C00040F2BD02C2F2000202F1140314931592DC
:1055D00010A80192FBF7ECFE039801990875029858
:1055E000FBF78AFF05980C900D900F9009900E9094
:1055F00040F2EA01C2F20001CA1D0A9205310B9184
:1056000009A8FBF7B1FF4FF4FA70079005988DF8E1
:1056100021008DF8200007A8FBF710FBFBF7C8F866
:1056200042F6DF60FCF702F90E20FCF7CFF940F6F6
:10563000B730FCF793F91CB080BD000083B0029036
:10564000002001908DF80300FFE702989DF80310F9
:10565000405C00212F280A46C8BF01223A28B8BF63
:1056600001210A4211D0FFE7019840000190029801
:105670009DF80310405C01990844303801909DF872
:10568000030001308DF80300DFE7019803B0704795
:1056900082B001900020ADF80200ADF80000FFE7F5
:1056A0000198BDF80010405C00212F280A46C8BFB1
:1056B00001223A28B8BF01210A4217D0FFE7BDF8FE
:1056C000020000EB80004000ADF802000198BDF838
:1056D0000010405CBDF8021008443038ADF80200FC
:1056E000BDF800000130ADF80000D9E7BDF80200B8
:1056F00002B0704780B582B0009000980138B0F1D8
:10570000807F03D3FFE70120019019E00098013862
:105710004EF21401CEF2000108604FF0FF300F216D
:1057200000F002FB4EF21800CEF2000000210160F2
:105730004EF21000CEF20000072202600191FFE756
:10574000019802B080BD000080B543F64C40C2F223
:105750000000016801310160006842F64701CBF2A8
:10576000A37148434FEA30104EF63341C0F20A01AC
:10577000884226D8FFE743F6D130C2F20000017814
:10578000B1FA81F1490901700078002809D0FFE7DA
:1057900040F60040C4F201004FF4007101F0FCFB40
:1057A0000EE040F60040C4F201004FF4007101F039
:1057B000EBFB43F64C40C2F2000000210160FFE722
:1057C000FFE7FCF7A9FA80BD80B582B04EF688509D
:1057D000CEF20000016841F47001016041F2000066
:1057E000C4F20200016841F00101016041F20401CC
:1057F000C4F2020100220A6041F22C01C4F202014B
:105800000A6001684FF6FF73CEF6F6231940016077
:1058100041F20801C4F202014FF47F030B600168FA
:1058200021F480210160019202F05EFD4FF00060E2
:10583000019902F053FA02B080BD000080B542F633
:105840000040C4F20100012103F0C0F9002808D093
:10585000FFE742F60040C4F20100012103F0AAF97B
:10586000FFE780BD80B54FF08040012103F0AEF925
:10587000002879D0FFE74FF08040012103F09AF92A
:1058800043F64640C2F200000078002826D1FFE728
:1058900040F20510C2F2000043F23201C0F60D21C1
:1058A000C0F83E1045F22061C2F63161C0F83A10EE
:1058B00042F25401C4F64F31C0F8361045F253415C
:1058C000C5F24121C0F832101020FCF7E7F943F689
:1058D0004640C2F200000121017044E043F6464018
:1058E000C2F20000007800283CD0FFE740F205102B
:1058F000C2F20000007800281FD0FFE743F6000046
:10590000C4F2010042F20B2103F0BCFA012814D1C9
:10591000FFE743F60000C4F2010042F20B2103F05E
:105920009BFA40F20510C2F2000042F243710122DC
:1059300042541C2000F0C0F9FFE740F2BC00C2F264
:105940000000007800280CD1FFE740F20510C2F2F9
:1059500000000078002804D1FFE73220FCF768F847
:10596000FFE7FFE7FFE7FFE780BD000080B584B0F9
:1059700040F60040C4F20000012103F027F900289E
:1059800000F09881FFE740F60040C4F200000121DA
:1059900003F010F943F6EA30C2F200000078002864
:1059A00000F08781FFE743F65040C2F20000018813
:1059B00001310180008843F63C41C2F200010988B0
:1059C0004FF4FA52B2FBF1F1884240F3D980FFE77D
:1059D00043F6DE30C2F20000008843F63E41C2F2D8
:1059E00000010988884280F2CB80FFE743F65040EF
:1059F000C2F200000021018041F20000C4F2010067
:105A00004FF4005101F09AFB01280ED1FFE743F655
:105A1000DE30C2F20000008842F64901C2F2000105
:105A20000A5C520001320A540CE043F6DE30C2F246
:105A30000000008842F64901C2F200010A5C5200EF
:105A40000A54FFE741F20000C4F201004FF40041A4
:105A500001F074FB01280ED1FFE743F6DE30C2F2FD
:105A60000000008842F64901C2F200010A5C5200BF
:105A700001320A540CE043F6DE30C2F20000008826
:105A800042F64901C2F200010A5C52000A54FFE7E3
:105A900040F60040C4F20100022101F04FFB012852
:105AA0000ED1FFE743F6DE30C2F20000008842F676
:105AB0004901C2F200010A5C520001320A540CE0B2
:105AC00043F6DE30C2F20000008842F64901C2F21D
:105AD00000010A5C52000A54FFE740F60040C4F29D
