:020000040800F2
:1000000058400020650100086D0100086F010008DC
:10001000710100087301000875010008000000006C
:100020000000000000000000000000007701000850
:1000300079010008000000007B010008F956000863
:100040007F0100087F0100087F0100087F01000890
:100050007F0100087F0100087F0100087F01000880
:100060007F0100087F0100087F0100087F01000870
:100070007F0100087F0100087F0100087F01000860
:100080007F0100087F0100087F0100087F01000850
:100090007F0100087F0100087F0100087F01000840
:1000A0007F010008ED5700087F0100087F0100086C
:1000B000155800087F0100087F0100087F01000833
:1000C0007F0100087F0100087F0100087F01000810
:1000D0007F0100087F0100087F0100087F01000800
:1000E0007F0100087F0100087F0100087F010008F0
:1000F0007F0100087F0100087F0100080000000068
:100100007F01000800000000055900087F01000879
:100110007F0100087F0100087F0100087F010008BF
:100120007F0100087F0100087F0100087F010008AF
:100130007F01000800000000000000007F010008AF
:100140007F0100087F0100087F0100087F0100088F
:10015000DFF80CD000F028FA0048004701720008D0
:10016000584000200648804706480047FEE7FEE763
:10017000FEE7FEE7FEE7FEE7FEE7FEE7FEE7FEE757
:10018000795700085101000840EA01039B0703D09A
:1001900009E008C9121F08C0042AFAD203E011F8C6
:1001A000013B00F8013B521EF9D2704730B50446BE
:1001B0000020034600E05B1C934203D2E05CCD5C70
:1001C000401BF8D030BD000070B50F4D00B9286855
:1001D000002412E00A4602E09E4203D0521C13782B
:1001E000002BF9D1DAB2224305D02BB124B1002182
:1001F00000F8011B04E00446401C0678002EE9D1FB
:100200002860204670BD0000000000202DE9FE4F50
:10021000804681EA0300C00F0C46009021F00041A7
:1002200023F00045B8EB0200A94105D24046214623
:1002300090461C460B46024623F00040104347D030
:10024000270DC7F30A00C3F30A510290401A019028
:1002500040286BDAC3F3130040F4801B00989246E9
:1002600020B10023D2EB030A63EB0B0B0198594634
:10027000C0F14002504600F009F906460D465046CE
:100280005946019A00F021F910EB08006141002461
:1002900087EA115284EAE7731A4340D0009A62B3A6
:1002A000019A012A4FEA075215DC001B61EB02019B
:1002B0004FF0004202EA0752CDE90042001C41F52E
:1002C000801132462B4600F021F903B0BDE8F08FD3
:1002D00040462146F9E7001B61EB0201001C41F595
:1002E000801300185B412018A2F5001747EB0301AB
:1002F00040EAD570B6196D4111E06D084FEA360637
:1003000045EAC0754FEA0752001B61EB0201001C71
:1003100041F5801149084FEA300000195141324639
:100320002B4603B0BDE8F04F00F0E1B80098012281
:1003300040000023D0EB020263EBE07300982146FB
:100340004FEAE074B8EB000061EB0401E9E783F0E9
:1003500000435BE781F0004158E72DE9F04D81EA69
:10036000030404F0004B21F0004514464FF0000A4E
:1003700023F0004150EA050220D054EA01021DD0CA
:10038000C5F30A570246C5F31303C1F31300C1F3C3
:100390000A5640F4801543F48013A7EB0608101B9F
:1003A000D64608F2FD3873EB050002D308F10108C8
:1003B00001E092185B41B8F1000F03DA002001461A
:1003C000BDE8F08D00204FF48011064684460EE013
:1003D000171B73EB050705D3121B63EB05030643DD
:1003E0004CEA010C49084FEA300092185B4150EA90
:1003F0000107EDD152EA030012D082EA040083EA39
:100400000501084305D0101BAB4106D20122002391
:1004100006E000224FF0004302E06FF001025310AB
:100420001AEB06004CEB085110EB0A0041EB0B01F4
:10043000BDE8F04D00F05BB80EB5C10F80EAE0708A
:100440000844CA07002140F233438DE80E000A46F3
:100450000B4600F05BF803B000BDC1F30A5210B5C3
:10046000C1F3130140F2FF3341F480119A4201DAE3
:10047000002010BD40F233439A42A2F2334203DC23
:10048000524200F012F810BD904010BD202A04DB4B
:10049000203A00FA02F1002070479140C2F1200397
:1004A00020FA03F3194390407047202A04DB203AD6
:1004B00021FA02F00021704721FA02F3D040C2F184
:1004C00020029140084319467047202A06DBCB17CB
:1004D000203A41FA02F043EAE07306E041FA02F3FF
:1004E000D040C2F12002914008431946704710B530
:1004F000141E73F1000408DA401C41F10001921847
:100500005B411A4301D120F0010010BD2DE9F04DEF
:1005100092469B4611B1B1FA81F202E0B0FA80F244
:1005200020329046FFF7B2FF04460F4640EA0A0029
:1005300041EA0B0153465A46084313D0114653EA89
:10054000010019D0C8F140025046FFF7AEFF054642
:100550000E46504659464246FFF798FF084305D0DD
:10056000012004E020463946BDE8F08D0020054317
:1005700046EAE0762C4337430A986305E40AA0EB89
:1005800008000022FD0A44EA47540A3002D5002040
:100590000146E9E7010510196941DDE9084500193F
:1005A0006941BDE8F04DA2E7064C074D06E0E06862
:1005B00040F0010394E8070098471034AC42F6D3AA
:1005C000FFF7CAFDB8910008D891000880B542F243
:1005D0000040C4F20100012105F064FDFFE70020A6
:1005E000C4F202000021022206F07EFB002801D1A5
:1005F000FFE7F4E70020C4F202000021022206F027
:1006000061FB80BD80B582B001900198B0F8A01068
:1006100001600198002141600198017201984172C6
:10062000019890F8A4108172019946F20040C4F23A
:10063000000005F0E5FF43F6F031C2F2000108705A
:10064000087801460028009108D0FFE700980128AB
:100650000CD0FFE70098022810D017E043F6D43002
:10066000C2F200004FF40071016017E043F6D4308D
:10067000C2F200004FF4027101600FE043F6D43083
:10068000C2F200004FF40471016007E043F6D43079
:10069000C2F200004FF400710160FFE7FFE743F68C
:1006A000D430C2F20000018846F20040C4F20000DB
:1006B00005F056FE012801D1FFE7F0E743F6D430FC
:1006C000C2F20000018846F20040C4F2000005F0CA
:1006D00031FE02B080BD000070B582B013468C467A
:1006E00001908DF80310ADF80020BDF8000044F62D
:1006F000D351C1F26201A0FB0101890946F2676290
:10070000C6F2666251FB02FE4FEA9E0404EBDE7EF7
:100710000EEB8E0EA1EB4E013031DDF804E09DF8BA
:1007200003400EF80410BDF8001048F21F5EC5F239
:10073000EB1EA1FB0E1E4FEA5E1E5EFB02F4A50837
:1007400005EBD47404EB8404AEEB440E0EF1300ED2
:10075000019C9DF803502C4484F801E0BDF800E0B2
:100760004CF6CD44CCF6CC44AEFB04E5ED0855FB8D
:1007700002F2960806EBD27202EB8202A5EB42026D
:100780003032019D9DF803603544AA70BDF8002009
:10079000A2FB0445ED0805EB8505A2EB450242F0FE
:1007A0003002019D9DF803603544EA7002B070BDCF
:1007B00080B58CB000208DF82E0040F20801C2F206
:1007C0000001079101218DF82D104FF4006208926D
:1007D00042F24C42C4F2010205928DF82C004FF413
:1007E0000072069209914FF440520A920022C4F21C
:1007F000020205AB04901046DDF810C0039161467B
:1008000002921A4606F08CFA0298049906F03CFA15
:100810000298049906F0FCF94FF4C02005F064FB3F
:1008200042F20040C4F201004FF480710190039A3B
:1008300005F058FC02210198049A05F053FC019838
:10084000049905F0B5FA0198049905F017FC019890
:100850000399039A05F074FA4FF460220198039902
:1008600005F018FB01980399039A05F0D1FA019855
:100870000499049A049B05F047FB019805F0B8FA27
:10088000019805F03FFA019805F0A8FA47F20040F8
:10089000C4F20000016841F001010160049804996C
:1008A000049A06F0ADF8049806F004F90CB080BD87
:1008B00080B58EB041F20000C4F2010004214FF473
:1008C00000520D900C910C9B0B921A460B9B06F05C
:1008D00037FB4FF400400D990A9008460C990C9A8A
:1008E0000A9B06F02DFB40F60040C4F201000221F5
:1008F00009900C9A08911146089B06F021FB4FF4D1
:1009000080500999079008460C990C9A079B06F0AD
:1009100017FB20200999069008460C990C9A069B13
:1009200006F00EFB4FF480400D99059008460C9997
:100930000C9A059B06F004FB40F60000C4F201008F
:10094000802304900C990C9A06F0FAFA0120099978
:10095000039008460C990C9A039B06F0F1FA09984B
:100960000C990C9A0C9B06F0EBFA09980C990C9ACE
:100970000A9B06F0E5FA4FF480600499029008465D
:100980000C990C9A029B06F0DBFA4FF480700999DF
:10099000019008460C990C9A019B06F0D1FA4FF48D
:1009A000007304980C990C9A06F0CAFA04980C99F2
:1009B0000C9A019B06F0C4FA09980C990C9A059BB5
:1009C00006F0BEFA09980C990C9A0B9B06F0B8FA3F
:1009D00004980C990C9A039B06F0B2FA04980C99AF
:1009E0000C9A089B06F0ACFA04980C990C9A0C9B94
:1009F00006F0A6FA082304980C990C9A06F0A0FABF
:100A000004980C990C9A069B06F09AFA40230498D5
:100A10000C990C9A06F094FA102304980C990C9AED
:100A200006F08EFA09980C990C9A029B06F088FA47
:100A30004FF400600999009008460C990C9A009BAD
:100A400006F07EFA04980C990C9A079B06F078FA47
:100A500004980C990C9A009B06F072FA0EB080BDB7
:100A600080B590B041F20000C4F2010010210422D0
:100A70004FF400530F900E910D920C9306F060FA14
:100A80004FF400400F990B9008460E990D9A0B9B5E
:100A900006F056FA40F60040C4F2010002210A9026
:100AA0000E9A099111460D9A099B06F049FA4FF4E6
:100AB00080500A99089008460E990D9A089B06F0F6
:100AC0003FFA20200A99079008460E990D9A079B35
:100AD00006F036FA4FF480400F99069008460E99BA
:100AE0000D9A069B06F02CFA40F60000C4F20100B5
:100AF000802305900E990D9A06F022FA01200A999A
:100B0000049008460E990D9A049B06F019FA0A986B
:100B10000E990D9A0D9B06F013FA0A980E990D9AEC
:100B20000B9B06F00DFA4FF4806005990390084680
:100B30000E990D9A039B06F003FA4FF480700A9900
:100B4000029008460E990D9A029B06F0F9F94FF4AF
:100B5000007305980E990D9A06F0F2F905980E9912
:100B60000D9A029B06F0ECF90A980E990D9A069BD5
:100B700006F0E6F90A980E990D9A0C9B06F0E0F93A
:100B800005980E990D9A049B06F0DAF905980E99CE
:100B90000D9A099B06F0D4F905980E990D9A0D9BB4
:100BA00006F0CEF908200599019008460E990D9A95
:100BB000019B06F0C5F905980E990D9A079B06F062
:100BC000BFF9402305980E990D9A06F0B9F90598DA
:100BD0000E990D9A0E9B06F0B3F90A980E990D9A8C
:100BE000039B06F0ADF94FF400600A9900900846A7
:100BF0000E990D9A009B06F0A3F905980E990D9A8F
:100C0000089B06F09DF905980E990D9A009B06F039
:100C100097F90A980E990D9A019B06F091F90A9896
:100C20000E990D9A0E9B06F08BF905980E990D9A68
:100C30000B9B06F085F910B080BD000080B58CB02C
:100C40000B9040F2197007F031F946F20040C4F2FF
:100C50000000019005F09EFA00208DF821008DF82B
:100C600023008DF822008DF824008DF81D0004214A
:100C70008DF81E1002218DF81F108DF820008DF8C0
:100C800025000B9800798DF81C0007A9019805F044
:100C9000C7FB0B990968FA2900910AD0FFE7009871
:100CA000B0F5FA7F05D0FFE70098B0F57A7F0CD158
:100CB000FFE70B9800684FF47A71414346F2004019
:100CC000C4F2000005F06CFB0AE046F20040C4F2FA
:100CD00000004EF64801C0F2010105F061FBFFE79C
:100CE0000020ADF81200ADF814000121ADF8161087
:100CF000ADF80800ADF80A00ADF80C00ADF80E0034
:100D00000B984079ADF810008DF8181002A805F086
:100D100061FA0CB080BD000080B582B04FF4C060B5
:100D200007F0C4F840F2026007F0C0F840F6000097
:100D3000C4F20100482103224FF4006301900092A5
:100D400006F0FEF818214FF480530198009A06F03F
:100D5000F7F802B080BD000080B590B040F60040CA
:100D6000C4F2010004214FF480420F900E910E9BBB
:100D70000D921A460D9B06F0E3F84FF400500F99C0
:100D80000C9008460E990E9A0C9B06F0D9F840F686
:100D90000000C4F201000B900E990E9A0E9B06F013
:100DA000CFF808200B990A9008460E990E9A0A9BD4
:100DB00006F0C6F840230B980E990E9A06F0C0F87C
:100DC00001200B99099008460E990E9A099B06F08E
:100DD000B7F820200B99089008460E990E9A089BA8
:100DE00006F0AEF802200B99079008460E990E9A6D
:100DF000079B06F0A5F84FF400400B9906900846B3
:100E00000E990E9A069B06F09BF84FF480600F999E
:100E1000059008460E990E9A059B06F091F84FF43E
:100E200000600F99049008460E990E9A049B06F0F4
:100E300087F84FF480500B99039008460E990E9A4C
:100E4000039B06F07DF80B980E990E9A049B06F012
:100E500077F810200B99029008460E990E9A029B83
:100E600006F06EF80B980E990E9A0A9B06F068F839
:100E70004FF400730B9802990E9A06F061F84FF444
:100E800080700B990190084602990E9A019B06F01A
:100E900057F80F9802990E9A079B06F051F80F9891
:100EA00002990E9A039B06F04BF841F20000C4F23F
:100EB0000100009002990E9A0D9B06F041F80098EF
:100EC00002990E9A0C9B06F03BF80F9802990E9A25
:100ED000089B06F035F8009802990E9A069B06F0DA
:100EE0002FF80F9802990E9A019B06F029F880239B
:100EF0000B9802990E9A06F023F80F9802990E9A11
:100F0000099B06F01DF80F9802990E9A0E9B06F0A9
:100F100017F80F9802990E9A069B06F011F80B9895
:100F200002990E9A059B06F00BF80F9802990E9AFB
:100F3000029B06F005F810B080BD000080B590B0AF
:100F400040F60000C4F2010004214FF400730F903A
:100F50000E910E9A05F0F4FF4FF480700F990D90EA
:100F600008460E990E9A0D9B05F0EAFF40F60040E8
:100F7000C4F2010002210C900E9A0B9111460B9BBA
:100F800005F0DEFF4FF480500C990A9008460E9948
:100F90000E9A0A9B05F0D4FF41F20000C4F2010052
:100FA0004FF4804109900E9A08911146089B05F074
:100FB000C7FF4FF400500999079008460E990E9A02
:100FC000079B05F0BDFF20200C99069008460E995E
:100FD0000E9A069B05F0B4FF4FF400400999059066
:100FE00008460E990E9A059B05F0AAFF0C980E99DB
:100FF0000E9A0D9B05F0A4FF80230F980E990E9A70
:1010000005F09EFF01200C99049008460E990E9A57
:10101000049B05F095FF0C980E990E9A0E9B05F017
:101020008FFF0C980E990E9A059B05F089FF4FF4DF
:1010300080600F99039008460E990E9A039B05F065
:101040007FFF10200C99029008460E990E9A029B81
:1010500005F076FF0C9802990E9A089B05F070FF38
:101060000C9802990E9A079B05F06AFF0F98029957
:101070000E9A0E9B05F064FF08200F990190084618
:1010800002990E9A019B05F05BFF40230F9802998D
:101090000E9A05F055FF0F9802990E9A049B05F0E1
:1010A0004FFF0F9802990E9A069B05F049FF0F9883
:1010B00002990E9A0B9B05F043FF0F9802990E9A26
:1010C000059B05F03DFF0C9802990E9A039B05F0D5
:1010D00037FF4FF400600C990090084602990E9A71
:1010E000009B05F02DFF0F9802990E9A0A9B05F0C0
:1010F00027FF0F9802990E9A009B05F021FF0F9889
:1011000002990E9A029B05F01BFF0F9802990E9A06
:10111000019B05F015FF10B080BD000080B592B0B6
:1011200040F2026006F0C2FE40F2036006F0BEFE2E
:1011300040F2046006F0BAFE40F2096006F0B6FE26
:1011400040F20A6006F0B2FE4FF4A06006F0AEFE78
:1011500040F21D7006F0AAFE4FF4C06006F0A6FE35
:1011600040F60040C4F20100102104224FF4007345
:10117000119010910F920E9305F0E2FE40F60000E0
:10118000C4F2010028214FF400520D900C910F9BE6
:101190000B921A460B9B05F0D3FE4FF480400D993D
:1011A0000A9008460C990F9A0A9B05F0C9FE4FF465
:1011B00000400D99099008460C990F9A099B05F07B
:1011C000BFFE08201199089008460C990F9A089BB9
:1011D00005F0B6FE11980C990F9A109B05F0B0FE21
:1011E00041F20000C4F2010007900F990F9A0B9B87
:1011F00005F0A6FE07980F990F9A099B05F0A0FE2F
:1012000002201199069008460F990F9A069B05F047
:1012100097FE4FF4805311980F990F9A05F090FEA6
:1012200020201199059008460F990F9A059B05F00B
:1012300087FE079810990F9A0A9B05F081FE80237C
:101240000D9810990F9A05F07BFE012011990490DA
:10125000084610990F9A049B05F072FE1198109998
:101260000F9A0F9B05F06CFE119810990F9A099B2D
:1012700005F066FE4FF480630D9810990F9A05F003
:101280005FFE4FF4807011990390084610990F9AF1
:10129000039B05F055FE18200D990290084602990F
:1012A0000F9A0E9B05F04CFE0D9802990F9A039B26
:1012B00005F046FE119802990F9A0A9B05F040FE30
:1012C000119802990F9A0B9B05F03AFE00200D9998
:1012D0000190084601990F9A049B05F031FE0D9884
:1012E00001990F9A069B05F02BFE0D9801990F9A14
:1012F0000F9B05F025FE0D9801990F9A089B05F0AC
:101300001FFE0D9801990F9A059B05F019FE4023C9
:101310000D9801990F9A05F013FE03220D9801997B
:10132000109B05F00DFE12B080BD000080B586B0A8
:1013300001468DF817000020C4F2020001220223AA
:1013400004900391114602921A4605F0BBFC0498E2
:10135000029905F03FFC9DF817200498029905F0CA
:10136000A5FD44F60000C4F20000802107F014FD42
:101370000498029905F04CFCFFE744F60000C4F223
:101380000000062107F03EFD002802D1FFE700BF64
:10139000F3E744F60000C4F200000621019007F0D4
:1013A0001BFD0021019807F0F7FC06B080BD00008E
:1013B00010B590B00F904FF4A06006F077FD40F2AA
:1013C000127006F073FD40F2065006F06FFD00202B
:1013D0008DF83A000F9949690A9101218DF8391069
:1013E0000B9044F60402C4F2000208928DF8380013
:1013F00009900C904FF440530D9340F2000CC4F24E
:10140000020C4FF0020E08AC079060460691714640
:10141000059222460493CDF80CC0CDF808E0019463
:1014200005F07EFC0398029905F02EFC03980299C2
:1014300005F0EEFB06988DF83A000F9909690A91BC
:101440008DF8390007990B91059A08928DF838109C
:1014500009910C91049B0D9303980699019A05F04C
:101460005FFC0398069905F0F1FB0398069905F0D7
:10147000CFFB44F60000C4F20000009007F01AFC15
:101480000F980168009807F097FB0F984168009843
:1014900007F004FD0F98C168009807F06BFD0F98E6
:1014A0008168009807F040FD0098079907F0EAFB73
:1014B0000098079907F0DCFC0098079907F0C2FC38
:1014C000009807F011FD3221009807F019FD402126
:1014D000009807F04BFC8021009807F05DFC082184
:1014E000009807F031FD0421009807F0E7FC009810
:1014F00007F068FC10B010BD80B582B001468DF8D1
:101500000700FFE744F60000C4F2000042F2102199
:1015100007F078FC002801D0FFE7F3E79DF807000B
:10152000FFF704FF02B080BD80B582B04FF4C06009
:1015300006F0BCFC40F2036006F0B8FC40F6004048
:10154000C4F20100182103224FF48063019000923D
:1015500005F0F6FC04214FF400630198009A05F0B1
:10156000EFFC02B080BD000010B598B0179040F2BB
:10157000015006F09BFC40F20F7006F097FC002033
:101580008DF85A0017998968129101218DF8591028
:10159000139043F60C42C4F2000210928DF85800EA
:1015A000119014904FF44053159340F2004CC4F244
:1015B000020C0DF1400E08906046089C07912146F0
:1015C000069272460593CDF810C0CDF80CE005F0F8
:1015D000A7FB0498089905F057FB0498089905F0B3
:1015E00017FB07988DF85A001799496812918DF8E2
:1015F000590008991391069A10928DF8581011917C
:101600001491059B159304980799039A05F088FB9C
:1016100043F60040C4F20000029006F0C9FC09A89D
:10162000019006F063FD1798C068099008980A9029
:10163000179909680B910C90179989690D91179961
:1016400049690E91179909690F910298019906F05D
:10165000FFFC029806F040FD029806F033FD029868
:1016600006F09CFC18B010BD80B584B001468DF822
:101670000F0040F20040C4F20200002202900191EB
:101680001146009205F0A6FA9DF80F2002980099E5
:1016900005F00CFC43F60040C4F20000012106F006
:1016A00065FC0298009905F0B3FA04B080BD000013
:1016B00080B584B001468DF80F0040F20040C4F2BE
:1016C00002000122029001911146009205F082FA77
:1016D0009DF80F200298009905F0E8FB43F60040C2
:1016E000C4F20000002106F041FC0298009905F0C8
:1016F0008FFA04B080BD000080B584B001468DF83B
:101700000F0040F20040C4F2020001220290019159
:101710001146009205F05EFA9DF80F20029800999C
:1017200005F0C4FB43F60040C4F20000002106F0BF
:101730001DFC0298009905F06BFAFFE740F20040AB
:10174000C4F202000121022205F0CEFA002801D1E4
:10175000FFE7F3E740F20040C4F202000121022259
:1017600005F0B0FA43F60040C4F20000002106F094
:10177000E5FB04B080BD000080B50220FFF774FFD8
:1017800080BD000080B582B001468DF80700FFE7FC
:1017900043F60040C4F20000022106F043FC00289A
:1017A00001D1FFE7F4E79DF80700FFF7A5FF02B0BE
:1017B00080BD000080B584B04FF4C06006F076FBB9
:1017C00040F2036006F072FB40F2026006F06EFB2E
:1017D00040F60040C4F201001821032210230390B8
:1017E000029205F0ADFB04202023039901900846E6
:1017F0000199029A05F0A4FB082303980199029A23
:1018000005F09EFB40F60000C4F201004FF40043D7
:101810000199029A05F094FB40F20020C0F23000DA
:10182000012105F06DFC04B080BD000080B592B0D0
:10183000119011981090119840080F9040F20B6091
:1018400006F034FB42F60040C4F20100039006F0BB
:10185000D1FF10980D900020ADF82C00ADF83800A5
:10186000ADF82E00ADF83000FF218DF83A100BA92D
:10187000039A0290104607F0BDF80120ADF8200051
:101880000421ADF822100299ADF82410ADF826100D
:10189000ADF82810ADF82A1008AA039B019018464D
:1018A000009206F045FD03980199009A06F040FD6C
:1018B00003980299029A06F059FF03980299029A36
:1018C00006F0F6FC03980199029A06F04FFF039880
:1018D0000199029A06F0ECFC0F9A0398029906F01F
:1018E000D9FE60220398029906F08CFE03980299B3
:1018F000029A06F0F3FE0F9A0398019906F0CAFEC9
:1019000070220398019906F07DFE03980199029ACE
:1019100006F0E4FE1520ADF814000298ADF81600AC
:10192000ADF81000ADF812004FF48041ADF818107A
:10193000ADF81A00ADF81C0004A9039806F0A2FC4B
:1019400019200221029A06F0FBF80398019907F08A
:10195000E7F8039807F044F812B080BD80B58AB06C
:101960000990099808904FF4E06006F09FFA4FF054
:101970008040039006F03EFF089806900020ADF8E6
:101980001000ADF81C00ADF81200ADF814008DF891
:101990001E0004A9039A0290104607F02BF81C20A1
:1019A00001210191029A06F0CBF80398019907F002
:1019B000B7F80398019907F0E7F8039806F058FC88
:1019C000039807F00DF80AB080BD000080B590B014
:1019D0000F900F980E900F9840080D9040F20370F2
:1019E00006F064FA40F60040C4F20000019006F0F0
:1019F00001FF0E980B900020ADF82400ADF83000E8
:101A0000ADF82600ADF82800FF208DF8320009A9B6
:101A1000019806F0EFFF0121019807F081F83220CC
:101A200004F016F9019806F0DBFF10B080BD00004D
:101A300080B584B001468DF80F000020C4F202008A
:101A40000422029001911146009205F0C3F89DF81E
:101A50000F200298009905F029FA43F60000C4F21D
:101A60000100402107F082F90298009905F0D0F8B2
:101A700004B080BD80B586B00146ADF816000020E8
:101A8000C4F2020003220223049003911146029241
:101A90001A4605F017F90498029905F09BF8BDF86D
:101AA00016200498029905F001FA43F60000C4F2EA
:101AB0000100802107F070F90498029905F0A8F858
:101AC000FFE743F60000C4F20100062107F09AF98F
:101AD000002802D1FFE700BFF3E743F60000C4F29D
:101AE00001000621019007F077F90021019807F025
:101AF00053F906B080BD000010B592B011904FF4BC
:101B0000A06006F0D3F940F20E6006F0CFF940F283
:101B1000065006F0CBF900208DF842001199496972
:101B20000C9101218DF841100D9043F60402C4F28E
:101B300001020A928DF840000B9032230E934FF46D
:101B400040530F9340F2000CC4F2020C4FF0040E0D
:101B50000AAC0990604608917146079222460693A6
:101B6000CDF814C0CDF810E0039405F0D9F805982D
:101B7000049905F089F80598049905F049F8089842
:101B80008DF84200119909690C918DF8410009996D
:101B90000D91079A0A928DF840100B910E91069BB9
:101BA0000F934FF0030C05986146039ACDF808C0D7
:101BB00005F0B6F80598029905F048F805980299DD
:101BC00005F026F843F60000C4F20100019007F08A
:101BD00071F811980168019806F0EEFF11984168BC
:101BE000019807F05BF91198C168019807F0C2F9F4
:101BF00011988168019807F097F90198099907F001
:101C000041F80198099907F033F90198099907F00B
:101C100019F9019807F068F9FF21019807F070F9A8
:101C20004021019807F0A2F88021019807F0B4F84C
:101C30000821019807F088F90198049907F03EF906
:101C4000019807F0BFF812B010BD000080B582B057
:101C50000146ADF80600FFE743F60000C4F20100BC
:101C600042F2102107F0CEF8002801D0FFE7F3E799
:101C7000BDF80600FFF7FEFE02B080BD80B582B061
:101C80004FF4C06006F012F940F2036006F00EF95E
:101C90000420C4F20100016841F00401016040F633
:101CA0000040C4F201001821032240230190009259
:101CB00005F046F9042180230198009A05F040F9C7
:101CC00002B080BD000000002DE9F04FADF5057DAC
:101CD00000208DF813028DF8120201218DF81112E7
:101CE000ADF80E0240F20510C2F2000042F243715C
:101CF000405C002803F00884FFE740F20510C2F2C0
:101D0000000042F24371002242541C218290084696
:101D100003F09EFF43F6F130C2F2000032228190C0
:101D20008299FEF731FA49F29F01C0F60001819ACB
:101D300080901046FEF748FA43F64041C2F2000197
:101D40000860086849F2DF01C0F600010322FEF7CF
:101D50002DFA002809D0FFE743F6F130C2F2000067
:101D60000078102840F0FC82FFE749F29F01C0F69E
:101D700000010020FEF728FA43F64041C2F20001BC
:101D800008600868008844F64F61884208D0FFE781
:101D900043F6F130C2F20000407805284ED1FFE74B
:101DA00042F60040C4F20100002101227F907E91A2
:101DB0007D9206F0DBFC04207F997C9008467E999A
:101DC0007C9A06F075FA7F987D997D9A06F0CEFC94
:101DD0007F987D997C9A06F06BFA43F64040C2F2F8
:101DE00000000068008844F64F6188421AD1FFE77E
:101DF00040F20510C2F2000045F25241C0F60D213A
:101E0000C0F8391045F25341C5F24121C0F83610EF
:101E100045F25071C2F24D01C0F832100B20FFF7AD
:101E200015FF0AE040F20510C2F20000AC2180F874
:101E300032100120FFF70AFFFFE78FE243F6404030
:101E4000C2F20000006849F2BC01C0F600010322A2
:101E5000FEF7ACF9002808D0FFE743F6F130C2F2F4
:101E6000000040780A284ED1FFE742F60040C4F255
:101E7000010000217B907A917A9A06F077FC7B989A
:101E80007A997A9A06F014FA01207B99799008469B
:101E900079997A9A06F06AFC7B9879997A9A06F091
:101EA00007FA43F64040C2F20000006849F2BC0164
:101EB000C0F600010322FEF779F9002817D1FFE7E9
:101EC00040F20510C2F2000040F60D21418745F2B4
:101ED0005341C5F24F01C0F8361045F25071C2F2BD
:101EE0004D01C0F832100A20FFF7B0FE0AE040F2C0
:101EF0000510C2F20000AC2180F832100120FFF77B
:101F0000A5FEFFE729E243F64040C2F20000006868
:101F1000006845F24621C5F24511884209D0FFE725
:101F200043F6F130C2F200004078FC2840F0CA804D
:101F3000FFE743F64040C2F200000068006845F247
:101F40004621C5F24511884269D1FFE749F29F0158
:101F5000C0F6000100207890FEF736F943F64041C4
:101F6000C2F200010860086803F06AFBFEF764FA39
:101F700041EC100B9FEDD21B51EC110B53EC102BCD
:101F8000FEF7EBF941EC100B51EC100B9FEDCE0B73
:101F900053EC102BFEF73AF941EC100B51EC100BFF
:101FA000FEF75BFAFFF742FC42F60040C4F2010084
:101FB00001217790789A76911146769A06F0D6FBB1
:101FC00004207799759008467899759A06F070F90B
:101FD00077987699769A06F0C9FB77987699759AEC
:101FE00006F066F940F20510C2F2000040F60D213D
:101FF000C18745F24141C4F24541C0F83A1045F26B
:102000002051C4F25041C0F8361045F24621C5F2C5
:102010004511C0F832100E20FFF718FE51E043F6CC
:10202000F130C2F200008178C07840EA0120ADF8BA
:102030000E02BDF80E02FEF7FFF941EC100B9FED0A
:10204000A01B51EC110B53EC102BFEF786F941EC61
:10205000100B51EC100B9FED9C0B53EC102BFEF76B
:10206000D5F841EC100B51EC100BFEF7F6F9FFF729
:10207000DDFB42F60040C4F2010000210122749011
:102080007391729206F072FB042074997190084665
:102090007399719A06F00CF974987299729A06F015
:1020A00065FB74987299719A06F002F940F2051076
:1020B000C2F20000AC2180F832107298FFF7C6FD22
:1020C000FFE749E143F64040C2F2000000680088A3
:1020D00045F24441884208D0FFE743F6F130C2F2AE
:1020E00000004078D1285FD1FFE743F64040C2F2BC
:1020F00000000068008845F24441884238D1FFE77B
:1021000049F29F01C0F600010020FEF75DF843F69A
:102110004041C2F20001086042F64440C4F20100AE
:10212000026822F0FF02026009687090084603F01E
:1021300087FAC0B270990A681043086040F205102F
:10214000C2F2000044F24542C0F60D22C0F83A2027
:1021500044F25042C5F24142C0F8362045F24442B2
:10216000C5F22052C0F832200C20FFF76FFD1AE0B4
:1021700042F64440C4F20100016821F0FF01016011
:1021800043F6F131C2F2000189780268114301601F
:1021900040F20510C2F20000AC2180F8321001209C
:1021A000FFF754FDFFE7D6E043F64040C2F20000DF
:1021B0000068008844F24431884209D0FFE743F6C2
:1021C000F130C2F200004078DC2840F0C380FFE725
:1021D00043F64040C2F200000068008844F24431F7
:1021E000884277D1FFE749F29F01C0F60001002045
:1021F000FDF7EAFF43F64041C2F20001086042F6F3
:102200002C40C4F2010090ED000AB8EE400A0A68C2
:102210006F9010466E918DED6D0A03F011FA00EE8D
:10222000100AB8EEC00A9FED2A1A80EE010A9DED51
:102230006D2A22EE000ABCEEC00A42F63440C4F217
:10224000010080ED000A6F9890ED000AB8EE400A98
:102250006E9908688DED6C1A8DED6B0A03F0F0F93C
:1022600000EE100AB8EEC00A9DED6C1A80EE010A6D
:102270009DED6B2A22EE000ABCEEC00A42F6384001
:10228000C4F2010080ED000A40F20510C2F2000025
:1022900044F24541C0F60D21C0F83A1044F25041D5
:1022A000C5F24141C0F8361044F24431C5F2205124
:1022B000C0F832100C20FFF7C9FC4AE000BF00BF95
:1022C00000000000004CFD40000000000000F0BFD6
:1022D0000000C84242F62C40C4F2010090ED000A12
:1022E000B8EE400A43F6F131C2F200018A7801EEFD
:1022F000102AB8EEC11A1FED0A2A81EE021A20EE4A
:10230000010ABCEEC00A42F63442C4F2010282ED78
:10231000000A90ED000AB8EE400A887801EE100A33
:10232000B8EEC11A81EE021A20EE010ABCEEC00A14
:1023300042F63840C4F2010080ED000A40F2051078
:10234000C2F20000AC2180F832100120FFF77EFCC1
:10235000FFE7FFE7FFE7FFE7FFE7FFE703F0B2B8BC
:1023600043F64040C2F20000006849F2B801C0F6EE
:1023700000010322FDF71AFF002809D0FFE743F60A
:10238000F130C2F200000078AD2840F08584FFE70C
:1023900049F29F01C0F600010020FDF715FF43F64A
:1023A0004041C2F2000108600868006844F25251DE
:1023B000C4F24141884209D0FFE743F6F130C2F24E
:1023C00000004078FD2840F0A181FFE700208DF853
:1023D0001302FFE79DF8130209282ADCFFE7FEF746
:1023E000F5F800208DF81202FFE79DF8120205288B
:1023F00018DCFFE79DF8120240F20801C2F200016A
:1024000031F8101043F62442C2F2000252F8203094
:10241000194442F82010FFE79DF8120201308DF8B0
:102420001202E2E7FFE79DF8130201308DF8130274
:10243000D0E743F64040C2F200000068006844F272
:102440005251C4F24141884240F0C380FFE740F25C
:102450000510C2F2000044F24921C5F2553140F89E
:10246000321F42F23A01818043F62442C2F2000256
:1024700013684CF6CD4CCCF6CC4CA3FB0C3ECEF303
:10248000CF0E06246A906991214668927246CDF873
:102490009CC166936594FEF71FF90D206A998872B6
:1024A0000A22CA720C236490184663926293FFF763
:1024B000CDFB69986A99888044F25612C4F643426B
:1024C0000A60689A5368DDF89CC1A3FB0C3ECEF30A
:1024D000CF02084665996193FEF7FEF864986A9901
:1024E0008872639ACA726298FFF7B0FB44F649405B
:1024F000C2F23A006A99086068988268679BA2FBFA
:10250000032CCCF3CF0C04216A9860926246FEF74C
:10251000E3F864986A990872639A4A721046FFF762
:1025200095FB69986A99888044F25452C5F24D022D
:102530000A60689AD368DDF89CC1A3FB0C3ECEF319
:10254000CF02084665995F93FEF7C6F864986A99CA
:102550008872639ACA726298FFF778FB69986A99E1
:10256000888044F25612C4F643520A60689A13698E
:10257000DDF89CC1A3FB0C3ECEF3CF020846659963
:102580005E93FEF7A9F864986A998872639ACA7292
:102590006298FFF75BFB69986A99888044F256223B
:1025A000C5F255320A60689A5369DDF89CC1A3FBF5
:1025B0000C3ECEF3CF02084665995D93FEF78CF88A
:1025C00064986A998872639ACA726298FFF73EFBB0
:1025D00082E043F62440C2F2000001684CF6CD428E
:1025E000CCF6CC42A1FB0213DB0A40F2051CC2F27E
:1025F000000C8CF832300368A3FB023E4FEADE0E7B
:102600008CF833E04FF0200E8CF834E04468A4FBE3
:102610000245ED0A8CF835504568A5FB0256F608D0
:102620008CF836608CF837E08668A6FB0267FF0AF4
:102630008CF838708768A7FB02784FEAD8088CF8C6
:1026400039808CF83AE0D0F80C80A8FB02894FEA78
:10265000D9298CF83B90D0F80C90A9FB029A4FEA4C
:10266000DA0A8CF83CA08CF83DE0D0F810A0AAFB68
:1026700002AB4FEADB2B8CF83EB0D0F810B05C9088
:10268000ABFB02B0C0088CF83F008CF840E05C98CF
:10269000D0F814E0AEFB02E0C00A8CF841005C9870
:1026A0004069A0FB0202D2088CF8422011225B9004
:1026B00010465A9159935894579556965597CDF878
:1026C0005081CDF84C91CDF848A1CDF844B1CDF86A
:1026D00040E1FFF7BBFAFFE700208DF81202FFE7A9
:1026E0009DF81202052810DCFFE79DF8120243F660
:1026F0002441C2F20001002241F82020FFE79DF8AA
:10270000120201308DF81202EAE7C3E243F64040BC
:10271000C2F20000006849F2EF01C0F60001072292
:10272000FDF744FD002809D0FFE743F6F130C2F27F
:10273000000040785A2840F07281FFE743F640409D
:10274000C2F20000006849F2EF01C0F60001072262
:10275000FDF72CFD002840F0D980FFE749F29F01EA
:10276000C0F6000100204F90FDF72EFD43F64041DA
:10277000C2F200010860086802F062FF43F64441BB
:10278000C2F20001088043F6DA30C2F200004F992D
:102790000180FFE743F6DA30C2F20000008843F61A
:1027A0004441C2F200010988884280F2AE80FFE70E
:1027B000FDF70CFF40F20510C2F2000044F249217F
:1027C000C5F2553140F8321F42F23A01818040F2A1
:1027D0000802C2F2000213884FF0060C4E904D9191
:1027E00061464C921A46CDF82CC1FDF775FF0D20BD
:1027F0004E9988720A22CA720C234A90184649924E
:102800004893FFF723FA4D984E99888044F2561268
:10281000C4F643420A604C9A528808464B99FDF729
:102820005BFF4A984E998872499ACA724898FFF796
:102830000DFA44F64940C2F23A004E9908604C98AD
:10284000828804214E98FDF747FF4A984E990872F6
:10285000499A4A721046FFF7F9F94D984E998880C7
:1028600044F25452C5F24D020A604C9AD28808468E
:102870004B99FDF731FF4A984E998872499ACA726E
:102880004898FFF7E3F94D984E99888044F2561224
:10289000C4F643520A604C9A128908464B99FDF7D8
:1028A0001BFF4A984E998872499ACA724898FFF756
:1028B000CDF94D984E99888044F25622C5F2553292
:1028C0000A604C9A528908464B99FDF705FF4A98D1
:1028D0004E998872499ACA724898FFF7B7F942F63A
:1028E0002D50C0F60D204E9988604FF02D30486075
:1028F00008604898FFF7AAF9FFE743F6DA30C2F21A
:10290000000001880131018044E787E0FEF752FFB3
:1029100043F6F130C2F200008178C07840EA01202D
:1029200043F64441C2F20001088043F6E030C2F2AF
:10293000000000210180FFE743F6E030C2F2000012
:10294000008843F64441C2F200010988884232DA25
:10295000FFE7FDF73BFE40F20800C2F200004178BD
:1029600040F2EA02C2F20002D17101881172C1780C
:102970005172418891724179D17281881173C17904
:102980005173C1889173417AD17301891174C17AED
:102990005174408990740020D074212010750E204D
:1029A000FEF7F0FEFFE743F6E030C2F200000188D8
:1029B00001310180C0E743F6E030C2F20000008838
:1029C00043F64441C2F200010988884225DBFFE753
:1029D00040F60040C4F201000421202347904691B4
:1029E000469A04F0ADFA28201023479945900846EE
:1029F0004599469A04F0A4FA082347984599469ABF
:102A000004F09EFA40F60000C4F201004FF40043C7
:102A10004599469A04F094FAFFE7FFE739E143F657
:102A20004040C2F20000006849F2C001C0F6000157
:102A30000822FDF7BBFB002809D0FFE743F6F13081
:102A4000C2F200004078372840F0B680FFE743F636
:102A50004040C2F20000006849F2C001C0F6000127
:102A60000822FDF7A3FB002824D1FFE749F29F01CC
:102A7000C0F600010020FDF7A7FB43F64041C2F27B
:102A800000010860086802F0DBFD8DF8130240F2D7
:102A90000510C2F20000323049F26201C0F60001B6
:102AA00012224492FDF770FB449943900846FFF7C9
:102AB000CDF811E043F6F130C2F2000080788DF8D5
:102AC000130240F20510C2F20000AC2180F832106F
:102AD0000120FFF7BBF8FFE743F64740C2F20000D2
:102AE000012101709DF81302013801460528429129
:102AF00047D84299DFE801F0030E19242F3A42F239
:102B00000040C4F2010000214191419A419B03F031
:102B1000FBF941E042F20040C4F201000122002131
:102B20004091409B03F0F0F936E042F20040C4F2DD
:102B30000100022200213F913F9B03F0E5F92BE0C9
:102B400042F20040C4F20100032200213E913E9B6C
:102B500003F0DAF920E042F20040C4F2010005225D
:102B600000213D913D9B03F0CFF915E042F200407A
:102B7000C4F20100062200213C913C9B03F0C4F901
:102B80000AE042F20040C4F2010000213B913B9A6E
:102B90003B9B03F0B9F9FFE7FEF70CFE41F20000A2
:102BA000C4F201004FF4004104F094FA43F6E83116
:102BB000C2F2000108706BE043F64040C2F2000030
:102BC0000068006845F25341C5F24F01884208D0C1
:102BD000FFE743F6F130C2F200004078302856D1CA
:102BE000FFE743F64740C2F200000021017040F6C3
:102BF0000040C4F20100042120233A903991399A0F
:102C000004F09EF9282010233A9938900846389904
:102C1000399A04F095F908233A983899399A04F0CA
:102C20008FF940F60000C4F201004FF400433899D8
:102C3000399A04F085F943F64040C2F2000000687A
:102C4000006845F25341C5F24F01884213D1FFE7B6
:102C500040F20510C2F20000323049F25001C0F6D5
:102C6000000111223792FDF78FFA37993690084606
:102C7000FEF7ECFF0AE040F20510C2F20000AC21C2
:102C800080F832100120FEF7E1FFFFE7FFE7FFE7E2
:102C9000FFE7FFE702F015BC43F64040C2F2000038
:102CA000006849F2B401C0F600010322FDF77EFA84
:102CB000002809D0FFE743F6F130C2F200000078A7
:102CC000DC2840F08180FFE700208DF81102FEF73C
:102CD00053FD43F64840C2F200000121017043F663
:102CE0004040C2F20000006849F2B401C0F60001A1
:102CF0000322FDF75BFA002836D1FFE749F29F0176
:102D0000C0F6000100203590FDF75EFA43F6404121
:102D1000C2F200010860086802F092FC3599349014
:102D20000846349A03F06CFE359803F0C3FE40F277
:102D30000510C2F200000A2180F83E1044F25451FE
:102D4000C0F64451C0F83A1045F25501C4F244119E
:102D5000C0F8361044F24411C2F24301C0F83210F8
:102D60000D20FEF773FF2DE040F2BC00C2F2000020
:102D70000121017043F6F130C2F2000042788378FD
:102D800043EA022243F6EE33C2F200031A8042788D
:102D9000807840EA022200203390339B329119461A
:102DA00003F02EFE339803F085FEFEF703FD40F29C
:102DB0000510C2F20000AC2180F832103298FEF704
:102DC00045FFFFE702F07CBB43F64040C2F2000043
:102DD0000068006845F24701C4F64971884209D08D
:102DE000FFE743F6F130C2F2000000786F2842F0AE
:102DF0007F82FFE749F29F01C0F600010020FDF746
:102E0000E3F943F64041C2F2000108600868006837
:102E100044F25251C4F24141884209D0FFE743F6DF
:102E2000F130C2F2000040787D2840F00682FFE7D2
:102E300043F64040C2F200000068006844F252517C
:102E4000C4F24141884240F04D81FFE741F2000069
:102E5000C4F201004FF4005104F03CF901281DD1E7
:102E6000FFE740F20510C2F200000A2180F83E1090
:102E700044F24971C0F64851C0F83A1043F6452172
:102E8000C4F62001C0F8361045F25341C5F2414165
:102E9000C0F832100D20FEF7D9FE19E040F20510FF
:102EA000C2F2000045F24F71C0F60D21C0F83A1091
:102EB00043F64521C4F62041C0F8361045F253418F
:102EC000C5F24141C0F832100C20FEF7BFFEFFE70B
:102ED00041F20000C4F201004FF4004104F0FAF89E
:102EE00001281DD1FFE740F20510C2F2000040F6B4
:102EF0000D21C18744F64811C4F64701C0F83A10C5
:102F000044F24C51C2F23A01C0F8361044F6456121
:102F1000C4F24121C0F832100E20FEF797FE1CE0EB
:102F200040F20510C2F200000A2180F83E1044F67B
:102F30004C71C0F65751C0F83A1044F24C51C2F2ED
:102F40003A01C0F8361044F64561C4F24121C0F898
:102F500032100D20FEF77AFEFFE740F60040C4F283
:102F60000100022104F0B6F801281DD1FFE740F26C
:102F70000510C2F200000A2180F83E1044F24971A7
:102F8000C0F64851C0F83A1043F64B21C4F6200170
:102F9000C0F8361044F25741C4F65F71C0F83210E1
:102FA0000D20FEF753FE19E040F20510C2F20000BA
:102FB00045F24F71C0F60D21C0F83A1043F64B218F
:102FC000C4F62041C0F8361044F25741C4F65F7190
:102FD000C0F832100C20FEF739FEFFE740F6004043
:102FE000C4F201004FF4805104F074F801281AD1A2
:102FF000FFE740F20510C2F2000044F64701C0F6B8
:103000000D21C0F8391044F62001C4F24971C0F80E
:10301000361044F24F31C3F65021C0F832100B2065
:10302000FEF714FE16E040F20510C2F2000040F672
:103030000D21418744F62041C5F24F71C0F836108A
:1030400044F24F31C3F65021C0F832100A20FEF787
:10305000FDFDFFE740F60040C4F20100202104F02E
:1030600039F8012820D1FFE740F20510C2F2000034
:1030700044F64701C0F60D21C0F83D1044F620018A
:10308000C4F24971C0F83A1044F65F11C3F64E21FC
:10309000C0F8361045F65311C4F24E31C0F8321064
:1030A0000E20FEF7D3FD1CE040F20510C2F2000036
:1030B00040F60D21C18744F62041C5F24F71C0F89A
:1030C0003A1044F65F11C3F64E21C0F8361045F6AB
:1030D0005311C4F24E31C0F832100D20FEF7B6FD88
:1030E000FFE7A8E040F20510C2F20000002180F8DE
:1030F000321041F20000C4F201004FF4005103F01D
:10310000E9FF01280BD1FFE740F20510C2F20000F1
:1031100090F832104900013180F8321009E040F295
:103120000510C2F2000090F83210490080F8321009
:10313000FFE741F20000C4F201004FF4004103F048
:10314000C9FF01280BD1FFE740F20510C2F20000D1
:1031500090F832104900013180F8321009E040F255
:103160000510C2F2000090F83210490080F83210C9
:10317000FFE740F60040C4F20100022103F0AAFF7D
:1031800001280BD1FFE740F20510C2F2000090F8D1
:1031900032104900013180F8321009E040F2051088
:1031A000C2F2000090F83210490080F83210FFE7B8
:1031B00040F60040C4F201004FF4805103F08AFF52
:1031C00001280BD1FFE740F20510C2F2000090F891
:1031D00032104900013180F8321009E040F2051048
:1031E000C2F2000090F83210490080F83210FFE778
:1031F00040F60040C4F20100202103F06BFF0128DB
:103200000BD1FFE740F20510C2F2000090F8321037
:103210004900013180F8321009E040F20510C2F295
:10322000000090F83210490080F83210FFE70120CA
:10323000FEF70CFDFFE702F05AB843F64040C2F239
:103240000000006849F2C901C0F600010722FCF73E
:10325000ADFF002809D0FFE743F6F130C2F20000CD
:1032600040787F2841F0BF82FFE7FDF721FB43F65E
:103270004040C2F20000006849F2C901C0F60001F6
:103280000722FCF793FF002840F03E87FFE741F25A
:103290000000C4F201004FF4005103F01BFF0128AD
:1032A0001DD1FFE740F20510C2F200000A2180F8AC
:1032B0003E1044F24971C0F64851C0F83A1043F646
:1032C0004521C4F62001C0F8361045F25341C5F23D
:1032D0004141C0F832100D20FEF7B8FC19E040F271
:1032E0000510C2F2000045F24F71C0F60D21C0F882
:1032F0003A1043F64521C4F62041C0F8361045F295
:103300005341C5F24141C0F832100C20FEF79EFC3B
:10331000FFE741F20000C4F201004FF4804103F0E6
:10332000D9FE01281DD1FFE740F20510C2F20000CE
:103330000A2180F83E1044F24971C0F64851C0F8A5
:103340003A1043F64D21C4F62001C0F8361044F679
:103350004141C5F24121C0F832100D20FEF776FC44
:1033600019E040F20510C2F2000045F24F71C0F6BC
:103370000D21C0F83A1043F64D21C4F62041C0F8A3
:10338000361044F64141C5F24121C0F832100C20FC
:10339000FEF75CFCFFE741F20000C4F201004FF4CD
:1033A000004103F097FE01281DD1FFE740F2051010
:1033B000C2F2000040F60D21C18744F64811C4F660
:1033C0004701C0F83A1044F24C51C2F23A01C0F839
:1033D000361044F64561C4F24121C0F832100E2087
:1033E000FEF734FC1CE040F20510C2F200000A2196
:1033F00080F83E1044F64C71C0F65751C0F83A10B0
:1034000044F24C51C2F23A01C0F8361044F645611C
:10341000C4F24121C0F832100D20FEF717FCFFE77F
:1034200040F60000C4F20100012103F053FE012820
:103430001AD1FFE740F20510C2F2000044F647013E
:10344000C0F60D21C0F83A1042F23A01C4F6481114
:10345000C0F8361044F24921C5F25531C0F8321097
:103460000C20FEF7F3FB19E040F20510C2F2000059
:1034700045F24F71C0F60D21C0F8391042F23A0101
:10348000C4F64C71C0F8361044F24921C5F25531EA
:10349000C0F832100B20FEF7D9FBFFE740F6000022
:1034A000C4F20100022103F015FE01281AD1FFE742
:1034B00040F20510C2F2000044F64701C0F60D21AB
:1034C000C0F83A1042F23A01C4F64811C0F836107A
:1034D00044F25611C4F64341C0F832100C20FEF7F6
:1034E000B5FB19E040F20510C2F2000045F24F7141
:1034F000C0F60D21C0F8391042F23A01C4F64C7101
:10350000C0F8361044F25611C4F64341C0F83210E8
:103510000B20FEF79BFBFFE740F60000C4F2010022
:10352000042103F0D7FD012817D1FFE740F2051071
:10353000C2F2000040F60D21418744F64811C4F65E
:103540004701C0F8361044F64941C2F23A01C0F8CA
:1035500032100A20FEF77AFB16E040F20510C2F2A4
:1035600000000A2180F83A1044F64C71C0F6575119
:10357000C0F8361044F64941C2F23A01C0F83210A0
:103580000920FEF763FBFFE740F60000C4F20100EC
:10359000082103F09FFD01281AD1FFE740F2051032
:1035A000C2F2000044F64701C0F60D21C0F83A10FF
:1035B00042F23A01C4F64811C0F8361044F25451B0
:1035C000C5F24D01C0F832100C20FEF73FFB19E0A8
:1035D00040F20510C2F2000045F24F71C0F60D2115
:1035E000C0F8391042F23A01C4F64C71C0F83610F6
:1035F00044F25451C5F24D01C0F832100B20FEF7D1
:1036000025FBFFE740F60000C4F20100102103F0A3
:1036100061FD01281DD1FFE740F20510C2F2000054
:1036200040F60D21C18744F64811C4F64701C0F8A1
:103630003A1044F65401C2F23A01C0F8361044F28E
:103640004F31C5F65071C0F832100E20FEF7FEFA69
:103650001CE040F20510C2F200000A2180F83E1082
:1036600044F64C71C0F65751C0F83A1044F6540174
:10367000C2F23A01C0F8361044F24F31C5F650712B
:10368000C0F832100D20FEF7E1FAFFE740F6000027
:10369000C4F20100202103F01DFD01281AD1FFE72B
:1036A00040F20510C2F2000044F64701C0F60D21B9
:1036B000C0F83A1042F23A01C4F64811C0F8361088
:1036C00044F25611C4F64361C0F832100C20FEF7E4
:1036D000BDFA19E040F20510C2F2000045F24F7148
:1036E000C0F60D21C0F8391042F23A01C4F64C710F
:1036F000C0F8361044F25611C4F64361C0F83210D7
:103700000B20FEF7A3FAFFE740F60000C4F2010029
:10371000402103F0DFFC01281AD1FFE740F2051039
:10372000C2F2000044F64701C0F60D21C0F83A107D
:1037300042F23A01C4F64811C0F8361044F256215C
:10374000C5F25531C0F832100C20FEF77FFA19E0AF
:1037500040F20510C2F2000045F24F71C0F60D2193
:10376000C0F8391042F23A01C4F64C71C0F8361074
:1037700044F25621C5F25531C0F832100B20FEF745
:1037800065FAFFE740F60000C4F20100802103F073
:10379000A1FC01281DD1FFE740F20510C2F2000094
:1037A0000A2180F83E1044F24971C0F64851C0F831
:1037B0003A1043F65921C4F62001C0F8361044F2FD
:1037C0005251C4F24C11C0F832100D20FEF73EFAEF
:1037D00019E040F20510C2F2000045F24F71C0F648
:1037E0000D21C0F83A1043F65921C4F62041C0F823
:1037F000361044F25251C4F24C11C0F832100C2071
:10380000FEF724FAFFE740F60040C4F20100012170
:1038100003F060FC012817D1FFE740F20510C2F267
:10382000000040F60D21418744F64811C4F64701D7
:10383000C0F8361044F25741C2F23A01C0F83210D3
:103840000A20FEF703FA16E040F20510C2F200006B
:103850000A2180F83A1044F64C71C0F65751C0F86E
:10386000361044F25741C2F23A01C0F83210092032
:10387000FEF7ECF9FFE740F60040C4F20100022138
:1038800003F028FC01281DD1FFE740F20510C2F229
:1038900000000A2180F83E1044F24971C0F64851F8
:1038A000C0F83A1043F64B21C4F62001C0F8361098
:1038B00044F25741C4F65F71C0F832100D20FEF794
:1038C000C5F919E040F20510C2F2000045F24F714F
:1038D000C0F60D21C0F83A1043F64B21C4F6204142
:1038E000C0F8361044F25741C4F65F71C0F8321088
:1038F0000C20FEF7ABF9FFE740F60040C4F20100F0
:10390000042103F0E7FB012820D1FFE740F2051076
:10391000C2F2000044F64701C0F60D21C0F83E1087
:1039200042F23A01C4F64811C0F83A1045F6547113
:10393000C4F24451C0F8361045F25531C5F2412168
:10394000C0F832101020FEF781F91FE040F2051098
:10395000C2F2000045F24F71C0F60D21C0F83D10D3
:1039600042F23A01C4F64C71C0F83A1045F654716F
:10397000C4F24451C0F8361045F25531C5F2412128
:10398000C0F832100F20FEF761F9FFE740F6004063
:10399000C4F201004FF4806103F09CFB012820D1A8
:1039A000FFE740F20510C2F2000044F64701C0F6FE
:1039B0000D21C0F83E1042F23A01C4F64811C0F899
:1039C0003A1045F65471C5F65401C0F8361045F268
:1039D0005531C5F24121C0F832101020FEF736F9FA
:1039E0001FE040F20510C2F2000045F24F71C0F630
:1039F0000D21C0F83D1042F23A01C4F64C71C0F8F6
:103A00003A1045F65471C5F65401C0F8361045F227
:103A10005531C5F24121C0F832100F20FEF716F9DA
:103A2000FFE740F60040C4F201004FF4006103F0EC
:103A300051FB012820D1FFE740F20510C2F200003F
:103A400044F64701C0F60D21C0F83E1042F23A019B
:103A5000C4F64811C0F83A1045F65471C5F6520143
:103A6000C0F8361045F25531C5F24121C0F8321088
:103A70001020FEF7EBF81FE040F20510C2F2000044
:103A800045F24F71C0F60D21C0F83D1042F23A01E7
:103A9000C4F64C71C0F83A1045F65471C5F652019F
:103AA000C0F8361045F25531C5F24121C0F8321048
:103AB0000F20FEF7CBF8FFE740F60040C4F201000C
:103AC0004FF4805103F006FB01281AD1FFE740F2C2
:103AD0000510C2F2000040F64851C0F20A01C0F8D9
:103AE0003A1044F62001C4F24971C0F8361044F28D
:103AF0004F31C3F65021C0F832100C20FEF7A6F863
:103B000017E040F20510C2F2000040F60D21C0F8A7
:103B10003A1044F62041C5F24F71C0F8361044F215
:103B20004F31C3F65021C0F832100B20FEF78EF84B
:103B3000FFE740F60040C4F201004FF4005103F0EB
:103B4000C9FA01281DD1FFE740F20510C2F20000BA
:103B500040F60D21C18744F64811C4F64701C0F86C
:103B60003A1044F65301C2F23A01C0F8361045F259
:103B70005071C5F64D71C0F832100E20FEF766F890
:103B80001CE040F20510C2F200000A2180F83E104D
:103B900044F64C71C0F65751C0F83A1044F6530140
:103BA000C2F23A01C0F8361045F25071C5F64D71B7
:103BB000C0F832100D20FEF749F8FFE740F600404C
:103BC000C4F201004FF4804103F084FA01281DD1B2
:103BD000FFE740F20510C2F2000040F60D21C18758
:103BE00044F64811C4F64701C0F83A1044F6534170
:103BF000C2F23A01C0F8361045F25071C5F64D7167
:103C0000C0F832100E20FEF721F81CE040F205103B
:103C1000C2F200000A2180F83E1044F64C71C0F652
:103C20005751C0F83A1044F65341C2F23A01C0F875
:103C3000361045F25071C5F64D71C0F832100D20A6
:103C4000FEF704F8FFE740F60040C4F201004FF42D
:103C5000004103F03FFA01281AD1FFE740F20510B6
:103C6000C2F2000044F64701C0F60D21C0F83A1038
:103C700042F23A01C4F64811C0F8361044F24C51F1
:103C8000C3F24411C0F832100C20FDF7DFFF19E039
:103C900040F20510C2F2000045F24F71C0F60D214E
:103CA000C0F8391042F23A01C4F64C71C0F836102F
:103CB00044F24C51C3F24411C0F832100B20FDF70E
:103CC000C5FFFFE740F60000C4F201004FF4807129
:103CD00003F000FA01281DD1FFE740F20510C2F2FF
:103CE000000040F60D21C18744F64811C4F6470193
:103CF000C0F83A1044F64601C2F23A01C0F8361054
:103D000045F25071C5F64D71C0F832100E20FDF726
:103D10009DFF1CE040F20510C2F200000A2180F86D
:103D20003E1044F64C71C0F65751C0F83A1044F6B4
:103D30004601C2F23A01C0F8361045F25071C5F69C
:103D40004D71C0F832100D20FDF780FFFFE740F6FF
:103D50000000C4F201004FF4007103F0BBF9012828
:103D60001DD1FFE740F20510C2F2000040F60D2120
:103D7000C18744F64811C4F64701C0F83A1044F62A
:103D80004641C2F23A01C0F8361045F25071C5F60C
:103D90004D71C0F832100E20FDF758FF1CE040F2C4
:103DA0000510C2F200000A2180F83E1044F64C7162
:103DB000C0F65751C0F83A1044F64641C2F23A01F3
:103DC000C0F8361045F25071C5F64D71C0F832108A
:103DD0000D20FDF73BFFFFE740F60040C4F2010075
:103DE0004FF4005103F076F901281DD1FFE740F2AE
:103DF0000510C2F2000040F60D21C18744F64811BB
:103E0000C4F64701C0F83A1044F65301C2F23A0131
:103E1000C0F8361045F25071C5F64D71C0F8321039
:103E20000E20FDF713FF1CE040F20510C2F2000067
:103E30000A2180F83E1044F64C71C0F65751C0F884
:103E40003A1044F65301C2F23A01C0F8361045F276
:103E50005071C5F64D71C0F832100D20FDF7F6FE19
:103E6000FFE740F60000C4F201004FF4806103F068
:103E700031F901281DD1FFE740F20510C2F2000020
:103E800040F60D21C18744F64811C4F64701C0F839
:103E90003A1044F64561C2F23A01C0F8361045F2D4
:103EA0005071C5F64D71C0F832100E20FDF7CEFEF0
:103EB0001CE040F20510C2F200000A2180F83E101A
:103EC00044F64C71C0F65751C0F83A1044F64561BB
:103ED000C2F23A01C0F8361045F25071C5F64D7184
:103EE000C0F832100D20FDF7B1FEFFE740F60000EC
:103EF000C4F201004FF4006103F0ECF801281DD179
:103F0000FFE740F20510C2F2000040F60D21C18724
:103F100044F64811C4F64701C0F83A1045F652017C
:103F2000C2F23A01C0F8361044F24311C5F64E71A0
:103F3000C0F832100E20FDF789FE1CE040F205109B
:103F4000C2F200000A2180F83E1044F64C71C0F61F
:103F50005751C0F83A1045F65201C2F23A01C0F882
:103F6000361044F24311C5F64E71C0F832100D20E0
:103F7000FDF76CFEFFE740F60000C4F201004FF4CD
:103F8000805103F0A7F801281DD1FFE740F205108A
:103F9000C2F2000040F60D21C18744F64811C4F674
:103FA0004701C0F83A1045F65401C2F23A01C0F890
:103FB000361044F24311C5F64E71C0F832100E208F
:103FC000FDF744FE1CE040F20510C2F200000A2199
:103FD00080F83E1044F64C71C0F65751C0F83A10C4
:103FE00045F65401C2F23A01C0F8361044F24311CA
:103FF000C5F64E71C0F832100D20FDF727FEFFE721
:1040000040F60040C4F20100202103F063F80128CB
:1040100020D1FFE740F20510C2F2000044F647014C
:10402000C0F60D21C0F83D1044F62001C4F24971DC
:10403000C0F83A1044F65F11C3F64E21C0F83610AE
:1040400045F65311C4F24E31C0F832100F20FDF77F
:10405000FDFD1CE040F20510C2F2000040F60D210B
:10406000C18744F62041C5F24F71C0F83A1044F6BA
:104070005F11C3F64E21C0F8361045F65311C4F255
:104080004E31C0F832100E20FDF7E0FDFFE740F69C
:104090000040C4F201004FF4807103F01BF80128C6
:1040A0001AD1FFE740F20510C2F2000044F64701C2
:1040B000C0F60D21C0F8391044F62001C4F2497150
:1040C000C0F8361044F24611C3F64E21C0F8321043
:1040D0000B20FDF7BBFD16E040F20510C2F2000018
:1040E00040F60D21418744F62041C5F24F71C0F8DA
:1040F000361044F24611C3F64E21C0F832100A20A1
:10410000FDF7A4FDFFE764E340F20510C2F20000F2
:10411000002180F8321080F8331080F8341080F8D5
:10412000351041F20000C4F201004FF4005102F0DA
:10413000D1FF01280BD1FFE740F20510C2F20000C9
:1041400090F832104900013180F8321009E040F255
:104150000510C2F2000090F83210490080F83210C9
:10416000FFE741F20000C4F201004FF4804102F089
:10417000B1FF01280BD1FFE740F20510C2F20000A9
:1041800090F832104900013180F8321009E040F215
:104190000510C2F2000090F83210490080F8321089
:1041A000FFE741F20000C4F201004FF4004102F0C9
:1041B00091FF01280BD1FFE740F20510C2F2000089
:1041C00090F832104900013180F8321009E040F2D5
:1041D0000510C2F2000090F83210490080F8321049
:1041E000FFE740F60000C4F20100012102F072FF77
:1041F00001280BD1FFE740F20510C2F2000090F851
:1042000032104900013180F8321009E040F2051007
:10421000C2F2000090F83210490080F83210FFE737
:1042200040F60000C4F20100022102F053FF012811
:104230000BD1FFE740F20510C2F2000090F83210F7
:104240004900013180F8321009E040F20510C2F255
:10425000000090F83210490080F83210FFE740F675
:104260000000C4F20100042102F034FF01280BD148
:10427000FFE740F20510C2F2000090F8321049004A
:10428000013180F8321009E040F20510C2F200005E
:1042900090F83210490080F83210FFE740F6000035
:1042A000C4F20100082102F015FF01280BD1FFE73D
:1042B00040F20510C2F2000090F8321049000131BE
:1042C00080F8321009E040F20510C2F2000090F8C8
:1042D0003210490080F83210FFE740F60000C4F2C7
:1042E0000100102102F0F6FE01280BD1FFE740F299
:1042F0000510C2F2000090F832104900013180F838
:10430000321009E040F20510C2F2000090F83210BD
:10431000490080F83210FFE740F60000C4F20100C7
:10432000202102F0D7FE01280BD1FFE740F2051053
:10433000C2F2000090F832104900013180F83310C9
:1043400009E040F20510C2F2000090F83310490075
:1043500080F83310FFE740F60000C4F2010040216E
:1043600002F0B8FE01280BD1FFE740F20510C2F2BF
:10437000000090F832104900013180F8331009E054
:1043800040F20510C2F2000090F83310490080F8A6
:104390003310FFE740F60000C4F20100802102F074
:1043A00099FE01280BD1FFE740F20510C2F2000090
:1043B00090F832104900013180F8331009E040F2E2
:1043C0000510C2F2000090F83310490080F8331055
:1043D000FFE740F60040C4F20100012102F07AFE3E
:1043E00001280BD1FFE740F20510C2F2000090F85F
:1043F00032104900013180F8331009E040F2051015
:10440000C2F2000090F83310490080F83310FFE743
:1044100040F60040C4F20100022102F05BFE0128D8
:104420000BD1FFE740F20510C2F2000090F8321005
:104430004900013180F8331009E040F20510C2F262
:10444000000090F83310490080F83310FFE740F681
:104450000040C4F20100042102F03CFE01280BD10F
:10446000FFE740F20510C2F2000090F83210490058
:10447000013180F8331009E040F20510C2F200006B
:1044800090F83310490080F83310FFE740F6004001
:10449000C4F201004FF4806102F01CFE01280BD130
:1044A000FFE740F20510C2F2000090F83210490018
:1044B000013180F8331009E040F20510C2F200002B
:1044C00090F83310490080F83310FFE740F60040C1
:1044D000C4F201004FF4006102F0FCFD01280BD191
:1044E000FFE740F20510C2F2000090F832104900D8
:1044F000013180F8331009E040F20510C2F20000EB
:1045000090F83310490080F83310FFE740F6004080
:10451000C4F201004FF4805102F0DCFD01280BD100
:10452000FFE740F20510C2F2000090F83210490097
:10453000013180F8341009E040F20510C2F20000A9
:1045400090F83410490080F83410FFE740F600403E
:10455000C4F201004FF4005102F0BCFD01280BD160
:10456000FFE740F20510C2F2000090F83210490057
:10457000013180F8341009E040F20510C2F2000069
:1045800090F83410490080F83410FFE740F60040FE
:10459000C4F201004FF4804102F09CFD01280BD1D0
:1045A000FFE740F20510C2F2000090F83210490017
:1045B000013180F8341009E040F20510C2F2000029
:1045C00090F83410490080F83410FFE740F60040BE
:1045D000C4F201004FF4004102F07CFD01280BD130
:1045E000FFE740F20510C2F2000090F832104900D7
:1045F000013180F8341009E040F20510C2F20000E9
:1046000090F83410490080F83410FFE740F60000BD
:10461000C4F201004FF4807102F05CFD01280BD15F
:10462000FFE740F20510C2F2000090F83210490096
:10463000013180F8341009E040F20510C2F20000A8
:1046400090F83410490080F83410FFE740F600007D
:10465000C4F201004FF4007102F03CFD01280BD1BF
:10466000FFE740F20510C2F2000090F83210490056
:10467000013180F8341009E040F20510C2F2000068
:1046800090F83410490080F83410FFE740F600003D
:10469000C4F201004FF4806102F01CFD01280BD12F
:1046A000FFE740F20510C2F2000090F83210490016
:1046B000013180F8341009E040F20510C2F2000028
:1046C00090F83410490080F83410FFE740F60000FD
:1046D000C4F201004FF4006102F0FCFC01280BD190
:1046E000FFE740F20510C2F2000090F832104900D6
:1046F000013180F8341009E040F20510C2F20000E8
:1047000090F83410490080F83410FFE740F60000BC
:10471000C4F201004FF4805102F0DCFC01280BD1FF
:10472000FFE740F20510C2F2000090F83210490095
:10473000013180F8351009E040F20510C2F20000A6
:1047400090F83510490080F83510FFE740F600403A
:10475000C4F20100202102F0BDFC01280BD1FFE7CB
:1047600040F20510C2F2000090F832104900013109
:1047700080F8351009E040F20510C2F2000090F810
:104780003510490080F83510FFE740F60040C4F2CC
:1047900001004FF4807102F09DFC01280BD1FFE76E
:1047A00040F20510C2F2000090F8321049000131C9
:1047B00080F8351009E040F20510C2F2000090F8D0
:1047C0003510490080F83510FFE70420FDF73EFA68
:1047D000FFE7FCF7A3FCFDF751FAFCF7A5FEFCF799
:1047E0009BFA00F083BD43F64040C2F2000000682F
:1047F000006844F64811C4F64701884209D0FFE733
:1048000043F6F130C2F200004078FF2840F0EA8021
:10481000FFE741F20000C4F201004FF40051319073
:10482000309102F085FB4FF4004031992F900846FB
:104830002F9902F07DFB40F60040C4F201000221F6
:104840002E902D9102F074FB4FF480502E992C90F5
:1048500008462C9902F06CFB20202E992B900846DC
:104860002B9902F065FB4FF4804031992A9008465D
:104870002A9902F05DFB40F60000C4F2010080219D
:10488000299002F055FB01202E992890084628997E
:1048900002F04EFB04202E9927900846279902F03B
:1048A00047FB2E982F9902F043FB4FF48060299923
:1048B00026900846269902F03BFB4FF480702E9913
:1048C00025900846259902F033FB4FF40071299892
:1048D00002F02EFB2998259902F02AFB2E982A999E
:1048E00002F026FB2E98309902F022FB2998289995
:1048F00002F01EFB29982D9902F01AFB299827999E
:1049000002F016FB0820299924900846249902F009
:104910000FFB29982B9902F00BFB4021299802F0FC
:1049200007FB1020299923900846239902F000FBE9
:104930002E98269902F0FCFA4FF400602E992290EE
:104940000846229902F0F4FA29982C9902F0F0FA1C
:104950002998229902F0ECFA2E98249902F0E8FAAC
:104960002E98239902F0E4FA29982F9902F0E0FAA0
:1049700043F64040C2F200000068006844F6481167
:10498000C4F64701884220D1FFE740F20510C2F289
:10499000000044F64701C0F60D21C0F83D1044F672
:1049A0002001C4F24971C0F83A1045F24701C4F63B
:1049B0004971C0F8361044F64141C2F24C01C0F8CA
:1049C00032100F20FDF742F90AE040F20510C2F262
:1049D0000000AC2180F832100120FDF737F9FFE725
:1049E00000F083BC43F64040C2F20000006849F288
:1049F000FB01C0F600010322FBF7D8FB002809D019
:104A0000FFE743F6F130C2F200004078002840F0A2
:104A1000E880FFE741F20000C4F201004FF40051CA
:104A20002190209102F07CFA4FF4004021991F90D0
:104A300008461F9902F074FA40F60040C4F20100E3
:104A400002211E901D9102F06BFA4FF480501E99C6
:104A50001C9008461C9902F063FA20201E991B90B6
:104A600008461B9902F05CFA4FF4804021991A9095
:104A700008461A9902F054FA40F60000C4F2010008
:104A80008021199002F04CFA01201E9918900846D6
:104A9000189902F045FA04201E99179008461799B4
:104AA00002F03EFA1E981F9902F03AFA4FF4806025
:104AB000199916900846169902F032FA4FF4807050
:104AC0001E9915900846159902F02AFA4FF40071C4
:104AD000199802F025FA1998159902F021FA1E98F2
:104AE0001A9902F01DFA1E98209902F019FA1998E5
:104AF000189902F015FA19981D9902F011FA1998EF
:104B0000179902F00DFA0820199914900846149983
:104B100002F006FA19981B9902F002FA402119983E
:104B200002F0FEF91020199913900846139902F02B
:104B3000F7F91E98169902F0F3F94FF400601E99E8
:104B400012900846129902F0EBF919981C9902F09C
:104B5000E7F91998129902F0E3F91E98149902F0F6
:104B6000DFF91E98139902F0DBF919981F9902F0EA
:104B7000D7F943F64040C2F20000006849F2FB0159
:104B8000C0F600010322FBF711FB00281DD1FFE74F
:104B900040F20510C2F2000040F60D21C18744F634
:104BA0002041C5F24F71C0F83A1045F24701C4F6F2
:104BB0004971C0F8361044F64141C2F24C01C0F8C8
:104BC00032100E20FDF742F80AE040F20510C2F262
:104BD0000000AC2180F832100120FDF737F8FFE724
:104BE00082E343F64040C2F20000006849F2D80177
:104BF000C0F600010622FBF7D9FA002809D0FFE72A
:104C000043F6F130C2F200004078CC2840F0BA817F
:104C1000FFE743F64040C2F20000006849F2D801C5
:104C2000C0F600010622FBF7C1FA002840F0E1803F
:104C3000FFE749F29F01C0F600010020FBF7C4FA2C
:104C400043F64041C2F200010860086800F0CEFC63
:104C500043F6E431C2F2000108600878C00700287A
:104C600009D0FFE741F20000C4F201004FF4804197
:104C700002F05EF908E041F20000C4F201004FF4D6
:104C8000804102F04DF9FFE743F6E430C2F2000044
:104C900000684008C007002808D0FFE740F6000081
:104CA000C4F20100802102F043F907E040F6000061
:104CB000C4F20100802102F033F9FFE743F6E4304B
:104CC000C2F2000000688008C007002808D0FFE793
:104CD00040F60040C4F20100012102F029F907E08A
:104CE00040F60040C4F20100012102F019F9FFE78B
:104CF00043F6E430C2F200000068C008C007002894
:104D000008D0FFE740F60040C4F20100042102F0A1
:104D10000FF907E040F60040C4F20100042102F060
:104D2000FFF8FFE743F6E430C2F200000068000934
:104D3000C007002809D0FFE740F60040C4F2010098
:104D40004FF4004102F0F4F808E040F60040C4F2ED
:104D500001004FF4004102F0E3F8FFE743F6E430CE
:104D6000C2F2000000680009C007002809D0FFE770
:104D700040F60000C4F201004FF4806102F0D8F860
:104D800008E040F60000C4F201004FF4806102F038
:104D9000C7F8FFE743F6E430C2F2000000680009FC
:104DA000C007002809D0FFE740F60040C4F2010028
:104DB0004FF4807102F0BCF808E040F60040C4F205
:104DC00001004FF4807102F0ABF8FFE740F20510EC
:104DD000C2F20000323049F22201C0F60001142272
:104DE0001192FBF7D1F9119910900846FCF72EFFAC
:104DF000C7E043F6F130C2F200008078C007002817
:104E000009D0FFE741F20000C4F201004FF48041F5
:104E100002F08EF808E041F20000C4F201004FF405
:104E2000804102F07DF8FFE743F6F130C2F2000066
:104E300080784008C007002808D0FFE740F600004F
:104E4000C4F20100802102F073F807E040F6000090
:104E5000C4F20100802102F063F8FFE743F6F1306D
:104E6000C2F2000080788008C007002808D0FFE761
:104E700040F60040C4F20100012102F059F807E0B9
:104E800040F60040C4F20100012102F049F8FFE7BA
:104E900043F6F130C2F200008078C008C007002855
:104EA00008D0FFE740F60040C4F20100042102F000
:104EB0003FF807E040F60040C4F20100042102F090
:104EC0002FF8FFE743F6F130C2F2000080780009C6
:104ED000C007002809D0FFE740F60040C4F20100F7
:104EE0004FF4004102F024F808E040F60040C4F21C
:104EF00001004FF4004102F013F8FFE743F6F130F0
:104F0000C2F2000080784009C007002809D0FFE7FE
:104F100040F60000C4F201004FF4806102F008F88E
:104F200008E040F60000C4F201004FF4806101F097
:104F3000F7FFFFE743F6F130C2F200008078800906
:104F4000C007002809D0FFE740F60040C4F2010086
:104F50004FF4807101F0ECFF08E040F60040C4F22D
:104F600001004FF4807101F0DBFFFFE740F2051014
:104F7000C2F20000AC2180F832100120FCF766FE7E
:104F8000FFE7B0E143F64040C2F20000006849F29A
:104F9000E701C0F600010722FBF708F9002808D056
:104FA000FFE743F6F130C2F200004078AA2867D14B
:104FB000FFE743F64040C2F20000006849F2E70113
:104FC000C0F600010722FBF7F1F8002829D1FFE71E
:104FD00049F29F00C0F6000000210F9008460F9A8A
:104FE0000E911146FBF7F0F843F64041C2F2000182
:104FF000086008680D9100F023FB43F63E41C2F2C1
:10500000000108800E980F99FBF7DEF80D990860F3
:10501000086800F015FB43F63C41C2F2000108802D
:1050200016E043F6F130C2F200008178C27842EA1D
:10503000012143F63E42C2F200021180017940791B
:1050400040EA012043F63C41C2F200010880FFE73C
:1050500043F63E40C2F20000008841F288318842A7
:105060000DDCFFE743F6EA30C2F2000001210170D7
:105070001C2000F0EDFD322000F008FEFFE731E1DA
:1050800043F64040C2F20000006849F2F701C0F662
:1050900000010322FBF78AF8002808D0FFE743F657
:1050A000F130C2F200004078A02830D1FFE7FBF7D2
:1050B000D7FC43F64040C2F20000006849F2F70115
:1050C000C0F600010322FBF771F8002813D1FFE7B7
:1050D00040F20510C2F20000323049F23701C0F64A
:1050E000000118220C92FBF74FF80C990B90084620
:1050F000FCF7ACFD0AE040F20510C2F20000AC2162
:1051000080F832100120FCF7A1FDFFE7E9E043F64B
:105110004040C2F20000006849F2D101C0F600012F
:105120000622FBF743F8002808D0FFE743F6F130EA
:10513000C2F200004078A42836D1FFE7FBF7EEFF6B
:1051400043F6EB30C2F200000021017043F640400C
:10515000C2F20000006849F2D101C0F60001062247
:10516000FBF724F8002813D1FFE740F20510C2F244
:105170000000323049F20201C0F600011F220A92FB
:10518000FBF702F80A9909900846FCF75FFD0AE070
:1051900040F20510C2F20000AC2180F8321001206C
:1051A000FCF754FDFFE79BE043F64040C2F20000ED
:1051B000006849F2A401C0F600010722FAF7F6FFE1
:1051C000002808D0FFE743F6F130C2F20000407833
:1051D000852836D1FFE7FBF7BFFD43F6EB30C2F27F
:1051E00000000121017043F64040C2F20000006857
:1051F00049F2A401C0F600010722FAF7D7FF002800
:1052000013D1FFE740F20510C2F20000323048F639
:10521000B771C0F600011B220892FAF7B5FF089992
:1052200007900846FCF712FD0AE040F20510C2F2B2
:105230000000AC2180F832100220FCF707FDFFE7E8
:105240004DE043F64040C2F20000006849F2AC0174
:10525000C0F600010722FAF7A9FF002808D0FFE7EF
:1052600043F6F130C2F200004078582836D1FFE70B
:10527000FBF764FE43F6EB30C2F20000022101703E
:1052800043F64040C2F20000006849F2AC01C0F6AB
:1052900000010722FAF78AFF002813D1FFE740F246
:1052A0000510C2F20000323048F6D371C0F600019A
:1052B0001B220692FAF768FF069905900846FCF74C
:1052C000C5FC0AE040F20510C2F20000AC2180F8F3
:1052D00032100220FCF7BAFCFFE7FFE7FFE7FFE729
:1052E000FFE7FFE7FFE7FFE7FFE7FFE7FFE7E6E0AE
:1052F00043F64040C2F200000068006844F25511D5
:10530000C5F25241884208D0FFE743F6F130C2F2BD
:1053100000000078CA2861D1FFE749F29F01C0F67A
:1053200000010020FAF750FF43F64041C2F20001AD
:1053300008600868008844F65451884208D0FFE7A6
:1053400043F6F130C2F200000078CA2845D1FFE7E9
:1053500040F2BD00C2F2000043F23101C0F60D215F
:10536000016243F25131C3F23201C16142F24F0195
:10537000C5F24D01816144F24851C4F64C4141618E
:105380001020FCF7B9F843F64040C2F20000006874
:10539000008844F65451884213D1FFE740F20510CB
:1053A000C2F20000323049F27501C0F60001152248
:1053B0000492FAF7E9FE049903900846FCF746FCCC
:1053C0000AE040F20510C2F20000AC2180F8321071
:1053D0000120FCF73BFCFFE7FFE76FE043F64040AE
:1053E000C2F20000006849F2E301C0F600010322A6
:1053F000FAF7DCFE002808D0FFE743F6F130C2F2EE
:1054000000000078C52858D1FFE749F29F01C0F697
:1054100000010020FAF7D8FE43F64041C2F2000135
:1054200008600868008844F65451884208D0FFE7B5
:1054300043F6F130C2F200000078C5283CD1FFE706
:1054400040F21400C2F200005521A0F8A010032180
:1054500080F8A4104D21C172502101735321417372
:10546000FBF7D0F843F64040C2F200000068008825
:1054700044F65451884213D1FFE740F20510C2F2BE
:105480000000323049F28B01C0F600011322029273
:10549000FAF77AFE029901900846FCF7D7FB0AE07A
:1054A00040F20510C2F20000AC2180F83210012059
:1054B000FCF7CCFBFFE7FFE7FFE7FFE7FFE7FFE7CE
:1054C000FFE7FFE700208DF81302FFE79DF81302C6
:1054D00031280FDCFFE79DF8130240F20511C2F2FC
:1054E000000100220A54FFE79DF8130201308DF8F5
:1054F0001302EBE79DF81102002804D0FFE71C20FF
:1055000000F0C4FBFFE7FFE70DF5057DBDE8F08F78
:1055100080B59CB0FBF702FEFCF7B0FBFCF704F88B
:10552000FBF7FAFB4FF4E130169000211791189128
:10553000199140F20512C2F2000202F132031A93ED
:105540001B9216AB0690184605910492FCF7D4FA0C
:105550002020049981F83200012203901046029223
:10556000FCF774FB06981090059911911291139114
:1055700040F2BD02C2F2000202F11403149315922C
:1055800010A80192FBF714FF03980199087502987F
:10559000FBF7B2FF05980C900D900F9009900E90BC
:1055A00040F2EA01C2F20001CA1D0A9205310B91D4
:1055B00009A8FBF7D9FF4FF4FA70079005988DF80A
:1055C00021008DF8200007A8FBF738FBFBF7F0F867
:1055D00042F6DF60FCF72AF90E20FCF7F7F940F6F7
:1055E000B730FCF7BBF91CB080BD000083B002905F
:1055F000002001908DF80300FFE702989DF803104A
:10560000405C00212F280A46C8BF01223A28B8BFB3
:1056100001210A4211D0FFE7019840000190029851
:105620009DF80310405C01990844303801909DF8C2
:10563000030001308DF80300DFE7019803B07047E5
:1056400082B001900020ADF80200ADF80000FFE745
:105650000198BDF80010405C00212F280A46C8BF01
:1056600001223A28B8BF01210A4217D0FFE7BDF84E
:10567000020000EB80004000ADF802000198BDF888
:105680000010405CBDF8021008443038ADF802004C
:10569000BDF800000130ADF80000D9E7BDF8020008
:1056A00002B0704780B582B0009000980138B0F128
:1056B000807F03D3FFE70120019019E000980138B3
:1056C0004EF21401CEF2000108604FF0FF300F21BE
:1056D00000F0F6FA4EF21800CEF200000021016050
:1056E0004EF21000CEF20000072202600191FFE7A7
:1056F000019802B080BD000080B543F64C40C2F274
:105700000000016801310160006842F64701CBF2F8
:10571000A37148434FEA30104EF63341C0F20A01FC
:10572000884226D8FFE743F6D130C2F20000017864
:10573000B1FA81F1490901700078002809D0FFE72A
:1057400040F60040C4F201004FF4007101F0F0FB9C
:105750000EE040F60040C4F201004FF4007101F089
:10576000DFFB43F64C40C2F2000000210160FFE77E
:10577000FFE7FCF7A9FA80BD80B582B04EF68850ED
:10578000CEF20000016841F47001016041F20000B6
:10579000C4F20200016841F00101016041F204011C
:1057A000C4F2020100220A6041F22C01C4F202019B
:1057B0000A6001684FF6FF73CEF6F62319400160C8
:1057C00041F20801C4F202014FF47F030B6001684B
:1057D00021F480210160019202F046FD4FF000604B
:1057E000019902F03BFA02B080BD000080B542F69C
:1057F0000040C4F20100012103F0A8F9002808D0FC
:10580000FFE742F60040C4F20100012103F092F9E3
:10581000FFE780BD80B582B04FF08040012103F0EA
:1058200095F900286CD0FFE74FF08040012103F08C
:1058300081F943F64640C2F200000078002819D1F1
:10584000FFE740F20510C2F20000323048F6EF7177
:10585000C0F6000112220192FAF796FC019900901D
:105860000846FCF7F3F943F64640C2F20000012176
:10587000017044E043F64640C2F200000078002880
:105880003CD0FFE740F20510C2F20000007800288B
:105890001FD0FFE743F60000C4F2010042F20B21E3
:1058A00003F0B0FA012814D1FFE743F60000C4F278
:1058B000010042F20B2103F08FFA40F20510C2F210
:1058C000000042F24371012242541C2000F0C0F952
:1058D000FFE740F2BC00C2F20000007800280CD1C3
:1058E000FFE740F20510C2F200000078002804D162
:1058F000FFE73220FCF79CF8FFE7FFE7FFE7FFE751
:1059000002B080BD80B584B040F60040C4F2000013
:10591000012103F01BF9002800F09881FFE740F611
:105920000040C4F20000012103F004F943F6EA301C
:10593000C2F200000078002800F08781FFE743F6FC
:105940005040C2F20000018801310180008843F616
:105950003C41C2F2000109884FF4FA52B2FBF1F166
:10596000884240F3D980FFE743F6DE30C2F2000000
:10597000008843F63E41C2F200010988884280F265
:10598000CB80FFE743F65040C2F2000000210180C7
:1059900041F20000C4F201004FF4005101F09AFB03
:1059A00001280ED1FFE743F6DE30C2F20000008886
:1059B00042F64901C2F200010A5C520001320A5467
:1059C0000CE043F6DE30C2F20000008842F64901E6
:1059D000C2F200010A5C52000A54FFE741F20000E3
:1059E000C4F201004FF4004101F074FB01280ED114
:1059F000FFE743F6DE30C2F20000008842F64901BC
:105A0000C2F200010A5C520001320A540CE043F673
:105A1000DE30C2F20000008842F64901C2F2000105
:105A20000A5C52000A54FFE740F60040C4F201004D
:105A3000022101F04FFB01280ED1FFE743F6DE30D3
:105A4000C2F20000008842F64901C2F200010A5C7D
:105A5000520001320A540CE043F6DE30C2F200007C
:105A6000008842F64901C2F200010A5C52000A5461
:105A7000FFE740F60040C4F201004FF4805101F00E
:105A800029FB01280ED1FFE743F6DE30C2F2000009
:105A9000008842F64901C2F200010A5C520001325C
:105AA0000A540CE043F6DE30C2F20000008842F6F1
:105AB0004901C2F200010A5C52000A54FFE740F6B5
:105AC0000040C4F20100202101F004FB01280ED1A6
:105AD000FFE743F6DE30C2F20000008842F64901DB
