:020000040800F2
:1000000090040020650100086D0100086F010008E0
:10001000710100087301000875010008000000006C
:100020000000000000000000000000007701000850
:1000300079010008000000007B010008B1070008FA
:100040007F0100087F0100087F0100087F01000890
:100050007F0100087F0100087F0100087F01000880
:100060007F0100087F0100087F0100087F01000870
:100070007F0100087F0100087F0100087F01000860
:100080007F0100087F0100087F0100087F01000850
:100090007F0100087F0100087F0100087F01000840
:1000A0007F0100087F0100087F0100087F01000830
:1000B0009D0800087F0100087F0100087F010008FB
:1000C0007F0100087F0100087F0100087F01000810
:1000D0007F0100087F0100087F0100087F01000800
:1000E0007F0100087F0100087F0100087F010008F0
:1000F0007F0100087F0100087F0100080000000068
:100100007F010008000000007F0100087F01000857
:100110007F0100087F0100087F0100087F010008BF
:100120007F0100087F0100087F0100087F010008AF
:100130007F01000800000000000000007F010008AF
:100140007F0100087F0100087F0100087F0100088F
:10015000DFF80CD000F018F8004800474D0E0008FA
:10016000900400200648804706480047FEE7FEE767
:10017000FEE7FEE7FEE7FEE7FEE7FEE7FEE7FEE757
:100180002908000851010008064C074D06E0E06808
:1001900040F0010394E8070098471034AC42F6D3CE
:1001A000FFF7DAFF341D0008541D000810B598B0A1
:1001B00017904FF4A06001F021F840F20E7001F0AA
:1001C0001DF800208DF85A001799896812910121B5
:1001D0008DF85910139043F60C02C4F200021092ED
:1001E0008DF85800119014904FF44053159340F23D
:1001F000000CC4F2020C4FF0030E10AC08906046E5
:1002000007917146069222460593CDF810C0CDF8AD
:100210000CE0029400F05CFC0498039900F00CFCE4
:100220000498039900F0CCFB07988DF85A001799B1
:10023000496812918DF8590008991391069A109205
:100240008DF8581011911491059B15930421049871
:10025000029A00F03DFC43F60000C4F20000019059
:1002600001F036F809A8009001F0BAF81798C068B4
:10027000099008980A90179909680B910C901799A2
:1002800089690D91179949690E91179909690F911B
:100290000198009901F056F8019801F097F801983B
:1002A00001F08AF8019801F009F818B010BD0000BB
:1002B00080B584B001468DF80F000020C4F2020022
:1002C0000422029001911146009200F05BFB9DF820
:1002D0000F200298009900F0C1FC43F60000C4F220
:1002E0000000002100F0D2FF0298009900F068FBA6
:1002F00004B080BD80B584B04FF4C06000F07EFFD4
:1003000040F2036000F07AFF40F60040C4F20100C2
:10031000182103224FF480430390029200F0CCFC9A
:1003200004204FF400430399019008460199029A72
:1003300000F0C2FC4FF4005303980199029A00F0B8
:10034000BBFC4FF4805303980199029A00F0B4FC6F
:1003500004B080BD80B58AB00990099808904FF428
:10036000E06000F04BFF4FF08040039001F004F993
:10037000089806900020ADF81000ADF81C00ADF80C
:100380001200ADF814008DF81E0004A9039A029023
:10039000104601F0F1F91C2001210191029A00F0B0
:1003A00077FD0398019901F07DFA0398019901F016
:1003B000ADFA039801F0D6F8039801F0D3F90AB02A
:1003C00080BD000080B588B001468DF81F00002078
:1003D000C4F202000222069005911146049200F038
:1003E000D1FA9DF81F200698049900F037FC44F6D6
:1003F0000000C4F20000402101F07AFB0698049945
:1004000000F0DEFAFFE70020C4F2020002210391AF
:10041000039A00F041FB0021002802910DD1FFE773
:1004200044F60000C4F2000042F20B2101F0ACFBE4
:10043000B0FA80F040090290FFE70298C007002858
:1004400002D0FFE700BFDEE744F60000C4F2000080
:1004500042F20B21019001F081FB0021019801F093
:1004600047FB08B080BD000080B586B001468DF81E
:1004700017000020C4F2020001220223049003911D
:10048000114602921A4600F0F5FA0498029900F01B
:1004900079FA9DF817200498029900F0DFFB44F6E2
:1004A0000000C4F20000802101F038FB049802999A
:1004B00000F086FAFFE744F60000C4F200000621CF
:1004C00001F062FB002802D1FFE700BFF3E744F62A
:1004D0000000C4F200000621019001F03FFB002162
:1004E000019801F01BFB06B080BD000010B590B074
:1004F0000F904FF4A06000F081FE40F2127000F007
:100500007DFE40F2065000F079FE00208DF83A00A2
:100510000F9949690A9101218DF839100B9044F621
:100520000402C4F2000208928DF8380009900C9081
:100530004FF440530D9340F2000CC4F2020C4FF004
:10054000020E08AC0790604606917146059222465D
:100550000493CDF80CC0CDF808E0019400F0B8FA8F
:100560000398029900F068FA0398029900F028FABB
:1005700006988DF83A000F9909690A918DF83900AB
:1005800007990B91059A08928DF8381009910C91F2
:10059000049B0D9303980699019A00F099FA039829
:1005A000069900F02BFA0398069900F009FA44F630
:1005B0000000C4F20000009001F03EFA0F980168BC
:1005C000009801F0BBF90F984168009801F028FBF2
:1005D0000F98C168009801F08FFB0F988168009810
:1005E00001F064FB0098079901F00EFA0098079952
:1005F00001F000FB0098079901F0E6FA1421009839
:1006000001F040FB009801F031FB4021009801F01F
:100610006FFA8021009801F081FA0821009801F01A
:1006200055FB0421009801F00BFB009801F08CFAB7
:1006300010B010BD80B5FFE744F60000C4F2000022
:1006400042F2102101F0A0FA002801D0FFE7F3E701
:100650003220FFF7B7FE80BD80B582B001468DF82D
:100660000700FFE744F60000C4F2000042F2102148
:1006700001F08AFA002801D0FFE7F3E79DF80700B0
:10068000FFF7F2FE02B080BD80B582B04FF4C060CB
:1006900000F0B4FD40F2036000F0B0FD40F6004011
:1006A000C4F20100182103224FF4806301900092EC
:1006B00000F002FB04214FF400630198009A00F05F
:1006C000FBFA02B080BD000080B590B0FFF7DCFF00
:1006D000FFF710FE40F2036000F090FD40F600408E
:1006E000C4F20100102104220123029300F0E4FA75
:1006F0004FF4E1300A9000200B900C900D9040F2E6
:100700002301C2F2000101F132020E920F910AAAF6
:10071000019010460091FFF7E9FE2020009981F832
:1007200032000298FFF798FF019806900790099011
:100730000390089040F20801C2F20001CA1D049221
:100740000531059103A8FFF731FD4DF2BF40C0F21E
:100750000100FFF7FFFD10B080BD000080B582B042
:10076000009000980138B0F1807F03D3FFE70120AB
:10077000019019E0009801384EF21401CEF2000108
:1007800008604FF0FF300F2100F0DAF84EF2180049
:10079000CEF20000002101604EF21000CEF2000007
:1007A000072202600191FFE7019802B080BD0000BE
:1007B00080B540F28C00C2F2000001680131016096
:1007C00000684CF66311C9F22F6148434FEAF0000C
:1007D00043F60621C0F26D01884224D8FFE740F2BB
:1007E0008900C2F200000178B1FA81F14909017073
:1007F0000078002808D0FFE740F60040C4F201006E
:10080000012100F051FA0DE040F60040C4F2010071
:10081000012100F041FA40F28C00C2F200000021F8
:100820000160FFE7FFE780BD80B582B04EF68850DB
:10083000CEF20000016841F47001016041F2000055
:10084000C4F20200016841F00101016041F20401BB
:10085000C4F2020100220A6041F22C01C4F202013A
:100860000A6001684FF6FF73CEF6F6231940016067
:1008700041F20801C4F202014FF47F030B600168EA
:1008800021F480210160019200F068FE4FF00060C9
:10089000019900F08BFB02B080BD000080B54FF0E5
:1008A0008040012101F014F8002847D0FFE74FF005
:1008B0008040012101F000F8FFF7BCFE40F2230068
:1008C000C2F200000078002808D1FFE740F22300C0
:1008D000C2F20000407800282FD0FFE740F28A00E3
:1008E000C2F2000000210170FFE740F28A00C2F26C
:1008F0000000007801281CDCFFE740F28A00C2F209
:100900000000017840F22302C2F20002535C40F280
:10091000080CC2F2000C6144CB7100780021115424
:10092000FFE740F28A00C2F2000001780131017055
:10093000DBE70220FFF7BCFCFFE7FFE780BD00001C
:1009400082B002468DF8070000919DF9070000284B
:100950000AD4FFE7009800019DF907104EF200420B
:10096000CEF2000288540BE0009800019DF80710B9
:1009700001F00F014EF61452CEF200028854FFE748
:1009800002B0704780B584B00A4603908DF80B1012
:1009900003989DF80B10019200F042F9002802D153
:1009A000FFE7FFE7FEE703989DF80B1001EB8101DD
:1009B00000EB8100816821F00101816004B080BDFD
:1009C00080B584B00A4603908DF80B1003989DF80B
:1009D0000B10019200F024F9002802D1FFE7FFE795
:1009E000FEE703989DF80B1001EB810100EB8100FD
:1009F000816841F00101816004B080BD80B584B0A0
:100A00000A4603908DF80B1003989DF80B10019285
:100A100000F006F9002802D1FFE7FFE7FEE70398A0
:100A20009DF80B1001EB810100EB8100816821F042
:100A30002001816004B080BD80B584B00A46039077
:100A40008DF80B1003989DF80B10019200F0E8F858
:100A5000002802D1FFE7FFE7FEE703989DF80B109F
:100A600001EB810100EB8100816841F02001816090
:100A700004B080BD83B00B4602908DF80710009241
:100A800000989DF807108900884002994A68104331
:100A9000486003B07047000084B00B4603908DF8A7
:100AA0000B1001920398006801999DF80B209200A9
:100AB0009140084204D0FFE701208DF8030003E0D5
:100AC00000208DF80300FFE79DF8030004B0704795
:100AD00080B586B00B4605908DF8131003920598EB
:100AE0009DF81310019300F09BF8002802D1FFE756
:100AF000FFE7FEE70398006805999DF8132002EBD5
:100B0000820201EB820108610398806805999DF8D3
:100B1000132002EB820201EB820148610398008AF4
:100B200005999DF8132002EB820201EB8201C86057
:100B300005989DF8131001EB810100EB810080689E
:100B40000290029820F47C50029003984168C26899
:100B5000406911430843029908430290029805999D
:100B60009DF8132002EB820201EB8201886003985A
:100B7000007E01280CD1FFE705989DF8131001EBCA
:100B8000810100EB8100816841F0400181600BE050
:100B900005989DF8131001EB810100EB810081683D
:100BA00021F040018160FFE70398407E01280CD1CD
:100BB000FFE705989DF8131001EB810100EB810020
:100BC000816841F0800181600BE005989DF8131069
:100BD00001EB810100EB8100816821F080018160DF
:100BE000FFE70398807E00280CD1FFE705989DF869
:100BF000131001EB810100EB8100816821F01001ED
:100C000081600BE005989DF8131001EB810100EB6A
:100C10008100816841F010018160FFE706B080BD6E
:100C200082B00A4601908DF8031001208DF8020071
:100C3000019840F20041C4F2020188420AD1FFE764
:100C40009DF80300052804DBFFE700208DF8020073
:100C5000FFE7FFE79DF8020002B0704780B584B05F
:100C60000B4603908DF80B10019203989DF80B1022
:100C70000093FFF7D5FF002802D1FFE7FFE7FEE76B
:100C8000BDF8040003999DF80B2002EB820201EBF2
:100C90008201C86004B080BD82B0019000910098CC
:100CA0000199486102B0704782B0019000910098AC
:100CB0000199086102B0704787B0069005910492CF
:100CC0000393002001900090059800F00F00019020
:100CD0009DF81400C006002814D5FFE704980428E6
:100CE0000AD1FFE7019840F00300019003980699AC
:100CF000CA6B1043C86304E004980199084301904B
:100D0000FFE7FFE70020ADF80A00FFE7BDF80A00A3
:100D1000072846D8FFE7BDF80A00039921FA00F03A
:100D2000C007002836D0FFE7069800680090BDF89D
:100D30000A0080000F2101FA00F0009921EA00006A
:100D400000900198BDF80A10890088400099084376
:100D50000090059828280AD1FFE7BDF80A00012174
:100D600001FA00F003990840069948610EE00598E1
:100D700048280AD1FFE7BDF80A00012101FA00F076
:100D80000399084006990861FFE7FFE70098069974
:100D90000860FFE7FFE7BDF80A000130ADF80A0080
:100DA000B4E70820ADF80A00FFE7BDF80A000F28F5
:100DB0004AD8FFE7BDF80A00039921FA00F0C007FE
:100DC00000283AD0FFE7069840680090BDF80A0076
:100DD0006FF01F0101EB80000F2202FA00F0009A71
:100DE00022EA000000900198BDF80A2001EB820180
:100DF0008840009908430090059828280AD1FFE709
:100E0000BDF80A00012101FA00F003990840069993
:100E100048610EE0059848280AD1FFE7BDF80A00AE
:100E2000012101FA00F00399084006990861FFE7E3
:100E3000FFE7009806994860FFE7FFE7BDF80A0062
:100E40000130ADF80A00B0E707B0704780B584B054
:100E50000020039040F20000C2F20000006840F65B
:100E60004121C0F26861A0FB0112801A02EB500020
:100E7000400A0291FFF772FC4FF0FF31022201900D
:100E800008461146FFF75CFDFFF71EFCFFE7FEE793
:100E900080B586B013468C4686468DF817008DF8CF
:100EA00016108DF8152000200490039002904EF645
:100EB0000C50CEF20000006800F4E0600146B0F58E
:100EC000407F019127D0FFE70198B0F5806F1DD0DA
:100ED000FFE70198B0F5A06F14D0FFE70198B0F5D7
:100EE000C06F0AD0FFE70198B0F5E06F18D1FFE7B7
:100EF00000200390042002901AE0012003900320B8
:100F0000029015E002200390029011E0032003906C
:100F1000012002900CE0042003900020029007E0E2
:100F20004FF4A06000F034F8022003900290FFE735
:100F30009DF816000399C1F10401884004909DF8C2
:100F400015000299C1F104010F2222FA01F10840B3
:100F500004990843049004980001049004989DF8B3
:100F600017104EF20042CEF2000288549DF817008E
:100F700000F01F01012202FA01F14EF20012CEF23E
:100F8000000242EAD00020F00300016006B080BDFC
:100F900081B0009000980021C0F2FA5108434EF64B
:100FA0000C51CEF20001086001B0704782B0019090
:100FB0000091019800994FF68072C1F6FF721140BE
:100FC00008434EF60851CEF20001086002B07047A7
:100FD0009BB001468DF86B000020189040F206721D
:100FE000C0F60812099240F20122C0F203420892B0
:100FF00007900690059204900392029041F204003B
:10100000C4F202000068C0F381001990199800280A
:10101000019008D0FFE7019801280AD0FFE7019866
:1010200002280CD0A1E041F20020C0F27A00179013
:10103000A1E041F20020C0F27A0017909BE041F25B
:101040000400C4F20200006800F48030139013988A
:10105000B0F5803F54D1FFE741F22C00C4F202000A
:10106000006800F0804012901298002806D1FFE737
:1010700041F20020C0F27A000F9005E046F60040F1
:10108000C0F2DC200F90FFE741F22C00C4F2020016
:10109000006800F4803011901198B0F5803F20D1A5
:1010A000FFE741F22C00C4F202000168C9B201223C
:1010B00002EB11110B91006800F47060022101EB4A
:1010C00010200A900A98112803D1FFE714200A90F3
:1010D000FFE70F980B99B0FBF1F00A9948430F9086
:1010E000FFE741F22C00C4F20200006800F00F009C
:1010F00001300C900C980F99B1FBF0F00F9005E0C7
:1011000040F60010C0F23D000F90FFE741F20400EE
:10111000C4F202000168C1F38341109100688000AD
:10112000002805D5FFE7109840F010001090FFE769
:1011300010980E2804D8FFE710980230109003E0B2
:10114000109801301090FFE70F98109948431790BE
:1011500010980F2808D1FFE70F9800EB40014900D5
:1011600001EB50001790FFE705E041F20020C0F2CC
:101170007A001790FFE741F20400C4F20200016810
:10118000C9B209090E910E9906AA515C0D911799E1
:101190000D9AD14016910168C1F302210E910E996A
:1011A00004AA515C0D9116990D9AD14015910068D1
:1011B000C0F3C2200E900E9802A9085C0D901698FC
:1011C0000D99C84014909DF86B00014603280091CA
:1011D00010D80099DFE801F00205080B1798189065
:1011E00009E01698189006E01598189003E01498F6
:1011F000189000E0FFE718981BB0704781B00146D7
:10120000ADF80200BDF8020000F01F02012303FA4E
:1012100002F2800941F20003C4F2020350F803C055
:1012200042EA0C02C25001B07047000081B0014692
:10123000ADF80200BDF8020000F01F02012303FA1E
:1012400002F2800941F20003C4F2020350F803C025
:101250002CEA0202C25001B07047000081B0014682
:10126000ADF80200BDF8020000F01F02012303FAEE
:1012700002F2800941F20003C4F2020350F803C0F5
:1012800042EA0C02C25001B07047000082B00A4628
:1012900001908DF803109DF80300002806D1FFE7A8
:1012A0000198416841F00201416005E00198416800
:1012B00041F001014160FFE702B0704781B000904A
:1012C0000098016841F04001016001B070470000E2
:1012D00080B586B00590059843F60001C4F2000180
:1012E0008842049019D0FFE743F60040C4F20000A2
:1012F000049981421AD0FFE743F20000C4F20100D2
:10130000049981421BD1FFE74FF443700390FFF72C
:10131000A5FF0398FFF78AFF12E040F20E4002900B
:10132000FFF79CFF0298FFF781FF09E040F20F40B2
:101330000190FFF793FF0198FFF778FF00E0FFE7C8
:1013400006B080BD83B00290019100200090029809
:1013500000680090009800F44150009001980068E7
:101360000099084300900198406800990843009054
:10137000019880680099084300900198C06800991E
:101380000843009001980069009908430090019873
:1013900040690099084300900198806900990843CA
:1013A00000900098029908600298C16921F40061D8
:1013B000C16103B07047000081B00090009841689F
:1013C00041F00401416001B07047000081B000901D
:1013D0000098416841F00801416001B07047000089
:1013E00081B0009000980021016000984160009851
:1013F00081600098C160009841610098816101B0EE
:101400007047000083B000200290019041F200007C
:10141000C4F20200016841F480310160FFE70298E4
:101420000130029041F20000C4F20200006800F4B2
:1014300000300190FFE7019800210028009107D1BA
:10144000FFE70298B0F5006018BF01200090FFE7A9
:101450000098C0070028E2D1FFE741F20000C4F283
:10146000020000688003002802D4FFE7FFE7FEE7E0
:1014700042F20000C4F20200016821F0070101609D
:10148000016841F00301016041F20400C4F202006E
:101490000168016001680160016841F480610160D8
:1014A00001684FF6FF72CDF6C3721140016001680A
:1014B0000022C2F235021143016041F22C00C4F255
:1014C000020001684FF20002CBF6FE72114001608B
:1014D000016840F61902C0F201021143016041F2B5
:1014E0000000C4F20200016841F080610160FFE782
:1014F00041F20000C4F2020000680001002801D49B
:10150000FFE7F5E741F20000C4F20200016841F094
:1015100080710160FFE741F20000C4F20200006840
:101520008001002801D4FFE7F5E741F20400C4F28E
:101530000200016821F003010160016841F002012D
:101540000160FFE741F20400C4F2020000680007F6
:10155000002801D4FFE7F5E703B0704780B5FFF737
:1015600051FF80BD81B000900098016841F080017A
:10157000016001B07047000080B590B00F900F98E7
:10158000B0F1804F0E9074D0FFE740F20040C4F2FB
:1015900000000E99814275D0FFE740F60000C4F2CA
:1015A00000000E99814276D0FFE740F60040C4F279
:1015B00000000E99814277D0FFE741F20000C4F2AB
:1015C00000000E99814278D0FFE741F20040C4F25A
:1015D00000000E99814279D0FFE741F60000C4F285
:1015E00000000E99814200F09E80FFE741F6004026
:1015F000C4F200000E99814200F09E80FFE742F2A3
:101600000000C4F200000E99814200F09E80FFE7C6
:1016100042F60040C4F201000E99814220D0FFE75B
:1016200043F20040C4F201000E99814257D0FFE717
:1016300044F60040C4F201000E99814258D0FFE701
:1016400045F20000C4F201000E99814259D0FFE733
:1016500045F20040C4F201000E9981425AD07DE06B
:1016600040F20B300D90FFF7F9FD0D98FFF7DEFD0E
:1016700075E04FF480600C90FFF7F0FD0C98FFF7D9
:10168000D5FD6CE040F201400B90FFF7E7FD0B98B1
:10169000FFF7CCFD63E040F202400A90FFF7DEFD69
:1016A0000A98FFF7C3FD5AE040F203400990FFF7A4
:1016B000D5FD0998FFF7BAFD51E040F204400890CB
:1016C000FFF7CCFD0898FFF7B1FD48E040F2054078
:1016D0000790FFF7C3FD0798FFF7A8FD3FE040F232
:1016E0000D300690FFF7BAFD0698FFF79FFD36E034
:1016F00040F213300590FFF7B1FD0598FFF796FD16
:101700002DE04FF445700490FFF7A8FD0498FFF713
:101710008DFD24E040F215300390FFF79FFD039804
:10172000FFF784FD1BE040F206400290FFF796FDB4
:101730000298FFF77BFD12E040F207400190FFF7AF
:101740008DFD0198FFF772FD09E04FF48160009074
:10175000FFF784FD0098FFF769FD00E0FFE710B098
:1017600080BD000081B000900098016841F0010147
:10177000016001B07047000082B0019000910098B4
:10178000008801998862019842F60041C4F2010183
:10179000884225D0FFE70198B0F1804F20D0FFE7C5
:1017A000019840F20041C4F20001884218D0FFE7DE
:1017B000019840F60001C4F20001884210D0FFE712
:1017C000019840F60041C4F20001884208D0FFE7CA
:1017D000019843F20041C4F20101884216D1FFE7AB
:1017E0000198016821F0700101600098408800F0C4
:1017F000600001990A68104308600098808800F032
:10180000100001990A68104308600DE00198016812
:1018100021F0100101600098808800F0100001990B
:101820000A6810430860FFE7009880680199C86261
:10183000019841F20001C4F20001884216D0FFE78E
:10184000019841F20041C4F2000188420ED0FFE746
:101850000198016821F4407101600098808900F4CA
:10186000407001990A6810430860FFE7019842F64A
:101870000041C4F20101884208D0FFE7019843F219
:101880000041C4F20101884205D1FFE70098807B46
:1018900001990863FFE70198416941F00101416145
:1018A00002B0704782B00190009100980199CA6817
:1018B0001043C86002B0704782B001900091009858
:1018C00001990A6922EA0000086102B0704700002D
:1018D00084B0029001910298C0680199084000907C
:1018E000029800690199084208D0FFE70098002893
:1018F00004D0FFE701208DF80F0003E000208DF8F1
:101900000F00FFE79DF80F0004B0704782B00A4651
:1019100001908DF803109DF80300012806D1FFE720
:101920000198416C41F40041416405E00198416C2B
:1019300021F400414164FFE702B0704780B588B0F0
:10194000079006910020059004900390029007985C
:1019500044F20041C4F200018842019025D0FFE723
:1019600044F60000C4F200000199814222D0FFE752
:1019700044F60040C4F20000019981421FD0FFE705
:1019800045F20000C4F20000019981421CD0FFE73B
:1019900043F60000C4F201000199814219D1FFE72A
:1019A0000320FFF715FB059014E00220FFF710FB62
:1019B00005900FE00220FFF70BFB05900AE00220E4
:1019C000FFF706FB059005E00220FFF701FB0590FD
:1019D00000E0FFE70598069900EB5100B0FBF1F03D
:1019E000029002984FF6F07108400490029800F0BF
:1019F0000F000390BDF81000BDF80C1008430799C4
:101A0000886008B080BD000083B002900191002082
:101A100000900298D0F880000090009820F40060B8
:101A20000090019800990843009000980299C1F82D
:101A3000800003B07047000080B588B00790079819
:101A400044F20041C4F200018842069029D0FFE729
:101A500044F60000C4F20000069981422AD0FFE754
:101A600044F60040C4F20000069981422BD0FFE703
:101A700045F20000C4F20000069981422CD0FFE735
:101A800043F60000C4F20100069981422DD1FFE720
:101A900040F20E300590FFF7E1FB0598FFF7C6FB1B
:101AA00024E040F211400490FFF7D8FB0498FFF7C0
:101AB000BDFB1BE040F212400390FFF7CFFB039801
:101AC000FFF7B4FB12E040F213400290FFF7C6FBB1
:101AD0000298FFF7ABFB09E040F214400190FFF7DA
:101AE000BDFB0198FFF7A2FB00E0FFE708B080BD57
:101AF00083B002900191002000900298406900900C
:101B0000009820F040000090019800990843009050
:101B100000980299486103B07047000083B00290BA
:101B2000019100200090029840690090009820F0F8
:101B30008000009001980099084300900098029955
:101B4000486103B07047000081B000900098C16800
:101B500041F40051C16001B07047000082B00A46F4
:101B60000190ADF80210BDF8020000F01F01012342
:101B700003FA01F1019B800953F800C02CEA01012E
:101B8000195002B07047000083B00A460190ADF8CA
:101B900002100198BDF8021089094058BDF80210E2
:101BA00001F01F01C840C007002804D0FFE7012052
:101BB0008DF80B0003E000208DF80B00FFE79DF887
:101BC0000B0003B07047000083B002900191002029
:101BD0000090029840690090009820F400700090F6
:101BE000019800990843009000980299486103B059
:101BF0007047000083B0029001910020009002988D
:101C000040690090009820F480700090019800993D
:101C10000843009000980299486103B070470000A3
:101C200082B0019000910198C16821F4C061C16047
:101C300000980199CA681043C86002B0704700005C
:101C400083B002900191002000900298C06800903B
:101C5000009820F00400009001980099084300903B
:101C600000980299C86003B07047000081B00090EE
:101C70000098D0F8801041F00101C0F8801001B048
:101C80007047000082B0019000910198D0F8841054
:101C900001F07F41C0F8841000980199D1F88420A8
:101CA0001043C1F8840002B07047000082B0019078
:101CB00000910198016921F4405101610098019956
:101CC0000A691043086102B07047000083B00290B7
:101CD0000191002000900298C0680090009820F0C8
:101CE000080000900198009908430090009802991C
:101CF000C86003B07047000082B001900091019865
:101D0000C16821F48051C16000980199CA681043EC
:101D1000C86002B0704702E008C8121F08C1002A5C
:101D2000FAD170477047002001E001C1121F002A5C
:101D3000FBD17047541D0008000000200400000083
:101D4000161D0008581D0008080000208804000027
:081D5000261D0008000E270704
:040000050800016589
:00000001FF
