:020000040800F2
:1000000050400020650100086D0100086F010008E4
:10001000710100087301000875010008000000006C
:100020000000000000000000000000007701000850
:1000300079010008000000007B0100088D590008CC
:100040007F0100087F0100087F0100087F01000890
:100050007F0100087F0100087F0100087F01000880
:100060007F0100087F0100087F0100087F01000870
:100070007F0100087F0100087F0100087F01000860
:100080007F0100087F0100087F0100087F01000850
:100090007F0100087F0100087F0100087F01000840
:1000A0007F010008815A00087F0100087F010008D5
:1000B000A95A00087F0100087F0100087F0100089D
:1000C0007F0100087F0100087F0100087F01000810
:1000D0007F0100087F0100087F0100087F01000800
:1000E0007F0100087F0100087F0100087F010008F0
:1000F0007F0100087F0100087F0100080000000068
:100100007F01000800000000615B00087F0100081B
:100110007F0100087F0100087F0100087F010008BF
:100120007F0100087F0100087F0100087F010008AF
:100130007F01000800000000000000007F010008AF
:100140007F0100087F0100087F0100087F0100088F
:10015000DFF80CD000F028FA004800475D74000872
:10016000504000200648804706480047FEE7FEE76B
:10017000FEE7FEE7FEE7FEE7FEE7FEE7FEE7FEE757
:100180000D5A00085101000840EA01039B0703D003
:1001900009E008C9121F08C0042AFAD203E011F8C6
:1001A000013B00F8013B521EF9D2704730B50446BE
:1001B0000020034600E05B1C934203D2E05CCD5C70
:1001C000401BF8D030BD000070B50F4D00B9286855
:1001D000002412E00A4602E09E4203D0521C13782B
:1001E000002BF9D1DAB2224305D02BB124B1002182
:1001F00000F8011B04E00446401C0678002EE9D1FB
:100200002860204670BD0000000000202DE9FE4F50
:10021000804681EA0300C00F0C46009021F00041A7
:1002200023F00045B8EB0200A94105D24046214623
:1002300090461C460B46024623F00040104347D030
:10024000270DC7F30A00C3F30A510290401A019028
:1002500040286BDAC3F3130040F4801B00989246E9
:1002600020B10023D2EB030A63EB0B0B0198594634
:10027000C0F14002504600F009F906460D465046CE
:100280005946019A00F021F910EB08006141002461
:1002900087EA115284EAE7731A4340D0009A62B3A6
:1002A000019A012A4FEA075215DC001B61EB02019B
:1002B0004FF0004202EA0752CDE90042001C41F52E
:1002C000801132462B4600F021F903B0BDE8F08FD3
:1002D00040462146F9E7001B61EB0201001C41F595
:1002E000801300185B412018A2F5001747EB0301AB
:1002F00040EAD570B6196D4111E06D084FEA360637
:1003000045EAC0754FEA0752001B61EB0201001C71
:1003100041F5801149084FEA300000195141324639
:100320002B4603B0BDE8F04F00F0E1B80098012281
:1003300040000023D0EB020263EBE07300982146FB
:100340004FEAE074B8EB000061EB0401E9E783F0E9
:1003500000435BE781F0004158E72DE9F04D81EA69
:10036000030404F0004B21F0004514464FF0000A4E
:1003700023F0004150EA050220D054EA01021DD0CA
:10038000C5F30A570246C5F31303C1F31300C1F3C3
:100390000A5640F4801543F48013A7EB0608101B9F
:1003A000D64608F2FD3873EB050002D308F10108C8
:1003B00001E092185B41B8F1000F03DA002001461A
:1003C000BDE8F08D00204FF48011064684460EE013
:1003D000171B73EB050705D3121B63EB05030643DD
:1003E0004CEA010C49084FEA300092185B4150EA90
:1003F0000107EDD152EA030012D082EA040083EA39
:100400000501084305D0101BAB4106D20122002391
:1004100006E000224FF0004302E06FF001025310AB
:100420001AEB06004CEB085110EB0A0041EB0B01F4
:10043000BDE8F04D00F05BB80EB5C10F80EAE0708A
:100440000844CA07002140F233438DE80E000A46F3
:100450000B4600F05BF803B000BDC1F30A5210B5C3
:10046000C1F3130140F2FF3341F480119A4201DAE3
:10047000002010BD40F233439A42A2F2334203DC23
:10048000524200F012F810BD904010BD202A04DB4B
:10049000203A00FA02F1002070479140C2F1200397
:1004A00020FA03F3194390407047202A04DB203AD6
:1004B00021FA02F00021704721FA02F3D040C2F184
:1004C00020029140084319467047202A06DBCB17CB
:1004D000203A41FA02F043EAE07306E041FA02F3FF
:1004E000D040C2F12002914008431946704710B530
:1004F000141E73F1000408DA401C41F10001921847
:100500005B411A4301D120F0010010BD2DE9F04DEF
:1005100092469B4611B1B1FA81F202E0B0FA80F244
:1005200020329046FFF7B2FF04460F4640EA0A0029
:1005300041EA0B0153465A46084313D0114653EA89
:10054000010019D0C8F140025046FFF7AEFF054642
:100550000E46504659464246FFF798FF084305D0DD
:10056000012004E020463946BDE8F08D0020054317
:1005700046EAE0762C4337430A986305E40AA0EB89
:1005800008000022FD0A44EA47540A3002D5002040
:100590000146E9E7010510196941DDE9084500193F
:1005A0006941BDE8F04DA2E7064C074D06E0E06862
:1005B00040F0010394E8070098471034AC42F6D3AA
:1005C000FFF7CAFD908C0008B08C000880B542F29D
:1005D0000040C4F20100012105F092FEFFE7002077
:1005E000C4F202000021022206F0ACFC002801D176
:1005F000FFE7F4E70020C4F202000021022206F027
:100600008FFC80BD80B582B001900198B0F8A01039
:1006100001600198002141600198017201984172C6
:10062000019890F8A4108172019946F20040C4F23A
:10063000000006F013F943F6EA31C2F20001087037
:10064000087801460028009108D0FFE700980128AB
:100650000CD0FFE70098022810D017E043F6D43002
:10066000C2F200004FF40071016017E043F6D4308D
:10067000C2F200004FF4027101600FE043F6D43083
:10068000C2F200004FF40471016007E043F6D43079
:10069000C2F200004FF400710160FFE7FFE743F68C
:1006A000D430C2F20000018846F20040C4F20000DB
:1006B00005F084FF012801D1FFE7F0E743F6D430CD
:1006C000C2F20000018846F20040C4F2000005F0CA
:1006D0005FFF02B080BD000070B582B013468C464B
:1006E00001908DF80310ADF80020BDF8000044F62D
:1006F000D351C1F26201A0FB0101890946F2676290
:10070000C6F2666251FB02FE4FEA9E0404EBDE7EF7
:100710000EEB8E0EA1EB4E013031DDF804E09DF8BA
:1007200003400EF80410BDF8001048F21F5EC5F239
:10073000EB1EA1FB0E1E4FEA5E1E5EFB02F4A50837
:1007400005EBD47404EB8404AEEB440E0EF1300ED2
:10075000019C9DF803502C4484F801E0BDF800E0B2
:100760004CF6CD44CCF6CC44AEFB04E5ED0855FB8D
:1007700002F2960806EBD27202EB8202A5EB42026D
:100780003032019D9DF803603544AA70BDF8002009
:10079000A2FB0445ED0805EB8505A2EB450242F0FE
:1007A0003002019D9DF803603544EA7002B070BDCF
:1007B00080B590B000208DF83E0040F20801C2F2F2
:1007C00000010B9101218DF83D104FF400620C9255
:1007D00042F24C42C4F2010209928DF83C004FF4FF
:1007E00000720A9203220D924FF440530E9300239D
:1007F000C4F202030DF1240C08901846DDF820E045
:100800000791714606926246059306F0B7FB05987C
:10081000089906F067FB0598089906F027FB4FF446
:10082000C02005F08FFC42F20040C4F201004FF4FA
:10083000807104900391079A05F082FD02200499CB
:10084000029008460299089A05F07AFD04980899E2
:1008500005F0DCFB0498089905F03EFD0498079923
:10086000069A05F09BFB42F60000C4F201000190DD
:100870000399079A05F064FD01980299089A05F01A
:100880005FFD0198089905F0C1FB0198089905F0F2
:1008900023FD01980799069A05F080FB4FF460202C
:1008A0000499009008460799009A05F021FC0498E5
:1008B0000799079A05F0DAFB01980799009A05F065
:1008C00017FC01980799079A05F0D0FB049808993E
:1008D000089A089B05F046FC04980799029A089B21
:1008E00005F040FC052204980299089B05F03AFCAB
:1008F00001980899079A089B05F034FC019807991C
:10090000069A089B05F02EFC062201980299089B86
:1009100005F028FC049805F099FB049805F020FBED
:10092000019805F093FB019805F01AFB049805F077
:1009300083FB47F20040C4F20000016841F001016E
:10094000016008980899089A06F088F9089806F056
:10095000DFF910B080BD000080B58EB041F200001C
:10096000C4F2010004214FF400520D900C910C9B35
:100970000B921A460B9B06F011FC4FF400400D99A8
:100980000A9008460C990C9A0A9B06F007FC40F660
:100990000040C4F20100022109900C9A089111460E
:1009A000089B06F0FBFB4FF480500999079008461E
:1009B0000C990C9A079B06F0F1FB202009990690F0
:1009C00008460C990C9A069B06F0E8FB4FF4804011
:1009D0000D99059008460C990C9A059B06F0DEFBD4
:1009E00040F60000C4F20100802304900C990C9A98
:1009F00006F0D4FB01200999039008460C990C9A43
:100A0000039B06F0CBFB09980C990C9A0C9B06F003
:100A1000C5FB09980C990C9A0A9B06F0BFFB4FF492
:100A200080600499029008460C990C9A029B06F08B
:100A3000B5FB4FF480700999019008460C990C9A07
:100A4000019B06F0ABFB4FF4007304980C990C9AD1
:100A500006F0A4FB04980C990C9A019B06F09EFBEF
:100A600009980C990C9A059B06F098FB09980C992B
:100A70000C9A0B9B06F092FB04980C990C9A039B22
:100A800006F08CFB04980C990C9A089B06F086FBE8
:100A900004980C990C9A0C9B06F080FB0823049890
:100AA0000C990C9A06F07AFB04980C990C9A069B08
:100AB00006F074FB402304980C990C9A06F06EFB28
:100AC000102304980C990C9A06F068FB09980C996D
:100AD0000C9A029B06F062FB4FF4006009990090AB
:100AE00008460C990C9A009B06F058FB04980C9948
:100AF0000C9A079B06F052FB04980C990C9A009BE9
:100B000006F04CFB0EB080BD80B590B041F2000005
:100B1000C4F20100102104224FF400530F900E91F3
:100B20000D920C9306F03AFB4FF400400F990B9096
:100B300008460E990D9A0B9B06F030FB40F60040DC
:100B4000C4F2010002210A900E9A099111460D9AF1
:100B5000099B06F023FB4FF480500A990890084641
:100B60000E990D9A089B06F019FB20200A99079010
:100B700008460E990D9A079B06F010FB4FF4804033
:100B80000F99069008460E990D9A069B06F006FBF3
:100B900040F60000C4F20100802305900E990D9AE2
:100BA00006F0FCFA01200A99049008460E990D9A65
:100BB000049B06F0F3FA0A980E990D9A0D9B06F025
:100BC000EDFA0A980E990D9A0B9B06F0E7FA4FF48E
:100BD00080600599039008460E990D9A039B06F0D4
:100BE000DDFA4FF480700A99029008460E990D9A2A
:100BF000029B06F0D3FA4FF4007305980E990D9AF4
:100C000006F0CCFA05980E990D9A029B06F0C6FAEA
:100C10000A980E990D9A069B06F0C0FA0A980E994A
:100C20000D9A0C9B06F0BAFA05980E990D9A049B42
:100C300006F0B4FA05980E990D9A099B06F0AEFAE3
:100C400005980E990D9A0D9B06F0A8FA08230598B1
:100C50000E990D9A06F0A2FA05980E990D9A079B27
:100C600006F09CFA402305980E990D9A06F096FA24
:100C700005980E990D9A0E9B06F090FA0A980E9917
:100C80000D9A039B06F08AFA4FF400600A990190CE
:100C900008460E990D9A019B06F080FA05980E9968
:100CA0000D9A089B06F07AFA05980E990D9A019B09
:100CB00006F074FA10B080BD80B58CB00B9040F295
:100CC000197006F091FE46F20040C4F20000019057
:100CD00005F08EFB00208DF821008DF823008DF8A3
:100CE00022008DF824008DF81D0004218DF81E10BF
:100CF00002218DF81F108DF820008DF825000B982B
:100D000000798DF81C0007A9019805F0B7FC0B9934
:100D10000968FA2900910AD0FFE70098B0F5FA7F38
:100D200005D0FFE70098B0F57A7F0CD1FFE70B986C
:100D300000684FF47A71414346F20040C4F200006B
:100D400005F05CFC0AE046F20040C4F200004EF6FA
:100D50004801C0F2010105F051FCFFE70020ADF8A9
:100D60001200ADF814000121ADF81610ADF808001E
:100D7000ADF80A00ADF80C00ADF80E000B98407904
:100D8000ADF810008DF8181002A805F051FB0CB05A
:100D900080BD000080B582B04FF4C06006F024FE34
:100DA00040F2026006F020FE40F60000C4F20100AE
:100DB000482103224FF400630190009206F0EEF9FF
:100DC00018214FF480530198009A06F0E7F902B019
:100DD00080BD000080B590B041F20000C4F2010077
:100DE000102104224FF400530F900E910D920C939A
:100DF00006F0D4F94FF400400F990B9008460E9975
:100E00000D9A0B9B06F0CAF940F60040C4F20100AF
:100E100002210A900E9A099111460D9A099B06F03B
:100E2000BDF94FF480500A99089008460E990D9A22
:100E3000089B06F0B3F920200A99079008460E99FE
:100E40000D9A079B06F0AAF94FF480400F9906907F
:100E500008460E990D9A069B06F0A0F940F6000090
:100E6000C4F20100802305900E990D9A06F096F9C0
:100E700001200A99049008460E990D9A049B06F0E9
:100E80008DF90A980E990D9A0D9B06F087F90A982C
:100E90000E990D9A0B9B06F081F94FF4806005992D
:100EA000039008460E990D9A039B06F077F94FF4CC
:100EB00080700A99029008460E990D9A029B06F0DE
:100EC0006DF94FF4007305980E990D9A06F066F9C6
:100ED00005980E990D9A029B06F060F90A980D99F3
:100EE0000D9A069B06F05AF90A980D990D9A0C9BDB
:100EF00006F054F905980D990D9A049B06F04EF9E9
:100F000005980D990D9A099B06F048F905980D99D9
:100F10000D9A0D9B06F042F9082305980D990D9A3C
:100F200006F03CF905980D990D9A079B06F036F9E5
:100F3000402305980D990D9A06F030F905980D9902
:100F40000D9A0E9B06F02AF90A980D990D9A039BAB
:100F500006F024F94FF400600A99019008460D99B3
:100F60000D9A019B06F01AF905980D990D9A089BA8
:100F700006F014F905980D990D9A019B06F00EF9EB
:100F800010B080BD80B590B041F20000C4F2010005
:100F900004214FF400520F900E910E9B0D921A46B1
:100FA0000D9B06F0FBF84FF400400F990C9008469B
:100FB0000E990E9A0C9B06F0F1F840F60040C4F230
:100FC000010002210B900E9A0A9111460A9B06F02D
:100FD000E5F84FF480500B99099008460E990E9A47
:100FE000099B06F0DBF820200B99089008460E9923
:100FF0000E9A089B06F0D2F84FF480400F990790A4
:1010000008460E990E9A079B06F0C8F840F60000B5
:10101000C4F20100802306900E990E9A06F0BEF8E5
:1010200001200B99059008460E990E9A059B06F033
:10103000B5F80B980E990E9A0E9B06F0AFF80B9828
:101040000E990E9A0C9B06F0A9F84FF48060069951
:10105000049008460E990E9A049B06F09FF84FF4F0
:1010600080700B99039008460E990E9A039B06F028
:1010700095F84FF4007306980E990E9A06F08EF8C4
:1010800006980E990E9A039B06F088F810200B998B
:101090000290084602990E9A079B06F07FF80B987B
:1010A00002990E9A0D9B06F079F8069802990E9A0D
:1010B000059B06F073F8069802990E9A0A9B06F0B3
:1010C0006DF8069802990E9A0E9B06F067F80823B1
:1010D000069802990E9A06F061F8069802990E9AFF
:1010E000089B06F05BF84023069802990E9A06F0DA
:1010F00055F8069802990E9A029B06F04FF80B9845
:1011000002990E9A049B06F049F84FF400600B997F
:101110000190084602990E9A019B06F03FF8069846
:1011200002990E9A099B06F039F8069802990E9AD0
:10113000019B06F033F810B080BD000080B592B07E
:1011400040F2026006F050FC40F2036006F04CFCF6
:1011500040F2046006F048FC40F2096006F044FCEE
:1011600040F20A6006F040FC4FF4A06006F03CFC40
:1011700040F21D7006F038FC4FF4C06006F034FCFD
:1011800040F60040C4F20100102104224FF4007325
:10119000119010910F920E9306F000F840F60000A7
:1011A000C4F2010028214FF400520D900C910F9BC6
:1011B0000B921A460B9B05F0F1FF4FF480400D99FE
:1011C0000A9008460C990F9A0A9B05F0E7FF4FF426
:1011D00000400D99099008460C990F9A099B05F05B
:1011E000DDFF08201199089008460C990F9A089B7A
:1011F00005F0D4FF11980C990F9A109B05F0CEFFC3
:1012000041F20000C4F2010007900F990F9A0B9B66
:1012100005F0C4FF07980F990F9A099B05F0BEFFD0
:1012200002201199069008460F990F9A069B05F027
:10123000B5FF4FF4805311980F990F9A05F0AEFF48
:1012400020201199059008460F990F9A059B05F0EB
:10125000A5FF079810990F9A0A9B05F09FFF80231E
:101260000D9810990F9A05F099FF0120119904909B
:10127000084610990F9A049B05F090FF1198109959
:101280000F9A0F9B05F08AFF119810990F9A099BEE
:1012900005F084FF4FF480630D9810990F9A05F0C4
:1012A0007DFF4FF4807011990390084610990F9AB2
:1012B000039B05F073FF18200D99029008460299D0
:1012C0000F9A0E9B05F06AFF0D9802990F9A039BE7
:1012D00005F064FF119802990F9A0A9B05F05EFFD2
:1012E000119802990F9A0B9B05F058FF00200D9959
:1012F0000190084601990F9A049B05F04FFF0D9845
:1013000001990F9A069B05F049FF0D9801990F9AD4
:101310000F9B05F043FF0D9801990F9A089B05F06C
:101320003DFF0D9801990F9A059B05F037FF40236B
:101330000D9801990F9A05F031FF03220D9801993C
:10134000109B05F02BFF12B080BD000080B586B069
:1013500001468DF817000020C4F20200012202238A
:1013600004900391114602921A4605F0D9FD0498A3
:10137000029905F05DFD9DF817200498029905F08B
:10138000C3FE44F60000C4F20000802107F0A2FA78
:101390000498029905F06AFDFFE744F60000C4F2E4
:1013A0000000062107F0CCFA002802D1FFE700BFB9
:1013B000F3E744F60000C4F200000621019007F0B4
:1013C000A9FA0021019807F085FA06B080BD000057
:1013D00010B590B00F904FF4A06006F005FB40F2FE
:1013E000127006F001FB40F2065006F0FDFA0020F4
:1013F0008DF83A000F9949690A9101218DF8391049
:101400000B9044F60402C4F2000208928DF83800F2
:1014100009900C904FF440530D9340F2000CC4F22D
:10142000020C4FF0020E08AC079060460691714620
:10143000059222460493CDF80CC0CDF808E0019443
:1014400005F09CFD0398029905F04CFD0398029964
:1014500005F00CFD06988DF83A000F9909690A917C
:101460008DF8390007990B91059A08928DF838107C
:1014700009910C91049B0D9303980699019A05F02C
:101480007DFD0398069905F00FFD0398069905F078
:10149000EDFC44F60000C4F20000009007F0A8F94B
:1014A0000F980168009807F025F90F984168009897
:1014B00007F092FA0F98C168009807F0F9FA0F98B0
:1014C0008168009807F0CEFA0098079907F078F93C
:1014D0000098079907F06AFA0098079907F050FA00
:1014E000009807F09FFA3221009807F0A7FA4021F0
:1014F000009807F0D9F98021009807F0EBF908214E
:10150000009807F0BFFA0421009807F075FA0098D8
:1015100007F0F6F910B010BD80B582B001468DF825
:101520000700FFE744F60000C4F2000042F2102179
:1015300007F006FA002801D0FFE7F3E79DF807005F
:10154000FFF704FF02B080BD80B582B04FF4C060E9
:1015500006F04AFA40F2036006F046FA40F6004010
:10156000C4F20100182103224FF48063019000921D
:1015700005F014FE04214FF400630198009A05F071
:101580000DFE02B080BD000010B598B0179040F27B
:10159000015006F029FA40F20F7006F025FA0020FB
:1015A0008DF85A0017998968129101218DF8591008
:1015B000139043F60C42C4F2000210928DF85800CA
:1015C000119014904FF44053159340F2004CC4F224
:1015D000020C0DF1400E08906046089C07912146D0
:1015E000069272460593CDF810C0CDF80CE005F0D8
:1015F000C5FC0498089905F075FC0498089905F055
:1016000035FC07988DF85A001799496812918DF8A2
:10161000590008991391069A10928DF8581011915B
:101620001491059B159304980799039A05F0A6FC5D
:1016300043F60040C4F20000029006F057FA09A8F1
:10164000019006F0F1FA1798C068099008980A907E
:10165000179909680B910C90179989690D91179941
:1016600049690E91179909690F910298019906F03D
:101670008DFA029806F0CEFA029806F0C1FA0298A6
:1016800006F02AFA18B010BD80B584B001468DF876
:101690000F0040F20040C4F20200002202900191CB
:1016A0001146009205F0C4FB9DF80F2002980099A6
:1016B00005F02AFD43F60040C4F20000012106F0C7
:1016C000F3F90298009905F0D1FB04B080BD000049
:1016D00080B584B001468DF80F0040F20040C4F29E
:1016E00002000122029001911146009205F0A0FB38
:1016F0009DF80F200298009905F006FD43F6004082
:10170000C4F20000002106F0CFF90298009905F01C
:10171000ADFBFFE740F20040C4F2020001210222CB
:1017200005F010FC002801D1FFE7F3E740F200408C
:10173000C4F202000121022205F0F2FB43F6004050
:10174000C4F20000002106F097F904B080BD00004B
:1017500080B50220FFF798FF80BD000080B582B001
:1017600001468DF80700FFE743F60040C4F2000091
:10177000022106F0F5F9002801D1FFE7F4E79DF812
:101780000700FFF7A5FF02B080BD000080B584B060
:101790004FF4C06006F028F940F2036006F024F927
:1017A00040F2026006F020F940F60040C4F2010069
:1017B0001821032210230390029205F0EFFC04206D
:1017C00020230399019008460199029A05F0E6FC4E
:1017D000082303980199029A05F0E0FC40F6000006
:1017E000C4F201004FF400430199029A05F0D6FCBF
:1017F00040F20020C0F23000012105F0AFFD04B03E
:1018000080BD000080B592B0119011981090119891
:1018100040080F9040F20B6006F0E6F842F60040F8
:10182000C4F20100039006F083FD10980D90002093
:10183000ADF82C00ADF83800ADF82E00ADF8300052
:10184000FF218DF83A100BA9039A0290104606F07A
:101850006FFE0120ADF820000421ADF8221002999E
:10186000ADF82410ADF82610ADF82810ADF82A1008
:1018700008AA039B01901846009206F0F7FA039815
:101880000199009A06F0F2FA03980299029A06F07A
:101890000BFD03980299029A06F0A8FA03980199A1
:1018A000029A06F001FD03980199029A06F09EFA49
:1018B0000F9A0398029906F08BFC60220398029914
:1018C00006F03EFC03980299029A06F0A5FC0F9AD6
:1018D0000398019906F07CFC70220398019906F0A8
:1018E0002FFC03980199029A06F096FC1520ADF89A
:1018F00014000298ADF81600ADF81000ADF8120013
:101900004FF48041ADF81810ADF81A00ADF81C0086
:1019100004A9039806F054FA19200221029A05F04E
:10192000ADFE0398019906F099FE039806F0F6FDC6
:1019300012B080BD80B58AB00990099808904FF424
:10194000E06006F051F84FF08040039006F0F0FCA4
:10195000089806900020ADF81000ADF81C00ADF816
:101960001200ADF814008DF81E0004A9039A02902D
:10197000104606F0DDFD1C2001210191029A05F0C0
:101980007DFE0398019906F069FE0398019906F01F
:1019900099FE039806F00AFA039806F0BFFD0AB014
:1019A00080BD000080B590B00F900F980E900F98FA
:1019B00040080D9040F2037006F016F840F6004023
:1019C000C4F20000019006F0B3FC0E980B900020CA
:1019D000ADF82400ADF83000ADF82600ADF82800D1
:1019E000FF208DF8320009A9019806F0A1FD012120
:1019F000019806F033FE322004F058FA019806F000
:101A00008DFD10B080BD000080B586B001468DF818
:101A100017000020C4F20200042204900391114632
:101A2000029205F005FA9DF817200498029905F036
:101A30006BFB43F60000C4F20100402106F034FFC6
:101A40000498029905F012FAFFE70020C4F20200A0
:101A50000421022205F076FA0021002801910DD11F
:101A6000FFE743F60000C4F2010042F20B2106F04A
:101A700067FFB0FA80F040090190FFE70198C007C6
:101A8000002802D0FFE700BFDFE743F60000C4F202
:101A9000010042F20B21009006F03CFF002100986B
:101AA00006F002FF06B080BD80B586B00146ADF8F5
:101AB00016000020C4F202000322022304900391C6
:101AC000114602921A4605F02BFA0498029905F085
:101AD000AFF9BDF816200498029905F015FB43F6FE
:101AE0000000C4F20100802106F0F4FE049802997F
:101AF00005F0BCF9FFE743F60000C4F2010006213F
:101B000006F01EFF002802D1FFE700BFF3E743F60F
:101B10000000C4F201000621019006F0FBFE002146
:101B2000019806F0D7FE06B080BD000010B592B057
:101B300011904FF4A06005F057FF40F20E6005F0E1
:101B400053FF40F2065005F04FFF00208DF8420091
:101B5000119949690C9101218DF841100D9043F6BE
:101B60000402C4F201020A928DF840000B900E901C
:101B70004FF440530F9340F2000CC4F2020C4FF0AC
:101B8000040E0AAC099060460891714607922246FD
:101B90000693CDF814C0CDF810E0039405F0EEF9EB
:101BA0000598049905F09EF90598049905F05EF9E9
:101BB00008988DF84200119909690C918DF841003F
:101BC00009990D91079A0A928DF840100B910E9188
:101BD000069B0F934FF0030C05986146039ACDF8CE
:101BE00008C005F0CBF90598029905F05DF9059854
:101BF000029905F03BF943F60000C4F201000190A0
:101C000006F0F6FD11980168019806F073FD119831
:101C10004168019806F0E0FE1198C168019806F04D
:101C200047FF11988168019806F01CFF01980999F7
:101C300006F0C6FD0198099906F0B8FE01980999C9
:101C400006F09EFE1421019806F0F8FE019806F0B9
:101C5000E9FE4021019806F027FE8021019806F058
:101C600039FE0821019806F00DFF0198049906F04D
:101C7000C3FE019806F044FE12B010BD80B5FFE728
:101C800043F60000C4F2010042F2102106F058FEB3
:101C9000002801D0FFE7F3E73220FFF7B5FE80BD53
:101CA00080B582B00146ADF80600FFE743F60000BC
:101CB000C4F2010042F2102106F042FE002801D0D9
:101CC000FFE7F3E7BDF80600FFF7EEFE02B080BDC8
:101CD00080B582B04FF4C06005F086FE40F203602C
:101CE00005F082FE0420C4F20100016841F0040105
:101CF000016040F60040C4F2010018210322402395
:101D00000190009205F04AFA042180230198009A7C
:101D100005F044FA02B080BD2DE9F04FF7B0002085
:101D20008DF8DB018DF8DA0101218DF8D911ADF8BC
:101D3000D60140F20510C2F2000042F24371405C4D
:101D4000002803F02B85FFE740F20510C2F20000E7
:101D500042F24371002242541C217490084604F060
:101D6000A5F843F6EB30C2F200003222739074996A
:101D7000FEF70AFA48F67F31C0F60001739A7290B6
:101D80001046FEF721FA43F63C41C2F2000108601A
:101D9000086848F6B631C0F600010322FEF706FADD
:101DA000002809D0FFE743F6EB30C2F200000078CC
:101DB000102840F0FD82FFE748F67F31C0F60001B1
:101DC0000020FEF701FA43F63C41C2F20001086030
:101DD0000868008844F64F61884208D0FFE743F660
:101DE000EB30C2F20000407805284ED1FFE742F602
:101DF0000040C4F2010000210122719070916F92A5
:101E000006F052FA042071996E90084670996E9A05
:101E100005F0ECFF71986F996F9A06F045FA71988A
:101E20006F996E9A05F0E2FF43F63C40C2F2000063
:101E30000068008844F64F6188421AD1FFE740F2FB
:101E40000510C2F2000045F25241C0F60D21C0F863
:101E5000391045F25341C5F24121C0F8361045F220
:101E60005071C2F24D01C0F832100B20FFF718FF7D
:101E70000AE040F20510C2F20000AC2180F83210F6
:101E80000120FFF70DFFFFE790E243F63C40C2F26E
:101E90000000006848F69C31C0F600010322FEF7FE
:101EA00085F9002808D0FFE743F6EB30C2F20000C6
:101EB00040780A284ED1FFE742F60040C4F2010004
:101EC00000216D906C916C9A06F0EEF96D986C990A
:101ED0006C9A05F08BFF01206D996B9008466B9909
:101EE0006C9A06F0E1F96D986B996C9A05F07EFF9B
:101EF00043F63C40C2F20000006848F69C31C0F650
:101F000000010322FEF752F9002817D1FFE740F243
:101F10000510C2F2000040F60D21418745F2534101
:101F2000C5F24F01C0F8361045F25071C2F24D01B2
:101F3000C0F832100A20FFF7B3FE0AE040F20510A5
:101F4000C2F20000AC2180F832100120FFF7A8FE99
:101F5000FFE72AE243F63C40C2F200000068006856
:101F600045F24621C5F24511884209D0FFE743F604
:101F7000EB30C2F200004078FC2840F0CA80FFE756
:101F800043F63C40C2F200000068006845F246217A
:101F9000C5F24511884269D1FFE748F67F31C0F6A6
:101FA000000100206A90FEF70FF943F63C41C2F2AF
:101FB00000010860086803F08DFCFEF73DFA41EC73
:101FC000100B9FEDD31B51EC110B53EC102BFEF7B4
:101FD000C4F941EC100B51EC100B9FEDCF0B53ECFF
:101FE000102BFEF713F941EC100B51EC100BFEF720
:101FF00034FAFFF707FC42F60040C4F20100012169
:1020000069906A9A68911146689A06F04DF9042021
:102010006999679008466A99679A05F0E7FE69989A
:102020006899689A06F040F969986899679A05F086
:10203000DDFE40F20510C2F2000040F60D21C1871E
:1020400045F24141C4F24541C0F83A1045F22051F1
:10205000C4F25041C0F8361045F24621C5F2451190
:10206000C0F832100E20FFF71BFE51E043F6EB30B4
:10207000C2F200008178C07840EA0120ADF8D601B4
:10208000BDF8D601FEF7D8F941EC100B9FEDA01B6F
:1020900051EC110B53EC102BFEF75FF941EC100BD8
:1020A00051EC100B9FED9C0B53EC102BFEF7AEF890
:1020B00041EC100B51EC100BFEF7CFF9FFF7A2FB30
:1020C00042F60040C4F201000021012266906591B1
:1020D000649206F0E9F804206699639008466599D1
:1020E000639A05F083FE66986499649A06F0DCF8BA
:1020F00066986499639A05F079FE40F20510C2F281
:102100000000AC2180F832106498FFF7C9FDFFE7AA
:102110004AE143F63C40C2F200000068008845F204
:102120004441884208D0FFE743F6EB30C2F200009A
:102130004078D1285FD1FFE743F63C40C2F200006F
:102140000068008845F24441884238D1FFE748F6EC
:102150007F31C0F600010020FEF736F843F63C411F
:10216000C2F20001086042F64440C4F20100026875
:1021700022F0FF02026009686290084603F0AAFBA1
:10218000C0B262990A681043086040F20510C2F2BA
:10219000000044F24542C0F60D22C0F83A2044F255
:1021A0005042C5F24142C0F8362045F24442C5F2E1
:1021B0002052C0F832200C20FFF772FD1AE042F6E0
:1021C0004440C4F20100016821F0FF01016043F6C0
:1021D000EB31C2F20001897802681143016040F2DC
:1021E0000510C2F20000AC2180F832100120FFF788
:1021F00057FDFFE7D7E043F63C40C2F2000000681D
:10220000008844F24431884209D0FFE743F6EB30BE
:10221000C2F200004078DC2840F0C480FFE743F6BB
:102220003C40C2F200000068008844F24431884219
:1022300078D1FFE748F67F31C0F600010020FDF7B6
:10224000C3FF43F63C41C2F20001086042F62C4055
:10225000C4F2010090ED000AB8EE400A0A686190ED
:10226000104660918DED5F0A03F034FB00EE100A1A
:10227000B8EEC00A9FED2A1A80EE010A9DED5F2A92
:1022800022EE000ABCEEC00A42F63440C4F201005D
:1022900080ED000A619890ED000AB8EE400A60995E
:1022A00008688DED5E1A8DED5D0A03F013FB00EEFC
:1022B000100AB8EEC00A9DED5E1A80EE010A9DED8F
:1022C0005D2A22EE000ABCEEC00A42F63840C4F293
:1022D000010080ED000A40F20510C2F2000044F255
:1022E0004541C0F60D21C0F83A1044F25041C5F204
:1022F0004141C0F8361044F24431C5F22051C0F8D3
:1023000032100C20FFF7CCFC4BE000BF00BF00BF39
:1023100000000000004CFD40000000000000F0BF85
:102320000000C84242F62C40C4F2010090ED000AC1
:10233000B8EE400A43F6EB31C2F200018A7801EEB2
:10234000102AB8EEC11A1FED0A2A81EE021A20EEF9
:10235000010ABCEEC00A42F63442C4F2010282ED28
:10236000000A90ED000AB8EE400A887801EE100AE3
:10237000B8EEC11A81EE021A20EE010ABCEEC00AC4
:1023800042F63840C4F2010080ED000A40F2051028
:10239000C2F20000AC2180F832100120FFF780FC6F
:1023A000FFE7FFE7FFE7FFE7FFE7FFE703F0D4B949
:1023B00043F63C40C2F20000006848F69831C0F68F
:1023C00000010322FDF7F2FE002809D0FFE743F6E3
:1023D000EB30C2F200000078AD2840F04B83FFE7FD
:1023E00048F67F31C0F600010020FDF7EDFE43F610
:1023F0003C41C2F2000108600868006844F2525192
:10240000C4F24141884209D0FFE743F6EB30C2F203
:1024100000004078FD2840F0A181FFE700208DF802
:10242000DB01FFE79DF8DB0109282ADCFFE7FEF767
:10243000CDF800208DF8DA01FFE79DF8DA010528D4
:1024400018DCFFE79DF8DA0140F20801C2F2000152
:1024500031F8101043F62042C2F2000252F8203048
:10246000194442F82010FFE79DF8DA0101308DF899
:10247000DA01E2E7FFE79DF8DB0101308DF8DB01CF
:10248000D0E743F63C40C2F200000068006844F226
:102490005251C4F24141884240F0C380FFE740F20C
:1024A0000510C2F2000044F24921C5F2553140F84E
:1024B000321F42F23A01818043F62042C2F200020A
:1024C00013684CF6CD4CCCF6CC4CA3FB0C3ECEF3B3
:1024D000CF0E06245C905B9121465A927246CDF84D
:1024E00064C158935794FEF7F7F80D205C998872F1
:1024F0000A22CA720C235690184655925493FFF73D
:10250000CFFB5B985C99888044F25612C4F6434234
:102510000A605A9A5368DDF864C1A3FB0C3ECEF3FF
:10252000CF02084657995393FEF7D6F856985C9910
:102530008872559ACA725498FFF7B2FB44F6494024
:10254000C2F23A005C9908605A988268599BA2FBD3
:10255000032CCCF3CF0C04215C9852926246FEF718
:10256000BBF856985C990872559A4A721046FFF764
:1025700097FB5B985C99888044F25452C5F24D02F7
:102580000A605A9AD368DDF864C1A3FB0C3ECEF30F
:10259000CF02084657995193FEF79EF856985C99DA
:1025A0008872559ACA725498FFF77AFB5B985C99C7
:1025B000888044F25612C4F643520A605A9A13694C
:1025C000DDF864C1A3FB0C3ECEF3CF020846579959
:1025D0005093FEF781F856985C998872559ACA72A2
:1025E0005498FFF75DFB5B985C99888044F2562213
:1025F000C5F255320A605A9A5369DDF864C1A3FBEB
:102600000C3ECEF3CF02084657994F93FEF764F87D
:1026100056985C998872559ACA725498FFF740FB95
:1026200082E043F62040C2F2000001684CF6CD4241
:10263000CCF6CC42A1FB0213DB0A40F2051CC2F22D
:10264000000C8CF832300368A3FB023E4FEADE0E2A
:102650008CF833E04FF0200E8CF834E04468A4FB93
:102660000245ED0A8CF835504568A5FB0256F60880
:102670008CF836608CF837E08668A6FB0267FF0AA4
:102680008CF838708768A7FB02784FEAD8088CF876
:1026900039808CF83AE0D0F80C80A8FB02894FEA28
:1026A000D9298CF83B90D0F80C90A9FB029A4FEAFC
:1026B000DA0A8CF83CA08CF83DE0D0F810A0AAFB18
:1026C00002AB4FEADB2B8CF83EB0D0F810B04E9046
:1026D000ABFB02B0C0088CF83F008CF840E04E988D
:1026E000D0F814E0AEFB02E0C00A8CF841004E982E
:1026F0004069A0FB0202D2088CF8422011224D90C2
:1027000010464C914B934A94499548964797CDF87B
:102710001881CDF81491CDF810A1CDF80CB1CDF8F9
:1027200008E1FFF7BDFAFFE700208DF8DA01FFE7C7
:102730009DF8DA01052810DCFFE79DF8DA0143F681
:102740002041C2F20001002241F82020FFE79DF85D
:10275000DA0101308DF8DA01EAE789E143F63C401D
:10276000C2F20000006848F6C631C0F60001072238
:10277000FDF71CFD002809D0FFE743F6EB30C2F25D
:10278000000040785A2840F07281FFE743F63C4051
:10279000C2F20000006848F6C631C0F60001072208
:1027A000FDF704FD002840F0D980FFE748F67F31AF
:1027B000C0F6000100204190FDF706FD43F63C41C4
:1027C000C2F200010860086803F084F843F6404153
:1027D000C2F20001088043F6DA30C2F200004199EB
:1027E0000180FFE743F6DA30C2F20000008843F6CA
:1027F0004041C2F200010988884280F2AE80FFE7C2
:10280000FDF7E4FE40F20510C2F2000044F2492157
:10281000C5F2553140F8321F42F23A01818040F250
:102820000802C2F2000213884FF0060C40903F915C
:1028300061463E921A46CDF8F4C0FDF74DFF0D20DB
:10284000409988720A22CA720C233C9018463B9227
:102850003A93FFF725FA3F984099888044F2561240
:10286000C4F643420A603E9A528808463D99FDF7F5
:1028700033FF3C98409988723B9ACA723A98FFF7A6
:102880000FFA44F64940C2F23A00409908603E9877
:10289000828804214098FDF71FFF3C9840990872F8
:1028A0003B9A4A721046FFF7FBF93F98409988809F
:1028B00044F25452C5F24D020A603E9AD28808464C
:1028C0003D99FDF709FF3C98409988723B9ACA727E
:1028D0003A98FFF7E5F93F984099888044F25612FC
:1028E000C4F643520A603E9A128908463D99FDF7A4
:1028F000F3FE3C98409988723B9ACA723A98FFF767
:10290000CFF93F984099888044F25622C5F255325B
:102910000A603E9A528908463D99FDF7DDFE3C98D3
:10292000409988723B9ACA723A98FFF7B9F942F611
:102930002D50C0F60D20409988604FF02D30486032
:1029400008603A98FFF7ACF9FFE743F6DA30C2F2D5
:10295000000001880131018044E787E0FEF716FF9F
:1029600043F6EB30C2F200008178C07840EA0120E3
:1029700043F64041C2F20001088043F6DE30C2F265
:10298000000000210180FFE743F6DE30C2F20000C4
:10299000008843F64041C2F200010988884232DAD9
:1029A000FFE7FDF713FE40F20800C2F20000417895
:1029B00040F2EA02C2F20002D17101881172C178BC
:1029C0005172418891724179D17281881173C179B4
:1029D0005173C1889173417AD17301891174C17A9D
:1029E0005174408990740020D074212010750E20FD
:1029F000FEF7B4FEFFE743F6DE30C2F200000188C6
:102A000001310180C0E743F6DE30C2F200000088E9
:102A100043F64041C2F200010988884225DBFFE706
:102A200040F60040C4F2010004212023399038917F
:102A3000389A04F0B3FB28201023399937900846C0
:102A40003799389A04F0AAFB082339983799389AAD
:102A500004F0A4FB40F60000C4F201004FF4004370
:102A60003799389A04F09AFBFFE7FFE7FFE7FFE7A3
:102A700002F071BE43F63C40C2F20000006848F626
:102A80009431C0F600010322FDF790FB002808D026
:102A9000FFE743F6EB30C2F200000078DC287AD181
:102AA000FFE700208DF8D901FEF752FE43F63C40C7
:102AB000C2F20000006848F69431C0F6000103221B
:102AC000FDF774FB002836D1FFE748F67F31C0F6EA
:102AD000000100203690FDF777FB43F63C41C2F23F
:102AE00000010860086802F0F5FE36993590084646
:102AF000359A04F0B3F8369804F00AF940F205105C
:102B0000C2F200000A2180F83E1044F25451C0F68F
:102B10004451C0F83A1045F25501C4F24411C0F8CE
:102B2000361044F24411C2F24301C0F832100D20B5
:102B3000FFF7B6F82DE040F2BC00C2F20000012120
:102B4000017043F6EB30C2F200004278837843EA2A
:102B5000022243F6E833C2F200031A8042788078FA
:102B600040EA022200203490349B3391194604F04D
:102B700075F8349804F0CCF8FEF708FE40F2051022
:102B8000C2F20000AC2180F832103398FFF788F8C9
:102B9000FFE702F0DFBD43F63C40C2F200000068F0
:102BA000006845F24701C4F64971884209D0FFE741
:102BB00043F6EB30C2F2000000786F2842F0E28466
:102BC000FFE748F67F31C0F600010020FDF7FCFA70
:102BD00043F63C41C2F2000108600868006844F214
:102BE0005251C4F24141884209D0FFE743F6EB302D
:102BF000C2F2000040787D2840F00682FFE743F6ED
:102C00003C40C2F200000068006844F25251C4F235
:102C10004141884240F04D81FFE741F20000C4F29B
:102C200001004FF4005104F083FB01281DD1FFE7A0
:102C300040F20510C2F200000A2180F83E1044F272
:102C40004971C0F64851C0F83A1043F64521C4F620
:102C50002001C0F8361045F25341C5F24141C0F899
:102C600032100D20FFF71CF819E040F20510C2F2F7
:102C7000000045F24F71C0F60D21C0F83A1043F63E
:102C80004521C4F62041C0F8361045F25341C5F243
:102C90004141C0F832100C20FFF702F8FFE741F283
:102CA0000000C4F201004FF4004104F041FB012890
:102CB0001DD1FFE740F20510C2F2000040F60D21E1
:102CC000C18744F64811C4F64701C0F83A1044F2EF
:102CD0004C51C2F23A01C0F8361044F64561C4F2D4
:102CE0004121C0F832100E20FEF7DAFF1CE040F25E
:102CF0000510C2F200000A2180F83E1044F64C7123
:102D0000C0F65751C0F83A1044F24C51C2F23A01A1
:102D1000C0F8361044F64561C4F24121C0F83210C3
:102D20000D20FEF7BDFFFFE740F60040C4F20100B2
:102D3000022104F0FDFA01281DD1FFE740F2051041
:102D4000C2F200000A2180F83E1044F24971C0F638
:102D50004851C0F83A1043F64B21C4F62001C0F8A0
:102D6000361044F25741C4F65F71C0F832100D209E
:102D7000FEF796FF19E040F20510C2F2000045F29E
:102D80004F71C0F60D21C0F83A1043F64B21C4F63E
:102D90002041C0F8361044F25741C4F65F71C0F8C4
:102DA00032100C20FEF77CFFFFE740F60040C4F233
:102DB00001004FF4805104F0BBFA01281AD1FFE75B
:102DC00040F20510C2F2000044F64701C0F60D21A2
:102DD000C0F8391044F62001C4F24971C0F8361029
:102DE00044F24F31C3F65021C0F832100B20FEF7E9
:102DF00057FF16E040F20510C2F2000040F60D2128
:102E0000418744F62041C5F24F71C0F8361044F2B4
:102E10004F31C3F65021C0F832100A20FEF740FFB0
:102E2000FFE740F60040C4F20100202104F080FAE0
:102E3000012820D1FFE740F20510C2F2000044F65D
:102E40004701C0F60D21C0F83D1044F62001C4F240
:102E50004971C0F83A1044F65F11C3F64E21C0F82C
:102E6000361045F65311C4F24E31C0F832100E2020
:102E7000FEF716FF1CE040F20510C2F2000040F61B
:102E80000D21C18744F62041C5F24F71C0F83A10B8
:102E900044F65F11C3F64E21C0F8361045F65311C3
:102EA000C4F24E31C0F832100D20FEF7F9FEFFE7F4
:102EB000A8E040F20510C2F20000002180F83210B4
:102EC00041F20000C4F201004FF4005104F030FA66
:102ED00001280BD1FFE740F20510C2F2000090F884
:102EE00032104900013180F8321009E040F205103B
:102EF000C2F2000090F83210490080F83210FFE76B
:102F000041F20000C4F201004FF4004104F010FA55
:102F100001280BD1FFE740F20510C2F2000090F843
:102F200032104900013180F8321009E040F20510FA
:102F3000C2F2000090F83210490080F83210FFE72A
:102F400040F60040C4F20100022104F0F1F901282A
:102F50000BD1FFE740F20510C2F2000090F83210EA
:102F60004900013180F8321009E040F20510C2F248
:102F7000000090F83210490080F83210FFE740F668
:102F80000040C4F201004FF4805104F0D1F901284F
:102F90000BD1FFE740F20510C2F2000090F83210AA
:102FA0004900013180F8321009E040F20510C2F208
:102FB000000090F83210490080F83210FFE740F628
:102FC0000040C4F20100202104F0B2F901280BD125
:102FD000FFE740F20510C2F2000090F832104900FD
:102FE000013180F8321009E040F20510C2F2000011
:102FF00090F83210490080F83210FFE70120FEF708
:103000004FFEFFE702F0BDBA43F63C40C2F20000BB
:10301000006848F6A031C0F600010722FDF7C6F8A7
:10302000002809D0FFE743F6EB30C2F200004078F9
:103030007F2841F0BF82FFE7FDF78EFC43F63C405E
:10304000C2F20000006848F6A031C0F60001072275
:10305000FDF7ACF8002840F03E87FFE741F20000A2
:10306000C4F201004FF4005104F062F901281DD1AF
:10307000FFE740F20510C2F200000A2180F83E107E
:1030800044F24971C0F64851C0F83A1043F6452160
:10309000C4F62001C0F8361045F25341C5F2414153
:1030A000C0F832100D20FEF7FBFD19E040F20510CC
:1030B000C2F2000045F24F71C0F60D21C0F83A107F
:1030C00043F64521C4F62041C0F8361045F253417D
:1030D000C5F24141C0F832100C20FEF7E1FDFFE7D8
:1030E00041F20000C4F201004FF4804104F020F9E5
:1030F00001281DD1FFE740F20510C2F200000A21AD
:1031000080F83E1044F24971C0F64851C0F83A10B8
:1031100043F64D21C4F62001C0F8361044F6414173
:10312000C5F24121C0F832100D20FEF7B9FD19E0BB
:1031300040F20510C2F2000045F24F71C0F60D21B9
:10314000C0F83A1043F64D21C4F62041C0F83610BD
:1031500044F64141C5F24121C0F832100C20FEF77F
:103160009FFDFFE741F20000C4F201004FF400416F
:1031700004F0DEF801281DD1FFE740F20510C2F28D
:10318000000040F60D21C18744F64811C4F64701FE
:10319000C0F83A1044F24C51C2F23A01C0F836106D
:1031A00044F64561C4F24121C0F832100E20FEF70A
:1031B00077FD1CE040F20510C2F200000A2180F801
:1031C0003E1044F64C71C0F65751C0F83A1044F224
:1031D0004C51C2F23A01C0F8361044F64561C4F2CF
:1031E0004121C0F832100D20FEF75AFDFFE740F6EE
:1031F0000000C4F20100012104F09AF801281AD15C
:10320000FFE740F20510C2F2000044F64701C0F6A5
:103210000D21C0F83A1042F23A01C4F64811C0F844
:10322000361044F24921C5F25531C0F832100C2055
:10323000FEF736FD19E040F20510C2F2000045F23B
:103240004F71C0F60D21C0F8391042F23A01C4F6B0
:103250004C71C0F8361044F24921C5F25531C0F81E
:1032600032100B20FEF71CFDFFE740F60000C4F211
:103270000100022104F05CF801281AD1FFE740F2B6
:103280000510C2F2000044F64701C0F60D21C0F857
:103290003A1042F23A01C4F64811C0F8361044F22E
:1032A0005611C4F64341C0F832100C20FEF7F8FC6A
:1032B00019E040F20510C2F2000045F24F71C0F66D
:1032C0000D21C0F8391042F23A01C4F64C71C0F831
:1032D000361044F25611C4F64341C0F832100B20A8
:1032E000FEF7DEFCFFE740F60000C4F20100042117
:1032F00004F01EF8012817D1FFE740F20510C2F2D2
:10330000000040F60D21418744F64811C4F64701FC
:10331000C0F8361044F64941C2F23A01C0F8321002
:103320000A20FEF7BDFC16E040F20510C2F20000D4
:103330000A2180F83A1044F64C71C0F65751C0F893
:10334000361044F64941C2F23A01C0F83210092061
:10335000FEF7A6FCFFE740F60000C4F201000821DA
:1033600003F0E6FF01281AD1FFE740F20510C2F290
:10337000000044F64701C0F60D21C0F83A1042F2B1
:103380003A01C4F64811C0F8361044F25451C5F25F
:103390004D01C0F832100C20FEF782FC19E040F21B
:1033A0000510C2F2000045F24F71C0F60D21C0F8C1
:1033B000391042F23A01C4F64C71C0F8361044F2AA
:1033C0005451C5F24D01C0F832100B20FEF768FCD5
:1033D000FFE740F60000C4F20100102103F0A8FF4F
:1033E00001281DD1FFE740F20510C2F2000040F6AF
:1033F0000D21C18744F64811C4F64701C0F83A10C0
:1034000044F65401C2F23A01C0F8361044F24F318A
:10341000C5F65071C0F832100E20FEF741FC1CE0DA
:1034200040F20510C2F200000A2180F83E1044F676
:103430004C71C0F65751C0F83A1044F65401C2F22C
:103440003A01C0F8361044F24F31C5F65071C0F859
:1034500032100D20FEF724FCFFE740F60000C4F216
:103460000100202103F064FF01281AD1FFE740F298
:103470000510C2F2000044F64701C0F60D21C0F865
:103480003A1042F23A01C4F64811C0F8361044F23C
:103490005611C4F64361C0F832100C20FEF700FC50
:1034A00019E040F20510C2F2000045F24F71C0F67B
:1034B0000D21C0F8391042F23A01C4F64C71C0F83F
:1034C000361044F25611C4F64361C0F832100B2096
:1034D000FEF7E6FBFFE740F60000C4F201004021E2
:1034E00003F026FF01281AD1FFE740F20510C2F2CF
:1034F000000044F64701C0F60D21C0F83A1042F230
:103500003A01C4F64811C0F8361044F25621C5F20B
:103510005531C0F832100C20FEF7C2FB19E040F222
:103520000510C2F2000045F24F71C0F60D21C0F83F
:10353000391042F23A01C4F64C71C0F8361044F228
:103540005621C5F25531C0F832100B20FEF7A8FB0A
:10355000FFE740F60000C4F20100802103F0E8FE1E
:1035600001281DD1FFE740F20510C2F200000A2138
:1035700080F83E1044F24971C0F64851C0F83A1044
:1035800043F65921C4F62001C0F8361044F25251D6
:10359000C4F24C11C0F832100D20FEF781FB19E087
:1035A00040F20510C2F2000045F24F71C0F60D2145
:1035B000C0F83A1043F65921C4F62041C0F836103D
:1035C00044F25251C4F24C11C0F832100C20FEF7F4
:1035D00067FBFFE740F60040C4F20100012103F061
:1035E000A7FE012817D1FFE740F20510C2F2000044
:1035F00040F60D21418744F64811C4F64701C0F852
:10360000361044F25741C2F23A01C0F832100A2093
:10361000FEF746FB16E040F20510C2F200000A2158
:1036200080F83A1044F64C71C0F65751C0F8361085
:1036300044F25741C2F23A01C0F832100920FEF7B5
:103640002FFBFFE740F60040C4F20100022103F027
:103650006FFE01281DD1FFE740F20510C2F2000005
:103660000A2180F83E1044F24971C0F64851C0F872
:103670003A1043F64B21C4F62001C0F8361044F24C
:103680005741C4F65F71C0F832100D20FEF708FBF9
:1036900019E040F20510C2F2000045F24F71C0F689
:1036A0000D21C0F83A1043F64B21C4F62041C0F872
:1036B000361044F25741C4F65F71C0F832100C2046
:1036C000FEF7EEFAFFE740F60040C4F201000421E5
:1036D00003F02EFE012820D1FFE740F20510C2F2D0
:1036E000000044F64701C0F60D21C0F83E1042F23A
:1036F0003A01C4F64811C0F83A1045F65471C4F2C4
:103700004451C0F8361045F25531C5F24121C0F898
:1037100032101020FEF7C4FA1FE040F20510C2F28A
:10372000000045F24F71C0F60D21C0F83D1042F285
:103730003A01C4F64C71C0F83A1045F65471C4F21F
:103740004451C0F8361045F25531C5F24121C0F858
:1037500032100F20FEF7A4FAFFE740F60040C4F253
:1037600001004FF4806103F0E3FD012820D1FFE761
:1037700040F20510C2F2000044F64701C0F60D21E8
:10378000C0F83E1042F23A01C4F64811C0F83A10AF
:1037900045F65471C5F65401C0F8361045F255315E
:1037A000C5F24121C0F832101020FEF779FA1FE06F
:1037B00040F20510C2F2000045F24F71C0F60D2133
:1037C000C0F83D1042F23A01C4F64C71C0F83A100C
:1037D00045F65471C5F65401C0F8361045F255311E
:1037E000C5F24121C0F832100F20FEF759FAFFE769
:1037F00040F60040C4F201004FF4006103F098FD70
:10380000012820D1FFE740F20510C2F2000044F683
:103810004701C0F60D21C0F83E1042F23A01C4F64D
:103820004811C0F83A1045F65471C5F65201C0F877
:10383000361045F25531C5F24121C0F83210102042
:10384000FEF72EFA1FE040F20510C2F2000045F22A
:103850004F71C0F60D21C0F83D1042F23A01C4F696
:103860004C71C0F83A1045F65471C5F65201C0F8D3
:10387000361045F25531C5F24121C0F832100F2003
:10388000FEF70EFAFFE740F60040C4F201004FF4E5
:10389000805103F04DFD01281AD1FFE740F20510D9
:1038A000C2F2000040F64851C0F20A01C0F83A10D6
:1038B00044F62001C4F24971C0F8361044F24F3189
:1038C000C3F65021C0F832100C20FEF7E9F917E0DA
:1038D00040F20510C2F2000040F60D21C0F83A1087
:1038E00044F62041C5F24F71C0F8361044F24F3112
:1038F000C3F65021C0F832100B20FEF7D1F9FFE7D4
:1039000040F60040C4F201004FF4005103F010FDF6
:1039100001281DD1FFE740F20510C2F2000040F679
:103920000D21C18744F64811C4F64701C0F83A108A
:1039300044F65301C2F23A01C0F8361045F2507114
:10394000C5F64D71C0F832100E20FEF7A9F91CE043
:1039500040F20510C2F200000A2180F83E1044F641
:103960004C71C0F65751C0F83A1044F65301C2F2F8
:103970003A01C0F8361045F25071C5F64D71C0F8E5
:1039800032100D20FEF78CF9FFE740F60040C4F23C
:1039900001004FF4804103F0CBFC01281DD1FFE76B
:1039A00040F20510C2F2000040F60D21C18744F636
:1039B0004811C4F64701C0F83A1044F65341C2F228
:1039C0003A01C0F8361045F25071C5F64D71C0F895
:1039D00032100E20FEF764F91CE040F20510C2F22E
:1039E00000000A2180F83E1044F64C71C0F6575191
:1039F000C0F83A1044F65341C2F23A01C0F836100A
:103A000045F25071C5F64D71C0F832100D20FEF729
:103A100047F9FFE740F60040C4F201004FF40041CF
:103A200003F086FC01281AD1FFE740F20510C2F22C
:103A3000000044F64701C0F60D21C0F83A1042F2EA
:103A40003A01C4F64811C0F8361044F24C51C3F2A2
:103A50004411C0F832100C20FEF722F919E040F2B0
:103A60000510C2F2000045F24F71C0F60D21C0F8FA
:103A7000391042F23A01C4F64C71C0F8361044F2E3
:103A80004C51C3F24411C0F832100B20FEF708F974
:103A9000FFE740F60000C4F201004FF4807103F02C
:103AA00047FC01281DD1FFE740F20510C2F20000DB
:103AB00040F60D21C18744F64811C4F64701C0F80D
:103AC0003A1044F64601C2F23A01C0F8361045F207
:103AD0005071C5F64D71C0F832100E20FEF7E0F8B7
:103AE0001CE040F20510C2F200000A2180F83E10EE
:103AF00044F64C71C0F65751C0F83A1044F64601EE
:103B0000C2F23A01C0F8361045F25071C5F64D7157
:103B1000C0F832100D20FEF7C3F8FFE740F60000B2
:103B2000C4F201004FF4007103F002FC01281DD122
:103B3000FFE740F20510C2F2000040F60D21C187F8
:103B400044F64811C4F64701C0F83A1044F646411D
:103B5000C2F23A01C0F8361045F25071C5F64D7107
:103B6000C0F832100E20FEF79BF81CE040F2051062
:103B7000C2F200000A2180F83E1044F64C71C0F6F3
:103B80005751C0F83A1044F64641C2F23A01C0F823
:103B9000361045F25071C5F64D71C0F832100D2047
:103BA000FEF77EF8FFE740F60040C4F201004FF454
:103BB000005103F0BDFB01281DD1FFE740F20510C5
:103BC000C2F2000040F60D21C18744F64811C4F648
:103BD0004701C0F83A1044F65301C2F23A01C0F866
:103BE000361045F25071C5F64D71C0F832100E20F6
:103BF000FEF756F81CE040F20510C2F200000A2160
:103C000080F83E1044F64C71C0F65751C0F83A1097
:103C100044F65301C2F23A01C0F8361045F2507131
:103C2000C5F64D71C0F832100D20FEF739F8FFE7E8
:103C300040F60000C4F201004FF4806103F078FB0D
:103C400001281DD1FFE740F20510C2F2000040F646
:103C50000D21C18744F64811C4F64701C0F83A1057
:103C600044F64561C2F23A01C0F8361045F250718F
:103C7000C5F64D71C0F832100E20FEF711F81CE0A9
:103C800040F20510C2F200000A2180F83E1044F60E
:103C90004C71C0F65751C0F83A1044F64561C2F273
:103CA0003A01C0F8361045F25071C5F64D71C0F8B2
:103CB00032100D20FDF7F4FFFFE740F60000C4F2DC
:103CC00001004FF4006103F033FB01281DD1FFE731
:103CD00040F20510C2F2000040F60D21C18744F603
:103CE0004811C4F64701C0F83A1045F65201C2F235
:103CF0003A01C0F8361044F24311C5F64E71C0F8CF
:103D000032100E20FDF7CCFF1CE040F20510C2F28D
:103D100000000A2180F83E1044F64C71C0F657515D
:103D2000C0F83A1045F65201C2F23A01C0F8361016
:103D300044F24311C5F64E71C0F832100D20FDF764
:103D4000AFFFFFE740F60000C4F201004FF48051DE
:103D500003F0EEFA01281DD1FFE740F20510C2F290
:103D6000000040F60D21C18744F64811C4F6470112
:103D7000C0F83A1045F65401C2F23A01C0F83610C4
:103D800044F24311C5F64E71C0F832100E20FDF713
:103D900087FF1CE040F20510C2F200000A2180F803
:103DA0003E1044F64C71C0F65751C0F83A1045F633
:103DB0005401C2F23A01C0F8361044F24311C5F67C
:103DC0004E71C0F832100D20FDF76AFFFFE740F694
:103DD0000040C4F20100202103F0AAFA012820D1FA
:103DE000FFE740F20510C2F2000044F64701C0F6BA
:103DF0000D21C0F83D1044F62001C4F24971C0F80D
:103E00003A1044F65F11C3F64E21C0F8361045F65D
:103E10005311C4F24E31C0F832100F20FDF740FFAD
:103E20001CE040F20510C2F2000040F60D21C187EF
:103E300044F62041C5F24F71C0F83A1044F65F11C4
:103E4000C3F64E21C0F8361045F65311C4F24E3178
:103E5000C0F832100E20FDF723FFFFE740F60040C8
:103E6000C4F201004FF4807103F062FA01281AD104
:103E7000FFE740F20510C2F2000044F64701C0F629
:103E80000D21C0F8391044F62001C4F24971C0F880
:103E9000361044F24611C3F64E21C0F832100B2002
:103EA000FDF7FEFE16E040F20510C2F2000040F6FB
:103EB0000D21418744F62041C5F24F71C0F83610FC
:103EC00044F24611C3F64E21C0F832100A20FDF725
:103ED000E7FEFFE764E340F20510C2F200000021B4
:103EE00080F8321080F8331080F8341080F83510E4
:103EF00041F20000C4F201004FF4005103F018FA3F
:103F000001280BD1FFE740F20510C2F2000090F843
:103F100032104900013180F8321009E040F20510FA
:103F2000C2F2000090F83210490080F83210FFE72A
:103F300041F20000C4F201004FF4804103F0F8F9AF
:103F400001280BD1FFE740F20510C2F2000090F803
:103F500032104900013180F8321009E040F20510BA
:103F6000C2F2000090F83210490080F83210FFE7EA
:103F700041F20000C4F201004FF4004103F0D8F90F
:103F800001280BD1FFE740F20510C2F2000090F8C3
:103F900032104900013180F8321009E040F205107A
:103FA000C2F2000090F83210490080F83210FFE7AA
:103FB00040F60000C4F20100012103F0B9F9012824
:103FC0000BD1FFE740F20510C2F2000090F832106A
:103FD0004900013180F8321009E040F20510C2F2C8
:103FE000000090F83210490080F83210FFE740F6E8
:103FF0000000C4F20100022103F09AF901280BD15C
:10400000FFE740F20510C2F2000090F832104900BC
:10401000013180F8321009E040F20510C2F20000D0
:1040200090F83210490080F83210FFE740F60000A7
:10403000C4F20100042103F07BF901280BD1FFE752
:1040400040F20510C2F2000090F832104900013130
:1040500080F8321009E040F20510C2F2000090F83A
:104060003210490080F83210FFE740F60000C4F239
:104070000100082103F05CF901280BD1FFE740F2B1
:104080000510C2F2000090F832104900013180F8AA
:10409000321009E040F20510C2F2000090F8321030
:1040A000490080F83210FFE740F60000C4F201003A
:1040B000102103F03DF901280BD1FFE740F2051074
:1040C000C2F2000090F832104900013180F832103D
:1040D00009E040F20510C2F2000090F832104900E9
:1040E00080F83210FFE740F60000C4F20100202102
:1040F00003F01EF901280BD1FFE740F20510C2F2D0
:10410000000090F832104900013180F8331009E0C6
:1041100040F20510C2F2000090F83310490080F818
:104120003310FFE740F60000C4F20100402103F025
:10413000FFF801280BD1FFE740F20510C2F20000A2
:1041400090F832104900013180F8331009E040F254
:104150000510C2F2000090F83310490080F83310C7
:10416000FFE740F60000C4F20100802103F0E0F810
:1041700001280BD1FFE740F20510C2F2000090F8D1
:1041800032104900013180F8331009E040F2051087
:10419000C2F2000090F83310490080F83310FFE7B6
:1041A00040F60040C4F20100012103F0C1F80128EB
:1041B0000BD1FFE740F20510C2F2000090F8321078
:1041C0004900013180F8331009E040F20510C2F2D5
:1041D000000090F83310490080F83310FFE740F6F4
:1041E0000040C4F20100022103F0A2F801280BD123
:1041F000FFE740F20510C2F2000090F832104900CB
:10420000013180F8331009E040F20510C2F20000DD
:1042100090F83310490080F83310FFE740F6004073
:10422000C4F20100042103F083F801280BD1FFE759
:1042300040F20510C2F2000090F83210490001313E
:1042400080F8331009E040F20510C2F2000090F847
:104250003310490080F83310FFE740F60040C4F205
:1042600001004FF4806103F063F801280BD1FFE7F0
:1042700040F20510C2F2000090F8321049000131FE
:1042800080F8331009E040F20510C2F2000090F807
:104290003310490080F83310FFE740F60040C4F2C5
:1042A00001004FF4006103F043F801280BD1FFE750
:1042B00040F20510C2F2000090F8321049000131BE
:1042C00080F8331009E040F20510C2F2000090F8C7
:1042D0003310490080F83310FFE740F60040C4F285
:1042E00001004FF4805103F023F801280BD1FFE7C0
:1042F00040F20510C2F2000090F83210490001317E
:1043000080F8341009E040F20510C2F2000090F885
:104310003410490080F83410FFE740F60040C4F242
:1043200001004FF4005103F003F801280BD1FFE71F
:1043300040F20510C2F2000090F83210490001313D
:1043400080F8341009E040F20510C2F2000090F845
:104350003410490080F83410FFE740F60040C4F202
:1043600001004FF4804102F0E3FF01280BD1FFE789
:1043700040F20510C2F2000090F8321049000131FD
:1043800080F8341009E040F20510C2F2000090F805
:104390003410490080F83410FFE740F60040C4F2C2
:1043A00001004FF4004102F0C3FF01280BD1FFE7E9
:1043B00040F20510C2F2000090F8321049000131BD
:1043C00080F8341009E040F20510C2F2000090F8C5
:1043D0003410490080F83410FFE740F60000C4F2C2
:1043E00001004FF4807102F0A3FF01280BD1FFE719
:1043F00040F20510C2F2000090F83210490001317D
:1044000080F8341009E040F20510C2F2000090F884
:104410003410490080F83410FFE740F60000C4F281
:1044200001004FF4007102F083FF01280BD1FFE778
:1044300040F20510C2F2000090F83210490001313C
:1044400080F8341009E040F20510C2F2000090F844
:104450003410490080F83410FFE740F60000C4F241
:1044600001004FF4806102F063FF01280BD1FFE7E8
:1044700040F20510C2F2000090F8321049000131FC
:1044800080F8341009E040F20510C2F2000090F804
:104490003410490080F83410FFE740F60000C4F201
:1044A00001004FF4006102F043FF01280BD1FFE748
:1044B00040F20510C2F2000090F8321049000131BC
:1044C00080F8341009E040F20510C2F2000090F8C4
:1044D0003410490080F83410FFE740F60000C4F2C1
:1044E00001004FF4805102F023FF01280BD1FFE7B8
:1044F00040F20510C2F2000090F83210490001317C
:1045000080F8351009E040F20510C2F2000090F882
:104510003510490080F83510FFE740F60040C4F23E
:104520000100202102F004FF01280BD1FFE740F237
:104530000510C2F2000090F832104900013180F8F5
:10454000351009E040F20510C2F2000090F8351075
:10455000490080F83510FFE740F60040C4F2010042
:104560004FF4807102F0E4FE01280BD1FFE740F226
:104570000510C2F2000090F832104900013180F8B5
:10458000351009E040F20510C2F2000090F8351035
:10459000490080F83510FFE70420FDF781FBFFE7B5
:1045A000FCF7CCFDFDF794FBFCF7CEFFFCF7F2FB2C
:1045B00000F0E6BF43F63C40C2F20000006800682D
:1045C00044F64811C4F64701884209D0FFE743F694
:1045D000EB30C2F200004078FF2840F0D880FFE7BF
:1045E00041F20000C4F201004FF4005132903191C9
:1045F00002F0CCFD4FF400403299309008463099DB
:1046000002F0C4FD40F60040C4F2010002212F90E8
:104610002E9102F0BBFD4FF480502F992D9008464B
:104620002D9902F0B3FD20202F992C9008462C994B
:1046300002F0ACFD4FF4804032992B9008462B9944
:1046400002F0A4FD40F60000C4F2010080212A908F
:1046500002F09CFD01202F9929900846299902F02B
:1046600095FD04202F9928900846289902F08EFD88
:104670002F98309902F08AFD4FF480602A99279094
:104680000846279902F082FD4FF480702F992690FA
:104690000846269902F07AFD4FF400712A9802F03C
:1046A00075FD2A98269902F071FD2F982B9902F03A
:1046B0006DFD2F98319902F069FD2A98299902F031
:1046C00065FD2A982E9902F061FD2A98289902F03A
:1046D0005DFD08212A9802F059FD2A982C9902F0D4
:1046E00055FD40212A9802F051FD10212A9802F030
:1046F0004DFD2F98279902F049FD4FF400602F9946
:1047000025900846259902F041FD2A982D9902F03E
:104710003DFD2A98259902F039FD43F63C40C2F24E
:1047200000000068006844F64811C4F6470188425A
:1047300020D1FFE740F20510C2F2000044F6470125
:10474000C0F60D21C0F83D1044F62001C4F24971B5
:10475000C0F83A1045F24701C4F64971C0F8361066
:1047600044F64141C2F24C01C0F832100F20FDF76F
:1047700097FA0AE040F20510C2F20000AC2180F87E
:1047800032100120FDF78CFAFFE700F0F8BE43F687
:104790003C40C2F20000006848F6D231C0F6000189
:1047A0000322FBF703FD002809D0FFE743F6EB30B7
:1047B000C2F200004078002840F0D780FFE741F2C5
:1047C0000000C4F201004FF400512490239102F044
:1047D000D5FC4FF40040249922900846229902F01B
:1047E000CDFC40F60040C4F201000221219020914E
:1047F00002F0C4FC4FF4805021991F9008461F9985
:1048000002F0BCFC202021991E9008461E9902F05F
:10481000B5FC4FF4804024991D9008461D9902F084
:10482000ADFC40F60000C4F2010080211C9002F0B3
:10483000A5FC012021991B9008461B9902F09EFCC3
:10484000042021991A9008461A9902F097FC2198A1
:10485000229902F093FC4FF480601C99199008464D
:10486000199902F08BFC4FF480702199189008463A
:10487000189902F083FC4FF400711C9802F07EFC42
:104880001C98189902F07AFC21981D9902F076FC88
:104890002198239902F072FC1C981B9902F06EFC7F
:1048A0001C98209902F06AFC1C981A9902F066FC88
:1048B00008211C9802F062FC1C981E9902F05EFC14
:1048C00040211C9802F05AFC10211C9802F056FC62
:1048D0002198199902F052FC4FF400602199179029
:1048E0000846179902F04AFC1C981F9902F046FCF2
:1048F0001C98179902F042FC43F63C40C2F20000BB
:10490000006848F6D231C0F600010322FBF74EFCE6
:1049100000281DD1FFE740F20510C2F2000040F66A
:104920000D21C18744F62041C5F24F71C0F83A10FD
:1049300045F24701C4F64971C0F8361044F64141CA
:10494000C2F24C01C0F832100E20FDF7A9F90AE0BE
:1049500040F20510C2F20000AC2180F832100120B4
:10496000FDF79EF9FFE700F009BE43F63C40C2F2B6
:104970000000006848F6AF31C0F600010622FBF7E0
:1049800015FC002809D0FFE743F6EB30C2F2000027
:104990004078CC2840F0BB81FFE743F63C40C2F2B0
:1049A0000000006848F6AF31C0F600010622FBF7B0
:1049B000FDFB002840F0E180FFE748F67F31C0F6BC
:1049C00000010020FBF700FC43F63C41C2F200016D
:1049D0000860086800F054FF43F6E031C2F20001BD
:1049E00008600878C007002809D0FFE741F20000FE
:1049F000C4F201004FF4804102F0C8FB08E041F22C
:104A00000000C4F201004FF4804102F0B7FBFFE761
:104A100043F6E030C2F2000000684008C0070028FA
:104A200008D0FFE740F60000C4F20100802102F048
:104A3000ADFB07E040F60000C4F20100802102F067
:104A40009DFBFFE743F6E030C2F2000000688008FB
:104A5000C007002808D0FFE740F60040C4F201007C
:104A6000012102F093FB07E040F60040C4F2010090
:104A7000012102F083FBFFE743F6E030C2F20000C1
:104A80000068C008C007002808D0FFE740F60040D3
:104A9000C4F20100042102F079FB07E040F6004077
:104AA000C4F20100042102F069FBFFE743F6E030A5
:104AB000C2F2000000680009C007002809D0FFE723
:104AC00040F60040C4F201004FF4004102F05EFBEA
:104AD00008E040F60040C4F201004FF4004102F04B
:104AE0004DFBFFE743F6E030C2F20000006800092A
:104AF000C007002809D0FFE740F60000C4F201001B
:104B00004FF4806102F042FB08E040F60000C4F27E
:104B100001004FF4806102F031FBFFE743F6E03023
:104B2000C2F2000000680009C007002809D0FFE7B2
:104B300040F60040C4F201004FF4807102F026FB01
:104B400008E040F60040C4F201004FF4807102F02A
:104B500015FBFFE740F20510C2F20000323048F6C4
:104B60002731C0F6000114221692FBF70DFB1699AF
:104B700015900846FDF794F8C7E043F6EB30C2F213
:104B800000008078C007002809D0FFE741F200004C
:104B9000C4F201004FF4804102F0F8FA08E041F25B
:104BA0000000C4F201004FF4804102F0E7FAFFE791
:104BB00043F6EB30C2F2000080784008C0070028BE
:104BC00008D0FFE740F60000C4F20100802102F0A7
:104BD000DDFA07E040F60000C4F20100802102F097
:104BE000CDFAFFE743F6EB30C2F200008078800890
:104BF000C007002808D0FFE740F60040C4F20100DB
:104C0000012102F0C3FA07E040F60040C4F20100BF
:104C1000012102F0B3FAFFE743F6EB30C2F20000E5
:104C20008078C008C007002808D0FFE740F60040A1
:104C3000C4F20100042102F0A9FA07E040F60040A6
:104C4000C4F20100042102F099FAFFE743F6EB30C9
:104C5000C2F2000080780009C007002809D0FFE7F1
:104C600040F60040C4F201004FF4004102F08EFA19
:104C700008E040F60040C4F201004FF4004102F0A9
:104C80007DFAFFE743F6EB30C2F20000807840097E
:104C9000C007002809D0FFE740F60000C4F2010079
:104CA0004FF4806102F072FA08E040F60000C4F2AE
:104CB00001004FF4806102F061FAFFE743F6EB3048
:104CC000C2F2000080788009C007002809D0FFE701
:104CD00040F60040C4F201004FF4807102F056FA31
:104CE00008E040F60040C4F201004FF4807102F089
:104CF00045FAFFE740F20510C2F20000AC2180F84F
:104D000032100120FCF7CCFFFFE700F036BC43F681
:104D10003C40C2F20000006848F6BE31C0F6000117
:104D20000722FBF743FA002808D0FFE743F6EB30F1
:104D3000C2F200004078AA2867D1FFE743F63C4062
:104D4000C2F20000006848F6BE31C0F6000107223A
:104D5000FBF72CFA002829D1FFE748F67F30C0F690
:104D60000000002114900846149A13911146FBF795
:104D70002BFA43F63C41C2F2000108600868129128
:104D800000F0A8FD43F63A41C2F2000108801398F2
:104D90001499FBF719FA12990860086800F09AFD57
:104DA00043F63841C2F20001088016E043F6EB30CA
:104DB000C2F200008178C27842EA012143F63A4209
:104DC000C2F2000211800179407940EA012043F6E5
:104DD0003841C2F200010880FFE743F63A40C2F2D0
:104DE0000000008841F2883188420DDCFFE743F67D
:104DF000E530C2F20000012101701C2001F056F8DC
:104E0000322001F071F8FFE7B6E343F63C40C2F20E
:104E10000000006848F6CE31C0F600010322FBF71F
:104E2000C5F9002808D0FFE743F6EB30C2F20000D6
:104E30004078A02830D1FFE7FBF766FE43F63C4000
:104E4000C2F20000006848F6CE31C0F6000103222D
:104E5000FBF7ACF9002813D1FFE740F20510C2F2CE
:104E60000000323048F63C31C0F6000118221192A1
:104E7000FBF78AF9119910900846FCF711FF0AE038
:104E800040F20510C2F20000AC2180F8321001207F
:104E9000FCF706FFFFE76EE343F63C40C2F200007A
:104EA000006848F6A831C0F600010622FBF77EF93B
:104EB000002808D0FFE743F6EB30C2F2000040784C
:104EC000A42830D1FFE7FCF739F943F63C40C2F2A1
:104ED0000000006848F6A831C0F600010622FBF782
:104EE00065F9002813D1FFE740F20510C2F2000077
:104EF000323048F60731C0F600011F220F92FBF74F
:104F000043F90F990E900846FCF7CAFE0AE040F2FA
:104F10000510C2F20000AC2180F832100120FCF72D
:104F2000BFFEFFE726E343F63C40C2F20000006804
:104F300048F68431C0F600010722FBF737F9002854
:104F400009D0FFE743F6EB30C2F200004078852835
:104F500040F07781FFE7FBF73DFF40F20510C2F21A
:104F60000000002180F8321080F8331041F2000078
:104F7000C4F201004FF400510D9002F007F94FF414
:104F800000400D990C9008460C9902F0FFF840F68D
:104F90000040C4F2010002210B9002F0F7F84FF438
:104FA00080510B9802F0F2F820210B9802F0EEF8F5
:104FB0004FF480400D990A9008460A9902F0E6F8ED
:104FC00040F60000C4F201008021099002F0DEF8F2
:104FD00001210B9802F0DAF804210B9802F0D6F8C0
:104FE0000B980C9902F0D2F84FF48061099802F006
:104FF000CDF84FF480700B9908900846089902F09C
:10500000C5F84FF40071099802F0C0F809980899A2
:1050100002F0BCF80B980A9902F08AF901280BD12A
:10502000FFE740F20510C2F2000090F8321041F0A4
:10503000800180F83210FFE740F60040C4F2010022
:105040004FF4005102F074F901280BD1FFE740F250
:105050000510C2F2000090F8321041F0400180F8D3
:105060003210FFE740F60000C4F20100012102F017
:105070005FF901280BD1FFE740F20510C2F20000F2
:1050800090F8321041F0200180F83210FFE740F62E
:105090000000C4F20100022102F04AF901280BD1FC
:1050A000FFE740F20510C2F2000090F8321041F024
:1050B000100180F83210FFE740F60000C4F2010052
:1050C000042102F035F901280BD1FFE740F2051069
:1050D000C2F2000090F8321041F0080180F832105E
:1050E000FFE740F60000C4F20100082102F020F9B9
:1050F00001280BD1FFE740F20510C2F2000090F842
:10510000321041F0040180F83210FFE740F6000051
:10511000C4F20100202102F00BF901280BD1FFE7B6
:1051200040F20510C2F2000090F8321041F0020186
:1051300080F83210FFE740F60000C4F20100402181
:1051400002F0F6F801280BD1FFE740F20510C2F299
:10515000000090F8321041F0010180F83210FFE7B2
:1051600040F60000C4F20100102102F0E1F801282D
:105170000BD1FFE740F20510C2F2000090F83310A7
:1051800041F0100180F83310FFE740F60040C4F210
:1051900001004FF4806102F0CBF801280BD1FFE74A
:1051A00040F20510C2F2000090F8331041F00801FF
:1051B00080F83310FFE740F60040C4F201004FF4DE
:1051C000006102F0B5F801280BD1FFE740F20510AD
:1051D000C2F2000090F8331041F0040180F833105F
:1051E000FFE740F60000C4F201004FF4805102F0E6
:1051F0009FF801280BD1FFE740F20510C2F2000032
:1052000090F8331041F0020180F83310FFE740F6C8
:105210000000C4F201004FF4006102F089F8012897
:105220000BD1FFE740F20510C2F2000090F83310F6
:1052300041F0010180F83310FFE70220FCF730FD58
:1052400097E143F63C40C2F20000006848F68C311A
:10525000C0F600010722FAF7A9FF002809D0FFE7EE
:1052600043F6EB30C2F200004078582840F08081CD
:10527000FFE7FBF787FE40F20510C2F200000021B5
:1052800080F8321080F8331040F60000C4F20100BC
:105290000121079001F07AFF0221079801F076FFC3
:1052A0000421079801F072FF0821079801F06EFFB2
:1052B0002021079801F06AFF4021079801F066FF5E
:1052C0001021079801F062FF40F60040C4F201008F
:1052D0004FF48061069001F059FF4FF40060069989
:1052E00005900846059901F051FF4FF48051079849
:1052F00001F04CFF0798059901F048FF4FF48041F9
:10530000069801F043FF4FF40051069801F03EFF6C
:105310004FF40071079802F00BF801280BD1FFE75A
:1053200040F20510C2F2000090F8321041F0800106
:1053300080F83210FFE740F60000C4F201004FF49D
:10534000807101F0F5FF01280BD1FFE740F2051055
:10535000C2F2000090F8321041F0400180F83210A3
:10536000FFE741F20000C4F201004FF4005101F0E8
:10537000DFFF01280BD1FFE740F20510C2F2000069
:1053800090F8321041F0200180F83210FFE741F22E
:105390000000C4F201004FF4004101F0C9FF0128F0
:1053A0000BD1FFE740F20510C2F2000090F8321076
:1053B00041F0100180F83210FFE740F60040C4F2DF
:1053C0000100022101F0B4FF01280BD1FFE740F2F8
:1053D0000510C2F2000090F8321041F0080180F888
:1053E0003210FFE740F60040C4F201004FF4805154
:1053F00001F09EFF01280BD1FFE740F20510C2F239
:10540000000090F8321041F0040180F83210FFE7FC
:1054100040F60040C4F20100202101F089FF01287C
:105420000BD1FFE740F20510C2F2000090F83210F5
:1054300041F0020180F83210FFE741F20000C4F2AF
:1054400001004FF4804101F073FF01280BD1FFE709
:1054500040F20510C2F2000090F8321041F0010154
:1054600080F83210FFE740F60000C4F2010080210E
:1054700001F05EFF01280BD1FFE740F20510C2F2F8
:10548000000090F8331041F0200180F83310FFE75E
:1054900040F60040C4F20100012101F049FF01285B
:1054A0000BD1FFE740F20510C2F2000090F8331074
:1054B00041F0100180F83310FFE740F60040C4F2DD
:1054C0000100042101F034FF01280BD1FFE740F275
:1054D0000510C2F2000090F8331041F0080180F886
:1054E0003310FFE740F60040C4F201004FF40041E2
:1054F00001F01EFF01280BD1FFE740F20510C2F2B8
:10550000000090F8331041F0040180F83310FFE7F9
:1055100040F60000C4F201004FF4806101F008FF82
:1055200001280BD1FFE740F20510C2F2000090F80D
:10553000331041F0020180F83310FFE740F60040DD
:10554000C4F201004FF4807101F0F2FE01280BD18A
:10555000FFE740F20510C2F2000090F8331041F06E
:10556000010180F83310FFE70220FCF799FBFFE709
:10557000FFE7FFE7FFE7FFE7FFE7FFE7FFE7FFE7FB
:10558000FFE7E6E043F63C40C2F200000068006836
:1055900044F25511C5F25241884208D0FFE743F664
:1055A000EB30C2F200000078CA2861D1FFE748F66C
:1055B0007F31C0F600010020FAF706FE43F63C41B9
:1055C000C2F2000108600868008844F6545188421D
:1055D00008D0FFE743F6EB30C2F200000078CA289B
:1055E00045D1FFE740F2BD00C2F2000043F23101B5
:1055F000C0F60D21016243F25131C3F23201C161A3
:1056000042F24F01C5F24D01816144F24851C4F6A6
:105610004C4141611020FBF77FFF43F63C40C2F252
:1056200000000068008844F65451884213D1FFE717
:1056300040F20510C2F20000323048F65531C0F693
:10564000000115220492FAF79FFD04990390084681
:10565000FCF726FB0AE040F20510C2F20000AC2184
:1056600080F832100120FCF71BFBFFE7FFE76FE03B
:1056700043F63C40C2F20000006848F6BA31C0F67A
:1056800000010322FAF792FD002808D0FFE743F655
:10569000EB30C2F200000078C52858D1FFE748F689
:1056A0007F31C0F600010020FAF78EFD43F63C4141
:1056B000C2F2000108600868008844F6545188422C
:1056C00008D0FFE743F6EB30C2F200000078C528AF
:1056D0003CD1FFE740F21400C2F200005521A0F8CF
:1056E000A010032180F8A4104D21C1725021017334
:1056F00053214173FAF786FF43F63C40C2F20000A3
:105700000068008844F65451884213D1FFE740F204
:105710000510C2F20000323048F66B31C0F60001CD
:1057200013220292FAF730FD029901900846FCF725
:10573000B7FA0AE040F20510C2F20000AC2180F88E
:1057400032100120FCF7ACFAFFE7FFE7FFE7FFE7C5
:10575000FFE7FFE7FFE7FFE700208DF8DB01FFE74A
:105760009DF8DB0131280FDCFFE79DF8DB0140F2FB
:105770000511C2F2000100220A54FFE79DF8DB0187
:1057800001308DF8DB01EBE79DF8D901002804D04A
:10579000FFE71C2000F0A8FBFFE7FFE777B0BDE8BC
:1057A000F08F000080B59CB0FBF7C8FCFCF790FAC6
:1057B000FBF7CAFEFBF7EEFA4FF4E130169000213A
:1057C00017911891199140F20512C2F2000202F1EC
:1057D00032031A931B9216AB069018460591049259
:1057E000FCF7A4F92020049981F8320001220390EB
:1057F00010460292FCF754FA069810900599119100
:105800001291139140F2BD02C2F2000202F11403A0
:105810001493159210A80192FBF7DAFD03980199F1
:1058200008750298FBF778FE05980C900D900F9084
:1058300009900E9040F2EA01C2F20001CA1D0A92DC
:1058400005310B9109A8FBF79FFE4FF4FA70079002
:1058500005988DF821008DF8200007A8FBF72CFA99
:10586000FAF7A6FF42F6DF60FBF7CCFF0E20FCF74D
:1058700099F840F6B730FCF75DF81CB080BD000029
:1058800083B00290002001908DF80300FFE702989A
:105890009DF80310405C00212F280A46C8BF012252
:1058A0003A28B8BF01210A4211D0FFE70198400011
:1058B000019002989DF80310405C0199084430382B
:1058C00001909DF8030001308DF80300DFE7019897
:1058D00003B0704782B001900020ADF80200ADF82F
:1058E0000000FFE70198BDF80010405C00212F2860
:1058F0000A46C8BF01223A28B8BF01210A4217D080
:10590000FFE7BDF8020000EB80004000ADF80200A8
:105910000198BDF80010405CBDF802100844303812
:10592000ADF80200BDF800000130ADF80000D9E785
:10593000BDF8020002B0704780B582B000900098B8
:105940000138B0F1807F03D3FFE70120019019E017
:10595000009801384EF21401CEF2000108604FF0B9
:10596000FF300F2100F0DAFA4EF21800CEF20000FC
:10597000002101604EF21000CEF20000072202600A
:105980000191FFE7019802B080BD000080B543F6A9
:105990004440C2F2000001680131016000684CF629
:1059A0006311C9F22F6148434FEAF00043F6062124
:1059B000C0F26D01884226D8FFE743F6D130C2F22B
:1059C00000000178B1FA81F14909017000780028DE
:1059D00009D0FFE740F60040C4F201004FF4007127
:1059E00001F0D4FB0EE040F60040C4F201004FF499
:1059F000007101F0C3FB43F64440C2F200000021F5
:105A00000160FFE7FFE7FCF787F980BD80B582B052
:105A10004EF68850CEF20000016841F4700101603A
:105A200041F20000C4F20200016841F0010101608E
:105A300041F20401C4F2020100220A6041F22C0189
:105A4000C4F202010A6001684FF6FF73CEF6F62336
:105A50001940016041F20801C4F202014FF47F03D2
:105A60000B60016821F480210160019202F09AF933
:105A70004FF00060019901F08FFE02B080BD000080
:105A800080B542F60040C4F20100012102F0FCFDA5
:105A9000002808D0FFE742F60040C4F201000121CF
:105AA00002F0E6FDFFE780BD80B582B04FF0804098
:105AB000012102F0E9FD002850D0FFE74FF08040BF
:105AC000012102F0D5FD43F64240C2F20000007809
:105AD000002819D1FFE740F20510C2F20000323071
