:020000040800F2
:1000000050400020650100086D0100086F010008E4
:10001000710100087301000875010008000000006C
:100020000000000000000000000000007701000850
:1000300079010008000000007B010008294B00083E
:100040007F0100087F0100087F0100087F01000890
:100050007F0100087F0100087F0100087F01000880
:100060007F0100087F0100087F0100087F01000870
:100070007F0100087F0100087F0100087F01000860
:100080007F0100087F0100087F0100087F01000850
:100090007F0100087F0100087F0100087F01000840
:1000A0007F0100081D4C00087F0100087F01000847
:1000B000454C00087F0100087F0100087F0100080F
:1000C0007F0100087F0100087F0100087F01000810
:1000D0007F0100087F0100087F0100087F01000800
:1000E0007F0100087F0100087F0100087F010008F0
:1000F0007F0100087F0100087F0100080000000068
:100100007F01000800000000F94E00087F01000890
:100110007F0100087F0100087F0100087F010008BF
:100120007F0100087F0100087F0100087F010008AF
:100130007F01000800000000000000007F010008AF
:100140007F0100087F0100087F0100087F0100088F
:10015000DFF80CD000F028FA00480047C16700081B
:10016000504000200648804706480047FEE7FEE76B
:10017000FEE7FEE7FEE7FEE7FEE7FEE7FEE7FEE757
:10018000A94B00085101000840EA01039B0703D076
:1001900009E008C9121F08C0042AFAD203E011F8C6
:1001A000013B00F8013B521EF9D2704730B50446BE
:1001B0000020034600E05B1C934203D2E05CCD5C70
:1001C000401BF8D030BD000070B50F4D00B9286855
:1001D000002412E00A4602E09E4203D0521C13782B
:1001E000002BF9D1DAB2224305D02BB124B1002182
:1001F00000F8011B04E00446401C0678002EE9D1FB
:100200002860204670BD0000000000202DE9FE4F50
:10021000804681EA0300C00F0C46009021F00041A7
:1002200023F00045B8EB0200A94105D24046214623
:1002300090461C460B46024623F00040104347D030
:10024000270DC7F30A00C3F30A510290401A019028
:1002500040286BDAC3F3130040F4801B00989246E9
:1002600020B10023D2EB030A63EB0B0B0198594634
:10027000C0F14002504600F009F906460D465046CE
:100280005946019A00F021F910EB08006141002461
:1002900087EA115284EAE7731A4340D0009A62B3A6
:1002A000019A012A4FEA075215DC001B61EB02019B
:1002B0004FF0004202EA0752CDE90042001C41F52E
:1002C000801132462B4600F021F903B0BDE8F08FD3
:1002D00040462146F9E7001B61EB0201001C41F595
:1002E000801300185B412018A2F5001747EB0301AB
:1002F00040EAD570B6196D4111E06D084FEA360637
:1003000045EAC0754FEA0752001B61EB0201001C71
:1003100041F5801149084FEA300000195141324639
:100320002B4603B0BDE8F04F00F0E1B80098012281
:1003300040000023D0EB020263EBE07300982146FB
:100340004FEAE074B8EB000061EB0401E9E783F0E9
:1003500000435BE781F0004158E72DE9F04D81EA69
:10036000030404F0004B21F0004514464FF0000A4E
:1003700023F0004150EA050220D054EA01021DD0CA
:10038000C5F30A570246C5F31303C1F31300C1F3C3
:100390000A5640F4801543F48013A7EB0608101B9F
:1003A000D64608F2FD3873EB050002D308F10108C8
:1003B00001E092185B41B8F1000F03DA002001461A
:1003C000BDE8F08D00204FF48011064684460EE013
:1003D000171B73EB050705D3121B63EB05030643DD
:1003E0004CEA010C49084FEA300092185B4150EA90
:1003F0000107EDD152EA030012D082EA040083EA39
:100400000501084305D0101BAB4106D20122002391
:1004100006E000224FF0004302E06FF001025310AB
:100420001AEB06004CEB085110EB0A0041EB0B01F4
:10043000BDE8F04D00F05BB80EB5C10F80EAE0708A
:100440000844CA07002140F233438DE80E000A46F3
:100450000B4600F05BF803B000BDC1F30A5210B5C3
:10046000C1F3130140F2FF3341F480119A4201DAE3
:10047000002010BD40F233439A42A2F2334203DC23
:10048000524200F012F810BD904010BD202A04DB4B
:10049000203A00FA02F1002070479140C2F1200397
:1004A00020FA03F3194390407047202A04DB203AD6
:1004B00021FA02F00021704721FA02F3D040C2F184
:1004C00020029140084319467047202A06DBCB17CB
:1004D000203A41FA02F043EAE07306E041FA02F3FF
:1004E000D040C2F12002914008431946704710B530
:1004F000141E73F1000408DA401C41F10001921847
:100500005B411A4301D120F0010010BD2DE9F04DEF
:1005100092469B4611B1B1FA81F202E0B0FA80F244
:1005200020329046FFF7B2FF04460F4640EA0A0029
:1005300041EA0B0153465A46084313D0114653EA89
:10054000010019D0C8F140025046FFF7AEFF054642
:100550000E46504659464246FFF798FF084305D0DD
:10056000012004E020463946BDE8F08D0020054317
:1005700046EAE0762C4337430A986305E40AA0EB89
:1005800008000022FD0A44EA47540A3002D5002040
:100590000146E9E7010510196941DDE9084500193F
:1005A0006941BDE8F04DA2E7064C074D06E0E06862
:1005B00040F0010394E8070098471034AC42F6D3AA
:1005C000FFF7CAFDC47D0008E47D000880B542F253
:1005D0000040C4F20100012105F060F8FFE70020AF
:1005E000C4F202000021022205F07AFE002801D1A7
:1005F000FFE7F4E70020C4F202000021022205F028
:100600005DFE80BD80B582B001900198B0F8A01069
:1006100001600198002141600198017201984172C6
:10062000019890F8A4108172019946F20040C4F23A
:10063000000005F0E1FA43F6EA31C2F20001087069
:10064000087801460028009108D0FFE700980128AB
:100650000CD0FFE70098022810D017E043F6D43002
:10066000C2F200004FF40071016017E043F6D4308D
:10067000C2F200004FF4027101600FE043F6D43083
:10068000C2F200004FF40471016007E043F6D43079
:10069000C2F200004FF400710160FFE7FFE743F68C
:1006A000D430C2F20000018846F20040C4F20000DB
:1006B00005F052F9012801D1FFE7F0E743F6D43005
:1006C000C2F20000018846F20040C4F2000005F0CA
:1006D0002DF902B080BD000070B582B013468C4683
:1006E00001908DF80310ADF80020BDF8000044F62D
:1006F000D351C1F26201A0FB0101890946F2676290
:10070000C6F2666251FB02FE4FEA9E0404EBDE7EF7
:100710000EEB8E0EA1EB4E013031DDF804E09DF8BA
:1007200003400EF80410BDF8001048F21F5EC5F239
:10073000EB1EA1FB0E1E4FEA5E1E5EFB02F4A50837
:1007400005EBD47404EB8404AEEB440E0EF1300ED2
:10075000019C9DF803502C4484F801E0BDF800E0B2
:100760004CF6CD44CCF6CC44AEFB04E5ED0855FB8D
:1007700002F2960806EBD27202EB8202A5EB42026D
:100780003032019D9DF803603544AA70BDF8002009
:10079000A2FB0445ED0805EB8505A2EB450242F0FE
:1007A0003002019D9DF803603544EA7002B070BDCF
:1007B00080B590B000208DF83E0040F20801C2F2F2
:1007C00000010B9101218DF83D104FF400620C9255
:1007D00042F24C42C4F2010209928DF83C004FF4FF
:1007E00000720A9203220D924FF440530E9300239D
:1007F000C4F202030DF1240C08901846DDF820E045
:100800000791714606926246059305F085FD0598AD
:10081000089905F035FD0598089905F0F5FC4FF4A9
:10082000C02004F05DFE42F20040C4F201004FF42B
:10083000807104900391079A04F050FF02200499FC
:10084000029008460299089A04F048FF0498089913
:1008500004F0AAFD0498089904F00CFF0498079985
:10086000069A04F069FD42F60000C4F2010001900E
:100870000399079A04F032FF01980299089A04F04C
:100880002DFF0198089904F08FFD0198089904F054
:10089000F1FE01980799069A04F04EFD4FF460208E
:1008A0000499009008460799009A04F0EFFD049817
:1008B0000799079A04F0A8FD01980799009A04F097
:1008C000E5FD01980799079A04F09EFD04980899A0
:1008D000089A089B04F014FE04980799029A089B52
:1008E00004F00EFE052204980299089B04F008FE0D
:1008F00001980899079A089B04F002FE019807994D
:10090000069A089B04F0FCFD062201980299089BB8
:1009100004F0F6FD049804F067FD049804F0EEFC82
:10092000019804F061FD019804F0E8FC049804F0DB
:1009300051FD47F20040C4F20000016841F001019E
:10094000016008980899089A05F056FB089805F088
:10095000ADFB10B080BD000080B58EB041F200004C
:10096000C4F2010004214FF400520D900C910C9B35
:100970000B921A460B9B05F0C3FD4FF400400D99F6
:100980000A9008460C990C9A0A9B05F0B9FD40F6AE
:100990000040C4F20100022109900C9A089111460E
:1009A000089B05F0ADFD4FF480500999079008466B
:1009B0000C990C9A079B05F0A3FD2020099906903D
:1009C00008460C990C9A069B05F09AFD4FF480405E
:1009D0000D99059008460C990C9A059B05F090FD21
:1009E00040F60000C4F20100802304900C990C9A98
:1009F00005F086FD01200999039008460C990C9A90
:100A0000039B05F07DFD09980C990C9A0C9B05F051
:100A100077FD09980C990C9A0A9B05F071FD4FF42B
:100A200080600499029008460C990C9A029B05F08C
:100A300067FD4FF480700999019008460C990C9A53
:100A4000019B05F05DFD4FF4007304980C990C9A1E
:100A500005F056FD04980C990C9A019B05F050FD89
:100A600009980C990C9A059B05F04AFD09980C9978
:100A70000C9A0B9B05F044FD04980C990C9A039B6F
:100A800005F03EFD04980C990C9A089B05F038FD82
:100A900004980C990C9A0C9B05F032FD08230498DD
:100AA0000C990C9A05F02CFD04980C990C9A069B55
:100AB00005F026FD402304980C990C9A05F020FDC2
:100AC000102304980C990C9A05F01AFD09980C99BA
:100AD0000C9A029B05F014FD4FF4006009990090F8
:100AE00008460C990C9A009B05F00AFD04980C9995
:100AF0000C9A079B05F004FD04980C990C9A009B36
:100B000005F0FEFC0EB080BD80B58CB00B9040F2BD
:100B1000197006F02DF846F20040C4F20000019072
:100B200004F034FE00208DF821008DF823008DF8AC
:100B300022008DF824008DF81D0004218DF81E1070
:100B400002218DF81F108DF820008DF825000B98DC
:100B500000798DF81C0007A9019804F05DFF0B993E
:100B60000968FA2900910AD0FFE70098B0F5FA7FEA
:100B700005D0FFE70098B0F57A7F0CD1FFE70B981E
:100B800000684FF47A71414346F20040C4F200001D
:100B900004F002FF0AE046F20040C4F200004EF604
:100BA0004801C0F2010104F0F7FEFFE70020ADF8B4
:100BB0001200ADF814000121ADF81610ADF80800D0
:100BC000ADF80A00ADF80C00ADF80E000B984079B6
:100BD000ADF810008DF8181002A804F0F7FD0CB065
:100BE00080BD000080B582B04FF4C06005F0C0FF4A
:100BF00040F2026005F0BCFF40F60000C4F20100C4
:100C0000482103224FF400630190009205F078FC24
:100C100018214FF480530198009A05F071FC02B03E
:100C200080BD000080B592B040F2026005F0A0FFE8
:100C300040F2036005F09CFF40F2046005F098FF6D
:100C400040F2096005F094FF40F20A6005F090FF61
:100C50004FF4A06005F08CFF40F21D7005F088FF96
:100C60004FF4C06005F084FF40F60040C4F201007C
:100C7000102104224FF40073119010910F920E93E3
:100C800005F03EFC40F60000C4F2010028214FF4BC
:100C900000520D900C910F9B0B921A460B9B05F086
:100CA0002FFC4FF480400D990A9008460C990F9A3A
:100CB0000A9B05F025FC4FF400400D990990084669
:100CC0000C990F9A099B05F01BFC082011990890BC
:100CD00008460C990F9A089B05F012FC11980C9984
:100CE0000F9A109B05F00CFC41F20000C4F20100C9
:100CF00007900F990F9A0B9B05F002FC07980F992C
:100D00000F9A099B05F0FCFB0220119906900846FA
:100D10000F990F9A069B05F0F3FB4FF4805311983F
:100D20000F990F9A05F0ECFB2020119905900846C9
:100D30000F990F9A059B05F0E3FB079810990F9AFE
:100D40000A9B05F0DDFB80230D9810990F9A05F0A2
:100D5000D7FB012011990490084610990F9A049B23
:100D600005F0CEFB119810990F9A0F9B05F0C8FB68
:100D7000119810990F9A099B05F0C2FB4FF48063FC
:100D80000D9810990F9A05F0BBFB4FF480701199E4
:100D90000390084610990F9A039B05F0B1FB1820A9
:100DA0000D990290084602990F9A0E9B05F0A8FB38
:100DB0000D9802990F9A039B05F0A2FB11980299D6
:100DC0000F9A0A9B05F09CFB119802990F9A0B9BB6
:100DD00005F096FB00200D990190084601990F9AA5
:100DE000049B05F08DFB0D9801990F9A069B05F069
:100DF00087FB0D9801990F9A0F9B05F081FB0D98C9
:100E000001990F9A089B05F07BFB0D9801990F9AA9
:100E1000059B05F075FB40230D9801990F9A05F08D
:100E20006FFB03220D980199109B05F069FB12B02E
:100E300080BD000080B586B001468DF81700002007
:100E4000C4F202000122022304900391114602928F
:100E50001A4605F033FA0498029905F0B7F99DF89F
:100E600017200498029905F01DFB44F60000C4F217
:100E70000000802106F0F2FD0498029905F0C4F903
:100E8000FFE744F60000C4F20000062106F01CFE55
:100E9000002802D1FFE700BFF3E744F60000C4F2E8
:100EA00000000621019006F0F9FD0021019806F0EE
:100EB000D5FD06B080BD000010B590B00F904FF486
:100EC000A06005F055FE40F2127005F051FE40F2B0
:100ED000065005F04DFE00208DF83A000F99496943
:100EE0000A9101218DF839100B9044F60402C4F2E6
:100EF000000208928DF8380009900C904FF440538E
:100F00000D9340F2000CC4F2020C4FF0020E08AC3C
:100F10000790604606917146059222460493CDF8EB
:100F20000CC0CDF808E0019405F0F6F90398029999
:100F300005F0A6F90398029905F066F906988DF870
:100F40003A000F9909690A918DF8390007990B91B8
:100F5000059A08928DF8381009910C91049B0D9315
:100F600003980699019A05F0D7F90398069905F0B8
:100F700069F90398069905F047F944F60000C4F2B0
:100F80000000009006F0F8FC0F980168009806F049
:100F900075FC0F984168009806F0E2FD0F98C16853
:100FA000009806F049FE0F988168009806F01EFE32
:100FB0000098079906F0C8FC0098079906F0BAFD5A
:100FC0000098079906F0A0FD009806F0EFFD322189
:100FD000009806F0F7FD4021009806F029FD8021D9
:100FE000009806F03BFD0821009806F00FFE042152
:100FF000009806F0C5FD009806F046FD10B010BD43
:1010000080B582B001468DF80700FFE744F6000086
:10101000C4F2000042F2102106F056FD002801D073
:10102000FFE7F3E79DF80700FFF704FF02B080BD7C
:1010300080B582B04FF4C06005F09AFD40F20360C5
:1010400005F096FD40F60040C4F20100182103228D
:101050004FF480630190009205F052FA04214FF49E
:1010600000630198009A05F04BFA02B080BD0000C1
:1010700010B598B0179040F2015005F079FD40F29C
:101080000F7005F075FD00208DF85A0017998968DA
:10109000129101218DF85910139043F60C42C4F2BD
:1010A000000210928DF85800119014904FF44053A4
:1010B000159340F2004CC4F2020C0DF1400E089062
:1010C0006046089C07912146069272460593CDF82A
:1010D00010C0CDF80CE005F01FF90498089905F050
:1010E000CFF80498089905F08FF807988DF85A0002
:1010F0001799496812918DF8590008991391069A29
:1011000010928DF8581011911491059B1593049825
:101110000799039A05F000F943F60040C4F2000075
:10112000029005F0A7FD09A8019005F041FE17986F
:10113000C068099008980A90179909680B910C905B
:10114000179989690D91179949690E91179909693C
:101150000F910298019905F0DDFD029805F01EFE41
:10116000029805F011FE029805F07AFD18B010BD46
:1011700080B584B001468DF80F0040F20040C4F203
:1011800002000022029001911146009205F01EF823
:101190009DF80F200298009905F084F943F600406D
:1011A000C4F20000012105F043FD0298009905F00A
:1011B0002BF804B080BD000080B584B001468DF8E6
:1011C0000F0040F20040C4F202000122029001919F
:1011D0001146009204F0FAFF9DF80F200298009942
:1011E00005F060F943F60040C4F20000002105F06C
:1011F0001FFD0298009905F007F8FFE740F2004054
:10120000C4F202000121022205F06AF8002801D18F
:10121000FFE7F3E740F20040C4F20200012102229E
:1012200005F04CF843F60040C4F20000002105F040
:10123000E7FC04B080BD000080B50220FFF798FFF6
:1012400080BD000080B582B001468DF80700FFE741
:1012500043F60040C4F20000022105F045FD0028DD
:1012600001D1FFE7F4E79DF80700FFF7A5FF02B003
:1012700080BD000080B584B04FF4C06005F078FCFC
:1012800040F2036005F074FC40F2026005F070FC6F
:1012900040F60040C4F201001821032210230390FD
:1012A0000291019205F02CF904202023039900906B
:1012B00008460099019A05F023F90823039800993C
:1012C000019A05F01DF940F60000C4F201004FF448
:1012D00000430299019A05F013F940F20020C0F290
:1012E0003000012105F0ECF904B080BD80B592B06A
:1012F000119011981090119840080F9040F20B60D7
:1013000005F036FC42F60040C4F20100039006F0FE
:10131000D3F810980D900020ADF82C00ADF83800EF
:10132000ADF82E00ADF83000FF218DF83A100BA972
:10133000039A0290104606F0BFF90120ADF8200094
:101340000421ADF822100299ADF82410ADF8261052
:10135000ADF82810ADF82A1008AA039B0190184692
:10136000009205F047FE03980199009A05F042FEAD
:1013700003980299029A06F05BF803980299029A80
:1013800005F0F8FD03980199029A06F051F80398C8
:101390000199029A05F0EEFD0F9A0398029905F063
:1013A000DBFF60220398029905F08EFF03980299F3
:1013B000029A05F0F5FF0F9A0398019905F0CCFF0A
:1013C00070220398019905F07FFF03980199029A12
:1013D00005F0E6FF1520ADF814000298ADF81600F0
:1013E000ADF81000ADF812004FF48041ADF81810C0
:1013F000ADF81A00ADF81C0004A9039805F0A4FD8F
:1014000019200221029A05F0FDF90398019906F0CE
:10141000E9F9039806F046F912B080BD80B58AB0AC
:101420000990099808904FF4E06005F0A1FB4FF097
:101430008040039006F040F8089806900020ADF830
:101440001000ADF81C00ADF81200ADF814008DF8D6
:101450001E0004A9039A0290104606F02DF91C20E4
:1014600001210191029A05F0CDF90398019906F046
:10147000B9F90398019906F0E9F9039805F05AFDC6
:10148000039806F00FF90AB080BD000080B590B057
:101490000F900F980E900F9840080D9040F2037037
:1014A00005F066FB40F60040C4F20000019006F033
:1014B00003F80E980B900020ADF82400ADF8300032
:1014C000ADF82600ADF82800FF208DF8320009A9FC
:1014D000019806F0F1F80121019806F083F9322015
:1014E00003F0B2FE019806F0DDF810B080BD0000F8
:1014F00080B586B001468DF817000020C4F20200C6
:101500000422049003911146029204F05FFE9DF8BC
:1015100017200498029904F0C5FF43F60000C4F2B6
:101520000100402106F084FA0498029904F06CFE50
:10153000FFE70020C4F202000421022204F0D0FEE2
:101540000021002801910DD1FFE743F60000C4F20D
:10155000010042F20B2106F0B7FAB0FA80F0400920
:101560000190FFE70198C007002802D0FFE700BF05
:10157000DFE743F60000C4F2010042F20B210090C5
:1015800006F08CFA0021009806F052FA06B080BDF1
:1015900080B586B00146ADF816000020C4F2020006
:1015A0000322022304900391114602921A4604F08A
:1015B00085FE0498029904F009FEBDF816200498EF
:1015C000029904F06FFF43F60000C4F2010080218D
:1015D00006F044FA0498029904F016FEFFE743F679
:1015E0000000C4F20100062106F06EFA002802D1C4
:1015F000FFE700BFF3E743F60000C4F20100062155
:10160000019006F04BFA0021019806F027FA06B087
:1016100080BD000010B592B011904FF4A06005F0AD
:10162000A7FA40F20E6005F0A3FA40F2065005F06A
:101630009FFA00208DF84200119949690C9101210F
:101640008DF841100D9043F60402C4F201020A9293
:101650008DF840000B900E904FF440530F9340F2E2
:10166000000CC4F2020C4FF0040E0AAC0990604664
:1016700008917146079222460693CDF814C0CDF822
:1016800010E0039404F048FE0598049904F0F8FD76
:101690000598049904F0B8FD08988DF84200119956
:1016A00009690C918DF8410009990D91079A0A92E8
:1016B0008DF840100B910E91069B0F934FF0030C89
:1016C00005986146039ACDF808C004F025FE0598F8
:1016D000029904F0B7FD0598029904F095FD43F6D0
:1016E0000000C4F20100019006F046F9119801686B
:1016F000019806F0C3F811984168019806F030FA95
:101700001198C168019806F097FA119881680198BC
:1017100006F06CFA0198099906F016F901980999F2
:1017200006F008FA0198099906F0EEF914210198DB
:1017300006F048FA019806F039FA4021019806F0BF
:1017400077F98021019806F089F90821019806F0BF
:101750005DFA0198049906F013FA019806F094F9DD
:1017600012B010BD80B5FFE743F60000C4F20100DF
:1017700042F2102106F0A8F9002801D0FFE7F3E7B4
:101780003220FFF7B5FE80BD80B582B00146ADF8CE
:101790000600FFE743F60000C4F2010042F2102108
:1017A00006F092F9002801D0FFE7F3E7BDF8060044
:1017B000FFF7EEFE02B080BD80B582B04FF4C0608E
:1017C00005F0D6F940F2036005F0D2F90420C4F226
:1017D0000100016841F00401016040F60040C4F2DC
:1017E00001001821032240230190009204F088FE9A
:1017F000042180230198009A04F082FE02B080BD8B
:101800002DE9F04FCDB000208DF833018DF8320175
:10181000ADF8300140F20510C2F2000042F243710F
:10182000405C002803F08480FFE740F20510C2F21C
:10183000000042F24371002242541C214B900846A2
:1018400003F002FD43F6EB30C2F2000032224A9070
:101850004B99FEF799FC47F6CD41C0F600014A9A34
:1018600049901046FEF7B0FC43F63C41C2F200013D
:101870000860086847F6ED41C0F600010322FEF754
:1018800095FC002809D0FFE743F6EB30C2F20000D8
:101890000078102840F0B482FFE747F6CD41C0F64B
:1018A00000010020FEF790FC43F63C41C2F200012B
:1018B00008600868008844F64F61884208D0FFE756
:1018C00043F6EB30C2F200004078052850D1FFE724
:1018D00042F60040C4F201000021012248904791E5
:1018E000469205F0A5FD0420489945900846479981
:1018F000459A05F03FFB48984699469A05F098FDB1
:1019000048984699459A05F035FB43F63C40C2F2AB
:1019100000000068008844F64F6188421BD1FFE751
:1019200040F20510C2F2000042F2107145F250720E
:10193000C2F24D024250084445F25241C0F60D2118
:10194000C0F8071045F25341C5F2412141600B2018
:10195000FFF71AFF0BE040F20510C2F2000042F25E
:101960001071AC2242540120FFF70EFFFFE745E261
:1019700043F63C40C2F20000006847F6DA41C0F688
:1019800000010322FEF712FC002808D0FFE743F60F
:10199000EB30C2F2000040780A2850D1FFE742F64F
:1019A0000040C4F20100002144904391439A05F0A5
:1019B0003FFD44984399439A05F0DCFA012044998D
:1019C000429008464299439A05F032FD4498429964
:1019D000439A05F0CFFA43F63C40C2F2000000689B
:1019E00047F6DA41C0F600010322FEF7DFFB0028CC
:1019F00018D1FFE740F20510C2F2000042F2107168
:101A000045F25072C2F24D024250084440F60D2198
:101A1000018145F25341C5F24F0141600A20FFF7B1
:101A2000B3FE0BE040F20510C2F2000042F210716A
:101A3000AC2242540120FFF7A7FEFFE7DDE143F6A9
:101A40003C40C2F200000068006845F24621C5F241
:101A50004511884209D0FFE743F6EB30C2F200009F
:101A60004078FC2840F08880FFE743F63C40C2F213
:101A700000000068006845F24621C5F24511884221
:101A80004AD1FFE747F6CD41C0F600010020FEF73E
:101A90009BFB43F63C41C2F200010860086802F07B
:101AA000E7FFFEF7C9FC41EC100B9FEDED1B51EC7D
:101AB000110B53EC102BFEF750FC41EC100B51ECCA
:101AC000100B9FEDE90B53EC102BFEF79FFB41EC45
:101AD000100B51EC100BFEF7C0FCFFF707FC40F2B7
:101AE0000510C2F2000042F2107145F24622C5F222
:101AF00045124250084440F60D21818145F2414192
:101B0000C4F24541816045F22051C4F25041416028
:101B10000E20FFF739FE2EE043F6EB30C2F2000054
:101B20008078FEF789FC41EC100B9FEDCD1B51EC4A
:101B3000110B53EC102BFEF710FC41EC100B51EC89
:101B4000100B9FEDC90B53EC102BFEF75FFB41EC24
:101B5000100B51EC100BFEF780FCFFF7C7FB40F2B7
:101B60000510C2F2000042F21071AC224254012072
:101B7000FFF70AFEFFE73FE143F63C40C2F20000F8
:101B80000068008845F24441884208D0FFE743F6E8
:101B9000EB30C2F200004078D12860D1FFE743F675
:101BA0003C40C2F200000068008845F2444188428F
:101BB00038D1FFE747F6CD41C0F600010020FEF71F
:101BC00003FB43F63C41C2F20001086042F6444088
:101BD000C4F20100026822F0FF020260096841902D
:101BE000084602F045FFC0B241990A6810430860F8
:101BF00040F20510C2F2000042F2107245F2444376
:101C0000C5F220538350104444F24542C0F60D22E1
:101C1000826044F25042C5F2414242600C20FFF71C
:101C2000B3FD1BE042F64440C4F20100016821F01C
:101C3000FF01016043F6EB31C2F2000189780268CE
:101C40001143016040F20510C2F2000042F210712F
:101C5000AC2242540120FFF797FDFFE7CBE043F6AB
:101C60003C40C2F200000068008844F244318842DF
:101C700009D0FFE743F6EB30C2F200004078DC28E1
:101C800040F0B880FFE743F63C40C2F20000006835
:101C9000008844F2443188426BD1FFE747F6CD41DA
:101CA000C0F600010020FEF78FFA43F63C41C2F275
:101CB0000001086042F62C40C4F2010090ED000AD9
:101CC000B8EE400A0A68409010463F918DED3E0AFA
:101CD00002F0CEFE00EE100AB8EEC00A9FED641AC4
:101CE00080EE010A9DED3E2A22EE000ABCEEC00AFB
:101CF00042F63440C4F2010080ED000A409890EDB5
:101D0000000AB8EE400A3F9908688DED3D1A8DED46
:101D10003C0A02F0ADFE00EE100AB8EEC00A9DEDDE
:101D20003D1A80EE010A9DED3C2A22EE000ABCEE2F
:101D3000C00A42F63840C4F2010080ED000A40F2C9
:101D40000510C2F2000042F2107144F24432C5F2B2
:101D500020524250084444F24541C0F60D218160B2
:101D600044F25041C5F2414141600C20FFF70CFDA7
:101D70003FE042F62C40C4F2010090ED000AB8EEBC
:101D8000400A43F6EB31C2F200018A7801EE102AD4
:101D9000B8EEC11A9FED362A81EE021A20EE010A32
:101DA000BCEEC00A42F63442C4F2010282ED000ADF
:101DB00090ED000AB8EE400A887801EE100AB8EEFD
:101DC000C11A81EE021A20EE010ABCEEC00A42F6E8
:101DD0003840C4F2010080ED000A40F20510C2F262
:101DE000000042F21071AC2242540120FFF7CCFCFB
:101DF000FFE7FFE7FFE7FFE7FFE7FFE702F07CBD54
:101E000043F63C40C2F20000006847F6D641C0F6F7
:101E100000010322FEF7CAF9002809D0FFE743F6C4
:101E2000EB30C2F200000078AD2840F08383FFE77A
:101E300047F6CD41C0F600010020FEF7C5F943F694
:101E40003C41C2F2000108600868006844F2525147
:101E5000C4F24141884216D00CE000BF00BF00BF71
:101E600000000000004CFD40000000000000F0BF3A
:101E70000000C84243F6EB30C2F200004078FD2873
:101E800040F0B981FFE700208DF83301FFE79DF8AE
:101E9000330109282ADCFFE7FEF798FB00208DF8C4
:101EA0003201FFE79DF83201052818DCFFE79DF8B5
:101EB000320140F20801C2F2000131F8101043F67D
:101EC0002042C2F2000252F82030194442F8201099
:101ED000FFE79DF8320101308DF83201E2E7FFE7BC
:101EE0009DF8330101308DF83301D0E743F63C40D3
:101EF000C2F200000068006844F25251C4F241414D
:101F0000884240F0DB80FFE740F20510C2F200009B
:101F100042F2107144F24922C5F255324250421841
:101F200042F23A03938043F6204CC2F2000CDCF8F4
:101F300000E04CF6CD44CCF6CC44AEFB04E5C5F352
:101F4000CF0506263B9010463A91314639922A46F3
:101F50003893CDF8DCC03694CDF8D4E03496FEF753
:101F6000BBFB0D20399988720A22CA720C23339068
:101F7000184632923193FFF707FC44F25610C4F62C
:101F800043403B993A9A88503898399B9880DDF8BD
:101F9000DCC0DCF804E0369CAEFB04E5C5F3CF0200
:101FA00018463499CDF8C0E0FEF796FB339839997E
:101FB0008872329ACA723198FFF7E6FB44F64940BC
:101FC000C2F23A003B993A9A885037988368DDF814
:101FD000D8C0A3FB0C3ECEF3CF02042139982F9337
:101FE000FEF77AFB339839990872329A4A72104692
:101FF000FFF7CAFB44F25450C5F24D003B993A9AA0
:1020000088503898399B9880DDF8DCC0DCF80CE00B
:10201000369CAEFB04E5C5F3CF0218463499CDF8E3
:10202000B8E0FEF759FB339839998872329ACA7230
:102030003198FFF7A9FB44F25610C4F643503B9980
:102040003A9A88503898399B9880DDF8DCC0DCF8E3
:1020500010E0369CAEFB04E5C5F3CF021846349978
:10206000CDF8B4E0FEF738FB339839998872329A8C
:10207000CA723198FFF788FB44F25620C5F25530FA
:102080003B993A9A88503898399B9880DDF8DCC0A3
:10209000DCF814E0369CAEFB04E5C5F3CF0218462D
:1020A0003499CDF8B0E0FEF717FB33983999887270
:1020B000329ACA723198FFF767FB82E043F62040FC
:1020C000C2F2000001684CF6CD42CCF6CC42A1FB36
:1020D0000213DB0A40F2051CC2F2000C42F2107E31
:1020E0000CF80E300CEB0E03D0F800C0ACFB02CEA7
:1020F0004FEADE0E83F801E04FF0200E83F802E095
:102100004468A4FB0245ED0ADD704568A5FB025654
:10211000F6081E7183F805E08668A6FB0267FF0AD1
:102120009F718768A7FB02784FEAD80883F8078079
:1021300083F808E0D0F80C80A8FB02894FEAD9297F
:1021400083F80990D0F80C90A9FB029A4FEADA0ABA
:1021500083F80AA083F80BE0D0F810A0AAFB02AB2A
:102160004FEADB2B83F80CB0D0F810B02B90ABFB10
:1021700002B0C008587383F80EE02B98D0F814E032
:10218000AEFB02E0C00AD8732B984069A0FB0202A4
:10219000D2081A7411222A9010462991CDF8A0C0B5
:1021A0002794269525962497CDF88C80CDF8889095
:1021B000CDF884A0CDF880B0CDF87CE0FFF7E4FA4C
:1021C000FFE700208DF83201FFE79DF83201052876
:1021D00010DCFFE79DF8320143F62041C2F2000116
:1021E000002241F82020FFE79DF8320101308DF8F0
:1021F0003201EAE79CE143F63C40C2F2000000688D
:1022000047F6FD41C0F600010722FDF7CFFF002889
:1022100009D0FFE743F6EB30C2F2000040785A28BD
:1022200040F08581FFE743F63C40C2F200000068C1
:1022300047F6FD41C0F600010722FDF7B7FF002871
:1022400040F0EC80FFE747F6CD41C0F600010020EA
:102250001E90FDF7B9FF43F63C41C2F20001086051
:10226000086802F005FC43F64041C2F20001088014
:102270001E988DF83301FFE79DF8330143F6404186
:10228000C2F200010988884280F2C780FFE7FEF7AA
:102290009DF940F20510C2F2000042F2107144F2C2
:1022A0004922C5F255324250421842F23A03938015
:1022B00040F2080CC2F2000CBCF800E006241D90AD
:1022C00010461C9121461B9272461A93CDF864C0A9
:1022D0001894FEF701FA0D201B9988720A22CA721F
:1022E0000C231790184616921593FFF74DFA44F2F7
:1022F0005610C4F643401D991C9A88501A981B9B8F
:102300009880DDF864C0BCF8022018461899FEF7E2
:10231000E3F917981B998872169ACA721598FFF7F5
:1023200033FA44F64940C2F23A001D991C9A88508B
:102330001998828804211B98FEF7CEF917981B99EB
:102340000872169A4A721046FFF71EFA44F2545069
:10235000C5F24D001D991C9A88501A981B9B9880B5
:10236000DDF864C0BCF8062018461899FEF7B4F9E9
:1023700017981B998872169ACA721598FFF704FA73
:1023800044F25610C4F643501D991C9A88501A986E
:102390001B9B9880DDF864C0BCF80820184618998B
:1023A000FEF79AF917981B998872169ACA721598AF
:1023B000FFF7EAF944F25620C5F255301D991C9AF0
:1023C00088501A981B9B9880DDF864C0BCF80A20DE
:1023D00018461899FEF780F917981B998872169A73
:1023E000CA721598FFF7D0F94FF02D301D991C9A3D
:1023F000885042F62D53C0F60D23DDF86CC0CCF8A2
:102400000830CCF804001598FFF7BEF9FFE79DF8F7
:10241000330101308DF833012EE787E0FEF72AFF04
:1024200043F6EB30C2F200008178C07840EA012028
:1024300043F64041C2F20001088043F6DC30C2F2AC
:10244000000000210180FFE743F6DC30C2F200000B
:10245000008843F64041C2F200010988884232DA1E
:10246000FFE7FEF7B3F840F20800C2F2000041783F
:1024700040F2EA02C2F20002D17101881172C17801
:102480005172418891724179D17281881173C179F9
:102490005173C1889173417AD17301891174C17AE2
:1024A0005174408990740020D074212010750E2042
:1024B000FEF7C8FEFFE743F6DC30C2F200000188F9
:1024C00001310180C0E743F6DC30C2F20000008831
:1024D00043F64041C2F200010988884225DBFFE74C
:1024E00040F60040C4F2010004212023149013910F
:1024F000139A04F005F82820102314991290084626
:102500001299139A03F0FCFF082314981299139A56
:1025100003F0F6FF40F60000C4F201004FF4004360
:102520001299139A03F0ECFFFFE7FFE7FFE7FFE7DD
:1025300002F0E1B943F63C40C2F20000006847F601
:10254000D241C0F600010322FDF730FE002808D07A
:10255000FFE743F6EB30C2F200000078DC2875D1CB
:10256000FFE743F63C40C2F20000006847F6D24164
:10257000C0F600010322FDF719FE002835D1FFE760
:1025800047F6CD41C0F6000100201190FDF71CFE7A
:1025900043F63C41C2F200010860086802F068FAA4
:1025A000119910900846109A03F026FD119803F037
:1025B0007DFD40F20510C2F2000042F2107144F2BB
:1025C0004412C2F24302425008440A21017344F209
:1025D0005451C0F64451816045F25501C4F2441192
:1025E00041600D20FFF7D0F82EE040F2BC00C2F2AF
:1025F00000000121017043F6EB30C2F20000427886
:10260000837843EA022243F6E833C2F200031A80D9
:102610004278807840EA022200200F900F9B0E91B2
:10262000194603F0E9FC0F9803F040FDFEF722FE87
:1026300040F20510C2F2000042F21071AC22425486
:102640000E98FFF7A1F8FFE702F054B943F63C40BB
:10265000C2F200000068006845F24701C4F6497103
:10266000884209D0FFE743F6EB30C2F20000007861
:102670006F2842F05180FFE747F6CD41C0F60001D8
:102680000020FDF7A1FD43F63C41C2F200010860C5
:102690000868006844F25251C4F24141884209D0AE
:1026A000FFE743F6EB30C2F2000040787D2840F0AF
:1026B0000682FFE743F63C40C2F200000068006873
:1026C00044F25251C4F24141884240F04C81FFE74C
:1026D00041F20000C4F201004FF4005103F0DAFFB0
:1026E00001281CD1FFE740F20510C2F2000042F2BF
:1026F000107145F25342C5F24142425008440A214A
:10270000017344F24971C0F64851816043F6452196
:10271000C4F6200141600D20FFF736F819E040F2C1
:102720000510C2F2000042F2107145F25342C5F2A8
:1027300041424250084445F24F71C0F60D2181607C
:1027400043F64521C4F6204141600C20FFF71CF8F8
:10275000FFE741F20000C4F201004FF4004103F032
:1027600099FF01281DD1FFE740F20510C2F20000D9
:1027700042F2107144F64562C4F2412242500844CC
:1027800040F60D21818144F64811C4F6470181606D
:1027900044F24C51C2F23A0141600E20FEF7F4FFC0
:1027A0001BE040F20510C2F2000042F2107144F644
:1027B0004562C4F24122425008440A21017344F6A2
:1027C0004C71C0F65751816044F24C51C2F23A014B
:1027D00041600D20FEF7D8FFFFE740F60040C4F24D
:1027E0000100022103F056FF01281CD1FFE740F24F
:1027F0000510C2F2000042F2107144F25742C4F6D2
:102800005F72425008440A21017344F24971C0F6D4
:102810004851816043F64B21C4F6200141600D20F0
:10282000FEF7B2FF19E040F20510C2F2000042F2DA
:10283000107144F25742C4F65F724250084445F2A8
:102840004F71C0F60D21816043F64B21C4F6204143
:1028500041600C20FEF798FFFFE740F60040C4F20D
:1028600001004FF4805103F015FF01281BD1FFE751
:1028700040F20510C2F2000042F2107144F24F32F1
:10288000C3F650224250084444F64701C0F60D21D9
:10289000C0F8071044F62001C4F2497141600B20D2
:1028A000FEF772FF17E040F20510C2F2000042F29C
:1028B000107144F24F32C3F650224250084440F6A1
:1028C0000D21018144F62041C5F24F7141600A207B
:1028D000FEF75AFFFFE740F60040C4F20100202156
:1028E00003F0D8FE012820D1FFE740F20510C2F224
:1028F000000042F2107145F65312C4F24E324250BB
:10290000084444F64701C0F60D21C0F80B1044F608
:102910002001C4F24971816044F65F11C3F64E2173
:1029200041600E20FEF730FF1CE040F20510C2F2BD
:10293000000042F2107145F65312C4F24E3242507A
:10294000084440F60D21818144F62041C5F24F71C3
:10295000816044F65F11C3F64E2141600D20FEF701
:1029600013FFFFE7A9E040F20510C2F2000042F2B7
:1029700010710022425441F20000C4F201004FF4F1
:10298000005103F087FE01280BD1FFE740F205104C
:10299000C2F2000042F21071425C52000132425415
:1029A00009E040F20510C2F2000042F21071425CF0
:1029B00052004254FFE741F20000C4F201004FF41C
:1029C000004103F067FE01280BD1FFE740F205103C
:1029D000C2F2000042F21071425C520001324254D5
:1029E00009E040F20510C2F2000042F21071425CB0
:1029F00052004254FFE740F60040C4F201000221B9
:102A000003F048FE01280BD1FFE740F20510C2F2A7
:102A1000000042F21071425C52000132425409E05F
:102A200040F20510C2F2000042F21071425C520006
:102A30004254FFE740F60040C4F201004FF48051D9
:102A400003F028FE01280BD1FFE740F20510C2F287
:102A5000000042F21071425C52000132425409E01F
:102A600040F20510C2F2000042F21071425C5200C6
:102A70004254FFE740F60040C4F20100202103F079
:102A800009FE01280BD1FFE740F20510C2F2000059
:102A900042F21071425C52000132425409E040F2AD
:102AA0000510C2F2000042F21071425C5200425422
:102AB000FFE70120FEF768FEFFE701F02CBE43F6BA
:102AC0003C40C2F20000006847F6DE41C0F600015B
:102AD0000722FDF76BFB002809D0FFE743F6EB3038
:102AE000C2F2000040787F2841F0C982FFE7FDF77D
:102AF00033FF43F63C40C2F20000006847F6DE4177
:102B0000C0F600010722FDF751FB002840F037878F
:102B1000FFE741F20000C4F201004FF4005103F05E
:102B2000B9FD01281CD1FFE740F20510C2F20000F8
:102B300042F2107145F25342C5F2414242500844FC
:102B40000A21017344F24971C0F64851816043F68D
:102B50004521C4F6200141600D20FEF715FE19E065
:102B600040F20510C2F2000042F2107145F25342E9
:102B7000C5F241424250084445F24F71C0F60D2162
:102B8000816043F64521C4F6204141600C20FEF7E8
:102B9000FBFDFFE741F20000C4F201004FF4804169
:102BA00003F078FD01281CD1FFE740F20510C2F2C6
:102BB000000042F2107144F64142C5F241224250F7
:102BC00008440A21017344F24971C0F648518160FA
:102BD00043F64D21C4F6200141600D20FEF7D4FDDF
:102BE00019E040F20510C2F2000042F2107144F602
:102BF0004142C5F241224250084445F24F71C0F6AD
:102C00000D21816043F64D21C4F6204141600C2026
:102C1000FEF7BAFDFFE741F20000C4F201004FF4F5
:102C2000004103F037FD01281DD1FFE740F20510F8
:102C3000C2F2000042F2107144F64562C4F2412231
:102C40004250084440F60D21818144F64811C4F6F3
:102C50004701816044F24C51C2F23A0141600E20BA
:102C6000FEF792FD1BE040F20510C2F2000042F2B6
:102C7000107144F64562C4F24122425008440A21D0
:102C8000017344F64C71C0F65751816044F24C51C7
:102C9000C2F23A0141600D20FEF776FDFFE740F6F3
:102CA0000000C4F20100012103F0F4FC01281AD154
:102CB000FFE740F20510C2F2000042F2107144F248
:102CC0004922C5F255324250084444F64701C0F645
:102CD0000D21816042F23A01C4F6481141600C2096
:102CE000FEF752FD1AE040F20510C2F2000042F277
:102CF000107144F24922C5F255324250084445F25F
:102D00004F71C0F60D21C0F8071042F23A01C4F627
:102D10004C7141600B20FEF737FDFFE740F60000E5
:102D2000C4F20100022103F0B5FC01281AD1FFE72B
:102D300040F20510C2F2000042F2107144F2561245
:102D4000C4F643424250084444F64701C0F60D2100
:102D5000816042F23A01C4F6481141600C20FEF74E
:102D600013FD1AE040F20510C2F2000042F21071A9
:102D700044F25612C4F643424250084445F24F71A1
:102D8000C0F60D21C0F8071042F23A01C4F64C71AA
:102D900041600B20FEF7F8FCFFE740F60000C4F2AC
:102DA0000100042103F076FC012818D1FFE740F26E
:102DB0000510C2F2000042F2107144F64942C2F21C
:102DC0003A024250084440F60D21018144F6481170
:102DD000C4F6470141600A20FEF7D6FC16E040F237
:102DE0000510C2F2000042F2107144F64942C2F2EC
:102DF0003A02425008440A21017244F64C71C0F66E
:102E0000575141600920FEF7BFFCFFE740F6000084
:102E1000C4F20100082103F03DFC01281AD1FFE7AC
:102E200040F20510C2F2000042F2107144F2545216
:102E3000C5F24D024250084444F64701C0F60D2148
:102E4000816042F23A01C4F6481141600C20FEF75D
:102E50009BFC1AE040F20510C2F2000042F2107131
:102E600044F25452C5F24D024250084445F24F71AB
:102E7000C0F60D21C0F8071042F23A01C4F64C71B9
:102E800041600B20FEF780FCFFE740F60000C4F233
:102E90000100102103F0FEFB01281DD1FFE740F2E5
:102EA0000510C2F2000042F2107144F24F32C5F632
:102EB00050724250084440F60D21818144F6481179
:102EC000C4F64701816044F65401C2F23A01416000
:102ED0000E20FEF759FC1BE040F20510C2F2000084
:102EE00042F2107144F24F32C5F65072425008441B
:102EF0000A21017344F64C71C0F65751816044F6C3
:102F00005401C2F23A0141600D20FEF73DFCFFE79B
:102F100040F60000C4F20100202103F0BBFB0128B1
:102F20001AD1FFE740F20510C2F2000042F2107120
:102F300044F25612C4F643624250084444F6470134
:102F4000C0F60D21816042F23A01C4F64811416099
:102F50000C20FEF719FC1AE040F20510C2F2000046
:102F600042F2107144F25612C4F6436242500844D1
:102F700045F24F71C0F60D21C0F8071042F23A0138
:102F8000C4F64C7141600B20FEF7FEFBFFE740F6F4
:102F90000000C4F20100402103F07CFB01281AD19B
:102FA000FFE740F20510C2F2000042F2107144F255
:102FB0005622C5F255324250084444F64701C0F645
:102FC0000D21816042F23A01C4F6481141600C20A3
:102FD000FEF7DAFB1AE040F20510C2F2000042F2FE
:102FE000107144F25622C5F255324250084445F25F
:102FF0004F71C0F60D21C0F8071042F23A01C4F635
:103000004C7141600B20FEF7BFFBFFE740F600006C
:10301000C4F20100802103F03DFB01281CD1FFE731
:1030200040F20510C2F2000042F2107144F2525216
:10303000C4F24C12425008440A21017344F249710F
:10304000C0F64851816043F65921C4F62001416021
:103050000D20FEF799FB19E040F20510C2F20000C6
:1030600042F2107144F25252C4F24C1242500844DF
:1030700045F24F71C0F60D21816043F65921C4F627
:10308000204141600C20FEF77FFBFFE740F6004047
:10309000C4F20100012103F0FDFA012818D1FFE775
:1030A00040F20510C2F2000042F2107144F25742A1
:1030B000C2F23A024250084440F60D21018144F622
:1030C0004811C4F6470141600A20FEF75DFB16E097
:1030D00040F20510C2F2000042F2107144F2574271
:1030E000C2F23A02425008440A21017244F64C717D
:1030F000C0F6575141600920FEF746FBFFE740F656
:103100000040C4F20100022103F0C4FA01281CD1DE
:10311000FFE740F20510C2F2000042F2107144F2E3
:103120005742C4F65F72425008440A21017344F2C8
:103130004971C0F64851816043F64B21C4F6200125
:1031400041600D20FEF720FB19E040F20510C2F2AD
:10315000000042F2107144F25742C4F65F724250CE
:10316000084445F24F71C0F60D21816043F64B21B2
:10317000C4F6204141600C20FEF706FBFFE740F655
:103180000040C4F20100042103F084FA01281FD199
:10319000FFE740F20510C2F2000042F2107145F262
:1031A0005532C5F241224250084444F64701C0F668
:1031B0000D21C16042F23A01C4F64811816045F622
:1031C0005471C4F2445141601020FEF7DDFA1FE053
:1031D00040F20510C2F2000042F2107145F2553281
:1031E000C5F241224250084445F24F71C0F60D210C
:1031F000C0F80B1042F23A01C4F64C71816045F6FA
:103200005471C4F2445141600F20FEF7BDFAFFE74C
:1032100040F60040C4F201004FF4806103F03AFA36
:1032200001281FD1FFE740F20510C2F2000042F270
:10323000107145F25532C5F241224250084444F61D
:103240004701C0F60D21C16042F23A01C4F64811AF
:10325000816045F65471C5F6540141601020FEF7B7
:1032600093FA1FE040F20510C2F2000042F2107122
:1032700045F25532C5F241224250084445F24F71A1
:10328000C0F60D21C0F80B1042F23A01C4F64C71A1
:10329000816045F65471C5F6540141600F20FEF778
:1032A00073FAFFE740F60040C4F201004FF40061FA
:1032B00003F0F0F901281FD1FFE740F20510C2F238
:1032C000000042F2107145F25532C5F241224250DF
:1032D000084444F64701C0F60D21C16042F23A01AC
:1032E000C4F64811816045F65471C5F6520141603B
:1032F0001020FEF749FA1FE040F20510C2F200006C
:1033000042F2107145F25532C5F241224250084452
:1033100045F24F71C0F60D21C0F80B1042F23A0190
:10332000C4F64C71816045F65471C5F65201416096
:103330000F20FEF729FAFFE740F60040C4F2010033
:103340004FF4805103F0A6F901281AD1FFE740F2AB
:103350000510C2F2000042F2107144F24F32C3F67F
:1033600050224250084440F64851C0F20A018160A0
:1033700044F62001C4F2497141600C20FEF704FAC2
:1033800017E040F20510C2F2000042F2107144F260
:103390004F32C3F650224250084440F60D2181605E
:1033A00044F62041C5F24F7141600B20FEF7ECF965
:1033B000FFE740F60040C4F201004FF4005103F073
:1033C00069F901281DD1FFE740F20510C2F20000A3
:1033D00042F2107145F25072C5F64D7242500844E7
:1033E00040F60D21818144F64811C4F64701816001
:1033F00044F65301C2F23A0141600E20FEF7C4F9CF
:103400001BE040F20510C2F2000042F2107145F2DA
:103410005072C5F64D72425008440A21017344F6B9
:103420004C71C0F65751816044F65301C2F23A0123
:1034300041600D20FEF7A8F9FFE740F60040C4F216
:1034400001004FF4804103F025F901281DD1FFE769
:1034500040F20510C2F2000042F2107145F25072C3
:10346000C5F64D724250084440F60D21818144F664
:103470004811C4F64701816044F65341C2F23A0153
:1034800041600E20FEF780F91BE040F20510C2F209
:10349000000042F2107145F25072C5F64D72425072
:1034A00008440A21017344F64C71C0F657518160FB
:1034B00044F65341C2F23A0141600D20FEF764F92F
:1034C000FFE740F60040C4F201004FF4004103F072
:1034D000E1F801281AD1FFE740F20510C2F200001E
:1034E00042F2107144F24C52C3F24412425008446A
:1034F00044F64701C0F60D21816042F23A01C4F65C
:10350000481141600C20FEF73FF91AE040F2051027
:10351000C2F2000042F2107144F24C52C3F2441263
:103520004250084445F24F71C0F60D21C0F8071013
:1035300042F23A01C4F64C7141600B20FEF724F9C7
:10354000FFE740F60000C4F201004FF4807103F081
:10355000A1F801281DD1FFE740F20510C2F20000DA
:1035600042F2107145F25072C5F64D724250084455
:1035700040F60D21818144F64811C4F6470181606F
:1035800044F64601C2F23A0141600E20FEF7FCF813
:103590001BE040F20510C2F2000042F2107145F249
:1035A0005072C5F64D72425008440A21017344F628
:1035B0004C71C0F65751816044F64601C2F23A019F
:1035C00041600D20FEF7E0F8FFE740F60000C4F28E
:1035D00001004FF4007103F05DF801281DD1FFE7F1
:1035E00040F20510C2F2000042F2107145F2507232
:1035F000C5F64D724250084440F60D21818144F6D3
:103600004811C4F64701816044F64641C2F23A01CE
:1036100041600E20FEF7B8F81BE040F20510C2F240
:10362000000042F2107145F25072C5F64D724250E0
:1036300008440A21017344F64C71C0F65751816069
:1036400044F64641C2F23A0141600D20FEF79CF873
:10365000FFE740F60040C4F201004FF4005103F0D0
:1036600019F801281DD1FFE740F20510C2F2000051
:1036700042F2107145F25072C5F64D724250084444
:1036800040F60D21818144F64811C4F6470181605E
:1036900044F65301C2F23A0141600E20FEF774F87D
:1036A0001BE040F20510C2F2000042F2107145F238
:1036B0005072C5F64D72425008440A21017344F617
:1036C0004C71C0F65751816044F65301C2F23A0181
:1036D00041600D20FEF758F8FFE740F60000C4F205
:1036E00001004FF4806102F0D5FF01281DD1FFE7F2
:1036F00040F20510C2F2000042F2107145F2507221
:10370000C5F64D724250084440F60D21818144F6C1
:103710004811C4F64701816044F64561C2F23A019E
:1037200041600E20FEF730F81BE040F20510C2F2B7
:10373000000042F2107145F25072C5F64D724250CF
:1037400008440A21017344F64C71C0F65751816058
:1037500044F64561C2F23A0141600D20FEF714F8CB
:10376000FFE740F60000C4F201004FF4006102F0F0
:1037700091FF01281DD1FFE740F20510C2F20000C1
:1037800042F2107144F24312C5F64E7242500844A0
:1037900040F60D21818144F64811C4F6470181604D
:1037A00045F65201C2F23A0141600E20FDF7ECFFEE
:1037B0001BE040F20510C2F2000042F2107144F228
:1037C0004312C5F64E72425008440A21017344F672
:1037D0004C71C0F65751816045F65201C2F23A0170
:1037E00041600D20FDF7D0FFFFE740F60000C4F276
:1037F00001004FF4805102F04DFF01281DD1FFE779
:1038000040F20510C2F2000042F2107144F243127D
:10381000C5F64E724250084440F60D21818144F6AF
:103820004811C4F64701816045F65401C2F23A01DD
:1038300041600E20FDF7A8FF1BE040F20510C2F228
:10384000000042F2107144F24312C5F64E7242502B
:1038500008440A21017344F64C71C0F65751816047
:1038600045F65401C2F23A0141600D20FDF78CFF8C
:10387000FFE740F60040C4F20100202102F00AFFF9
:10388000012820D1FFE740F20510C2F2000042F209
:10389000107145F65312C4F24E324250084444F6B9
:1038A0004701C0F60D21C0F80B1044F62001C4F208
:1038B0004971816044F65F11C3F64E2141600F20CB
:1038C000FDF762FF1CE040F20510C2F2000042F278
:1038D000107145F65312C4F24E324250084440F67D
:1038E0000D21818144F62041C5F24F71816044F67B
:1038F0005F11C3F64E2141600E20FDF745FFFFE743
:1039000040F60040C4F201004FF4807102F0C2FEA4
:1039100001281BD1FFE740F20510C2F2000042F27D
:10392000107144F24612C3F64E224250084444F647
:103930004701C0F60D21C0F8071044F62001C4F27B
:10394000497141600B20FDF71FFF17E040F20510A1
:10395000C2F2000042F2107144F24612C3F64E2247
:103960004250084440F60D21018144F62041C5F241
:103970004F7141600A20FDF707FFFFE776E340F251
:103980000510C2F2000042F21071002242540844B5
:1039900042708270C27041F20000C4F201004FF424
:1039A000005102F077FE01280BD1FFE740F205102D
:1039B000C2F2000042F21071425C520001324254E5
:1039C00009E040F20510C2F2000042F21071425CC0
:1039D00052004254FFE741F20000C4F201004FF4EC
:1039E000804102F057FE01280BD1FFE740F205109D
:1039F000C2F2000042F21071425C520001324254A5
:103A000009E040F20510C2F2000042F21071425C7F
:103A100052004254FFE741F20000C4F201004FF4AB
:103A2000004102F037FE01280BD1FFE740F20510FC
:103A3000C2F2000042F21071425C52000132425464
:103A400009E040F20510C2F2000042F21071425C3F
:103A500052004254FFE740F60000C4F20100012189
:103A600002F018FE01280BD1FFE740F20510C2F268
:103A7000000042F21071425C52000132425409E0EF
:103A800040F20510C2F2000042F21071425C520096
:103A90004254FFE740F60000C4F20100022102F0A8
:103AA000F9FD01280BD1FFE740F20510C2F200003A
:103AB00042F21071425C52000132425409E040F27D
:103AC0000510C2F2000042F21071425C52004254F2
:103AD000FFE740F60000C4F20100042102F0DAFD25
:103AE00001280BD1FFE740F20510C2F2000042F2BC
:103AF0001071425C52000132425409E040F205105C
:103B0000C2F2000042F21071425C52004254FFE7E0
:103B100040F60000C4F20100082102F0BBFD0128BC
:103B20000BD1FFE740F20510C2F2000042F2107123
:103B3000425C52000132425409E040F20510C2F2E8
:103B4000000042F21071425C52004254FFE740F61E
:103B50000000C4F20100102102F09CFD01280BD1ED
:103B6000FFE740F20510C2F2000042F21071425C21
:103B700052000132425409E040F20510C2F2000046
:103B800042F21071425C52004254FFE740F60000DE
:103B9000C4F20100202102F07DFD01280CD1FFE7D5
:103BA00040F20510C2F2000042F210714218405C6F
:103BB00040000130507009E040F20510C2F20000F0
:103BC00042F21171425C52004254FFE740F600009D
:103BD000C4F20100402102F05DFD01280CD1FFE795
:103BE00040F20510C2F2000042F210714218405C2F
:103BF00040000130507009E040F20510C2F20000B0
:103C000042F21171425C52004254FFE740F600005C
:103C1000C4F20100802102F03DFD01280CD1FFE734
:103C200040F20510C2F2000042F210714218405CEE
:103C300040000130507009E040F20510C2F200006F
:103C400042F21171425C52004254FFE740F60040DC
:103C5000C4F20100012102F01DFD01280CD1FFE793
:103C600040F20510C2F2000042F210714218405CAE
:103C700040000130507009E040F20510C2F200002F
:103C800042F21171425C52004254FFE740F600409C
:103C9000C4F20100022102F0FDFC01280CD1FFE773
:103CA00040F20510C2F2000042F210714218405C6E
:103CB00040000130507009E040F20510C2F20000EF
:103CC00042F21171425C52004254FFE740F600405C
:103CD000C4F20100042102F0DDFC01280CD1FFE751
:103CE00040F20510C2F2000042F210714218405C2E
:103CF00040000130507009E040F20510C2F20000AF
:103D000042F21171425C52004254FFE740F600401B
:103D1000C4F201004FF4806102F0BCFC01280CD118
:103D2000FFE740F20510C2F2000042F210714218A3
:103D3000405C40000130507009E040F20510C2F2D2
:103D4000000042F21171425C52004254FFE740F61B
:103D50000040C4F201004FF4006102F09BFC012816
:103D60000CD1FFE740F20510C2F2000042F21071E0
:103D70004218405C40000130507009E040F20510EC
:103D8000C2F2000042F21171425C52004254FFE75D
:103D900040F60040C4F201004FF4805102F07AFC7A
:103DA00001280CD1FFE740F20510C2F2000042F2F8
:103DB00010714218405C40000130907009E040F200
:103DC0000510C2F2000042F21271425C52004254ED
:103DD000FFE740F60040C4F201004FF4005102F04A
:103DE00059FC01280CD1FFE740F20510C2F2000097
:103DF00042F210714218405C40000130907009E0BE
:103E000040F20510C2F2000042F21271425C520010
:103E10004254FFE740F60040C4F201004FF48041F5
:103E200002F038FC01280CD1FFE740F20510C2F285
:103E3000000042F210714218405C40000130907066
:103E400009E040F20510C2F2000042F21271425C39
:103E500052004254FFE740F60040C4F201004FF424
:103E6000004102F017FC01280CD1FFE740F20510D9
:103E7000C2F2000042F210714218405C4000013072
:103E8000907009E040F20510C2F2000042F2127197
:103E9000425C52004254FFE740F60000C4F20100C9
:103EA0004FF4807102F0F6FB01280CD1FFE740F2DD
:103EB0000510C2F2000042F210714218405C40004E
:103EC0000130907009E040F20510C2F2000042F2A9
:103ED0001271425C52004254FFE740F60000C4F207
:103EE00001004FF4007102F0D5FB01280CD1FFE76F
:103EF00040F20510C2F2000042F210714218405C1C
:103F000040000130907009E040F20510C2F200005C
:103F100042F21271425C52004254FFE740F6000048
:103F2000C4F201004FF4806102F0B4FB01280CD10F
:103F3000FFE740F20510C2F2000042F21071421891
:103F4000405C40000130907009E040F20510C2F280
:103F5000000042F21271425C52004254FFE740F608
:103F60000000C4F201004FF4006102F093FB01284D
:103F70000CD1FFE740F20510C2F2000042F21071CE
:103F80004218405C40000130907009E040F205109A
:103F9000C2F2000042F21271425C52004254FFE74A
:103FA00040F60000C4F201004FF4805102F072FBB1
:103FB00001280CD1FFE740F20510C2F2000042F2E6
:103FC00010714218405C40000130D07009E040F2AE
:103FD0000510C2F2000042F21371425C52004254DA
:103FE000FFE740F60040C4F20100202102F052FB3E
:103FF00001280CD1FFE740F20510C2F2000042F2A6
:1040000010714218405C40000130D07009E040F26D
:104010000510C2F2000042F21371425C5200425499
:10402000FFE740F60040C4F201004FF4807102F057
:1040300031FB01280CD1FFE740F20510C2F200006D
:1040400042F210714218405C40000130D07009E02B
:1040500040F20510C2F2000042F21371425C5200BD
:104060004254FFE70420FDF78FFBFFE7FCF7DAFD82
:10407000FDF7A2FBFCF7DCFFFCF7B4FD4AE343F6D7
:104080003C40C2F200000068006844F64811C4F6E3
:104090004701884208D0FFE743F6EB30C2F2000048
:1040A0004078FF2865D1FFE741F20000C4F201002B
:1040B0004FF4804102F01CFA40F60000C4F2010007
:1040C00080210D9002F014FA40F60040C4F2010085
:1040D00001210C9002F00CFA04210C9802F008FA6D
:1040E0004FF400410C9802F003FA4FF480610D98F0
:1040F00002F0FEF94FF480710C9802F0F9F943F6E2
:104100003C40C2F200000068006844F64811C4F662
:104110004701884220D1FFE740F20510C2F20000BB
:1041200042F2107144F64142C2F24C02425008443D
:1041300044F64701C0F60D21C0F80B1044F62001EB
:10414000C4F24971816045F24701C4F6497141608A
:104150000F20FDF719FB0BE040F20510C2F2000042
:1041600042F21071AC2242540120FDF70DFBFFE733
:10417000CFE243F63C40C2F20000006847F605512A
:10418000C0F600010322FCF711F8002808D0FFE771
:1041900043F6EB30C2F200004078002864D1FFE71C
:1041A00041F20000C4F201004FF4804102F098F99E
:1041B00040F60000C4F2010080210B9002F090F95B
:1041C00040F60040C4F2010001210A9002F088F993
:1041D00004210A9802F084F94FF400410A9802F091
:1041E0007FF94FF480610B9802F07AF94FF48071F7
:1041F0000A9802F075F943F63C40C2F200000068EC
:1042000047F60551C0F600010322FBF7CFFF002857
:104210001DD1FFE740F20510C2F2000042F210711A
:1042200044F64142C2F24C024250084440F60D218D
:10423000818144F62041C5F24F71816045F247010A
:10424000C4F6497141600E20FDF79EFA0BE040F282
:104250000510C2F2000042F21071AC22425401205B
:10426000FDF792FAFFE753E243F63C40C2F200004A
:10427000006847F6E641C0F600010622FBF796FF0C
:10428000002809D0FFE743F6EB30C2F20000407887
:10429000CC2840F0BD81FFE743F63C40C2F200006D
:1042A000006847F6E641C0F600010622FBF77EFFF4
:1042B000002840F0E380FFE747F6CD41C0F600015B
:1042C0000020FBF781FF43F63C41C2F20001086089
:1042D000086800F0A3FB43F6E031C2F20001086079
:1042E0000878C007002809D0FFE741F20000C4F2B7
:1042F00001004FF4804102F0FBF808E041F20000B9
:10430000C4F201004FF4804102F0EAF8FFE743F6FF
:10431000E030C2F2000000684008C007002808D062
:10432000FFE740F60000C4F20100802102F0E0F84F
:1043300007E040F60000C4F20100802102F0D0F84E
:10434000FFE743F6E030C2F2000000688008C007D3
:10435000002808D0FFE740F60040C4F20100012128
:1043600002F0C6F807E040F60040C4F20100012167
:1043700002F0B6F8FFE743F6E030C2F20000006852
:10438000C008C007002808D0FFE740F60040C4F28C
:104390000100042102F0ACF807E040F60040C4F24E
:1043A0000100042102F09CF8FFE743F6E030C2F27E
:1043B000000000680009C007002809D0FFE740F6A8
:1043C0000040C4F201004FF4004102F091F808E00F
:1043D00040F60040C4F201004FF4004102F080F8C2
:1043E000FFE743F6E030C2F2000000680009C007B2
:1043F000002809D0FFE740F60000C4F201004FF4A6
:10440000806102F075F808E040F60000C4F2010097
:104410004FF4806102F064F8FFE743F6E030C2F247
:10442000000000680009C007002809D0FFE740F637
:104430000040C4F201004FF4807102F059F808E026
:1044400040F60040C4F201004FF4807102F048F8D9
:10445000FFE740F20510C2F2000042F2107108447A
:1044600047F68E41C0F6000114220992FBF78CFE3C
:10447000099908900846FDF787F9C8E043F6EB3044
:10448000C2F200008078C007002809D0FFE741F29F
:104490000000C4F201004FF4804102F029F808E066
:1044A00041F20000C4F201004FF4804102F018F81C
:1044B000FFE743F6EB30C2F2000080784008C00707
:1044C000002808D0FFE740F60000C4F20100802178
:1044D00002F00EF807E040F60000C4F2010080216F
:1044E00001F0FEFFFFE743F6EB30C2F200008078F8
:1044F0008008C007002808D0FFE740F60040C4F25B
:104500000100012101F0F4FF07E040F60040C4F291
:104510000100012101F0E4FFFFE743F6EB30C2F2B6
:1045200000008078C008C007002808D0FFE740F6E8
:104530000040C4F20100042101F0DAFF07E040F678
:104540000040C4F20100042101F0CAFFFFE743F676
:10455000EB30C2F2000080780009C007002809D0C3
:10456000FFE740F60040C4F201004FF4004101F0C3
:10457000BFFF08E040F60040C4F201004FF40041E4
:1045800001F0AEFFFFE743F6EB30C2F200008078A7
:104590004009C007002809D0FFE740F60000C4F238
:1045A00001004FF4806101F0A3FF08E040F6000035
:1045B000C4F201004FF4806101F092FFFFE743F67F
:1045C000EB30C2F2000080788009C007002809D0D3
:1045D000FFE740F60040C4F201004FF4807101F0A3
:1045E00087FF08E040F60040C4F201004FF48071FC
:1045F00001F076FFFFE740F20510C2F2000042F240
:104600001071AC2242540120FDF7BEF8FFE77EE0B6
:1046100043F63C40C2F20000006847F6F541C0F6A0
:1046200000010722FBF7C2FD002808D0FFE743F690
:10463000EB30C2F200004078AA2867D1FFE743F6CA
:104640003C40C2F20000006847F6F541C0F60001A8
:104650000722FBF7ABFD002829D1FFE747F6CD4045
:10466000C0F60000002107900846079A06911146FF
:10467000FBF7AAFD43F63C41C2F20001086008685E
:10468000059100F0F5F943F63A41C2F200010880C5
:1046900006980799FBF798FD05990860086800F0EF
:1046A000E7F943F63841C2F20001088016E043F60C
:1046B000EB30C2F200008178C27842EA012143F671
:1046C0003A42C2F2000211800179407940EA0120A9
:1046D00043F63841C2F200010880FFE743F63A4052
:1046E000C2F20000008841F2883188420DDCFFE709
:1046F00043F6E530C2F20000012101701C2000F0F9
:10470000A3FD322000F0BEFDFFE7FFE7FFE7FFE774
:10471000FFE7FFE7FFE7ECE043F63C40C2F20000B2
:104720000068006844F25511C5F25241884208D031
:10473000FFE743F6EB30C2F200000078CA2864D1EC
:10474000FFE747F6CD41C0F600010020FBF73CFD36
:1047500043F63C41C2F2000108600868008844F654
:104760005451884208D0FFE743F6EB30C2F2000014
:104770000078CA2848D1FFE740F2BD00C2F200002D
:1047800043F23101C0F60D21016243F25131C3F20F
:104790003201C16142F24F01C5F24D01816144F223
:1047A0004851C4F64C4141611020FCF729FC43F606
:1047B0003C40C2F200000068008844F65451884230
:1047C00015D1FFE740F20510C2F2000042F210716D
:1047D000084447F6A341C0F6000115220492FBF7F6
:1047E000D3FC049903900846FCF7CEFF0BE040F29F
:1047F0000510C2F2000042F21071AC2242540120B6
:10480000FCF7C2FFFFE7FFE772E043F63C40C2F26D
:104810000000006847F6F141C0F600010322FBF7F3
:10482000C5FC002808D0FFE743F6EB30C2F20000D9
:104830000078C5285BD1FFE747F6CD41C0F60001FF
:104840000020FBF7C1FC43F63C41C2F200010860C6
:104850000868008844F65451884208D0FFE743F6C0
:10486000EB30C2F200000078C5283FD1FFE740F2EC
:104870001400C2F200005521A0F8A010032180F816
:10488000A4104D21C1725021017353214173FBF7D4
:10489000B9FE43F63C40C2F200000068008844F6CE
:1048A0005451884215D1FFE740F20510C2F20000D2
:1048B00042F21071084447F6B941C0F600011322D4
:1048C0000292FBF761FC029901900846FCF75CFF3D
:1048D0000BE040F20510C2F2000042F21071AC226F
:1048E00042540120FCF750FFFFE7FFE7FFE7FFE737
:1048F000FFE7FFE7FFE7FFE700208DF83301FFE761
:104900009DF8330131280FDCFFE79DF8330140F2B9
:104910000511C2F2000100220A54FFE79DF833019D
:1049200001308DF83301EBE71C2000F0ABFCFFE712
:104930004DB0BDE8F08F000080B59CB0FCF772F977
:10494000FCF73AFFFCF774FBFCF74CF94FF4E1304D
:104950001690002117911891199140F20512C2F298
:10496000000242F2107302EB030CCDF868C01B92F8
:104970000DF1580C06906046059104920393FCF7E4
:1049800049FE20200499039A885401230290184676
:104990000193FCF7F9FE0698109005991191129178
:1049A000139140F2BD02C2F2000202F1140314930B
:1049B000159210A80092FCF77FFA029800990875EA
:1049C0000198FCF71DFB05980C900D900F90099035
:1049D0000E9040F2EA01C2F20001CA1D0A920531AE
:1049E0000B9109A8FCF744FB4FF4FA700790059867
:1049F0008DF821008DF8200007A8FCF785F8FBF75B
:104A0000D7FE42F6DF60FCF771FC0E20FCF73EFD9E
:104A100040F2AF40FCF702FD1CB080BD83B00290B5
:104A2000002001908DF80300FFE702989DF8031025
:104A3000405C00212F280A46C8BF01223A28B8BF8F
:104A400001210A4211D0FFE701984000019002982D
:104A50009DF80310405C01990844303801909DF89E
:104A6000030001308DF80300DFE7019803B07047C1
:104A700082B001900020ADF80200ADF80000FFE721
:104A80000198BDF80010405C00212F280A46C8BFDD
:104A900001223A28B8BF01210A4217D0FFE7BDF82A
:104AA000020000EB80004000ADF802000198BDF864
:104AB0000010405CBDF8021008443038ADF8020028
:104AC000BDF800000130ADF80000D9E7BDF80200E4
:104AD00002B0704780B582B0009000980138B0F104
:104AE000807F03D3FFE70120019019E0009801388F
:104AF0004EF21401CEF2000108604FF0FF300F219A
:104B000000F0DAFB4EF21800CEF200000021016046
:104B10004EF21000CEF20000072202600191FFE782
:104B2000019802B080BD000080B543F64440C2F257
:104B3000000001680131016000684CF66311C9F2A0
:104B40002F6148434FEAF00043F60621C0F26D01A1
:104B5000884226D8FFE743F6D130C2F20000017840
:104B6000B1FA81F1490901700078002809D0FFE706
:104B700040F60040C4F201004FF4007101F0B8FCAF
:104B80000EE040F60040C4F201004FF4007101F065
:104B9000A7FC43F64440C2F2000000210160FFE799
:104BA000FFE7FCF72DFE80BD80B582B04EF6885041
:104BB000CEF20000016841F47001016041F2000092
:104BC000C4F20200016841F00101016041F20401F8
:104BD000C4F2020100220A6041F22C01C4F2020177
:104BE0000A6001684FF6FF73CEF6F62319400160A4
:104BF00041F20801C4F202014FF47F030B60016827
:104C000021F480210160019202F090F94FF00060E0
:104C1000019901F085FE02B080BD000080B542F62A
:104C20000040C4F20100012102F0F2FD002808D08A
:104C3000FFE742F60040C4F20100012102F0DCFD72
:104C4000FFE780BD80B588B04FF08040012102F0C1
:104C5000DFFD002800F04D81FFE74FF0804001218B
:104C600002F0CAFD43F64240C2F20000007800287C
:104C70001BD1FFE740F20510C2F2000042F21071B2
:104C8000084447F67B41C0F6000112220792FBF769
:104C90007BFA079906900846FCF776FD43F64240FA
:104CA000C2F200000121017017E043F64240C2F257
:104CB0000000007800280FD0FFE740F2BC00C2F2ED
:104CC00000000078002803D0FFE7FCF7B5FA02E007
:104CD000FCF748FDFFE7FFE7FFE740F20510C2F2EF
:104CE0000000007800280CD0FFE740F20510C2F267
:104CF000000042F24371012242541C2000F0A4FA49
:104D0000FFE740F20040C4F202000021022201F05D
:104D1000E7FA01283CD1FFE740F2EA00C2F20000C6
:104D20004079002808D1FFE740F2EA00C2F2000013
:104D3000807900282CD0FFE740F2EA00C2F20000A0
:104D40004079FF2808D1FFE740F2EA00C2F20000F4
:104D50008079FF281CD0FFE740F2EA00C2F2000091
:104D60000121817040F20040C4F2020000220223BF
:104D7000059111461A4601F0A1FA43F60040C4F22B
:104D80000000059901F03CFF1C2000F05DFAFFE7F0
:104D900040F2EA00C2F200008078002800F0A8800B
:104DA000FFE740F2EA00C2F2000000218170407982
:104DB000C7283ED1FFE740F2EA00C2F20000807946
:104DC000C72836D1FFE740F2BC00C2F20000002144
:104DD000017040F60040C4F2010004212023049039
:104DE0000391039A01F08CFB282010230499029070
:104DF00008460299039A01F083FB0823049802995C
:104E0000039A01F07DFB40F60000C4F201004FF46C
:104E100000430299039A01F073FB40F20510C2F2BD
:104E2000000042F21071DC2242540120FCF7ACFC7D
:104E300036E040F2EA00C2F200004079662815D15F
:104E4000FFE740F2EA00C2F20000807966280DD147
:104E5000FFE743F6D830C2F200000188019008460F
:104E6000FCF792FC00200199088018E040F2EA006B
:104E7000C2F20000817943F6D832C2F200021388F0
:104E800040F2051CC2F2000C0CEB43035970407950
:104E900011880CF81100108801301080FFE7FFE73F
:104EA00043F6E630C2F2000000210170FFE743F64E
:104EB000E630C2F200000078012815DCFFE743F677
:104EC000E630C2F20000007840F2EA01C2F20001CE
:104ED000084400214171FFE743F6E630C2F20000CA
:104EE000017801310170E2E71C2000F0CBF9FFE707
:104EF000FFE708B080BD000080B584B040F60040F8
:104F0000C4F20000012102F083FC002800F0998126
:104F1000FFE740F60040C4F20000012102F06CFC03
:104F200043F6E530C2F200000078002800F08881E6
:104F3000FFE743F64840C2F20000018801310180DA
:104F4000008843F63841C2F2000109884FF4FA5252
:104F5000B2FBF1F1884240F3D980FFE743F6DA3043
:104F6000C2F20000008843F63A41C2F2000109880B
:104F7000884280F2CB80FFE743F64840C2F200004F
:104F80000021018041F20000C4F201004FF4005101
:104F900001F080FB01280ED1FFE743F6DA30C2F2C0
:104FA0000000008842F64901C2F200010A5C52008A
:104FB00001320A540CE043F6DA30C2F200000088F5
:104FC00042F64901C2F200010A5C52000A54FFE7AE
:104FD00041F20000C4F201004FF4004101F05AFB1D
:104FE00001280ED1FFE743F6DA30C2F20000008854
:104FF00042F64901C2F200010A5C520001320A5431
:105000000CE043F6DA30C2F20000008842F64901B3
:10501000C2F200010A5C52000A54FFE740F6004069
:10502000C4F20100022101F035FB01280ED1FFE797
:1050300043F6DA30C2F20000008842F64901C2F2BB
:1050400000010A5C520001320A540CE043F6DA30E7
:10505000C2F20000008842F64901C2F200010A5C77
:1050600052000A54FFE740F60040C4F201004FF43A
:10507000805101F00FFB01280ED1FFE743F6DA3033
:10508000C2F20000008842F64901C2F200010A5C47
:10509000520001320A540CE043F6DA30C2F200004A
:1050A000008842F64901C2F200010A5C52000A542B
:1050B000FFE740F60040C4F20100202101F0EAFAC7
:1050C00001280ED1FFE743F6DA30C2F20000008873
:1050D00042F64901C2F200010A5C520001320A5450
:1050E0000CE043F6DA30C2F20000008842F64901D3
:1050F000C2F200010A5C52000A54FFE743F6DA30BC
:10510000C2F2000001880131018098E043F6DA30F4
:10511000C2F20000008843F63A41C2F20001098859
:105120008842C0F28B80FFE743F6DA30C2F200001B
:105130000021018043F6E432C2F200020123137021
:1051400043F6E533C2F20003197011703222039066
:105150001046029100F078F8029803990880FFE762
:1051600043F6DA30C2F20000008843F63A41C2F258
:105170000001098888425DDAFFE743F6E630C2F2B3
:10518000000000210170FFE743F6DA30C2F20000B0
:10519000008843F6E631C2F200010978084443F67C
:1051A0003A41C2F2000109880022884201920BDADA
:1051B000FFE743F6E630C2F2000000780021322813
:1051C000B8BF01210191FFE70198C007002821D055
:1051D000FFE743F6DA30C2F20000008843F6E6311A
:1051E000C2F200010978084442F64901C2F2000106
:1051F000095C40F20512C2F20002104442F2107241
:105200008154FFE743F6E630C2F200000178013135
:105210000170B9E743F6E630C2F200000078FCF70F
:10522000B3FAFFE743F6DA30C2F200000188323108
:10523000018095E71C2000F025F8FFE7FFE7FFE776
:10524000FFE704B080BD000081B001468DF8030087
:105250009DF90300002813D4FFE79DF9030000F037
:105260001F01012202FA01F140094EF28012CEF232
:10527000000242F82010BFF34F8FBFF36F8FFFE79C
:1052800001B0704781B001468DF803009DF903001D
:1052900000280FD4FFE79DF9030000F01F01012251
:1052A00002FA01F140094EF20012CEF2000242F879
:1052B0002010FFE701B0704782B002468DF807006A
:1052C00000919DF9070000280AD4FFE7009800012B
:1052D0009DF907104EF20042CEF2000288540BE016
:1052E000009800019DF8071001F00F014EF61452CE
:1052F000CEF200028854FFE702B0704781B0009000
:105300000098816841F008018160FFE7009880689B
:105310000007002801D5FFE7F8E70098816841F011
:1053200004018160FFE7009880684007002801D5EC
:10533000FFE7F8E701B0704784B00B4603908DF8A3
:105340000B1001929DF80B0001460128009104D03A
:10535000FFE70098022812D023E00398C16A21F4E5
:105360007001C16201980021CFF6F07101EB00508D
:105370003FFA80F00399CA6A1043C86212E00398AA
:10538000816B21F44011816301980021CFF6F07107
:1053900001EB005000F4401003998A6B10438863BE
:1053A00000E0FFE704B0704782B0019000910098E0
:1053B000002806D0FFE70198816841F40061816010
:1053C00005E00198816821F400618160FFE702B087
:1053D0007047000081B000900098816841F48071AE
:1053E000816001B07047000081B000900098806833
:1053F000C007002806D1FFE70098816841F001014D
:105400008160FFE701B0704782B013468C4601907F
:105410008DF803108DF802209DF80200002819D0A5
:10542000FFE79DF80300C007002806D0FFE70198BA
:10543000816841F480118160FFE79DF803008007D7
:10544000002806D5FFE70198816841F4004181609A
:10545000FFE718E09DF80300C007002806D0FFE72B
:105460000198816821F480118160FFE79DF80300B5
:105470008007002806D5FFE70198816821F40041E4
:105480008160FFE7FFE702B07047000084B00B4681
:1054900003908DF80B1001929DF80B000146012836
:1054A000009104D0FFE7009802280BD015E0039884
:1054B000816821F460218160019803998A68104312
:1054C00088600BE00398816821F4E04181600198D5
:1054D00003998A681043886000E0FFE704B07047D2
:1054E00081B0009042F20440C4F20100016821F44E
:1054F00070210160009902681143016001B070479A
:1055000080B585B094468E4604908DF80F108DF8C6
:105510000E2002939DF80F0005281CDCFFE704987D
:10552000406B01909DF80F0000EB80001F2101FAF5
:1055300000F0019921EA000001909DF80E009DF80D
:105540000F1001EB810188400199084301900198F7
:105550000499486348E09DF80F000B281EDCFFE724
:105560000498006B01909DF80F0000EB80001E383E
:105570001F2101FA00F0019921EA000001909DF835
:105580000E009DF80F1001EB81011E398840019932
:105590000843019001980499086324E09DF80F00E6
:1055A0000F281EDCFFE70498C06A01909DF80F00E9
:1055B00000EB80003C381F2101FA00F0019921EA3C
:1055C000000001909DF80E009DF80F1001EB810185
:1055D0003C39884001990843019001980499C862B8
:1055E00000E0FFE7FFE7FFE79DF80E0009281BDC5E
:1055F000FFE70498006900909DF80E0000EB400062
:10560000072101FA00F0009921EA000000900298B9
:105610009DF80E1001EB410188400099084300906D
:1056200000980499086123E09DF80E0011281DDC04
:10563000FFE70498C06800909DF80E0000EB400062
:105640001E38072101FA00F0009921EA00000090BD
:1056500002989DF80E1001EB41011E398840009917
:105660000843009000980499C86000E0FFE7FFE756
:1056700005B080BD82B0019000910198D0F88010F3
:1056800021F44051C0F8801000980199D1F8802091
:105690001043C1F8800002B07047000082B00A4693
:1056A00001908DF803109DF80300C007002806D074
:1056B000FFE70198816841F480018160FFE79DF870
:1056C00003008007002806D5FFE70198816841F4B0
:1056D00000118160FFE702B07047000083B01346FD
:1056E000029001918DF803209DF80300002825D039
:1056F000FFE79DF80500C007002806D0FFE70298E5
:10570000416841F480714160FFE79DF80500400762
:10571000002806D5FFE70298416841F480614160A6
:10572000FFE79DF804008007002806D5FFE70298F0
:10573000816841F002018160FFE724E09DF80500E7
:10574000C007002806D0FFE70298416821F4807165
:105750004160FFE79DF805004007002806D5FFE7F8
:105760000298416821F480614160FFE79DF80400E0
:105770008007002806D5FFE70298816821F0020122
:105780008160FFE7FFE703B07047000080B584B099
:105790000390039846F20041C4F20001884209D107
:1057A000FFE740F21940029001F012FA029801F06E
:1057B000F7F908E040F21A40019001F009FA019867
:1057C00001F0EEF9FFE704B080BD000082B0019067
:1057D0000020009001984089012101FA00F000901A
:1057E00046F20060C4F20000016841F0010101606E
:1057F000009846F21C61C4F200010A6822EA000027
:1058000008600198C089002822D1FFE7009846F27D
:105810000C61C4F200010A6822EA000008600198E5
:10582000C188428842EA0141408946F24062C4F29E
:10583000000242F8301001988188028842EA014152
:10584000408946F24462C4F2000242F83010FFE799
:105850000198C089012821D1FFE7009846F20C6128
:10586000C4F200010A681043086001980188428868
:1058700042EA0141408946F24062C4F2000242F825
:10588000301001988188C28842EA0141408946F27D
:105890004462C4F2000242F83010FFE701988089A8
:1058A00000280AD1FFE7009846F20461C4F2000123
:1058B0000A6822EA0000086008E0009846F20461E5
:1058C000C4F200010A6810430860FFE701980089EC
:1058D00000280AD1FFE7009846F21461C4F20001E3
:1058E0000A6822EA0000086008E0009846F21461A5
:1058F000C4F200010A6810430860FFE70198007CC9
:10590000012809D1FFE7009846F21C61C4F20001AA
:105910000A6810430860FFE746F20060C4F2000026
:10592000016821F00101016002B0704782B00A46AF
:105930000190ADF80210BDF8020000F01F01012334
:1059400003FA01F1019B800953F800C041EA0C0100
:10595000195002B07047000083B00A460190ADF8BC
:1059600002100198BDF8021089094058BDF80210D4
:1059700001F01F01C840C007002804D0FFE7012044
:105980008DF80B0003E000208DF80B00FFE79DF879
:105990000B0003B07047000080B586B005900491FD
:1059A00001208DF80F00049844F24021C0F20F014D
:1059B000884229D8FFE70598012100F069FA0128FB
:1059C00012D1FFE70598C0690290029800F04040AC
:1059D0000290029804990190084600F081FB019919
:1059E00008430599C86103E000208DF80F00FFE728
:1059F0000598022100F04CFA012804D0FFE70020AE
:105A00008DF80F00FFE703E000208DF80F00FFE79F
:105A10009DF80F0006B080BD80B586B0059004915A
:105A20004FF6FF70039000208DF80B000598016879
:105A300021F0020101600598016841F00101016057
:105A4000FFE7059840680021C0070028019106D1B2
:105A5000FFE70398002818BF01200190FFE7019895
:105A6000C007002804D0FFE7039801380390E8E757
:105A700005984068C007002804D1FFE700208DF892
:105A80000B00B4E0049801784278837890F803C062
:105A90004FF0F85E0EEA026242EA81711A0442EAAD
:105AA000831241F60043C0F20F031A4011444FEA3B
:105AB0000C5242EA8C2246F20003C0F270031A40F4
:105AC0001144408901386FF39F2008440599C8614B
:105AD00004980079012806D1FFE70598016841F094
