:020000040800F2
:1000000050400020650100086D0100086F010008E4
:10001000710100087301000875010008000000006C
:100020000000000000000000000000007701000850
:1000300079010008000000007B010008554200081B
:100040007F0100087F0100087F0100087F01000890
:100050007F0100087F0100087F0100087F01000880
:100060007F0100087F0100087F0100087F01000870
:100070007F0100087F0100087F0100087F01000860
:100080007F0100087F0100087F0100087F01000850
:100090007F0100087F0100087F0100087F01000840
:1000A0007F010008E94300087F0100087F01000884
:1000B0000D4400087F010008C94400087F010008C2
:1000C0007F0100087F0100087F0100087F01000810
:1000D0007F0100087F0100087F0100087F01000800
:1000E0009B0600087F0100087F0100087F010008CF
:1000F0007F0100087F0100087F0100080000000068
:100100007F01000800000000ED4400087F010008A6
:100110007F0100087F0100087F0100087F010008BF
:100120007F0100087F0100087F0100087F010008AF
:100130007F01000800000000000000007F010008AF
:100140007F0100087F0100087F0100087F0100088F
:10015000DFF80CD000F048FA004800476951000869
:10016000504000200648804706480047FEE7FEE76B
:10017000FEE7FEE7FEE7FEE7FEE7FEE7FEE7FEE757
:10018000B54200085101000840EA01039B0703D073
:1001900009E008C9121F08C0042AFAD203E011F8C6
:1001A000013B00F8013B521EF9D27047D2B201E088
:1001B00000F8012B491EFBD270470022F6E710B56C
:1001C00013460A4604461946FFF7F0FF204610BDC5
:1001D00030B504460020034600E05B1C934203D286
:1001E000E05CCD5C401BF8D030BD000070B50F4D19
:1001F00000B92868002412E00A4602E09E4203D0BB
:10020000521C1378002BF9D1DAB2224305D02BB15E
:1002100024B1002100F8011B04E00446401C0678CC
:10022000002EE9D12860204670BD000000000020AB
:100230002DE9FE4F804681EA0300C00F0C46009076
:1002400021F0004123F00045B8EB0200A94105D29E
:100250004046214690461C460B46024623F000408D
:10026000104347D0270DC7F30A00C3F30A51029089
:10027000401A019040286BDAC3F3130040F4801B4E
:100280000098924620B10023D2EB030A63EB0B0BDC
:1002900001985946C0F14002504600F016F9064652
:1002A0000D4650465946019A00F02EF910EB080011
:1002B0006141002487EA115284EAE7731A4340D06F
:1002C000009A62B3019A012A4FEA075215DC001B1B
:1002D00061EB02014FF0004202EA0752CDE9004211
:1002E000001C41F5801132462B4600F02EF903B078
:1002F000BDE8F08F40462146F9E7001B61EB0201A3
:10030000001C41F5801300185B412018A2F500176E
:1003100047EB030140EAD570B6196D4111E06D0855
:100320004FEA360645EAC0754FEA0752001B61EBFB
:100330000201001C41F5801149084FEA3000001904
:10034000514132462B4603B0BDE8F04F00F0EEB805
:100350000098012240000023D0EB020263EBE0731F
:10036000009821464FEAE074B8EB000061EB04010D
:10037000E9E783F000435BE781F0004158E72DE9AE
:10038000F04D81EA030404F0004B21F000451446CF
:100390004FF0000A23F0004150EA050220D054EA51
:1003A00001021DD0C5F30A570246C5F31303C1F37A
:1003B0001300C1F30A5640F4801543F48013A7EBF1
:1003C0000608101BD64608F2FD3873EB050002D371
:1003D00008F1010801E092185B41B8F1000F03DA5F
:1003E00000200146BDE8F08D00204FF48011064644
:1003F00084460EE0171B73EB050705D3121B63EB56
:10040000050306434CEA010C49084FEA30009218F4
:100410005B4150EA0107EDD152EA030012D082EAB3
:10042000040083EA0501084305D0101BAB4106D246
:100430000122002306E000224FF0004302E06FF0AB
:10044000010253101AEB06004CEB085110EB0A00A6
:1004500041EB0B01BDE8F04D00F068B80EB5C10FDF
:1004600080EAE0700844CA07002140F233438DE877
:100470000E000A460B4600F068F803B000BD0EB54A
:1004800040F2334102910021CDE900110A460B46AA
:1004900000F05BF803B000BDC1F30A5210B5C1F320
:1004A000130140F2FF3341F480119A4201DA002037
:1004B00010BD40F233439A42A2F2334203DC52426F
:1004C00000F012F810BD904010BD202A04DB203A45
:1004D00000FA02F1002070479140C2F1200320FA97
:1004E00003F3194390407047202A04DB203A21FA95
:1004F00002F00021704721FA02F3D040C2F120023D
:100500009140084319467047202A06DBCB17203A52
:1005100041FA02F043EAE07306E041FA02F3D04008
:10052000C2F12002914008431946704710B5141ECD
:1005300073F1000408DA401C41F1000192185B419C
:100540001A4301D120F0010010BD2DE9F04D924673
:100550009B4611B1B1FA81F202E0B0FA80F220328A
:100560009046FFF7B2FF04460F4640EA0A0041EA10
:100570000B0153465A46084313D0114653EA010073
:1005800019D0C8F140025046FFF7AEFF05460E46AF
:10059000504659464246FFF798FF084305D00120D0
:1005A00004E020463946BDE8F08D0020054346EAC8
:1005B000E0762C4337430A986305E40AA0EB080071
:1005C0000022FD0A44EA47540A3002D500200146C1
:1005D000E9E7010510196941DDE90845001969419C
:1005E000BDE8F04DA2E70000064C074D06E0E068CC
:1005F00040F0010394E8070098471034AC42F6D36A
:10060000FFF7AAFDEC6600080C67000810B500248F
:10061000C4F20204A4F55C40012104F02CF900BFEF
:1006200020460021022204F0F6FB0028F8D02046E4
:1006300000210222BDE8104004F0E6BBB0B501463F
:10064000B0F8A0000022C1E9000246F2004491F88F
:10065000A400C4F200040A818872204604F07EFAE5
:1006600043F6EE31C2F2000143F6D83508704FF47C
:100670000071C2F20005022898BF01EBC001296099
:1006800089B2204604F0A4F929680128F8D089B27B
:100690002046BDE8B04004F090B980B54FF400406A
:1006A00004F07AFCB8B1FFF7B1FF40F20800C2F2E3
:1006B0000000008840F2ED0100BAC2F20001000C17
:1006C000A1F80700022000F042FF4FF40040BDE80F
:1006D000804004F05BBC80BDB0B588B000208DF8D0
:1006E0001E0040F20800C2F2000042F6000403902F
:1006F0004FF40060C4F201040490A4F56D70019001
:100700004FF48070ADF81C004FF40070029001208F
:10071000002505904FF44050C4F20205069001AA4E
:100720002846002104F080FB2846002104F05AFBF3
:100730002846002104F032FB002004F032F842F297
:100740000045C4F2010528464FF48071012204F0EF
:10075000A0F828460221002204F09BF82846002138
:1007600003F0DBFF2846002104F079F82846012138
:10077000012203F0B5FF20464FF48071012204F0FE
:1007800088F820460221002204F083F82046002148
:1007900003F0C3FF2046002104F061F82046012148
:1007A000002203F09DFF284601214FF4602203F050
:1007B000E7FF28460121012203F0C6FF2046012160
:1007C0004FF4602203F0DCFF20460121012203F0F8
:1007D000BBFF284600210022022303F0EEFF28463B
:1007E00003F0A9FF284603F06BFF204603F0A3FFA8
:1007F000204603F065FF284603F098FF45F200000D
:10080000CFF6FF702958002241F001012950002045
:10081000002104F02FFA002004F06AFA08B0B0BDFD
:1008200010B588B000208DF81E0040F20800C2F21A
:10083000000003904FF40060049042F24C40C4F278
:10084000010001904FF48070ADF81C004FF400706F
:1008500002900120002405904FF44050C4F202049D
:10086000069001AA2046002104F0DEFA204600216D
:1008700004F0B8FA2046002104F090FA4FF4C020AA
:1008800003F08FFF42F20044C4F2010420464FF40B
:100890008071012203F0FDFF20460221002203F0B7
:1008A000F8FF2046002103F038FF2046002103F026
:1008B000D6FF20460121012203F012FF204601212C
:1008C0004FF4602203F05CFF20460121012203F077
:1008D0003BFF204600210022022303F06EFF20464A
:1008E00003F029FF204603F0EBFE204603F01EFF35
:1008F00045F20000CFF6FF702158002241F00101BF
:1009000021500020002104F0B5F9002004F0F0F996
:1009100008B010BD70B540F60004C4F2010404F53F
:1009200000663046042104224FF4005304F08AFB91
:100930003046042104224FF4004304F083FB04F505
:100940008065284604210422022304F07BFB28460C
:10095000042104224FF4805304F074FB2846042140
:100960000422202304F06EFB3046042104224FF4BD
:10097000804304F067FB204604210422802304F016
:1009800061FB284604210422012304F05BFB284676
:1009900004210422042304F055FB284604210422E8
:1009A0004FF4004304F04EFB2046042104224FF490
:1009B000806304F047FB2846042104224FF480732F
:1009C00004F040FB2046042104224FF4007304F09D
:1009D00039FB2046042104224FF4807304F032FBDB
:1009E0002846042104224FF4804304F02BFB2846C0
:1009F000042104224FF4005304F024FB2046042178
:100A00000422012304F01EFB2046042104220223B9
:100A100004F018FB204604210422042304F012FBF6
:100A2000204604210422082304F00CFB2046042164
:100A30000422202304F006FB204604210422402344
:100A400004F000FB204604210422102304F0FAFAEB
:100A50002846042104224FF4806304F0F3FA284668
:100A6000042104224FF4006304F0ECFA2046042130
:100A700004224FF4805304F0E5FA204604210422B6
:100A80004FF40063BDE8704004F0DCBA70B540F686
:100A90000004C4F2010404F500663046102104226B
:100AA0004FF4005304F0CEFA3046102104224FF4E4
:100AB000004304F0C7FA04F580652846102104229B
:100AC000022304F0BFFA2846102104224FF4805379
:100AD00004F0B8FA284610210422202304F0B2FAC8
:100AE0003046102104224FF4804304F0ABFA204634
:100AF00010210422802304F0A5FA284610210422A4
:100B0000012304F09FFA284610210422042304F054
:100B100099FA2846102104224FF4004304F092FA77
:100B20002046102104224FF4806304F08BFA2846FB
:100B3000102104224FF4807304F084FA204610211F
:100B400004224FF4007304F07DFA204610210422A1
:100B50004FF4807304F076FA2846102104224FF4F3
:100B6000804304F06FFA2846102104224FF400530A
:100B700004F068FA204610210422012304F062FAEE
:100B8000204610210422022304F05CFA20461021A2
:100B90000422042304F056FA2046102104220823DC
:100BA00004F050FA204610210422202304F04AFACF
:100BB000204610210422402304F044FA204610214C
:100BC0000422102304F03EFA2846102104224FF498
:100BD000806304F037FA2846102104224FF40063A2
:100BE00004F030FA2046102104224FF4805304F020
:100BF00029FA2046102104224FF4006304F022FA5F
:100C0000284610210422082304F01CFA284610214B
:100C10000422102304F016FA2046102104224FF477
:100C20000043BDE8704004F00DBAB0B588B004468A
:100C300046F2004540F21970C4F2000504F074FE5B
:100C4000284603F04EFE4FF40130CDF81500002089
:100C5000CDF8190021798DF81D008DF8141005A923
:100C6000284603F0F9FE2068FA2818BFB0F57A7F0D
:100C700017D14FF47A714143284603F0B1FE0020AA
:100C8000CDF80A00CDE9000060790121ADF80E1021
:100C9000ADF8080068468DF8101003F035FE08B076
:100CA000B0BDB0F5FA7FE4D04EF64801C0F20101C4
:100CB000E2E710B54FF4C06004F036FE40F2026087
:100CC00004F032FE40F60004C4F20104204648213C
:100CD00003224FF4006304F0B5F9204618210322E3
:100CE0004FF48053BDE8104004F0ACB980B541F238
:100CF0000000C4F201001C2104224FF4004304F060
:100D0000A1F902200F2104F05BF94FF4004000210B
:100D1000002204F0EAF84FF4004004F02FF92820F4
:100D200001210022BDE8804004F0FFBC70B540F610
:100D30000005C4F2010505F5806420460421042263
:100D40004FF4804304F07EF92046042104224FF43E
:100D5000005304F077F9284604210422042304F008
:100D600071F9284604210422082304F06BF928466F
:100D700004210422402304F065F9284604210422BA
:100D8000012304F05FF9284604210422202304F003
:100D900059F9284604210422022304F053F9284675
:100DA000042104224FF4004304F04CF920460421AE
:100DB00004224FF4806304F045F920460421042204
:100DC0004FF4006304F03EF92846042104224FF456
:100DD000805304F037F92846042104224FF40063BD
:100DE00004F030F9284604210422102304F02AF9E3
:100DF000204604210422082304F024F92846102167
:100E000004224FF4007304F01DF928461021042237
:100E10004FF4807304F016F92046102104220223B7
:100E200004F010F92046102104224FF4805304F0FE
:100E300009F905F500663046102104224FF480437D
:100E400004F000F93046102104224FF4005304F05E
:100E5000F9F8204610210422202304F0F3F830464C
:100E6000102104224FF4004304F0ECF82046102136
:100E700004224FF4807304F0E5F828461021042280
:100E8000802304F0DFF8204610210422012304F01F
:100E9000D9F8204610210422042304F0D3F8204678
:100EA000102104224FF4004304F0CCF8284610210E
:100EB00004224FF4806304F0C5F820461021042278
:100EC000102304F0BFF840F20020C0F230000121EE
:100ED000BDE8704004F012B970B540F60004C4F2E9
:100EE00001042046042104224FF4007304F0AAF800
:100EF0002046042104224FF4807304F0A3F804F583
:100F00008065284604210422022304F09BF8284629
:100F1000042104224FF4805304F094F804F5006691
:100F20003046042104224FF4804304F08BF830460D
:100F3000042104224FF4005304F084F828460421CD
:100F40000422202304F07EF83046042104224FF4CA
:100F5000004304F077F82846042104224FF48073FC
:100F600004F070F8204604210422802304F06AF87B
:100F7000284604210422012304F064F828460421B1
:100F80000422042304F05EF82846042104224FF4CE
:100F9000004304F057F82046042104224FF48063F4
:100FA00004F050F8284604210422102304F04AF8E3
:100FB0002846102104224FF4804304F043F82846C9
:100FC000102104224FF4005304F03CF82046102175
:100FD0000422042304F036F82046102104220823BA
:100FE00004F030F8204610210422402304F02AF8AF
:100FF000204610210422012304F024F82046102169
:101000000422202304F01EF820461021042202238B
:1010100004F018F82046102104224FF4004304F095
:1010200011F82846102104224FF4806304F00AF8D6
:101030002846102104224FF4006304F003F82046F0
:10104000102104224FF4805303F0FCFF20461021AE
:1010500004224FF4006303F0F5FF20461021042220
:10106000102303F0EFFF284610210422082303F089
:10107000E9FF40F20020C0F230000121BDE87040DD
:1010800004F03CB870B540F2026004F04DFC40F250
:10109000036004F049FC40F2046004F045FC40F2B7
:1010A000096004F041FC40F20A6004F03DFC0120BC
:1010B00004F07AFB4FF4A06004F036FC40F21D709F
:1010C00004F032FC4FF4C06004F02EFC40F6000443
:1010D000C4F2010404F580652846102104224FF46F
:1010E000807303F0AFFF28464FF4807103F066FF72
:1010F00004F500663046102104224FF4804303F0CB
:10110000A1FF204610210422802303F09BFF2846E4
:1011100010210422012303F095FF28461021042208
:10112000042303F08FFF2846102104224FF40043CC
:1011300003F088FF2046102104224FF4806303F05F
:1011400081FF3046042104224FF4005303F07AFF5C
:101150003046042104224FF4004303F073FF284675
:1011600004210422022303F06DFF284604210422F7
:101170004FF4805303F066FF284604210422202305
:1011800003F060FF2846102104224FF4007303F09F
:1011900059FF2046282104224FF4005303F052FF48
:1011A0002046282104224FF4804303F04BFF2046C1
:1011B000282104224FF4004303F044FF284628214D
:1011C0000422082303F03EFF28462821042210238E
:1011D00003F038FF40F20020C0F23000012103F09C
:1011E0008DFF2046182104224FF4007303F02AFFDC
:1011F0002046182104224FF4807303F023FF284671
:10120000182104224FF4804303F01CFF28461821C4
:1012100004224FF4005303F015FF2046002104225E
:10122000012303F00FFF204600210422022303F0D4
:1012300009FF204600210422042303F003FF204677
:1012400000210422082303F0FDFE20460021042291
:10125000202303F0F7FE204600210422402303F060
:10126000F1FE2046002104221023BDE8704003F067
:10127000E9BE000070B544F60004C4F2000404F5B1
:10128000DC36054630460121022203F0BDFD304622
:10129000012103F071FD304601212A4603F006FECC
:1012A0002046802104F015FF3046012103F076FD31
:1012B0002046062104F024FF08B900BFF8E72046C5
:1012C000062104F011FF20460021BDE8704004F023
:1012D00000BF2DE9F04F87B005464FF4A06004F041
:1012E00023FB40F2127004F01FFB40F2065004F0A2
:1012F0001BFB44F600046869C4F20004002704F5EF
:10130000DC36E8468DF81A70CDE9020704F10409CD
:101310004FF4807A4FF4805B304602214246CDF88C
:101320000090ADF818A001970497CDF814B003F021
:101330007BFD3046022103F055FD3046022103F0CB
:101340002DFD296901208DF81A00CDE902173046DC
:1013500001214246CDF80090ADF818A00197CDE9E3
:10136000047B03F061FD3046012103F029FD304686
:10137000012103F013FD204604F068FE2968204691
:1013800004F027FE6968204604F0CEFEE968204696
:1013900004F0F9FEA968204604F0E7FE204600218B
:1013A00004F04CFE2046002104F0B8FE2046002147
:1013B00004F0AEFE204604F0C5FE2046322104F0C3
:1013C000C8FE2046402104F07EFE2046802104F025
:1013D00080FE2046082104F0D0FE2046042104F0BF
:1013E000ABFE204604F07BFE07B0BDE8F08F0000A6
:1013F000B0B544F600050446C4F20005284642F2A2
:10140000102104F07DFE0028F8D12046BDE8B04050
:10141000FFF730BF10B54FF4C06004F085FA40F21A
:10142000036004F081FA40F60044C4F2010420464F
:10143000182103224FF4806303F004FE20460421A8
:1014400003224FF40063BDE8104003F0FBBD2DE91B
:10145000F04F8FB0054640F2015004F065FA40F2BB
:101460000F7004F061FA43F60049A868C4F200095D
:10147000002709F5E4360DF120088DF83A70CDE922
:101480000A0709F10C044FF4807A4FF4405B3046B0
:10149000002142460894ADF838A009970C97CDF882
:1014A00034B003F0C1FC3046002103F09BFC304611
:1014B000002103F073FC696801208DF83A00CDE942
:1014C0000A173046012142460894ADF838A0099722
:1014D000CDE90C7B03F0A8FC484604F06CFA01AEA1
:1014E000304604F0B5FA28680C352ECDCDE9011749
:1014F000CDE9030748463146CDE90553079204F08C
:1015000083FA484604F09FFA484604F097FA4846A2
:1015100004F04CFA0FB0BDE8F08FB0B540F20045D2
:10152000C4F2020504462846002103F025FC2846A3
:101530000021224603F0BAFCA5F5E430012104F0B5
:101540002CFA28460021BDE8B04003F027BCB0B516
:1015500040F20045C4F2020504462846012103F08A
:101560000BFC28460121224603F0A0FCA5F5E4303F
:10157000002104F012FA28460121BDE8B04003F032
:101580000DBC0000B0B540F20044C4F202040546B0
:101590002046012103F0F0FB204601212A4603F0FA
:1015A00085FCA4F5E4352846002104F0F6F9204630
:1015B000012103F0F3FB00BF20460121022203F0CA
:1015C0002AFC0028F8D020460121022203F01CFC4E
:1015D00028460021BDE8B04004F0D4B90220FFF74E
:1015E0009CBF0000B0B543F600450446C4F20005B8
:1015F0002846022104F003FA0028F9D02046BDE86D
:10160000B040FFF7BFBF10B54FF4C06004F08CF9D5
:1016100040F2036004F088F940F2026004F084F9BB
:1016200040F60044C4F2010420461821032210238E
:1016300003F008FD204604210322202303F002FDCD
:10164000204604210322082303F0FCFCA4F580605B
:10165000042103224FF4004303F0F4FC40F2002085
:10166000C0F230000121BDE8104003F047BDF0B5E5
:101670008BB00646450840F20B6004F055F942F67F
:101680000044C4F20104204604F07CFB0027FF2044
:101690000996ADF81C70ADF82870CDF81E708DF865
:1016A0002A0007A9204604F016FC0120C0F204001D
:1016B00004AE0697CDE9040720460021324604F027
:1016C00001FA20460121324604F0FCF920460021AF
:1016D000002204F035FB20460021002204F0D8F956
:1016E00020460121002204F02BFB2046012100228C
:1016F00004F0CEF9204600212A4604F0FFFA2046E5
:101700000021602204F0DEFA20460021002204F0CD
:10171000FBFA204601212A4604F0F0FA2046012176
:10172000702204F0CFFA20460121002204F0ECFAE6
:101730001520CDE900704FF48040029069462046A4
:10174000ADF80C7004F091F919200221002203F089
:10175000ECFF2046012104F01FFC204604F0B6FBFC
:101760000BB0F0BD10B584B004464FF4E06004F057
:10177000DBF84FF0804004F005FB00200294ADF848
:101780000000ADF80C00CDF802008DF80E0069469F
:101790004FF0804004F09FFB1C200121002203F049
:1017A000C4FF4FF08040012104F0F6FB4FF0804071
:1017B000012104F005FC4FF0804004F051F94FF096
:1017C000804004F083FB04B010BD70B588B00646BD
:1017D000450840F2027004F0A7F840F60004C4F295
:1017E0000004204604F0CEFA06960026FF20ADF84D
:1017F0001060ADF81C60CDF812608DF81E0004A9D1
:10180000204604F068FB0120C0F204000396CDE9F5
:10181000010601AA2046022104F054F920460221C3
:10182000002204F08DFA20460221002204F030F953
:10183000204602212A4604F061FA20460221602255
:1018400004F040FA20460221012204F079FA2046F1
:101850000221002204F058FA1E200221002203F087
:1018600064FF2046012104F097FB204604F02EFB84
:1018700008B070BDB0B584B0054640F2037004F006
:1018800053F840F60044C4F20004204604F07AFA0B
:1018900000200295ADF80000ADF80C00CDF8020074
:1018A000FF208DF80E006946204604F014FB204608
:1018B000012104F071FB4EF28410CEF200004FF4CF
:1018C00080210160BFF34F8F2046BFF36F8F04F07C
:1018D000FDFA04B0B0BDB0B50025C4F2020504465F
:1018E0002846042103F048FA28460421224603F042
:1018F000DDFAA5F54840402104F0E5FB2846042127
:10190000BDE8B04003F04ABA70B543F60004C4F233
:10191000010404F54846054630460321022203F03F
:1019200073FA3046032103F027FA304603212A4692
:1019300003F0BCFA2046802104F0CBFB30460321A3
:1019400003F02CFA2046062104F0DAFB08B900BFA8
:10195000F8E72046062104F0C7FB20460021BDE839
:10196000704004F0B6BB2DE9F04F87B005464FF448
:10197000A06003F0D9FF40F20E6003F0D5FF40F203
:10198000065003F0D1FF686943F600040027C4F253
:1019900001048DF81A70CDE9020704F104094FF42F
:1019A000807A322004F54846E846CDF80090ADF83C
:1019B00018A0019704904FF4005B30460421424682
:1019C000CDF814B003F030FA3046042103F00AFADF
:1019D0003046042103F0E2F9296901208DF81A004C
:1019E000CDE90217304603214246CDF80090ADF80C
:1019F00018A00197CDE9047B03F016FA30460321C5
:101A000003F0DEF93046032103F0C8F9204604F064
:101A10001DFB2968204604F0DCFA6968204604F0C2
:101A200083FBE968204604F0AEFBA968204604F079
:101A30009CFB2046002104F001FB2046002104F01D
:101A40006DFB2046002104F063FB204604F07AFB86
:101A50002046FF2104F07DFB2046402104F033FBAB
:101A60002046802104F035FB2046082104F085FB48
:101A70002046042104F060FB204604F030FB07B050
:101A8000BDE8F08FB0B543F600050446C4F2010589
:101A9000284642F2102104F033FB0028F8D12046FA
:101AA000BDE8B040FFF730BF10B54FF4C06003F0A1
:101AB0003BFF40F2036003F037FF0420C4F2010053
:101AC000016840F6004441F00401C4F201040160E1
:101AD000204618210322402303F0B4FA20460421B3
:101AE00003228023BDE8104003F0ACBA00000000E0
:101AF0002DE9F04F81B040F20818C2F2000842F21E
:101B0000437018F80010002902F0AE814EF2001266
:101B10000021CEF2000208F800104FF08050C2F809
:101B20008000BFF34F8F43F6F03BBFF36F8FC2F2DD
:101B3000000BD8E90840D8E90A12D8E900E9D8E949
:101B400002A3D8E90476CBE90840B8F83000D8E918
:101B5000065CCBE90A1246F2C311CBE900E9CBE9F6
:101B600002A3CBE90476ABF83000C0F6000158467A
:101B7000CBF81850CBF81CC0FEF738FB43F6404AB0
:101B8000C2F2000A0FF2407103220546CAF80000B3
:101B9000FEF71EFB002800F0A3809BF80060102ECB
:101BA00000F09E800FF6C07128460322FEF710FB5E
:101BB000AD2E18BF002840F0E68046F2C311C0F6F3
:101BC00000010020FEF712FBCAF80000054600687D
:101BD00044F25256C4F24146B04200F03E819BF8B6
:101BE0000170FD2F00F039810FF680712846072221
:101BF000FEF7EEFA5A2F18BF002840F0A8820028FE
:101C000000F07786FFF7FFFC9BF802009BF80310BB
:101C100043F6444841EA002043F6E235C2F20008A8
:101C2000C2F200050021A8F800002980B0B340F2FC
:101C3000080640F2ED07C2F20006C2F200074FF4B8
:101C4000045400BFFEF7E2FC3088718800BA000C33
:101C5000A7F8070008BAB188000CA7F8090008BA6D
:101C6000F188000CA7F80B0008BA3189000CA7F81E
:101C70000D0008BA7189000CA7F80F00080A7874E3
:101C80000E20B974A7F81340FFF7ACFC2888B8F809
:101C90000010013082B28A422880D3D340F600057A
:101CA000C4F2000505F582342046042104222023D5
:101CB00003F0C8F9204628210422102303F0C2F9BA
:101CC000204628210422082303F0BCF905F58030C2
:101CD000282104224FF4004303F0B4F902F0B6B80F
:101CE00046F2C311C0F600010020FEF77FFACAF8E1
:101CF00000000546008844F64F67B84200F0818036
:101D00009BF80160052E7CD046F2DC11C0F6000184
:101D100028460322FEF75CFA0A2E18BF002840F07E
:101D2000018140F60000C4F2000000F59234204624
:101D30000021002204F004F820460021002203F0D4
:101D4000A7FE20460121002203F0FAFF20460121D0
:101D5000002203F09DFEDAF8000046F2DC11C0F626
:101D600000010322FEF734FA002842F0698046F2AF
:101D7000504108F13200C0F600010A22FEF704FAD1
:101D80000A2002F061B846F2D811C0F600012846D8
:101D90000322FEF71DFADC2E18BF002840F0088150
:101DA000FEF73EFDFFF71AFC43F64741C2F2000181
:101DB0000125DAF800000D7046F2D811C0F60001D6
:101DC0000322FEF705FA002800F0398240F2BC0039
:101DD000BBF80110C2F20000057008BA020C43F60D
:101DE000EC30C2F2000002800020002102F042FF2D
:101DF000002002F07DFFFFF706FCAC2088F83200DF
:101E00004EE240F60000C4F2000000F59234204695
:101E10000021012203F094FF20460021042203F058
:101E200037FE20460121012203F08AFF20460121CE
:101E3000042203F02DFEDAF800000088B84241F0D9
:101E4000FF8746F25C4108F13200C0F600010B2228
:101E5000FEF79AF90B2001F0F7BF40F2080743F6AE
:101E600024450024C2F20007C2F20005FEF7CEFBB3
:101E7000002000BF37F8101055F82020114445F815
:101E8000201001300628F5D101340A2CEED3DAF8FF
:101E900000000068B04200F0198295E88E004CF610
:101EA000CD40CCF6CC40A1FB0061A2FB0062A3FBBD
:101EB0000036A7FB00372B694FF0110AA3FB003453
:101EC0006B69A3FB0003C808C90A88F8321088F8B8
:101ED00033002020D108D20A88F8340088F8352051
:101EE00088F83610F108F20A88F8370088F83820A8
:101EF00088F83910F908FA0A88F83A0088F83B207F
:101F000088F83C10E108E20A88F83D0088F83E2095
:101F100088F83F1088F84000D80800BA000CA8F8EC
:101F200041009FE3286845F24621C5F24511401A59
:101F300018BF0120FC2E18BF002840F02081002887
:101F400000F0B2849BF802009BF8031041EA0020E5
:101F5000FEF784FA9FEDD80B02460B4651EC100BAE
:101F6000FEF70DFA9FEDD60B53EC102BFEF760F940
:101F7000FEF792FAFFF77BFB40F60000C4F2000088
:101F800000F5923420460021012203F0D9FE2046BC
:101F90000021042203F07CFD20460121012203F0F0
:101FA000CFFE20460121042203F072FD01F048BF5C
:101FB000286845F24701C4F64971401A18BF01204C
:101FC0006F2E18BF002840F0F78046F2C311C0F60C
:101FD00000010020FEF70AF9CAF80000016844F287
:101FE0005252C4F241420546881A18BF012091425C
:101FF00000F044839BF80190B9F17D0F00F03E831F
:1020000046F2E911C0F6000128460722FEF7E0F883
:10201000B9F17F0F18BF002840F0F384FEF77AFC77
:10202000DAF8000046F2E911C0F600010722FEF7D7
:10203000CFF8002801F0AD8040F60005C4F200059D
:10204000002005F58434C8F8320020464FF40051D2
:1020500003F04FF80138B0FA80F098F832104009D8
:1020600040EA410088F8320020464FF4804103F0F6
:1020700040F80138B0FA80F098F83210400940EA90
:10208000410088F8320020464FF4004103F031F857
:102090000138B0FA80F098F83210400940EA410067
:1020A00005F5803488F832002046012103F021F83C
:1020B0000138B0FA80F098F83210400940EA410047
:1020C00088F832002046022103F013F80138B0FAF4
:1020D00080F098F83210400940EA410088F8320058
:1020E0002046042103F005F80138B0FA80F098F892
:1020F0003210400940EA410088F8320020460821A9
:1021000002F0F7FF0138B0FA80F098F83210400979
:1021100040EA410088F832002046102102F0E9FF31
:102120000138B0FA80F098F83210400940EA4100D6
:1021300088F832002046202102F0DBFF012841F020
:102140003F8098F832004000013001F03CB846F280
:10215000E011C0F6000128460822FEF739F8372FB3
:1021600018BF002840F0E182002800F019869BF893
:102170000250AC20012488F8320000F03ABE2888D2
:1021800045F24441401A18BF0120D12E18BF002843
:1021900040F01283002800F0818542F62C40C4F202
:1021A0000100816921F0FF0181619BF802108269C1
:1021B0001143816101F044BE286844F25511C5F213
:1021C0005241401A18BF0120CA2E18BF002840F003
:1021D0002D8346F2C311C0F600010020FEF706F879
:1021E000CAF80000008844F65455A84204D09BF871
:1021F0000000CA2841F02A8640F2C0000FF674128F
:10220000C2F20000DFF86C19D2E90137D26800F1A0
:10221000140C8CE88A0002621020FFF7E9F8DAF863
:1022200000000088A84241F00B8608F132000FF64A
:1022300058111522FDF7A8FF152001F005BE46F242
:10224000C311C0F6000100200024FDF7CFFFCAF83B
:1022500000000178A1F13002092A0FD800220024E1
:1022600004EB84035B00013253FA81F391B2415CC9
:10227000A3F13004A1F130070A2FF1D3A2B200205C
:10228000002102F0F7FC002002F032FD46F21C2192
:1022900008F13200C0F600010D220D25FDF774FF94
:1022A0002846FFF7EFFB40F20810C2F2000032218F
:1022B000FDF783FF01F0D8BD00000000004CFD4099
:1022C000000000000000F0BF50574D0028684CF699
:1022D000CD46CCF6CC46A0FB060E42F23A00A8F85A
:1022E000360044F24920C5F2553044F6D35BC8F8B5
:1022F0003200CEF3CF00C1F2620BA0FB0B2348F2F9
:102300001F599A09C5F2EB19A0FB0937A2FB063C3D
:102310007B09A0FB0607A3FB0604F808A0FB0671D7
:102320004FEADC0707EB8707A2EB4702C90842F038
:102330003002E70801EB810188F838204FEADE021D
:1023400007EB8707A0EB410100EB8000A3EB4703FD
:10235000A2EB400043F0300341F0300140F0300088
:1023600088F8393088F83A1088F83B0040F60D209C
:10237000A8F83C000C204FF00C0AFFF783FB6868BC
:10238000A0FB060E42F23A00A8F8360044F25610BE
:10239000C4F64340C8F83200CEF3CF00A0FB0B23B5
:1023A0009A09A0FB0937A2FB063C7B09A0FB0607A4
:1023B000A3FB0604F808A0FB06714FEADC0707EB55
:1023C0008707A2EB4702C90842F03002E70801EB99
:1023D000810188F838204FEADE0207EB8707A0EB7F
:1023E000410100EB8000A3EB4703A2EB400043F068
:1023F000300341F0300140F0300088F8393088F87F
:102400003A1088F83B0040F60D20A8F83C000C205C
:10241000FFF738FBA868A0FB060E44F64940C2F25D
:102420003A00C8F83200CEF3CF00A0FB0B239A0984
:10243000A0FB0937A2FB063C7B09A0FB0607A3FB18
:102440000604F808A0FB06714FEADC0707EB8707D4
:10245000A2EB4702C90842F03002E70801EB810114
:1024600088F836204FEADE0207EB8707A0EB410130
:1024700000EB8000A3EB4703A2EB400043F03003E6
:1024800041F0300140F0300088F8373088F83810DB
:1024900088F8390040F60D20A8F83A000A20CB460B
:1024A000FFF7F0FAE86844F6D359A0FB060E42F2B3
:1024B0003A00A8F8360044F25450C5F24D00C8F86E
:1024C0003200CEF3CF00C1F26209A0FB09239A09C2
:1024D000A0FB0B37A2FB063C7B09A0FB0607A3FB76
:1024E0000604F808A0FB06714FEADC0707EB870734
:1024F000A2EB4702C90842F03002E70801EB810174
:1025000088F838204FEADE0207EB8707A0EB41018D
:1025100000EB8000A3EB4703A2EB400043F0300345
:1025200041F0300140F0300088F8393088F83A1036
:1025300088F83B0040F60D20A8F83C000C20FFF77F
:10254000A1FA2869A0FB060E42F23A00A8F836006C
:1025500044F25610C4F64350C8F83200CEF3CF0010
:10256000A0FB09239A09A0FB0B37A2FB063C7B09C1
:10257000A0FB0607A3FB0604F808A0FB06714FEAC0
:10258000DC0707EB8707A2EB4702C90842F03002DD
:10259000E70801EB810188F838204FEADE0207EBFB
:1025A0008707A0EB410100EB8000A3EB4703A2EB00
:1025B000400043F0300341F0300140F0300088F833
:1025C000393088F83A1088F83B0040F60D20A8F81A
:1025D0003C000C20FFF756FA6869A0FB060142F2A6
:1025E0003A00A8F8360044F25620C5F25530C8F833
:1025F0003200C1F3CF00A0FB09239A09A0FB0B37DF
:10260000A2FB06357B09A0FB0607A3FB0604F8081E
:10261000A0FB0676EF0807EB8707A2EB470242F024
:10262000300288F83820E20802EB8202A3EB420273
:1026300042F0300288F83920F20802EB8202C90821
:10264000A0EB420200EB8000A1EB400042F0300220
:1026500040F0300088F83A2088F83B0040F60D2022
:10266000A8F83C005046FFF70DFA43F62440C2F2AA
:1026700000001821FDF7A1FD01F0E8BB002800F0E3
:102680003E8340F60005C4F20005002005F58434C1
:1026900088F8320020464FF4005102F02AFD01383C
:1026A000B0FA80F098F83210400940EA410088F80A
:1026B000320020464FF4004102F01BFD0138B0FA11
:1026C00080F098F83210400940EA410005F5823464
:1026D00088F832002046022102F00BFD0138B0FAE2
:1026E00080F098F83210400940EA410088F8320042
:1026F00020464FF4805102F0FCFC0138B0FA80F023
:1027000098F83210400940EA410088F8320020462B
:10271000202102F0EEFC0138B0FA80F098F8321077
:10272000400940EA410001F08CBB286845F253455E
:10273000C5F24F05401B18BF0120302F18BF0028DD
:1027400041F0848340F60006C4F2000606F58430AA
:10275000042104224FF4004302F074FC06F5823495
:10276000204604210422202302F06CFC204628216C
:102770000422102302F066FC2046282104220823AC
:1027800002F060FC06F58030282104224FF400435B
:1027900002F058FCDAF800000068A84241F05083CB
:1027A00046F20C6108F13200C0F600011122FDF77B
:1027B000EBFC112001F048BB288844F24431401A58
:1027C00018BF0120DC2E18BF002841F03F830028ED
:1027D00000F0F78342F62C40C4F2010090ED000AAD
:1027E0009FEDEF2AB8EE400A9BF8021001EE101A96
:1027F000B8EE411A81EE021A21EE000ABCEEC00AC0
:1028000080ED020A90ED000AB8EE400A9BF8021033
:1028100001EE101AB8EE411A81EE021A21EE000AFA
:10282000BCEEC00A80ED030A01F00ABBDDA1284618
:102830000322FDF7CDFCC52E18BF002840F0DC8137
:1028400046F2C311C0F600010020FDF7CFFCCAF824
:102850000000008844F65455A84204D09BF80000BC
:10286000C52841F0F38240F21400C2F20000552165
:10287000A0F8A010032180F8A41045F24D01A0F8A3
:102880000B1053214173FDF7D9FEDAF800000088E0
:10289000A84241F0D58208F13200C3A11322FDF70E
:1028A00073FC132001F0D0BA46F2C311C0F6000148
:1028B0000020FDF79BFCCAF800000178A1F130026E
:1028C000092A00F233820022002300BF03EB8303B6
:1028D0005B00013253FA81F391B2415C303BA1F1CC
:1028E00030070A2FF2D398B2FDF7C9FD41EC100B67
:1028F0001EE246F2C311C0F6000100200024FDF7DD
:1029000075FCCAF800000178A1F13002092A00F232
:102910009B820022002300BF03EB83035B00013294
:1029200053FA81F391B2415C303BA1F130070A2F99
:10293000F2D343F6444943F6DE3AC2F20009C2F24A
:10294000000A00201904A9F80030AAF8000001F0DC
:102950007D824CF6CD4BCCF6CC4BFDF757FE40F2CA
:102960000800C2F20000008844F6D351C1F26201AF
:10297000A0FB0112910948F21F52C5F2EB12A0FB15
:102980000223A1FB0B27FF0807EB87075A09A1EBDE
:102990004701A2FB0B3541F0300188F83210E908FD
:1029A000A0FB0B3401EB8101E308A2EB4101A3FB87
:1029B0000B4641F0300188F83310F10801EB81013A
:1029C000A3EB410141F0300188F8341003EB83019F
:1029D000A0EB410040F0300088F8350040F60D20B3
:1029E000A8F836000620FFF74DF8BAF80000B9F84D
:1029F0000010013082B28A42AAF80000ADD301F083
:102A000025BA286844F64816C4F64706801B18BF46
:102A10000120B9F1FF0F18BF002840F0218240F6D5
:102A20000007C4F2000707F5843528464FF400512B
:102A300002F0C4FA28464FF4004102F0BFFA07F54D
:102A400082342046022102F0B9FA20464FF4805128
:102A500002F0B4FA2046202102F0B0FA28464FF4E2
:102A6000804102F0ABFA07F580352846802102F05C
:102A7000A5FA2046012102F0A1FA2046042102F025
:102A80009DFA20464FF4004102F098FA28464FF490
:102A9000806102F093FA20464FF4807102F08EFAC2
:102AA00028464FF4007102F089FA28464FF48071ED
:102AB00002F084FA20464FF4804102F07FFA20466B
:102AC0004FF4005102F07AFA2846012102F076FA1A
:102AD0002846022102F072FA2846042102F06EFA1A
:102AE0002846082102F06AFA2846202102F066FAF8
:102AF0002846402102F062FA2846102102F05EFAD0
:102B000020464FF4806102F059FA20464FF40061EC
:102B100002F054FA28464FF4805102F04FFA28464A
:102B20004FF4006102F04AFA2046082102F046FA0A
:102B30002046102102F042FA28464FF4004102F0EC
:102B40003DFADAF800000068B04241F0798146F2BF
:102B5000404108F13200C0F600010F22FDF714FBDE
:102B60000F2001F071B900BF4144430053414D5063
:102B70004C45530048454C4C4F204D50513332305A
:102B800031300D0A000000005541525432205445A6
:102B90005354204D53472073656E640D0A000000A6
:102BA0000000C84243414E0043414E205445535417
:102BB000204D53472073656E640D0A0046414E0058
:102BC00046414E204F46460D0A00000000BF00BFA0
:102BD000000000000000000000000000004CFD406C
:102BE000000000000000F0BF414C4C204750494F0E
:102BF000204C4F570D0A0000AFF240012846032237
:102C0000FDF7E6FAFA2E18BF002841F01F8146F2C0
:102C1000C311C0F600010020FDF7E8FACAF8000071
:102C20000546008844F64F66B04200F085849BF864
:102C30000170F02F00F0808446F2DC11C0F6000134
:102C400028460322FDF7C4FA0F2F18BF002840F0D2
:102C5000D68740F60004C4F2000404F58230102147
:102C600004224FF4807302F0EDF9204603F08AF855
:102C7000DAF8000046F2DC11C0F600010322FDF78D
:102C8000A7FA002841F0DC8008F13200AFF2D00151
:102C90000922FDF779FA092001F0D6B846F2C311EE
:102CA00042F62C44C0F600010020C4F201040025C5
:102CB000FDF79CFACAF80000A16921F0FF01A161AB
:102CC0000178A1F13002092A0FD80022002303EB7A
:102CD00083035B00013253FA81F391B2415C303BD4
:102CE000A1F130070A2FF2D3DDB2A06946F24C21E0
:102CF0002843A06108F13200C0F60001C4E140F6AB
:102D00000006C4F2000606F5843420464FF4005154
:102D100002F0EFF9012840F0BD8146F2D42108F11C
:102D20003200C0F600010D220D25BBE11FED580B4E
:102D30001FED571B53EC102B51EC110BFDF71FFB34
:102D40001FED590B53EC102BFDF772FAFDF7A4FBA6
:102D5000FEF78DFC40F60000C4F2000000F592344E
:102D600020460021012202F0EBFF20460021042230
:102D700002F08EFE20460121012202F0E1FF2046F2
:102D80000121042202F084FE46F23C2108F13200C7
:102D9000C0F600010E22FDF7F7F90E2001F054B83D
:102DA00046F2C311C0F6000100200025FDF71EFA0F
:102DB000CAF800000178A1F13002092A0FD80022D8
:102DC000002505EB85035B00013253FA81F391B2D4
:102DD000415CA3F13005A1F130070A2FF1D346F28F
:102DE000206108F13200C0F6000112221224FDF722
:102DF000CBF92046FEF746FEFEF705FCFDF776FF11
:102E00004FF0FF3050FA85F0052800F21283DFE81A
:102E100010F0060025033A034F0364037A0340F6DB
:102E20000005C4F2000505F58E342046012101227B
:102E300001F056FC05F590300121002201F050FC14
:102E40002046002100225CE343F64440C2F2000029
:102E5000048043F6DE30C2F20000048000F0F6BFCA
:102E600046F2FC11C0F6000128460322FDF7B0F936
:102E7000B9F1000F18BF002840F0838340F6000628
:102E8000C4F2000606F5843528464FF4005102F0DE
:102E900093F828464FF4004102F08EF806F582348C
:102EA0002046022102F088F820464FF4805102F0BB
:102EB00083F82046202102F07FF828464FF4804115
:102EC00002F07AF806F580352846802102F074F881
:102ED0002046012102F070F82046042102F06CF82F
:102EE00020464FF4004102F067F828464FF4806115
:102EF00002F062F820464FF4807102F05DF8284637
:102F00004FF4007102F058F828464FF4807102F037
:102F100053F820464FF4804102F04EF820464FF41B
:102F2000005102F049F82846012102F045F82846F0
:102F3000022102F041F82846042102F03DF828461B
:102F4000082102F039F82846202102F035F82846F9
:102F5000402102F031F82846102102F02DF82046D9
:102F60004FF4806102F028F820464FF4006102F02F
:102F700023F828464FF4805102F01EF828464FF4FB
:102F8000006102F019F82046082102F015F82046E9
:102F9000102102F011F828464FF4004102F00CF81D
:102FA000DAF8000046F2FC11C0F600010322FDF73A
:102FB0000FF9002840F0448708F13200AFF2D83111
:102FC000E8E646F2C31142F62C44C0F600010020A8
:102FD000C4F20104FDF70AF9CAF8000094ED000AF2
:102FE000B8EE402A01789FEDE30AA1F13002092AE8
:102FF000B0EE403A13D80022002303EB83035B00BA
:10300000013253FA81F391B2415C303BA1F13007B8
:103010000A2FF2D399B201EE101AB8EE413A9FEDA1
:10302000D61A83EE013A23EE022ABCEEC22A84EDC0
:10303000022A94ED002AB8EE422A0178A1F130026A
:10304000092A13D80022002303EB83035B0001321B
:1030500053FA81F391B2415C303BA1F130070A2F62
:10306000F2D398B200EE100AB8EE400A80EE010AE0
:1030700046F22C2108F13200C0F6000120EE020ACF
:10308000BCEEC00A84ED030A0C22FDF77DF80C208B
:1030900000F0DABE46F2BC4108F13200C0F6000191
:1030A0000C220C25FDF770F82846FEF7EBFC2046B5
:1030B0004FF4004102F01DF8012808D146F2C42166
:1030C00008F13200C0F600010E220E2407E046F29D
:1030D000AC4108F13200C0F600010D220D24FDF7CD
:1030E00053F82046FEF7CEFC06F582342046022136
:1030F00001F0FFFF012808D146F2143108F1320037
:10310000C0F600010D220D2507E046F2FC4108F152
:103110003200C0F600010C220C25FDF735F82846D8
:10312000FEF7B0FC20464FF4805101F0E2FF012889
:1031300008D146F2AC3108F13200C0F600010B2292
:103140000B2507E046F28C5108F13200C0F6000171
:103150000A220A25FDF718F82846FEF793FC2046B8
:10316000202101F0C6FF012807D146F29C3108F169
:103170003200C0F600010F220DE646F27C5108F144
:103180003200C0F600010E22FCF7FEFF0D2000F019
:103190005BBE40F60006C4F2000606F58434204605
:1031A0004FF4005101F0A5FF012840F0098246F2DA
:1031B000D42108F13200C0F600010D220D2507E2EE
:1031C00098F83300400088F833002046402101F091
:1031D00090FF012804D198F832004000013002E04D
:1031E00098F83300400088F833002046802101F031
:1031F00080FF012804D198F832004000013002E03D
:1032000098F83300400005F5823588F833002846E9
:10321000012101F06EFF012804D198F8320040002E
:10322000013002E098F83300400088F83300284667
:10323000022101F05EFF012804D198F8320040001D
:10324000013002E098F83300400088F83300284647
:10325000042101F04EFF012804D198F8320040000B
:10326000013002E098F83300400088F83300284627
:103270004FF4806101F03DFF012804D198F832003D
:103280004000013002E098F83300400088F8330035
:1032900028464FF4006101F02CFF012804D198F872
:1032A00032004000013002E098F83300400088F816
:1032B000330028464FF4805101F01BFF012804D150
:1032C00098F832004000013002E098F834004000E5
:1032D00088F8340028464FF4005101F00AFF012815
:1032E00004D198F832004000013002E098F8340030
:1032F000400088F8340028464FF4804101F0F9FE80
:10330000012804D198F832004000013002E098F81A
:103310003400400088F8340028464FF4004101F0A2
:10332000E8FE012804D198F832004000013002E0A4
:1033300098F83400400088F8340020464FF480713B
:1033400001F0D7FE012804D198F832004000013086
:1033500002E098F83400400088F8340020464FF42A
:10336000007101F0C6FE012808D198F83200400033
:10337000013006E0000000000000C84298F8340068
:10338000400088F8340020464FF4806101F0B1FE1F
:10339000012804D198F832004000013002E098F88A
:1033A0003400400088F8340020464FF4006101F0FA
:1033B000A0FE012804D198F832004000013002E05C
:1033C00098F83400400088F8340020464FF48051CB
:1033D00001F08FFE012804D198F83200400001303E
:1033E00002E098F83500400088F835002846202192
:1033F00001F07FFE012804D198F83200400001302E
:1034000002E098F83500400088F8350028464FF46F
:10341000807101F06EFE012804D198F8320040005E
:10342000013002E098F835004000042488F83500A7
:10343000D9E340F60005C4F2000505F58E342046B8
:103440000121012201F04CF905F590300121002203
:1034500001F046F920460021002268E040F6000510
:10346000C4F2000505F58E3420460121012201F049
:1034700037F905F590300121002201F031F920469D
:103480000021012253E040F60005C4F2000505F5D5
:103490008E3420460121012201F022F905F59030F9
:1034A0000121002201F01CF920460021022228E01F
:1034B00040F60004C4F2000404F58E30012100221D
:1034C00001F00EF904F5903420460121012201F0AB
:1034D00007F920460021032229E040F60004C4F247
:1034E000000404F58E300121002201F0F9F804F502
:1034F000903420460121012201F0F2F820460021FB
:103500000522042314E040F60004C4F2000404F58C
:103510008E300121002201F0E3F804F590342046BA
:103520000121012201F0DCF82046002106220523BA
:1035300001F043F900F08ABC40F60000C4F200003C
:1035400000F58230182104224FF4807301F07AFDD7
:1035500040F20770FEF739F9DAF800000088B0424F
:1035600040F06E8444F64F60C0F60D20C8F8360077
:1035700044F24610C2F24E00C8F83200082000F0B3
:1035800063BC0FF6EC3128460622FCF721FEB9F1A8
:10359000CC0F18BF002840F05983002800F09C830E
:1035A0009BF8020040F60005C007C4F2000505F5CF
:1035B00084304FF4804140F0BE8301F0FDFCBCE359
:1035C00046F2BC4108F13200C0F600010C220C2585
:1035D000FCF7DAFD2846FEF755FA20464FF4804105
:1035E00001F087FD012808D146F2603108F1320070
:1035F000C0F600010D220D2507E046F2445108F106
:103600003200C0F600010C220C25FCF7BDFD284657
:10361000FEF738FA20464FF4004101F06AFD012818
:1036200008D146F2C42108F13200C0F600010E2292
:103630000E2407E046F2AC4108F13200C0F600016A
:103640000D220D24FCF7A0FD2046FEF71BFA06F51F
:1036500080342046012101F04CFD012808D146F2BA
:10366000C83108F13200C0F600010C220C2507E039
:1036700046F2A45108F13200C0F600010B220B25DE
:10368000FCF782FD2846FEF7FDF92046022101F0F5
:1036900030FD012808D146F2243108F13200C0F68D
:1036A00000010C220C2507E046F20C5108F1320013
:1036B000C0F600010B220B25FCF766FD2846FEF73D
:1036C000E1F92046042101F014FD012808D146F259
:1036D000443108F13200C0F600010A220A2507E051
:1036E00046F2285108F13200C0F6000109220925EE
:1036F000FCF74AFD2846FEF7C5F92046082101F0EF
:10370000F8FC012808D146F2B83108F13200C0F6C1
:1037100000010C220C2507E046F2985108F1320016
:10372000C0F600010B220B25FCF72EFD2846FEF704
:10373000A9F92046102101F0DCFC012808D146F24D
:10374000043108F13200C0F600010E220E2507E018
:1037500046F2EC4108F13200C0F600010D220D25C1
:10376000FCF712FD2846FEF78DF92046202101F0D6
:10377000C0FC012808D146F27C3108F13200C0F6C5
:1037800000010C220C2507E046F2605108F13200DE
:10379000C0F600010B220B25FCF7F6FC2846FEF7CD
:1037A00071F92046402101F0A4FC012808D146F21D
:1037B000D83108F13200C0F600010C220C2507E0D8
:1037C00046F2B05108F13200C0F600010B220B2581
:1037D000FCF7DAFC2846FEF755F92046802101F077
:1037E00088FC012808D146F2304108F13200C0F6C9
:1037F00000010D220D2507E046F2FC5108F13200D0
:10380000C0F600010C220C25FCF7BEFC2846FEF792
:1038100039F906F582352846012101F06AFC0128B4
:1038200008D146F2A42108F13200C0F600010A22B4
:103830000A2607E046F2904108F13200C0F6000186
:1038400009220926FCF7A0FC3046FEF71BF92846A2
:10385000022101F04EFC012808D146F2143108F192
:103860003200C0F600010D220D2607E046F2FC41B1
:1038700008F13200C0F600010C220C26FCF784FC93
:103880003046FEF7FFF82846042101F032FC0128FB
:1038900008D146F2B02108F13200C0F60001102232
:1038A000102607E046F29C4108F13200C0F6000104
:1038B0000F220F26FCF768FC3046FEF7E3F8284697
:1038C0004FF4806101F015FC012808D146F21C413B
:1038D00008F13200C0F600011022102607E046F27F
:1038E000EC5108F13200C0F600010F220F26FCF760
:1038F0004BFC3046FEF7C6F828464FF4006101F055
:10390000F8FB012808D146F2F83108F13200C0F680
:1039100000011022102607E046F2CC5108F13200D7
:10392000C0F600010F220F26FCF72EFC3046FEF7F2
:10393000A9F828464FF4805101F0DBFB01280AD199
:1039400046F2AC3108F13200C0F600010C220C2620
:10395000FCF71AFC09E046F28C5108F13200C0F67F
:1039600000010C22FCF710FC0B263046FEF78AF80B
:1039700028464FF4005101F0BCFB012808D146F263
:10398000F42108F13200C0F600010E220E2607E0F5
:1039900046F2DC4108F13200C0F600010D220D268E
:1039A000FCF7F2FB3046FEF76DF828464FF48041F5
:1039B00001F09FFB012808D146F2503108F1320096
:1039C000C0F600010E220E2607E046F2345108F13F
:1039D0003200C0F600010D220D26FCF7D5FB304663
:1039E000FEF750F828464FF4004101F082FB012811
:1039F00008D146F2942108F13200C0F600010C22F1
:103A00000C2607E046F2844108F13200C0F60001BE
:103A10000B220B26FCF7B8FB3046FEF733F82046A6
:103A20004FF4807101F065FB012808D146F2E421D2
:103A300008F13200C0F600010E220E2607E046F221
:103A4000CC4108F13200C0F600010D220D26FCF732
:103A50009BFB3046FEF716F820464FF4007101F04C
:103A600048FB012808D146F2343108F13200C0F693
:103A700000010E220E2607E046F2185108F132002E
:103A8000C0F600010D220D26FCF77EFB3046FDF747
:103A9000F9FF28464FF4005101F02BFB012808D113
:103AA00046F2F42108F13200C0F600010E220E2683
:103AB00007E046F2DC4108F13200C0F600010D22B9
:103AC0000D26FCF761FB3046FDF7DCFF20464FF486
:103AD000806101F00EFB012808D146F28C3108F11B
:103AE0003200C0F600010E220E2607E046F26C51AD
:103AF00008F13200C0F600010D220D26FCF744FB50
:103B00003046FDF7BFFF20464FF4006101F0F1FAA7
:103B1000012808D146F2E83108F13200C0F6000170
:103B20000E220E2607E046F2BC5108F13200C0F624
:103B300000010D220D26FCF727FB3046FDF7A2FF02
:103B400020464FF4805101F0D4FA012808D146F202
:103B50000C4108F13200C0F600010E220E2407E0ED
:103B600046F2DC5108F13200C0F600010D220D24AE
:103B7000FCF70AFB2046FDF785FF2846202101F0CF
:103B8000B8FA012808D146F29C3108F13200C0F69B
:103B900000010F220F2407E046F27C5108F13200A9
:103BA000C0F600010E220E24FCF7EEFA2046FDF7C7
:103BB00069FF28464FF4807101F09BFA012808D173
:103BC00046F2703108F13200C0F600010B220B24DE
:103BD00007E046F2545108F13200C0F600010A2213
:103BE0000A24FCF7D1FA2046FDF74CFFFDF74AFA0C
:103BF000FDF75AFFFDF70EFCFDF75BF826E128887C
:103C000044F24431401A18BF0120DC2F18BF0028AD
:103C100040F01C81002800F02A8140F60000C4F228
:103C2000000090ED0B0A9FEDEE2AB8EE400A9BF8DB
:103C3000021001EE101AB8EE411A81EE021A21EEBE
:103C4000000ABCEEC00A80ED0F0AF9E00FF228511D
:103C500028460722FCF7BCFAB9F1AA0F18BF0028C2
:103C600010D143F63E450028C2F2000500F02B813A
:103C7000BBF80200BBF8041000BA000C288008BA98
:103C8000040C5FE146F2F811C0F600012846032259
:103C9000FCF79EFAB9F1A00F18BF002840F0AE80E3
:103CA000FCF7F4FE002001F014F8DAF8000046F208
:103CB000F811C0F600010322FCF78AFA002840F050
:103CC000BF8046F2684108F13200C0F600011822B8
:103CD000FCF75AFA1820B7E046F2C31140F6000488
:103CE000C0F600010020C4F200040026FCF77EFAB2
:103CF000CAF80000017843F6E435A1F13002092A40
:103D0000C2F2000500F23F8100220023013201EBE4
:103D10004303D1B2415C303BA1F130070A2FF5D308
:103D2000D8072B6000F0308104F584304FF48041D7
:103D300001F044F92EE101F041F99BF802008007FF
:103D400005D405F58030802101F036F904E005F551
:103D50008030802101F032F99BF80200400705D441
:103D600005F58230012101F027F904E005F58230E4
:103D7000012101F023F99BF80200000705D405F5A5
:103D80008230042101F018F904E005F582300421A5
:103D900001F014F99BF80200C00606D405F5823044
:103DA0004FF4004101F008F905E005F582304FF4C9
:103DB000004101F003F99BF80200800606D405F5E6
:103DC00080304FF4806101F0F7F805E005F58030B0
:103DD0004FF4806101F0F2F89BF80200400606D42F
:103DE00005F582304FF4807101F0E6F828E005F522
:103DF00082304FF4807101F0E1F821E046F2F111D8
:103E0000C0F6000128460622FCF7E2F9B9F1A40F3A
:103E100018BF002840F02681FDF734F943F6EA3157
:103E2000C2F200010022DAF800000A7046F2F11135
:103E3000C0F600010622FCF7CBF9002800F07781DC
:103E4000AC2088F832000120FDF71CFE40F208107B
:103E5000C2F200003221FCF7B0F94EF200114FF02F
:103E60008050CEF20001086001B0BDE8F08F46F24C
:103E7000C31140F60004C0F600010020C4F20004A3
:103E8000FCF7B4F9CAF8000094ED0B0AB8EE400A4A
:103E90000178A1F13002092A00F20D8100220023ED
:103EA00003EB83035B00013253FA81F391B2415C6F
:103EB000303BA1F130070A2FF2D398B201EE100A7D
:103EC000B8EE411AF9E046F2C311C0F60001002035
:103ED0000024FCF78BF9CAF800000178A1F1300248
:103EE000092A0FD80022002404EB84035B0001326E
:103EF00053FA81F391B2415CA3F13004A1F1300790
:103F00000A2FF1D346F2C311C0F6000100202C8025
:103F10000024FCF76BF9CAF800000178A1F1300227
:103F2000092A0FD80022002404EB84035B0001322D
:103F300053FA81F391B2415CA3F13004A1F130074F
:103F40000A2FF1D3298843F63C4041F28832C2F26D
:103F50000000914204803FF679AF43F6E930C2F2A7
:103F60000000012101704EF200114FF08050CEF29E
:103F70000001C1F88000BFF34F8F4FF48020BFF3E2
:103F80006F8F486062E72E6004F584304FF4804103
:103F900001F012F82878800705D404F580308021DC
:103FA00001F00AF804E004F58030802101F006F801
:103FB0002878400705D404F58230012100F0FCFF89
:103FC00004E004F58230012100F0F8FF28780007B2
:103FD00008D404F58230042100F0EEFF07E000BFB2
:103FE0000000C84204F58230042100F0E7FF287881
:103FF000C00606D404F582304FF4004100F0DCFF27
:1040000005E004F582304FF4004100F0D7FF287836
:10401000C00606D404F580304FF4806100F0CCFF78
:1040200005E004F580304FF4806100F0C7FF287888
:10403000C00606D404F582304FF4807100F0BCFF56
:1040400005E004F582304FF4807100F0B7FF46F2CE
:104050007C2108F13200C0F600011422FCF794F82C
:104060001420F1E646F2C811C0F6000128460722E6
:10407000FCF7AEF8B9F1850F18BF00282FD1FCF777
:1040800055FE002000F025FE43F6EA31C2F20001A1
:104090000122DAF800000A7046F2C811C0F60001E9
:1040A0000722FCF795F8E8BB46F2002108F1320040
:1040B000C0F6000149E09FED281A9FED262A08F17D
:1040C000320081EE021A25A1102221EE000ABCEE78
:1040D000C00A84ED0F0AFCF757F81020B4E646F248
:1040E000D011C0F6000128460722FCF771F8B9F19B
:1040F000580F18BF00287FF4A9AEFCF7EDFE002092
:1041000000F0E7FD43F6EA31C2F200010222DAF8DC
:1041100000000A7046F2D011C0F600010722FCF739
:1041200057F878B1AC2088F8320002208CE646F2CD
:104130005C2108F13200C0F600011F22FCF724F8D0
:104140001F2081E608F132000DA11B22FCF71CF8AC
:104150001B2079E60000C8420000000046414E20C6
:10416000444320555044415445440D0A000000008A
:10417000435553544F4D00005041545445524E0046
:104180004750494F20736574206173206D696464E2
:104190006C65207465737420320D0A00F0B595B01B
:1041A000FCF770FFFDF780FCFDF734F9FCF781FDAB
:1041B00040F20816C2F200064FF4E135002406F181
:1041C00032000F95CDE910441294CDE913060FA8E3
:1041D000FDF7C9FB2027012086F83270FDF752FC5D
:1041E000CDE9095440F2C005C2F2000505F1140002
:1041F000CDE90B44CDE90D0509A8FDF76AF80120CA
:104200002F75FDF7F5F840F2ED00C2F20000C11D78
:1042100005300294CDE90544CDE9074403910490AB
:1042200002A8FDF714F94FF4FA7000906846ADF853
:104230000440FCF7FAFCFCF74FFA42F6DF60FDF7AA
:1042400016FA0E20FDF716FB40F6B730FDF78AFA96
:1042500015B0F0BD10B543F64844C2F20004206822
:1042600042F647010130CBF2A37141434EF633428F
:104270004FEA3111C0F20A029142206016D843F68B
:10428000D431C2F200010A7840F60040B2FA82F35B
:104290005B09C4F201000B704FF4007122B100F011
:1042A0008BFE0020206001E000F088FEBDE8104099
:1042B000FDF71EBCB0B541F2000540F20360C4F248
:1042C000020501F031FB40F60044C4F2010420462F
:1042D000102104224FF4807300F0B4FE20464FF406
:1042E000807100F06BFE4EF68850CEF2000001683F
:1042F00041F47001016028684FF6FF7140F0010041
:10430000286000206860E8622868CEF6F621084040
:1043100028604FF47F00A860286820F4802028607F
:10432000286840F48030286040F2FF702A68411EFF
:10433000814203D212F400300846F7D02868800387
:1043400001D400BFFEE742F20000C4F2020001689F
:1043500021F007010160016841F003010160686814
:104360004FF6FF7168606868CDF6C3716860686871
:1043700040F48060686068680840686068684FF270
:10438000000140F0005040F454106860E86ACBF639
:10439000FE710840E862E86A40F4843040F0190099
:1043A000E862286840F08060286000BF286800014B
:1043B000FCD5286840F08070286000BF2868800124
:1043C000FCD5686820F003006860686840F002006F
:1043D000686000BF68680007FCD54FF000600021EE
:1043E000BDE8B04001F0D4B910B542F60044C4F2C3
:1043F00001042046012101F0D8FD28B12046012109
:10440000BDE8104001F0CCBD10BD0000B0B54FF0CC
:104410008040012101F0C9FDC0B34FF0804001216F
:10442000012401F0BDFD43F64645C2F2000528789F
:1044300068B340F20815C2F200052878F0B143F6DF
:104440000004C4F20104204642F20B2101F058FEA0
:10445000012813D1204642F20B2101F045FE42F221
:104460004370012129544EF28010CEF200004FF02B
:1044700080510160BFF34F8FBFF36F8F40F2BC00DC
:10448000C2F200000078297808430ED0B0BD40F297
:104490000810C2F20000323006A11222FBF774FEAF
:1044A0001220FDF7EFFA2C70B0BD3220BDE8B0400D
:1044B000FDF711BA5354415254204F4B2056312E20
:1044C00032312E310D0A000010B540F60004C4F25E
:1044D00000042046012101F068FD28B12046012199
:1044E000BDE8104001F05CBD10BD00002DE9F04FAB
:1044F00081B040F60044C4F200042046012101F0DE
:1045000054FD002800F0D9802046012101F048FD2B
:1045100043F6E930C2F200000178002900F0CD80B6
:1045200043F64C41C2F200010A884FF4FA56571C78
:1045300043F63C42C2F20002128843F63E49B6FB03
:10454000F2F543F6E036BBB2C2F20006C2F2000951
:104550003288AB42B9F800300F8052D99A4250D21B
:10456000002004F58235088028464FF4005100F001
:10457000C0FD318842F64C070138C2F20007B0FA9C
:1045800080F07A5C400940EA4200785428464FF4B3
:10459000004100F0AEFD31880138B0FA80F07A5C5D
:1045A000400940EA420004F5803478542046022154
:1045B00000F09FFD31880138B0FA80F07A5C400944
:1045C00040EA4200785420464FF4805100F091FDBB
:1045D00031880138B0FA80F07A5C400940EA420044
:1045E00078542046202100F084FD31880138B0FA4B
:1045F00080F07A5C400940EA42007854481C3080E0
:104600005BE09A4259D30021017043F6E8304EF244
:104610000012C2F20000CEF2000201704FF48020BE
:104620003180C2F88400BFF34F8FBFF36F8F3180AA
:10463000B9F80000D0B343F6EB3440F2081542F667
:104640004C0A4FF0000BC2F20004C2F20005C2F2A5
:10465000000A00218FB21FFA80F847454FF0000092
:1046600084F800B016D2FA434244E819312A28BF30
:10467000312232300AEB07010132FBF785FD0120C0
:10468000312800F1010103D8384440450846F7D3EA
:10469000481E2070C0B2FDF7F5F9308800F13201F4
:1046A000B9F800008AB282423180D3D34EF20011B1
:1046B0004FF08050CEF20001086001B0BDE8F08FED
:1046C000816841F00801816081680907FCD4816834
:1046D00041F00401816000BF81684907FCD4704744
:1046E00080B5012908D0022918BF80BD4FF4401EB3
:1046F0006FF4401C382304E04FF4700E6FF4700C1C
:104700002C23195801EA0C0119500EEB02511A58CA
:1047100001EA0E011143195080BD8268002942F45C
:10472000006308BF22F4006383607047816841F42E
:104730008071816070478168C90718BF70478168C0
:1047400041F0010181607047002A01F001020AD0A6
:104750001AB1826842F48012826089070FD581689D
:1047600041F400410AE01AB1826822F480128260AA
:10477000890758BF7047816821F400418160704704
:10478000012905D0022918BF70476FF4E04101E00C
:104790006FF46021836819408160816811438160F2
:1047A000704742F20441C4F201010A6822F4702207
:1047B0000A600A6810430860704780B505290ED862
:1047C000D0F834C001EB810E1F2101FA0EF12CEA62
:1047D000010C02FA0EF141EA0C01416324E00B29BD
:1047E00010D801EB8101D0F830C0A1F11E0E1F21BD
:1047F00001FA0EF12CEA010C02FA0EF141EA0C0169
:10480000016311E010290FD201EB8101D0F82CC017
:10481000A1F13C0E1F2101FA0EF12CEA010C02FA63
:104820000EF141EA0C01C162092A04D800F1100C12
:1048300002EB420107E0112A88BF80BD02EB420172
:1048400000F10C0C1E39DCF800200720884022EA19
:10485000000003FA01F10843CCF8000080BDD0F855
:10486000802022F44052C0F88020D0F880201143EC
:10487000C0F880107047CA0703D0826842F48002F3
:104880008260890758BF7047816841F400118160D8
:104890007047002A01F4807210D01AB1426842F4C5
:1048A000807242604A0503D5426842F480624260E9
:1048B000890715D5816841F0020110E01AB14268FC
:1048C00022F4807242604A0503D5426822F4806275
:1048D0004260890758BF7047816821F002018160FA
:1048E000704710B546F20041C4F2000140F21A448C
:1048F000884208BF40F21944204601F034F82046AF
:10490000BDE8104001F01FB8B0B546F20061C4F236
:10491000000144890A684FF0010C42F001020A606C
:10492000CB690CFA04F5AB43CB61C3896FEA050C84
:10493000012B10D023BBCB6803EA0C03CB60B0F88B
:1049400006E0438843EA0E434FEAC40E01EBC40479
:10495000236403460DE0CB682B43CB60B0F800E046
:10496000438843EA0E434FEAC40E01EBC4042364B8
:10497000831D84881B8843EA044301EB0E046364AF
:1049800083894C68002B44EA050208BF04EA0C0244
:104990004A6002894B69002A43EA050408BF03EA1A
:1049A0000C044C61007C012802D1C8692843C8610D
:1049B000086820F001000860B0BD01F01F028909FD
:1049C0004FF0010C0B580CFA02F21A430A507047D0
:1049D0008A09105801F01F01C84000F0010070471B
:1049E00070B544F24022C0F20F02914284BF002011
:1049F00070BD04460068012520F002002060206898
:104A0000CFF6FF7540F0010020602846626820B1B3
:104A100012F0010200F10100F8D06068C00701D176
:104A2000002008E0E06900F04046084600F06EF91A
:104A30003043E0610120216821F00301216000BFC3
:104A4000616825B111F0030105F10105F8D1616834
:104A5000890718BF002070BDF0B5026840F2010C54
:104A600022F0020202600268CFF6FF7C42F00102EF
:104A700063460260426823B112F0010203F10103B0
:104A8000F8D04268D20704BF0020F0BD0A7891F840
:104A900001E08B789207CC7803F00F0503F07003E8
:104AA0006EF31C624F8942EA831204F0070604F099
:104AB000180442EA0542013F42EA84226FF39F272D
:104AC00042EA06523A44C2610A790368012A23F095
:104AD000800708BF43F0800707604A790368012A0E
:104AE00023F0400708BF43F0400707608A79036856
:104AF000012A23F0200708BF43F020070760CA7986
:104B00000368012A43F0100708BF23F0100707606D
:104B10000A7A0368012A23F0080708BF43F0080750
:104B20000760497A0268012922F0040308BF42F0B5
:104B300004030360016821F00101016042686146DD
:104B4000BCF1000F04D012F0010201F1010CF5D10B
:104B5000002918BF01210846F0BD0000B0B581B0A2
:104B600086468068400109D4DEF80800000107D4B9
:104B7000DEF80800C00005D4032074E0002002E045
:104B8000012000E002200EEB0013D3F8804104F076
:104B90000104C3F880410C7A1CB14A6844EAC2049B
:104BA00001E00C6864054A7A91F84BC0D3F8805153
:104BB00022432A43BCF1000FC3F8802105D0DEF860
:104BC0002020D20717D100BFFEE7D3F8842122F0BE
:104BD0000F02C3F884218A7AD3F884512A43C3F898
:104BE0008421D1F80B20C3F88821D1F80F104FF49D
:104BF000C672995031E091F80AE0BEF1090F724691
:104C00000CD346F2BC140022C0F60004A55CAE45ED
:104C100003D00132072AF9D1FEE7093291F84C405E
:104C200091F84D5042EACC1242EA441242EA05128F
:104C3000C3F8842100220B31B2EB9E0F009114D0F7
:104C40004FEA9E01009A013912680D06C3F88821C7
:104C5000009A02F104020092F4D1D3F8801141F0DD
:104C60000101C3F8801101B0B0BD00994FF4C472C6
:104C70000968BEE750B1022913D0012917D0A9B99C
:104C800047F20840C4F20000C2607047022914D005
:104C9000012918D051B947F20840C4F2000002605F
:104CA000704747F20840C4F200004261704747F283
:104CB0000840C4F200000261704747F20840C4F2A5
:104CC00000008260704747F20840C4F20000426072
:104CD000704747F20041C4F200010A686FF4803364
:104CE000002808BF6FF0010302EA03000860704764
:104CF00047F20441C4F200010A680223002808BFF9
:104D0000012342EA030008607047000010B5044622
:104D1000022000F083FDB0FBF4FE4AF6AB20CAF699
:104D2000AA20AEFB00021009B0EB9E0F12D24FEA90
:104D30009E0C831C01301622002400BFD11C594355
:104D4000714508D0013C14F11601A2F10102F5D120
:104D50006045EED3FEE746F23461C0F6000101EB98
:104D6000C401D1E92C216FF39F2002F00F0261F3FF
:104D7000165040EA024010BD40F20042C4F2020266
:104D8000904202D1052900D3FEE701EB810100EB3F
:104D90008100816821F001018160704740F200428A
:104DA000C4F20202904202D1052900D3FEE701EBD2
:104DB000810100EB8100816841F001018160704751
:104DC00040F20042C4F20202904202D1052900D30F
:104DD000FEE701EB810100EB8100816821F02001F9
:104DE0008160704740F20042C4F20202904202D158
:104DF000052900D3FEE701EB810100EB810081680A
:104E000041F02001816070478900436802FA01F196
:104E10001943416070470068890002FA01F10840B7
:104E200018BF01207047000040F20043C4F20203A3
:104E3000984202D1052900D3FEE780B5136801EB43
:104E4000810100EB8100036191684161118AC160B9
:104E50008168536821F47C5CD168D2F814E043EA9D
:104E60000C03194341EA0E01816092F818C083686F
:104E7000BCF1010F23F0400108BF43F04001816005
:104E800092F819C08368BCF1010F23F0800108BFBC
:104E900043F080018160917E8268002942F0100316
:104EA00008BF22F01003836080BD000040F2004381
:104EB000C4F20203984202D1052900D3FEE701EBB8
:104EC000810192B200EB8100C260704740F2004263
:104ED000C4F20202904202D1052900D3FEE701EBA1
:104EE000810100EB8100C068704740F2004CC4F2C1
:104EF000010CDCF80030012923EA0003CCF8003073
:104F0000DCF8043023EA0003CCF80430DCF8083085
:104F100023EA0003CCF80830DCF80C3023EA000365
:104F2000CCF80C3006D051B9DCF800100143CCF8B5
:104F3000001004E0DCF804100143CCF80410022A4D
:104F40000DD0012A6FEA00010DD0B2B9DCF80820BB
:104F50001043CCF80800DCF80C0008400BE0DCF84B
:104F60000810014302E0DCF808201140CCF80810DA
:104F7000DCF80C100843CCF80C00704740F20041FC
:104F8000C4F201010A6810430860704740F21441FE
:104F9000C4F201010860704740F20041C4F201010F
:104FA0004A690968024000EA010018BF012200288E
:104FB00018BF012010407047416170470161704780
:104FC0000C2240F2080C02EA81030F22C4F2010C09
:104FD000032902FA03F20BD8DCF800109840914341
:104FE000CCF80010DCF800100843CCF80000704743
:104FF00007290BD8DCF8041098409143CCF8041032
:10500000DCF804100843CCF8040070470B296FEA61
:1050100002010BD8DCF8082098401140CCF80810A9
:10502000DCF808100843CCF808007047DCF80C20C6
:1050300098401140CCF80C10DCF80C100843CCF868
:105040000C0070472DE9F047CF0601F00F0C09D591
:10505000042A05D1C26B4CF0030C1A43C26301E071
:105060004CEA020C00F1100E00F1140800244FF07D
:10507000010A4FF00F0900270AFA07F21A4010D070
:10508000056809FA04F6B5430CFA04F6282946EA3D
:10509000050603D0482903D1754600E045462A603D
:1050A00006600137082F04F10404E5D10824002527
:1050B0004FF0010A4FF00F090AFA04F21A4010D01B
:1050C000466809FA05F7BE430CFA05F7282947EAAE
:1050D000060703D0482903D1764600E046463260F1
:1050E00047600134102C05F1040508BFBDE8F087C6
:1050F000E2E78068084018BF01207047B0B504227D
:10510000C4F20102134602F1180E002848BF73468C
:105110001B6800F44014C0F30345B4F5401F1FFAA8
:1051200080FC06D1146823F0E06324F0E06414608E
:105130000DE0C40206D46FF00F0404EA50440CFAE8
:1051400004F401E00324AC40A34343F0E06331B135
:105150006FF00F0101EA50410CFA01F10B430028F6
:1051600048BF72461360B0BD4EF6235640F60004A9
:1051700040F20360CEF20006C4F2010400F0D4FB5A
:1051800004F580652846102104224FF48073FFF750
:1051900059FF28464FF48071FFF710FFFEF7FEFF1E
:1051A00040F20400C2F20000006841F25971CDF2F1
:1051B000B711A0FB01014FF0FF3000EB51304FF071
:1051C000000ABAEB106F0AD14EF21001CEF20001C4
:1051D0004860F02030700720C1F808A00860202047
:1051E00040F2ED0B43F6EA3843F6DC39307004F553
:1051F0007C46C2F2000BC2F20008C2F2000900BFF6
:10520000304600210222FFF706FE012814D1304665
:105210000021FFF75BFE14280ED001208BF802005E
:10522000304600210222FFF7EFFD43F60040C4F2B2
:105230000000012100F0A6FB9BF80200002871D0BD
:105240009BF805009BF80610C7288BF802A008BF42
:10525000C7292BD0662808BF662959D043F6EC37FA
:10526000C2F200073B8841EA00229A420ED047F280
:105270000440C4F200003A8042600146006840F0F9
:10528000010008609BF805009BF80610B9F80020A3
:1052900040F208175300C2F2000701333237F954C5
:1052A00007F81200501CA9F8000039E040F2BC00D9
:1052B000C2F2000080F800A0284604210422202326
:1052C000FFF7C0FE2846282104221023FFF7BAFE6C
:1052D0002846282104220823FFF7B4FE204628216F
:1052E00004224FF40043FFF7ADFE40F20810C2F273
:1052F0000000DC2180F832100120FCF7C3FB4EF2E5
:105300001000CEF200004FF08051C0F8F01009E01C
:10531000B9F80000400080B2FCF7B4FBA9F800A087
:10532000FCF75CF998F8000002280FD001287FF400
:1053300067AF28464FF48041FFF7DBFE012812D10A
:1053400020464FF40071FFF739FE11E020464FF47C
:105350000071FFF7CEFE012817D128464FF4804197
:10536000FFF72CFE16E020464FF40071FFF724FEF5
:1053700028464FF40051FFF7BCFE012817D1204604
:105380004FF48071FFF71AFE16E028464FF4804173
:10539000FFF712FE20464FF48071FFF7AAFE0128A6
:1053A00015D128464FF40051FFF708FE14E02046BF
:1053B0004FF48071FFF700FE20460421FFF799FEAD
:1053C000012814D128460221FFF7F8FD13E02846F2
:1053D0004FF40051FFF7F0FD28460221FFF789FE48
:1053E000012814D120460421FFF7E8FD13E02846E8
:1053F0000221FFF7E1FD20460821FFF77AFE012890
:1054000015D128464FF48051FFF7D8FD14E020460F
:105410000421FFF7D1FD28464FF48051FFF769FEC4
:10542000012816D120460821FFF7C8FD15E02846BF
:105430004FF48051FFF7C0FD20464021FFF759FE91
:10544000012818D104F500604FF48041FFF7B6FD44
:1054500017E020460821FFF7AFFD04F50067384646
:105460004FF48041FFF745FE012817D12046402127
:10547000FFF7A4FD16E004F500604FF48041FFF74C
:105480009BFD20460121FFF734FE012816D104F5CB
:1054900000604FF40051FFF791FD15E020464021D8
:1054A000FFF78AFD38464FF40051FFF722FE01282E
:1054B00015D120460121FFF781FD14E004F50060BD
:1054C0004FF40051FFF778FD20462021FFF711FE31
:1054D000012813D128462021FFF770FD12E0204655
:1054E0000121FFF769FD28462021FFF702FE012870
:1054F00015D120462021FFF761FD14E02846202128
:10550000FFF75AFD20460221FFF7F3FD012816D1CF
:1055100004F500604FF40041FFF750FD15E0204610
:105520002021FFF749FD38464FF40041FFF7E1FD28
:10553000012817D120460221FFF740FD16E004F5AF
:1055400000604FF40041FFF737FD20464FF4004163
:10555000FFF7CFFD012816D128464FF48071FFF7E1
:105560002DFD15E020460221FFF726FD28464FF4C9
:105570008071FFF7BEFD012816D120464FF400418F
:10558000FFF71CFD15E028464FF48071FFF714FD6E
:1055900028464FF48061FFF7ACFD012815D1204665
:1055A0008021FFF70BFD14E020464FF40041FFF788
:1055B00003FD20468021FFF79CFD012815D12846D8
:1055C0004FF48061FFF7FAFC14E020468021FFF7DA
:1055D000F3FC28464FF40061FFF78BFD012815D13D
:1055E00028460121FFF7EAFC14E028464FF48061C9
:1055F000FFF7E2FC28460121FFF77BFD012815D1CA
:1056000028464FF40061FFF7D9FC14E02846012139
:10561000FFF7D2FC20464FF48051FFF76AFD0128C6
:1056200015D128460421FFF7C9FC14E028464FF4A1
:105630000061FFF7C1FC28460421FFF75AFD01284D
:1056400016D120464FF48051FFF7B8FC15E02846EC
:105650000421FFF7B1FC20464FF40061FFF749FD3C
:10566000012817D128464FF40041FFF7A7FC16E0A8
:1056700020464FF48051FFF79FFC28464FF400412D
:10568000FFF737FD012816D120464FF40061FFF7E0
:1056900095FC15E028464FF40041FFF78DFC2046AD
:1056A0001021FFF726FD012816D120464FF4806116
:1056B000FFF784FC15E020464FF40061FFF77CFC07
:1056C00020464FF48061FFF714FD012814D12046D5
:1056D0001021FFF773FC13E020464FF48061FFF7C1
:1056E0006BFC28460821FFF704FD012813D128464A
:1056F0001021FFF763FC83E520461021FFF75CFCD7
:1057000028461021FFF7F5FC012809D12846082179
:10571000FFF754FC74E528461021FFF74DFC6FE5B8
:1057200028460821FFF748FC6AE54EF60C5CCEF2ED
:10573000000CDCF8003003F4E063A3F54073B3F52C
:10574000A06F03D21B0AC3F1040C08E040F200531F
:10575000C0F2FA53CCF8003002234FF0020C99400B
:105760000F2323FA0CF31A4011434EF20012CEF22B
:105770000002090140EA020383F8001300F01F0150
:10578000012303FA01F11C2303EAD0008150704782
:105790004FF68072C1F6FF72114008434EF6085171
:1057A000CEF200010860704710B541F2040CC4F25B
:1057B000020CDCF8001043F6FF72CEF6FF720A40CE
:1057C000DCF828100B2821F0005E21D8012383404B
:1057D0001C070CD113F4706F0CD04CF20003CFF601
:1057E000FC7303EA8030024341F0005E10E042EABD
:1057F00080320DE00121814011F0A00F08D04CF261
:105800000001CEF6FE7101EA8030104340F0805274
:10581000CCF80020CCF828E010BD000010B541F213
:10582000040EC4F2020EDEF8001001F00C0108298B
:1058300041F20021C0F27A0146D1DEF80030DB03EC
:1058400004D440F6001CC0F23D0C25E0DEF8283000
:10585000DEF828C05B0046F60043C0F2DC2358BFE8
:105860000B465FEACC3110D5DEF82810C1F3031CDB
:10587000DEF828100CF1010CC1F30321B3FBFCF39B
:105880000231112908BF14214B43DEF8281001F022
:105890000F010131B3FBF1FCDEF800301022C3F33D
:1058A0008343DEF8001002EA5161194401220F29F6
:1058B00038BF022253180F2B11BF03FB0CF10CEB66
:1058C0004C01490001EB5C01DEF800200328C2F323
:1058D0000313DEF80020C2F3022CDEF800400DD8DE
:1058E0000DA2D25C46F2B41E21FA02F3C0F6000EFD
:1058F000DFE800F00F02060919460AE0002108E07F
:105900001EF80C0003E0C4F3C2201EF8000023FAC6
:1059100000F1084610BD00BF0000000000000000BC
:10592000010203040607080941F2000300F01F0109
:105930008009C4F202034FF0010CC2580CFA01F1C5
:105940001143C150704741F2000300F01F0180096C
:10595000C4F202034FF0010CC2580CFA01F122EA22
:105960000101C150704741F2000300F01F0180099E
:10597000C4F202034FF0010CC2580CFA01F11143BA
:10598000C150704742686FF00103002908BF6FF0F3
:10599000020302EA030141607047426801230029C3
:1059A00008BF022342EA030141607047016841F0E9
:1059B00040010160704710B543F20001C4F20101DB
:1059C00088420FD043F60041C4F2000188420CD057
:1059D00043F60001C4F20001884218BF10BD40F236
:1059E0000E4404E04FF4437401E040F20F442046BB
:1059F000FFF7B9FF2046BDE81040FFF7A4BF80685D
:105A0000084018BF0120704770B50268D1E902E470
:105A100002F4415CD1E90032D1E9045643EA0C03B7
:105A20001A4342EA0E02224389692A433243114350
:105A30000160C16921F40061C16170BD416841F03C
:105A4000040141607047416841F0080141607047BE
:105A50000021C0E90511C0E90011C0E90211704739
:105A6000016841F0800101607047B1F800C04B88C7
:105A70008A8843EA0C0343EA020CCB880A8943EA8A
:105A80000C031A434B8989891A43114341647047B7
:105A9000022907D001290BD099B950F8201F21F015
:105AA00004010AE050F8201F120221F4806104E092
:105AB00050F8201F120121F04001016001681143DC
:105AC00001607047032988BF7047DFE801F0024199
:105AD00087CC016A21F0010101621188036A194330
