:020000040800F2
:1000000050400020650100086D0100086F010008E4
:10001000710100087301000875010008000000006C
:100020000000000000000000000000007701000850
:1000300079010008000000007B010008813E0008F3
:100040007F0100087F0100087F0100087F01000890
:100050007F0100087F0100087F0100087F01000880
:100060007F0100087F0100087F0100087F01000870
:100070007F0100087F0100087F0100087F01000860
:100080007F0100087F0100087F0100087F01000850
:100090007F0100087F0100087F0100087F01000840
:1000A0007F010008E93F00087F0100087F01000888
:1000B0000D4000087F0100087F0100087F01000853
:1000C0007F0100087F0100087F0100087F01000810
:1000D0007F0100087F0100087F0100087F01000800
:1000E0009B0600087F0100087F0100087F010008CF
:1000F0007F0100087F0100087F0100080000000068
:100100007F01000800000000C94000087F010008CE
:100110007F0100087F0100087F0100087F010008BF
:100120007F0100087F0100087F0100087F010008AF
:100130007F01000800000000000000007F010008AF
:100140007F0100087F0100087F0100087F0100088F
:10015000DFF80CD000F048FA00480047454D000891
:10016000504000200648804706480047FEE7FEE76B
:10017000FEE7FEE7FEE7FEE7FEE7FEE7FEE7FEE757
:10018000E13E00085101000840EA01039B0703D04B
:1001900009E008C9121F08C0042AFAD203E011F8C6
:1001A000013B00F8013B521EF9D27047D2B201E088
:1001B00000F8012B491EFBD270470022F6E710B56C
:1001C00013460A4604461946FFF7F0FF204610BDC5
:1001D00030B504460020034600E05B1C934203D286
:1001E000E05CCD5C401BF8D030BD000070B50F4D19
:1001F00000B92868002412E00A4602E09E4203D0BB
:10020000521C1378002BF9D1DAB2224305D02BB15E
:1002100024B1002100F8011B04E00446401C0678CC
:10022000002EE9D12860204670BD000000000020AB
:100230002DE9FE4F804681EA0300C00F0C46009076
:1002400021F0004123F00045B8EB0200A94105D29E
:100250004046214690461C460B46024623F000408D
:10026000104347D0270DC7F30A00C3F30A51029089
:10027000401A019040286BDAC3F3130040F4801B4E
:100280000098924620B10023D2EB030A63EB0B0BDC
:1002900001985946C0F14002504600F016F9064652
:1002A0000D4650465946019A00F02EF910EB080011
:1002B0006141002487EA115284EAE7731A4340D06F
:1002C000009A62B3019A012A4FEA075215DC001B1B
:1002D00061EB02014FF0004202EA0752CDE9004211
:1002E000001C41F5801132462B4600F02EF903B078
:1002F000BDE8F08F40462146F9E7001B61EB0201A3
:10030000001C41F5801300185B412018A2F500176E
:1003100047EB030140EAD570B6196D4111E06D0855
:100320004FEA360645EAC0754FEA0752001B61EBFB
:100330000201001C41F5801149084FEA3000001904
:10034000514132462B4603B0BDE8F04F00F0EEB805
:100350000098012240000023D0EB020263EBE0731F
:10036000009821464FEAE074B8EB000061EB04010D
:10037000E9E783F000435BE781F0004158E72DE9AE
:10038000F04D81EA030404F0004B21F000451446CF
:100390004FF0000A23F0004150EA050220D054EA51
:1003A00001021DD0C5F30A570246C5F31303C1F37A
:1003B0001300C1F30A5640F4801543F48013A7EBF1
:1003C0000608101BD64608F2FD3873EB050002D371
:1003D00008F1010801E092185B41B8F1000F03DA5F
:1003E00000200146BDE8F08D00204FF48011064644
:1003F00084460EE0171B73EB050705D3121B63EB56
:10040000050306434CEA010C49084FEA30009218F4
:100410005B4150EA0107EDD152EA030012D082EAB3
:10042000040083EA0501084305D0101BAB4106D246
:100430000122002306E000224FF0004302E06FF0AB
:10044000010253101AEB06004CEB085110EB0A00A6
:1004500041EB0B01BDE8F04D00F068B80EB5C10FDF
:1004600080EAE0700844CA07002140F233438DE877
:100470000E000A460B4600F068F803B000BD0EB54A
:1004800040F2334102910021CDE900110A460B46AA
:1004900000F05BF803B000BDC1F30A5210B5C1F320
:1004A000130140F2FF3341F480119A4201DA002037
:1004B00010BD40F233439A42A2F2334203DC52426F
:1004C00000F012F810BD904010BD202A04DB203A45
:1004D00000FA02F1002070479140C2F1200320FA97
:1004E00003F3194390407047202A04DB203A21FA95
:1004F00002F00021704721FA02F3D040C2F120023D
:100500009140084319467047202A06DBCB17203A52
:1005100041FA02F043EAE07306E041FA02F3D04008
:10052000C2F12002914008431946704710B5141ECD
:1005300073F1000408DA401C41F1000192185B419C
:100540001A4301D120F0010010BD2DE9F04D924673
:100550009B4611B1B1FA81F202E0B0FA80F220328A
:100560009046FFF7B2FF04460F4640EA0A0041EA10
:100570000B0153465A46084313D0114653EA010073
:1005800019D0C8F140025046FFF7AEFF05460E46AF
:10059000504659464246FFF798FF084305D00120D0
:1005A00004E020463946BDE8F08D0020054346EAC8
:1005B000E0762C4337430A986305E40AA0EB080071
:1005C0000022FD0A44EA47540A3002D500200146C1
:1005D000E9E7010510196941DDE90845001969419C
:1005E000BDE8F04DA2E70000064C074D06E0E068CC
:1005F00040F0010394E8070098471034AC42F6D36A
:10060000FFF7AAFD8C620008AC62000810B5002458
:10061000C4F20204A4F55C40012103F01AFF00BFFC
:1006200020460021022204F0E4F90028F8D02046F8
:1006300000210222BDE8104004F0D4B9B0B5014653
:10064000B0F8A0000022C1E9000246F2004491F88F
:10065000A400C4F200040A818872204604F06CF8F9
:1006600043F6EE31C2F2000143F6D83508704FF47C
:100670000071C2F20005022898BF01EBC001296099
:1006800089B2204603F092FF29680128F8D089B288
:100690002046BDE8B04003F07EBF80B54FF4004077
:1006A00004F068FAB8B1FFF7B1FF40F20800C2F2F7
:1006B0000000008840F2ED0100BAC2F20001000C17
:1006C000A1F80700022000F012FF4FF40040BDE83F
:1006D000804004F049BA80BD10B588B000208DF884
:1006E0001E0040F20800C2F2000003904FF40060C8
:1006F000049042F24C40C4F2010001904FF480702B
:10070000ADF81C004FF40070029001200024059009
:100710004FF44050C4F20204069001AA2046002182
:1007200004F070F92046002104F04AF92046002127
:1007300004F022F9002003F022FE42F20044C4F249
:10074000010420464FF48071012203F090FE204600
:100750000221002203F08BFE2046002103F0CBFD96
:100760002046002103F069FE20460121012203F00A
:10077000A5FD204601214FF4602203F0EFFD204645
:100780000121012203F0CEFD204600210022012399
:1007900003F001FE204603F0BCFD204603F07EFD81
:1007A000204603F0B1FD45F20000CFF6FF7021585E
:1007B000002241F0010121500020002104F048F8FE
:1007C000002004F083F808B010BD10B588B00020F8
:1007D0008DF81E0040F20800C2F2000003904FF4B2
:1007E0000060049042F24C40C4F2010001904FF4CA
:1007F0008070ADF81C004FF40070029001200024BE
:1008000005904FF44050C4F20204069001AA20461D
:10081000002104F0F7F82046002104F0D1F820462A
:10082000002104F0A9F84FF4C02003F0A8FD42F223
:100830000044C4F2010420464FF48071012203F009
:1008400016FE20460221002203F011FE2046002160
:1008500003F051FD2046002103F0EFFD2046012169
:10086000012203F02BFD204601214FF4602203F00A
:1008700075FD20460121012203F054FD2046002190
:100880000022012303F087FD204603F042FD2046AD
:1008900003F004FD204603F037FD45F20000CFF6DB
:1008A000FF702158002241F0010121500020002159
:1008B00003F0CEFF002004F009F808B010BD70B5B9
:1008C00040F60004C4F2010404F500663046042139
:1008D00004224FF4005304F0A3F93046042104220B
:1008E0004FF4004304F09CF904F580652846042188
:1008F0000422022304F094F92846042104224FF430
:10090000805304F08DF9284604210422202304F0AA
:1009100087F93046042104224FF4804304F080F923
:10092000204604210422802304F07AF92846042179
:100930000422012304F074F928460421042204232C
:1009400004F06EF92846042104224FF4004304F019
:1009500067F92046042104224FF4806304F060F913
:100960002846042104224FF4807304F059F92046EC
:10097000042104224FF4007304F052F920460421AC
:1009800004224FF4807304F04BF92846042104221A
:100990004FF4804304F044F92846042104224FF424
:1009A000005304F03DF9204604210422012304F001
:1009B00037F9204604210422022304F031F92046AD
:1009C00004210422042304F02BF9204604210422EC
:1009D000082304F025F9204604210422202304F0F2
:1009E0001FF9204604210422402304F019F920466F
:1009F00004210422102304F013F9284604210422C0
:100A00004FF4806304F00CF92846042104224FF4CB
:100A1000006304F005F92046042104224FF48053BA
:100A200004F0FEF82046042104224FF40063BDE8E0
:100A3000704004F0F5B870B540F60004C4F201044B
:100A400004F500663046102104224FF4005304F0F0
:100A5000E7F83046102104224FF4004304F0E0F898
:100A600004F58065284610210422022304F0D8F8FA
:100A70002846102104224FF4805304F0D1F8284670
:100A800010210422202304F0CBF830461021042248
:100A90004FF4804304F0C4F8204610210422802340
:100AA00004F0BEF8284610210422012304F0B8F80F
:100AB000284610210422042304F0B2F8284610210D
:100AC00004224FF4004304F0ABF820461021042226
:100AD0004FF4806304F0A4F82846102104224FF458
:100AE000807304F09DF82046102104224FF4007317
:100AF00004F096F82046102104224FF4807304F08D
:100B00008FF82846102104224FF4804304F088F81F
:100B10002846102104224FF4005304F081F82046A7
:100B200010210422012304F07BF820461021042226
:100B3000022304F075F8204610210422042304F057
:100B40006FF8204610210422082304F069F820469B
:100B500010210422202304F063F8204610210422EF
:100B6000402304F05DF8204610210422102304F0F5
:100B700057F82846102104224FF4806304F050F8FF
:100B80002846102104224FF4006304F049F820465F
:100B9000102104224FF4805304F042F82046102123
:100BA00004224FF4006304F03BF82846102104228D
:100BB000082304F035F8284610210422102304F0FD
:100BC0002FF82046102104224FF40043BDE8704066
:100BD00004F026B8B0B588B0044646F2004540F2AD
:100BE0001970C4F2000504F07DFC284603F067FC90
:100BF0004FF40130CDF815000020CDF8190021790F
:100C00008DF81D008DF8141005A9284603F012FD7B
:100C10002068FA2818BFB0F57A7F17D14FF47A719F
:100C20004143284603F0CAFC0020CDF80A00CDE974
:100C3000000060790121ADF80E10ADF8080068469B
:100C40008DF8101003F04EFC08B0B0BDB0F5FA7F7F
:100C5000E4D04EF64801C0F20101E2E710B54FF4CE
:100C6000C06004F03FFC40F2026004F03BFC40F640
:100C70000004C4F201042046482103224FF400631B
:100C800003F0CEFF2046182103224FF48053BDE825
:100C9000104003F0C5BF80B541F20000C4F201006E
:100CA0001C2104224FF4004303F0BAFF02200F215D
:100CB00003F074FF4FF400400021002203F003FF13
:100CC0004FF4004003F048FF282001210022BDE836
:100CD000804004F008BB70B540F60005C4F2010581
:100CE00005F580642046042104224FF4804303F07C
:100CF00097FF2046042104224FF4005303F090FF95
:100D0000284604210422042303F08AFF28460421F4
:100D10000422082303F084FF2846042104224023F0
:100D200003F07EFF284604210422012303F078FF0C
:100D3000284604210422202303F072FF28460421C0
:100D40000422022303F06CFF2846042104224FF4FE
:100D5000004303F065FF2046042104224FF4806322
:100D600003F05EFF2046042104224FF4006303F0E9
:100D700057FF2846042104224FF4805303F050FF0C
:100D80002846042104224FF4006303F049FF28465B
:100D900004210422102303F043FF204604210422EF
:100DA000082303F03DFF2846102104224FF400736E
:100DB00003F036FF2846102104224FF4807303F01D
:100DC0002FFF204610210422022303F029FF204692
:100DD000102104224FF4805303F022FF05F5006632
:100DE0003046102104224FF4804303F019FF3046AF
:100DF000102104224FF4005303F012FF204610216B
:100E00000422202303F00CFF3046102104224FF46B
:100E1000004303F005FF2046102104224FF48073A5
:100E200003F0FEFE284610210422802303F0F8FE82
:100E3000204610210422012303F0F2FE2046102157
:100E40000422042303F0ECFE2046102104224FF478
:100E5000004303F0E5FE2846102104224FF480638E
:100E600003F0DEFE204610210422102303F0D8FEFA
:100E700040F20020C0F230000121BDE8704003F0D4
:100E80002BBF70B540F60004C4F2010420460421D3
:100E900004224FF4007303F0C3FE20460421042211
:100EA0004FF4807303F0BCFE04F5806528460421EE
:100EB0000422022303F0B4FE2846042104224FF446
:100EC000805303F0ADFE04F5006630460421042291
:100ED0004FF4804303F0A4FE3046042104224FF473
:100EE000005303F09DFE284604210422202303F032
:100EF00097FE3046042104224FF4004303F090FE95
:100F00002846042104224FF4807303F089FE204612
:100F100004210422802303F083FE284604210422B6
:100F2000012303F07DFE284604210422042303F05C
:100F300077FE2846042104224FF4004303F070FE9C
:100F40002046042104224FF4806303F069FE284602
:100F500004210422102303F063FE284610210422FA
:100F60004FF4804303F05CFE2846102104224FF426
:100F7000005303F055FE204610210422042303F001
:100F80004FFE204610210422082303F049FE20468C
:100F900010210422402303F043FE204610210422A6
:100FA000012303F03DFE204610210422202303F0FC
:100FB00037FE204610210422022303F031FE204692
:100FC000102104224FF4004303F02AFE284610218A
:100FD00004224FF4806303F023FE284610210422EC
:100FE0004FF4006303F01CFE2046102104224FF44E
:100FF000805303F015FE2046102104224FF40063B5
:1010000003F00EFE204610210422102303F008FEF8
:10101000284610210422082303F002FE40F200209B
:10102000C0F230000121BDE8704003F055BE70B53C
:1010300040F2026004F056FA40F2036004F052FA03
:1010400040F2046004F04EFA40F2096004F04AFAFB
:1010500040F20A6004F046FA012004F083F94FF4EC
:10106000A06004F03FFA40F21D7004F03BFA4FF428
:10107000C06004F037FA40F60004C4F2010404F53D
:1010800080652846102104224FF4007303F0C8FD48
:101090002046282104224FF4005303F0C1FD2046CE
:1010A000282104224FF4804303F0BAFD2046282172
:1010B00004224FF4004303F0B3FD28462821042204
:1010C000082303F0ADFD284628210422102303F055
:1010D000A7FD40F20020C0F23000012103F0FCFD2A
:1010E00004F500663046042104224FF4005303F057
:1010F00097FD3046042104224FF4004303F090FD95
:10110000284604210422022303F08AFD28460421F4
:1011100004224FF4805303F083FD28460421042267
:10112000202303F07DFD3046102104224FF480433C
:1011300003F076FD204610210422802303F070FD89
:10114000284610210422012303F06AFD28461021BD
:101150000422042303F064FD2846102104224FF4E6
:10116000004303F05DFD2046102104224FF480630C
:1011700003F056FD2846102104224FF4807303F03B
:101180004FFD2046182104224FF4007303F048FD60
:101190002046182104224FF4807303F041FD2846B5
:1011A000182104224FF4804303F03AFD2846182109
:1011B00004224FF4005303F033FD204600210422A3
:1011C000012303F02DFD204600210422022303F019
:1011D00027FD204600210422042303F021FD2046A0
:1011E00000210422082303F01BFD204600210422D5
:1011F000202303F015FD204600210422402303F0A4
:101200000FFD2046002104221023BDE8704003F0AA
:1012100007BD000070B544F60004C4F2000404F5F4
:10122000DC36054630460121022203F0DBFB304666
:10123000012103F08FFB304601212A4603F024FCF4
:101240002046802104F023FD3046012103F094FB69
:101250002046062104F032FD08B900BFF8E7204619
:10126000062104F01FFD20460021BDE8704004F077
:101270000EBD2DE9F04F87B005464FF4A06004F095
:1012800031F940F2127004F02DF940F2065004F0EA
:1012900029F944F600046869C4F20004002704F543
:1012A000DC36E8468DF81A70CDE9020704F104092E
:1012B0004FF4807A4FF4805B304602214246CDF8ED
:1012C0000090ADF818A001970497CDF814B003F082
:1012D00099FB3046022103F073FB3046022103F0F4
:1012E0004BFB296901208DF81A00CDE90217304621
:1012F00001214246CDF80090ADF818A00197CDE944
:10130000047B03F07FFB3046012103F047FB3046AE
:10131000012103F031FB204604F076FC29682046C9
:1013200004F035FC6968204604F0DCFCE9682046DE
:1013300004F007FDA968204604F0F5FC20460021D2
:1013400004F05AFC2046002104F0C6FC204600218F
:1013500004F0BCFC204604F0D3FC2046322104F00B
:10136000D6FC2046402104F08CFC2046802104F06D
:101370008EFC2046082104F0DEFC2046042104F007
:10138000B9FC204604F089FC07B0BDE8F08F0000EE
:10139000B0B544F600050446C4F20005284642F202
:1013A000102104F08BFC0028F8D12046BDE8B040A5
:1013B000FFF730BF10B54FF4C06004F093F840F26F
:1013C000036004F08FF840F60044C4F201042046A4
:1013D000182103224FF4806303F022FC20460421ED
:1013E00003224FF40063BDE8104003F019BC2DE95F
:1013F000F04F8FB0054640F2015004F073F840F210
:101400000F7004F06FF843F60049A868C4F20009B1
:10141000002709F5E4360DF120088DF83A70CDE982
:101420000A0709F10C044FF4807A4FF4405B304610
:10143000002142460894ADF838A009970C97CDF8E2
:1014400034B003F0DFFA3046002103F0B9FA304639
:10145000002103F091FA696801208DF83A00CDE986
:101460000A173046012142460894ADF838A0099782
:10147000CDE90C7B03F0C6FA484604F07AF801AED9
:10148000304604F0C3F828680C352ECDCDE901179D
:10149000CDE9030748463146CDE90553079204F0EC
:1014A00091F8484604F0ADF8484604F0A5F84846DF
:1014B00004F05AF80FB0BDE8F08FB0B540F2004527
:1014C000C4F2020504462846002103F043FA2846E8
:1014D0000021224603F0D8FAA5F5E430012104F0FA
:1014E0003AF828460021BDE8B04003F045BAB0B54F
:1014F00040F20045C4F2020504462846012103F0EB
:1015000029FA28460121224603F0BEFAA5F5E43067
:10151000002104F020F828460121BDE8B04003F086
:101520002BBA0000B0B540F20044C4F202040546F4
:101530002046012103F00EFA204601212A4603F03D
:10154000A3FAA4F5E4352846002104F004F8204667
:10155000012103F011FA00BF20460121022203F00D
:1015600048FA0028F8D020460121022203F03AFA76
:1015700028460021BDE8B04003F0E2BF0220FFF79B
:101580009CBF0000B0B543F600450446C4F2000518
:101590002846022104F011F80028F9D02046BDE8C1
:1015A000B040FFF7BFBF10B54FF4C06003F09AFF23
:1015B00040F2036003F096FF40F2026003F092FFF6
:1015C00040F60044C4F201042046182103221023EF
:1015D00003F026FB204604210322202303F020FBF6
:1015E000204604210322082303F01AFBA4F580609F
:1015F000042103224FF4004303F012FB40F20020C9
:10160000C0F230000121BDE8104003F065BBF0B529
:101610008BB00646450840F20B6003F063FF42F6CC
:101620000044C4F20104204604F08AF90027FF2098
:101630000996ADF81C70ADF82870CDF81E708DF8C5
:101640002A0007A9204604F024FA0120C0F2040071
:1016500004AE0697CDE9040720460021324604F087
:101660000FF820460121324604F00AF820460021F6
:10167000002204F043F920460021002203F0E6FF97
:1016800020460121002204F039F9204601210022E0
:1016900003F0DCFF204600212A4604F00DF9204625
:1016A0000021602204F0ECF820460021002204F022
:1016B00009F9204601212A4604F0FEF820460121BE
:1016C000702204F0DDF820460121002204F0FAF82F
:1016D0001520CDE900704FF4804002906946204605
:1016E000ADF80C7003F09FFF19200221002203F0D7
:1016F000FAFD2046012104F02DFA204604F0C4F939
:101700000BB0F0BD10B584B004464FF4E06003F0B8
:10171000E9FE4FF0804004F013F900200294ADF888
:101720000000ADF80C00CDF802008DF80E006946FF
:101730004FF0804004F0ADF91C200121002203F09D
:10174000D2FD4FF08040012104F004FA4FF08040B8
:10175000012104F013FA4FF0804003F05FFF4FF0D7
:10176000804004F091F904B010BDB0B584B00546D6
:1017700040F2037003F0B6FE40F60044C4F20004E9
:10178000204604F0DDF800200295ADF80000ADF829
:101790000C00CDF80200FF208DF80E0069462046AF
:1017A00004F077F92046012104F0D4F94EF28410B8
:1017B000CEF200004FF480210160BFF34F8F20462E
:1017C000BFF36F8F04F060F904B0B0BDB0B5002571
:1017D000C4F2020504462846042103F0BBF828465B
:1017E0000421224603F050F9A5F54840402104F0B9
:1017F00048FA28460421BDE8B04003F0BDB8000017
:1018000070B543F60004C4F2010404F548460546E9
:1018100030460321022203F0E5F83046032103F0AD
:1018200099F8304603212A4603F02EF920468021FC
:1018300004F02DFA3046032103F09EF820460621DD
:1018400004F03CFA08B900BFF8E72046062104F08E
:1018500029FA20460021BDE8704004F018BA2DE9AD
:10186000F04F87B005464FF4A06003F03BFE40F216
:101870000E6003F037FE40F2065003F033FE686955
:1018800043F600040027C4F201048DF81A70CDE974
:10189000020704F104094FF4807A322004F5484627
:1018A000E846CDF80090ADF818A0019704904FF4E9
:1018B000005B304604214246CDF814B003F0A2F894
:1018C0003046042103F07CF83046042103F054F83C
:1018D000296901208DF81A00CDE90217304603214D
:1018E0004246CDF80090ADF818A00197CDE9047BF1
:1018F00003F088F83046032103F050F83046032106
:1019000003F03AF8204604F07FF92968204604F0F5
:101910003EF96968204604F0E5F9E968204604F0DC
:1019200010FAA968204604F0FEF92046002104F0D0
:1019300063F92046002104F0CFF92046002104F08D
:10194000C5F9204604F0DCF92046FF2104F0DFF958
:101950002046402104F095F92046802104F097F9B3
:101960002046082104F0E7F92046042104F0C2F9DA
:10197000204604F092F907B0BDE8F08FB0B543F609
:1019800000050446C4F20105284642F2102104F085
:1019900095F90028F8D12046BDE8B040FFF730BFE8
:1019A00010B54FF4C06003F09DFD40F2036003F0FA
:1019B00099FD0420C4F20100016840F6004441F0A2
:1019C0000401C4F2010401602046182103224023CF
:1019D00003F026F92046042103228023BDE81040AD
:1019E00003F01EB9000000002DE9F04F81B040F275
:1019F0000818C2F2000842F2437018F800100029DB
:101A000002F093804EF200120021CEF2000208F89C
:101A100000104FF08050C2F88000BFF34F8F43F6A4
:101A2000F03BBFF36F8FC2F2000BD8E90840D8E952
:101A30000A12D8E900E9D8E902A3D8E90476CBE98B
:101A40000840B8F83000D8E9065CCBE90A1245F640
:101A50007F51CBE900E9CBE902A3CBE90476ABF8EF
:101A60003000C0F600015846CBF81850CBF81CC027
:101A7000FEF7BCFB43F6404AC2F2000A0FF6CC71F7
:101A800003220546CAF80000FEF7A2FB002800F07A
:101A9000A2809BF80060102E00F09D800FF6B071C0
:101AA00028460322FEF794FBAD2E18BF002840F015
:101AB000E58045F67F51C0F600010020FEF796FB59
:101AC000CAF800000546006844F25256C4F2414686
:101AD000B04200F03D819BF80170FD2F00F038818D
:101AE0000FF6707128460722FEF772FB5A2F18BFB7
:101AF000002840F0A682002800F06F86FFF753FD13
:101B00009BF802009BF8031043F6444841EA00208A
:101B100043F6E235C2F20008C2F200050021A8F83F
:101B200000002980B0B340F2080640F2ED07C2F28F
:101B30000006C2F200074FF4045400BFFEF766FD32
:101B40003088718800BA000CA7F8070008BAB1887D
:101B5000000CA7F8090008BAF188000CA7F80B00E0
:101B600008BA3189000CA7F80D0008BA7189000C79
:101B7000A7F80F00080A78740E20B974A7F813406C
:101B8000FFF700FD2888B8F80010013082B28A42C1
:101B90002880D3D340F60004C4F2010404F5806524
:101BA000284604210422202303F03AF8284628215D
:101BB0000422102303F034F82846282104220823A5
:101BC00003F02EF82046282104224FF4004303F0AE
:101BD00027F801F09CBF45F67F51C0F600010020B8
:101BE000FEF704FBCAF800000546008844F64F677C
:101BF000B84200F081809BF80160052E7CD045F64C
:101C00009851C0F6000128460322FEF7E1FA0A2E99
:101C100018BF002840F0028140F60000C4F2010025
:101C200000F5105420460021002203F067FE2046F4
:101C30000021002203F00AFD20460121002203F0CA
:101C40005DFE20460121002203F000FDDAF80000CD
:101C500045F69851C0F600010322FEF7B9FA0028B4
:101C600041F04F8745F6F07108F13200C0F60001EF
:101C70000A22FEF789FA0A2001F047BF45F694517F
:101C8000C0F6000128460322FEF7A2FADC2E18BF98
:101C9000002840F00981FEF798FDFFF76FFC43F63E
:101CA0004741C2F200010125DAF800000D7045F647
:101CB0009451C0F600010322FEF78AFA002800F0D2
:101CC000388240F2BC00BBF80110C2F2000005707F
:101CD00008BA020C43F6EC30C2F200000280002089
:101CE000002102F0B5FD002002F0F0FDFFF75BFCE3
:101CF000AC2088F832004DE240F60000C4F201004A
:101D000000F5105420460021012203F0F7FD204683
:101D10000021042203F09AFC20460121012203F055
:101D2000EDFD20460121042203F090FCDAF80000CA
:101D30000088B84241F0E58645F6FC7108F13200B2
:101D4000C0F600010B22FEF71FFA0B2001F0DDBEEA
:101D500040F2080743F624450024C2F20007C2F20D
:101D6000000500BFFEF752FC002000BF37F810103E
:101D700055F82020114445F8201001300628F5D1EF
:101D800001340A2CEED3DAF800000068B04200F00B
:101D9000178295E88E004CF6CD40CCF6CC40A1FBE6
:101DA0000061A2FB0062A3FB0036A7FB00372B6992
:101DB0004FF0110AA3FB00346B69A3FB0003C808B2
:101DC000C90A88F8321088F833002020D108D20AD6
:101DD00088F8340088F8352088F83610F108F20ABF
:101DE00088F8370088F8382088F83910F908FA0A96
:101DF00088F83A0088F83B2088F83C10E108E20AAD
:101E000088F83D0088F83E2088F83F1088F84000A8
:101E1000D80800BA000CA8F8410098E3286845F2F9
:101E20004621C5F24511401A18BF0120FC2E18BFEB
:101E3000002840F01E81002800F0AA849BF80200D0
:101E40009BF8031041EA0020FEF708FB9FEDD80B3A
:101E500002460B4651EC100BFEF791FA9FEDD60BA4
:101E600053EC102BFEF7E4F9FEF716FBFFF7CFFB60
:101E700040F60000C4F2010000F510542046002195
:101E8000012203F03BFD20460021042203F0DEFB8B
:101E900020460121012203F031FD204601210422C8
:101EA00003F0D4FB01F02DBE286845F24701C4F6CB
:101EB0004971401A18BF01206F2E18BF002840F04A
:101EC000F58045F67F51C0F600010020FEF78EF93F
:101ED000CAF80000016844F25252C4F24142054679
:101EE000881A18BF0120914200F03D839BF80190B1
:101EF000B9F17D0F00F0378345F6A551C0F600011A
:101F000028460722FEF764F9B9F17F0F18BF0028B1
:101F100040F0EB84FEF7D3FCDAF8000045F6A5515B
:101F2000C0F600010722FEF753F940F60004C4F2A0
:101F30000104002801F03A80002004F50065C8F88B
:101F4000320028464FF4005102F0C1FE0138B0FAC9
:101F500080F098F83210400940EA410088F83200D9
:101F600028464FF4804102F0B2FE0138B0FA80F00A
:101F700098F83210400940EA410088F832002846BB
:101F80004FF4004102F0A3FE0138B0FA80F098F857
:101F90003210400940EA410088F832002046012111
:101FA00002F095FE0138B0FA80F098F8321040093E
:101FB00040EA410088F832002046022102F087FE04
:101FC0000138B0FA80F098F83210400940EA410038
:101FD00088F832002046042102F079FE0138B0FA78
:101FE00080F098F83210400940EA410088F8320049
:101FF0002046082102F06BFE0138B0FA80F098F814
:102000003210400940EA410088F832002046102191
:1020100002F05DFE0138B0FA80F098F83210400905
:1020200040EA410088F832002046202102F04FFEAD
:10203000012840F0CE8798F832004000013000F0CF
:10204000CBBF45F69C51C0F6000128460822FEF79A
:10205000BFF8372F18BF002840F0DC82002800F0BE
:10206000BB859BF80250AC20012488F8320000F0B8
:10207000DCBD288845F24441401A18BF0120D12E0A
:1020800018BF002840F00C83002800F0238542F69A
:102090002C40C4F20100816921F0FF0181619BF8AD
:1020A000021082691143816101F02BBD286844F25E
:1020B0005511C5F25241401A18BF0120CA2E18BF4F
:1020C000002840F0278345F67F51C0F6000100202C
:1020D000FEF78CF8CAF80000008844F65455A84270
:1020E00004D09BF80000CA2841F0118540F2C000DE
:1020F0000FF66812C2F20000DFF86019D2E901376A
:10210000D26800F1140C8CE88A0002621020FFF7FC
:102110003FF9DAF800000088A84241F0F28408F1A3
:1021200032000FF64C111522FEF72EF8152001F0A3
:10213000ECBC45F67F51C0F6000100200024FEF7FC
:1021400055F8CAF800000178A1F13002092A0FD829
:102150000022002404EB84035B00013253FA81F374
:1021600091B2415CA3F13004A1F130070A2FF1D301
:10217000A2B20020002102F06BFB002002F0A6FBBF
:1021800045F6BC5108F13200C0F600010D220D25C4
:10219000FDF7FAFF2846FFF7F1FB40F20810C2F204
:1021A00000003221FEF709F801F0BFBC00BF00BFFC
:1021B00000000000004CFD40000000000000F0BFE7
:1021C00028684CF6CD46CCF6CC46A0FB060E42F273
:1021D0003A00A8F8360044F24920C5F2553044F6DA
:1021E000D35BC8F83200CEF3CF00C1F2620BA0FB84
:1021F0000B2348F21F599A09C5F2EB19A0FB0937C6
:10220000A2FB063C7B09A0FB0607A3FB0604F8081B
:10221000A0FB06714FEADC0707EB8707A2EB47023A
:10222000C90842F03002E70801EB810188F8382044
:102230004FEADE0207EB8707A0EB410100EB8000CD
:10224000A3EB4703A2EB400043F0300341F0300121
:1022500040F0300088F8393088F83A1088F83B00B0
:1022600040F60D20A8F83C000C204FF00C0AFFF7B8
:1022700085FB6868A0FB060E42F23A00A8F836001B
:1022800044F25610C4F64340C8F83200CEF3CF00F3
:10229000A0FB0B239A09A0FB0937A2FB063C7B0994
:1022A000A0FB0607A3FB0604F808A0FB06714FEA93
:1022B000DC0707EB8707A2EB4702C90842F03002B0
:1022C000E70801EB810188F838204FEADE0207EBCE
:1022D0008707A0EB410100EB8000A3EB4703A2EBD3
:1022E000400043F0300341F0300140F0300088F806
:1022F000393088F83A1088F83B0040F60D20A8F8ED
:102300003C000C20FFF73AFBA868A0FB060E44F641
:102310004940C2F23A00C8F83200CEF3CF00A0FB29
:102320000B239A09A0FB0937A2FB063C7B09A0FB03
:102330000607A3FB0604F808A0FB06714FEADC07BA
:1023400007EB8707A2EB4702C90842F03002E70813
:1023500001EB810188F836204FEADE0207EB8707A0
:10236000A0EB410100EB8000A3EB4703A2EB400090
:1023700043F0300341F0300140F0300088F837304E
:1023800088F8381088F8390040F60D20A8F83A008F
:102390000A20FFF7F3FAE868A0FB060E42F23A00C3
:1023A000A8F8360044F25450C5F24D00C8F8320087
:1023B000CEF3CF00A0FB0B239A09A0FB0937A2FBA9
:1023C000063C7B09A0FB0607A3FB0604F808A0FB5C
:1023D00006714FEADC0707EB8707A2EB4702C90843
:1023E00042F03002E70801EB810188F838204FEA1B
:1023F000DE0207EB8707A0EB410100EB8000A3EBB7
:102400004703A2EB400043F0300341F0300140F0BD
:10241000300088F8393088F83A1088F83B0040F6E8
:102420000D20A8F83C000C20FFF7A8FA2869A0FBB3
:10243000060E42F23A00A8F8360044F25610C4F6EE
:102440004350C8F83200CEF3CF00A0FB0B239A090B
:10245000A0FB0937A2FB063C7B09A0FB0607A3FBF8
:102460000604F808A0FB06714FEADC0707EB8707B4
:10247000A2EB4702C90842F03002E70801EB8101F4
:1024800088F838204FEADE0207EB8707A0EB41010E
:1024900000EB8000A3EB4703A2EB400043F03003C6
:1024A00041F0300140F0300088F8393088F83A10B7
:1024B00088F83B0040F60D20A8F83C000C20FFF700
:1024C0005DFA6869A0FB060142F23A00A8F83600FE
:1024D00044F25620C5F25530C8F83200C1F3CF009F
:1024E000A0FB0B239A09A0FB0937A2FB06357B0949
:1024F000A0FB0607A3FB0604F808A0FB0676EF087E
:1025000007EB8707A2EB470242F0300288F8382039
:10251000E20802EB8202A3EB420242F0300288F8AA
:102520003920F20802EB8202C908A0EB420200EB5C
:102530008000A1EB400042F0300240F0300088F80B
:102540003A2088F83B0040F60D20A8F83C005046A1
:10255000FFF714FA43F62440C2F200001821FDF7F9
:102560002CFE01F0D4BA002800F0E58240F6000508
:10257000C4F20105002005F5006488F83200204609
:102580004FF4005102F0A3FB0138B0FA80F098F844
:102590003210400940EA410088F8320020464FF4EA
:1025A000004102F094FB0138B0FA80F098F8321044
:1025B000400940EA410005F5806488F83200204671
:1025C000022102F084FB0138B0FA80F098F8321052
:1025D000400940EA410088F8320020464FF480511B
:1025E00002F075FB0138B0FA80F098F8321040091B
:1025F00040EA410088F832002046202102F067FBC3
:102600000138B0FA80F098F83210400940EA4100F1
:1026100001F078BA286845F25346C5F24F06801B90
:1026200018BF0120302F18BF002841F0708240F6FB
:102630000004C4F2010404F50060042104224FF4F4
:10264000004302F0EDFA04F58065284604210422D7
:10265000202302F0E5FA284628210422102302F064
:10266000DFFA284628210422082302F0D9FA20465E
:10267000282104224FF4004302F0D2FADAF80000D5
:102680000068B04241F03D8246F2AC1108F13200E0
:10269000C0F600011122FDF777FD112001F035BAD7
:1026A000288844F24431401A18BF0120DC2E18BF9C
:1026B000002841F02C82002800F0908342F62C4044
:1026C000C4F2010090ED000A9FEDEF2AB8EE400A37
:1026D0009BF8021001EE101AB8EE411A81EE021AB0
:1026E00021EE000ABCEEC00A80ED020A90ED000A5D
:1026F000B8EE400A9BF8021001EE101AB8EE411A2B
:1027000081EE021A21EE000ABCEEC00A80ED030A37
:1027100001F0F7B9DDA128460322FDF759FDC52ECA
:1027200018BF002841F0F38145F67F51C0F6000143
:102730000020FDF75BFDCAF80000008844F6545500
:10274000A84204D09BF80000C52841F0E08140F287
:102750001400C2F200005521A0F8A010032180F857
:10276000A41045F24D01A0F80B1053214173FDF761
:1027700065FFDAF800000088A84241F0C28108F144
:102780003200C3A11322FDF7FFFC132001F0BDB9F5
:1027900045F67F51C0F600010020FDF727FDCAF87D
:1027A00000000178A1F13002092A00F2DB81002249
:1027B000002300BF03EB83035B00013253FA81F374
:1027C00091B2415C303BA1F130070A2FF2D398B2AD
:1027D000FDF755FE41EC100BC6E145F67F51C0F602
:1027E000000100200024FDF701FDCAF80000017877
:1027F000A1F13002092A00F236820022002300BF34
:1028000003EB83035B00013253FA81F391B2415C25
:10281000303BA1F130070A2FF2D343F6444943F687
:10282000DE3AC2F20009C2F2000A00201904A9F837
:102830000030AAF8000001F06A814CF6CD4BCCF6CE
:10284000CC4BFDF7E3FE40F20800C2F20000008826
:1028500044F6D351C1F26201A0FB0112910948F282
:102860001F52C5F2EB12A0FB0223A1FB0B27FF08AE
:1028700007EB87075A09A1EB4701A2FB0B3541F093
:10288000300188F83210E908A0FB0B3401EB81011C
:10289000E308A2EB4101A3FB0B4641F0300188F8AD
:1028A0003310F10801EB8101A3EB410141F030014C
:1028B00088F8341003EB8301A0EB410040F03000B6
:1028C00088F8350040F60D20A8F836000620FFF7FE
:1028D00055F8BAF80000B9F80010013082B28A4207
:1028E000AAF80000ADD301F012B9286844F64816E2
:1028F000C4F64706801B18BF0120B9F1FF0F18BFAF
:10290000002840F0BC8140F60009C4F2010909F535
:10291000006420464FF4005102F03EF920464FF487
:10292000004102F039F909F580652846022102F0DC
:1029300033F928464FF4805102F02EF92846202121
:1029400002F02AF920464FF4804102F025F948466A
:10295000802102F021F92846012102F01DF92846C4
:10296000042102F019F928464FF4004102F014F94D
:1029700048464FF4806102F00FF928464FF4807109
:1029800002F00AF948464FF4007102F005F9484692
:102990004FF4807102F000F928464FF4804102F0B4
:1029A000FBF828464FF4005102F0F6F848460121A2
:1029B00002F0F2F84846022102F0EEF848460421FF
:1029C00002F0EAF84846082102F0E6F848462021DD
:1029D00002F0E2F84846402102F0DEF848461021B5
:1029E00002F0DAF828464FF4806102F0D5F8284664
:1029F0004FF4006102F0D0F848464FF4805102F0E5
:102A0000CBF848464FF4006102F0C6F8284608218A
:102A100002F0C2F82846102102F0BEF848464FF4F2
:102A2000004102F0B9F8DAF800000068B04241F065
:102A3000688045F6E07108F13200C0F600010F220F
:102A4000FDF7A2FB0F2001F060B800BF50574D000A
:102A50004144430053414D504C45530048454C4C74
:102A60004F204D505133323031300D0A00000000FC
:102A700055415254322054455354204D53472073EE
:102A8000656E640D0A0000000000C84243414E001C
:102A900043414E2054455354204D53472073656E97
:102AA000640D0A0000BF00BF00000000000000002D
:102AB00000000000004CFD40000000000000F0BFDE
:102AC000414C4C204750494F204C4F570D0A0000B5
:102AD0000000000045F67F5142F62C44C0F600018C
:102AE0000020C4F201040025FDF780FBCAF80000B5
:102AF000A16921F0FF01A1610178A1F13002092A49
:102B00000FD80022002303EB83035B00013253FA4A
:102B100081F391B2415C303BA1F130070A2FF2D32F
:102B2000DDB2A06945F6EC512843A06108F13200FE
:102B3000C0F60001B5E140F60006C4F2010606F554
:102B4000006420464FF4005102F0C1F8012840F023
:102B5000AE8145F6746108F13200C0F600010D2225
:102B60000D25ACE11FED300B1FED2F1B53EC102B8F
:102B700051EC110BFDF703FC1FED310B53EC102B47
:102B8000FDF756FBFDF788FCFEF741FD40F600001F
:102B9000C4F2010000F5105420460021012202F089
:102BA000ADFE20460021042202F050FD2046012106
:102BB000012202F0A3FE20460121042202F046FD7C
:102BC00045F6DC5108F13200C0F600010E22FDF797
:102BD000DBFA0E2000F099BF45F67F51C0F60001E8
:102BE00000200025FDF702FBCAF800000178A1F1E2
:102BF0003002092A0FD80022002505EB85035B006F
:102C0000013253FA81F391B2415CA3F13005A1F195
:102C100030070A2FF1D346F2C01108F13200C0F696
:102C2000000112221224FDF7AFFA2046FEF7A6FE9D
:102C3000FEF7B9FCFEF72FF84FF0FF3050FA85F0A1
:102C4000052807D8DFE810F00600FA0203030C039A
:102C500015031E0340F60000C4F2010000F5E05029
:102C60000021002216E343F64440C2F20000048033
:102C700043F6DE30C2F20000048000F048BF45F6A3
:102C8000B851C0F6000128460322FDF7A1FAB9F1B8
:102C9000000F18BF002840F0028340F60009C4F27C
:102CA000010909F5006420464FF4005101F072FF5C
:102CB00020464FF4004101F06DFF09F5806528467C
:102CC000022101F067FF28464FF4805101F062FFB6
:102CD0002846202101F05EFF20464FF4804101F09C
:102CE00059FF4846802101F055FF2846012101F097
:102CF00051FF2846042101F04DFF28464FF40041C2
:102D000001F048FF48464FF4806101F043FF284638
:102D10004FF4807101F03EFF48464FF4007101F01E
:102D200039FF48464FF4807101F034FF28464FF4D4
:102D3000804101F02FFF28464FF4005101F02AFF97
:102D40004846012101F026FF4846022101F022FFFA
:102D50004846042101F01EFF4846082101F01AFFF1
:102D60004846202101F016FF4846402101F012FF9D
:102D70004846102101F00EFF28464FF4806101F013
:102D800009FF28464FF4006101F004FF48464FF464
:102D9000805101F0FFFE48464FF4006101F0FAFE59
:102DA0002846082101F0F6FE2846102101F0F2FE27
:102DB00048464FF4004101F0EDFEDAF8000045F618
:102DC000B851C0F600010322FDF702FA002840F0D6
:102DD000988608F13200AFF21831F7E645F67F51D8
:102DE00042F62C44C0F600010020C4F20104FDF7B5
:102DF000FDF9CAF8000094ED000AB8EE402A017807
:102E00001FEDCD0AA1F13002092AB0EE403A13D8E5
:102E10000022002303EB83035B00013253FA81F3AA
:102E200091B2415C303BA1F130070A2FF2D399B245
:102E300001EE101AB8EE413A1FEDED1A83EE013A99
:102E400023EE022ABCEEC22A84ED022A94ED002A67
:102E5000B8EE422A0178A1F13002092A13D80022E3
:102E6000002303EB83035B00013253FA81F391B239
:102E7000415C303BA1F130070A2FF2D398B200EE4B
:102E8000100AB8EE400A80EE010A45F6CC5108F16E
:102E90003200C0F6000120EE020ABCEEC00A84ED4A
:102EA000030A0C22FDF770F90C2000F02EBE46F24A
:102EB0005C0108F13200C0F600010C220C25FDF780
:102EC00063F92846FEF75AFD20464FF4004101F011
:102ED000FEFE012808D145F6646108F13200C0F613
:102EE00000010E220E2407E046F24C0108F13200E8
:102EF000C0F600010D220D24FDF746F92046FEF72D
:102F00003DFD06F580642046022101F0E0FE012827
:102F100008D145F6B46108F13200C0F600010D2277
:102F20000D2507E046F29C0108F13200C0F60001D1
:102F30000C220C25FDF728F92846FEF71FFD204638
:102F40004FF4805101F0C3FE012808D145F64C71C1
:102F500008F13200C0F600010B220B2507E046F213
:102F60002C1108F13200C0F600010A220A25FDF7F3
:102F70000BF92846FEF702FD2046202101F0A7FEAE
:102F8000012807D145F63C7108F13200C0F6000176
:102F90000F221CE646F21C1108F13200C0F60001B7
:102FA0000E22FDF7F1F80D2000F0AFBD04F500652D
:102FB00028464FF4005101F08AFE012840F08E812E
:102FC00045F6746108F13200C0F600010D220D26AD
:102FD0008CE198F83300400088F833002046402107
:102FE00001F075FE012804D198F83200400001304C
:102FF00002E098F83300400088F833002046802132
:1030000001F065FE012804D198F83200400001303B
:1030100002E098F83300400004F5806588F833003A
:103020002846012101F053FE012804D198F832000E
:103030004000013002E098F83300400088F8330087
:103040002846022101F043FE012804D198F83200FD
:103050004000013002E098F83300400088F8330067
:103060002846042101F033FE012804D198F83200EB
:103070004000013002E098F83300400088F8330047
:1030800028464FF4806101F022FE012804D198F80F
:1030900032004000013002E098F83300400088F828
:1030A000330028464FF4006101F011FE012804D1DD
:1030B00098F832004000013002E098F833004000F8
:1030C00088F8330028464FF4805101F000FE0128B3
:1030D00004D198F832004000013002E098F8340042
:1030E000400088F8340028464FF4005101F0EFFD0D
:1030F000012804D198F832004000013002E098F82D
:103100003400400088F8340028464FF4804101F034
:10311000DEFD012804D198F832004000013002E0C1
:1031200098F83400400088F8340028464FF40041F5
:1031300001F0CDFD012804D198F8320040000130A3
:1031400002E098F83400400088F8340020464FF43C
:10315000807101F0BCFD012804D198F832004000D4
:10316000013002E098F83400400088F8340020462E
:103170004FF4007101F0ABFD012804D198F8320042
:103180004000013002E098F83400400088F8340034
:1031900020464FF4806101F09AFD012804D198F88F
:1031A00032004000013002E098F83400400088F816
:1031B000340020464FF4006101F089FD012804D15C
:1031C00098F832004000013002E098F834004000E6
:1031D00088F8340020464FF4805101F078FD012832
:1031E00004D198F832004000013002E098F8350030
:1031F000400088F835002846202101F068FD0128AC
:1032000004D198F832004000013002E098F835000F
:10321000400088F8350028464FF4807101F057FDD2
:10322000012804D198F832004000013002E098F8FB
:1032300035004000042488F8350060E340F60000C3
:10324000C4F2010000F5E0500021012222E040F626
:103250000000C4F2010000F5E0500021022219E054
:1032600040F60000C4F2010000F5E0500021032206
:1032700010E040F60000C4F2010000F5E05000212B
:10328000052207E040F60000C4F2010000F5E0501E
:1032900000210622012301F07EF800F038BC0FF671
:1032A000E02128460622FCF793FFB9F1CC0F18BFA6
:1032B000002840F03083002800F073839BF8020060
:1032C00040F60005C007C4F2010505F500604FF4A3
:1032D000804140F0958301F05DFC93E346F25C0190
:1032E00008F13200C0F600010C220C26FCF74CFF5E
:1032F0003046FEF743FB28464FF4804101F0E7FCDF
:10330000012808D145F6007108F13200C0F600012D
:103310000D220D2607E046F2E40108F13200C0F666
:1033200000010C220C26FCF72FFF3046FEF726FB8F
:1033300028464FF4004101F0CAFC012808D145F6A7
:10334000646108F13200C0F600010E220E2507E08C
:1033500046F24C0108F13200C0F600010D220D25A5
:10336000FCF712FF2846FEF709FB2046012101F079
:10337000AEFC012808D145F6687108F13200C0F6AC
:1033800000010C220C2507E046F2441108F132003E
:10339000C0F600010B220B25FCF7F6FE2846FEF7CF
:1033A000EDFA2046022101F092FC012808D145F6F1
:1033B000C46108F13200C0F600010C220C2507E0C0
:1033C00046F2AC0108F13200C0F600010B220B25D9
:1033D000FCF7DAFE2846FEF7D1FA2046042101F078
:1033E00076FC012808D145F6E46108F13200C0F608
:1033F00000010A220A2507E046F2C80108F132005E
:10340000C0F6000109220925FCF7BEFE2846FEF79A
:10341000B5FA2046082101F05AFC012808D145F6EA
:10342000587108F13200C0F600010C220C2507E0AB
:1034300046F2381108F13200C0F600010B220B25CC
:10344000FCF7A2FE2846FEF799FA2046102101F06B
:103450003EFC012808D145F6A46108F13200C0F60F
:1034600000010E220E2507E046F28C0108F1320021
:10347000C0F600010D220D25FCF786FE2846FEF75A
:103480007DFA2046202101F022FC012808D145F6D2
:103490001C7108F13200C0F600010C220C2507E077
:1034A00046F2001108F13200C0F600010B220B2594
:1034B000FCF76AFE2846FEF761FA2046402101F03B
:1034C00006FC012808D145F6787108F13200C0F6F3
:1034D00000010C220C2507E046F2501108F13200E1
:1034E000C0F600010B220B25FCF74EFE2846FEF726
:1034F00045FA2046802101F0EAFB012808D145F673
:10350000D07108F13200C0F600010D220D2507E050
:1035100046F29C1108F13200C0F600010C220C2585
:10352000FCF732FE2846FEF729FA04F580652846A6
:10353000012101F0CCFB012808D145F6446108F1D6
:103540003200C0F600010A220A2607E046F23001E6
:1035500008F13200C0F6000109220926FCF714FE2A
:103560003046FEF70BFA2846022101F0B0FB012895
:1035700008D145F6B46108F13200C0F600010D2211
:103580000D2607E046F29C0108F13200C0F600016A
:103590000C220C26FCF7F8FD3046FEF7EFF9284622
:1035A000042101F094FB012808D145F6506108F18F
:1035B0003200C0F600011022102607E046F23C015E
:1035C00008F13200C0F600010F220F26FCF7DCFDE7
:1035D0003046FEF7D3F928464FF4806101F077FBBF
:1035E000012808D145F6BC7108F13200C0F600018F
:1035F0001022102607E046F28C1108F13200C0F6C6
:1036000000010F220F26FCF7BFFD3046FEF7B6F98A
:1036100028464FF4006101F05AFB012808D145F615
:10362000987108F13200C0F600011022102607E060
:1036300046F26C1108F13200C0F600010F220F268D
:10364000FCF7A2FD3046FEF799F928464FF4805169
:1036500001F03DFB01280AD145F64C7108F132001A
:10366000C0F600010C220C26FCF78EFD09E046F2A4
:103670002C1108F13200C0F600010C22FCF784FD89
:103680000B263046FEF77AF928464FF4005101F038
:103690001EFB012808D145F6946108F13200C0F6FE
:1036A00000010E220E2607E046F27C0108F13200EE
:1036B000C0F600010D220D26FCF766FD3046FEF730
:1036C0005DF928464FF4804101F001FB012808D143
:1036D00045F6F06108F13200C0F600010E220E2618
:1036E00007E046F2D40108F13200C0F600010D22D5
:1036F0000D26FCF749FD3046FEF740F928464FF409
:10370000004101F0E4FA012808D145F6346108F1DE
:103710003200C0F600010C220C2607E046F224011C
:1037200008F13200C0F600010B220B26FCF72CFD3D
:103730003046FEF723F920464FF4807101F0C7FAB6
:10374000012808D145F6846108F13200C0F6000175
:103750000E220E2607E046F26C0108F13200C0F698
:1037600000010D220D26FCF70FFD3046FEF706F98D
:1037700020464FF4007101F0AAFA012808D145F65D
:10378000D46108F13200C0F600010E220E2607E0D7
:1037900046F2B80108F13200C0F600010D220D26F4
:1037A000FCF7F2FC3046FEF7E9F828464FF40051EA
:1037B00001F08DFA012808D145F6946108F1320034
:1037C000C0F600010E220E2607E046F27C0108F149
:1037D0003200C0F600010D220D26FCF7D5FC304664
:1037E000FEF7CCF820464FF4806101F070FA012812
:1037F00008D145F62C7108F13200C0F600010E2206
:103800000E2607E046F20C1108F13200C0F6000166
:103810000D220D26FCF7B8FC3046FEF7AFF8204627
:103820004FF4006101F053FA012808D145F6887180
:1038300008F13200C0F600010E220E2607E046F223
:103840005C1108F13200C0F600010D220D26FCF7D4
:103850009BFC3046FEF792F820464FF4805101F071
:1038600036FA012808D145F6AC7108F13200C0F6ED
:1038700000010E220E2407E046F27C1108F132000E
:10388000C0F600010D220D24FCF77EFC2046FEF759
:1038900075F82846202101F01AFA012808D145F6CA
:1038A0003C7108F13200C0F600010F220F2407E03E
:1038B00046F21C1108F13200C0F600010E220E245F
:1038C000FCF762FC2046FEF759F828464FF4807159
:1038D00001F0FDF9012808D145F6107108F1320018
:1038E000C0F600010B220B2407E046F2F40108F1B8
:1038F0003200C0F600010A220A24FCF745FC2046EB
:10390000FEF73CF8FDF793FBFEF74AF8FDF752FD92
:10391000FDF7A4F9FBE00FF2704128460722FCF7FF
:1039200057FCB9F1AA0F18BF002810D143F63E4545
:103930000028C2F2000500F0FB80BBF80200BBF8D3
:10394000041000BA000C288008BA040C2FE145F6D8
:10395000B451C0F6000128460322FCF739FCB9F146
:10396000A00F18BF002840F0AA80FDF764F80020DF
:1039700000F09DFFDAF8000045F6B451C0F60001F2
:103980000322FCF725FC002840F0BB8046F208012A
:1039900008F13200C0F600011822FCF7F5FB1820F0
:1039A000B3E045F67F5140F60004C0F60001002068
:1039B000C4F201040026FCF719FCCAF800000178E3
:1039C00043F6E435A1F13002092AC2F2000500F203
:1039D0000E8100220023013201EB4303D1B2415C8E
:1039E000303BA1F130070A2FF5D3D8072B6000F048
:1039F000FF8004F500604FF4804101F0CDF8FDE058
:103A000001F0CAF89BF80200800704D42846802100
:103A100001F0C0F803E02846802101F0BDF89BF8D2
:103A20000200400705D405F58060012101F0B2F8DD
:103A300004E005F58060012101F0AEF89BF802007A
:103A4000000705D405F58060042101F0A3F804E027
:103A500005F58060042101F09FF89BF80200C00684
:103A600006D405F580604FF4004101F093F805E0BD
:103A700005F580604FF4004101F08EF89BF80200DC
:103A8000800605D428464FF4806101F083F804E0F5
:103A900028464FF4806101F07FF89BF80200400651
:103AA00006D405F580604FF4807101F073F828E0CA
:103AB00005F580604FF4807101F06EF821E045F665
:103AC000AD51C0F6000128460622FCF781FBB9F192
:103AD000A40F18BF002840F0F280FDF7A8FA43F6C3
:103AE000EA31C2F200010022DAF800000A7045F65D
:103AF000AD51C0F600010622FCF76AFB002800F079
:103B00002C81AC2088F832000120FDF737FF40F20D
:103B10000810C2F200003221FCF74FFB4EF20011F8
:103B20004FF08050CEF20001086001B0BDE8F08F88
:103B300045F67F51C0F6000100200024FCF756FB3B
:103B4000CAF800000178A1F13002092A0FD800223A
:103B5000002404EB84035B00013253FA81F391B239
:103B6000415CA3F13004A1F130070A2FF1D345F6EF
:103B70007F51C0F6000100202C800024FCF736FBAA
:103B8000CAF800000178A1F13002092A0FD80022FA
:103B9000002404EB84035B00013253FA81F391B2F9
:103BA000415CA3F13004A1F130070A2FF1D3298839
:103BB00043F63C4041F28832C2F200009142048058
:103BC000A5D843F6E930C2F20000012101704EF29F
:103BD00000114FF08050CEF20001C1F88000BFF319
:103BE0004F8F4FF48020BFF36F8F48608FE72E60B8
:103BF00004F500604FF4804100F0CCFF2878800786
:103C000004D42046802100F0C5FF03E02046802137
:103C100000F0C2FF2878400705D404F58060012138
:103C200000F0B8FF04E004F58060012100F0B4FF6B
:103C30002878000705D404F58060042100F0AAFF6D
:103C400004E004F58060042100F0A6FF2878C00697
:103C500006D404F580604FF4004100F09BFF05E0BE
:103C600004F580604FF4004100F096FF2878C0060C
:103C700005D420464FF4806100F08CFF04E020461C
:103C80004FF4806100F088FF2878C00606D404F560
:103C900080604FF4807100F07DFF05E004F58060E6
:103CA0004FF4807100F078FF45F61C6108F1320096
:103CB000C0F600011422FCF767FA142025E745F648
:103CC0008451C0F6000128460722FCF781FAB9F1B9
:103CD000850F18BF002818D1FCF7FDFF002000F069
:103CE000E6FD43F6EA31C2F200010122DAF80000F3
:103CF0000A7045F68451C0F600010722FCF768FA05
:103D000030BB08F1320029A135E045F68C51C0F6F0
:103D1000000128460722FCF75BFAB9F1580F18BFDB
:103D200000287FF4F4AEFDF7ACF8002000F0BFFDF2
:103D300043F6EA31C2F200010222DAF800000A700A
:103D400045F68C51C0F600010722FCF741FA78B124
:103D5000AC2088F832000220D7E645F6FC5108F185
:103D60003200C0F600011F22FCF70EFA1F20CCE63D
:103D700008F1320006A11B22FCF706FA1B20C4E65C
:103D8000435553544F4D00005041545445524E003A
:103D90004750494F20736574206173206D696464D6
:103DA0006C65207465737420320D0A004750494FCA
:103DB00020736574206173206D6964646C65207480
:103DC00065737420310D0A00F0B595B0FDF72FF939
:103DD000FDF7E6FDFDF7EEFAFCF740FF40F20816AE
:103DE000C2F200064FF4E135002406F132000F95CF
:103DF000CDE910441294CDE913060FA8FDF72FFD6D
:103E00002027012086F83270FDF7B8FDCDE909546E
:103E100040F2C005C2F2000505F11400CDE90B44E3
:103E2000CDE90D0509A8FDF724FA01202F75FDF74E
:103E3000AFFA40F2ED00C2F20000C11D053002945D
:103E4000CDE90544CDE907440391049002A8FDF7AC
:103E5000CEFA4FF4FA7000906846ADF80440FCF7D3
:103E6000B9FEFCF739FC42F6DF60FDF7D0FB0E200F
:103E7000FDF77BFC40F6B730FDF744FC15B0F0BD14
:103E800010B543F64844C2F20004206842F64701E8
:103E90000130CBF2A37141434EF633424FEA311168
:103EA000C0F20A029142206016D843F6D431C2F221
:103EB00000010A7840F60040B2FA82F35B09C4F2CE
:103EC00001000B704FF4007122B100F063FE00207E
:103ED000206001E000F060FEBDE81040FDF784BD09
:103EE0004EF68851CEF200010A6841F2000042F419
:103EF0007002C4F202000A6001684FF6FF7241F0DE
:103F00000101016000214160C1620168CEF6F62224
:103F1000114001604FF47F018160016821F480212C
:103F20000160016841F48031016040F2FF7100BF1F
:103F300003684A1E8A4203D213F400311146F7D0B7
:103F40000168890301D400BFFEE742F20001C4F218
:103F500002010A6822F007020A600A6842F00302BE
:103F60000A6041684FF6FF7241604168CDF6C37246
:103F70004160416841F480614160416811404160A5
:103F800041684FF2000241F0005141F45411416088
:103F9000C16ACBF6FE721140C162C16A41F484313C
:103FA00041F01901C162016841F08061016000BF08
:103FB00001680901FCD5016841F08071016000BF12
:103FC00001688901FCD5416821F003014160416825
:103FD00041F00201416000BF41680907FCD54FF084
:103FE0000060002101F0B2B910B542F60044C4F2FD
:103FF00001042046012101F0B6FD28B1204601212F
:10400000BDE8104001F0AABD10BD0000B0B54FF0F2
:104010008040012101F0A7FDC0B34FF08040012195
:10402000012401F09BFD43F64645C2F200052878C5
:1040300068B340F20815C2F200052878F0B143F6E3
:104040000004C4F20104204642F20B2101F036FEC6
:10405000012813D1204642F20B2101F023FE42F247
:104060004370012129544EF28010CEF200004FF02F
:1040700080510160BFF34F8FBFF36F8F40F2BC00E0
:10408000C2F200000078297808430ED0B0BD40F29B
:104090000810C2F20000323006A11322FCF774F8B7
:1040A0001420FDF76BFC2C70B0BD3220BDE8B04091
:1040B000FDF78CBB5354415254204F4B2056312EA8
:1040C00032302E31310D0A002DE9F04F81B040F62B
:1040D0000044C4F200042046012101F044FD002800
:1040E00000F0D9802046012101F038FD43F6E93087
:1040F000C2F200000178002900F0CD8043F64C4167
:10410000C2F200010A884FF4FA56571C43F63C42AB
:10411000C2F20002128843F63E49B6FBF2F543F6BE
:10412000E036BBB2C2F20006C2F200093288AB42EE
:10413000B9F800300F8052D99A4250D2002004F5CD
:104140008235088028464FF4005100F0C0FD3188C8
:1041500042F64C070138C2F20007B0FA80F07A5CF0
:10416000400940EA4200785428464FF4004100F0EC
:10417000AEFD31880138B0FA80F07A5C400940EA3F
:10418000420004F5803478542046022100F09FFD5F
:1041900031880138B0FA80F07A5C400940EA420088
:1041A000785420464FF4805100F091FD3188013859
:1041B000B0FA80F07A5C400940EA42007854204628
:1041C000202100F084FD31880138B0FA80F07A5C5B
:1041D000400940EA42007854481C30805BE09A4233
:1041E00059D30021017043F6E8304EF20012C2F2BA
:1041F0000000CEF2000201704FF480203180C2F83E
:104200008400BFF34F8FBFF36F8F3180B9F8000088
:10421000D0B343F6EB3440F2081542F64C0A4FF0A7
:10422000000BC2F20004C2F20005C2F2000A002133
:104230008FB21FFA80F847454FF0000084F800B0B5
:1042400016D2FA434244E819312A28BF31223230CB
:104250000AEB07010132FBF797FF0120312800F13B
:10426000010103D8384440450846F7D3481E207062
:10427000C0B2FDF783FB308800F13201B9F80000CD
:104280008AB282423180D3D34EF200114FF0805077
:10429000CEF20001086001B0BDE8F08F816841F006
:1042A0000801816081680907FCD4816841F004013C
:1042B000816000BF81684907FCD4704780B501293F
:1042C00008D0022918BF80BD4FF4401E6FF4401C77
:1042D000382304E04FF4700E6FF4700C2C2319583F
:1042E00001EA0C0119500EEB02511A5801EA0E01B5
:1042F0001143195080BD8268002942F4006308BF51
:1043000022F4006383607047816841F480718160AA
:1043100070478168C90718BF7047816841F0010183
:1043200081607047002A01F001020AD01AB1826848
:1043300042F48012826089070FD5816841F4004100
:104340000AE01AB1826822F480128260890758BF9D
:104350007047816821F4004181607047012905D0D0
:10436000022918BF70476FF4E04101E06FF460214B
:10437000836819408160816811438160704742F20F
:104380000441C4F201010A6822F470220A600A683A
:1043900010430860704780B505290ED8D0F834C0A6
:1043A00001EB810E1F2101FA0EF12CEA010C02FA39
:1043B0000EF141EA0C01416324E00B2910D801EB16
:1043C0008101D0F830C0A1F11E0E1F2101FA0EF1BB
:1043D0002CEA010C02FA0EF141EA0C01016311E032
:1043E00010290FD201EB8101D0F82CC0A1F13C0EB5
:1043F0001F2101FA0EF12CEA010C02FA0EF141EA3A
:104400000C01C162092A04D800F1100C02EB420130
:1044100007E0112A88BF80BD02EB420100F10C0CBD
:104420001E39DCF800200720884022EA000003FA49
:1044300001F10843CCF8000080BDD0F8802022F4C0
:104440004052C0F88020D0F880201143C0F880107E
:104450007047CA0703D0826842F4800282608907ED
:1044600058BF7047816841F4001181607047002A8D
:1044700001F4807210D01AB1426842F48072426036
:104480004A0503D5426842F480624260890715D527
:10449000816841F0020110E01AB1426822F4807292
:1044A00042604A0503D5426822F48062426089076F
:1044B00058BF7047816821F002018160704710B5D4
:1044C00046F20041C4F2000140F21A44884208BF9B
:1044D00040F21944204601F024F82046BDE810407F
:1044E00001F00FB8B0B546F20061C4F20001448992
:1044F0000A684FF0010C42F001020A60CB690CFA25
:1045000004F5AB43CB61C3896FEA050C012B10D0D6
:1045100023BBCB6803EA0C03CB60B0F806E043880A
:1045200043EA0E434FEAC40E01EBC404236403467E
:104530000DE0CB682B43CB60B0F800E0438843EA42
:104540000E434FEAC40E01EBC4042364831D848828
:104550001B8843EA044301EB0E04636483894C68BF
:10456000002B44EA050208BF04EA0C024A600289F3
:104570004B69002A43EA050408BF03EA0C044C61B6
:10458000007C012802D1C8692843C861086820F06E
:1045900001000860B0BD01F01F0289094FF0010C55
:1045A0000B580CFA02F21A430A5070478A09105845
:1045B00001F01F01C84000F00100704770B544F2DF
:1045C0004022C0F20F02914284BF002070BD044619
:1045D0000068012520F0020020602068CFF6FF75FA
:1045E00040F0010020602846626820B112F001020C
:1045F00000F10100F8D06068C00701D1002008E098
:10460000E06900F04046084600F06EF93043E06192
:104610000120216821F00301216000BF616825B1FC
:1046200011F0030105F10105F8D16168890718BF90
:10463000002070BDF0B5026840F2010C22F00202C9
:1046400002600268CFF6FF7C42F00102634602601E
:10465000426823B112F0010203F10103F8D042686D
:10466000D20704BF0020F0BD0A7891F801E08B78F2
:104670009207CC7803F00F0503F070036EF31C6211
:104680004F8942EA831204F0070604F0180442EA54
:104690000542013F42EA84226FF39F2742EA065215
:1046A0003A44C2610A790368012A23F0800708BFEF
:1046B00043F0800707604A790368012A23F0400726
:1046C00008BF43F0400707608A790368012A23F096
:1046D000200708BF43F020070760CA790368012A52
:1046E00043F0100708BF23F0100707600A7A036839
:1046F000012A23F0080708BF43F008070760497A3A
:104700000268012922F0040308BF42F00403036099
:10471000016821F00101016042686146BCF1000FAF
:1047200004D012F0010201F1010CF5D1002918BFEB
:1047300001210846F0BD0000B0B581B08646806812
:10474000400109D4DEF80800000107D4DEF80800B3
:10475000C00005D4032074E0002002E0012000E046
:1047600002200EEB0013D3F8804104F00104C3F8DB
:1047700080410C7A1CB14A6844EAC20401E00C682A
:1047800064054A7A91F84BC0D3F8805122432A43FA
:10479000BCF1000FC3F8802105D0DEF82020D2073D
:1047A00017D100BFFEE7D3F8842122F00F02C3F82F
:1047B00084218A7AD3F884512A43C3F88421D1F81A
:1047C0000B20C3F88821D1F80F104FF4C67299500E
:1047D00031E091F80AE0BEF1090F72460CD345F6BC
:1047E00078540022C0F60004A55CAE4503D0013227
:1047F000072AF9D1FEE7093291F84C4091F84D5063
:1048000042EACC1242EA441242EA0512C3F8842179
:1048100000220B31B2EB9E0F009114D04FEA9E01A3
:10482000009A013912680D06C3F88821009A02F136
:1048300004020092F4D1D3F8801141F00101C3F8D1
:10484000801101B0B0BD00994FF4C4720968BEE791
:1048500050B1022913D0012917D0A9B947F2084055
:10486000C4F20000C2607047022914D0012918D098
:1048700051B947F20840C4F200000260704747F2A5
:104880000840C4F200004261704747F20840C4F299
:1048900000000261704747F20840C4F200008260E5
:1048A000704747F20840C4F200004260704747F288
:1048B0000041C4F200010A686FF48033002808BF89
:1048C0006FF0010302EA03000860704747F20441F9
:1048D000C4F200010A680223002808BF012342EA4B
:1048E000030008607047000010B50446022000F085
:1048F00073FDB0FBF4FE4AF6AB20CAF6AA20AEFB6D
:1049000000021009B0EB9E0F12D24FEA9E0C831CDE
:1049100001301622002400BFD11C5943714508D034
:10492000013C14F11601A2F10102F5D16045EED36C
:10493000FEE746F2D411C0F6000101EBC401D1E953
:104940002C216FF39F2002F00F0261F3165040EA12
:10495000024010BD40F20042C4F20202904202D175
:10496000052900D3FEE701EB810100EB810081689E
:1049700021F001018160704740F20042C4F202025E
:10498000904202D1052900D3FEE701EB810100EB43
:104990008100816841F001018160704740F200426E
:1049A000C4F20202904202D1052900D3FEE701EBD6
:1049B000810100EB8100816821F020018160704756
:1049C00040F20042C4F20202904202D1052900D313
:1049D000FEE701EB810100EB8100816841F02001DD
:1049E000816070478900436802FA01F11943416010
:1049F00070470068890002FA01F1084018BF0120E1
:104A00007047000040F20043C4F20203984202D112
:104A1000052900D3FEE780B5136801EB810100EBA7
:104A20008100036191684161118AC16081685368A6
:104A300021F47C5CD168D2F814E043EA0C031943FA
:104A400041EA0E01816092F818C08368BCF1010F41
:104A500023F0400108BF43F04001816092F819C083
:104A60008368BCF1010F23F0800108BF43F080018F
:104A70008160917E8268002942F0100308BF22F015
:104A80001003836080BD000040F20043C4F20203C3
:104A9000984202D1052900D3FEE701EB810192B2D1
:104AA00000EB8100C260704740F20042C4F2020293
:104AB000904202D1052900D3FEE701EB810100EB12
:104AC0008100C068704740F2004CC4F2010CDCF871
:104AD0000030012923EA0003CCF80030DCF8043070
:104AE00023EA0003CCF80430DCF8083023EA0003A2
:104AF000CCF80830DCF80C3023EA0003CCF80C309A
:104B000006D051B9DCF800100143CCF8001004E0E5
:104B1000DCF804100143CCF80410022A0DD0012A5D
:104B20006FEA00010DD0B2B9DCF808201043CCF8D0
:104B30000800DCF80C0008400BE0DCF8081001432A
:104B400002E0DCF808201140CCF80810DCF80C106A
:104B50000843CCF80C00704740F20041C4F2010158
:104B60000A6810430860704740F21441C4F2010122
:104B70000860704740F20041C4F201014A690968C7
:104B8000024000EA010018BF0122002818BF0120DE
:104B90001040704741617047016170470C2240F23C
:104BA000080C02EA81030F22C4F2010C032902FA65
:104BB00003F20BD8DCF8001098409143CCF80010B9
:104BC000DCF800100843CCF80000704707290BD828
:104BD000DCF8041098409143CCF80410DCF8041081
:104BE0000843CCF8040070470B296FEA02010BD888
:104BF000DCF8082098401140CCF80810DCF80810C8
:104C00000843CCF808007047DCF80C2098401140AD
:104C1000CCF80C10DCF80C100843CCF80C007047F2
:104C20002DE9F047CF0601F00F0C09D5042A05D174
:104C3000C26B4CF0030C1A43C26301E04CEA020C55
:104C400000F1100E00F1140800244FF0010A4FF09B
:104C50000F0900270AFA07F21A4010D0056809FA6E
:104C600004F6B5430CFA04F6282946EA050603D0F3
:104C7000482903D1754600E045462A6006600137A1
:104C8000082F04F10404E5D1082400254FF0010A9F
:104C90004FF00F090AFA04F21A4010D0466809FAD8
:104CA00005F7BE430CFA05F7282947EA060703D0A3
:104CB000482903D1764600E0464632604760013419
:104CC000102C05F1040508BFBDE8F087E2E7806815
:104CD000084018BF01207047B0B50422C4F2010299
:104CE000134602F1180E002848BF73461B6800F4F3
:104CF0004014C0F30345B4F5401F1FFA80FC06D1F1
:104D0000146823F0E06324F0E06414600DE0C40252
:104D100006D46FF00F0404EA50440CFA04F401E0E6
:104D20000324AC40A34343F0E06331B16FF00F01C3
:104D300001EA50410CFA01F10B43002848BF7246CA
:104D40001360B0BD4EF62355CEF20005FFF73CF8D8
:104D500040F20400C2F20000006841F25971CDF245
:104D6000B711A0FB01014FF0FF3000EB51304FF0C5
:104D7000000ABAEB106F0AD14EF21001CEF2000118
:104D80004860F02028700720C1F808A0086040F6AD
:104D90000004C4F20104202040F2ED0B43F6EA388F
:104DA00043F6DC39287004F57C45C2F2000BC2F2F0
:104DB000000804F58067C2F2000900BF2846002100
:104DC0000222FFF716FE012814D128460021FFF722
:104DD0006BFE14280ED001208BF80200284600211B
:104DE0000222FFF7FFFD43F60040C4F2000001215C
:104DF00000F0A6FB9BF80200002871D09BF805008C
:104E00009BF80610C7288BF802A008BFC7292BD033
:104E1000662808BF662959D043F6EC36C2F2000670
:104E2000338841EA00229A420ED047F20440C4F28D
:104E30000000328042600146006840F001000860D6
:104E40009BF805009BF80610B9F8002040F2081600
:104E50005300C2F2000601333236F15406F8120054
:104E6000501CA9F8000039E040F2BC00C2F200007A
:104E700080F800A03846042104222023FFF7D0FE4A
:104E80003846282104221023FFF7CAFE384628217D
:104E900004220823FFF7C4FE2046282104224FF4F1
:104EA0000043FFF7BDFE40F20810C2F20000DC2113
:104EB00080F832100120FCF761FD4EF21000CEF2B6
:104EC00000004FF08051C0F8F01009E0B9F8000080
:104ED000400080B2FCF752FDA9F800A0FCF74EFBA1
:104EE00098F8000002280FD001287FF467AF3846F9
:104EF0004FF48041FFF7EBFE012812D120464FF41A
:104F00000071FFF749FE11E020464FF40071FFF7F2
:104F1000DEFE012817D138464FF48041FFF73CFEF2
:104F200016E020464FF40071FFF734FE38464FF488
:104F30000051FFF7CCFE012817D120464FF48071B5
:104F4000FFF72AFE16E038464FF48041FFF722FEB5
:104F500020464FF48071FFF7BAFE012815D138467C
:104F60004FF40051FFF718FE14E020464FF4807113
:104F7000FFF710FE20460421FFF7A9FE012814D1F7
:104F800038460221FFF708FE13E038464FF400517F
:104F9000FFF700FE38460221FFF799FE012814D1E1
:104FA00020460421FFF7F8FD13E038460221FFF701
:104FB000F1FD20460821FFF78AFE012815D1384669
:104FC0004FF48051FFF7E8FD14E020460421FFF77D
:104FD000E1FD38464FF48051FFF779FE012816D1E4
:104FE00020460821FFF7D8FD15E038464FF48051E0
:104FF000FFF7D0FD20464021FFF769FE012818D1B8
:1050000004F500604FF48041FFF7C6FD17E020462D
:105010000821FFF7BFFD04F5006630464FF48041DC
:10502000FFF755FE012817D120464021FFF7B4FDB8
:1050300016E004F500604FF48041FFF7ABFD204619
:105040000121FFF744FE012816D104F500604FF45A
:105050000051FFF7A1FD15E020464021FFF79AFD22
:1050600030464FF40051FFF732FE012815D120469B
:105070000121FFF791FD14E004F500604FF40051A9
:10508000FFF788FD20462021FFF721FE012813D1DC
:1050900038462021FFF780FD12E020460121FFF76E
:1050A00079FD38462021FFF712FE012815D1204650
:1050B0002021FFF771FD14E038462021FFF76AFD3B
:1050C00020460221FFF703FE012816D104F50060F7
:1050D0004FF40041FFF760FD15E020462021FFF767
:1050E00059FD30464FF40041FFF7F1FD012817D17B
:1050F00020460221FFF750FD16E004F500604FF452
:105100000041FFF747FD20464FF40041FFF7DFFD68
:10511000012816D138464FF48071FFF73DFD15E0A8
:1051200020460221FFF736FD38464FF48071FFF725
:10513000CEFD012816D120464FF40041FFF72CFD8B
:1051400015E038464FF48071FFF724FD38464FF4E0
:105150008061FFF7BCFD012815D120468021FFF7B3
:105160001BFD14E020464FF40041FFF713FD2046DD
:105170008021FFF7ACFD012815D138464FF480613E
:10518000FFF70AFD14E020468021FFF703FD3846B3
:105190004FF40061FFF79BFD012815D1384601212E
:1051A000FFF7FAFC14E038464FF48061FFF7F2FC99
:1051B00038460121FFF78BFD012815D138464FF401
:1051C0000061FFF7E9FC14E038460121FFF7E2FC3B
:1051D00020464FF48051FFF77AFD012815D138465B
:1051E0000421FFF7D9FC14E038464FF40061FFF7C3
:1051F000D1FC38460421FFF76AFD012816D120466C
:105200004FF48051FFF7C8FC15E038460421FFF742
:10521000C1FC20464FF40061FFF759FD012817D16A
:1052200038464FF40041FFF7B7FC16E020464FF434
:105230008051FFF7AFFC38464FF40041FFF747FDC0
:10524000012816D120464FF40061FFF7A5FC15E0B8
:1052500038464FF40041FFF79DFC20461021FFF730
:1052600036FD012816D120464FF48061FFF794FCEB
:1052700015E020464FF40061FFF78CFC20464FF408
:105280008061FFF724FD012814D120461021FFF78B
:1052900083FC13E020464FF48061FFF77BFC384627
:1052A0000821FFF714FD012813D138461021FFF71C
:1052B00073FC83E520461021FFF76CFC3846102173
:1052C000FFF705FD012809D138460821FFF764FCE6
:1052D00074E538461021FFF75DFC6FE5384608217C
:1052E000FFF758FC6AE54EF60C5CCEF2000CDCF8D9
:1052F000003003F4E063A3F54073B3F5A06F03D26D
:105300001B0AC3F1040C08E040F20053C0F2FA5348
:10531000CCF8003002234FF0020C99400F2323FAFF
:105320000CF31A4011434EF20012CEF200020901B2
:1053300040EA020383F8001300F01F01012303FA7F
:1053400001F11C2303EAD000815070474FF68072B0
:10535000C1F6FF72114008434EF60851CEF200012B
:105360000860704710B541F2040CC4F2020CDCF87E
:10537000001043F6FF72CEF6FF720A40DCF82810E8
:105380000B2821F0005E21D8012383401C070CD19B
:1053900013F4706F0CD04CF20003CFF6FC7303EAE9
:1053A0008030024341F0005E10E042EA80320DE0BE
:1053B0000121814011F0A00F08D04CF20001CEF67F
:1053C000FE7101EA8030104340F08052CCF800209A
:1053D000CCF828E010BD000010B541F2040EC4F274
:1053E000020EDEF8001001F00C01082941F2002144
:1053F000C0F27A0146D1DEF80030DB0304D440F677
:10540000001CC0F23D0C25E0DEF82830DEF828C094
:105410005B0046F60043C0F2DC2358BF0B465FEA50
:10542000CC3110D5DEF82810C1F3031CDEF82810AB
:105430000CF1010CC1F30321B3FBFCF30231112980
:1054400008BF14214B43DEF8281001F00F01013191
:10545000B3FBF1FCDEF800301022C3F38343DEF827
:10546000001002EA5161194401220F2938BF0222BB
:1054700053180F2B11BF03FB0CF10CEB4C0149002F
:1054800001EB5C01DEF800200328C2F30313DEF811
:105490000020C2F3022CDEF800400DD80DA2D25C31
:1054A00045F6705E21FA02F3C0F6000EDFE800F068
:1054B0000F02060919460AE0002108E01EF80C0058
:1054C00003E0C4F3C2201EF8000023FA00F10846EE
:1054D00010BD00BF00000000000000000102030436
:1054E0000607080941F2000300F01F018009C4F219
:1054F00002034FF0010CC2580CFA01F11143C150E4
:10550000704741F2000300F01F018009C4F202035A
:105510004FF0010CC2580CFA01F122EA0101C1500E
:10552000704741F2000300F01F018009C4F202033A
:105530004FF0010CC2580CFA01F11143C1507047F1
:1055400042686FF00103002908BF6FF0020302EA0E
:1055500003014160704742680123002908BF02230C
:1055600042EA030141607047016841F04001016077
:10557000704710B543F20001C4F2010188420FD018
:1055800043F60041C4F2000188420CD043F600010A
:10559000C4F20001884218BF10BD40F20E4404E07E
:1055A0004FF4437401E040F20F442046FFF7B9FF87
:1055B0002046BDE81040FFF7A4BF8068084018BF30
:1055C0000120704770B50268D1E902E402F4415C41
:1055D000D1E90032D1E9045643EA0C031A4342EA06
:1055E0000E02224389692A43324311430160C16993
:1055F00021F40061C16170BD416841F00401416066
:105600007047416841F00801416070470021C0E9DE
:105610000511C0E90011C0E902117047016841F0AD
:10562000800101607047B1F800C04B888A8843EA66
:105630000C0343EA020CCB880A8943EA0C031A43A1
:105640004B8989891A43114341647047022907D065
:1056500001290BD099B950F8201F21F004010AE06C
:1056600050F8201F120221F4806104E050F8201F3E
:10567000120121F04001016001681143016070478F
:10568000032988BF7047DFE801F0024187CC016A37
:1056900021F0010101621188036A19430162016A64
:1056A00021F0020101629188036A194343F2004329
:1056B000C4F201039842016205D042F60041C4F2EF
:1056C000010188421FD1016A21F004010162518861
:1056D000036A19430162016A21F008010162D1885D
:1056E000036A19430162416821F4807141601189A4
:1056F000436819434160416821F400714160518958
:105700004268114341606FF0030143E0016A21F0F8
:10571000100101621188036A43EA01110162016A02
:1057200021F0200101629188036A43EA011143F2EA
:105730000043C4F201039842016205D042F60041E1
:10574000C4F20101884223D1016A21F040010162C3
:105750005188036A43EA01110162016A21F0800164
:105760000162D188036A43EA01110162416821F4B0
:10577000806141601189436843EA81014160416869
:1057800021F4006141605189426842EA810141602F
:105790006FF4407118226EE0016A21F48071016299
:1057A0001188036A43EA01210162016A21F4007150
:1057B00001629188036A43EA012143F20043C4F283
:1057C00001039842016205D042F60041C4F2010192
:1057D000884223D1016A21F4806101625188036A01
:1057E00043EA01210162016A21F400610162D1886A
:1057F000036A43EA01210162416821F4805141605A
:105800001189436843EA01114160416821F4005164
:1058100041605189426842EA011141606FF0030121
:1058200028E0016A21F4805101621188036A43EA89
:1058300001310162016A21F4005101629188036A19
:1058400043EA013143F20043C4F20103984201628A
:1058500005D042F60041C4F20101884208D14168F6
:1058600021F4804141601189426842EA811141601E
:105870006FF440711C2213581940115070470000FA
:10588000032988BF7047DFE801F0020D050A50F8D0
:10589000181F01E050F81C1F21F0700107E050F8BC
:1058A0001C1F01E050F8181F21F4E04112020160B2
:1058B000016811430160704703299CBF00EB810020
:1058C00042637047032988BF7047DFE801F0020D8B
:1058D000050A50F8181F01E050F81C1F21F00801BC
:1058E00007E050F81C1F01E050F8181F21F4006178
:1058F000120201600168114301607047032988BFEB
:105900007047DFE801F00213070D50F8201F21F067
:10591000010110E050F8201F120221F480710AE00A
:1059200050F8201F120321F4805104E050F8201F8A
:10593000120121F0100101600168114301607047FC
:1059400010B541F6FF31C4F2000188421BDC40F67D
:10595000FF31C4F20001884230DD41F2FF31C4F270
:105960000001884251DC40F60041C4F20001884247
:105970006AD041F20001C4F20001884240F0838005
:1059800040F2044477E043F2FF31C4F2010188425F
:1059900026DD44F6FF71C4F20101884244DC43F283
:1059A0000041C4F20101884251D044F60041C4F2E2
:1059B0000101884267D140F213345CE0B0F1804FBE
:1059C00048D040F20041C4F20001884245D040F680
:1059D0000001C4F20001884255D140F202444AE07D
:1059E00041F60041C4F20001884239D042F2000180
:1059F000C4F20001884236D042F60041C4F20101EF
:105A0000884240D140F20B3435E041F20041C4F20B
:105A1000000188422AD041F60001C4F20001884208
:105A200031D140F2064426E045F20001C4F2010102
:105A300088421ED045F20041C4F20101884218BFDD
:105A400010BD40F2153416E040F2034413E040F27A
:105A50000D3410E04FF480640DE040F201440AE0A0
:105A600040F2074407E04FF4816404E040F205444B
:105A700001E04FF445742046FFF753FD2046BDE892
:105A80001040FFF73EBD10BD016841F0010101600B
:105A9000704780B50A8843F2004C826240F6FF32BC
:105AA0000368C4F200029042C4F2010C0DDCB0F1B4
:105AB000804F18D040F20042C4F20002904212D04F
:105AC00040F60002C4F200020BE040F60042C4F2CD
:105AD0000002904207D0604505D042F60042C4F271
