:020000040800F2
:1000000050400020650100086D0100086F010008E4
:10001000710100087301000875010008000000006C
:100020000000000000000000000000007701000850
:1000300079010008000000007B010008454F00081E
:100040007F0100087F0100087F0100087F01000890
:100050007F0100087F0100087F0100087F01000880
:100060007F0100087F0100087F0100087F01000870
:100070007F0100087F0100087F0100087F01000860
:100080007F0100087F0100087F0100087F01000850
:100090007F0100087F0100087F0100087F01000840
:1000A0007F010008395000087F0100087F01000827
:1000B000615000087F0100087F0100087F010008EF
:1000C0007F0100087F0100087F0100087F01000810
:1000D0007F0100087F0100087F0100087F01000800
:1000E0007F0100087F0100087F0100087F010008F0
:1000F0007F0100087F0100087F0100080000000068
:100100007F01000800000000195100087F0100086D
:100110007F0100087F0100087F0100087F010008BF
:100120007F0100087F0100087F0100087F010008AF
:100130007F01000800000000000000007F010008AF
:100140007F0100087F0100087F0100087F0100088F
:10015000DFF80CD000F028FA00480047156A0008C4
:10016000504000200648804706480047FEE7FEE76B
:10017000FEE7FEE7FEE7FEE7FEE7FEE7FEE7FEE757
:10018000C54F00085101000840EA01039B0703D056
:1001900009E008C9121F08C0042AFAD203E011F8C6
:1001A000013B00F8013B521EF9D2704730B50446BE
:1001B0000020034600E05B1C934203D2E05CCD5C70
:1001C000401BF8D030BD000070B50F4D00B9286855
:1001D000002412E00A4602E09E4203D0521C13782B
:1001E000002BF9D1DAB2224305D02BB124B1002182
:1001F00000F8011B04E00446401C0678002EE9D1FB
:100200002860204670BD0000000000202DE9FE4F50
:10021000804681EA0300C00F0C46009021F00041A7
:1002200023F00045B8EB0200A94105D24046214623
:1002300090461C460B46024623F00040104347D030
:10024000270DC7F30A00C3F30A510290401A019028
:1002500040286BDAC3F3130040F4801B00989246E9
:1002600020B10023D2EB030A63EB0B0B0198594634
:10027000C0F14002504600F009F906460D465046CE
:100280005946019A00F021F910EB08006141002461
:1002900087EA115284EAE7731A4340D0009A62B3A6
:1002A000019A012A4FEA075215DC001B61EB02019B
:1002B0004FF0004202EA0752CDE90042001C41F52E
:1002C000801132462B4600F021F903B0BDE8F08FD3
:1002D00040462146F9E7001B61EB0201001C41F595
:1002E000801300185B412018A2F5001747EB0301AB
:1002F00040EAD570B6196D4111E06D084FEA360637
:1003000045EAC0754FEA0752001B61EB0201001C71
:1003100041F5801149084FEA300000195141324639
:100320002B4603B0BDE8F04F00F0E1B80098012281
:1003300040000023D0EB020263EBE07300982146FB
:100340004FEAE074B8EB000061EB0401E9E783F0E9
:1003500000435BE781F0004158E72DE9F04D81EA69
:10036000030404F0004B21F0004514464FF0000A4E
:1003700023F0004150EA050220D054EA01021DD0CA
:10038000C5F30A570246C5F31303C1F31300C1F3C3
:100390000A5640F4801543F48013A7EB0608101B9F
:1003A000D64608F2FD3873EB050002D308F10108C8
:1003B00001E092185B41B8F1000F03DA002001461A
:1003C000BDE8F08D00204FF48011064684460EE013
:1003D000171B73EB050705D3121B63EB05030643DD
:1003E0004CEA010C49084FEA300092185B4150EA90
:1003F0000107EDD152EA030012D082EA040083EA39
:100400000501084305D0101BAB4106D20122002391
:1004100006E000224FF0004302E06FF001025310AB
:100420001AEB06004CEB085110EB0A0041EB0B01F4
:10043000BDE8F04D00F05BB80EB5C10F80EAE0708A
:100440000844CA07002140F233438DE80E000A46F3
:100450000B4600F05BF803B000BDC1F30A5210B5C3
:10046000C1F3130140F2FF3341F480119A4201DAE3
:10047000002010BD40F233439A42A2F2334203DC23
:10048000524200F012F810BD904010BD202A04DB4B
:10049000203A00FA02F1002070479140C2F1200397
:1004A00020FA03F3194390407047202A04DB203AD6
:1004B00021FA02F00021704721FA02F3D040C2F184
:1004C00020029140084319467047202A06DBCB17CB
:1004D000203A41FA02F043EAE07306E041FA02F3FF
:1004E000D040C2F12002914008431946704710B530
:1004F000141E73F1000408DA401C41F10001921847
:100500005B411A4301D120F0010010BD2DE9F04DEF
:1005100092469B4611B1B1FA81F202E0B0FA80F244
:1005200020329046FFF7B2FF04460F4640EA0A0029
:1005300041EA0B0153465A46084313D0114653EA89
:10054000010019D0C8F140025046FFF7AEFF054642
:100550000E46504659464246FFF798FF084305D0DD
:10056000012004E020463946BDE8F08D0020054317
:1005700046EAE0762C4337430A986305E40AA0EB89
:1005800008000022FD0A44EA47540A3002D5002040
:100590000146E9E7010510196941DDE9084500193F
:1005A0006941BDE8F04DA2E7064C074D06E0E06862
:1005B00040F0010394E8070098471034AC42F6D3AA
:1005C000FFF7CAFD008200082082000880B542F2D1
:1005D0000040C4F20100012105F06EF9FFE70020A0
:1005E000C4F202000021022205F088FF002801D198
:1005F000FFE7F4E70020C4F202000021022205F028
:100600006BFF80BD80B582B001900198B0F8A0105A
:1006100001600198002141600198017201984172C6
:10062000019890F8A4108172019946F20040C4F23A
:10063000000005F0EFFB43F6EA31C2F2000108705A
:10064000087801460028009108D0FFE700980128AB
:100650000CD0FFE70098022810D017E043F6D43002
:10066000C2F200004FF40071016017E043F6D4308D
:10067000C2F200004FF4027101600FE043F6D43083
:10068000C2F200004FF40471016007E043F6D43079
:10069000C2F200004FF400710160FFE7FFE743F68C
:1006A000D430C2F20000018846F20040C4F20000DB
:1006B00005F060FA012801D1FFE7F0E743F6D430F6
:1006C000C2F20000018846F20040C4F2000005F0CA
:1006D0003BFA02B080BD000070B582B013468C4674
:1006E00001908DF80310ADF80020BDF8000044F62D
:1006F000D351C1F26201A0FB0101890946F2676290
:10070000C6F2666251FB02FE4FEA9E0404EBDE7EF7
:100710000EEB8E0EA1EB4E013031DDF804E09DF8BA
:1007200003400EF80410BDF8001048F21F5EC5F239
:10073000EB1EA1FB0E1E4FEA5E1E5EFB02F4A50837
:1007400005EBD47404EB8404AEEB440E0EF1300ED2
:10075000019C9DF803502C4484F801E0BDF800E0B2
:100760004CF6CD44CCF6CC44AEFB04E5ED0855FB8D
:1007700002F2960806EBD27202EB8202A5EB42026D
:100780003032019D9DF803603544AA70BDF8002009
:10079000A2FB0445ED0805EB8505A2EB450242F0FE
:1007A0003002019D9DF803603544EA7002B070BDCF
:1007B00080B590B000208DF83E0040F20801C2F2F2
:1007C00000010B9101218DF83D104FF400620C9255
:1007D00042F24C42C4F2010209928DF83C004FF4FF
:1007E00000720A9203220D924FF440530E9300239D
:1007F000C4F202030DF1240C08901846DDF820E045
:100800000791714606926246059305F093FE05989E
:10081000089905F043FE0598089905F003FE4FF48A
:10082000C02004F06BFF42F20040C4F201004FF41C
:10083000807104900391079A05F05EF802200499F4
:10084000029008460299089A05F056F8049808990B
:1008500004F0B8FE0498089905F01AF8049807996E
:10086000069A04F077FE42F60000C4F201000190FF
:100870000399079A05F040F801980299089A05F043
:100880003BF80198089904F09DFE0198089904F03E
:10089000FFFF01980799069A04F05CFE4FF4602070
:1008A0000499009008460799009A04F0FDFE049808
:1008B0000799079A04F0B6FE01980799009A04F088
:1008C000F3FE01980799079A04F0ACFE0498089982
:1008D000089A089B04F022FF04980799029A089B43
:1008E00004F01CFF052204980299089B04F016FFEF
:1008F00001980899079A089B04F010FF019807993E
:10090000069A089B04F00AFF062201980299089BA8
:1009100004F004FF049804F075FE049804F0FCFD54
:10092000019804F06FFE019804F0F6FD049804F0BD
:100930005FFE47F20040C4F20000016841F001018F
:10094000016008980899089A05F064FC089805F079
:10095000BBFC10B080BD000080B58EB041F200003D
:10096000C4F2010004214FF400520D900C910C9B35
:100970000B921A460B9B05F0EDFE4FF400400D99CB
:100980000A9008460C990C9A0A9B05F0E3FE40F683
:100990000040C4F20100022109900C9A089111460E
:1009A000089B05F0D7FE4FF4805009990790084640
:1009B0000C990C9A079B05F0CDFE20200999069012
:1009C00008460C990C9A069B05F0C4FE4FF4804033
:1009D0000D99059008460C990C9A059B05F0BAFEF6
:1009E00040F60000C4F20100802304900C990C9A98
:1009F00005F0B0FE01200999039008460C990C9A65
:100A0000039B05F0A7FE09980C990C9A0C9B05F026
:100A1000A1FE09980C990C9A0A9B05F09BFE4FF4D5
:100A200080600499029008460C990C9A029B05F08C
:100A300091FE4FF480700999019008460C990C9A28
:100A4000019B05F087FE4FF4007304980C990C9AF3
:100A500005F080FE04980C990C9A019B05F07AFE33
:100A600009980C990C9A059B05F074FE09980C994D
:100A70000C9A0B9B05F06EFE04980C990C9A039B44
:100A800005F068FE04980C990C9A089B05F062FE2C
:100A900004980C990C9A0C9B05F05CFE08230498B2
:100AA0000C990C9A05F056FE04980C990C9A069B2A
:100AB00005F050FE402304980C990C9A05F04AFE6C
:100AC000102304980C990C9A05F044FE09980C998F
:100AD0000C9A029B05F03EFE4FF4006009990090CD
:100AE00008460C990C9A009B05F034FE04980C996A
:100AF0000C9A079B05F02EFE04980C990C9A009B0B
:100B000005F028FE0EB080BD80B590B041F2000027
:100B1000C4F20100102104224FF400530F900E91F3
:100B20000D920C9305F016FE4FF400400F990B90B8
:100B300008460E990D9A0B9B05F00CFE40F60040FE
:100B4000C4F2010002210A900E9A099111460D9AF1
:100B5000099B05F0FFFD4FF480500A990890084664
:100B60000E990D9A089B05F0F5FD20200A99079033
:100B700008460E990D9A079B05F0ECFD4FF4804056
:100B80000F99069008460E990D9A069B05F0E2FD16
:100B900040F60000C4F20100802305900E990D9AE2
:100BA00005F0D8FD01200A99049008460E990D9A87
:100BB000049B05F0CFFD0A980E990D9A0D9B05F048
:100BC000C9FD0A980E990D9A0B9B05F0C3FD4FF4D1
:100BD00080600599039008460E990D9A039B05F0D5
:100BE000B9FD4FF480700A99029008460E990D9A4B
:100BF000029B05F0AFFD4FF4007305980E990D9A16
:100C000005F0A8FD05980E990D9A029B05F0A2FD2E
:100C10000A980E990D9A069B05F09CFD0A980E996C
:100C20000D9A0C9B05F096FD05980E990D9A049B64
:100C300005F090FD05980E990D9A099B05F08AFD27
:100C400005980E990D9A0D9B05F084FD08230598D3
:100C50000E990D9A05F07EFD05980E990D9A079B49
:100C600005F078FD402305980E990D9A05F072FD68
:100C700005980E990D9A0E9B05F06CFD0A980E9939
:100C80000D9A039B05F066FD4FF400600A990190F0
:100C900008460E990D9A019B05F05CFD05980E998A
:100CA0000D9A089B05F056FD05980E990D9A019B2B
:100CB00005F050FD10B080BD80B58CB00B9040F2B7
:100CC000197006F06DF946F20040C4F20000019080
:100CD00004F06AFE00208DF821008DF823008DF8C5
:100CE00022008DF824008DF81D0004218DF81E10BF
:100CF00002218DF81F108DF820008DF825000B982B
:100D000000798DF81C0007A9019804F093FF0B9956
:100D10000968FA2900910AD0FFE70098B0F5FA7F38
:100D200005D0FFE70098B0F57A7F0CD1FFE70B986C
:100D300000684FF47A71414346F20040C4F200006B
:100D400004F038FF0AE046F20040C4F200004EF61C
:100D50004801C0F2010104F02DFFFFE70020ADF8CB
:100D60001200ADF814000121ADF81610ADF808001E
:100D7000ADF80A00ADF80C00ADF80E000B98407904
:100D8000ADF810008DF8181002A804F02DFE0CB07C
:100D900080BD000080B582B04FF4C06006F000F95D
:100DA00040F2026006F0FCF840F60000C4F20100D8
:100DB000482103224FF400630190009205F0CAFC21
:100DC00018214FF480530198009A05F0C3FC02B03B
:100DD00080BD000080B592B040F2026006F0E0F8FD
:100DE00040F2036006F0DCF840F2046006F0D8F848
:100DF00040F2096006F0D4F840F20A6006F0D0F83C
:100E00004FF4A06006F0CCF840F21D7006F0C8F870
:100E10004FF4C06006F0C4F840F60040C4F2010090
:100E2000102104224FF40073119010910F920E9331
:100E300005F090FC40F60000C4F2010028214FF4B8
:100E400000520D900C910F9B0B921A460B9B05F0D4
:100E500081FC4FF480400D990A9008460C990F9A36
:100E60000A9B05F077FC4FF400400D990990084665
:100E70000C990F9A099B05F06DFC082011990890B8
:100E800008460C990F9A089B05F064FC11980C9980
:100E90000F9A109B05F05EFC41F20000C4F20100C5
:100EA00007900F990F9A0B9B05F054FC07980F9928
:100EB0000F9A099B05F04EFC0220119906900846F6
:100EC0000F990F9A069B05F045FC4FF4805311983B
:100ED0000F990F9A05F03EFC2020119905900846C5
:100EE0000F990F9A059B05F035FC079810990F9AFA
:100EF0000A9B05F02FFC80230D9810990F9A05F09E
:100F000029FC012011990490084610990F9A049B1E
:100F100005F020FC119810990F9A0F9B05F01AFC10
:100F2000119810990F9A099B05F014FC4FF48063F7
:100F30000D9810990F9A05F00DFC4FF480701199DF
:100F40000390084610990F9A039B05F003FC1820A4
:100F50000D990290084602990F9A0E9B05F0FAFB34
:100F60000D9802990F9A039B05F0F4FB11980299D2
:100F70000F9A0A9B05F0EEFB119802990F9A0B9BB2
:100F800005F0E8FB00200D990190084601990F9AA1
:100F9000049B05F0DFFB0D9801990F9A069B05F065
:100FA000D9FB0D9801990F9A0F9B05F0D3FB0D9873
:100FB00001990F9A089B05F0CDFB0D9801990F9AA6
:100FC000059B05F0C7FB40230D9801990F9A05F08A
:100FD000C1FB03220D980199109B05F0BBFB12B0D9
:100FE00080BD000080B586B001468DF81700002056
:100FF000C4F20200012202230490039111460292DE
:101000001A4605F069FA0498029905F0EDF99DF881
:1010100017200498029905F053FB44F60000C4F22F
:101020000000802106F032FF0498029905F0FAF9D9
:10103000FFE744F60000C4F20000062106F05CFF62
:10104000002802D1FFE700BFF3E744F60000C4F236
:1010500000000621019006F039FF0021019806F0FA
:1010600015FF06B080BD000010B590B00F904FF492
:10107000A06005F095FF40F2127005F091FF40F27C
:10108000065005F08DFF00208DF83A000F99496950
:101090000A9101218DF839100B9044F60402C4F234
:1010A000000208928DF8380009900C904FF44053DC
:1010B0000D9340F2000CC4F2020C4FF0020E08AC8B
:1010C0000790604606917146059222460493CDF83A
:1010D0000CC0CDF808E0019405F02CFA03980299B1
:1010E00005F0DCF90398029905F09CF906988DF853
:1010F0003A000F9909690A918DF8390007990B9107
:10110000059A08928DF8381009910C91049B0D9363
:1011100003980699019A05F00DFA0398069905F0CF
:101120009FF90398069905F07DF944F60000C4F292
:101130000000009006F038FE0F980168009806F055
:10114000B5FD0F984168009806F022FF0F98C1681E
:10115000009806F089FF0F988168009806F05EFFFE
:101160000098079906F008FE0098079906F0FAFE25
:101170000098079906F0E0FE009806F02FFF322154
:10118000009806F037FF4021009806F069FE8021A4
:10119000009806F07BFE0821009806F04FFF04211E
:1011A000009806F005FF009806F086FE10B010BD0E
:1011B00080B582B001468DF80700FFE744F60000D5
:1011C000C4F2000042F2102106F096FE002801D081
:1011D000FFE7F3E79DF80700FFF704FF02B080BDCB
:1011E00080B582B04FF4C06005F0DAFE40F20360D3
:1011F00005F0D6FE40F60040C4F20100182103229B
:101200004FF480630190009205F0A4FA04214FF49A
:1012100000630198009A05F09DFA02B080BD0000BD
:1012200010B598B0179040F2015005F0B9FE40F2A9
:101230000F7005F0B5FE00208DF85A0017998968E7
:10124000129101218DF85910139043F60C42C4F20B
:10125000000210928DF85800119014904FF44053F2
:10126000159340F2004CC4F2020C0DF1400E0890B0
:101270006046089C07912146069272460593CDF878
:1012800010C0CDF80CE005F055F90498089905F068
:1012900005F90498089905F0C5F807988DF85A00E3
:1012A0001799496812918DF8590008991391069A77
:1012B00010928DF8581011911491059B1593049874
:1012C0000799039A05F036F943F60040C4F200008E
:1012D000029005F0E7FE09A8019005F081FF17983C
:1012E000C068099008980A90179909680B910C90AA
:1012F000179989690D91179949690E91179909698B
:101300000F910298019905F01DFF029805F05EFF0C
:10131000029805F051FF029805F0BAFE18B010BD12
:1013200080B584B001468DF80F0040F20040C4F251
:1013300002000022029001911146009205F054F83B
:101340009DF80F200298009905F0BAF943F6004085
:10135000C4F20000012105F083FE0298009905F017
:1013600061F804B080BD000080B584B001468DF8FE
:101370000F0040F20040C4F20200012202900191ED
:101380001146009205F030F89DF80F200298009960
:1013900005F096F943F60040C4F20000002105F084
:1013A0005FFE0298009905F03DF8FFE740F200402B
:1013B000C4F202000121022205F0A0F8002801D1A8
:1013C000FFE7F3E740F20040C4F2020001210222ED
:1013D00005F082F843F60040C4F20000002105F059
:1013E00027FE04B080BD000080B50220FFF798FF03
:1013F00080BD000080B582B001468DF80700FFE790
:1014000043F60040C4F20000022105F085FE0028EA
:1014100001D1FFE7F4E79DF80700FFF7A5FF02B051
:1014200080BD000080B584B04FF4C06005F0B8FD09
:1014300040F2036005F0B4FD40F2026005F0B0FD3B
:1014400040F60040C4F2010018210322102303904B
:10145000029205F07FF904202023039901900846A9
:101460000199029A05F076F9082303980199029AE6
:1014700005F070F940F60000C4F201004FF400439B
:101480000199029A05F066F940F20020C0F230009E
:10149000012105F03FFA04B080BD000080B592B094
:1014A000119011981090119840080F9040F20B6025
:1014B00005F076FD42F60040C4F20100039006F00C
:1014C00013FA10980D900020ADF82C00ADF83800FC
:1014D000ADF82E00ADF83000FF218DF83A100BA9C1
:1014E000039A0290104606F0FFFA0120ADF82000A2
:1014F0000421ADF822100299ADF82410ADF82610A1
:10150000ADF82810ADF82A1008AA039B01901846E0
:10151000009205F087FF03980199009A05F082FF79
:1015200003980299029A06F09BF903980299029A8D
:1015300005F038FF03980199029A06F091F9039893
:101540000199029A05F02EFF0F9A0398029906F06E
:101550001BF960220398029906F0CEF803980299CD
:10156000029A06F035F90F9A0398019906F00CF9E2
:1015700070220398019906F0BFF803980199029A26
:1015800006F026F91520ADF814000298ADF8160003
:10159000ADF81000ADF812004FF48041ADF818100E
:1015A000ADF81A00ADF81C0004A9039805F0E4FE9C
:1015B00019200221029A05F03DFB0398019906F0DB
:1015C00029FB039806F086FA12B080BD80B58AB078
:1015D0000990099808904FF4E06005F0E1FC4FF0A5
:1015E0008040039006F080F9089806900020ADF83E
:1015F0001000ADF81C00ADF81200ADF814008DF825
:101600001E0004A9039A0290104606F06DFA1C20F1
:1016100001210191029A05F00DFB0398019906F052
:10162000F9FA0398019906F029FB039805F09AFE50
:10163000039806F04FFA0AB080BD000080B590B064
:101640000F900F980E900F9840080D9040F2037085
:1016500005F0A6FC40F60040C4F20000019006F040
:1016600043F90E980B900020ADF82400ADF830003F
:10167000ADF82600ADF82800FF208DF8320009A94A
:10168000019806F031FA0121019806F0C3FA3220E0
:1016900003F0E8FE019806F01DFA10B080BD0000CE
:1016A00080B586B001468DF817000020C4F2020014
:1016B0000422049003911146029204F095FE9DF8D5
:1016C00017200498029904F0FBFF43F60000C4F2CF
:1016D0000100402106F0C4FB0498029904F0A2FE28
:1016E000FFE70020C4F202000421022204F006FFFA
:1016F0000021002801910DD1FFE743F60000C4F25C
:10170000010042F20B2106F0F7FBB0FA80F040092D
:101710000190FFE70198C007002802D0FFE700BF53
:10172000DFE743F60000C4F2010042F20B21009013
:1017300006F0CCFB0021009806F092FB06B080BDBD
:1017400080B586B00146ADF816000020C4F2020054
:101750000322022304900391114602921A4604F0D8
:10176000BBFE0498029904F03FFEBDF816200498D1
:10177000029904F0A5FF43F60000C4F201008021A5
:1017800006F084FB0498029904F04CFEFFE743F650
:101790000000C4F20100062106F0AEFB002802D1D1
:1017A000FFE700BFF3E743F60000C4F201000621A3
:1017B000019006F08BFB0021019806F067FB06B054
:1017C00080BD000010B592B011904FF4A06005F0FC
:1017D000E7FB40F20E6005F0E3FB40F2065005F037
:1017E000DFFB00208DF84200119949690C9101211D
:1017F0008DF841100D9043F60402C4F201020A92E2
:101800008DF840000B900E904FF440530F9340F230
:10181000000CC4F2020C4FF0040E0AAC09906046B2
:1018200008917146079222460693CDF814C0CDF870
:1018300010E0039404F07EFE0598049904F02EFE57
:101840000598049904F0EEFD08988DF8420011996E
:1018500009690C918DF8410009990D91079A0A9236
:101860008DF840100B910E91069B0F934FF0030CD7
:1018700005986146039ACDF808C004F05BFE059810
:10188000029904F0EDFD0598029904F0CBFD43F6B2
:101890000000C4F20100019006F086FA1198016878
:1018A000019806F003FA11984168019806F070FB60
:1018B0001198C168019806F0D7FB119881680198CA
:1018C00006F0ACFB0198099906F056FA01980999BF
:1018D00006F048FB0198099906F02EFB14210198A7
:1018E00006F088FB019806F079FB4021019806F08C
:1018F000B7FA8021019806F0C9FA0821019806F08C
:101900009DFB0198049906F053FB019806F0D4FA68
:1019100012B010BD80B5FFE743F60000C4F201002D
:1019200042F2102106F0E8FA002801D0FFE7F3E7C1
:101930003220FFF7B5FE80BD80B582B00146ADF81C
:101940000600FFE743F60000C4F2010042F2102156
:1019500006F0D2FA002801D0FFE7F3E7BDF8060051
:10196000FFF7EEFE02B080BD80B582B04FF4C060DC
:1019700005F016FB40F2036005F012FB0420C4F2F0
:101980000100016841F00401016040F60040C4F22A
:1019900001001821032240230190009204F0DAFE96
:1019A000042180230198009A04F0D4FE02B080BD87
:1019B0002DE9F04FE9B000208DF8A3018DF8A201C8
:1019C00001218DF8A111ADF89E0140F20510C2F27F
:1019D000000042F24371405C002803F0BB81FFE746
:1019E00040F20510C2F2000042F24371002242545C
:1019F0001C216690084603F035FD43F6EB30C2F239
:101A00000000322265906699FEF7BEFB48F2FE01A7
:101A1000C0F60001659A64901046FEF7D5FB43F6C8
:101A20003C41C2F200010860086848F22511C0F686
:101A300000010322FEF7BAFB002809D0FFE743F6B6
:101A4000EB30C2F200000078102840F0FD82FFE782
:101A500048F2FE01C0F600010020FEF7B5FB43F698
:101A60003C41C2F2000108600868008844F64F61FA
:101A7000884208D0FFE743F6EB30C2F2000040781E
:101A800005284ED1FFE742F60040C4F201000021D4
:101A9000012263906291619205F0E2FE0420639955
:101AA000609008466299609A05F07CFC63986199A1
:101AB000619A05F0D5FE63986199609A05F072FC11
:101AC00043F63C40C2F200000068008844F64F61D3
:101AD00088421AD1FFE740F20510C2F2000045F239
:101AE0005241C0F60D21C0F8391045F25341C5F2FC
:101AF0004121C0F8361045F25071C2F24D01C0F8D4
:101B000032100B20FFF718FF0AE040F20510C2F276
:101B10000000AC2180F832100120FFF70DFFFFE735
:101B200090E243F63C40C2F20000006848F20B111C
:101B3000C0F600010322FEF739FB002808D0FFE7BA
:101B400043F6EB30C2F2000040780A284ED1FFE79E
:101B500042F60040C4F2010000215F905E915E9A5F
:101B600005F07EFE5F985E995E9A05F01BFC0120F1
:101B70005F995D9008465D995E9A05F071FE5F98E9
:101B80005D995E9A05F00EFC43F63C40C2F20000FF
:101B9000006848F20B11C0F600010322FEF706FBB5
:101BA000002817D1FFE740F20510C2F2000040F60E
:101BB0000D21418745F25341C5F24F01C0F836105F
:101BC00045F25071C2F24D01C0F832100A20FFF701
:101BD000B3FE0AE040F20510C2F20000AC2180F82A
:101BE00032100120FFF7A8FEFFE72AE243F63C404F
:101BF000C2F200000068006845F24621C5F24511B6
:101C0000884209D0FFE743F6EB30C2F2000040788B
:101C1000FC2840F0CA80FFE743F63C40C2F20000D7
:101C20000068006845F24621C5F24511884269D135
:101C3000FFE748F2FE01C0F6000100205C90FEF7CD
:101C4000C3FA43F63C41C2F200010860086803F0A1
:101C50001DF9FEF7F1FB41EC100B9FEDD31B51EC8E
:101C6000110B53EC102BFEF778FB41EC100B51ECF1
:101C7000100B9FEDCF0B53EC102BFEF7C7FA41EC86
:101C8000100B51EC100BFEF7E8FBFFF707FC42F6D8
:101C90000040C4F2010001215B905C9A5A91114608
:101CA0005A9A05F0DDFD04205B99599008465C992D
:101CB000599A05F077FB5B985A995A9A05F0D0FD2E
:101CC0005B985A99599A05F06DFB40F20510C2F2E3
:101CD000000040F60D21C18745F24141C4F2454163
:101CE000C0F83A1045F22051C4F25041C0F8361005
:101CF00045F24621C5F24511C0F832100E20FFF71B
:101D00001BFE51E043F6EB30C2F200008178C07850
:101D100040EA0120ADF89E01BDF89E01FEF78CFB64
:101D200041EC100B9FEDA01B51EC110B53EC102B51
:101D3000FEF713FB41EC100B51EC100B9FED9C0BCD
:101D400053EC102BFEF762FA41EC100B51EC100B28
:101D5000FEF783FBFFF7A2FB42F60040C4F201004E
:101D60000021012258905791569205F079FD0420E8
:101D70005899559008465799559A05F013FB58986D
:101D80005699569A05F06CFD58985699559A05F053
:101D900009FB40F20510C2F20000AC2180F83210BD
:101DA0005698FFF7C9FDFFE74AE143F63C40C2F20F
:101DB00000000068008845F24441884208D0FFE7EF
:101DC00043F6EB30C2F200004078D1285FD1FFE744
:101DD00043F63C40C2F200000068008845F24441EE
:101DE000884238D1FFE748F2FE01C0F6000100202A
:101DF000FEF7EAF943F63C41C2F20001086042F600
:101E00004440C4F20100026822F0FF020260096847
:101E10005490084603F03AF8C0B254990A68104347
:101E2000086040F20510C2F2000044F24542C0F6DC
:101E30000D22C0F83A2044F25042C5F24142C0F8A7
:101E4000362045F24442C5F22052C0F832200C2020
:101E5000FFF772FD1AE042F64440C4F20100016847
:101E600021F0FF01016043F6EB31C2F200018978F5
:101E700002681143016040F20510C2F20000AC217B
:101E800080F832100120FFF757FDFFE7D7E043F657
:101E90003C40C2F200000068008844F244318842AD
:101EA00009D0FFE743F6EB30C2F200004078DC28AF
:101EB00040F0C480FFE743F63C40C2F200000068F7
:101EC000008844F24431884278D1FFE748F2FE01AD
:101ED000C0F600010020FEF777F943F63C41C2F25C
:101EE0000001086042F62C40C4F2010090ED000AA7
:101EF000B8EE400A0A685390104652918DED510A8F
:101F000002F0C4FF00EE100AB8EEC00A9FED2A1AD4
:101F100080EE010A9DED512A22EE000ABCEEC00AB5
:101F200042F63440C4F2010080ED000A539890ED6F
:101F3000000AB8EE400A529908688DED501A8DEDEE
:101F40004F0A02F0A3FF00EE100AB8EEC00A9DEDA2
:101F5000501A80EE010A9DED4F2A22EE000ABCEED7
:101F6000C00A42F63840C4F2010080ED000A40F297
:101F70000510C2F2000044F24541C0F60D21C0F840
:101F80003A1044F25041C5F24141C0F8361044F2D3
:101F90004431C5F22051C0F832100C20FFF7CCFCC0
:101FA0004BE000BF00BF00BF00000000004CFD4040
:101FB000000000000000F0BF0000C84242F62C40C4
:101FC000C4F2010090ED000AB8EE400A43F6EB318E
:101FD000C2F200018A7801EE102AB8EEC11A1FED94
:101FE0000A2A81EE021A20EE010ABCEEC00A42F66D
:101FF0003442C4F2010282ED000A90ED000AB8EE0C
:10200000400A887801EE100AB8EEC11A81EE021A71
:1020100020EE010ABCEEC00A42F63840C4F20100CC
:1020200080ED000A40F20510C2F20000AC2180F8F9
:1020300032100120FFF780FCFFE7FFE7FFE7FFE733
:10204000FFE7FFE702F064BE43F63C40C2F2000047
:10205000006848F20711C0F600010322FEF7A6F857
:10206000002809D0FFE743F6EB30C2F20000007809
:10207000AD2840F04B83FFE748F2FE01C0F60001B7
:102080000020FEF7A1F843F63C41C2F200010860CF
:102090000868006844F25251C4F24141884209D0B4
:1020A000FFE743F6EB30C2F200004078FD2840F035
:1020B000A181FFE700208DF8A301FFE79DF8A301B0
:1020C00009282ADCFFE7FEF781FA00208DF8A2013B
:1020D000FFE79DF8A201052818DCFFE79DF8A201A3
:1020E00040F20801C2F2000131F8101043F620421C
:1020F000C2F2000252F82030194442F82010FFE7E3
:102100009DF8A20101308DF8A201E2E7FFE79DF8FA
:10211000A30101308DF8A301D0E743F63C40C2F2A1
:1021200000000068006844F25251C4F24141884204
:1021300040F0C380FFE740F20510C2F2000044F215
:102140004921C5F2553140F8321F42F23A018180EF
:1021500043F62042C2F2000213684CF6CD4CCCF696
:10216000CC4CA3FB0C3ECEF3CF0E06244E904D91EB
:1021700021464C927246CDF82CC14A934994FEF701
:10218000ABFA0D204E9988720A22CA720C2348902D
:10219000184647924693FFF7CFFB4D984E9988809B
:1021A00044F25612C4F643420A604C9A5368DDF872
:1021B0002CC1A3FB0C3ECEF3CF02084649994593B0
:1021C000FEF78AFA48984E998872479ACA724698DA
:1021D000FFF7B2FB44F64940C2F23A004E9908605C
:1021E0004C9882684B9BA2FB032CCCF3CF0C0421B0
:1021F0004E9844926246FEF76FFA48984E990872DC
:10220000479A4A721046FFF797FB4D984E9988807F
:1022100044F25452C5F24D020A604C9AD368DDF87C
:102220002CC1A3FB0C3ECEF3CF0208464999439341
:10223000FEF752FA48984E998872479ACA724698A1
:10224000FFF77AFB4D984E99888044F25612C4F6F7
:1022500043520A604C9A1369DDF82CC1A3FB0C3E73
:10226000CEF3CF02084649994293FEF735FA4898D3
:102270004E998872479ACA724698FFF75DFB4D984F
:102280004E99888044F25622C5F255320A604C9A23
:102290005369DDF82CC1A3FB0C3ECEF3CF020846F8
:1022A00049994193FEF718FA48984E998872479ACF
:1022B000CA724698FFF740FB82E043F62040C2F224
:1022C000000001684CF6CD42CCF6CC42A1FB0213D3
:1022D000DB0A40F2051CC2F2000C8CF832300368B5
:1022E000A3FB023E4FEADE0E8CF833E04FF0200EE7
:1022F0008CF834E04468A4FB0245ED0A8CF83550B4
:102300004568A5FB0256F6088CF836608CF837E075
:102310008668A6FB0267FF0A8CF838708768A7FBFF
:1023200002784FEAD8088CF839808CF83AE0D0F877
:102330000C80A8FB02894FEAD9298CF83B90D0F891
:102340000C90A9FB029A4FEADA0A8CF83CA08CF8B0
:102350003DE0D0F810A0AAFB02AB4FEADB2B8CF8D3
:102360003EB0D0F810B04090ABFB02B0C0088CF883
:102370003F008CF840E04098D0F814E0AEFB02E05B
:10238000C00A8CF8410040984069A0FB0202D208C4
:102390008CF8422011223F9010463E913D933C9490
:1023A0003B953A963997CDF8E080CDF8DC90CDF8A2
:1023B000D8A0CDF8D4B0CDF8D0E0FFF7BDFAFFE754
:1023C00000208DF8A201FFE79DF8A201052810DC8E
:1023D000FFE79DF8A20143F62041C2F2000100226E
:1023E00041F82020FFE79DF8A20101308DF8A201FD
:1023F000EAE789E143F63C40C2F20000006848F297
:102400003511C0F600010722FDF7D0FE002809D0E3
:10241000FFE743F6EB30C2F2000040785A2840F064
:102420007281FFE743F63C40C2F20000006848F2C8
:102430003511C0F600010722FDF7B8FE002840F074
:10244000D980FFE748F2FE01C0F60001002033907A
:10245000FDF7BAFE43F63C41C2F20001086008688D
:1024600002F014FD43F64041C2F20001088043F639
:10247000DA30C2F2000033990180FFE743F6DA3028
:10248000C2F20000008843F64041C2F20001098810
:10249000884280F2AE80FFE7FEF798F840F2051020
:1024A000C2F2000044F24921C5F2553140F8321F12
:1024B00042F23A01818040F20802C2F2000213881F
:1024C0004FF0060C32903191614630921A46CDF8A9
:1024D000BCC0FEF701F90D20329988720A22CA7237
:1024E0000C232E9018462D922C93FFF725FA319845
:1024F0003299888044F25612C4F643420A60309AF8
:10250000528808462F99FEF7E7F82E98329988727C
:102510002D9ACA722C98FFF70FFA44F64940C2F27E
:102520003A00329908603098828804213298FEF788
:10253000D3F82E98329908722D9A4A721046FFF7F6
:10254000FBF931983299888044F25452C5F24D0219
:102550000A60309AD28808462F99FEF7BDF82E9867
:10256000329988722D9ACA722C98FFF7E5F9319842
:102570003299888044F25612C4F643520A60309A67
:10258000128908462F99FEF7A7F82E98329988727B
:102590002D9ACA722C98FFF7CFF93198329988801A
:1025A00044F25622C5F255320A60309A52890846E2
:1025B0002F99FEF791F82E98329988722D9ACA7247
:1025C0002C98FFF7B9F942F62D50C0F60D2032993C
:1025D00088604FF02D30486008602C98FFF7ACF908
:1025E000FFE743F6DA30C2F20000018801310180D2
:1025F00044E787E0FEF716FF43F6EB30C2F2000037
:102600008178C07840EA012043F64041C2F20001DF
:10261000088043F6DE30C2F2000000210180FFE7AF
:1026200043F6DE30C2F20000008843F64041C2F2B9
:1026300000010988884232DAFFE7FDF7C7FF40F260
:102640000800C2F20000417840F2EA02C2F2000241
:10265000D17101881172C1785172418891724179AA
:10266000D17281881173C1795173C1889173417A94
:10267000D17301891174C17A51744089907400201A
:10268000D074212010750E20FEF7B4FEFFE743F64C
:10269000DE30C2F20000018801310180C0E743F65C
:1026A000DE30C2F20000008843F64041C2F2000171
:1026B0000988884225DBFFE740F60040C4F20100AC
:1026C000042120232B902A912A9A04F043F82820F1
:1026D00010232B992990084629992A9A04F03AF850
:1026E00008232B9829992A9A04F034F840F6000020
:1026F000C4F201004FF4004329992A9A04F02AF801
:10270000FFE7FFE7FFE7FFE702F001BB43F63C40CE
:10271000C2F20000006848F20311C0F60001032273
:10272000FDF744FD002808D0FFE743F6EB30C2F286
:1027300000000078DC287AD1FFE700208DF8A101A5
:10274000FEF752FE43F63C40C2F20000006848F239
:102750000311C0F600010322FDF728FD002836D141
:10276000FFE748F2FE01C0F6000100202890FDF7C7
:102770002BFD43F63C41C2F200010860086802F0FC
:1027800085FB289927900846279A03F043FD28984F
:1027900003F09AFD40F20510C2F200000A2180F811
:1027A0003E1044F25451C0F64451C0F83A1045F27C
:1027B0005501C4F24411C0F8361044F24411C2F27B
:1027C0004301C0F832100D20FFF7B6F82DE040F2BB
:1027D000BC00C2F200000121017043F6EB30C2F2EE
:1027E00000004278837843EA022243F6E833C2F2DB
:1027F00000031A804278807840EA02220020269066
:10280000269B2591194603F005FD269803F05CFDF3
:10281000FEF708FE40F20510C2F20000AC2180F87D
:1028200032102598FFF788F8FFE702F06FBA43F6F9
:102830003C40C2F200000068006845F24701C4F65F
:102840004971884209D0FFE743F6EB30C2F200003D
:1028500000786F2842F07281FFE748F2FE01C0F66F
:1028600000010020FDF7B0FC43F63C41C2F200013C
:1028700008600868006844F25251C4F2414188423D
:1028800009D0FFE743F6EB30C2F2000040787D2824
:1028900040F00682FFE743F63C40C2F200000068C9
:1028A000006844F25251C4F24141884240F04D81E7
:1028B000FFE741F20000C4F201004FF4005104F0C0
:1028C00013F801281DD1FFE740F20510C2F2000005
:1028D0000A2180F83E1044F24971C0F64851C0F810
:1028E0003A1043F64521C4F62001C0F8361045F2EF
:1028F0005341C5F24141C0F832100D20FFF71CF8DA
:1029000019E040F20510C2F2000045F24F71C0F626
:102910000D21C0F83A1043F64521C4F62041C0F815
:10292000361045F25341C5F24141C0F832100C2037
:10293000FFF702F8FFE741F20000C4F201004FF494
:10294000004103F0D1FF01281DD1FFE740F205103F
:10295000C2F2000040F60D21C18744F64811C4F6CA
:102960004701C0F83A1044F24C51C2F23A01C0F8A3
:10297000361044F64561C4F24121C0F832100E20F1
:10298000FEF7DAFF1CE040F20510C2F200000A2157
:1029900080F83E1044F64C71C0F65751C0F83A101A
:1029A00044F24C51C2F23A01C0F8361044F6456187
:1029B000C4F24121C0F832100D20FEF7BDFFFFE741
:1029C00040F60040C4F20100022103F08DFF01280F
:1029D0001DD1FFE740F20510C2F200000A2180F885
:1029E0003E1044F24971C0F64851C0F83A1043F61F
:1029F0004B21C4F62001C0F8361044F25741C4F60A
:102A00005F71C0F832100D20FEF796FF19E040F21A
:102A10000510C2F2000045F24F71C0F60D21C0F85A
:102A20003A1043F64B21C4F62041C0F8361044F268
:102A30005741C4F65F71C0F832100C20FEF77CFFDE
:102A4000FFE740F60040C4F201004FF4805103F06C
:102A50004BFF01281AD1FFE740F20510C2F2000037
:102A600044F64701C0F60D21C0F8391044F62001A4
:102A7000C4F24971C0F8361044F24F31C3F6502108
:102A8000C0F832100B20FEF757FF16E040F2051099
:102A9000C2F2000040F60D21418744F62041C5F204
:102AA0004F71C0F8361044F24F31C3F65021C0F8D0
:102AB00032100A20FEF740FFFFE740F60040C4F264
:102AC0000100202103F010FF012820D1FFE740F290
:102AD0000510C2F2000044F64701C0F60D21C0F80F
:102AE0003D1044F62001C4F24971C0F83A1044F692
:102AF0005F11C3F64E21C0F8361045F65311C4F2EB
:102B00004E31C0F832100E20FEF716FF1CE040F2E6
:102B10000510C2F2000040F60D21C18744F62041A5
:102B2000C5F24F71C0F83A1044F65F11C3F64E215A
:102B3000C0F8361045F65311C4F24E31C0F83210C9
:102B40000D20FEF7F9FEFFE7A8E040F20510C2F203
:102B50000000002180F8321041F20000C4F20100B0
:102B60004FF4005103F0C0FE01280BD1FFE740F203
:102B70000510C2F2000090F832104900013180F8CF
:102B8000321009E040F20510C2F2000090F8321055
:102B9000490080F83210FFE741F20000C4F2010062
:102BA0004FF4004103F0A0FE01280BD1FFE740F2F3
:102BB0000510C2F2000090F832104900013180F88F
:102BC000321009E040F20510C2F2000090F8321015
:102BD000490080F83210FFE740F60040C4F20100DF
:102BE000022103F081FE01280BD1FFE740F205101E
:102BF000C2F2000090F832104900013180F8321022
:102C000009E040F20510C2F2000090F832104900CD
:102C100080F83210FFE740F60040C4F201004FF4A4
:102C2000805103F061FE01280BD1FFE740F205104F
:102C3000C2F2000090F832104900013180F83210E1
:102C400009E040F20510C2F2000090F8321049008D
:102C500080F83210FFE740F60040C4F20100202166
:102C600003F042FE01280BD1FFE740F20510C2F24B
:102C7000000090F832104900013180F8321009E06C
:102C800040F20510C2F2000090F83210490080F8BE
:102C90003210FFE70120FEF74FFEFFE701F04DBFC6
:102CA00043F63C40C2F20000006848F20F11C0F643
:102CB00000010722FDF77AFA002809D0FFE743F662
:102CC000EB30C2F2000040787F2841F0BF82FFE77E
:102CD000FDF742FE43F63C40C2F20000006848F2B5
:102CE0000F11C0F600010722FDF760FA002840F03E
:102CF0003E87FFE741F20000C4F201004FF40051AB
:102D000003F0F2FD01281DD1FFE740F20510C2F2E9
:102D100000000A2180F83E1044F24971C0F6485183
:102D2000C0F83A1043F64521C4F62001C0F8361029
:102D300045F25341C5F24141C0F832100D20FEF773
:102D4000FBFD19E040F20510C2F2000045F24F71A0
:102D5000C0F60D21C0F83A1043F64521C4F62041D3
:102D6000C0F8361045F25341C5F24141C0F8321067
:102D70000C20FEF7E1FDFFE741F20000C4F2010084
:102D80004FF4804103F0B0FD01281DD1FFE740F270
:102D90000510C2F200000A2180F83E1044F2497189
:102DA000C0F64851C0F83A1043F64D21C4F6200150
:102DB000C0F8361044F64141C5F24121C0F8321046
:102DC0000D20FEF7B9FD19E040F20510C2F2000037
:102DD00045F24F71C0F60D21C0F83A1043F64D216F
:102DE000C4F62041C0F8361044F64141C5F24121F5
:102DF000C0F832100C20FEF79FFDFFE741F2000003
:102E0000C4F201004FF4004103F06EFD01281DD112
:102E1000FFE740F20510C2F2000040F60D21C18725
:102E200044F64811C4F64701C0F83A1044F24C5138
:102E3000C2F23A01C0F8361044F64561C4F24121AD
:102E4000C0F832100E20FEF777FD1CE040F20510AE
:102E5000C2F200000A2180F83E1044F64C71C0F620
:102E60005751C0F83A1044F24C51C2F23A01C0F83E
:102E7000361044F64561C4F24121C0F832100D20ED
:102E8000FEF75AFDFFE740F60000C4F20100012101
:102E900003F02AFD01281AD1FFE740F20510C2F223
:102EA000000044F64701C0F60D21C0F83A1042F286
:102EB0003A01C4F64811C0F8361044F24921C5F26F
:102EC0005531C0F832100C20FEF736FD19E040F203
:102ED0000510C2F2000045F24F71C0F60D21C0F896
:102EE000391042F23A01C4F64C71C0F8361044F27F
:102EF0004921C5F25531C0F832100B20FEF71CFDF8
:102F0000FFE740F60000C4F20100022103F0ECFCF0
:102F100001281AD1FFE740F20510C2F2000044F682
:102F20004701C0F60D21C0F83A1042F23A01C4F64A
:102F30004811C0F8361044F25611C4F64341C0F8A7
:102F400032100C20FEF7F8FC19E040F20510C2F236
:102F5000000045F24F71C0F60D21C0F8391042F261
:102F60003A01C4F64C71C0F8361044F25611C4F65A
:102F70004341C0F832100B20FEF7DEFCFFE740F6BD
:102F80000000C4F20100042103F0AEFC012817D1B7
:102F9000FFE740F20510C2F2000040F60D21418724
:102FA00044F64811C4F64701C0F8361044F64941CA
:102FB000C2F23A01C0F832100A20FEF7BDFC16E05A
:102FC00040F20510C2F200000A2180F83A1044F6DF
:102FD0004C71C0F65751C0F8361044F64941C2F260
:102FE0003A01C0F832100920FEF7A6FCFFE740F6D0
:102FF0000000C4F20100082103F076FC01281AD178
:10300000FFE740F20510C2F2000044F64701C0F6A7
:103010000D21C0F83A1042F23A01C4F64811C0F846
:10302000361044F25451C5F24D01C0F832100C2054
:10303000FEF782FC19E040F20510C2F2000045F2F2
:103040004F71C0F60D21C0F8391042F23A01C4F6B2
:103050004C71C0F8361044F25451C5F24D01C0F81D
:1030600032100B20FEF768FCFFE740F60000C4F2C8
:103070000100102103F038FC01281DD1FFE740F2C8
:103080000510C2F2000040F60D21C18744F6481138
:10309000C4F64701C0F83A1044F65401C2F23A01AE
:1030A000C0F8361044F24F31C5F65071C0F83210F6
:1030B0000E20FEF741FC1CE040F20510C2F20000B9
:1030C0000A2180F83E1044F64C71C0F65751C0F802
:1030D0003A1044F65401C2F23A01C0F8361044F2F4
:1030E0004F31C5F65071C0F832100D20FEF724FCA8
:1030F000FFE740F60000C4F20100202103F0F4FBDA
:1031000001281AD1FFE740F20510C2F2000044F690
:103110004701C0F60D21C0F83A1042F23A01C4F658
:103120004811C0F8361044F25611C4F64361C0F895
:1031300032100C20FEF700FC19E040F20510C2F23C
:10314000000045F24F71C0F60D21C0F8391042F26F
:103150003A01C4F64C71C0F8361044F25611C4F668
:103160004361C0F832100B20FEF7E6FBFFE740F6A4
:103170000000C4F20100402103F0B6FB01281AD17F
:10318000FFE740F20510C2F2000044F64701C0F626
:103190000D21C0F83A1042F23A01C4F64811C0F8C5
:1031A000361044F25621C5F25531C0F832100C20C9
:1031B000FEF7C2FB19E040F20510C2F2000045F232
:1031C0004F71C0F60D21C0F8391042F23A01C4F631
:1031D0004C71C0F8361044F25621C5F25531C0F892
:1031E00032100B20FEF7A8FBFFE740F60000C4F208
:1031F0000100802103F078FB01281DD1FFE740F298
:103200000510C2F200000A2180F83E1044F2497114
:10321000C0F64851C0F83A1043F65921C4F62001CF
:10322000C0F8361044F25251C4F24C11C0F83210BA
:103230000D20FEF781FB19E040F20510C2F20000FC
:1032400045F24F71C0F60D21C0F83A1043F65921EE
:10325000C4F62041C0F8361044F25251C4F24C1169
:10326000C0F832100C20FEF767FBFFE740F6004085
:10327000C4F20100012103F037FB012817D1FFE759
:1032800040F20510C2F2000040F60D21418744F6DD
:103290004811C4F64701C0F8361044F25741C2F253
:1032A0003A01C0F832100A20FEF746FB16E040F261
:1032B0000510C2F200000A2180F83A1044F64C7161
:1032C000C0F65751C0F8361044F25741C2F23A01E5
:1032D000C0F832100920FEF72FFBFFE740F6004050
:1032E000C4F20100022103F0FFFA01281DD1FFE71B
:1032F00040F20510C2F200000A2180F83E1044F2AC
:103300004971C0F64851C0F83A1043F64B21C4F653
:103310002001C0F8361044F25741C4F65F71C0F87E
:1033200032100D20FEF708FB19E040F20510C2F242
:10333000000045F24F71C0F60D21C0F83A1043F677
:103340004B21C4F62041C0F8361044F25741C4F670
:103350005F71C0F832100C20FEF7EEFAFFE740F67E
:103360000040C4F20100042103F0BEFA012820D17C
:10337000FFE740F20510C2F2000044F64701C0F634
:103380000D21C0F83E1042F23A01C4F64811C0F8CF
:103390003A1045F65471C4F24451C0F8361045F263
:1033A0005531C5F24121C0F832101020FEF7C4FAA1
:1033B0001FE040F20510C2F2000045F24F71C0F666
:1033C0000D21C0F83D1042F23A01C4F64C71C0F82C
:1033D0003A1045F65471C4F24451C0F8361045F223
:1033E0005531C5F24121C0F832100F20FEF7A4FA82
:1033F000FFE740F60040C4F201004FF4806103F0A3
:1034000073FA012820D1FFE740F20510C2F2000054
:1034100044F64701C0F60D21C0F83E1042F23A01D1
:10342000C4F64811C0F83A1045F65471C5F6540177
:10343000C0F8361045F25531C5F24121C0F83210BE
:103440001020FEF779FA1FE040F20510C2F20000EA
:1034500045F24F71C0F60D21C0F83D1042F23A011D
:10346000C4F64C71C0F83A1045F65471C5F65401D3
:10347000C0F8361045F25531C5F24121C0F832107E
:103480000F20FEF759FAFFE740F60040C4F20100B2
:103490004FF4006103F028FA012820D1FFE740F241
:1034A0000510C2F2000044F64701C0F60D21C0F835
:1034B0003E1042F23A01C4F64811C0F83A1045F6FF
:1034C0005471C5F65201C0F8361045F25531C5F2B7
:1034D0004121C0F832101020FEF72EFA1FE040F212
:1034E0000510C2F2000045F24F71C0F60D21C0F880
:1034F0003D1042F23A01C4F64C71C0F83A1045F65C
:103500005471C5F65201C0F8361045F25531C5F276
:103510004121C0F832100F20FEF70EFAFFE740F607
:103520000040C4F201004FF4805103F0DDF901289E
:103530001AD1FFE740F20510C2F2000040F64851F0
:10354000C0F20A01C0F83A1044F62001C4F24971F1
:10355000C0F8361044F24F31C3F65021C0F8321093
:103560000C20FEF7E9F917E040F20510C2F2000066
:1035700040F60D21C0F83A1044F62041C5F24F71D3
:10358000C0F8361044F24F31C3F65021C0F8321063
:103590000B20FEF7D1F9FFE740F60040C4F201002E
:1035A0004FF4005103F0A0F901281DD1FFE740F2CC
:1035B0000510C2F2000040F60D21C18744F6481103
:1035C000C4F64701C0F83A1044F65301C2F23A017A
:1035D000C0F8361045F25071C5F64D71C0F8321082
:1035E0000E20FEF7A9F91CE040F20510C2F200001F
:1035F0000A2180F83E1044F64C71C0F65751C0F8CD
:103600003A1044F65301C2F23A01C0F8361045F2BE
:103610005071C5F64D71C0F832100D20FEF78CF9CF
:10362000FFE740F60040C4F201004FF4804103F090
:103630005BF901281DD1FFE740F20510C2F200003E
:1036400040F60D21C18744F64811C4F64701C0F881
:103650003A1044F65341C2F23A01C0F8361045F22E
:103660005071C5F64D71C0F832100E20FEF764F9A6
:103670001CE040F20510C2F200000A2180F83E1062
:1036800044F64C71C0F65751C0F83A1044F6534115
:10369000C2F23A01C0F8361045F25071C5F64D71CC
:1036A000C0F832100D20FEF747F9FFE740F6004062
:1036B000C4F201004FF4004103F016F901281AD1B9
:1036C000FFE740F20510C2F2000044F64701C0F6E1
:1036D0000D21C0F83A1042F23A01C4F64811C0F880
:1036E000361044F24C51C3F24411C0F832100C2091
:1036F000FEF722F919E040F20510C2F2000045F28F
:103700004F71C0F60D21C0F8391042F23A01C4F6EB
:103710004C71C0F8361044F24C51C3F24411C0F859
:1037200032100B20FEF708F9FFE740F60000C4F264
:1037300001004FF4807103F0D7F801281DD1FFE795
:1037400040F20510C2F2000040F60D21C18744F698
:103750004811C4F64701C0F83A1044F64601C2F2D7
:103760003A01C0F8361045F25071C5F64D71C0F8F7
:1037700032100E20FEF7E0F81CE040F20510C2F215
:1037800000000A2180F83E1044F64C71C0F65751F3
:10379000C0F83A1044F64601C2F23A01C0F83610B9
:1037A00045F25071C5F64D71C0F832100D20FEF78C
:1037B000C3F8FFE740F60000C4F201004FF40071C7
:1037C00003F092F801281DD1FFE740F20510C2F284
:1037D000000040F60D21C18744F64811C4F64701A8
:1037E000C0F83A1044F64641C2F23A01C0F8361029
:1037F00045F25071C5F64D71C0F832100E20FEF73B
:103800009BF81CE040F20510C2F200000A2180F88B
:103810003E1044F64C71C0F65751C0F83A1044F6C9
:103820004641C2F23A01C0F8361045F25071C5F671
:103830004D71C0F832100D20FEF77EF8FFE740F61C
:103840000040C4F201004FF4005103F04DF801288C
:103850001DD1FFE740F20510C2F2000040F60D2135
:10386000C18744F64811C4F64701C0F83A1044F63F
:103870005301C2F23A01C0F8361045F25071C5F654
:103880004D71C0F832100E20FEF756F81CE040F2E1
:103890000510C2F200000A2180F83E1044F64C7177
:1038A000C0F65751C0F83A1044F65301C2F23A013B
:1038B000C0F8361045F25071C5F64D71C0F832109F
:1038C0000D20FEF739F8FFE740F60000C4F20100D2
:1038D0004FF4806103F008F801281DD1FFE740F2A2
:1038E0000510C2F2000040F60D21C18744F64811D0
:1038F000C4F64701C0F83A1044F64561C2F23A01F5
:10390000C0F8361045F25071C5F64D71C0F832104E
:103910000E20FEF711F81CE040F20510C2F2000084
:103920000A2180F83E1044F64C71C0F65751C0F899
:103930003A1044F64561C2F23A01C0F8361045F239
:103940005071C5F64D71C0F832100D20FDF7F4FF2F
:10395000FFE740F60000C4F201004FF4006102F0FE
:10396000C3FF01281DD1FFE740F20510C2F200009D
:1039700040F60D21C18744F64811C4F64701C0F84E
:103980003A1045F65201C2F23A01C0F8361044F23C
:103990004311C5F64E71C0F832100E20FDF7CCFF72
:1039A0001CE040F20510C2F200000A2180F83E102F
:1039B00044F64C71C0F65751C0F83A1045F6520122
:1039C000C2F23A01C0F8361044F24311C5F64E7106
:1039D000C0F832100D20FDF7AFFFFFE740F6000002
:1039E000C4F201004FF4805102F07EFF01281DD186
:1039F000FFE740F20510C2F2000040F60D21C1873A
:103A000044F64811C4F64701C0F83A1045F654018F
:103A1000C2F23A01C0F8361044F24311C5F64E71B5
:103A2000C0F832100E20FDF787FF1CE040F20510B1
:103A3000C2F200000A2180F83E1044F64C71C0F634
:103A40005751C0F83A1045F65401C2F23A01C0F895
:103A5000361044F24311C5F64E71C0F832100D20F5
:103A6000FDF76AFFFFE740F60040C4F201002021A5
:103A700002F03AFF012820D1FFE740F20510C2F220
:103A8000000044F64701C0F60D21C0F83D1044F691
:103A90002001C4F24971C0F83A1044F65F11C3F630
:103AA0004E21C0F8361045F65311C4F24E31C0F81D
:103AB00032100F20FDF740FF1CE040F20510C2F26B
:103AC000000040F60D21C18744F62041C5F24F7138
:103AD000C0F83A1044F65F11C3F64E21C0F8361014
:103AE00045F65311C4F24E31C0F832100E20FDF7E6
:103AF00023FFFFE740F60040C4F201004FF480715D
:103B000002F0F2FE01281AD1FFE740F20510C2F2DE
:103B1000000044F64701C0F60D21C0F8391044F604
:103B20002001C4F24971C0F8361044F24611C3F6C0
:103B30004E21C0F832100B20FDF7FEFE16E040F2D9
:103B40000510C2F2000040F60D21418744F62041E5
:103B5000C5F24F71C0F8361044F24611C3F64E213B
:103B6000C0F832100A20FDF7E7FEFFE764E340F2F9
:103B70000510C2F20000002180F8321080F83310E6
:103B800080F8341080F8351041F20000C4F20100D2
:103B90004FF4005102F0A8FE01280BD1FFE740F2DC
:103BA0000510C2F2000090F832104900013180F88F
:103BB000321009E040F20510C2F2000090F8321015
:103BC000490080F83210FFE741F20000C4F2010022
:103BD0004FF4804102F088FE01280BD1FFE740F24C
:103BE0000510C2F2000090F832104900013180F84F
:103BF000321009E040F20510C2F2000090F83210D5
:103C0000490080F83210FFE741F20000C4F20100E1
:103C10004FF4004102F068FE01280BD1FFE740F2AB
:103C20000510C2F2000090F832104900013180F80E
:103C3000321009E040F20510C2F2000090F8321094
:103C4000490080F83210FFE740F60000C4F201009E
:103C5000012102F049FE01280BD1FFE740F20510D7
:103C6000C2F2000090F832104900013180F83210A1
:103C700009E040F20510C2F2000090F8321049004D
:103C800080F83210FFE740F60000C4F20100022184
:103C900002F02AFE01280BD1FFE740F20510C2F224
:103CA000000090F832104900013180F8321009E02C
:103CB00040F20510C2F2000090F83210490080F87E
:103CC0003210FFE740F60000C4F20100042102F0C8
:103CD0000BFE01280BD1FFE740F20510C2F20000F5
:103CE00090F832104900013180F8321009E040F2BA
:103CF0000510C2F2000090F83210490080F832102E
:103D0000FFE740F60000C4F20100082102F0ECFDDC
:103D100001280BD1FFE740F20510C2F2000090F835
:103D200032104900013180F8321009E040F20510EC
:103D3000C2F2000090F83210490080F83210FFE71C
:103D400040F60000C4F20100102102F0CDFD012870
:103D50000BD1FFE740F20510C2F2000090F83210DC
:103D60004900013180F8321009E040F20510C2F23A
:103D7000000090F83210490080F83210FFE740F65A
:103D80000000C4F20100202102F0AEFD01280BD199
:103D9000FFE740F20510C2F2000090F8321049002F
:103DA000013180F8331009E040F20510C2F2000042
:103DB00090F83310490080F83310FFE740F6000018
:103DC000C4F20100402102F08FFD01280BD1FFE772
:103DD00040F20510C2F2000090F8321049000131A3
:103DE00080F8331009E040F20510C2F2000090F8AC
:103DF0003310490080F83310FFE740F60000C4F2AA
:103E00000100802102F070FD01280BD1FFE740F294
:103E10000510C2F2000090F832104900013180F81C
:103E2000331009E040F20510C2F2000090F83310A0
:103E3000490080F83310FFE740F60040C4F201006B
:103E4000012102F051FD01280BD1FFE740F20510DE
:103E5000C2F2000090F832104900013180F83310AE
:103E600009E040F20510C2F2000090F8331049005A
:103E700080F83310FFE740F60040C4F20100022151
:103E800002F032FD01280BD1FFE740F20510C2F22B
:103E9000000090F832104900013180F8331009E039
:103EA00040F20510C2F2000090F83310490080F88B
:103EB0003310FFE740F60040C4F20100042102F095
:103EC00013FD01280BD1FFE740F20510C2F20000FC
:103ED00090F832104900013180F8331009E040F2C7
:103EE0000510C2F2000090F83310490080F833103A
:103EF000FFE740F60040C4F201004FF4806102F099
:103F0000F3FC01280BD1FFE740F20510C2F20000DC
:103F100090F832104900013180F8331009E040F286
:103F20000510C2F2000090F83310490080F83310F9
:103F3000FFE740F60040C4F201004FF4006102F0D8
:103F4000D3FC01280BD1FFE740F20510C2F20000BC
:103F500090F832104900013180F8331009E040F246
:103F60000510C2F2000090F83310490080F83310B9
:103F7000FFE740F60040C4F201004FF4805102F028
:103F8000B3FC01280BD1FFE740F20510C2F200009C
:103F900090F832104900013180F8341009E040F205
:103FA0000510C2F2000090F83410490080F8341077
:103FB000FFE740F60040C4F201004FF4005102F068
:103FC00093FC01280BD1FFE740F20510C2F200007C
:103FD00090F832104900013180F8341009E040F2C5
:103FE0000510C2F2000090F83410490080F8341037
:103FF000FFE740F60040C4F201004FF4804102F0B8
:1040000073FC01280BD1FFE740F20510C2F200005B
:1040100090F832104900013180F8341009E040F284
:104020000510C2F2000090F83410490080F83410F6
:10403000FFE740F60040C4F201004FF4004102F0F7
:1040400053FC01280BD1FFE740F20510C2F200003B
:1040500090F832104900013180F8341009E040F244
:104060000510C2F2000090F83410490080F83410B6
:10407000FFE740F60000C4F201004FF4807102F047
:1040800033FC01280BD1FFE740F20510C2F200001B
:1040900090F832104900013180F8341009E040F204
:1040A0000510C2F2000090F83410490080F8341076
:1040B000FFE740F60000C4F201004FF4007102F087
:1040C00013FC01280BD1FFE740F20510C2F20000FB
:1040D00090F832104900013180F8341009E040F2C4
:1040E0000510C2F2000090F83410490080F8341036
:1040F000FFE740F60000C4F201004FF4806102F0D7
:10410000F3FB01280BD1FFE740F20510C2F20000DB
:1041100090F832104900013180F8341009E040F283
:104120000510C2F2000090F83410490080F83410F5
:10413000FFE740F60000C4F201004FF4006102F016
:10414000D3FB01280BD1FFE740F20510C2F20000BB
:1041500090F832104900013180F8341009E040F243
:104160000510C2F2000090F83410490080F83410B5
:10417000FFE740F60000C4F201004FF4805102F066
:10418000B3FB01280BD1FFE740F20510C2F200009B
:1041900090F832104900013180F8351009E040F202
:1041A0000510C2F2000090F83510490080F8351073
:1041B000FFE740F60040C4F20100202102F094FB2A
:1041C00001280BD1FFE740F20510C2F2000090F881
:1041D00032104900013180F8351009E040F2051035
:1041E000C2F2000090F83510490080F83510FFE762
:1041F00040F60040C4F201004FF4807102F074FBFD
:1042000001280BD1FFE740F20510C2F2000090F840
:1042100032104900013180F8351009E040F20510F4
:10422000C2F2000090F83510490080F83510FFE721
:104230000420FDF781FBFFE7FCF7CCFDFDF794FBC5
:10424000FCF7CEFFFCF7A6FD00F076BC43F63C4041
:10425000C2F200000068006844F64811C4F6470145
:10426000884209D0FFE743F6EB30C2F20000407805
:10427000FF2840F0D780FFE741F20000C4F20100C0
:104280004FF400512490239102F05CFA4FF4004067
:10429000249922900846229902F054FA40F60040F0
:1042A000C4F2010002212190209102F04BFA4FF458
:1042B000805021991F9008461F9902F043FA202050
:1042C00021991E9008461E9902F03CFA4FF4804056
:1042D00024991D9008461D9902F034FA40F600001A
:1042E000C4F2010080211C9002F02CFA01202199D7
:1042F0001B9008461B9902F025FA042021991A9078
:1043000008461A9902F01EFA2198229902F01AFA28
:104310004FF480601C9919900846199902F012FA1E
:104320004FF48070219918900846189902F00AFA03
:104330004FF400711C9802F005FA1C98189902F0CD
:1043400001FA21981D9902F0FDF92198239902F0B4
:10435000F9F91C981B9902F0F5F91C98209902F0C4
:10436000F1F91C981A9902F0EDF908211C9802F055
:10437000E9F91C981E9902F0E5F940211C9802F019
:10438000E1F910211C9802F0DDF92198199902F049
:10439000D9F94FF40060219917900846179902F057
:1043A000D1F91C981F9902F0CDF91C98179902F0C9
:1043B000C9F943F63C40C2F200000068006844F6C8
:1043C0004811C4F64701884220D1FFE740F20510AA
:1043D000C2F2000044F64701C0F60D21C0F83D10BE
:1043E00044F62001C4F24971C0F83A1045F2470181
:1043F000C4F64971C0F8361044F64141C2F24C018E
:10440000C0F832100F20FDF797FA0AE040F20510CD
:10441000C2F20000AC2180F832100120FDF78CFAC6
:10442000FFE788E343F63C40C2F20000006848F230
:104430004111C0F600010322FBF7B8FE002809D0A5
:10444000FFE743F6EB30C2F200004078002840F06E
:10445000D680FFE741F20000C4F201004FF40051A2
:104460001690159102F066F94FF4004016991490D9
:104470000846149902F05EF940F60040C4F20100CB
:1044800002211390129102F055F94FF480501399C4
:1044900011900846119902F04DF9202013991090BF
:1044A0000846109902F046F94FF4804016990F9093
:1044B00008460F9902F03EF940F60000C4F20100F0
:1044C00080210E9002F036F9012013990D900846D4
:1044D0000D9902F02FF9042013990C9008460C99BD
:1044E00002F028F91398149902F024F94FF480602F
:1044F0000E990B9008460B9902F01CF94FF480704E
:1045000013990A9008460A9902F014F94FF40071C1
:104510000E9802F00FF90E980A9902F00BF9139811
:104520000F9902F007F91398159902F003F90E9804
:104530000D9902F0FFF80E98129902F0FBF80E9810
:104540000C9902F0F7F808210E9802F0F3F80E9893
:10455000109902F0EFF840210E9802F0EBF81021CC
:104560000E9802F0E7F813980B9902F0E3F84FF475
:104570000060139909900846099902F0DBF80E983B
:10458000119902F0D7F80E98099902F0D3F843F682
:104590003C40C2F20000006848F24111C0F6000140
:1045A0000322FBF703FE00281DD1FFE740F20510B0
:1045B000C2F2000040F60D21C18744F62041C5F249
:1045C0004F71C0F83A1045F24701C4F64971C0F87E
:1045D000361044F64141C2F24C01C0F832100E20B0
:1045E000FDF7AAF90AE040F20510C2F20000AC2182
:1045F00080F832100120FDF79FF9FFE79AE243F6B9
:104600003C40C2F20000006848F21E11C0F60001F2
:104610000622FBF7CBFD002809D0FFE743F6EB307D
:10462000C2F200004078CC2840F0BA81FFE743F6A0
:104630003C40C2F20000006848F21E11C0F60001C2
:104640000622FBF7B3FD002840F0E180FFE748F2C7
:10465000FE01C0F600010020FBF7B6FD43F63C4129
:10466000C2F200010860086800F0E6FB43F6E031A2
:10467000C2F2000108600878C007002809D0FFE7EF
:1046800041F20000C4F201004FF4804102F05AF8F8
:1046900008E041F20000C4F201004FF4804102F052
:1046A00049F8FFE743F6E030C2F200000068400836
:1046B000C007002808D0FFE740F60000C4F2010060
:1046C000802102F03FF807E040F60000C4F201004C
:1046D000802102F02FF8FFE743F6E030C2F200003D
:1046E00000688008C007002808D0FFE740F60040B7
:1046F000C4F20100012102F025F807E040F6004075
:10470000C4F20100012102F015F8FFE743F6E030A2
:10471000C2F200000068C008C007002808D0FFE708
:1047200040F60040C4F20100042102F00BF807E05B
:1047300040F60040C4F20100042101F0FBFFFFE756
:1047400043F6E030C2F2000000680009C00700280C
:1047500009D0FFE740F60040C4F201004FF40041E9
:1047600001F0F0FF08E040F60040C4F201004FF411
:10477000004101F0DFFFFFE743F6E030C2F2000046
:1047800000680009C007002809D0FFE740F60000D4
:10479000C4F201004FF4806101F0D4FF08E040F65C
:1047A0000000C4F201004FF4806101F0C3FFFFE795
:1047B00043F6E030C2F2000000680009C00700289C
:1047C00009D0FFE740F60040C4F201004FF48071C9
:1047D00001F0B8FF08E040F60040C4F201004FF4D9
:1047E000807101F0A7FFFFE740F20510C2F2000060
:1047F000323048F2BF01C0F6000114220892FBF7E4
:10480000C3FC089907900846FDF796F8C7E043F601
:10481000EB30C2F200008078C007002809D0FFE723
:1048200041F20000C4F201004FF4804101F08AFF20
:1048300008E041F20000C4F201004FF4804101F0B1
:1048400079FFFFE743F6EB30C2F2000080784008C2
:10485000C007002808D0FFE740F60000C4F20100BE
:10486000802101F06FFF07E040F60000C4F2010074
:10487000802101F05FFFFFE743F6EB30C2F200005A
:1048800080788008C007002808D0FFE740F6004085
:10489000C4F20100012101F055FF07E040F600409D
:1048A000C4F20100012101F045FFFFE743F6EB30C0
:1048B000C2F200008078C008C007002808D0FFE7D7
:1048C00040F60040C4F20100042101F03BFF07E084
:1048D00040F60040C4F20100042101F02BFFFFE785
:1048E00043F6EB30C2F2000080780009C0070028D0
:1048F00009D0FFE740F60040C4F201004FF4004148
:1049000001F020FF08E040F60040C4F201004FF43F
:10491000004101F00FFFFFE743F6EB30C2F2000069
:1049200080784009C007002809D0FFE740F6000062
:10493000C4F201004FF4806101F004FF08E040F68A
:104940000000C4F201004FF4806101F0F3FEFFE7C4
:1049500043F6EB30C2F2000080788009C0070028DF
:1049600009D0FFE740F60040C4F201004FF4807127
:1049700001F0E8FE08E040F60040C4F201004FF408
:10498000807101F0D7FEFFE740F20510C2F200008F
:10499000AC2180F832100120FCF7CEFFFFE7C8E021
:1049A00043F63C40C2F20000006848F22D11C0F608
:1049B00000010722FBF7FAFB002808D0FFE743F6C7
:1049C000EB30C2F200004078AA2867D1FFE743F637
:1049D0003C40C2F20000006848F22D11C0F6000110
:1049E0000722FBF7E3FB002829D1FFE748F2FE008E
:1049F000C0F60000002106900846069A059111466F
:104A0000FBF7E2FB43F63C41C2F200010860086894
:104A1000049100F03BFA43F63A41C2F200010880EB
:104A200005980699FBF7D0FB04990860086800F028
:104A30002DFA43F63841C2F20001088016E043F631
:104A4000EB30C2F200008178C27842EA012143F6DD
:104A50003A42C2F2000211800179407940EA012015
:104A600043F63841C2F200010880FFE743F63A40BE
:104A7000C2F20000008841F2883188420DDCFFE775
:104A800043F6E530C2F20000012101701C2000F065
:104A9000E9FC322000F004FDFFE749E043F63C402A
:104AA000C2F20000006848F23D11C0F60001072282
:104AB000FBF77CFB002808D0FFE743F6EB30C2F29F
:104AC00000004078A0280DD1FFE7FCF71DF840F268
:104AD0000510C2F20000AC2180F832100120FCF772
:104AE0002BFF24E043F63C40C2F20000006848F28D
:104AF0001711C0F600010622FBF758FB002808D06A
:104B0000FFE743F6EB30C2F200004078A4280DD155
:104B1000FFE7FCF75FF940F20510C2F20000AC219C
:104B200080F832100120FCF707FFFFE7FFE7FFE7FF
:104B3000FFE7FFE7FFE7FFE7FFE7E6E043F63C407C
:104B4000C2F200000068006844F25511C5F25241FB
:104B5000884208D0FFE743F6EB30C2F2000000784D
:104B6000CA2861D1FFE748F2FE01C0F6000100202B
:104B7000FBF72AFB43F63C41C2F2000108600868DB
:104B8000008844F65451884208D0FFE743F6EB30E2
:104B9000C2F200000078CA2845D1FFE740F2BD000C
:104BA000C2F2000043F23101C0F60D21016243F26E
:104BB0005131C3F23201C16142F24F01C5F24D01E0
:104BC000816144F24851C4F64C4141611020FCF728
:104BD000EFFA43F63C40C2F200000068008844F659
:104BE0005451884213D1FFE740F20510C2F2000091
:104BF000323048F2D401C0F6000115220392FBF7CF
:104C0000C3FA039902900846FCF796FE0AE040F2C8
:104C10000510C2F20000AC2180F832100120FCF730
:104C20008BFEFFE7FFE76FE043F63C40C2F2000077
:104C3000006848F22911C0F600010322FBF7B6FA1A
:104C4000002808D0FFE743F6EB30C2F200000078FE
:104C5000C52858D1FFE748F2FE01C0F60001002048
:104C6000FBF7B2FA43F63C41C2F200010860086863
:104C7000008844F65451884208D0FFE743F6EB30F1
:104C8000C2F200000078C5283CD1FFE740F21400D2
:104C9000C2F200005521A0F8A010032180F8A41052
:104CA0004D21C1725021017353214173FBF7AAFCBE
:104CB00043F63C40C2F200000068008844F65451BC
:104CC000884213D1FFE740F20510C2F200003230F3
:104CD00048F2EA01C0F6000113220192FBF754FAF0
:104CE000019900900846FCF727FE0AE040F2051003
:104CF000C2F20000AC2180F832100120FCF71CFE4B
:104D0000FFE7FFE7FFE7FFE7FFE7FFE7FFE7FFE773
:104D100000208DF8A301FFE79DF8A30131280FDCE7
:104D2000FFE79DF8A30140F20511C2F20001002245
:104D30000A54FFE79DF8A30101308DF8A301EBE7CA
:104D40009DF8A101002804D0FFE71C2000F0A8FB7B
:104D5000FFE7FFE769B0BDE8F08F000080B59CB0C9
:104D6000FCF738F8FCF700FEFCF73AFAFCF712F80B
:104D70004FF4E1301690002117911891199140F2EB
:104D80000512C2F2000202F132031A931B9216AB13
:104D90000690184605910492FCF714FD2020049912
:104DA00081F832000122039010460292FCF7C4FD04
:104DB00006981090059911911291139140F2BD023D
:104DC000C2F2000202F114031493159210A801928A
:104DD000FCF74AF90398019908750298FCF7E8F97D
:104DE00005980C900D900F9009900E9040F2EA01FA
:104DF000C2F20001CA1D0A9205310B9109A8FCF705
:104E00000FFA4FF4FA70079005988DF821008DF88D
:104E1000200007A8FBF750FFFBF7CAFC42F6DF6053
:104E2000FCF73CFB0E20FCF709FC40F6B730FCF722
:104E3000CDFB1CB080BD000083B00290002001902B
:104E40008DF80300FFE702989DF80310405C0021F5
:104E50002F280A46C8BF01223A28B8BF01210A42BA
:104E600011D0FFE701984000019002989DF80310CF
:104E7000405C01990844303801909DF803000130EE
:104E80008DF80300DFE7019803B0704782B001900E
:104E90000020ADF80200ADF80000FFE70198BDF872
:104EA0000010405C00212F280A46C8BF01223A2882
:104EB000B8BF01210A4217D0FFE7BDF8020000EB9E
:104EC00080004000ADF802000198BDF80010405C81
:104ED000BDF8021008443038ADF80200BDF80000FB
:104EE0000130ADF80000D9E7BDF8020002B070470C
:104EF00080B582B0009000980138B0F1807F03D374
:104F0000FFE70120019019E0009801384EF21401EA
:104F1000CEF2000108604FF0FF300F2100F0DAFA06
:104F20004EF21800CEF20000002101604EF2100097
:104F3000CEF20000072202600191FFE7019802B063
:104F400080BD000080B543F64440C2F20000016815
:104F50000131016000684CF66311C9F22F614843CA
:104F60004FEAF00043F60621C0F26D01884226D8D0
:104F7000FFE743F6D130C2F200000178B1FA81F1C7
:104F8000490901700078002809D0FFE740F6004089
:104F9000C4F201004FF4007101F0D4FB0EE040F6C2
:104FA0000040C4F201004FF4007101F0C3FB43F66E
:104FB0004440C2F2000000210160FFE7FFE7FCF778
:104FC000F7FC80BD80B582B04EF68850CEF200006E
:104FD000016841F47001016041F20000C4F2020076
:104FE000016841F00101016041F20401C4F20201D3
:104FF00000220A6041F22C01C4F202010A60016839
:105000004FF6FF73CEF6F6231940016041F2080116
:10501000C4F202014FF47F030B60016821F4802188
:105020000160019202F09AF94FF00060019901F0DD
:105030008FFE02B080BD000080B542F60040C4F291
:105040000100012102F0FCFD002808D0FFE742F634
:105050000040C4F20100012102F0E6FDFFE780BD3F
:1050600080B582B04FF08040012102F0E9FD0028B8
:1050700050D0FFE74FF08040012102F0D5FD43F60C
:105080004240C2F200000078002819D1FFE740F248
:105090000510C2F20000323048F2AB01C0F6000148
:1050A00013220192FBF770F8019900900846FCF773
:1050B00043FC43F64240C2F200000121017014E0BB
:1050C00043F64240C2F20000007800280CD0FFE70F
:1050D00040F2BC00C2F200000078002803D1FFE7D4
:1050E000FCF718FCFFE7FFE7FFE740F20510C2F20C
:1050F0000000007800280CD0FFE740F20510C2F253
:10510000000042F24371012242541C2000F0AAF92F
:10511000FFE7FFE702B080BD80B584B040F60040F5
:10512000C4F20000012102F08BFD002800F09881FC
:10513000FFE740F60040C4F20000012102F074FDD8
:1051400043F6E530C2F200000078002800F08781C5
:10515000FFE743F64840C2F20000018801310180B8
:10516000008843F63841C2F2000109884FF4FA5230
:10517000B2FBF1F1884240F3D980FFE743F6DC301F
:10518000C2F20000008843F63A41C2F200010988E9
:10519000884280F2CB80FFE743F64840C2F200002D
:1051A0000021018041F20000C4F201004FF40051DF
:1051B00001F09AFB01280ED1FFE743F6DC30C2F282
:1051C0000000008842F64901C2F200010A5C520068
:1051D00001320A540CE043F6DC30C2F200000088D1
:1051E00042F64901C2F200010A5C52000A54FFE78C
:1051F00041F20000C4F201004FF4004101F074FBE1
:1052000001280ED1FFE743F6DC30C2F2000000882F
:1052100042F64901C2F200010A5C520001320A540E
:105220000CE043F6DC30C2F20000008842F649018F
:10523000C2F200010A5C52000A54FFE740F6004047
:10524000C4F20100022101F04FFB01280ED1FFE75B
:1052500043F6DC30C2F20000008842F64901C2F297
:1052600000010A5C520001320A540CE043F6DC30C3
:10527000C2F20000008842F64901C2F200010A5C55
:1052800052000A54FFE740F60040C4F201004FF418
:10529000805101F029FB01280ED1FFE743F6DC30F5
:1052A000C2F20000008842F64901C2F200010A5C25
:1052B000520001320A540CE043F6DC30C2F2000026
:1052C000008842F64901C2F200010A5C52000A5409
:1052D000FFE740F60040C4F20100202101F004FB8A
:1052E00001280ED1FFE743F6DC30C2F2000000884F
:1052F00042F64901C2F200010A5C520001320A542E
:105300000CE043F6DC30C2F20000008842F64901AE
:10531000C2F200010A5C52000A54FFE743F6DC3097
:10532000C2F2000001880131018097E043F6DC30D1
:10533000C2F20000008843F63A41C2F20001098837
:105340008842C0F28A80FFE743F6DC30C2F20000F8
:105350000021018043F6E432C2F2000201231370FF
:1053600043F6E533C2F20003197011703222039044
:105370001046029100F076F8029803990880FFE742
:1053800043F6DC30C2F20000008843F63A41C2F234
:105390000001098888425CDAFFE743F6E630C2F292
:1053A000000000210170FFE743F6DC30C2F200008C
:1053B000008843F6E631C2F200010978084443F65A
:1053C0003A41C2F2000109880022884201920BDAB8
:1053D000FFE743F6E630C2F20000007800213228F1
:1053E000B8BF01210191FFE70198C007002820D034
:1053F000FFE743F6DC30C2F20000008843F6E631F6
:10540000C2F200010978084442F64901C2F20001E3
:10541000095C40F20512C2F20002104480F832101A
:10542000FFE743F6E630C2F2000001780131017077
:10543000BAE743F6E630C2F200000078FCF77CFAE7
:10544000FFE743F6DC30C2F2000001883231018010
:1054500096E71C2000F024F8FFE7FFE7FFE7FFE7EF
:1054600004B080BD81B001468DF803009DF90300B2
:10547000002813D4FFE79DF9030000F01F0101226B
:1054800002FA01F140094EF28012CEF2000242F817
:105490002010BFF34F8FBFF36F8FFFE701B070474E
:1054A00081B001468DF803009DF9030000280FD458
:1054B000FFE79DF9030000F01F01012202FA01F14C
:1054C00040094EF20012CEF2000242F82010FFE72F
:1054D00001B0704782B002468DF8070000919DF937
:1054E000070000280AD4FFE7009800019DF9071083
:1054F0004EF20042CEF2000288540BE00098000108
:105500009DF8071001F00F014EF61452CEF2000282
:105510008854FFE702B0704781B00090009881681E
:1055200041F008018160FFE70098806800070028CB
:1055300001D5FFE7F8E70098816841F00401816038
:10554000FFE7009880684007002801D5FFE7F8E7EB
:1055500001B0704784B00B4603908DF80B10019298
:105560009DF80B0001460128009104D0FFE7009848
:10557000022812D023E00398C16A21F47001C162AD
:1055800001980021CFF6F07101EB00503FFA80F056
:105590000399CA6A1043C86212E00398816B21F430
:1055A0004011816301980021CFF6F07101EB0050AA
:1055B00000F4401003998A6B1043886300E0FFE712
:1055C00004B0704782B0019000910098002806D086
:1055D000FFE70198816841F40061816005E001986E
:1055E000816821F400618160FFE702B0704700002C
:1055F00081B000900098816841F48071816001B0B1
:105600007047000081B0009000988068C0070028B3
:1056100006D1FFE70098816841F001018160FFE752
:1056200001B0704782B013468C4601908DF803108C
:105630008DF802209DF80200002819D0FFE79DF8A0
:105640000300C007002806D0FFE70198816841F4F5
:1056500080118160FFE79DF803008007002806D5D0
:10566000FFE70198816841F400418160FFE718E09D
:105670009DF80300C007002806D0FFE70198816865
:1056800021F480118160FFE79DF803008007002866
:1056900006D5FFE70198816821F400418160FFE7AA
:1056A000FFE702B07047000084B00B4603908DF80E
:1056B0000B1001929DF80B0001460128009104D0C7
:1056C000FFE7009802280BD015E00398816821F4C9
:1056D00060218160019803998A68104388600BE01B
:1056E0000398816821F4E0418160019803998A68F8
:1056F0001043886000E0FFE704B0704781B000907D
:1057000042F20440C4F20100016821F470210160FA
:10571000009902681143016001B0704780B585B0FF
:1057200094468E4604908DF80F108DF80E2002934B
:105730009DF80F0005281CDCFFE70498406B0190E2
:105740009DF80F0000EB80001F2101FA00F0019985
:1057500021EA000001909DF80E009DF80F1001EB6A
:105760008101884001990843019001980499486398
:1057700048E09DF80F000B281EDCFFE70498006B43
:1057800001909DF80F0000EB80001E381F2101FAE8
:1057900000F0019921EA000001909DF80E009DF8AB
:1057A0000F1001EB81011E398840019908430190D7
:1057B00001980499086324E09DF80F000F281EDC6F
:1057C000FFE70498C06A01909DF80F0000EB80008D
:1057D0003C381F2101FA00F0019921EA00000190F4
:1057E0009DF80E009DF80F1001EB81013C398840B7
:1057F00001990843019001980499C86200E0FFE70D
:10580000FFE7FFE79DF80E0009281BDCFFE704987F
:10581000006900909DF80E0000EB4000072101FA9E
:1058200000F0009921EA0000009002989DF80E1007
:1058300001EB4101884000990843009000980499C9
:10584000086123E09DF80E0011281DDCFFE7049895
:10585000C06800909DF80E0000EB40001E38072144
:1058600001FA00F0009921EA0000009002989DF8EA
:105870000E1001EB41011E39884000990843009049
:1058800000980499C86000E0FFE7FFE705B080BD1D
:1058900082B0019000910198D0F8801021F440511D
:1058A000C0F8801000980199D1F880201043C1F809
:1058B000800002B07047000082B00A4601908DF867
:1058C00003109DF80300C007002806D0FFE70198E9
:1058D000816841F480018160FFE79DF80300800743
:1058E000002806D5FFE70198816841F40011816026
:1058F000FFE702B07047000083B0134602900191A9
:105900008DF803209DF80300002825D0FFE79DF8BF
:105910000500C007002806D0FFE70298416841F45F
:1059200080714160FFE79DF805004007002806D51B
:10593000FFE70298416841F480614160FFE79DF80C
:1059400004008007002806D5FFE70298816841F02F
:1059500002018160FFE724E09DF80500C0070028F0
:1059600006D0FFE70298416821F480714160FFE7AB
:105970009DF805004007002806D5FFE7029841681A
:1059800021F480614160FFE79DF804008007002852
:1059900006D5FFE70298816821F002018160FFE7E8
:1059A000FFE703B07047000080B584B00390039810
:1059B00046F20041C4F20001884209D1FFE740F2FB
:1059C0001940029001F01CFB029801F001FB08E075
:1059D00040F21A40019001F013FB019801F0F8FA2F
:1059E000FFE704B080BD000082B00190002000906D
:1059F00001984089012101FA00F0009046F2006010
:105A0000C4F20000016841F001010160009846F213
:105A10001C61C4F200010A6822EA000008600198D3
:105A2000C089002822D1FFE7009846F20C61C4F239
:105A300000010A6822EA000008600198C1884288D3
:105A400042EA0141408946F24062C4F2000242F853
:105A5000301001988188028842EA0141408946F26B
:105A60004462C4F2000242F83010FFE70198C08996
:105A7000012821D1FFE7009846F20C61C4F2000131
:105A80000A681043086001980188428842EA01418F
:105A9000408946F24062C4F2000242F83010019898
:105AA0008188C28842EA0141408946F24462C4F2D8
:105AB000000242F83010FFE70198808900280AD1DF
:105AC000FFE7009846F20461C4F200010A6822EA86
:105AD0000000086008E0009846F20461C4F200018A
